:020000040800F2
:1040000000500020514100089941000899410008E2
:1040100099410008994100089941000800000000FA
:10402000000000000000000000000000F1A60008F1
:10403000994100080000000021A70008999D000890
:1040400099410008994100089941000899410008E8
:1040500099410008994100089941000899410008D8
:10406000994100089941000899410008CD9D000838
:1040700099410008994100089941000899410008B8
:10408000F5A5000801A60008D99D0008994100087F
:104090009941000899410008994100080DA60008BF
:1040A00099410008599F000899410008994100086A
:1040B000719F0008659F0008994100087D9F0008D6
:1040C00011A400089941000899410008994100088D
:1040D0009941000899410008994100089941000858
:1040E000994100089941000899410008000000002A
:1040F00000000000000000000000000000000000C0
:0C41000000000000000000005FF8E0F18B
:1041100010B5054C237833B9044B13B10448AFF301
:1041200000800123237010BD60000020000000000B
:10413000ECB3000808B5034B1BB103490348AFF3C8
:10414000008008BD0000000064000020ECB30008FF
:10415000002103E00B4B5B58435004310A480B4BE2
:1041600042189A42F6D30A4A02E00023136004324E
:10417000084B9A42F9D305F0E9FD07F0E3F806F0A1
:1041800049FBFEE79CD800080000002060000020EA
:104190006000002050410020FEE700002DE9F74FAD
:1041A00000221646644F654BDFF894C1DFF894E1B6
:1041B0004FF001080D6808FA06F808EA050438EA25
:1041C00005057AD14D68032D07D8013D022D00F277
:1041D0008D80DFE805F09BA0A600122D00F09E80E8
:1041E00072D8112D00F09480FF2C98BF82464FF0BA
:1041F0000F0988BF00F1040A4FEA8605DAF800804B
:1042000088BF203D09FA05FB28EA0B0802FA05F5EC
:1042100048EA0505CAF80050D1F804A01AF0805FFA
:104220004BD0BD6926F0030845F00105BD61BD69AD
:1042300008F1804805F00105019508F5803806F081
:10424000030B019D4FEA8B0BD8F8085009FA0BF9C4
:1042500025EA09093C4DA84267D005F58065A842CA
:1042600065D005F58065A84263D005F58065A84254
:104270000CBF0325042505FA0BF545EA0905C8F826
:1042800008501D681AF4803F14BF2543A5431D60E4
:104290005D681AF4003F14BF2543A5435D609D6827
:1042A0001AF4801F14BF2543A5439D60DD681AF4EE
:1042B000001F14BF2543A543DD600136102E7FF497
:1042C00077AF03B0BDE8F08FDFF880904D450DD09B
:1042D00018D8A9F580194D4508D009F570294D4524
:1042E00004D0A9F580194D457FF47EAF8A68D2B11C
:1042F000012A08BFC0F810804FF0080218BFC0F8AC
:10430000148071E76545F1D07545EDE7CA686BE744
:10431000CA68043268E7CA68083265E7CA680C32BE
:1043200062E7002260E704225EE70025A3E701259B
:10433000A1E702259FE700BF0010024000040140F2
:10434000000031100000321000080140000022106F
:10435000034A0130116813685B1A8342FBD370472C
:10436000803C0020002337B5026801939368DB0787
:1043700002D5002003B030BD9368124943F0010319
:104380009360114B1B68B3FBF1F30193019BABB935
:104390000E4C2568936813F00103EAD12168491B8C
:1043A0000229F7D9826A80F8243042F01002826232
:1043B000C26A42F00102C2620120DBE7019B013BBD
:1043C000E3E700BF40420F004C000020803C00208B
:1043D000036810B59A68D10701D4002010BD9A680F
:1043E0000A4922F001029A600C689A68D207F4D553
:1043F0000A68121B022AF8D9836A43F01003836209
:10440000C36A43F00103C3620120E7E7803C002058
:10441000436A9A6A12F0500F18D19A6A42F40072F5
:104420009A621A68926802F46022B2F5602F10D185
:10443000DA6872B99A6A22F480729A629A6AD2042D
:1044400007D49A6A42F001029A6270471B6A1B6B9A
:10445000184770471A4A036890420AD0B0F1804F5B
:1044600007D0A2F59432904203D002F580629042C8
:1044700015D14A6823F070031343114A90420AD0C1
:10448000B0F1804F07D0A2F59432904203D002F5EC
:104490008062904203D1CA6823F4407313434A698F
:1044A00023F08003134303608B68C3620B6883624D
:1044B000034B984204BF0B690363012343617047B8
:1044C000002C01400422F0B4C66B016C356803680F
:1044D00002FA01F72F421C6828D0670726D53C490D
:1044E0008B4216D03B4A934215D01432934214D0DB
:1044F0001432934214D01432934214D014329342A3
:104500000CBF4FF480034FF08063334A5360F0BC1C
:1045100070471346F9E74023F7E74FF48063F4E769
:104520004FF48043F1E74FF48023EEE702228A4004
:104530002A4238D0A70736D51A68910606D41A68D9
:1045400022F00A021A60012280F82120204A9342B8
:104550001CD0143293421BD0143293421AD014321E
:1045600093421AD0143293421AD0143293420CBFA1
:104570004FF400134FF00073174A5360002380F884
:104580002030836A002BC2D0F0BC18470223F3E727
:104590002023F1E74FF40073EEE74FF40053EBE70D
:1045A0004FF40033E8E708228A402A42AFD02207BE
:1045B000ADD51A6822F00E021A60012303FA01F148
:1045C000716083634FF480730384036BDAE700BF89
:1045D000080002401C0002400000024008B50368C9
:1045E0001A6822F00E021A601A6822F001021A609C
:1045F000164A93421CD0143293421BD01432934279
:104600001AD0143293421AD0143293421AD0143270
:1046100093420CBF4FF480134FF080730C4A5360E9
:104620004FF480730384436B03B19847002008BDA7
:104630000123F3E71023F1E74FF48073EEE74FF423
:104640008053EBE74FF48033E8E700BF08000240F7
:1046500000000240FEE7000006480068006880F3A2
:10466000088862B661B6BFF34F8FBFF36F8F00DF6C
:1046700000BF000008ED00E04FF0500383F3118805
:10468000BFF36F8FBFF34F8FFEE7000008B54FF009
:10469000500383F31188BFF36F8FBFF34F8F074A27
:1046A00013680133012B136007D14FF0E023D3F8D7
:1046B000043DDBB20BB1FFF7DFFF08BD580000205F
:1046C000054A08B513680BB9FFF7D6FF013B136025
:1046D0000BB983F3118808BD5800002008B5EFF32B
:1046E00005830F2B07D90E4A9B5C0E4A12789A421B
:1046F00001D9FFF7C1FF4FF0E0230B4AD3F80C3D7F
:10470000126803F4E063934208D94FF0500383F337
:104710001188BFF36F8FBFF34F8FFEE708BD00BF57
:10472000F0E300E0783C00207C3C00204FF0500398
:1047300083F31188BFF36F8FBFF34F8FFEE743689A
:104740009A684B608A609A68516099600368086152
:1047500001330360704730B50C68631C0AD10369EC
:104760005A684A6091608B60596003680861013340
:10477000036030BD00F10802134652681568A54277
:10478000FAD9EDE70369D0E901128A6051605968EE
:10479000814208BF5A60002202611A68013A1A6019
:1047A00018687047024A136801331360704700BFEE
:1047B000883C0020C36870B5DC680CB9FFF75CFF6B
:1047C00004F118063046FFF7DDFF114BE56A1B6860
:1047D000D3B904342046FFF7D5FF01230D4A142036
:1047E0001168AB400B43214613600B4B00FB0530B7
:1047F000FFF7A5FF094B1B68DB6AAB423BBF0120FB
:10480000074B0020186070BD31460648F0E700BF36
:10481000883C0020903C0020842400207824002044
:104820004C410020304100202DE9F04104464FF07A
:104830000108FFF72BFF90F845501B4F6DB200F1B8
:104840002406002D17DCFF234FF0010884F84530C3
:10485000FFF736FFFFF71AFF94F84450124F6DB27E
:1048600004F11006002D12DCFF2384F84430BDE86B
:10487000F041FFF725BF636A002BE4D03046FFF715
:1048800099FF08B1C7F80080013D6DB2D9E72369EF
:10489000002BE9D03046FFF78DFF08B1C7F8008044
:1048A000013D6DB2DEE700BF4C410020F8B50F4D71
:1048B0000F4EFFF7EBFE2C680768336842689F4293
:1048C00001D0A24210D90B68A71ABB420AD91B1B00
:1048D00013440B60336803602B6843600020FFF7CC
:1048E000EFFEF8BD00230B600120F8E748410020EF
:1048F0002841002008B9064B1868026B0020135CA1
:10490000A52B02D0C0F38F0070470130F7E700BF3E
:1049100078240020064A13681968064B19B94FF02D
:10492000FF321A6070471268D268D2685268F8E79E
:104930007C24002024410020394B2DE9F74F1B68CF
:10494000002B67D1374B1D6801351D6085B9364B8B
:104950001A6812680AB1FFF7E9FE344A196810684C
:1049600018601160324A136801331360FFF7D2FFF9
:10497000304E00243368DFF8C080AB4212D91422D5
:10498000D8F80030DB6A53432C4AD358022B2C4B07
:1049900028BF01241B68002B18BF0124204603B048
:1049A000BDE8F08FDFF880A0DFF89890DAF80030EB
:1049B0001B681BB94FF0FF333360E0E7DAF80030D3
:1049C000DB68DF687A68954201D23260D7E707F189
:1049D000040B5846FFF7D6FEBA6A1AB107F1180061
:1049E000FFF7D0FE0122FB6AD9F800009A4002438B
:1049F0001420C9F80020114A594600FB03200193F6
:104A0000FFF79DFED8F80020019BD26A934228BF91
:104A10000124CBE70C4A0024136801331360BDE77F
:104A2000883C0020484100207C2400208024002075
:104A300028410020244100207824002084240020E4
:104A40004C410020903C00202C41002032492DE9AF
:104A5000F0470B6843B94FF0500383F31188BFF35D
:104A60006F8FBFF34F8FFEE7FFF710FE0B68013B20
:104A70000B600C6824B10020FFF722FEBDE8F08730
:104A8000264B1B68002BF6D0254E264FDFF898905A
:104A900020E0F3684FF00108DC6804F1040A04F137
:104AA0001800FFF76FFE5046FFF76CFE1420E56A12
:104AB0003A6808FA05F31343514600FB05903B6042
:104AC000FFF73DFE194B1B68DB6A9D4202D3184B72
:104AD000C3F800803368002BDBD10CB1FFF71AFF5D
:104AE000144D2C6844B10127114EFFF725FF00B18A
:104AF0003760013CF9D12C600D4B1B68002BBAD0FC
:104B00004FF0E0234FF08052C3F8042DBFF34F8FD6
:104B1000BFF36F8F0120AFE7883C0020843C00206A
:104B200030410020903C0020842400207824002084
:104B30004C4100202C410020054B1B6833B1054B34
:104B40001868B0FA80F040094000704701207047B3
:104B500044410020883C0020C3685A1EC26033B91B
:104B6000036833F8022B03600F238260C3608368FD
:104B70005A008260C3F3C030704710B5012104466B
:104B80002046FFF7E9FF490001442046FFF7E4FF14
:104B90000028F5D1084610BDF0B54FF480438618C3
:104BA0000122002485B0CDE90001CDE90232009B4D
:104BB000B34202D3204605B0F0BD6846FFF7CCFFF4
:104BC000019FE8B16846FFF7D8FF05466846FFF742
:104BD000D4FF009B02385A1C00921B78AA1C03EBDE
:104BE0000023DB433B4402341A44934201D12C445A
:104BF000DDE70199481C019013F8010B0870F4E7F8
:104C0000009B01345A1C00927A1C01921B783B7065
:104C1000CDE700000A4B588A80B278B1188980B27B
:104C200060B11A89188992B2052A94BF42F21073B2
:104C30004EF6602380B288BF05385843704700BFE6
:104C4000002500200120704738B5134A538A9BB2D3
:104C50000BB9002038BD13899BB2002BF9D00F4A45
:104C60000F4B14681B6844EA030288B1002AF1D094
:104C70000C4D2968C91AFFF7CDFF8142E9D9286890
:104C8000041BFFF7C7FF844294BF00200120E1E727
:104C9000002ADED0ECE700BF0025002040240020E1
:104CA00044240020484100202923F0B51048114D2C
:104CB000114A124E124C13499F5D05F8017B1F5D8E
:104CC00000F8017B5F5C013B02F8017BF4D25323C7
:104CD0000D4D0E480E4AF75C05F8017BE75C00F8C5
:104CE000017BCF5C013B292B02F8017BF3D1F0BDA6
:104CF0002B210020D7200020842100201CD5000873
:104D000070D50008BCB90008012100205521002001
:104D1000AE210020704700000B4B70B533F83050C7
:104D200003EBC0035C88094B460003EB4000818025
:104D30008288334492B2AA4238BF85809A8892B260
:104D4000A24288BF9C8070BD26BC000800250020C0
:104D500070B5114B114C33F8306003EBC003598828
:104D60009A8804EB40034500988880B2884207D1B6
:104D70009E802C44A08880B2431A5842584170BD8E
:104D800098888E1A80B2B042B7BF9888998012185E
:104D900092B2B8BF9A80ECE726BC0008002500203C
:104DA000034B588980B2003818BF0120704700BFFC
:104DB0000025002008B5144B198E5B8C89B29BB27C
:104DC0009BB179B140F25133143189B2994288BF15
:104DD00000211620FFF7A0FFB1F5527F34BF00205D
:104DE000012008BD4FF4F071F3E759B10A3189B2DF
:104DF000B1F5E17F88BF00211620FFF78DFFB1F5E7
:104E0000E17FEBE7FA21F7E700250020034B588A02
:104E100080B2003818BF0120704700BF0025002075
:104E200008B5104BD9885B8C89B29BB273B1143131
:104E300089B2B1F5117F88BF3C210120FFF76CFFDB
:104E4000B1F5117F14BF0020012008BD0A3189B2DD
:104E5000B1F5967F88BF0A210120FFF75DFFB1F50C
:104E6000967FEFE70025002070B50F20FFF770FF59
:104E700005462748018E8288C388408C89B280B25B
:104E800092B29BB280B3052001EBC10102EBC206D6
:104E9000A031A03603EBC304B1FBF0F1B6FBF0F692
:104EA000A034B4FBF0F489B2B6B20A23B1FBF3F13B
:104EB000B6FBF3F6A4B2B4FBF3F401EB81014900B5
:104EC000162089B2FFF728FF06EB86014900002073
:104ED00089B2FFF721FF04EB84014900012089B268
:104EE000FFF71AFF284670BD09202039203A01EB50
:104EF000810102EB820291FBF0F192FBF0F6203B84
:104F000003EB830393FBF0F489B2B6B2CDE700BFA5
:104F100000250020034BD88A80B2003818BF01203A
:104F2000704700BF00250020034B188D80B2003869
:104F300018BF0120704700BF002500207047F8B55A
:104F4000002506462C461427EBB207FB03639A683C
:104F50000AB92046F8BDDB6813B90134E4B202E0B7
:104F600098470028F9D10135EEE7000038B5002355
:104F70000122104D04462B7003681A70D0E90131EC
:104F8000142009781B6800FB0133187C242809D8F9
:104F9000FFF7DEFE2B7813B1032223691A60012389
:104FA0002B7038BD586808B18047F3E7E3681A7082
:104FB000F0E700BFA420002010B5224B98689B6842
:104FC00080F4007083F04003C3F38013C0F34020EB
:104FD00050EA43001FBF1C4B1A681C4B1A601C4A46
:104FE0001378834212D180B1174B1A4A1B6812689A
:104FF0009B1AB3F5C87F20D30122174B90421A7039
:105000001DD002280CBF0820202010BD38B103435A
:10501000002013700C4B1A680E4B1A60F5E70E490E
:105020000C7844B9012B02D0022B18BF102310704A
:1050300008701846EEE70346F9E70020E5E704208C
:10504000E3E700BF00080140484100204024002061
:105050008D200020902000208C200020F0B55442AC
:10506000A0421E46059D134624DD602822DC002850
:1050700000EB0207B6BF44420024E4B2602FC4BF75
:10508000C0F16002D2B2E9B9134F21183F6805EBB5
:10509000040C0F4421468A420DD8102E0AD1102E3E
:1050A00018BF00230D492344096820442B440144C0
:1050B000A2420AD8F0BD1CF801EB013107F801EB60
:1050C000C9B2E8E70829EAD0E7E713F8010B013491
:1050D00001F8010BE4B2EBE75C1F0020601F002029
:1050E00002292DE9F34104461CD11022254B264DFF
:1050F0001A700C22254B1A70244B254F1E78214B19
:10510000B7F900801B782349DA08724304FB025583
:1051100000953246404691F900104644FFF79EFF45
:105120003E8009E001280AD11A4BB3F900201AB9D0
:1051300017490A8008221A8002B0BDE8F081FBD925
:1051400000290BBF0820102006220C220D4B1870DE
:105150000E4B1A700422104B1888A0420AD85D88A2
:10516000A54207D9201AD3E9012584B2002918BF26
:105170001546C1E7013A03F10C03EDD1144615467B
:10518000BAE700BFD4200020A8B70008D52000202F
:105190002A2000202C200020A000002038B5044642
:1051A0000D46237803B938BDF02B05D898B20134E9
:1051B0002946FFF795FFF4E76278002AF3D0F03B29
:1051C000C3EB03230F3A134498B20234F0E7000014
:1051D0000B4B198B0B4B89B21A680B4B02291B68BE
:1051E00007D0032908D0012908D1D08E1844FFF731
:1051F000D5BF108F0121F9E7508FFBE7908FF9E7BA
:1052000000250020741E0020781E00200B4BD98C36
:105210000B4B89B21A680B4B01291B6805D0022978
:1052200008D1B2F84A00012101E0B2F84800184460
:10523000FFF7B4BFB2F84600F5E700BF0025002035
:10524000741E0020781E0020054B06485B8C064A21
:105250009BB20121002B08BF1046FFF79FBF00BF84
:10526000002500200AB400080FB40008094B198A71
:10527000094B89B21A68094B01291B6804D002291D
:1052800006D1908D012100E0508D1844FFF786BFB4
:10529000108DF7E700250020741E0020781E0020E6
:1052A000074B084A9B8C12689BB233B1D38D064AD8
:1052B000012110681844FFF771BF138EF7E700BF94
:1052C00000250020741E0020781E00200B4BD98A78
:1052D0000B4B89B21A680B4B02291B6807D00329B4
:1052E00008D0012908D1108E1844FFF757BF508EFF
:1052F0000121F9E7D08DFBE7908EF9E7002500202A
:10530000741E0020781E0020002205490A800549ED
:105310000A800178012914BF11460130FFF73EBF12
:105320002A2000202C20002010B50A4B0A4A0C46E7
:105330001B68483033F81030106804EB44041844FC
:10534000FFF7E2FF0022054BA400023C1C80044B47
:105350001A8010BD741E0020781E00202A20002014
:105360002C20002037B5294B294A1B68044603EB43
:105370004003B3F8D43010681844FFF7C5FF254A3E
:10538000D38A9BB2022B23D0032B14BF4FF4FA70A5
:105390004FF49670204B1978204BE1B9D18A89B22D
:1053A000C9B119681E4DA1421E4902D01C602B686C
:1053B0000B602B680968928A5B1A92B2B3FBF0F318
:1053C00002B30322B3FBF2F202EB42029B1A0AE0A1
:1053D0004FF4C870DEE78D211960D38A9BB2B3FA0F
:1053E00083F35B095B006022544304EB43140E4BD0
:1053F00000212344009310234E201A46FFF72EFE6F
:1054000003B030BD022B28BF0223ECE7741E00203E
:10541000781E0020002500207C1E00205400002063
:1054200048410020B820002021BA00080020FFF7E2
:1054300099BF0120FFF796BF0220FFF793BF03201B
:10544000FFF790BF0420FFF78DBF37B50C4611461C
:105450000022042C0092ADF804208DF8062032D9E9
:105460000A22B0FBF2F502FB150002308DF80500B0
:10547000B5FBF2F002FB105502358DF8045080B2F6
:105480000A25B0FBF5F205FB120502358DF8035035
:1054900090B20A25B0FBF5F205FB120502358DF836
:1054A000025090B20A25B0FBF5F205FB1205023559
:1054B0008DF8015090B20BE01578022D17D102F84B
:1054C000010B013311E0DBD0032CE2D0012CE9D138
:1054D0000A25B0FBF5F205FB120202328DF800201E
:1054E0002BB16A4600231220013CA342E4DB68464C
:1054F000FFF754FE03B030BD08B50A4A53899BB28A
:105500006BB1012350891946023080B21A46FFF769
:105510009CFF01210448BDE80840FFF73FBE012180
:105520000248F8E7002500200CB400080EB400087B
:10553000012370B50A240D4D1A46A889194680B278
:10554000B0FBF4F0FFF781FF01210948FFF726FEC9
:10555000A88980B2B0FBF4F304FB1300BDE87040EF
:10556000012380B21A461946FFF76FBF00250020BD
:1055700011B40008094A138E9BB233B10123108E77
:1055800003211A4680B2FFF760BF054B054A1B682E
:1055900010685B8A01211844FFF700BE0025002037
:1055A000741E0020781E0020034B0221588F012317
:1055B00080B21A46FFF749BF00250020034B0221A5
:1055C000188F012380B21A46FFF73FBF0025002045
:1055D0000122034B1146588A002380B2FFF735BFE2
:1055E00000250020034B0321D888012380B21A46EE
:1055F000FFF72BBF0025002008B5154B1A8992B282
:1056000052B90121134B144A1B6810685B8A184475
:10561000BDE80840FFF7C2BD1A89188992B2052A71
:105620000CD8012380B200EB80004000022180B240
:105630001A46FFF70AFF01210848E9E70123053868
:10564000022180B21A46FFF700FF01210448DFE77C
:1056500000250020741E0020781E0020ECB40008F5
:1056600013B4000808B50C4A538B9BB253B90121FF
:105670000A4B0B4A1B6810685B8A1844BDE8084057
:10568000FFF78CBD0123508B022180B21A46FFF731
:10569000DCFE01210348F1E700250020741E0020F4
:1056A000781E002013B4000807B5164BB3F84A2043
:1056B00092B25AB90121144B144A1B6810685B8AD4
:1056C000184403B05DF804EBFFF768BDB3F84A2057
:1056D00092B2052A0AD10E4B182200930021102302
:1056E0004620FFF7BBFC03B05DF804FBB3F84A00AB
:1056F0000123022180B21A46FFF7A7FE01210548C7
:10570000DFE700BF00250020741E0020781E002067
:1057100068B60008ECB4000808B50C4A938E9BB23A
:1057200053B901210A4B0B4A1B6810685B8A184465
:10573000BDE80840FFF732BD0123908E022180B200
:105740001A46FFF782FE01210348F1E700250020F9
:10575000741E0020781E002015B4000870B5154D89
:105760002B8D9BB2DBB101230A24288D1A4680B20F
:105770001946B0FBF4F0FFF768FE01210E48FFF771
:105780000DFD288D80B2B0FBF4F304FB1300BDE8DF
:105790007040012380B21A461946FFF756BE074BE8
:1057A000074A1B6810685B8A0121BDE870401844F5
:1057B000FFF7F4BC0025002011B40008741E00207F
:1057C000781E0020034B588D012380B21A461946DB
:1057D000FFF73BBE00250020034B988D012380B2CC
:1057E0001A461946FFF731BE002500200221FFF7B7
:1057F00077BCC0F11100C0B2FFF7F8BF034B988B24
:1058000080B2003818BF0120FFF7F3BF0025002049
:10581000034BD88E80B2003818BF0120FFF7E9BFD4
:1058200000250020034B988A80B2003818BF012061
:10583000FFF7DFBF00250020034BD88B80B2003874
:1058400018BF0120FFF7D5BF00250020034B188C9F
:1058500080B2003818BF0120FFF7CBBF0025002021
:10586000044BB3F84C0080B2003818BF0120FFF79A
:10587000C0BF00BF00250020F8B51D4B05460E2017
:105880001C78FFF7B3FF1F23B5FBF3F0194BC0F1F2
:105890000A0010F0F80F1968C5B2C0F3C4060BD0A7
:1058A000F32C8CBF01230D23204600272344DBB2B9
:1058B000421CD2B2934218D1FF2205F00705AA403C
:1058C0006025F32C8CBF01230D2375432344DBB2E9
:1058D00062F0FF02601CC0B2834200D1F8BD2C44CC
:1058E0000E5D16400E550446F4E70F541046DFE7F0
:1058F0002A2000205C1F002048F2E803584364235C
:10590000C00B584340F23D13B0FBF3F0074B5A8EE7
:1059100092B242B139B95A8E92B282422FBF084632
:105920005B8E9BB2C01A024B1860704700250020A6
:105930004824002038B50021FFF7DEFFB0B1012276
:105940000D4B53F83210D400884210DA23444FF440
:105950007A7453E90252401B6043491B90FBF1F0FB
:105960005B689B1A584390FBF4F0104438BD013239
:10597000652AE6D10020F9E7C4D50008037B8268D8
:1059800010B530F813400A44121B826020F813103F
:10599000013303F00303037310BD000010B5044688
:1059A00071B10C4B0C481B68D96B1A6C11445A6CC2
:1059B0009B6C1144194489B2C90089B2FFF7DEFF1C
:1059C000054B9B68C3F38F039B00B3FBF4F080B2DD
:1059D00010BD00BF08220020A820002008B5084BF9
:1059E0000146D88D80B2FFF7D9FF4B234043B0FB6F
:1059F000F3F0044BC0EB00201B88B0FBF3F008BDB4
:105A0000002500205425002010B50446002C08462F
:105A100006DC094BD88D80B2FFF7C0FF002010BD17
:105A2000FFF7DCFFC4EB0424B4FBF0F0FF2828BF31
:105A3000FF20C0B2F3E700BF0025002010B5012110
:105A4000FFF7E2FF134B902804461A781BD90AB1DE
:105A500000221A7014211A780F4B002019800F4B66
:105A60001A700F4B1C70FFF7B9FFFF23E821444366
:105A70000C4AB4FBF3F413684B43182101FB0433C5
:105A80001B0A136010BD6F28E4D8002AE2D101225E
:105A9000DFE700BF51000020701E00207D1E0020A7
:105AA00070240020943C002008B5084B08481B686F
:105AB000D96B1A6C11445A6C9B6C1144194489B20D
:105AC000490089B2FFF75AFF084608BDD8210020D7
:105AD0007C2000204AF6AA22014B1B681A607047FE
:105AE0005C2300204FF0E0204FF0805408B50649B9
:105AF0000B68012B05D9C0F8044DBFF34F8FBFF3DE
:105B00006F8FFFF7E7FFF3E78424002008B568B143
:105B100000210B460D4A013332F8020BDBB2102B89
:105B20000144F8D10A4889B2FFF728FF084B98686A
:105B30006423C0F3CE00A0F59B500538584340F2D3
:105B4000E23390FBF3F080B208BD00BF7C00002080
:105B50009420002038B5044678B1FFF7A5FFFFF781
:105B6000E9FE05462046FFF7D1FF0A23B0FBF3F319
:105B70009BB2581920EAE07038BD024B9868C0F318
:105B80008F00ECE77C20002010B547F6FF70FFF790
:105B9000D1FE04460020FFF7B9FF0A23B0FBF3F063
:105BA000013C80B2204410BD0122084B1A7040F223
:105BB0001B12074B1A80074B1B68DA6240F20D126A
:105BC0005A6340F682229A62704700BF7E1E002010
:105BD00054250020B023002010B5FFF7D5FF044660
:105BE0000020FFF7B7FF053CA4B284422CBF002081
:105BF000012010BD202210B51D4B83F83D201D4B08
:105C0000186870B3036C43B14FF0500383F31188ED
:105C1000BFF36F8FBFF34F8FFEE703681BB9836835
:105C20000BB1FEF729FDFEF759FDEFF311844FF09C
:105C3000500383F31188BFF36F8FBFF34F8F826BD5
:105C4000C36B9A420BD290F845100132FF294BB238
:105C5000826307D1436A13B12430FEF7ABFD84F3AE
:105C6000118810BD01335BB280F84530F7E700BF03
:105C70000823002030200020436A1A68116821F4AC
:105C8000806111600021586B59854163986B4163B5
:105C900093F83D0060284FF0200083F83D0083F822
:105CA0003E1008BF1964136823F001031360FFF767
:105CB000A1BF0000044B054A1B681068B3F8D2303E
:105CC0001844FFF721BB00BF741E0020781E00207F
:105CD00070B5154B154D06461C6828680430FEF754
:105CE00051FD40B92A681249D06A01220B688240EE
:105CF00023EA02030B602B68A4195C6007D30D4BE9
:105D000018682968BDE870400431FEF724BD0A4BCD
:105D1000186829680431FEF71EFD084B1A68944282
:105D200038BF1C6070BD00BF4841002078240020AF
:105D3000903C0020802400207C240020244100206E
:105D400008B550B94FF0E0234FF08052C3F8042D4E
:105D5000BFF34F8FBFF36F8F08BD074B1B680BB1AD
:105D6000FEF78AFCFEF71EFDFFF7B2FFFEF76EFEA0
:105D70000028E7D0F0E700BF883C00203220FFF782
:105D8000DFBF10B5FFF718F904463CB9FFF714F967
:105D90000446FFF7F3FF002CF8D010BDFFF70CF915
:105DA0000446FFF7EBFFF0E770B50D4E356805448C
:105DB000FFF702F9044654B9FFF7FEF80446FFF76F
:105DC000DDFF33689D420AD3002CF5D007E0FFF7D2
:105DD000F3F80446FFF7D2FF33689D42EBD270BD63
:105DE00048410020074AB2F84A309BB2052B01D146
:105DF000FFF7C7BF4FF47A70B2F84A309BB25843EE
:105E0000FFF7D2BF0025002010B50C46044B1968DF
:105E10001831FEF7A0FC2046BDE81040FFF758BF40
:105E2000782400202DE9F043954B85B01C6832237F
:105E3000019344B94FF0500383F31188BFF36F8F80
:105E4000BFF34F8FFEE7256C45B14FF0500383F34E
:105E50001188BFF36F8FBFF34F8FFEE7FEF76CFE25
:105E600040B94FF0500383F31188BFF36F8FBFF336
:105E70004F8FFEE72946834F834E8DE0019B23B968
:105E8000002D00F02F81FEF751FC21B93B680293F1
:105E90007E4B1B680393FEF713FCFEF783FCFEF7B3
:105EA000F5FB94F8443001A9FF2B04BF002384F8CC
:105EB000443094F8453002A8FF2B04BF002384F837
:105EC0004530FEF7FDFBFEF7F1FC002840F09C801A
:105ED000FEF7DCFBA36B002B56D1FEF7F1FB23682A
:105EE000002B3BD1FEF7D2FBA568002D33D03268E2
:105EF000EB6AD26A93427FD2AA69DFF89481002AC2
:105F0000A1BF3268D26AC2F10602AA61142202FB62
:105F100003836A699A426BD105F104094846FEF78A
:105F200031FC5C4B38B90120E96A1A6800FA01F1CA
:105F300022EA01021A6032681968D26AEA6201250F
:105F400005FA02F0084318601420494600FB02805D
:105F5000FEF7F5FB0120FEF7B3FB0546019904F1BE
:105F60002400FFF751FF2046FEF75EFCFEF76EFDB2
:105F700088B94FF0E0234FF08052C3F8042DBFF3EF
:105F80004F8FBFF36F8F06E02046FEF799FBFEF7B9
:105F90004BFCFEF75BFD0121FEF778FBA36B002BAA
:105FA0003FF46CAF013BA363236843B9364B1A68D7
:105FB0001AB119688A6D01328A651B68A36023696A
:105FC00073B104F11000FEF7F5FB48B14FF0E02388
:105FD0004FF08052C3F8042DBFF34F8FBFF36F8F84
:105FE000FEF76EFB012505F0010005B0BDE8F0836A
:105FF0003368DB6AEB62ADE73368686DDB6A984251
:106000002CBF00200120A6E72046FEF70DFCFEF77E
:106010001DFDFEF73BFBA36B13B1FEF751FBBAE787
:10602000FEF74EFB002DDED0FEF730FB636A1BB19E
:10603000236B1B68C3F10603A468002C52D0A16D2A
:1060400041B94FF0500383F31188BFF36F8FBFF353
:106050004F8FFEE7626D934238BF1346E26A934268
:1060600040D001293ED1084909688C4214D14FF033
:10607000500383F31188BFF36F8FBFF34F8FFEE799
:1060800030200020284100207824002048410020B2
:1060900084240020903C0020A169E3620029A4BF71
:1060A000C3F10603A3611423104D03FB025263697D
:1060B000934217D1261D3046FEF764FB0C4AE76A6F
:1060C00028B901241368BC4023EA040313600123A8
:1060D00014201168BB400B4300FB0750314613608E
:1060E000FEF72DFBFEF7ECFA00257CE78424002068
:1060F000903C0020012508B5174CFEF7C7FA23682D
:1061000093F86030022B12D023683220DA6DDA6502
:10611000236883F86050FFF7DBFD4FF0E0234FF07A
:106120008052C3F8042DBFF34F8FBFF36F8FFEF77C
:10613000C7FAFEF7ABFA236893F86030022B01BF71
:106140002268D36D03F07F43D3650022236883F870
:106150006020FEF7B5FAD0E77824002010B5134C84
:10616000FEF794FA2368DB6D7BB90122236883F87C
:106170006020FFF7ADFD4FF0E0234FF08052C3F8F1
:10618000042DBFF34F8FBFF36F8FFEF799FAFEF721
:106190007DFA2368D86D10B100222368DA650022E9
:1061A000236883F86020FEF78BFA10BD7824002066
:1061B000144B70B51D68144E6A6912F0400201D08C
:1061C00000200EE06C6914F010040BD06FF0100189
:1061D0006961202101201A6483F83C201A6383F846
:1061E0003D1070BD3268521A9042E5D21A6C0320FD
:1061F00042F020021A64202283F83C4083F83D20BC
:10620000EFE700BF08230020803C0020154B70B54D
:106210001D68154E6A6912F0800201D000201FE04F
:106220006C6914F480640FD13268521A9042F1D232
:106230001A6C032042F020021A6420221C6383F8A7
:106240003C4083F83D200BE06FF4806169610421DC
:106250001964202101201A6383F83C2083F83D1043
:1062600070BD00BF08230020803C0020F0B5114D18
:10627000DFF844C02E68070C012F0CBF7469B469A5
:1062800020EA0404A4B2B4FA84F46409A14201D05F
:1062900000200EE0DCF80040E41AA242ECD2002319
:1062A000202203202B6385F83C3085F83D2085F8BB
:1062B0003E30F0BD08230020803C002070B505462C
:1062C000144A154E14686369DB4313F0020014D0BE
:1062D000636913F4806311D02368202143F40073B1
:1062E00023606FF48063636104231364002301203F
:1062F000136382F83C3082F83D1070BD3068401A5C
:106300008542E0D220211363032082F83D1082F8F9
:106310003C30F2E708230020803C002010B54CF20E
:1063200050342049204B0868DA68D20733D4DA6841
:10633000910644BF2022DA60DA68D20606D4DA6910
:10634000D40703D4D86810F0040023D0164AD368C9
:1063500013F0100305D01549CB6943F00203CB615C
:106360001023D268500706D5104943F00403CA69C8
:1063700042F00102CA610C4AD169C90708D50B482D
:10638000C16941F00401C161D16921F00101D1610C
:106390000120D36010BD0A68121AA242C4D903209A
:1063A000F8E700BF803C002000200240502400207D
:1063B000134B10B5DB68C3F30223C3F107041A1DA6
:1063C000042C28BF0424062A88BFDA1E4FF0FF33AE
:1063D00098BF0022A34021EA0303002803FA02F336
:1063E000ACBF00F16040074A4FEA0313DBB2B5BF10
:1063F00000F00F0000F56140135480F8003310BD29
:1064000000ED00E014ED00E013B590F83D300446D7
:1064100003F0FF0200687BB91D4B84F83C209842D2
:1064200028D103F50333DA6942F00202DA61DB694D
:1064300003F002030093009B0223211D84F83D30EA
:10644000FEF708F80123002084F8463084F83E3037
:1064500084F83F3084F8403084F8413084F842308A
:1064600084F8433084F8443084F8453084F83D3073
:1064700002B010BDB0F1804FDED1064BDA6942F0B8
:106480000102DA61DB6903F001030193019BD3E7A9
:106490000004004000100240F0B56D4C6D4E94F8C1
:1064A0003D3087B003F0FF05002B5ED1C0221223E0
:1064B0000127CDE902230323674802A9CDE904732C
:1064C00084F83C50FDF76AFEF369644A43F4001314
:1064D000F361F3694FF0800E03F400130193019B05
:1064E0005F4B4FF48070C3E9002518225D49C3E972
:1064F00003E5C3E90555C3E90F129D60DD61D1F8DD
:106500008020DFF864C102EA0C0242EA0E02C1F800
:1065100080209D631884554AA3635C62544B1A60C3
:106520001022C3E901254FF48052DA611422C3E935
:1065300003E5C3E90555C3E90F12CA6E02EA0C026E
:1065400042F4845242F01002CA669D6318840F21FF
:106550001F205C626363FFF72BFF4FF00043454D44
:1065600020202B60FFF724FF6F602423216884F82C
:106570003D300B68404A23F001030B60736860688C
:10658000C3F30223D25C3D4B1B68D3403C4A90428C
:1065900094BF3C4A3C4A93428CBF002201220AB17C
:1065A00007B0F0BD364D394AA842B3FBF2F288BFBE
:1065B0004FF496764A6082BF72434FF47A76B2FB0C
:1065C000F6F2A84202F101020A6203F1FF3323D876
:1065D0004000B3FBF0F340F6FC720133134233D0BA
:1065E000C3F30B03CB61D4E9073213430B60D4E947
:1065F000032313438B60D4E905321343CB600B684C
:10660000202243F001030B600023236484F83D2023
:10661000236384F83E30C3E7A26852B900EB400020
:10662000B3FBF0F30133C3F30B037BB143F400433B
:10663000D8E719224243B3FBF2F30133C3F30B0350
:1066400023B143F44043CDE70423CBE70123C9E75B
:106650000823002000100240000C0140800002408E
:106660007C220020000002400FC0FFFF6C000240AF
:10667000C022002000E100E02EB500084C00002000
:10668000A08601007F841E00FF083D0040420F00ED
:10669000F0B5294D11202A6885B01368402623F0F3
:1066A000010313600123CDE9010302238027234C5A
:1066B0006946204603930096FDF770FD266100971A
:1066C000FDF76CFD65234FF480022761A168090680
:1066D00027D5122201234027CDE90123802602235A
:1066E0006946164803930097FDF758FD0096FDF79D
:1066F00055FD276126612A68136843F4004313603F
:1067000000BF2A68136823F40043136000BF2A689F
:10671000136843F00103136005B0BDE8F040FFF7D4
:10672000BBBE226100BF00BF00BF00BF013B2661AE
:10673000CCD105B0F0BD00BF08230020000C014003
:1067400090F83C3010B5012B21D0022380F83D3069
:10675000036809685A689C6822F070020A435A600C
:106760000B4A93420AD0B3F1804F07D0A2F594327E
:10677000934203D002F58062934202D124F0800458
:106780009C60012380F83D30002380F83C3010BD30
:10679000002C014070B5826A044686B0002A3BD1C5
:1067A000654B0168C262994280F8242003F56C436E
:1067B00040F0878099694FF4807541F400719961C8
:1067C0009B695E4903F400730293029B5C4B4FF498
:1067D000806CC3E900128021C3E903152021C3E9BD
:1067E00005C14FF4805157481A649A60D961816895
:1067F000D86321F47F5121F0300141F4AD51816023
:106800009A631D8423625C620F211220FFF7D0FD82
:106810004FF480224C4B1A602046FDF7D9FDA36A45
:1068200013F0100340F08480002840F08180A26AB9
:10683000616822F4885222F0020242F00202E0690A
:10684000A568A262E2680143B5F5807F41EA420192
:1068500057D06E1E7042704100026669012E07D14A
:10686000002A50D1A269013A40EA423242F4006063
:106870002268B5F5807F566826F4694640EA06002E
:1068800050609668314800EA060040EA01009060D6
:1068900001D0012D02D12369013B1B05D06A20F4F0
:1068A00070000343D3629268294B1340994233D15D
:1068B0000023E362A36A23F0030343F00103A3620E
:1068C00034E09A69032542F480629A619B6902A9C7
:1068D00003F480630193019B01231E48CDE9023537
:1068E000FDF75CFC8023A0F58060CDE90235FDF763
:1068F00055FC022300F58060CDE90235FDF74EFC22
:1069000082E72846A9E7A26A42F02002A262E26A70
:1069100042F00102E262ABE7A36A23F0120343F004
:106920001003A362E36A43F00103E36206B070BDA3
:10693000A36A43F01003C2E70024014008000240AC
:10694000382200200000024000E100E0FDF7E1FFF6
:10695000FE0E1FFF000C014090F83E30012B22D1AB
:10696000022380F83E3003681A6A22F001021A629C
:106970001A6A42F001021A620B4A93420AD0B3F13A
:10698000804F07D0A2F59432934203D002F5806283
:10699000934204D19A6802F00702062A03D01A68CB
:1069A00042F001021A607047002C014010B590F8C7
:1069B0003D30044603F0FF020BB980F83C2002236F
:1069C000206884F83D30211DFDF744FD012384F843
:1069D000463084F83E3084F83F3084F8403084F804
:1069E000413084F8423084F8433084F8443084F8ED
:1069F000453084F83D3010BD022380F83D300368F7
:106A0000DA6842F00102DA600B4A93420AD0B3F12D
:106A1000804F07D0A2F59432934203D002F58062F2
:106A2000934204D19A6802F00702062A03D01A683A
:106A300042F001021A607047002C014013B500219A
:106A40001920FFF7B5FC4FF000721B4B1B4C1A606E
:106A50001B4B20469A6942F400629A619A6902F4DB
:106A600000620192019A5A685A685A685A68154A2F
:106A700012685B68144AC3F3C223D25C134B2161D2
:106A80001B68A160D340124AB3FBF2F3114A013BE9
:106A9000226040F2E7326360E260FFF7B5FC48B97C
:106AA00094F83D30012B05D1204602B0BDE81040DE
:106AB000FFF7A2BF02B010BD00E100E06823002094
:106AC00000100240002002402EB500084C000020BB
:106AD00040420F00002C014090F82430F0B5012B0B
:106AE00062D001231F2480F824300F694D680368A9
:106AF000EA1B02EB82020F32944044F44014E44358
:106B0000BD420E689BBFD3F838C006FA02F29A6BFA
:106B100007F1FF379DBF42EA07520CEA0404224303
:106B200022409A639A68D20707D49A68CC6922F403
:106B3000E04222F0010222439A608C69012C0CD1C0
:106B4000CA69B2F5E04F0BBF5A68826A42F48062AC
:106B500042F020020CBF5A6082624A69012A04D1C5
:106B60001CBB5A6842F480525A60092E4FF0070449
:106B70008F6806EB46021DD9DE681E3A944026EA6D
:106B8000040407FA02F22243DA60022DC968154CA8
:106B900018D0032D1BD0012D1ED15A6922400A4363
:106BA0005A61002380F82430F0BD826A42F020024E
:106BB0008262DAE71E69944026EA040497403C4367
:106BC0001C61E2E79A6922400A439A61E9E7DA69BF
:106BD00022400A43DA61E4E71A6A22400A431A6251
:106BE000DFE700BF00F0FFFF10B590F82430044647
:106BF000012B3DD0012380F82430FDF7B3FB0028A2
:106C00003FD1A36A214A23F4405323F0010343F404
:106C10008053A3622368934205D1A2F58062526833
:106C200012F4702F25D1A26A22F48012A262A26A05
:106C300012F4807208BFE262002284F824206FF010
:106C400004021A605A68520512D49A6802F4E042AB
:106C5000B2F5E04F11D10D4A934205D1A2F5806201
:106C6000526812F4702F08D19A6842F402129A60A6
:106C700010BDA26A42F48012D8E79A6842F400423A
:106C8000F5E7002384F82430F2E700BF0028014034
:106C9000054B1A69120605D5044A5A6002F188327A
:106CA0005A601B69704700BF0020024023016745FE
:106CB0002DE9F047FEF70EFF35232A4D2A4CEB60F5
:106CC0000120FFF7E5FFFDF743FBFEF703FF237EFF
:106CD000012B17D001232376FFF720FB80B9E06159
:106CE0002B6943F002032B61204B6B612B6943F04E
:106CF00040032B61FFF712FB2B6923F002032B618A
:106D000000232376FFF7C4FF4FF00109184F174DFA
:106D1000144EDFF86080FEF7DDFE237E012B15D0D8
:106D2000B7F800A084F81890FFF7F8FA60B9E061AE
:106D3000336943F001033361A5F800A0FFF7EEFAD1
:106D4000336923F00103336100232376023545457F
:106D500007F10207DFD1034A136943F0800313618F
:106D6000BDE8F087002002405024002000FC00080D
:106D70000025002054FC0008002337B5019390F84B
:106D800024300446012B5FD0012380F82430FDF726
:106D90001FFB0546002839D1A36A2C4823F48853E9
:106DA00023F0020343F00203A362294B1A68294B24
:106DB00059685B68C1F3C221415CC3F3813301337D
:106DC00022FA01F15B00B1FBF3F3B2FBF3F25200E4
:106DD0000192019BF3B92046FDF7C4FA23689A6833
:106DE00042F008029A601C4A10689968090715D495
:106DF000996841F0040199601068996849071ED4A8
:106E0000A36A23F0030343F00103A362002384F881
:106E1000243011E0019B013B0193DAE71168091A64
:106E20000A29E2D9A36A012523F0120343F01003D3
:106E3000A362002384F82430284603B030BD1168D3
:106E4000091A0A29D9D9EDE70225F5E72EB5000878
:106E50004C00002000100240803C002070B5114A18
:106E6000114B9468DB8DC4F38F049BB2A400B4FB78
:106E7000F3F40A26A4B2B4FBF6F501230022284657
:106E80000221FEF7E2FA00210848FEF787F9012304
:106E900006FB1540BDE870400022194680B2FEF79F
:106EA000D4BA00BFA82000200025002011B400089B
:106EB000134B5A8992B202B312485A898068D98D0D
:106EC000C0F38F0089B28000B0FBF1F0023202F013
:106ED000FF0280B2B0FBF2F09A8992B2904238BFC2
:106EE00098899B8938BF80B29BB2C01A092828BFF5
:106EF00009200430C0B2FEF779BC0F20FBE700BFC9
:106F000000250020A82000202DE988480020FEF759
:106F100095FD00232024694A694D1360694B1A6866
:106F2000694B1A600520FFF719F90120FEF712FEE0
:106F3000E88D012180B2FEF731FD013CF2D1634EB4
:106F40004FF4FA60FFF70AF9002800F0AE80012044
:106F5000FEF700FE594B83461C685D4FDFF874A1B5
:106F6000DFF87491DFF87481002C00F09780B4F59D
:106F7000E17F28BF4FF4E174FEF706FEA04202D283
:106F8000FEF702FE0446A4EB0B040A2C1FFA8BFB4F
:106F900005DD3988ABEB010109B20A2906DDDAF813
:106FA0000020A7F800B0C9F800200BE0DAF80020B4
:106FB000D9F80030D31A44F62062934202D9012353
:106FC00088F800304FF47A7B4549DAF800300A68D7
:106FD00000209B1ABBFBF3FBDAF800300B60FEF7D6
:106FE000FDFCAB8E9BB243B10A22AB8E9BB25343E6
:106FF0009842C2BFA88E80B250434123B3FBFBF33B
:107000003268C3F164035343642293FBF2F3822298
:10701000544394FBFBF42344834239DD30603068F1
:107020002B8D9BB20BB340F6C4116B8D2D4C9BB2D4
:107030004B43DAF800202168521A934209D2FA2110
:10704000AA8DDAF8003092B2236001FB0233264A9F
:1070500013602B8D9BB2984207DA234ADAF800308E
:1070600012689A4284BF288D80B247F6DF721F4BA8
:107070009B68C3F38F03934288BF002098F80030C9
:10708000002B18BF0020FEF7D9FCFEF723FD57E7C1
:1070900040428342ACBF33603060C0E7DAF8002082
:1070A0003880C9F800202046BAE71423104A13801C
:1070B000104B1870104B187042E700BF8021002061
:1070C000002500207824002074240020C420002003
:1070D000BC20002048410020C020002004230020C4
:1070E000C8200020D0200020CC2000207C200020C0
:1070F000701E00207D1E00207024002038B5124D27
:107100000446688C80B2C0B10020FEF723FD052341
:1071100000EBC000B0FBF3F303F1200001230321D7
:107120001A4680B2FEF791F964B16B8C9BB23BB109
:107130000020BDE83840FEF759BBFEF70BFDEDE738
:107140000120F6E738BD00BF002500202DE9F04FF3
:107150009A469C4C9C4B87B01E6894F83D30804604
:10716000202B89469346109F04D00225284607B05D
:10717000BDE8F08F3346192201219448FFF776F8D5
:107180000028F2D194F83C308B42EED0256884F888
:107190003C102B683A46D80758BF2B684FF00110B7
:1071A0005CBF0B432B602B68002123F400632B6032
:1071B000222384F83D30402384F83E30844B216400
:1071C000A4F82AA0E362638DC4F824B023852B6859
:1071D00043F480632B602B6843F480732B60334649
:1071E000FFF744F800BB226808F0FE03314638463A
:1071F00013615FFA88F5FFF761F808B1236C13E0BB
:10720000236805905A69314605929B693846059373
:10721000059BFEF7FBFF80B1236C042B04D1226891
:10722000136843F400731360236C042B4FF00003C6
:1072300084F83C3078D1012598E7236831463846F8
:10724000C3F81090FEF7E2FF01460028E4D122685F
:107250004FF00110136843F48073136033463A46CD
:10726000FFF704F80028DFD1236845F001051D6110
:1072700031463846FFF722F805460028BED1228D58
:1072800023689AB1012A27D11A6822F480621A6011
:1072900072B6236803905A6903929A690392039A1B
:1072A0001A6842F400721A6062B609E004905A69E2
:1072B00004929A690492049A1A6842F400721A605D
:1072C000DFF81081238D1BBB202284F83C3084F82A
:1072D0003D2084F83E3049E7022A1A680ED142F474
:1072E00000621A6072B6236802905A6902929A6923
:1072F0000292029A1A6822F48062D4E742F4806211
:107300001A6001905A6901929B690193019BD7E72A
:10731000032B61D8012B09D131463846FEF748FFCF
:1073200010B3236C202B86D103251FE7022B3A468E
:1073300033464FF00001404624D1FEF797FF002866
:10734000F2D172B623681A6842F400721A601A69A0
:10735000636A591C61621A70238D013B2385638D1A
:10736000013B9BB2638562B623681A69636A591C44
:1073700061621A70238D013B2385638D013B9BB2B3
:1073800063859FE7FEF772FF0028CDD1226813685E
:1073900023F48063136072B623681A69636A581C09
:1073A00060621A70238D3A46013B2385638D404607
:1073B000013B9BB263853346FEF758FF0028C1D0DE
:1073C000B2E700BF08230020803C0020020010002C
:1073D0000000FFFF0400010031463846FEF7E8FEDA
:1073E00000289ED123681A69636A591C61621A7069
:1073F000238D013B2385638D013B9BB2638523680D
:107400005A6952077FF55EAFAFE700BF15490B68B9
:107410001A6A22F001021A621A6A1A62124A934226
:107420000DD141F21112186A104208D140F24442C3
:10743000186A104202BF5A6C22F400425A6441F2A8
:107440001112186A104208D140F24442186A1042E0
:1074500002BF1A6822F001021A60012381F83E304F
:10746000704700BFF8230020002C0140037F082B49
:1074700001D1FFF7CBBF704710B5036804461A6906
:1074800091070ED5DA6892070BD56FF002021A61E8
:10749000012202779B699B0701D1FFF7E7FF0023D9
:1074A000237723681A69500710D5DA6851070DD57C
:1074B0006FF004021A61022222779B6913F4407F65
:1074C00002D12046FFF7D2FF0023237723681A69F1
:1074D00012070FD5DA6810070CD56FF008021A6191
:1074E00004222277DB69990702D12046FFF7BEFF0D
:1074F0000023237723681A69D20610D5DA68D006EC
:107500000DD56FF010021A6108222277DB6913F49F
:10751000407F02D12046FFF7A9FF0023237723688D
:107520001A69D10737D5DA68D20734D56FF001026E
:107530001A612368B3F1804F2ED11B4A1B4C13886C
:107540002168013B9BB21380194B1B78DBB20B64A3
:107550000B6C83B113889BB26BB11648FFF7FCF933
:10756000154B164A1B781178994214D033B1BDE8F7
:107570001040FEF719BBFFF749FFF1E7137040F227
:107580000D120F4B1A802368DA624FF483725A632C
:1075900041F204529A6210BD0A4A934201BF0A4A5C
:1075A000136801331360F6E7701E0020B02300203B
:1075B00070240020F82300207D1E00207E1E002065
:1075C00054250020002C0140803C002090F83C30E5
:1075D000F0B5012B32D003680E681A6A22F001025E
:1075E0001A621A6A5D689C6922F0020224F0730430
:1075F00034438E683243124EB3420BD1CE6822F030
:107600000802324325F44075D1E905673E4322F074
:10761000040235435D609C614C6809695C631A62D1
:107620009A6942F008029A619A6922F004029A610A
:107630009A690A439A61002380F83C30F0BD00BF8C
:10764000002C01402DE9F843044640B94FF05003A7
:1076500083F31188BFF36F8FBFF34F8FFEE7016C89
:1076600041B14FF0500383F31188BFF36F8FBFF325
:107670004F8FFEE7FDF760FAFDF708F8A26BE36BAA
:107680009A4276D2226CA76B002A67D12368B3B1E5
:1076900000210137A763626A002A68D004F1240040
:1076A000FDF788F8002864D04FF0E0234FF08052B7
:1076B000C3F8042DBFF34F8FBFF36F8F59E0A56858
:1076C0001DB900210022A260E3E72C4B1B689D42FC
:1076D00008D04FF0500383F31188BFF36F8FBFF3CF
:1076E0004F8FFEE7AB6D43B94FF0500383F3118822
:1076F000BFF36F8FBFF34F8FFEE7D5F82C906E6D01
:10770000013BB145AB65DCD0002BDAD105F10408B3
:107710004046FDF737F8DFF868C01A4B60B914220D
:1077200002FB09F25CF8022032B901211A6801FA61
:1077300009F122EA01021A60C6F10602AA61EE62AC
:1077400001251420196805FA06F20A4300FB06C059
:1077500041461A60FCF7F3FF2946B3E76368134418
:10776000A2686360934293D32368636091E7002922
:107770009AD1BDE8F843FCF7A3BF00BF78240020EE
:1077800084240020903C0020014B1868FFF75ABF6A
:10779000302000202DE9F34105460E461746984655
:1077A000FEF740FB044670B14FF4FA733A4600937B
:1077B000314643462846FFF7C9FC40B1FEF768FF53
:1077C0000024FFF7E1FF204602B0BDE8F081FFF79B
:1077D000DBFFF8E72DE9F04385B0814688468DF858
:1077E0000720FEF71FFB0646002851D06A4F6B4C5E
:1077F0003D6894F83D30202B45D12B4619220121BC
:107800006748FEF733FD00283DD194F83C308B42A9
:1078100039D0236884F83C101A684FF00110D20761
:107820005EBF1A680A431A601A68002122F40062D7
:107830001A60212384F83D30402384F83E300DF156
:1078400007036362012321646385A3F10113E362EB
:10785000638D22682385136843F4807313602B467D
:107860004FF4FA72FEF702FD48B9236829464FF437
:10787000FA70C3F81090FEF721FD68B1236C236CF9
:10788000002384F83C30FEF703FF0026FFF77CFF5F
:10789000304605B0BDE8F083236803905A69294655
:1078A00003929B694FF4FA700393039BFEF7AEFCBF
:1078B00040B1236C042BE2D12268136843F40073B7
:1078C0001360DCE72368C3F81080238D9BB922681E
:1078D000536913F004033FD0136843F4007313603B
:1078E000202384F83D30002384F83E3084F83C3077
:1078F000FFF74AFFCCE729464FF4FA70FEF786FC03
:1079000040B1236C042BBED12268136843F400738A
:107910001360B8E7616AD4F800C04B1C63620B784F
:10792000CCF81030638D228D013B501E9BB280B28B
:1079300020856385DCF814305B07C6D50028C4D0E9
:107940008B1C63624B78023ACCF81030638D228531
:10795000013B9BB26385B8E7516911F480610FD098
:107960006FF480615161042121642363202384F832
:107970003D30002384F83C30236C042B83D1C4E7D2
:107980003B685B1BB3F5FA7FA2D9236C43F020035D
:1079900023642163EAE700BF803C00200823002025
:1079A0000200100010B50C4CB4F8460080B200384C
:1079B00018BF0120FDF71DFFB4F8463080219BB2AF
:1079C000002B14BFA722A622044B782083F8402066
:1079D000BDE81040FFF7FEBE00250020000000209B
:1079E0002DE9F041804617460C4600264046627855
:1079F0002178FFF7EFFE054640B1A07808B1FCF70B
:107A0000A7FC0136B74204F10304EFDC2846BDE8C9
:107A1000F08100000B2310B50C4C0221B4F8480093
:107A200080B2B0FBF3F0012301301A4680B2FDF7BB
:107A30000CFDB4F848300649022281F82E30782037
:107A4000BDE810402A31FFF7CBBF00BF0025002062
:107A50000000002030B585B00546FEF7E3F9044686
:107A600068B14FF47A730F2100932846012303AACB
:107A7000FFF76CFBB0FA80F46409FFF785FE20463F
:107A800005B030BD73B506460D46FEF7CBF90028AC
:107A90004DD000230193274B93F83D20202A13D18A
:107AA00046F2A811244A1268B2FBF1F219214A43A6
:107AB00001921A68019C611E019164B920221C6325
:107AC00083F83C4083F83D20FEF7E2FD02B0BDE8BC
:107AD0007040FFF759BE91698807EBD493F83C10CA
:107AE0000129F1D011680020C9075EBF116841F07B
:107AF00001011160116821F400611160212183F8F6
:107B00003D10102183F83E100C4918645D85D96240
:107B1000598D5E62198578215964116841F480712C
:107B2000116083F83C00536843F4E063536002B093
:107B300070BD00BF082300204C0000200000FFFFA4
:107B400000210B46084A12F8010B01FB00330131FA
:107B5000D129F8D1054A1068984203D00248136031
:107B6000FFF790BF704700BF801E0020641F0020F9
:107B700008B5094A0346117881420BD010700748B6
:107B8000523B43701021FFF77DFFBDE808400A20FB
:107B9000FEF7D6B808BD00BF7F1E0020801E002063
:107BA00070B5154E04463378834223D0002815BFA4
:107BB000C825C025A123A023104919220D740B77D5
:107BC0007820FFF70DFF0A20FEF7BAF80C4884F082
:107BD00001035B01002C43710CBF7F235F234572BF
:107BE000C371D1213470FFF74DFFBDE870400A200A
:107BF000FEF7A6B870BD00BF681F0020000000207F
:107C0000801E002010B50620FDF7A2F8054B0446A3
:107C10001B8A98B218B1012801D0204610BDFFF789
:107C2000BFFFFAE700250020024BC02200211868A0
:107C300003F0ACBB5C1F00202DE9F041294B2A4D1D
:107C4000E98D1B6889B2B3F5FA6F47D96B89AA89A8
:107C50009BB292B2002B3BD002335A43D2B2234B99
:107C600000249B68C3F38F039B00B3FBF1F39BB22B
:107C70009A4235D91E4BDFF87C801C60FFF7D4FF99
:107C80001D4A2B8C1D4F16681D4A9BB21568A8F81B
:107C900000403C80F3B1308921462844FDF77EFA4C
:107CA00008237089214628443B80A8F80040FDF74E
:107CB00075FAFFF7D3F821461248FDF76FFAFFF780
:107CC0003FFFFEF75BF8FEF75CF80120BDE8F081AE
:107CD0005A22C4E7F08801212844EEE70020F5E7A6
:107CE0002046F3E74841002000250020A82000207E
:107CF000802100202A200020741E00202C2000203B
:107D0000781E002017B4000838B505460C46FFF76A
:107D10008BFF2846FDF7F8FAFFF712FF2046BDE873
:107D20003840FEF741B800002DE9F74F07465C4D9B
:107D3000DFF870910191FFF77FFF00287FD16B8CF6
:107D40009BB2002B7FD087B9EB88A8889BB280B20A
:107D5000984228BF18461F2881BF092300EB8000E6
:107D6000A038B0FBF3F098BF3846C9F80000688C23
:107D700080B2002872D00020FDF7ECFE052300EB56
:107D8000C000B0FBF3F42034A4B20026FFF74CFF90
:107D90004549B5F82080454A454BD1F800B04549E2
:107DA0001FFA88F8D1F800A016801E80B8F1000FE5
:107DB0005AD0BBF80E0031465044FDF7EFF93B4A6C
:107DC000BBF8100016800822394B314650441A8007
:107DD000FDF7E4F90321012332462046FDF735FB88
:107DE000698C89B200293DD031463348FDF7D6F978
:107DF00000213248FDF7D2F9FFF730F80021304872
:107E0000FDF7CCF9FFF79CFEFDF7B8FF0198FCF7F2
:107E10001BFFA8B16B8B9BB2002B3AD0294B196882
:107E2000002936D0284B1A686B8B521A4EF6602107
:107E30009BB24B439A422CD90023C9F80030012051
:107E400003B0BDE8F08F37B9EA88AB8892B29BB235
:107E5000934228BF1346C9F8003088E7FDF77AFE41
:107E600084B292E71948C1E7BBF80C0001215044E5
:107E7000FDF794F9012303211A462046FDF7E5FAA0
:107E80006B8C9BB21BB14046FDF7B0FCBAE70120FA
:107E9000FAE7FDF791F808287FF44DAFCCE700BF73
:107EA0000025002080210020741E00202A200020B0
:107EB0002C200020781E00200AB40008DCB4000842
:107EC00017B4000844240020484100200FB40008E3
:107ED0002DE9F84F0024724B724E2746D6F80090D9
:107EE0001C60FDF769F8B0EB040818BF4FF00108FB
:107EF000A2466D4BA3F800A06C4BA3F800A0FFF7BF
:107F000093FEFDF759F8002800F0B380D6F80090F2
:107F1000B8F1000F02D00024002332E001380F280E
:107F2000FAD801A353F820F06D8000084F800008B4
:107F3000197F000859800008197F0008197F000880
:107F4000197F0008697F0008197F0008197F000861
:107F5000197F0008197F0008197F0008197F0008A1
:107F6000197F00089B8000083268E31B1344B3F5B7
:107F7000967FD1D94E4B1B8F5B42213437681BB2A1
:107F8000E4B24B4DC4F59672632AEA8ED8BFC8247A
:107F900092B20AB15B421BB2DBB1A98883EAE372F9
:107FA000A2EBE372194409B213B291FBF3F151430E
:107FB0006B8C09B29BB2002B5ED03C2940F252334D
:107FC000B8BF3C219942A8BF1946002089B2FCF7EE
:107FD000A3FE3368A3EB0903B3F5FA6F5DD8354B05
:107FE000012193F800B0EB8E9BB2BBF1000F4CD097
:107FF0003148324A002B08BF1046FDF7CFF8012167
:108000002F48FDF7CBF80123A8881A46032180B238
:10801000FDF71BFA6B8C9BB2002B39D00020FDF7CB
:10802000E5FB01212648FDF7B9F8EB8E01219BB253
:10803000BBF1000F2ED021481F4A002B08BF10466D
:10804000FDF7ACF8FFF77CFDFDF798FE51E7184B04
:108050005B8F5B421BB294E73268E31B1344B3F5BA
:10806000967F7FF659AF124B1B8F86E7104B5B8FC5
:10807000F0E7044680464FE70A29B8BF0A21B1F568
:10808000E17FA8BF4FF4E1719FE70C480A4AB1E7CE
:108090000120C4E70848094ACFE7BDE8F88F00BFD0
:1080A00080210020484100202A2000202C20002090
:1080B00000250020681F002019B400081BB4000828
:1080C000DCB400082DE9F74F38BB00231D46B04C47
:1080D000DFF8C0A20093FCF76FFF009B002B00F0BD
:1080E000D280E38C9BB2002B00F0CD80102823D8E7
:1080F000102824D8DFE810F0F2002101210123002C
:108100001501230023002300210123002300230065
:1081100023002300230023002101831E58425841DD
:108120000121FFF701FE0128CFD19B4B1A689B4B21
:108130001A6003B0BDE8F08F202800F0E580FFF75B
:1081400073FD238C964A9BB292F800B0954F964EE1
:10815000DFF85892002B00F03F81BBF1000F14BFF5
:1081600032234FF0FF334FF0000801203B80A6F888
:108170000080FEF7C3FF638A9BB25BB323899BB287
:1081800043B3C34514BF20232F2384493B80A6F863
:108190000080FCF73FFD0A687F4B85491B68096832
:1081A0008A422CBFC3EB0203C3EB01031844814B8B
:1081B000984240F2DF804EF66023B0FBF3F00130CE
:1081C000022180B201234246FDF73FF941467A4839
:1081D000FCF7E4FF5DB1BBF1000F14BF262337238A
:1081E0003B800823002175483380FCF7D7FF4FF010
:1081F0000A08D9F80000BBF1000F0CBF432300238D
:108200004FF0000BB0FBF8F05A46022101933B807F
:1082100080B20123A6F800B0FDF717F95946684867
:10822000FCF7BCFFD9F800005A46B0FBF8F308FB96
:108230001300012380B21946FDF707F9594661483A
:10824000FCF7ACFF019B3B8008233380FEF706FE62
:1082500059465D48FCF7A2FFFFF772FC638C5B4E4A
:108260009BB2002D00F01481002B00F00E81238EB4
:108270009BB21F2B40F2E980092203EB8303A03B52
:10828000B3FBF2F3E2E010282AD810283FF657AFEC
:1082900001A353F820F000BFDD8200085D830008D1
:1082A0005D8300083F810008518300083F8100087A
:1082B0003F8100083F810008338100083F810008AA
:1082C0003F8100083F8100083F8100083F8100088E
:1082D0003F8100083F8100083381000800252EE718
:1082E00020287FF42CAFE38C9BB2002B3FF427AF08
:1082F000374BDAF800001B684FF47A711B8C184476
:10830000FFF702FD01230AE0314BDAF800001B6899
:108310004FF47A715B8C1844FFF7F6FC002300934E
:108320000DE7238E9BB2002B3FF409AFE38C009A3C
:108330009BB2012B08BF154601E7254BDAF8000078
:108340001B684FF4FA719B8C1844FFF7DDFCF6E6CE
:10835000238E9BB2002B18BF0125F0E6A688FFF7FD
:10836000B7FDA388B6B29BB2B3423FF4E8AEFEF7C6
:108370009FFCE4E64FF47A73B0FBF3F00130022186
:1083800080B201234246FDF760F8414611481FE7DD
:1083900000250020781E00204841002040240020B5
:1083A000681F00202A2000202C200020943C002060
:1083B00044240020B882010013B4000819B4000856
:1083C00011B4000815B4000817B40008802100207B
:1083D000741E0020ECB400083B803380BBF1000F1A
:1083E00019D0FEF765FD32480121FCF7D7FE0120C8
:1083F000FEF784FE55B10220FDF7F8F90021D9F807
:108400000000FDF701FBFDF737FA25E701212848B9
:10841000FCF7C4FEF2E75946D9F80000FDF7F4FA7C
:10842000FDF72AFA65B10220FDF7E0F90120FEF719
:1084300065FE01211E48FCF7B1FEFEF739FD0BE792
:1084400001211B48FCF7AAFEF0E700233360FFF789
:10845000F3FB074600287FF468AEFCF7F5FBE0B9B4
:10846000144F00203368FDF775FB3B78E3B100241F
:10847000114B124A1B681068DB8C42F210711844D1
:108480003460FFF741FC3C7053E6238E9BB2DDE77E
:108490000BB1A388ECE6A388F8E739463846FFF726
:1084A00043FC0028DCD044E6FDF768FC13E600BF7F
:1084B000DCB4000804230020741E0020781E002075
:1084C000F8B5036805460E46002B39D1026001203D
:1084D000334601211F784C1EA4B2002F32D104EB89
:1084E0004404A400A4B2602C37D92B68D21A1F4BC5
:1084F0009B8C9BB2012B0CBF0A231423B2FBF3F21B
:1085000004F1600312B292FBF3F103FB11225F2A24
:1085100029DDA24225DC14B2B5F90430A3420ED005
:10852000FFF782FB124BC4F160021A800022114B4C
:10853000304601211A80FCF731FE0120AC80F8BDE5
:108540000020C5E7F02F03D80133013189B2C1E71C
:108550005F78002FC3D00233F7E7C4F1600304EB68
:10856000630424B2D8E76024D6E700BF00250020CA
:108570002A2000202C200020002373B500934FF602
:10858000FF7304460C4EADF804302146684632684D
:10859000FFF796FF0546FCF70FFD38B9002DF4D024
:1085A000FFF7CEFA2820FDF7CBFBEEE7431E58423B
:1085B000584102B070BD00BF4841002008B50B4BC8
:1085C000B3F84C309BB273B9094B0A4A1B68106868
:1085D0001B881844FFF7D0FF18B101212420FCF7B5
:1085E0009BFB002008BD0021F8E700BF002500200C
:1085F000741E0020781E00202DE9F047FFF714FBC1
:10860000384F394A394D9468EB8DC4F38F049BB2CF
:10861000A400B4FBF3F44FF00A0AA4B20123B4FBA4
:10862000FAF90026DFF8C8801A46022148463E8043
:10863000A8F80060FCF709FF01212E48FCF7AEFD09
:1086400001220AFB19401146334680B2FCF7FDFEB9
:1086500001212948FCF7A2FDFCF7AEFC082809D847
:1086600018B30138072820D8DFE800F01C251F06C2
:108670001F1F1F06102818D1FEF71AFB0123002424
:10868000E88D1A46032180B23C80A8F80040FCF730
:10869000DCFEFFF755FA4FF47A70FDF785FB2046B4
:1086A000BDE8F0871520FCF753FBFFF749FA2820B7
:1086B000FDF746FBA5E7EB8D9BB2B3F5B47F04D184
:1086C0004FF46173EB85EB8DEFE7EB8D9BB2B3F568
:1086D000B57F29BFEB8D4FF4B47303F1FF339BB229
:1086E000F0E700BF2A200020A8200020002500205D
:1086F0002C20002011B4000817B40008F8B545F28A
:10870000AA54234B1A8892B2A2423AD01846542255
:10871000FF2102F03BFE0480034601241A6D013262
:108720001CBF4FF0FF321A655A8818BF012492B25D
:10873000242A08D84FF6FF715A8892B2242A22DDE3
:10874000252201245A800022124903EB4206B588F3
:108750000F88ADB2AF424FEA420004D8B5884E88C8
:10876000ADB2AE4203D2CC881844848001240132D9
:10877000252A01F10801E8D10CB1FEF799FA20464B
:10878000F8BD0024CAE703EB420081800132D5E73F
:108790000025002026BC000838B50D4B1D680D4B88
:1087A000A8881C682044FFF7E7FE70B1FF2154221F
:1087B000094802F0EBFDFFF7A1FFFEF779FA288BDD
:1087C00042F210712044FFF79FFA002038BD00BF2D
:1087D000741E0020781E0020002500202DE9F0479F
:1087E000314B1A78FF2A0DD141F278512F4AB2F855
:1087F000422092B28A4203D04AF2D7118A424BD029
:1088000000221A701A78012A44D80C21284B294CCE
:1088100001FB02335A7A5868D2093FD01A8921469F
:10882000C2F30E02FCF7B8F925182046224B234F5D
:108830001860234BE830186030220021214802F0F4
:10884000A5FD4FF00008BA464FF00C091D4E3B88BD
:108850007C8833802344738009FB08A39A885B7962
:1088600004EB4404E400DB09B868A4B2C2F30E02CE
:1088700006D02946FCF790F9034682B228461D44EB
:10888000A242706084BF0019B0600C370C36B8F19A
:10889000000F05D0BDE8F0870122B2E72546C5E705
:1088A0004FF00108D3E700BF500000200025002052
:1088B000B0B5000856250020741E002098B50008A9
:1088C000781E0020A00000200C2210B5094C1F20AB
:1088D0002378013303F0010323705343064AD15A2E
:1088E000FCF71AFAFFF77AFF2078431E58425841E6
:1088F00010BD00BF50000020B0B500082DE9F341C5
:108900000646DDE908040F46984640B94FF050038B
:1089100083F31188BFF36F8FBFF34F8FFEE70CB95E
:10892000FBF7AAFE64230193019B642B08D04FF050
:10893000500383F31188BFF36F8FBFF34F8FFEE7B0
:1089400095002A46A5212063019B02F01FFD226BA2
:10895000043D2A4422F00702002F00F096807B1E7F
:1089600004F134011F3713F8010F01F8010B08B1AE
:10897000BB42F8D1002384F853304346052B28BF6F
:108980000523E3626365C3F106030021A3614FF091
:108990008073E165A1656161A1622461646284F80C
:1089A000601042F8043C404B26F0010642F8086C87
:1089B00042F80C3C42F8201C403A2260FBF766FE6D
:1089C0003A4A3B4D13683B4E013313602B68002B32
:1089D0005ED12C601268012A2ED132464FF0FF3C46
:1089E00014201F4602F10801C2E9011CC2E903116B
:1089F00000FB03F10133062B775002F11402F1D191
:108A00002D4A02F10803C2E9013CC2E903332B4BB2
:108A1000176003F10801C3E9011CC3E903112849E8
:108A20001F6001F108000F60C1E9010CC1E90300FA
:108A300024490A60244A1360244A254913680868B7
:108A4000013313600123E26A9340034314200B6057
:108A500000FB0260211DFBF772FEFBF731FE1D4B90
:108A60001B6873B12B68DA6AE36A9A4209D24FF045
:108A7000E0234FF08052C3F8042DBFF34F8FBFF3B4
:108A80006F8F204602B0BDE8F08184F8347074E73F
:108A9000104B1A68E36A002ACED12A68D26A9A4239
:108AA00098BF2C60C8E700BF55460008843C0020F2
:108AB0007824002084240020983C0020AC3C002036
:108AC000304100207C240020802400208C3C0020A9
:108AD000903C00204441002037B50446D0E9001006
:108AE000A569B4F90830226901956469842B0CBF2B
:108AF000002303330094FFF701FF03B030BD0000F3
:108B00002DE98048142091B0FDF71AF90023B84CE4
:108B10003A202360FEF79EFF38B10D223A20B54976
:108B2000FEF75EFF002840F033813220FEF792FF0F
:108B3000A8B100230F218DF83030322001230CAA78
:108B4000FEF728FE58B19DF83030332B07D10C22A8
:108B50003220A949FEF744FF002840F01C81302054
:108B6000FEF778FFA0B10021012330200CAA8DF878
:108B70003010FEF70FFE58B19DF83030F82B07D1BA
:108B8000082230209D49FEF72BFF002840F0068187
:108B90003020FEF75FFF002800F0DC800025012375
:108BA0000F2130200CAA8DF83050FEF7F3FD00287D
:108BB00000F0D0809DF83030112B40F0CB800C229B
:108BC00030208F4B8F491D70FEF70AFF002840F0C0
:108BD000E8804C20FEF73EFF38B105224C208A4940
:108BE000FEF7FEFE002840F0DF8000210720FCF7A2
:108BF00093F84FF001083220C4F80080FDF7A0F888
:108C00000022824B1A60824B1B8B9BB21BB14FF42C
:108C1000FA60FDF795F8102200210CA802F0B6FBCF
:108C20001022002108A802F0B1FB1022002400212C
:108C30000DEB020002F0AAFB274626460325A146BB
:108C4000C82240F6E44A724BB8F1020F5B8A9BB22D
:108C500002FB13A3019340F0AA800623012102AA7C
:108C60003A20FEF797FD012310213A2002AABDF811
:108C70000840BDF80A70BDF80C60FEF78BFD9DF949
:108C800008309DF80850002BE4BAFFBAF6BA80F21B
:108C90004681C5F341055E4B1B8A9BB2022B06D170
:108CA000032D04D0B5FA85F04009FEF779FF594944
:108CB00010AB03EB490323F8104C23F8207C23F876
:108CC000306C0B7809F1010933B95FFA89F3082B8D
:108CD00040F0298101230B70002208201146134621
:108CE00009F007090DF1300B0DF1200A0DF1100C00
:108CF0003BF902EB013873443AF902EB10F0FF0044
:108D000071443CF902EB7244F2D1002BB8BF073337
:108D1000C4EBE303002BB8BF5B420029B8BF0731A7
:108D2000C7EBE1010029B8BF4942002AB8BF0732AA
:108D3000C6EBE202002AB8BF52420B441344019A28
:108D400064209A42BFBF344B1A68304B1A60FCF75C
:108D5000F7FF75E73220FEF77DFE00283FF439AFBC
:108D600000230F218DF83030322001230CAAFEF7AA
:108D700011FD00283FF42DAF9DF83030112B7FF40A
:108D800028AF01221E4B32201A7024490C221BE707
:108D90004FF002082FE74FF003082CE74FF00408CC
:108DA00029E74FF0060826E74FF0050823E7A8F16A
:108DB0000303032B3FF66FAFDFE803F002325D825F
:108DC0000623A82102AA3220FEF7E4FC0123B521E4
:108DD000322002AABDF90840BDF90A70BDF90C6045
:108DE000FEF7D8FC9DF80850AD08013DEDB252E702
:108DF0009C000020D4B6000898B60008BCB6000855
:108E00002E200020FBB600081FB7000844240020D5
:108E100000250020D62000204841002001BC000889
:108E2000474B022118689B880290ADF80C30302027
:108E3000062302AAFEF7AEFC0446C8B19DF809401D
:108E40009DF80B709DF80D60A401BF01B6010123D0
:108E500002AA0C213020FEF79DFC9DF808301A096B
:108E60009B065CD412F0030F0CBF0125002512E70E
:108E700007460646EBE70623022102AA4C20FEF72E
:108E800089FC0023BDF908400C218DF808304C20E6
:108E9000012302AABDF90A70BDF90C60FEF77AFC45
:108EA0009DF80830A410602B4FEAA7074FEAA606EA
:108EB00004D0702B14BF03250025ECE60125EAE65B
:108EC00000230293ADF80C301E4B02AA1D78062336
:108ED000002D0BBF2821A82130203220FEF75AFC9C
:108EE0000446C8B1BDF90840BDF90A70BDF90C606F
:108EF000002D14BF322030200123352102AAFEF7B5
:108F000049FC9DF80850AD08022D0AD005F03B053C
:108F1000012D18BF0325BEE607460646E8E70325F0
:108F2000B9E60025B7E610AA02EB4302013322F8A6
:108F3000104C22F8207C22F8306CDBB2C7E600BF70
:108F400004B400082E2000202DE9F04F0024314BFE
:108F500085B01A68019002921A6802994FF4FA706B
:108F6000A2EB010B642202FB0BF1B1FBF0F1C9B2E1
:108F70002546C1F1960449434C4341F2883194FBA4
:108F8000F1F46021E4B24C43B4FBF2F4E4B28C425D
:108F900028BF0C460A1B0199A1BB2646DDF80480B8
:108FA000D7B21D4B0392D3F800A00AEB05010AEBE0
:108FB000060002F001FA1949039AD1F8009009EB72
:108FC000050109EB060002F0F7F9154B2246D91905
:108FD0000AEB080002F0F0F9124B2246D91909EB0E
:108FE000080002F0E9F9FEF7ABFD0E20FCF7A8FE41
:108FF000FBF7E2FF18B9BBF5FA7F064BACD905B019
:10900000BDE8F08F0026651B3746EDB25FFA82F8A7
:10901000C7E700BF484100205C1F0020601F002000
:10902000691F0020C91F00202DE9F04F00240125F1
:10903000A94B95B01D7009908DF82E408DF82D40EC
:10904000FBF77DFF4FF6FF732746CDE90C54CDE9C2
:109050000344CDE90144DFF88492DFF884A205904F
:10906000ADF83830069514239DF82E6073430793AE
:10907000079A099B03EB02080893D8F8083013B14C
:109080009DF82D3013B115B0BDE8F08F0C9D8DF813
:109090002F30002D72D0934BDFF84CB2934ACBF8AF
:1090A000003060331360D8F80C308BB198478F4A8A
:1090B00070B9029B01360133DBB202938C4B049DE5
:1090C000CBF8003060338DF82E6013600495CAE74A
:1090D0000122884B022D1A7005D1854B834ACBF8AB
:1090E0000030603313600023834A1380834A138067
:1090F000FEF79AFD98F8121019B198F81100FCF7D4
:1091000013F9D8F808309847022D40F09A800022D1
:10911000ADF843204FF40652ADF83C2080228DF884
:109120003E208DF840204022DFF8D4B109219BF881
:1091300007300FA88DF842208DF83F308DF8413070
:10914000FEF7A0FC9BF80D50AB1C03F007038BF857
:109150000D3001338BF80F30ED00FEF7F1FCEDB26E
:109160001420FCF7EDFD6B1C10355FFA83FBEDB2AC
:109170005D454FD200235F4A0C931370DAF800204C
:10918000D9F800309B1A40F6B732934265D9DDE931
:109190000723995C002960D05A4BD9F800201B683E
:1091A0000DA803EB41035849B3F84A300968194444
:1091B000FFF786F9069B03B920B1FEF7C1FC282012
:1091C000FCF7BEFDFBF7F8FE049B0546834218BF83
:1091D00000270DF12F030F9309AB10930DF12E0310
:1091E00011930DF12D03129308280CAB139367D83C
:1091F000002800F09380431E0022072B00F28E808F
:10920000DFE813F08600AE008C00B8008C008C0004
:109210008C00D400FBF7D0FE002818BFAB463B4BB8
:109220000BF03F0242F040025A7680217820FEF790
:10923000D1FA0E20FCF784FD0BF101035FFA83FBEA
:1092400096E72B4B294ACBF80030603313606B1E36
:1092500058425841FFF778FE8CE70023264A1380D6
:10926000264A1380FEF7E0FC98F8121019B198F81E
:109270001100FCF759F8D8F8083098471CB1039B47
:10928000E3B1002303931022059B0599B2FBF3F28F
:1092900001239340029A013BB21A120192FBF1F2B0
:1092A0009BB2D2B29340104A126882F85F300F4AE4
:1092B000C3F30723126882F85F307EE703947CE7EC
:1092C00010282BD101238DF82D3000230D934FF65C
:1092D000FF73ADF8383021E0A42000204841002081
:1092E00040240020691F00205C1F0020601F002018
:1092F000911E00207C1E00202A2000202C2000200F
:10930000801E0020741E0020781E00200000002017
:109310000D9B1BBB0FA8FBF729FE0446C7F59673F0
:10932000632BDAF80020D9F8003098BFC8279B1AC1
:10933000264A934208D901238DF82D3000230D933E
:109340004FF6FF73ADF838309DF82F301BB10998F8
:10935000FBF7F5FD059000230693B7E60D92B6E7FF
:109360000D9B002BFAD1022201361C468DF82E608F
:109370000C92D3E7D9F80030019A3B4402F596727B
:109380009342CBD90FA8FBF7F1FD041E14BF4FF495
:109390007A720022D9F80030D318019300230D937C
:1093A0004FF6FF732137ADF83830B7E7D9F8003002
:1093B000019A9B1A3B44B3F5967FAFD9022301363D
:1093C0000C938DF82E60D9F80030E6E7C0D4010088
:1093D0002DE9804889B0FFF701FA0023B34ADFF88E
:1093E000D0B2DFF8D0A21370ABF80030B24AAAF8BE
:1093F0000030B24B1360B24A03F160011160B14A10
:10940000113B02F1100152F8040B8A4243F8040B9D
:10941000F9D100241278AC4D1A701922294678200F
:10942000FEF7DEFA002818BF0B240134092CF4DD06
:10943000A64C0120FEF79CFBA34DB4F84830022255
:1094400085F82E3005F12A017820FEF7C9FAB4F824
:10945000463080219BB2002B14BFA722A622782081
:1094600085F84020FEF7B6F9FBF71EFCFCF71CFB65
:10947000208A00F00100FEF793FBB4F84C309BB259
:10948000002B66D0FEF75CFB3220FCF759FCFCF7A2
:10949000A3FB064600285CD1FCF75CFB0546304682
:1094A000FCF734FB0A23B0FBF3F080B22D1A002D39
:1094B000B8BF6D42092D4CDCDFF8148200252F4621
:1094C0002E46FCF7F1FA0744FEF7AEFB814B002174
:1094D0001B68AAF8006003937F4BABF80060D3F8D9
:1094E0000090039B58884844FBF758FE082300214E
:1094F0004046ABF80030AAF80060FBF74FFE0023AF
:10950000C5F38502D9B28A426FD8FEF719FB01353F
:109510006420FCF715FC102DD3D10121C7F30F10E7
:10952000FCF7EAF981B20029C8D01720FBF7F4FB59
:10953000FEF77AFB039B40F6B831D88A4844FEF721
:10954000E3FBFEF7FDFA00212420FBF7E5FBFDF726
:10955000AFFBB4F84A309BB20BB3B4F84A309BB2BD
:10956000042B1CD8238B9BB2CBB1238B9BB2022B39
:1095700015D8638C9BB2002B41D0E3889BB21F2B84
:1095800081BF092203EB8303A03BB3FBF2F398BF37
:1095900000239BB24B2B28BF4B23504A1360504BE8
:1095A000D3F800284F4B9A422BD14F4A4F4B1146CC
:1095B0004F481D7802334D7413F8035C83428D7459
:1095C00001F10201F5D14B491878023382F871009C
:1095D00013F8030C8B4282F8720002F10202F3D1FD
:1095E000FEF7AEFAFCF7FEFB4CE000214046CDE969
:1095F0000423FBF7D3FD059B049A013382E7E3883C
:10960000C7E73D4A1378AA2B3CD1B4F84A309BB245
:10961000002B37D001264FF0600953780393FEF7F3
:1096200003FBFBF7C9FC039B9B000493334BDFF860
:10963000CC80F55CB044FF2D66D1002108F1010318
:109640000093602210230846FBF708FD6025FEF713
:1096500077FA6D000135FEF773FAFBF7ADFC039B5B
:1096600007462E4413B10498FCF76AFBB4F84A305D
:109670009BB22BB140F2FD339E42B3DC002DB1D042
:10968000002FD3D0FEF7D0FAFEF75AFA1C4B1B7806
:109690004BB1104B104A1B6810685B8B42F2107183
:1096A0001844FEF731FB174D58E000BF681F00203B
:1096B0002C2000202A2000205C1F0020911E00206A
:1096C000601F002010BA00080000002000250020C4
:1096D00011B40008741E0020781E00208021002094
:1096E00000F0000855AA0DF0801E002005F80008C3
:1096F00065F80008C5F8000800F8000801F800083F
:10970000FC2400209C000020FE2D22D0002DA2D0A1
:10971000002708F101036D080593AF4297DA059B16
:10972000012213F81700013718F817305F288DF859
:109730001F30B0FBF9F394BF0021012109FB130096
:109740000DF11F030093C9000823C0B2FBF786FC8C
:10975000E3E701257FE70520FCF7F2FA2B68002BF1
:10976000F9D0012B12D1E38F9BB2012B0ED81D2013
:10977000FBF7EEFAFDF79CFAB54BB64A1B6810688A
:109780009B8B42F210711844FEF7BEFA278BBFB2D2
:109790002FB1208B01270138C0B2FEF793FCFBF7F5
:1097A00083FA00230393FBF707FC0446002840F0EC
:1097B0008F80002637460024A74BA84D1C60E88DFB
:1097C000214680B2FCF7EAF82046FCF7C3F9804650
:1097D0000120FEF7CDF9B8F1310F12D86B8A9BB298
:1097E0007BB19F499F4A0B6812689B1A4EF6602214
:1097F000934206D90B689C4909685B1A934200F2B0
:1098000085810120FEF7B4F9FEF70EFA974B00218F
:109810001C78B5F81E90002C14BF32234FF0FF3394
:109820001FFA89F9AAF80030ABF80010B9F1000F5F
:1098300000F0B281FCF7D0F9002800F07381002C11
:1098400000F066818A4B2A220093002110233620E3
:10985000FBF704FC4FF0FF33864AAAF80030EB8D8B
:1098600095689BB2C5F38F05AD00B5FBF3F54FF0DE
:109870000A09ADB20123B5FBF9F81A4602214046A8
:10988000FBF7E3FD01217C48FBF788FC012309FB82
:1098900018501A46194680B2FBF7D7FD002C0CBFB2
:1098A0005B233023AAF800300823ABF800300021F6
:1098B0007248FBF773FC002E00F0F981704B714A7F
:1098C00000201360704A60331360FFF73DFB6AE7C6
:1098D0000120FEF74DF9002F40F0FF80013C072CDE
:1098E00000F2FB80DFE814F0FB000501F900F50051
:1098F000F900F900F90008000024644F644EDFF815
:1099000094810025FEF790F929463846AAF80050C0
:10991000ABF80050FBF742FC0823294656F8240018
:10992000ABF80030AAF80050FBF738FC631E0E2B92
:109930002ED8DFE803F0083C45484B526E717A7C24
:10994000B9C1C4C9CB004FF01C09534BD3F8EC2765
:10995000D3F8E85722FA09F000F00F000021023096
:10996000A9F104090492FBF7BBFB19F1040F049A57
:10997000F0D14FF01C0925FA09F000F00F0000218A
:109980000230A9F10409FBF7ABFB19F1040FF2D186
:10999000FEF7D6F8FBF710FB02283FF40AAF0128C8
:1099A00004BF013404F00F04FCF7E8F9A9E7002133
:1099B0003A4B1A683A4B53F82200FBF7EFFBE7E704
:1099C00000213848F9E7FDF749FAE1E70020FCF704
:1099D000C1F801230022062119E00020FCF796F8C7
:1099E0000A25B0FBF5F001230022062180B2FBF727
:1099F0002CFD00212048FBF7D1FB0020FCF786F866
:109A0000B0FBF5F303FB150001230022194680B2D9
:109A10001BE0FCF7B9F8DCE7114B18686423B0FBD6
:109A2000F3F0012300220821F1E70E4BF5E70123B3
:109A3000002206210720FBF708FD00210E48FBF756
:109A4000ADFB0123002219460520FBF7FEFC9FE732
:109A5000741E0020781E0020802100200025002098
:109A6000484100204424002040240020681F00209A
:109A700084210020A820002011B4000817B4000899
:109A8000911E00205C1F0020601F00201DB40008F4
:109A900054B50008041A002000F0FF1F9C000020AD
:109AA00038B500080EB40008834B01219868C0F354
:109AB0008F00FBF721FFB4E7804B588EB1E7804B56
:109AC0001868FAF717FFACE77E4BF9E7D8F8000003
:109AD000F7E7FEF7FDF9FDF7EBF800266BE6FCF77C
