:020000040800F2
:104000000050002051410008459F0008479F0008CC
:10401000499F00084B9F00084D9F000800000000CA
:10402000000000000000000000000000D19E000819
:104030004F9F000800000000019F0008519F0008EA
:1040400099410008994100089941000899410008E8
:1040500099410008994100089941000899410008D8
:10406000994100089941000899410008859F00087E
:1040700099410008994100089941000899410008B8
:10408000FDA7000809A80008919F000899410008B1
:1040900099410008994100089941000815A80008B5
:1040A0009941000841A10008994100089941000880
:1040B00059A100084DA100089941000865A1000818
:1040C00031A600089941000899410008994100086B
:1040D0009941000899410008994100089941000858
:1040E000994100089941000899410008000000002A
:1040F00000000000000000000000000000000000C0
:0C41000000000000000000005FF8E0F18B
:1041100010B5054C237833B9044B13B10448AFF301
:1041200000800123237010BD60000020000000000B
:1041300018B6000808B5034B1BB103490348AFF399
:10414000008008BD000000006400002018B60008D0
:10415000002103E00B4B5B58435004310A480B4BE2
:1041600042189A42F6D30A4A02E00023136004324E
:10417000084B9A42F9D306F0BDFB07F0F9F906F0B7
:104180003FFCFEE7A8D800080000002060000020E7
:10419000600000204C320020FEE700000648006866
:1041A000006880F3088862B661B6BFF34F8FBFF333
:1041B0006F8F00DF00BF000008ED00E04FF05003FC
:1041C00083F31188BFF36F8FBFF34F8FFEE70000BB
:1041D000002307B501930A4B1B68013301D0FFF799
:1041E000EDFF4FF0500383F31188BFF36F8FBFF3E0
:1041F0004F8F019B002BFCD003B05DF804FB00BF88
:104200005800002008B5EFF305830F2B07D90E4A9D
:104210009B5C0E4A12789A4201D9FFF7CFFF4FF00C
:10422000E0230B4AD3F80C3D126803F4E063934299
:1042300008D94FF0500383F31188BFF36F8FBFF39A
:104240004F8FFEE708BD00BFF0E300E0742D0020B3
:10425000782D0020054A08B513680BB9FFF7AEFFAB
:10426000013B13600BB983F3118808BD580000208F
:1042700008B54FF0500383F31188BFF36F8FBFF37E
:104280004F8F074A13680133012B136007D14FF09A
:10429000E023D3F8043DDBB20BB1FFF78FFF08BD7D
:1042A000580000201A4A036890420AD0B0F1804FAB
:1042B00007D0A2F59432904203D002F5806290427A
:1042C00015D14A6823F070031343114A90420AD073
:1042D000B0F1804F07D0A2F59432904203D002F59E
:1042E0008062904203D1CA6823F4407313434A6941
:1042F00023F08003134303608B68C3620B688362FF
:10430000034B984204BF0B69036301234361704769
:10431000002C0140002337B5026801939368DB0746
:1043200002D5002003B030BD9368124943F0010369
:104330009360114B1B68B3FBF1F30193019BABB985
:104340000E4C2568936813F00103EAD12168491BDC
:104350000229F7D9826A80F8243042F01002826282
:10436000C26A42F00102C2620120DBE7019B013B0D
:10437000E3E700BF40420F004C0000207C2D0020EE
:10438000036810B59A68D10701D4002010BD9A685F
:104390000A4922F001029A600C689A68D207F4D5A3
:1043A0000A68121B022AF8D9836A43F01003836259
:1043B000C36A43F00103C3620120E7E77C2D0020BC
:1043C000002337B5019390F824300446012B5FD0C9
:1043D000012380F82430FFF7D3FF0546002839D1A8
:1043E000A36A2C4823F4885323F0020343F002030A
:1043F000A362294B1A68294B59685B68C1F3C22133
:10440000415CC3F38133013322FA01F15B00B1FB5C
:10441000F3F3B2FBF3F252000192019BF3B9204691
:10442000FFF778FF23689A6842F008029A601C4AF6
:1044300010689968090715D4996841F004019960DA
:104440001068996849071ED4A36A23F0030343F058
:104450000103A362002384F8243011E0019B013B97
:104460000193DAE71168091A0A29E2D9A36A01253A
:1044700023F0120343F01003A362002384F82430D6
:10448000284603B030BD1168091A0A29D9D9EDE7C9
:104490000225F5E7A4B700084C00002000100240F8
:1044A0007C2D0020436A9A6A12F0500F18D19A6A44
:1044B00042F400729A621A68926802F46022B2F5BD
:1044C000602F10D1DA6872B99A6A22F480729A6207
:1044D0009A6AD20407D49A6A42F001029A6270473B
:1044E0001B6A1B6B184770477047436A9A6A42F011
:1044F00040029A62DA6A42F00402DA62704700000F
:104500002DE9F74F00221646644F654BDFF894C142
:10451000DFF894E14FF001080D6808FA06F808EAA0
:10452000050438EA05057AD14D68032D07D8013D09
:10453000022D00F28D80DFE805F09BA0A600122D71
:1045400000F09E8072D8112D00F09480FF2C98BF4F
:1045500082464FF00F0988BF00F1040A4FEA860532
:10456000DAF8008088BF203D09FA05FB28EA0B082D
:1045700002FA05F548EA0505CAF80050D1F804A08A
:104580001AF0805F4BD0BD6926F0030845F00105A5
:10459000BD61BD6908F1804805F00105019508F588
:1045A000803806F0030B019D4FEA8B0BD8F80850BA
:1045B00009FA0BF925EA09093C4DA84267D005F52F
:1045C0008065A84265D005F58065A84263D005F5F1
:1045D0008065A8420CBF0325042505FA0BF545EAC2
:1045E0000905C8F808501D681AF4803F14BF254318
:1045F000A5431D605D681AF4003F14BF2543A54321
:104600005D609D681AF4801F14BF2543A5439D601B
:10461000DD681AF4001F14BF2543A543DD60013691
:10462000102E7FF477AF03B0BDE8F08FDFF88090F5
:104630004D450DD018D8A9F580194D4508D009F57C
:1046400070294D4504D0A9F580194D457FF47EAF02
:104650008A68D2B1012A08BFC0F810804FF0080262
:1046600018BFC0F8148071E76545F1D07545EDE7D6
:10467000CA686BE7CA68043268E7CA68083265E747
:10468000CA680C3262E7002260E704225EE7002578
:10469000A3E70125A1E702259FE700BF0010024024
:1046A00000040140000031100000321000080140F9
:1046B0000000221008B590F82130022B03D004230B
:1046C0008363012008BD03681A6822F00E021A6095
:1046D0001A6822F001021A60174A93421CD0143261
:1046E00093421BD0143293421AD0143293421AD000
:1046F000143293421AD0143293420CBF4FF48013F9
:104700004FF080730D4A53604FF480730384436B02
:104710007BB198470020D5E70123F3E71023F1E7A9
:104720004FF48073EEE74FF48053EBE74FF48033A0
:10473000E8E71846C6E700BF080002400000024054
:1047400070B40425C66B026C34680368954025423A
:10475000196832D04D0730D51A6896065EBF1A68C0
:1047600022F004021A603D4A934219D01432934257
:1047700018D01432934217D01432934217D0143207
:10478000934217D0143293420CBF4FF480034FF082
:104790008063334A5360C36A002B5CD070BC1847F7
:1047A0000423F6E74023F4E74FF48063F1E74FF486
:1047B0008043EEE74FF48023EBE702259540254246
:1047C00035D08D0733D51A68940606D41A6822F0BE
:1047D0000A021A60012280F82120204A934219D04F
:1047E0001432934218D01432934217D014329342A9
:1047F00017D01432934217D0143293420CBF4FF4A7
:1048000000134FF00073164A5360002380F82030E5
:10481000836AC1E70223F6E72023F4E74FF400732D
:10482000F1E74FF40053EEE74FF40033EBE70825D0
:10483000954025420FD009070DD5196821F00E01CA
:104840001960012303FA02F2726083634FF48073EC
:104850000384036BA0E770BC704700BF08000240F0
:1048600000000240034A0130116813685B1A83425A
:10487000FBD370477C2D002043689A684B608A60A8
:104880009A6851609960036808610133036070475A
:1048900030B50C68631C0AD103695A684A6091609C
:1048A0008B605960036808610133036030BD00F11B
:1048B0000802134652681568A542FAD9EDE7036964
:1048C000D0E901128A6051605968814208BF5A607C
:1048D000002202611A68013A1A60186870470000E5
:1048E000024A136801331360704700BF842D002013
:1048F000C36870B5DC6844B94FF0500383F3118886
:10490000BFF36F8FBFF34F8FFEE704F118063046F9
:10491000FFF7D5FF104BE56A1B68D3B90434204676
:10492000FFF7CDFF01230D4A14201168AB400B4364
:10493000214613600A4B00FB0530FFF79DFF094B32
:104940001B68DB6AAB423BBF0120074B00201860AD
:1049500070BD31460548F0E7842D00208C2D0020E5
:104960007C16002070160020483200202C320020D7
:104970002DE9F04104464FF00108FFF779FC90F86B
:1049800045501B4F6DB200F12406002D17DCFF23AC
:104990004FF0010884F84530FFF75CFCFFF768FC36
:1049A00094F84450124F6DB204F11006002D12DC41
:1049B000FF2384F84430BDE8F041FFF74BBC636A45
:1049C000002BE4D03046FFF793FF08B1C7F8008012
:1049D000013D6DB2D9E72369002BE9D03046FFF7DE
:1049E00087FF08B1C7F80080013D6DB2DEE700BF68
:1049F00048320020F8B50F4D0F4EFFF739FC2C68F8
:104A00000768336842689F4201D0944210D20B6815
:104A1000A71A9F420AD21B1B13440B603368036022
:104A20002B6843600020FFF715FCF8BD00230B60E6
:104A30000120F8E7443200202432002008B9064B58
:104A40001868026B0020135CA52B02D0C0F38F0006
:104A500070470130F7E700BF70160020064A136860
:104A60001968064B19B94FF0FF321A607047126887
:104A7000D268D2685268F8E774160020203200200D
:104A80003D4B2DE9F74F1B68002B6ED13B4B1D684A
:104A900001351D60BDB93A4B1A68126842B14FF03A
:104AA000500383F31188BFF36F8FBFF34F8FFEE77F
:104AB000344A1968106818601160334A136801336A
:104AC0001360FFF7CBFF314E00243368DFF8C0805E
:104AD0009D4212D21422D8F80030DB6A53432D4A8B
:104AE000D358022B2C4B28BF01241B68002B18BF66
:104AF0000124204603B0BDE8F08FDFF884A0DFF882
:104B00009C90DAF800301B681BB94FF0FF3333601C
:104B1000E0E7DAF80030DB68DF687A68954201D2B6
:104B20003260D7E707F1040B5846FFF7C8FEBA6AB0
:104B30001AB107F11800FFF7C2FE0122FB6AD9F88B
:104B400000009A4002431420C9F80020114A594637
:104B500000FB03200193FFF78FFED8F80020019B94
:104B6000D26A934228BF0124CBE70D4A0024136880
:104B700001331360BDE700BF842D002044320020C4
:104B800074160020781600202432002020320020E5
:104B9000701600207C160020483200208C2D00204A
:104BA0002832002032492DE9F0470B6843B94FF015
:104BB000500383F31188BFF36F8FBFF34F8FFEE76E
:104BC000FFF756FB0B68013B0B600C6824B100201B
:104BD000FFF740FBBDE8F087264B1B68002BF6D0A3
:104BE000254E264FDFF8989020E0F3684FF001083B
:104BF000DC6804F1040A04F11800FFF760FE504677
:104C0000FFF75DFE1420E56A3A6808FA05F31343DE
:104C1000514600FB05903B60FFF72EFE194B1B68C9
:104C2000DB6A9D4202D3184BC3F800803368002B27
:104C3000DBD10CB1FFF712FF144D2C6844B10127F2
:104C4000114EFFF71DFF00B13760013CF9D12C6018
:104C50000D4B1B68002BBAD04FF0E0234FF0805271
:104C6000C3F8042DBFF34F8FBFF36F8F0120AFE761
:104C7000842D0020802D00202C3200208C2D00203F
:104C80007C160020701600204832002028320020B8
:104C9000054B1B6833B1054B1868B0FA80F040092A
:104CA000400070470120704740320020842D0020D2
:104CB000C3685A1EC26033B9036833F8022B03601D
:104CC0000F238260C36083685A008260C3F3C030E0
:104CD000704710B5012104462046FFF7E9FF49005F
:104CE00001442046FFF7E4FF0028F5D1084610BD37
:104CF000F0B54FF4804386180122002485B0CDE939
:104D00000001CDE90232009BB34202D3204605B038
:104D1000F0BD6846FFF7CCFF019FE8B16846FFF79A
:104D2000D8FF05466846FFF7D4FF009B02385A1C9F
:104D300000921B78AA1C03EB0023DB433B440234A4
:104D40001A44934201D12C44DDE70199481C01909B
:104D500013F8010B0870F4E7009B01345A1C009211
:104D60007A1C01921B783B70CDE701207047000050
:104D70000A4B588A80B278B1188980B260B11A891A
:104D8000188992B2052A94BF42F210734EF660233E
:104D900080B288BF05385843704700BFF81600201E
:104DA00038B5134A538A9BB20BB9002038BD13891A
:104DB0009BB2002BF9D00F4A0F4B14681B6843EAD3
:104DC000040288B1002AF1D00C4D2968C91AFFF7F6
:104DD000CFFF8142E9D92868041BFFF7C9FF84424D
:104DE00094BF00200120E1E7002ADED0ECE700BFFD
:104DF000F81600203C160020401600204432002007
:104E0000034B588980B2003818BF0120704700BF9B
:104E1000F8160020034B588A80B2003818BF0120D2
:104E2000704700BFF8160020034BD88A80B20038C4
:104E300018BF0120704700BFF8160020034B188DE3
:104E400080B2003818BF0120704700BFF81600205C
:104E5000F8B5002506462C461427EBB207FB036382
:104E60009A680AB92046F8BDDB6813B90134E4B288
:104E700002E098470028F9D10135EEE70B4B70B5F9
:104E800033F8305003EBC0035C88094B460003EB5A
:104E9000400081808288334492B2AA4238BF858024
:104EA0009A8892B2A24288BF9C8070BDE2BE000880
:104EB000F816002008B5104BD9885B8C89B29BB2DC
:104EC00073B1143189B2B1F5117F88BF3C21012043
:104ED000FFF7D4FFB1F5117F14BF0020012008BDFA
:104EE0000A3189B2B1F5967F88BF0A210120FFF708
:104EF000C5FFB1F5967FEFE7F816002008B5144B13
:104F0000198E5B8C89B29BB29BB179B140F251335F
:104F1000143189B2994288BF00211620FFF7AEFFF5
:104F2000B1F5527F34BF0020012008BD4FF4F0716D
:104F3000F3E759B10A3189B2B1F5E17F88BF0021A9
:104F40001620FFF79BFFB1F5E17FEBE7FA21F7E7CA
:104F5000F816002070B5114B114C33F8306003EB9C
:104F6000C00359889A8804EB40034500988880B2B2
:104F7000884207D19E802C44A08880B2431A5842B0
:104F8000584170BD98888E1A80B2B042B7BF9888D9
:104F90009980121892B2B8BF9A80ECE7E2BE00087E
:104FA000F816002070B50F20FFF7D4FF05462748FC
:104FB000018E8288C388408C89B280B292B29BB243
:104FC00080B3052001EBC10102EBC206A031A0367F
:104FD00003EBC304B1FBF0F1B6FBF0F6A034B4FB75
:104FE000F0F489B2B6B20A23B1FBF3F1B6FBF3F6E3
:104FF000A4B2B4FBF3F401EB81014900162089B29D
:10500000FFF73CFF06EB86014900002089B2FFF75D
:1050100035FF04EB84014900012089B2FFF72EFF20
:10502000284670BD09202039203A01EB810102EBAE
:10503000820291FBF0F192FBF0F6203B03EB83033D
:1050400093FBF0F489B2B6B2CDE700BFF8160020AA
:1050500038B500230122104D04462B7003681A70E6
:10506000D0E90131142009781B6800FB0133187C5A
:10507000232809D8FFF76EFF2B7813B10322236989
:105080001A6001232B7038BD586808B18047F3E7D8
:10509000E3681A70F0E700BFA0120020F0B5544298
:1050A000A0421E46059D134624DD602822DC002810
:1050B00000EB0207B6BF44420024E4B2602FC4BF35
:1050C000C0F16002D2B2E9B9134F21183F6805EB75
:1050D000040C0F4421468A420DD8102E0AD1102EFE
:1050E00018BF00230D492344096820442B44014480
:1050F000A2420AD8F0BD1CF801EB013107F801EB20
:10510000C9B2E8E70829EAD0E7E713F8010B013450
:1051100001F8010BE4B2EBE75C1100206011002004
:1051200002292DE9F34104461CD11022254B264DBE
:105130001A700C22254B1A70244B254F1E78214BD8
:10514000B7F900801B782349DA08724304FB025543
:1051500000953246404691F900104644FFF79EFF05
:105160003E8009E001280AD11A4BB3F900201AB990
:1051700017490A8008221A8002B0BDE8F081FBD9E5
:1051800000290BBF0820102006220C220D4B18709E
:105190000E4B1A700422104B1888A0420AD85D8862
:1051A000A54207D9201AD3E9012584B2002918BFE6
:1051B0001546C1E7013A03F10C03EDD1144615463B
:1051C000BAE700BFD012002014BA0008D1120020A4
:1051D0002612002028120020A000002038B5044626
:1051E0000D46237803B938BDF02B05D898B20134A9
:1051F0002946FFF795FFF4E76278002AF3D0F03BE9
:10520000C3EB03230F3A134498B20234F0E70000D3
:10521000002205490A8005490A800178012914BF46
:1052200011460130FFF7DABF2612002028120020B5
:1052300010B50A4B0A4A0C461B68443033F810304C
:10524000106804EB44041844FFF7E2FF0022054B0A
:10525000A400023C1C80044B1A8010BD7410002076
:1052600078100020261200202812002008B50721FF
:105270000520FFF7DDFF064B06485B8C064A9BB214
:10528000002B08BF1046BDE808400121FFF7A6BF6C
:10529000F8160020A8B60008ADB6000808B507212A
:1052A0000F20FFF7C5FF084B084A9B8C12689BB282
:1052B00043B1D38C064A012110681844BDE8084068
:1052C000FFF78CBF138DF5E7F8160020741000204F
:1052D00078100020072108B50846FFF7A9FF0B4BFF
:1052E000198A0B4B89B21A680A4B01291B6804D032
:1052F000022908D1908C012100E0508C1844BDE8AF
:105300000840FFF76BBF108CF5E700BFF8160020D0
:105310007410002078100020072108B50920FFF73D
:1053200087FF0D4B198B0D4B89B21A680C4B022964
:105330001B6809D003290AD001290AD1D08D18444D
:10534000BDE80840FFF74ABF108E0121F7E7508EF5
:10535000FBE7908EF9E700BFF816002074100020DC
:1053600078100020072108B51820FFF761FF0C4BCB
:10537000D98C0C4B89B21A680B4B01291B6805D0DC
:1053800002290AD1B2F84200012101E0B2F840003E
:105390001844BDE80840FFF721BFD08FF4E700BFF5
:1053A000F8160020741000207810002007210C202F
:1053B000FFF73EBF05210B20FFF73ABF072108B5D5
:1053C0001B20FFF735FF0D4BD98A0D4B89B21A68A8
:1053D0000C4B02291B6809D003290AD001290AD1E4
:1053E000108D1844BDE80840FFF7F8BE508D01212C
:1053F000F7E7D08CFBE7908DF9E700BFF8160020A7
:10540000741000207810002005210D20FFF710BF38
:1054100037B5294B294A1B68044603EB4003B3F810
:10542000CC3010681844FFF7F3FE254AD38A9BB2AC
:10543000022B23D0032B14BF4FF4FA704FF4967055
:10544000204B1978204BE1B9D18A89B2C9B11968CA
:105450001E4DA1421E4902D01C602B680B602B68B8
:105460000968928A5B1A92B2B3FBF0F302B303228B
:10547000B3FBF2F202EB42029B1A0AE04FF4C8704F
:10548000DEE78D211960D38A9BB2B3FA83F35B09FF
:105490005B006022544304EB43140E4B0021234471
:1054A000009310234E201A46FFF7F8FD03B030BDDD
:1054B000022B28BF0223ECE7741000207810002094
:1054C000F81600207C1000205400002044320020F8
:1054D000B4120020ADBC00080020FFF799BF0120E6
:1054E000FFF796BF0220FFF793BF0320FFF790BF9F
:1054F0000420FFF78DBF37B50C4611460022042C5F
:105500000092ADF804208DF8062032D90A22B0FBB3
:10551000F2F502FB150002308DF80500B5FBF2F044
:1055200002FB105502358DF8045080B20A25B0FBFD
:10553000F5F205FB120502358DF8035090B20A25ED
:10554000B0FBF5F205FB120502358DF8025090B262
:105550000A25B0FBF5F205FB120502358DF8015066
:1055600090B20BE01578022D17D102F8010B013330
:1055700011E0DBD0032CE2D0012CE9D10A25B0FBED
:10558000F5F205FB120202328DF800202BB16A46BB
:1055900000231220013CA342E4DB6846FFF71EFE15
:1055A00003B030BD08B506210020FFF741FE0A4ACE
:1055B00053899BB26BB1012350891946023080B2E6
:1055C0001A46FFF798FF01210448BDE80840FFF79D
:1055D00005BE01210248F8E7F8160020AAB6000827
:1055E000ACB6000870B505211920FFF721FE0A248A
:1055F00001230D4D1A46A889194680B2B0FBF4F07C
:10560000FFF779FF01210948FFF7E8FDA88980B27B
:10561000B0FBF4F304FB1300BDE87040012380B23B
:105620001A461946FFF767BFF8160020AFB6000804
:1056300008B505210320FFF7FBFD0C4A538B9BB2F5
:1056400053B901210A4B0B4A1B6810681B8A184486
:10565000BDE80840FFF7C2BD0123508B022180B294
:105660001A46FFF748FF01210348F1E7F81600202A
:105670007410002078100020B1B600080721042023
:1056800010B5FFF7D5FDBDE810400122034B1146D0
:10569000588A002380B2FFF72EBF00BFF816002003
:1056A0000521012010B5FFF7C3FDBDE81040044BF4
:1056B0000321D888012380B21A46FFF71CBF00BF20
:1056C000F816002008B505210220FFF7B1FD154BA3
:1056D0001A8992B252B90121134B144A1B681068FF
:1056E0001B8A1844BDE80840FFF778BD1A8918895D
:1056F00092B2052A0CD8012380B200EB8000400052
:10570000022180B21A46FFF7F6FE01210848E9E7B8
:1057100001230538022180B21A46FFF7ECFE012171
:105720000448DFE7F81600207410002078100020ED
:10573000B3B60008B1B6000808B505211220FFF77E
:1057400077FD0C4A938E9BB253B901210A4B0B4A49
:105750001B6810681B8A1844BDE80840FFF73EBD6F
:105760000123908E022180B21A46FFF7C4FE012168
:105770000348F1E7F816002074100020781000208C
:10578000B5B600080521082010B5FFF751FD0C4AF9
:10579000138E9BB243B1BDE810400123108E03214C
:1057A0001A4680B2FFF7A7BE064B074A1B6810686F
:1057B0001B8A0121BDE810401844FFF70FBD00BF50
:1057C000F816002074100020781000200621142004
:1057D00010B5FFF72DFDBDE81040044B0221588F96
:1057E000012380B21A46FFF786BE00BFF8160020DC
:1057F0000621152010B5FFF71BFDBDE81040044B36
:105800000221188F012380B21A46FFF774BE00BF31
:10581000F816002070B5174D05211620FFF708FD7A
:105820002B8D9BB2DBB101230A24288D1A4680B24E
:105830001946B0FBF4F0FFF75EFE01210E48FFF7BA
:10584000CDFC288D80B2B0FBF4F304FB1300BDE85F
:105850007040012380B21A461946FFF74CBE074B31
:10586000074A1B6810681B8A0121BDE87040184474
:10587000FFF7B4BCF8160020AFB600087410002083
:105880007810002007211C2010B5FFF7D1FCBDE8DF
:105890001040044B588D012380B21A461946FFF779
:1058A0002ABE00BFF816002007211D2010B5FFF703
:1058B000BFFCBDE81040044B988D012380B21A460E
:1058C0001946FFF718BE00BFF816002007B50521DE
:1058D0002120FFF7ADFC164BB3F84A2092B25AB91B
:1058E0000121144B144A1B6810681B8A184403B02A
:1058F0005DF804EBFFF772BCB3F84A2092B2052AB8
:105900000AD10E4B18220093002110234620FFF7E6
:10591000C5FB03B05DF804FBB3F84A000123022184
:1059200080B21A46FFF7E7FD01210548DFE700BF17
:10593000F81600207410002078100020D4B8000859
:10594000B3B600080221FFF7EBBBC0F11100C0B2F3
:10595000FFF7F8BF08B50E200721FFF769FC054BDC
:10596000188CBDE8084080B2003818BF0120FFF74E
:10597000ECBF00BFF816002008B506200721FFF78E
:1059800057FC054BD88BBDE8084080B2003818BFE3
:105990000120FFF7DABF00BFF816002008B50A2083
:1059A0000721FFF745FC054B988BBDE8084080B206
:1059B000003818BF0120FFF7C8BF00BFF81600204D
:1059C00008B513200721FFF733FC054BD88EBDE83F
:1059D000084080B2003818BF0120FFF7B6BF00BFF3
:1059E000F816002008B51A200721FFF721FC054B07
:1059F000988ABDE8084080B2003818BF0120FFF740
:105A0000A4BF00BFF8160020F8B51D4B05460E20B8
:105A10001C78FFF797FF1F23B5FBF3F0194BC0F17C
:105A20000A0010F0F80F1968C5B2C0F3C4060BD015
:105A3000F32C8CBF01230D23204600272344DBB227
:105A4000421CD2B2934218D1FF2205F00705AA40AA
:105A50006025F32C8CBF01230D2375432344DBB257
:105A600062F0FF02601CC0B2834200D1F8BD2C443A
:105A70000E5D16400E550446F4E70F541046DFE75E
:105A8000261200205C11002070B5224B224D986830
:105A90009B6880F4007083F04003C3F38013C0F36D
:105AA000402050EA43001FBF1C4B1A681C4B1A6071
:105AB0002B7883420FD168B1184B1A4A1B681268C1
:105AC0009B1AB3F5C87F20D9012820D002280CBF2B
:105AD0000820202070BD114C124920B1032B00D1A9
:105AE000184600230AE022680E68921BB2F5C87FB0
:105AF00009D2012B02D0022B18BF10232268287074
:105B00000A601846E6E70346F8E70020E2E70420CB
:105B1000E0E700BF00080140881200204432002066
:105B20003C1600208C12002048F2E80358436423FE
:105B3000C00B584340F23D13B0FBF3F0074B5A8EB5
:105B400092B242B139B95A8E92B282422FBF084600
:105B50005B8E9BB2C01A024B18607047F81600208B
:105B60004416002038B50021FFF7DEFF83B27BB377
:105B70000122184931F822409500A34213D283B282
:105B80004FF47A70294431F8045C31F8022C5B1B25
:105B90004343641B93FBF4F34988891A4B4393FBFB
:105BA000F0F3981838BD0132322AE3D14FF47A72FB
:105BB00080B2A0F54053313B02FB03F0EE2390FB93
:105BC000F3F00A23584390FBF2F000F5F570E9E793
:105BD0001846E7E70CD70008202210B5214B83F8C0
:105BE0003D20214B1868002835D0036C43B14FF09D
:105BF000500383F31188BFF36F8FBFF34F8FFEE71E
:105C0000036853B9836843B14FF0500383F311889D
:105C1000BFF36F8FBFF34F8FFEE7FEF7F3FAEFF39B
:105C200011844FF0500383F31188BFF36F8FBFF3DC
:105C30004F8F826BC36B9A420BD290F845100132A2
:105C4000FF294BB2826307D1436A13B12430FEF7B8
:105C50004FFE84F3118810BD01335BB280F84530EC
:105C6000F7E700BF041500202C120020436A1A68D1
:105C7000116821F4806111600021586B59854163DE
:105C8000986B416393F83D0060284FF0200083F843
:105C90003D0083F83E1008BF1964136823F0010328
:105CA0001360FFF799BF00004AF6AA22014B1B6858
:105CB0001A607047581500204FF0E0204FF08054D4
:105CC00008B506490B68012B05D9C0F8044DBFF390
:105CD0004F8FBFF36F8FFFF7E7FFF3E77C160020CE
:105CE0000122084B1A7040F21B12074B1A80074B17
:105CF0001B68DA6240F20D125A6340F682229A6201
:105D0000704700BF7E10002048170020AC1500200F
:105D1000037B826810B530F81340121B0A4482607E
:105D200020F81310013303F00303037310BD0000C8
:105D300010B5044671B10D4B0D481B68D96B1A6C38
:105D400011445A6C9B6C1144194489B2C90089B240
:105D5000FFF7DEFF064B9B68002BB8BF0333C3F38E
:105D60008F039B00B3FBF4F080B210BD041400203D
:105D7000A412002008B5084B0146D88D80B2FFF769
:105D8000D7FF4B234043B0FBF3F0044BC0EB0020A4
:105D90001B88B0FBF3F008BDF81600204817002060
:105DA00010B50446002C084606DC094BD88D80B29D
:105DB000FFF7BEFF002010BDFFF7DCFFC4EB04249B
:105DC000B4FBF0F0FF2828BFFF20C0B2F3E700BF0C
:105DD000F816002010B50121FFF7E2FF134B9028C1
:105DE00004461A781BD90AB100221A7014211A78B5
:105DF0000F4B002019800F4B1A700F4B1C70FFF7D0
:105E0000B9FFFF23E82144430C4AB4FBF3F41368C1
:105E10004B43182101FB04331B0A136010BD6F288C
:105E2000E4D8002AE2D10122DFE700BF51000020C0
:105E3000701000207D10002068160020902D00209A
:105E400008B5084B08481B68D96B1A6C11445A6C8A
:105E50009B6C1144194489B2490089B2FFF758FF7D
:105E6000084608BDD41300207812002038B5054636
:105E700058B3FFF7E5FFFFF775FE04466DB100214B
:105E80000B46164A013332F8020BDBB2102B0144E9
:105E9000F8D1134889B2FFF73BFF6422104B9B688F
:105EA000002BB8BF0333C3F3CE03A3F59B53053BCD
:105EB000534340F2E23293FBF2F30A229BB2B3FB6C
:105EC000F2F3181920EAE07038BD064B98680028F4
:105ED000B8BF0330C0F38F00CDE700BF7C000020C7
:105EE0009012002078120020044B054A1B681068AD
:105EF000B3F8C4301844FFF78BB900BF741000200A
:105F00007810002038B505461C2425FA04F303F068
:105F10000F03981C0021043CFFF702F9231DF4D164
:105F200038BD000070B5154B154D06461C68286835
:105F30000430FEF7C4FC40B92A681249D06A012235
:105F40000B68824023EA02030B602B68A4195C6093
:105F500007D30D4B18682968BDE870400431FEF77F
:105F600097BC0A4B186829680431FEF791FC084B6E
:105F70001A68944238BF1C6070BD00BF44320020D4
:105F8000701600208C2D002078160020741600203A
:105F90002032002008B550B94FF0E0234FF0805276
:105FA000C3F8042DBFF34F8FBFF36F8F08BD074BAE
:105FB0001B680BB1FEF702F9FEF792FCFFF7B2FF88
:105FC000FEF7F0FD0028E7D0F0E700BF842D0020A9
:105FD0003220FFF7DFBF10B5FFF756FD04463CB98E
:105FE000FFF752FD0446FFF7F3FF002CF8D010BD79
:105FF000FFF74AFD0446FFF7EBFFF0E770B50D4EE3
:1060000035680544FFF740FD044654B9FFF73CFDF1
:106010000446FFF7DDFF33689D420AD3002CF5D01C
:1060200007E0FFF731FD0446FFF7D2FF33689D42DA
:10603000EBD270BD44320020074AB2F84A309BB21E
:10604000052B01D1FFF7C7BF4FF47A70B2F84A3081
:106050009BB25843FFF7D2BFF816002010B50C468C
:10606000044B19681831FEF713FC2046BDE81040B8
:10607000FFF758BF701600202DE9F043994B85B00B
:106080001C683223019344B94FF0500383F3118805
:10609000BFF36F8FBFF34F8FFEE7256C45B14FF015
:1060A000500383F31188BFF36F8FBFF34F8FFEE769
:1060B000FEF7EEFD40B94FF0500383F31188BFF3B4
:1060C0006F8FBFF34F8FFEE72946874F874E94E0CF
:1060D000019B5BB9002D00F037814FF0500383F333
:1060E0001188BFF36F8FBFF34F8FFEE721B93B6875
:1060F00002937F4B1B680393FEF7ACF8FEF7F0FBAF
:10610000FEF7B6F894F8443001A9FF2B04BF002332
:1061100084F8443094F8453002A8FF2B04BF0023D4
:1061200084F84530FEF796F8FEF764FC002840F04E
:106130009C80FEF79DF8A36B002B56D1FEF78AF8E2
:106140002368002B3BD1FEF793F8A568002D33D0D0
:106150003268EB6AD26A93427FD2AA69DFF89481EF
:10616000002AA1BF3268D26AC2F10602AA611422D3
:1061700002FB03836A699A426BD105F10409484620
:10618000FEF79DFB5C4B38B90120E96A1A6800FAFA
:1061900001F122EA01021A6032681968D26AEA62E1
:1061A000012505FA02F0084318601420494600FB57
:1061B0000280FEF761FB0120FEF74CF805460199CD
:1061C00004F12400FFF74AFF2046FEF7D1FBFEF75B
:1061D000E9FC88B94FF0E0234FF08052C3F8042D5A
:1061E000BFF34F8FBFF36F8F06E02046FEF732F804
:1061F000FEF7BEFBFEF7D6FC0121FEF739F8A36BD4
:10620000002B3FF465AF013BA363236843B9374BD1
:106210001A681AB119688A6D01328A651B68A36011
:10622000236973B104F11000FEF762FB48B14FF02F
:10623000E0234FF08052C3F8042DBFF34F8FBFF31C
:106240006F8FFEF707F8012505F0010005B0BDE8E6
:10625000F0833368DB6AEB62ADE73368686DDB6A55
:1062600098422CBF00200120A6E72046FEF780FBC5
:10627000FEF798FCFDF7FCFFA36B13B1FDF7EAFFF7
:10628000BAE7FDF7E7FF002DDED0FDF7F1FF636A07
:106290001BB1236B1B68C3F10603A468002C53D009
:1062A000A16D41B94FF0500383F31188BFF36F8F95
:1062B000BFF34F8FFEE7626D934238BF1346E26A29
:1062C000934241D001293FD1084909688C4215D138
:1062D0004FF0500383F31188BFF36F8FBFF34F8FDD
:1062E000FEE700BF2C120020243200207016002090
:1062F000443200207C1600208C2D0020A169E3622E
:106300000029A4BFC3F10603A3611423104D03FBAE
:1063100002526369934217D1261D3046FEF7CFFA29
:106320000C4AE76A28B901241368BC4023EA040335
:106330001360012314201168BB400B4300FB07507E
:1063400031461360FEF798FAFDF784FF00257BE7DE
:106350007C1600208C2D0020012508B5174CFDF778
:1063600087FF236893F86030022B12D023686420E3
:10637000DA6DDA65236883F86050FFF7D3FD4FF0DC
:10638000E0234FF08052C3F8042DBFF34F8FBFF3CB
:106390006F8FFDF75FFFFDF76BFF236893F86030A9
:1063A000022B01BF2268D36D03F07F43D365002227
:1063B000236883F86020FDF74DFFD0E770160020BA
:1063C00010B5134CFDF754FF2368DB6D7BB9012238
:1063D000236883F86020FFF7A5FD4FF0E0234FF01E
:1063E0008052C3F8042DBFF34F8FBFF36F8FFDF7BB
:1063F00031FFFDF73DFF2368D86D10B100222368FF
:10640000DA650022236883F86020FDF723FF10BDC2
:1064100070160020154B70B51D68154E6A6912F094
:10642000800201D000201FE06C6914F480640FD159
:106430003268521A9042F1D21A6C032042F02002C4
:106440001A6420221C6383F83C4083F83D200BE053
:106450006FF48061696104211964202101201A63AD
:1064600083F83C2083F83D1070BD00BF0415002068
:106470007C2D0020144B70B51D68144E6A6912F013
:10648000400201D000200EE06C6914F010040BD023
:106490006FF010016961202101201A6483F83C200B
:1064A0001A6383F83D1070BD3268521A9042E5D2EB
:1064B0001A6C032042F020021A64202283F83C4028
:1064C00083F83D20EFE700BF041500207C2D00205D
:1064D00070B50546144A154E14686369DB4313F022
:1064E000020014D0636913F4806311D02368202163
:1064F00043F4007323606FF48063636104231364C7
:1065000000230120136382F83C3082F83D1070BDF7
:106510003068401A8542E0D220211363032082F8BC
:106520003D1082F83C30F2E7041500207C2D00205D
:10653000F0B5114DDFF844C02E68070C012F0CBFD9
:106540007469B46920EA0404A4B2B4FA84F4640956
:10655000A14201D000200EE0DCF80040E41AA24283
:10656000ECD20023202203202B6385F83C3085F8F1
:106570003D2085F83E30F0BD041500207C2D002024
:1065800013B590F83D30044603F0FF0200687BB974
:106590001D4B84F83C20984228D103F50333DA6977
:1065A00042F00202DA61DB6903F002030093009B10
:1065B0000223211D84F83D30FDF774FE01230020E5
:1065C00084F8463084F83E3084F83F3084F8403018
:1065D00084F8413084F8423084F8433084F8443001
:1065E00084F8453084F83D3002B010BDB0F1804FE2
:1065F000DED1064BDA6942F00102DA61DB6903F0B1
:1066000001030193019BD3E7000400400010024006
:10661000134B10B5DB68C3F30223C3F107041A1D43
:10662000042C28BF0424062A88BFDA1E4FF0FF334B
:1066300098BF0022A34021EA0303002803FA02F3D3
:10664000ACBF00F16040074A4FEA0313DBB2B5BFAD
:1066500000F00F0000F56140135480F8003310BDC6
:1066600000ED00E014ED00E010B54CF2503420498C
:10667000204B0868DA68D20733D4DA68910644BF41
:106680002022DA60DA68D20606D4DA69D40703D4A5
:10669000D86810F0040023D0164AD36813F0100312
:1066A00005D01549CB6943F00203CB611023D268B2
:1066B000500706D5104943F00403CA6942F00102AD
:1066C000CA610C4AD169C90708D50B48C16941F0B4
:1066D0000401C161D16921F00101D1610120D360C0
:1066E00010BD0A68121AA242C4D90320F8E700BFFD
:1066F0007C2D0020002002404816002090F83E30FB
:10670000012B22D1022380F83E3003681A6A22F05E
:1067100001021A621A6A42F001021A620B4A93429B
:106720000AD0B3F1804F07D0A2F59432934203D040
:1067300002F58062934204D19A6802F00702062AA9
:1067400003D01A6842F001021A607047002C014021
:1067500015490B681A6A22F001021A621A6A1A6253
:10676000124A93420DD141F21112186A104208D117
:1067700040F24442186A104202BF5A6C22F40042AE
:106780005A6441F21112186A104208D140F2444290
:10679000186A104202BF1A6822F001021A6001232F
:1067A00081F83E30704700BFF4150020002C0140F6
:1067B000037F082B01D1FFF7CBBF704710B50368EB
:1067C00004461A6991070ED5DA6892070BD56FF067
:1067D00002021A61012202779B699B0701D1FFF730
:1067E000E7FF0023237723681A69500710D5DA687A
:1067F00051070DD56FF004021A61022222779B69BE
:1068000013F4407F02D12046FFF7D2FF0023237705
:1068100023681A6912070FD5DA6810070CD56FF0D4
:1068200008021A6104222277DB69990702D1204607
:10683000FFF7BEFF0023237723681A69D20610D51D
:10684000DA68D0060DD56FF010021A61082222779F
:10685000DB6913F4407F02D12046FFF7A9FF002334
:10686000237723681A69D10737D5DA68D20734D578
:106870006FF001021A612368B3F1804F2ED11B4AD9
:106880001B4C13882168013B9BB21380194B1B786A
:10689000DBB20B640B6C83B113889BB26BB11648EF
:1068A000FFF72CFF154B164A1B781178994214D02C
:1068B00033B1BDE81040FFF713BAFFF749FFF1E726
:1068C000137040F20D120F4B1A802368DA624FF4F6
:1068D00083725A6341F204529A6210BD0A4A93428B
:1068E00001BF0A4A136801331360F6E770100020F5
:1068F000AC15002068160020F41500207D10002043
:106900007E10002048170020002C01407C2D002024
:1069100090F83C3010B5012B21D0022380F83D3097
:10692000036809685A689C6822F070020A435A603A
:106930000B4A93420AD0B3F1804F07D0A2F59432AC
:10694000934203D002F58062934202D124F0800486
:106950009C60012380F83D30002380F83C3010BD5E
:10696000002C014070B5826A044686B0002A3BD1F3
:10697000654B0168C262994280F8242003F56C439C
:1069800040F0878099694FF4807541F400719961F6
:106990009B695E4903F400730293029B5C4B4FF4C6
:1069A000806CC3E900128021C3E903152021C3E9EB
:1069B00005C14FF4805157481A649A60D9618168C3
:1069C000D86321F47F5121F0300141F4AD51816051
:1069D0009A631D8423625C620F211220FFF718FE68
:1069E0004FF480224C4B1A602046FDF7C9FCA36A85
:1069F00013F0100340F08480002840F08180A26AE8
:106A0000616822F4885222F0020242F00202E06938
:106A1000A568A262E2680143B5F5807F41EA4201C0
:106A200057D06E1E7042704100026669012E07D178
:106A3000002A50D1A269013A40EA423242F4006091
:106A40002268B5F5807F566826F4694640EA06005C
:106A500050609668314800EA060040EA0100906004
:106A600001D0012D02D12369013B1B05D06A20F41E
:106A700070000343D3629268294B1340994233D18B
:106A80000023E362A36A23F0030343F00103A3623C
:106A900034E09A69032542F480629A619B6902A9F5
:106AA00003F480630193019B01231E48CDE9023565
:106AB000FDF726FD8023A0F58060CDE90235FDF7C6
:106AC0001FFD022300F58060CDE90235FDF718FDBA
:106AD00082E72846A9E7A26A42F02002A262E26A9F
:106AE00042F00102E262ABE7A36A23F0120343F033
:106AF0001003A362E36A43F00103E36206B070BDD2
:106B0000A36A43F01003C2E70024014008000240DA
:106B1000341400200000024000E100E0FDF7E1FF36
:106B2000FE0E1FFF000C0140F0B56D4C6D4E94F849
:106B30003D3087B003F0FF05002B5ED1C022122349
:106B40000127CDE902230323674802A9CDE9047395
:106B500084F83C50FDF7D4FCF369644A43F4001315
:106B6000F361F3694FF0800E03F400130193019B6E
:106B70005F4B4FF48070C3E9002518225D49C3E9DB
:106B800003E5C3E90555C3E90F129D60DD61D1F846
:106B90008020DFF864C102EA0C0242EA0E02C1F86A
:106BA00080209D631884554AA3635C62544B1A602D
:106BB0001022C3E901254FF48052DA611422C3E99F
:106BC00003E5C3E90555C3E90F12CA6E02EA0C02D8
:106BD00042F4845242F01002CA669D6318840F2169
:106BE0001F205C626363FFF713FD4FF00043454DC8
:106BF00020202B60FFF70CFD6F602423216884F8B0
:106C00003D300B68404A23F001030B6073686068F5
:106C1000C3F30223D25C3D4B1B68D3403C4A9042F5
:106C200094BF3C4A3C4A93428CBF002201220AB1E5
:106C300007B0F0BD364D394AA842B3FBF2F288BF27
:106C40004FF496764A6082BF72434FF47A76B2FB75
:106C5000F6F2A84202F101020A6203F1FF3323D8DF
:106C60004000B3FBF0F340F6FC720133134233D023
:106C7000C3F30B03CB61D4E9073213430B60D4E9B0
:106C8000032313438B60D4E905321343CB600B68B5
:106C9000202243F001030B600023236484F83D208D
:106CA000236384F83E30C3E7A26852B900EB40008A
:106CB000B3FBF0F30133C3F30B037BB143F40043A5
:106CC000D8E719224243B3FBF2F30133C3F30B03BA
:106CD00023B143F44043CDE70423CBE70123C9E7C5
:106CE0000415002000100240000C0140800002400A
:106CF00078140020000002400FC0FFFF6C0002402B
:106D0000BC14002000E100E0A4B700084C00002003
:106D1000A08601007F841E00FF083D0040420F0056
:106D2000F0B5294D11202A6885B01368402623F05C
:106D3000010313600123CDE9010302238027234CC3
:106D40006946204603930096FDF7DAFB266100971B
:106D5000FDF7D6FB65234FF480022761A168090681
:106D600027D5122201234027CDE9012380260223C3
:106D70006946164803930097FDF7C2FB0096FDF79E
:106D8000BFFB276126612A68136843F40043136040
:106D900000BF2A68136823F40043136000BF2A6809
:106DA000136843F00103136005B0BDE8F040FFF73E
:106DB000BBBE226100BF00BF00BF00BF013B266118
:106DC000CCD105B0F0BD00BF04150020000C01407F
:106DD000054B1A69120605D5044A5A6002F1883239
:106DE0005A601B69704700BF0020024023016745BD
:106DF0002DE9F843FEF758FF35232D4D2D4CEB6060
:106E00000120FFF7E5FFFDF72DFDFEF74DFF237E87
:106E1000012B07D001232376FFF726FC074668B332
:106E200000232376FFF7D4FF0025234F204EDFF801
:106E30008C80FEF739FF237E012B15D0012337F814
:106E400015902376FFF710FC60B9E061336943F0D9
:106E50000103336128F81590FFF706FC336923F02E
:106E600001033361002323760135282DE1D1104A37
:106E7000136943F080031361BDE8F8830F4E06F5F4
:106E800080684645CCD2E7612B6943F002032B6151
:106E90006E612B6943F040032B61FFF7E5FB2B6923
:106EA00023F002032B610028BAD106F58066E8E7DB
:106EB0000020024048160020F816002000FC0008C0
:106EC0000023F7B5019390F82430012B00F0868061
:106ED00001231F2680F824300F694D680368EA1BE0
:106EE00002EB82020F32964046F44016F643BD4252
:106EF0000C689BBFD3F838C004FA02F29A6B07F112
:106F0000FF379DBF42EA07520CEA06063243324081
:106F10009A639A68D60707D49A68CE6922F4E04249
:106F200022F0010232439A608E69012E0CD1CA69A7
:106F3000B2F5E04F0BBF5A68826A42F4806242F0B9
:106F400020020CBF5A6082624A69012A05D1002ED4
:106F500046D15A6842F480525A60092C4FF0070615
:106F6000D1F808C004EB44023FD9DF681E3A9640CE
:106F700027EA06060CFA02F23243DA60A4F11006A0
:106F8000012E98BF9A68C9689CBF42F400029A60BB
:106F9000022D264F33D0032D36D0012D39D15A6919
:106FA0003A400A435A61012E15D8214A934238D1FA
:106FB0009A6812020FD49A68102C42F400029A6068
:106FC00009D11C4B1C4A1B68B3FBF2F30A22534342
:106FD0000193019B13BB002380F8243003B0F0BD64
:106FE000826A42F020028262B7E71F69964027EA70
:106FF00006060CFA02FC46EA0C061E61BEE79A6918
:107000003A400A439A61CEE7DA693A400A43DA61C4
:10701000C9E71A6A3A400A431A62C4E7019B013B76
:10702000D6E7836A43F020038362D4E700F0FFFFD2
:10703000002401404C00002040420F0010B590F8A1
:1070400024300446012B3DD0012380F82430FDF785
:1070500061F900283FD1A36A214A23F4405323F069
:10706000010343F48053A3622368934205D1A2F540
:107070008062526812F4702F25D1A26A22F4801225
:10708000A262A26A12F4807208BFE262002284F84F
:1070900024206FF004021A605A68520512D49A68CC
:1070A00002F4E042B2F5E04F11D10D4A934205D10E
:1070B000A2F58062526812F4702F08D19A6842F4E7
:1070C00002129A6010BDA26A42F48012D8E79A6850
:1070D00042F40042F5E7002384F82430F2E700BFD1
:1070E0000028014010B590F83D30044603F0FF023F
:1070F0000BB980F83C200223206884F83D30211D24
:10710000FDF7D0F8012384F8463084F83E3084F847
:107110003F3084F8403084F8413084F8423084F8BD
:10712000433084F8443084F8453084F83D3010BD55
:1071300090F83D30012B1ED1022380F83D300368CA
:10714000DA6842F00102DA600B4A93420AD0B3F1E6
:10715000804F07D0A2F59432934203D002F58062AB
:10716000934204D19A6802F00702062A03D01A68F3
:1071700042F001021A607047002C014013B5002153
:107180001920FFF745FA4FF00072194B194C1A609D
:10719000194B20469A6942F400629A619A6902F496
:1071A00000620192019A5A685A685A685A68134AEA
:1071B00012685B68124AC3F3C223D25C114B21618F
:1071C0001B68A160D340104AB3FBF2F30F4A013BA6
:1071D000226040F2E7326360E260FFF7D1F928B93C
:1071E000204602B0BDE81040FFF7A2BF02B010BDBC
:1071F00000E100E064150020001002400020024081
:10720000A4B700084C00002040420F00002C0140B1
:1072100070B5124B0A26DA8D114B92B29C6802218E
:10722000002CB8BF0334C4F38F04A400B4FBF2F401
:10723000A4B2B4FBF6F5012300222846FEF75BF961
:1072400000210848FDF7CAFF012306FB1540BDE8F1
:1072500070400022194680B2FEF74DB9F8160020A2
:10726000A4120020AFB6000810B415494B899BB298
:1072700023B34B89CC8D9AB2124BA4B29868931C5D
:107280000028B8BF0330C0F38F008000B0FBF4F0DB
:10729000DBB280B2B0FBF3F08B899BB2834288BF34
:1072A00088898B8988BF80B29BB2C01A092828BF01
:1072B00009200430C0B210BCFEF744BB0F20FAE72F
:1072C000F8160020A412002008B547F6C070FEF79B
:1072D00049FC64220A4B9B68002BB8BF0333C3F3FD
:1072E000CE03A3F59B53053B534340F2E23293FB9D
:1072F000F2F30A229BB2B3FBF2F3013B184408BD40
:10730000901200202DE988480020FEF763FD00233D
:1073100020246A4A6A4D13606A4B1A686A4B1A60E5
:107320000520FFF74DF80120FEF7A0FDE88D0121B3
:1073300080B2FEF7FDFC013CF2D1644E4FF4FA60DE
:10734000FFF73EF8002800F0B1800120FEF78EFD27
:107350005A4B83461C685E4FDFF878A1DFF87891BE
:10736000DFF87881002C00F09A80B4F5E17F28BF27
:107370004FF4E174FFF7A8FFA04202D2FFF7A4FF89
:107380000446A4EB0B040A2C1FFA8BFB05DD39889D
:10739000ABEB010109B20A2906DDDAF80020A7F8F3
:1073A00000B0C9F800200BE0DAF80020D9F800306E
:1073B000D31A44F62062934202D9012388F80030A0
:1073C0004FF47A7B4649DAF800300A6800209B1AAD
:1073D000BBFBF3FBDAF800300B60FEF7CBFCAB8EA7
:1073E0009BB243B10A22AB8E9BB253439842C2BFB9
:1073F000A88E80B250434123B3FBFBF33268C3F144
:1074000064035343642293FBF2F38222544394FBBC
:10741000FBF4234483423CDD306030682B8D9BB20B
:107420000BB340F6C4116B8D2E4C9BB24B43DAF874
:1074300000202168521A934209D2FA21AA8DDAF863
:10744000003092B2236001FB0233274A13602B8D78
:107450009BB2984207DA244ADAF8003012689A425E
:1074600084BF288D80B247F6DF72204B9B68002BCB
:10747000B8BF0333C3F38F03934288BF002098F84B
:107480000030002B18BF0020FEF7A4FCFEF70CFC18
:1074900054E740428342ACBF33603060BDE7DAF866
:1074A00000203880C9F800202046B7E71423104A8E
:1074B0001380104B1870104B18703FE77C1300209E
:1074C000F8160020701600206C160020C012002054
:1074D000B812002044320020BC1200200015002009
:1074E000C4120020CC120020C81200207812002004
:1074F000701000207D1000206816002010B5FFF7E6
:10750000E3FE04460020FEF7B1FC053CA4B2844231
:107510002CBF0020012010BD38B5124D0446688CE8
:1075200080B2C0B10020FEF7A1FC052300EBC00033
:10753000B0FBF3F303F12000012303211A4680B2CC
:10754000FDF7D9FF64B16B8C9BB23BB10020BDE865
:107550003840FEF7F7B9FEF789FCEDE70120F6E7C2
:1075600038BD00BFF81600202DE9F04F9A469C4C1C
:107570009C4B87B01E6894F83D308046202B89468E
:107580009346109F04D00225284607B0BDE8F08F2F
:107590003346192201219448FEF7CAFF0028F2D190
:1075A00094F83C308B42EED0256884F83C102B6870
:1075B0003A46D80758BF2B684FF001105CBF0B4309
:1075C0002B602B68002123F400632B60222384F8B6
:1075D0003D30402384F83E30844B2164A4F82AA037
:1075E000E362638DC4F824B023852B6843F4806381
:1075F0002B602B6843F480732B603346FEF798FFB3
:1076000000BB226808F0FE033146384613615FFA7A
:1076100088F5FEF75DFF08B1236C13E02368059041
:107620005A69314605929B6938460593059BFEF7DA
:10763000F1FE80B1236C042B04D12268136843F45B
:1076400000731360236C042B4FF0000384F83C306C
:1076500078D1012598E7236831463846C3F8109061
:10766000FEF7D8FE01460028E4D122684FF0011051
:10767000136843F48073136033463A46FEF758FFAD
:107680000028DFD1236845F001051D6131463846E9
:10769000FEF71EFF05460028BED1228D23689AB151
:1076A000012A27D11A6822F480621A6072B6236810
:1076B00003905A6903929A690392039A1A6842F4F2
:1076C00000721A6062B609E004905A6904929A69DD
:1076D0000492049A1A6842F400721A60DFF810816A
:1076E000238D1BBB202284F83C3084F83D2084F895
:1076F0003E3049E7022A1A680ED142F400621A604D
:1077000072B6236802905A6902929A690292029AAA
:107710001A6822F48062D4E742F480621A60019011
:107720005A6901929B690193019BD7E7032B61D8AA
:10773000012B09D131463846FEF79CFE10B3236C6D
:10774000202B86D103251FE7022B3A4633464FF004
:107750000001404624D1FEF7EBFE0028F2D172B6BC
:1077600023681A6842F400721A601A69636A591C25
:1077700061621A70238D013B2385638D013B9BB2AF
:10778000638562B623681A69636A591C61621A705C
:10779000238D013B2385638D013B9BB263859FE76E
:1077A000FEF7C6FE0028CDD12268136823F480635B
:1077B000136072B623681A69636A581C60621A7093
:1077C000238D3A46013B2385638D4046013B9BB2A6
:1077D00063853346FEF7ACFE0028C1D0B2E700BF98
:1077E000041500207C2D0020020010000000FFFF87
:1077F0000400010031463846FEF73CFE00289ED1C9
:1078000023681A69636A591C61621A70238D013BEF
:107810002385638D013B9BB2638523685A695207B8
:107820007FF55EAFAFE700BF90F83C30F0B5012BBD
:1078300032D003680E681A6A22F001021A621A6ACC
:107840005D689C6922F0020224F0730434438E6860
:107850003243124EB3420BD1CE6822F008023243BB
:1078600025F44075D1E905673E4322F00402354313
:107870005D609C614C6809695C631A629A6942F0B8
:1078800008029A619A6922F004029A619A690A438D
:107890009A61002380F83C30F0BD00BF002C01400D
:1078A0002DE9F843044640B94FF0500383F31188A3
:1078B000BFF36F8FBFF34F8FFEE7016C41B14FF005
:1078C000500383F31188BFF36F8FBFF34F8FFEE731
:1078D000FDF7DEF9FCF7CCFCA26BE36B9A4276D2A3
:1078E000226CA76B002A67D12368B3B1002101374E
:1078F000A763626A002A68D004F12400FCF7F8FF4D
:10790000002864D04FF0E0234FF08052C3F8042DDC
:10791000BFF34F8FBFF36F8F59E0A5681DB90021EA
:107920000022A260E3E72C4B1B689D4208D04FF079
:10793000500383F31188BFF36F8FBFF34F8FFEE7C0
:10794000AB6D43B94FF0500383F31188BFF36F8FD2
:10795000BFF34F8FFEE7D5F82C906E6D013BB1451C
:10796000AB65DCD0002BDAD105F104084046FCF70A
:10797000A6FFDFF868C01A4B60B9142202FB09F2B7
:107980005CF8022032B901211A6801FA09F122EAF1
:1079900001021A60C6F10602AA61EE6201251420F6
:1079A000196805FA06F20A4300FB06C041461A6050
:1079B000FCF762FF2946B3E763681344A26863607B
:1079C000934293D32368636091E700299AD1BDE87D
:1079D000F843FCF73FBC00BF701600207C16002067
:1079E0008C2D0020014B1868FFF75ABF2C12002085
:1079F0002DE9F34105460E4617469846FEF73CFB37
:107A0000044670B14FF4FA733A4600933146434648
:107A10002846FFF7A9FD40B1FFF782F90024FFF7E0
:107A2000E1FF204602B0BDE8F081FFF7DBFFF8E799
:107A30002DE9F04385B0814688468DF80720FEF792
:107A40001BFB0646002851D06A4F6B4C3D6894F8EA
:107A50003D30202B45D12B46192201216748FEF7E6
:107A600067FD00283DD194F83C308B4239D0236823
:107A700084F83C101A684FF00110D2075EBF1A68F4
:107A80000A431A601A68002122F400621A60212356
:107A900084F83D30402384F83E300DF107036362E3
:107AA000012321646385A3F10113E362638D2268DE
:107AB0002385136843F4807313602B464FF4FA72E6
:107AC000FEF736FD48B9236829464FF4FA70C3F82B
:107AD0001090FEF7FDFC68B1236C236C002384F842
:107AE0003C30FFF71DF90026FFF77CFF304605B05C
:107AF000BDE8F083236803905A69294603929B6985
:107B00004FF4FA700393039BFEF784FC40B1236C9F
:107B1000042BE2D12268136843F400731360DCE79E
:107B20002368C3F81080238D9BB92268536913F032
:107B300004033FD0136843F400731360202384F8D8
:107B40003D30002384F83E3084F83C30FFF74AFF94
:107B5000CCE729464FF4FA70FEF75CFC40B1236C89
:107B6000042BBED12268136843F400731360B8E796
:107B7000616AD4F800C04B1C63620B78CCF81030FB
:107B8000638D228D013B501E9BB280B220856385A0
:107B9000DCF814305B07C6D50028C4D08B1C6362A8
:107BA0004B78023ACCF81030638D2285013B9BB2B2
:107BB0006385B8E7516911F480610FD06FF480617B
:107BC0005161042121642363202384F83D30002384
:107BD00084F83C30236C042B83D1C4E73B685B1BE7
:107BE000B3F5FA7FA2D9236C43F020032364216309
:107BF000EAE700BF7C2D00200415002002001000E1
:107C000013B50021134B0846009318221023FDF7EB
:107C100045FA5222104B114C1A800022B4F846004B
:107C20000F4B80B2801A18BF01201A80FDF78DFE1D
:107C3000B4F8463080219BB2002B14BFA722A622A5
:107C40007820084B83F8402002B0BDE81040FFF7D1
:107C5000EFBE00BFB1BE000826120020F8160020BB
:107C600028120020000000202DE9F0418046174630
:107C70000C460026404662782178FFF7D9FE05467B
:107C800040B1A07808B1FCF7EDFD0136B74204F130
:107C90000304EFDC2846BDE8F081000013B5144B67
:107CA00000210093102308461A46FDF7F7F94622F3
:107CB000104B114C1A800022104BB4F848001A8067
:107CC0000B2380B2B0FBF3F0012301301A460221EE
:107CD00080B2FDF710FC02227820B4F84830084941
:107CE00081F82E302A3102B0BDE81040FFF7BCBF4A
:107CF000C4BB000826120020F8160020281200201D
:107D00000000002070B50F4E04463378834218D02F
:107D1000002815BFC825C025A123A0230A49192280
:107D20000B7778200D74FFF79FFF084B84F001025A
:107D30005201002C5A710CBF7F225F223470DA711D
:107D40005D7270BD64110020000000207F100020D3
:107D500010B50620FDF7FEF8054B04461B8A98B2C5
:107D600018B1012801D0204610BDFFF7CBFFFAE77C
:107D7000F816002030B585B00546FEF77DF90446BB
:107D800068B14FF47A730F2100932846012303AAA8
:107D9000FFF7EAFBB0FA80F46409FFF723FE204600
:107DA00005B030BD2DE98048142093B0FEF7F2F8FD
:107DB0000023BB4C3A202360FFF7DCFF38B10D22D3
:107DC0003A20B849FFF750FF002840F038813220B0
:107DD000FFF7D0FFA8B100230F218DF838303220F3
:107DE00001230EAAFFF704FE58B19DF83830332B5B
:107DF00007D10C223220AC49FFF736FF002840F0B3
:107E000021813020FFF7B6FFA0B1002101233020EF
:107E10000EAA8DF83810FFF7EBFD58B19DF83830F9
:107E2000F82B07D108223020A049FFF71DFF0028BA
:107E300040F00B813020FFF79DFF002800F0E1802B
:107E4000002501230F2130200EAA8DF83850FFF7AE
:107E5000CFFD002800F0D5809DF83830112B40F080
:107E6000D0800C223020924B92491D70FFF7FCFE0F
:107E7000002840F0ED804C20FFF77CFF38B1052250
:107E80004C208D49FFF7F0FE002840F0E4800021EF
:107E90000720FCF7F3FF4FF001083220C4F8008000
:107EA000FEF778F80022854B1A60854B1B8B9BB23E
:107EB0001BB14FF4FA60FEF76DF800241022002188
:107EC0000EA803F079FB102200210AA803F074FB2E
:107ED0001022002106A803F06FFB27462646032543
:107EE000A146A246C82240F6E441754BB8F1020F04
:107EF0005B8A9BB202FB1313039340F0AF8006230F
:107F0000012104AA3A20FFF773FD012310213A2032
:107F100004AABDF81040BDF81270BDF81460FFF758
:107F200067FD9DF910309DF81050002BE4BAFFBAA0
:107F3000F6BA80F24B81C5F34105614B1B8A9BB2B7
:107F4000022B06D1032D04D0B5FA85F04009FFF7C6
:107F5000D9FE5C4912AB03EB490323F8104C23F81C
:107F6000207C23F8306C0B7809F1010933B95FFAF2
:107F700089F3082B40F02E8101230B7000200EABFB
:107F80009C460AAB029306AB9B460246014609F0AB
:107F9000070901903CF902EB019B01307344019306
:107FA000029BC0B233F902EB082871443BF902EBA3
:107FB00002937244EED1019B6420002BB8BF0733BB
:107FC000C4EBE303002BB8BF5B420029B8BF073105
:107FD000C7EBE1010029B8BF4942002AB8BF073208
:107FE000C6EBE202002AB8BF52420B441344039A84
:107FF0009A42BFBF344B1A68304B1A60FDF7CAFF74
:1080000070E73220FFF7B6FE00283FF434AF0023BC
:108010000F218DF83830322001230EAAFFF7E8FC3B
:1080200000283FF428AF9DF83830112B7FF423AFA0
:1080300001221F4B32201A7024490C2216E74FF000
:1080400002082AE74FF0030827E74FF0040824E767
:108050004FF0060821E74FF005081EE7A8F10303DB
:10806000032B3FF66AAFDFE803F002335E8206239C
:10807000A82104AA3220FFF7BBFC0123B52132203E
:1080800004AABDF91040BDF91270BDF91460FFF7E4
:10809000AFFC9DF81050AD08013DEDB24DE700BFBB
:1080A0009C0000204FB900081CB9000804B9000862
:1080B0002A12002076B9000840B9000840160020B6
:1080C000F8160020D2120020443200208DBE000895
:1080D000464B022118689B880490ADF8143030207C
:1080E000062304AAFFF784FC0446C8B19DF811409A
:1080F0009DF813709DF81560A401BF01B60101231E
:1081000004AA0C213020FFF773FC9DF810301A09E7
:108110009B065BD412F0030F0CBF012500250CE772
:1081200007460646EBE70623022104AA4C20FFF788
:108130005FFC01230C214C2004AABDF91040BDF9BD
:108140001270BDF914608DF810A0FFF751FC9DF876
:108150001030A410602B4FEAA7074FEAA60604D000
:10816000702B14BF03250025E7E60125E5E6204B2B
:1081700004AA1D780623002D0BBF2821A82130203A
:108180003220CDF810A0ADF814A0FFF731FC044662
:10819000C8B1BDF91040BDF91270BDF91460002DD1
:1081A00014BF322030200123352104AAFFF720FC20
:1081B0009DF81050AD08022D0AD005F03B05012DA9
:1081C00018BF0325B9E607460646E8E70325B4E6E7
:1081D0000025B2E612AA02EB4302013322F8104C4A
:1081E00022F8207C22F8306CDBB2C2E630B6000800
:1081F0002A12002073B506460D46FDF73DFF002804
:108200004DD000230193274B93F83D20202A13D112
:1082100046F2A811244A1268B2FBF1F219214A432E
:1082200001921A68019C611E019164B920221C63AD
:1082300083F83C4083F83D20FEF772FD02B0BDE8B4
:108240007040FFF7CFBB91698807EBD493F83C10DF
:108250000129F1D011680020C9075EBF116841F003
:1082600001011160116821F400611160212183F87E
:108270003D10102183F83E100C4918645D85D962C9
:10828000598D5E62198578215964116841F48071B5
:10829000116083F83C00536843F4E063536002B01C
:1082A00070BD00BF041500204C0000200000FFFF3F
:1082B000D1210148FFF79EBF7F100020024BC02252
:1082C0000021186803F078B95C11002038B5054624
:1082D0000C46FFF7F3FF2846FCF79AFFFFF7E8FF8D
:1082E0002046BDE83840FDF789BE00002DE9F04189
:1082F0002B4B2C4DE98D1B6889B2B3F5FA6F4AD927
:108300006B89AA899BB292B2002B3ED002335A43AA
:10831000D2B2254B00249B68002BB8BF0333C3F3B4
:108320008F039B00B3FBF1F39BB29A4235D91F4BED
:10833000DFF87C801C60FFF7C1FF1E4A2B8C1E4FAC
:1083400016681E4A9BB21568A8F800403C80F3B13D
:10835000F08821462844FCF741FF08233089214654
:1083600028443B80A8F80040FCF738FFFEF750FF98
:1083700021461348FCF732FFFFF79AFFFDF728FE6E
:10838000FDF729FE0120BDE8F0815A22C1E7B0883F
:1083900001212844EEE70020F5E72046F3E700BF7F
:1083A00044320020F8160020A41200207C13002084
:1083B00026120020741000202812002078100020BF
:1083C000B7B600082DE9F84F0024724B724E2746CD
:1083D000D6F800901C60FDF757FBB0EB040818BFFF
:1083E0004FF00108A2466D4BA3F800A06C4BA3F818
:1083F00000A0FFF763FFFDF747FB002800F0B38004
:10840000D6F80090B8F1000F02D00024002332E02B
:1084100001380F28FAD801A353F820F0618500082D
:10842000438500080D8400084D8500080D84000870
:108430000D8400080D8400085D8400080D84000888
:108440000D8400080D8400080D8400080D840008C8
:108450000D8400080D8400088F8500083268E31B36
:108460001344B3F5967FD1D94E4B1B8F5B42213419
:1084700037681BB2E4B24B4DC4F59672632AEA8E9C
:1084800098BFC82492B20AB15B421BB2DBB1A98883
:1084900083EAE372A2EBE372194409B213B291FBCF
:1084A000F3F151436B8C09B29BB2002B5ED03C2997
:1084B00040F25233B8BF3C219942A8BF1946002070
:1084C00089B2FCF7DBFC3368A3EB0903B3F5FA6F61
:1084D0005DD8354B012193F800B0EB8E9BB2BBF118
:1084E000000F4CD03148324A002B08BF1046FCF731
:1084F00075FE01212F48FCF771FE0123A8881A465A
:10850000032180B2FCF7F7FF6B8C9BB2002B39D0B4
:108510000020FDF717FA01212648FCF75FFEEB8EDD
:1085200001219BB2BBF1000F2ED021481F4A002B26
:1085300008BF1046FCF752FEFFF7BAFEFDF748FDF4
:1085400051E7184B5B8F5B421BB294E73268E31B29
:108550001344B3F5967F7FF659AF124B1B8F86E716
:10856000104B5B8FF0E7044680464FE70A29B8BFFF
:108570000A21B1F5E17FA8BF4FF4E1719FE70C48F4
:108580000A4AB1E70120C4E70848094ACFE7BDE835
:10859000F88F00BF7C1300204432002026120020F8
:1085A00028120020F816002064110020B9B6000837
:1085B000BBB6000844B700082DE9F74F07465C4DED
:1085C000DFF870910191FFF791FE00287FD16B8C4D
:1085D0009BB2002B7FD087B9EB88A8889BB280B272
:1085E000984228BF18461F2881BF092300EB80004E
:1085F000A038B0FBF3F098BF3846C9F80000688C8B
:1086000080B2002872D00020FDF730FC052300EB7B
:10861000C000B0FBF3F42034A4B20026FFF74EFEF6
:108620004549B5F82080454A454BD1F800B0454949
:108630001FFA88F8D1F800A016801E80B8F1000F4C
:108640005AD0BBF80C0031465044FCF7C7FD3B4AFA
:10865000BBF80E0016800822394B314650441A8070
:10866000FCF7BCFD0321012332462046FCF743FF03
:10867000698C89B200293DD031463348FCF7AEFD04
:1086800000213248FCF7AAFDFEF7C2FD0021304868
:10869000FCF7A4FDFFF70CFEFDF79AFC0198FCF730
:1086A0007FFBA8B16B8B9BB2002B3AD0294B19688A
:1086B000002936D0284B1A686B8B521A4EF660216F
:1086C0009BB24B439A422CD90023C9F800300120B9
:1086D00003B0BDE8F08F37B9EA88AB8892B29BB29D
:1086E000934228BF1346C9F8003088E7FDF7BEFB68
:1086F00084B292E71948C1E7BBF80A00012150444F
:10870000FCF76CFD012303211A462046FCF7F3FE1B
:108710006B8C9BB21BB14046FDF714F9BAE7012000
:10872000FAE7FDF7B1F908287FF44DAFCCE700BFB9
:10873000F81600207C130020741000202612002060
:108740002812002078100020A8B6000844B70008BE
:10875000B7B600084016002044320020ADB600082D
:108760002DE9F74F38BB00231D46AF4CDFF8BCA204
:108770000093FDF789F9009B002B00F0D080E38C7B
:108780009BB2002B00F0CB80102823D8102824D8CF
:10879000DFE810F0F0001F011F0123001301230088
:1087A000230023001F0123002300230023002300B4
:1087B000230023001F01831E584258410121FFF767
:1087C000FBFE0128CFD19A4B1A689A4B1A6003B06E
:1087D000BDE8F08F202800F0E380FFF76FFD238CC9
:1087E000954A9BB292F800B0944F954EDFF85492A0
:1087F000002B00F03D81BBF1000F14BF32234FF07E
:10880000FF334FF0000801203B80A6F80080FEF700
:1088100083FE638A9BB24BB323899BB233B3C345B8
:1088200014BF20232F23A6F800803B80FCF7A0FA7A
:108830007F4A804B844912681B680968801A9942F4
:108840002CBF4018C018814B984240F2DF804EF692
:108850006023B0FBF3F00130022180B201234246D5
:10886000FCF749FE41467A48FCF7B8FC5DB1BBF124
:10887000000F14BF262337233B80082300217548AF
:108880003380FCF7ABFC4FF00A08D9F80000BBF1CD
:10889000000F0CBF432300234FF0000BB0FBF8F098
:1088A0005A46022101933B8080B20123A6F800B012
:1088B000FCF721FE59466848FCF790FCD9F8000007
:1088C0005A46B0FBF8F308FB1300012380B21946A7
:1088D000FCF711FE59466148FCF780FC019B3B8088
:1088E00008233380FEF794FC59465D48FCF776FC7C
:1088F000FFF7DEFC638C5B4E9BB2002D00F0148111
:10890000002B00F00E81238E9BB21F2B40F2E980DA
:10891000092203EB8303A03BB3FBF2F3E2E0102850
:108920002AD810283FF659AF01A353F820F000BF12
:1089300075890008F5890008F5890008DB870008BB
:10894000E9890008DB870008DB870008DB8700086F
:10895000CF870008DB870008DB870008DB8700087B
:10896000DB870008DB870008DB870008DB8700085F
:10897000CF870008002530E720287FF42EAFE38C56
:108980009BB2002B3FF429AF374BDAF800001B688D
:108990004FF47A711B8B1844FFF798FC01230AE00F
:1089A000314BDAF800001B684FF47A715B8B184486
:1089B000FFF78CFC002300930FE7238E9BB2002B64
:1089C0003FF40BAFE38C009A9BB2012B08BF154616
:1089D00003E7254BDAF800001B684FF4FA719B8B14
:1089E0001844FFF773FCF8E6238E9BB2002B18BFE8
:1089F0000125F2E6A688FFF7E5FCA388B6B29BB294
:108A0000B3423FF4EAAEFEF7F3F9E6E64FF47A73C9
:108A1000B0FBF3F00130022180B201234246FCF7A3
:108A20006AFD414611481FE7F81600207810002023
:108A3000443200203C160020641100202612002041
:108A400028120020902D002040160020B88201003E
:108A5000B1B60008B9B60008AFB60008B5B6000850
:108A6000B7B600087C13002074100020B3B60008CD
:108A70003B803380BBF1000F19D0FEF7F5FB324885
:108A80000121FCF7ABFB0120FEF746FD55B10220AA
:108A9000FCF758FF0021D9F80000FDF781F9FCF739
:108AA000B3FF25E701212848FCF798FBF2E7594678
:108AB000D9F80000FDF774F9FCF7A6FF65B10220B4
:108AC000FCF740FF0120FEF727FD01211E48FCF7BF
:108AD00085FBFEF7C9FB0BE701211B48FCF77EFB7A
:108AE000F0E700233360FFF701FC074600287FF41E
:108AF0006AAEFCF755F9E0B9144F00203368FDF772
:108B0000B5F93B78E3B10024114B124A1B68106899
:108B1000DB8B42F2107118443460FFF7D7FB3C70D6
:108B200055E6238E9BB2DDE70BB1A388ECE6A38864
:108B3000F8E739463846FFF73FFD0028DCD046E627
:108B4000FDF746FA15E600BF44B7000800150020FF
:108B500074100020781000202DE9F047FFF7AEFBDD
:108B60004FF00007394E3A4B3A4D9C68EA8D002C85
:108B7000B8BF0334C4F38F0492B2A400B4FBF2F480
:108B80004FF00A0AA4B20123B4FBFAF9DFF8C88057
:108B90001A46022148463780A8F80070FCF7ABFC63
:108BA00001212E48FCF71AFB01220AFB194011464D
:108BB000002380B2FCF79FFC01212948FCF70EFB43
:108BC000FCF762FF082809D818B30138072820D815
:108BD000DFE800F01C251F061F1F1F06102818D1F4
:108BE000FEF706F901230024E88D1A46032180B21E
:108BF0003480A8F80040FCF77EFCFFF759FB4FF4E7
:108C00007A70FDF7FBF92046BDE8F0871520FCF7E8
:108C1000A1F9FFF74DFB2820FDF7BCF9A3E7EB8D89
:108C20009BB2B3F5B47F04D14FF46173EB85EB8D48
:108C3000EFE7EB8D9BB2B3F5B57F29BFEB8D4FF41A
:108C4000B47303F1FF339BB2F0E700BF261200209C
:108C5000A4120020F816002028120020AFB6000849
:108C6000B7B60008F8B5036805460E46002B39D1A3
:108C700002600120334601211F784C1EA4B2002F50
:108C800032D104EB4404A400A4B2602C37D92B6881
:108C9000D21A1F4B9B8C9BB2012B0CBF0A231423AF
:108CA000B2FBF3F204F1600312B292FBF3F103FBA7
:108CB00011225F2A29DDA24225DC14B2B5F9043065
:108CC000A3420ED0FFF7FAFA124BC4F160021A80E9
:108CD0000022114B304601211A80FCF77FFA012057
:108CE000AC80F8BD0020C5E7F02F03D80133013177
:108CF00089B2C1E75F78002FC3D00233F7E7C4F130
:108D0000600304EB630424B2D8E76024D6E700BF15
:108D1000F81600202612002028120020002373B528
:108D200000934FF6FF7304460C4EADF80430214615
:108D300068463268FFF796FF0546FCF7A5FE38B98E
:108D4000002DF4D0FFF7B4FA2820FDF723F9EEE761
:108D5000431E5842584102B070BD00BF443200204B
:108D60002DE9F047294B2A4A1B6810681B881844D4
:108D7000FFF7D4FF002840D0264E274F0025A946F4
:108D8000FDF75EF80024DFF894808144FFF796FA3F
:108D9000012138463480A8F80040FCF71FFAC5F3DB
:108DA000850AE3B29A452BD8FFF782FA0135642091
:108DB000FDF7F0F8102DE3D10121C9F30F10FCF7F6
:108DC000B3FE84B2002CD9D021461720FCF756F808
:108DD000FFF774FA002328463380A8F80030FCF728
:108DE000B1FD012320461A460421FCF784FBFFF75E
:108DF0005FFA4FF49660FDF7CDF80020BDE8F087EC
:108E000001213846FCF7EAF90134CAE77410002062
:108E10007810002026120020AFB60008281200208B
:108E2000F8B545F2AA54234B1A8892B2A2423AD01E
:108E300018465022FF2102F0BFFB048003460124A4
:108E4000DA6C01321CBF4FF0FF32DA645A8818BF67
:108E5000012492B2232A08D84FF6FF715A8892B2A1
:108E6000232A22DD242201245A800022124903EB06
:108E70004206B5880F88ADB2AF424FEA420004D82F
:108E8000B5884E88ADB2AE4203D2CC8818448480F7
:108E900001240132242A01F10801E8D10CB1FDF7C7
:108EA000A7FF2046F8BD0024CAE703EB42008180FB
:108EB0000132D5E7F8160020E2BE000838B50D4BA8
:108EC0001D680D4B68881C682044FFF727FF70B1B0
:108ED000FF215022094802F06FFBFFF7A1FFFDF7C9
:108EE00087FF688A42F210712044FFF7EFF90020F3
:108EF00038BD00BF7410002078100020F816002044
:108F00002DE9F047314B1A78FF2A0DD141F2785103
:108F10002F4AB2F8422092B28A4203D04AF2D711C5
:108F20008A424BD000221A701A78012A44D80C21A8
:108F3000284B294C01FB02335A7A5868D2093FD09A
:108F40001A892146C2F30E02FBF7D2FE25182046ED
:108F5000224B234F1860234BE03018603022002151
:108F6000214802F029FB4FF00008BA464FF00C09E7
:108F70001D4E3B887C8833802344738009FB08A303
:108F80009A885B7904EB4404E400DB09B868A4B276
:108F9000C2F30E0206D02946FBF7AAFE034682B2B0
:108FA00028461D44A242706084BF0019B0600C378F
:108FB0000C36B8F1000F05D0BDE8F0870122B2E70A
:108FC0002546C5E74FF00108D3E700BF5000002059
:108FD000F81600201CB800084A1700207410002062
:108FE00004B8000878100020A00000200C2210B562
:108FF000094C1F202378013303F0010323705343EE
:10900000064AD15AFBF73AFFFFF77AFF2078431E52
:109010005842584110BD00BF500000201CB8000845
:109020002DE9F3410646DDE908040F46984640B9AC
:109030004FF0500383F31188BFF36F8FBFF34F8F4F
:10904000FEE744B94FF0500383F31188BFF36F8FED
:10905000BFF34F8FFEE764230193019B642B08D07D
:109060004FF0500383F31188BFF36F8FBFF34F8F1F
:10907000FEE795002A46A5212063019B02F09CFA99
:10908000226B043D2A4422F00702002F00F0968054
:109090007B1E04F134011F3713F8010F01F8010B97
:1090A00008B1BB42F8D1002384F853304346052B66
:1090B00028BF0523E3626365C3F106030021A361B2
:1090C0004FF08073E165A1656161A1622461646212
:1090D00084F8601042F8043C3F4B26F0010642F849
:1090E000086C42F80C3C42F8201C403A2260FBF726
:1090F000BFF83A4A3A4D13683A4E013313602B6871
:10910000002B5ED12C601268012A2ED132464FF01E
:10911000FF3C14201F4602F10801C2E9011CC2E90C
:10912000031100FB03F10133062B775002F1140207
:10913000F1D12D4A02F10803C2E9013CC2E903332F
:109140002A4B176003F10801C3E9011CC3E90311AD
:1091500027491F6001F108000F60C1E9010CC1E956
:10916000030024490A60244A1360244A24491368EE
:109170000868013313600123E26A9340034314201B
:109180000B6000FB0260211DFBF776FBFBF762F82A
:109190001C4B1B6873B12B68DA6AE36A9A4209D2E6
:1091A0004FF0E0234FF08052C3F8042DBFF34F8FF0
:1091B000BFF36F8F204602B0BDE8F08184F83470B1
:1091C00074E7104B1A68E36A002ACED12A68D26A83
:1091D0009A4298BF2C60C8E7D1410008802D00203A
:1091E000701600207C160020942D0020A82D002051
:1091F0002C3200207416002078160020882D0020C4
:109200008C2D00204032002037B50446D0E90010F4
:10921000A569B4F90830226901956469842B0CBFF3
:10922000002303330094FFF7FBFE03B030BD0000C2
:109230002DE9F04F00242F4B85B01A68019002925F
:109240001A6802994FF4FA70A2EB010B642202FB38
:109250000BF1B1FBF0F1C9B22546C1F196044943C7
:109260004C4341F2883194FBF1F46021E4B24C4369
:10927000B4FBF2F4E4B28C4228BF0C460A1B0199FD
:1092800089BB2646DDF80480D7B21B4B0392D3F886
:1092900000A00AEB05010AEB060002F0A3F917494A
:1092A000039AD1F8009009EB050109EB060002F0E2
:1092B00099F9134B2246D9190AEB080002F092F9EA
:1092C000104B2246D91909EB080002F08BF9FEF782
:1092D000EFFF1420FCF75EFEBBF5FA7F054BAFD91C
:1092E00005B0BDE8F08F0026651B3746EDB25FFA8A
:1092F00082F8CAE7443200205C110020601100208F
:1093000065110020C51100202DE9F04F0024012532
:109310009D4B95B01D7009908DF82E408DF82D4015
:10932000FBF796FD4FF6FF732646CDE90C54CDE9C9
:109330000144DFF85892DFF858B20490ADF83830A5
:1093400005940394069514239DF82E506B430793C0
:10935000079A099B03EB020A0893DAF8083013B165
:109360009DF82D3013B115B0BDE8F08F0C9F8DF82E
:109370002F30002F6ED0874ADFF81C82874BC8F849
:10938000002060321A60DAF80C208AB19047834BD3
:1093900070B9029A01350132D2B20292804A039F1B
:1093A000C8F8002060328DF82E501A600397CAE783
:1093B00001227C4B022F1A7005D1794B774AC8F8ED
:1093C0000030603313600023774A1380774A13809C
:1093D000FEF774FFDAF808209047022F4FF00003E1
:1093E00040F08F80ADF843304FF40653ADF83C3079
:1093F00080238DF83E308DF840304023DFF8B08177
:10940000092198F807200FA88DF83F208DF84120FA
:109410008DF84230FEF7EEFE98F80D70BB1C03F09D
:10942000070388F80D30013388F80F30FEF740FF4E
:109430001420FCF7AFFDFF00FFB207F10108103761
:109440005FFA88F8FFB247455A4B49D20023554A84
:109450000C931370DBF80020D9F800309B1A40F60B
:10946000B732934259D9DDE90723995C002954D0DA
:10947000514BD9F800201B680DA803EB41034F495D
:10948000B3F8423009681944FFF7ECFB069B03B9B7
:1094900020B1FEF70DFF2820FCF77CFDFCF7F4FA65
:1094A000039B0746834218BF00260DF12F030F933D
:1094B00009AB10930DF12E0311930DF12D031293AF
:1094C00008280CAB139353D800287FD0431E0022EA
:1094D000072B7BD8DFE803F0749D7AA77A7A7AC3EA
:1094E00008F03F0242F0400280215A767820FEF7D1
:1094F0009FFA08F101081420FCF74CFD5FFA88F888
:10950000A1E7274B254AC8F80030603313607B1E63
:1095100058425841FFF78CFE98E70027224B1F80E6
:10952000224B1F80FEF7CAFEDAF80830984714B1C4
:10953000059BDBB105971022049B0499B2FBF3F263
:1095400001239340029A013BAA1A120192FBF1F205
:109550009BB2D2B29340104A126882F85F300F4A31
:10956000C3F30723126882F85F3092E7059490E70F
:1095700010282BD101238DF82D3000230D934FF6A9
:10958000FF73ADF8383021E0A012002044320020F3
:109590003C160020651100205C11002060110020A5
:1095A000901000207C10002026120020281200209D
:1095B0007F10002000000020741000207810002090
:1095C0000D9B23BB0FA8FBF743FD0446C6F596731E
:1095D000632BDBF80020D9F8003098BFC8269B1A0F
:1095E00047F23052934208D901238DF82D300023E1
:1095F0000D934FF6FF73ADF838309DF82F301BB147
:109600000998FBF725FC049000230693CEE60D9203
:10961000B5E70D9B002BFAD1022201351C468DF8CF
:109620002E500C92D2E7D9F80030019A334402F55B
:1096300096729342CAD90FA8FBF70AFD041E14BF05
:109640004FF47A720022D9F80030D3180193002326
:109650000D934FF6FF732136ADF83830B6E7D9F8E1
:109660000030019A9B1A3344B3F5967FAED902239A
:1096700001350C938DF82E50D9F80030E6E700BF85
:109680002DE9FF48FFF73CFC00238A4ADFF828B2A7
:1096900013808A4AABF800301370894B894A03F172
:1096A00060011360113B1D46874A1160874A02F131
:1096B000100152F8040B8A4243F8040BF9D100243C
:1096C0001278834E1A70192231467820FEF7CCFAB0
:1096D000002818BF0B240134092CF4DDAF236B7074
:1096E0007C4D7B4CB5F84830022284F82E3004F1D2
:1096F0002A017820FEF7B8FAB5F8463080219BB2EF
:10970000002B14BFA722A622782084F84020FEF761
:109710008FF92923704E7148714A724F724C734908
:1097200013F807C006F801CB13F804C000F801CB0A
:1097300013F801C0013B02F801CBF1D253236C4E68
:109740006C486D4A17F803C006F801CB14F803C043
:1097500000F801CB11F803C0013B292B02F801CB23
:10976000F0D1FCF76DFB288A00F00100FEF7CAFA81
:10977000624BD3F80028624B9A421FD1614A624B78
:10978000114662481C7802334C7413F8034C834230
:109790008C7401F10201F5D15D491878023382F829
:1097A000710013F8030C8B4282F8720002F102027E
:1097B000F3D1FEF77DFDFCF73FFC41E0554A1378FD
:1097C000AA2B3DD1B5F84A309BB2002B38D00126E8
:1097D0004FF0600A92F80190FEF770FDFCF754F923
:1097E00009EB890302934C4BDFF82C81F45CB04405
:1097F000FF2C38D1002108F10103009360221023CF
:109800000846FBF74BFC6024FEF752FD6400013470
:10981000FEF74EFDFCF738F926440746B9F1000F74
:1098200002D00298FCF7B6FBB5F84A309BB22BB1D8
:1098300040F2FE339E42BED0002CBCD0002FD2D0CE
:10984000FEF73CFDFEF734FD344B1B784BB1344B37
:10985000344A1B6810685B8A42F210711844FEF7A4
:1098600035FD314C65E0FE2C22D0002CD0D00027F5
:1098700008F1010364080393A742C5DA039B0122A0
:1098800013F81700013718F817305F288DF81730D4
:10989000B0FBFAF394BF002101210AFB13000DF184
:1098A00017030093C9000823C0B2FBF7F7FBE3E7F7
:1098B0000124ADE7281200202612002064110020A8
:1098C000901000205C110020601100209CBC00085A
:1098D00000000020F8160020D312002027130020DB
:1098E0008013002064D60008B8D6000848BC0008E1
:1098F000FD12002051130020AA13002000F00008E0
:1099000055AA0DF07F10002005F8000865F8000842
:10991000C5F8000800F8000801F80008F416002057
:1099200074100020781000209C0000200520FCF717
:1099300031FB2368002BF9D0012B12D1EB8F9BB2A6
:10994000012B0ED81D20FBF705FBFDF751FAB04B9C
:10995000B04A1B6810689B8A42F210711844FEF7E7
:10996000B5FC2F8BBFB22FB1288B01270138C0B2B5
:10997000FEF7F6FE00239A460293FCF785F8A64C04
:10998000002840F08E8000263746A44BA44DC3F833
:1099900000A0E88D002180B2FCF7CAF90020FCF796
:1099A00065FAAF2331288046637013D86B8A9BB267
:1099B00083B19C499C4A0B6812689B1A4EF6602240
:1099C000934207D90B68994909685B1A934284BF8F
:1099D000AE236370FEF772FC954BB5F81E901C78B1
:1099E0001FFA89F9002C14BF32234FF0FF33ABF874
:1099F0000030904BA3F800A0B9F1000F00F0908167
:109A0000FDF77CFD002800F05281002C00F045811C
:109A1000894B2A220093002110233620FBF73EFBBE
:109A20004FF0FF33ABF80030844BEA8D9D6892B263
:109A3000002DB8BF0335C5F38F05AD00B5FBF2F5BA
:109A40004FF00A09ADB20123B5FBF9F81A4602211D
:109A50004046FBF750FD01217948FBF7BFFB01238E
:109A600009FB18501A46194680B2FBF744FD002C3A
:109A70000CBF5B233023ABF8003008236D4A138002
:109A800000217048FBF7AAFB002E00F0D5816E4B39
:109A90006E4A002013606E4A60331360FFF7C8FB04
:109AA0006BE7AF236370002F40F0A68001380728D2
:109AB00000F2A280DFE810F0A200E400A0009C0009
:109AC000A000A000A00008000025624EDFF88881F9
:109AD000624FDFF86091FEF7F1FB00213046ABF8F2
