:020000040800F2
:1040000000500020514100089941000899410008E2
:1040100099410008994100089941000800000000FA
:1040200000000000000000000000000001A90008DE
:10403000994100080000000031A900085D9F0008B8
:1040400099410008994100089941000899410008E8
:1040500099410008994100089941000899410008D8
:10406000994100089941000899410008919F000872
:1040700099410008994100089941000899410008B8
:10408000B9A70008C5A700089D9F0008994100082E
:10409000994100089941000899410008D1A70008FA
:1040A000994100081DA100089941000899410008A4
:1040B00035A1000829A100089941000841A1000884
:1040C000D5A50008994100089941000899410008C8
:1040D0009941000899410008994100089941000858
:1040E000994100089941000899410008000000002A
:1040F00000000000000000000000000000000000C0
:0C41000000000000000000005FF8E0F18B
:1041100010B5054C237833B9044B13B10448AFF301
:1041200000800123237010BD60000020000000000B
:104130009CB5000808B5034B1BB103490348AFF316
:10414000008008BD00000000640000209CB500084D
:10415000002103E00B4B5B58435004310A480B4BE2
:1041600042189A42F6D30A4A02E00023136004324E
:10417000084B9A42F9D306F09BFB07F0BBF906F017
:1041800043FCFEE7F8DA0008000000205C00002095
:1041900060000020B8400020FEE700001A4A0368D3
:1041A00090420AD0B0F1804F07D0A2F594329042ED
:1041B00003D002F58062904215D14A6823F0700363
:1041C0001343114A90420AD0B0F1804F07D0A2F5B4
:1041D0009432904203D002F58062904203D1CA68C3
:1041E00023F4407313434A6923F0800313430360AD
:1041F0008B68C3620B688362034B984204BF0B69F0
:104200000363012343617047002C0140034A0130DE
:10421000116813685B1A8342FBD37047E83B0020A8
:10422000002337B5026801939368DB0702D50020AD
:1042300003B030BD9368124943F001039360114B02
:104240001B68B3FBF1F30193019BABB90E4C2568DE
:10425000936813F00103EAD12168491B0229F7D9B9
:10426000826A80F8243042F010028262C26A42F010
:104270000102C2620120DBE7019B013BE3E700BFD3
:1042800040420F004C000020E83B0020036810B5BE
:104290009A68D10701D4002010BD9A680A4922F01B
:1042A00001029A600C689A68D207F4D50A68121B5A
:1042B000022AF8D9836A43F010038362C36A43F089
:1042C0000103C3620120E7E7E83B0020436A9A6AE2
:1042D00012F0500F18D19A6A42F400729A621A686A
:1042E000926802F46022B2F5602F10D1DA6872B9D8
:1042F0009A6A22F480729A629A6AD20407D49A6AFD
:1043000042F001029A6270471B6A1B6B18477047A4
:104310000422F0B4C66B016C3568036802FA01F739
:104320002F421C6828D0670726D53C498B4216D0FF
:104330003B4A934215D01432934214D01432934224
:1043400014D01432934214D0143293420CBF4FF461
:1043500080034FF08063334A5360F0BC70471346CC
:10436000F9E74023F7E74FF48063F4E74FF4804325
:10437000F1E74FF48023EEE702228A402A4238D048
:10438000A70736D51A68910606D41A6822F00A02E1
:104390001A60012280F82120204A93421CD0143256
:1043A00093421BD0143293421AD0143293421AD043
:1043B000143293421AD0143293420CBF4FF40013BC
:1043C0004FF00073174A5360002380F82030836A4F
:1043D000002BC2D0F0BC18470223F3E72023F1E7FB
:1043E0004FF40073EEE74FF40053EBE74FF4003364
:1043F000E8E708228A402A42AFD02207ADD51A68E2
:1044000022F00E021A60012303FA01F17160836346
:104410004FF480730384036BDAE700BF08000240A7
:104420001C0002400000024008B503681A6822F030
:104430000E021A601A6822F001021A60164A9342AC
:104440001CD0143293421BD0143293421AD014322F
:1044500093421AD0143293421AD0143293420CBFB2
:104460004FF480134FF080730C4A53604FF4807305
:104470000384436B03B19847002008BD0123F3E791
:104480001023F1E74FF48073EEE74FF48053EBE72E
:104490004FF48033E8E700BF08000240000002400C
:1044A0002DE9F74F00221646684F694BDFF8A4C18B
:1044B000DFF8A4E14FF001080D6808FA06F808EAF1
:1044C000050438EA050540F08A804D68032D00F0A8
:1044D000B38014D8012D00F0A480022D00F0A68036
:1044E000A5B98A68002A00F0A980012A08BFC0F88F
:1044F00010804FF0080218BFC0F8148006E0122D9B
:1045000000F0978072D8112D00F08D80FF2C98BF9D
:1045100082464FF00F0988BF00F1040A4FEA860572
:10452000DAF8008088BF203D09FA05FB28EA0B086D
:1045300002FA05F548EA0505CAF80050D1F804A0CA
:104540001AF0805F4BD0BD6926F0030845F00105E5
:10455000BD61BD6908F1804805F00105019508F5C8
:10456000803806F0030B019D4FEA8B0BD8F80850FA
:1045700009FA0BF925EA0909384DA84260D005F57A
:104580008065A8425ED005F58065A8425CD005F53F
:104590008065A8420CBF0325042505FA0BF545EA02
:1045A0000905C8F808501D681AF4803F14BF254358
:1045B000A5431D605D681AF4003F14BF2543A54361
:1045C0005D609D681AF4801F14BF2543A5439D605C
:1045D000DD681AF4001F14BF2543A543DD600136D2
:1045E000102E7FF467AF03B0BDE8F08FDFF8709056
:1045F0004D453FF476AF0FD8A9F580194D453FF4EE
:1046000070AF09F570294D453FF46BAFA9F58019DE
:104610004D453FF466AF79E765453FF462AF7545B8
:10462000F7E7CA6872E7CA6804326FE7CA680832F7
:104630006CE7CA680C3269E7002267E7042265E785
:104640000025AAE70125A8E70225A6E700100240F9
:104650000004014000003110000032100008014049
:1046600000002210FEE7000006480068006880F3A2
:10467000088862B661B6BFF34F8FBFF36F8F00DF5C
:1046800000BF000008ED00E04FF0500383F31188F5
:10469000BFF36F8FBFF34F8FFEE7000008B54FF0F9
:1046A000500383F31188BFF36F8FBFF34F8F074A17
:1046B00013680133012B136007D14FF0E023D3F8C7
:1046C000043DDBB20BB1FFF7DFFF08BD580000204F
:1046D000054A08B513680BB9FFF7D6FF013B136015
:1046E0000BB983F3118808BD5800002008B5EFF31B
:1046F00005830F2B07D90E4A9B5C0E4A12789A420B
:1047000001D9FFF7C1FF4FF0E0230B4AD3F80C3D6E
:10471000126803F4E063934208D94FF0500383F327
:104720001188BFF36F8FBFF34F8FFEE708BD00BF47
:10473000F0E300E0E23B0020E43B00204FF05003B8
:1047400083F31188BFF36F8FBFF34F8FFEE7000035
:10475000024A136801331360704700BFF03B00202A
:10476000F8B50F4D0F4EFFF799FF2C6807683368B7
:1047700042689F4207D0A24205D8002301200B6067
:10478000FFF7A6FFF8BD0B68A71ABB42F5D91B1BA4
:1047900013440B60336803602B6843600020EFE72D
:1047A000B04000209040002008B9064B1868026B0A
:1047B0000020135CA52B02D0C0F38F00704701309E
:1047C000F7E700BF902D0020064A13681968064BD2
:1047D00019B94FF0FF321A6070471268D268126838
:1047E000F9E700BF942D00208C400020054B1B688A
:1047F00033B1054B1868B0FA80F0400940007047AB
:1048000001207047AC400020F03B002043689A68CC
:104810004B608A609A68516099600368086101334F
:104820000360704730B50C68631C0AD103695A688D
:104830004A6091608B6059600368086101330360CE
:1048400030BD00F10802134652681568A542FAD936
:10485000EDE70369D0E901128A605160596881422D
:1048600008BF5A60002202611A68013A1A6018688B
:1048700070470000394B2DE9F74F1B68002B67D1BB
:10488000374B1D6801351D6085B9364B1A681268B3
:104890000AB1FFF753FF344A1968106818601160B5
:1048A000324A136801331360FFF78EFF304E002445
:1048B0003368DFF8C080AB4212D91422D8F8003038
:1048C000DB6A53432C4AD358022B2C4B28BF0124BC
:1048D0001B68002B18BF0124204603B0BDE8F08FF1
:1048E000DFF880A0DFF89890DAF800301B681BB979
:1048F0004FF0FF333360E0E7DAF80030DB68DF6861
:104900007A68954201D23260D7E707F1040B584626
:10491000FFF79FFFBA6A1AB107F11800FFF799FF76
:104920000122FB6AD9F800009A4002431420C9F81A
:104930000020114A594600FB03200193FFF766FF50
:10494000D8F80020019BD26A934228BF0124CBE70C
:104950000C4A0024136801331360BDE7F03B0020CC
:10496000B0400020942D0020982D00209040002081
:104970008C400020902D00209C2D0020B440002071
:10498000F83B00209440002032492DE9F0470B68A5
:1049900043B94FF0500383F31188BFF36F8FBFF318
:1049A0004F8FFEE7FFF77AFE0B68013B0B600C6848
:1049B00024B10020FFF78CFEBDE8F087264B1B6872
:1049C000002BF6D0254E264FDFF8989020E0F368B4
:1049D0004FF00108DC6804F1040A04F11800FFF745
:1049E00038FF5046FFF735FF1420E56A3A6808FAA9
:1049F00005F31343514600FB05903B60FFF706FFAC
:104A0000194B1B68DB6A9D4202D3184BC3F8008028
:104A10003368002BDBD10CB1FFF7D6FE144D2C68A8
:104A200044B10127114EFFF725FF00B13760013C6B
:104A3000F9D12C600D4B1B68002BBAD04FF0E0234E
:104A40004FF08052C3F8042DBFF34F8FBFF36F8F29
:104A50000120AFE7F03B0020EC3B00209840002015
:104A6000F83B00209C2D0020902D0020B440002019
:104A700094400020C36870B5DC680CB9FFF704FEF1
:104A800004F118063046FFF7E4FE114BE56A1B6897
:104A9000D3B904342046FFF7DCFE01230D4A14206D
:104AA0001168AB400B43214613600B4B00FB0530F4
:104AB000FFF7ACFE094B1B68DB6AAB423BBF012032
:104AC000074B0020186070BD31460648F0E700BF74
:104AD000F03B0020F83B00209C2D0020902D002072
:104AE000B4400020984000202DE9F04104464FF0EA
:104AF0000108FFF7D3FD90F845501B4F6DB200F150
:104B00002406002D17DCFF234FF0010884F8453000
:104B1000FFF7DEFDFFF7C2FD94F84450124F6DB26F
:104B200004F11006002D12DCFF2384F84430BDE8A8
:104B3000F041FFF7CDBD636A002BE4D03046FFF7AC
:104B400099FF08B1C7F80080013D6DB2D9E723692C
:104B5000002BE9D03046FFF78DFF08B1C7F8008081
:104B6000013D6DB2DEE700BFB4400020C3685A1EAD
:104B7000C26033B9036833F8022B03600F238260ED
:104B8000C36083685A008260C3F3C030704710B5B9
:104B9000012104462046FFF7E9FF49000144204671
:104BA000FFF7E4FF0028F5D1084610BD00231A46A0
:104BB000074911F8010B03FB00220133D12BF8D177
:104BC000044B18681A60801A18BF0120704700BF94
:104BD0009E270020802800202923F0B51048114D81
:104BE000114A124E124C13499F5D05F8017B1F5D5F
:104BF00000F8017B5F5C013B02F8017BF4D2532398
:104C00000D4D0E480E4AF75C05F8017BE75C00F895
:104C1000017BCF5C013B292B02F8017BF3D1F0BD76
:104C2000472A0020F3290020A02A00208CD7000862
:104C3000E0D700085CBB00081D2A0020712A002074
:104C4000CA2A00200A4B588A80B278B1188980B2EB
:104C500060B11A89188992B2052A94BF42F2107382
:104C60004EF6602380B288BF05385843704700BFB6
:104C7000182E002038B5134A538A9BB20BB9002076
:104C800038BD13899BB2002BF9D00F4A0F4B146823
:104C90001B6844EA030288B1002AF1D00C4D296850
:104CA000C91AFFF7CFFF8142E9D92868041BFFF733
:104CB000C9FF844294BF00200120E1E7002ADED032
:104CC000ECE700BF182E00205C2D0020602D002096
:104CD000B040002070470000084B33F8302003EB51
:104CE000C00391425B8803D399420A4628BF1A4603
:104CF000034B03EB40039A80704700BFC6BD00081A
:104D0000182E002070B5114B114C33F8306003EBB6
:104D1000C00359889A8804EB40034500988880B204
:104D2000884207D19E802C44A08880B2431A584202
:104D3000584170BD98888E1A80B2B042B7BF98882B
:104D40009980121892B2B8BF9A80ECE7C6BD0008ED
:104D5000182E002008B5144B198E5B8C89B29BB2BB
:104D60009BB179B140F25133143189B2994288BF75
:104D700000211620FFF7B0FFB1F5527F34BF0020AD
:104D8000012008BD4FF4F071F3E759B10A3189B23F
:104D9000B1F5E17F88BF00211620FFF79DFFB1F537
:104DA000E17FEBE7FA21F7E7182E0020034B588A42
:104DB00080B2003818BF0120704700BF182E0020B5
:104DC00008B5104BD9885B8C89B29BB273B1143192
:104DD00089B2B1F5117F88BF3C210120FFF77CFF2C
:104DE000B1F5117F14BF0020012008BD0A3189B23E
:104DF000B1F5967F88BF0A210120FFF76DFFB1F55D
:104E0000967FEFE7182E002070B50F20FFF77AFF8E
:104E100005462748018E8288C388408C89B280B2BB
:104E200092B29BB280B3052001EBC10102EBC20636
:104E3000A031A03603EBC304B1FBF0F1B6FBF0F6F2
:104E4000A034B4FBF0F489B2B6B20A23B1FBF3F19B
:104E5000B6FBF3F6A4B2B4FBF3F401EB8101490015
:104E6000162089B2FFF738FF06EB860149000020C3
:104E700089B2FFF731FF04EB84014900012089B2B8
:104E8000FFF72AFF284670BD09202039203A01EBA0
:104E9000810102EB820291FBF0F192FBF0F6203BE4
:104EA00003EB830393FBF0F489B2B6B2CDE700BF06
:104EB000182E0020034BD88A80B2003818BF01207A
:104EC000704700BF182E0020034B188D80B20038A9
:104ED00018BF0120704700BF182E00207047F8B59A
:104EE000002506462C461427EBB207FB03639A689D
:104EF0000AB92046F8BDDB6813B90134E4B202E018
:104F000098470028F9D10135EEE7000038B50023B5
:104F10000122104D04462B7003681A70D0E901314C
:104F2000142009781B6800FB0133187C262809D857
:104F3000FFF7E8FE2B7813B1032223691A600123DF
:104F40002B7038BD586808B18047F3E7E3681A70E2
:104F5000F0E700BFC029002010B5214A936890688F
:104F600083F00203C0434000C3F3400300F002009B
:104F700018431FBF1B4B1A681B4B1A601B4A137840
:104F8000834212D180B1174B194A1B6812689B1AD1
:104F9000B3F5C87F20D30122164B90421A701DD062
:104FA00002280CBF0820202010BD38B10343002088
:104FB00013700C4B1A680E4B1A60F5E70D490C780C
:104FC00044B9012B02D0022B18BF102310700870B7
:104FD0001846EEE70346F9E70020E5E70420E3E79B
:104FE000000C0140B04000205C2D0020A9290020C9
:104FF000AC290020A829002048F2E8035843642384
:10500000C00B58435B23B0FBF3F0084B5A8E92B2AF
:1050100042B139B95A8E92B282422FBF08465B8E96
:105020009BB2C01A024B1860704700BF182E0020B8
:10503000642D002038B50021FFF7DEFFB0B101225A
:10504000154B53F83210D400884210DA23444FF441
:105050007A7453E90252401B6043491B90FBF1F004
:105060005B689B1A584390FBF4F0104438BD013242
:10507000322AE6D14FF47A734FF43C72A0F5124015
:105080000938584390FBF2F00A22504390FBF3F0AA
:1050900000F5F570EAE700BF34D80008F0B55442D7
:1050A000A0421E46059D134624DD602822DC002810
:1050B00000EB0207B6BF44420024E4B2602FC4BF35
:1050C000C0F16002D2B2E9B9134F21183F6805EB75
:1050D000040C0F4421468A420DD8102E0AD1102EFE
:1050E00018BF00230D492344096820442B44014480
:1050F000A2420AD8F0BD1CF801EB013107F801EB20
:10510000C9B2E8E70829EAD0E7E713F8010B013450
:1051100001F8010BE4B2EBE7782800207C2800209E
:105120000229F7B504461CD110221D4B1D491A70E7
:105130000C221D4B1A701C4B1C4E1D78184BB6F9D7
:1051400000701B783846DA086A4304FB02110091AC
:1051500017492A4691F90010FFF7A0FFE81930809F
:1051600009E0012809D1124BB3F900201AB90F49FF
:105170000A8008221A8003B0F0BDFCD9002915BFAF
:10518000102008200C2206220A4B0B4908BF1946A2
:10519000034B023C1870044BA4B21A70CBE700BF5B
:1051A000F029002048B90008F129002046290020F4
:1051B000482900204D1E0020D31F002038B5037859
:1051C0000446012B0D4601D11D460134237803B955
:1051D00038BDF02B05D898B201342946FFF7A0FF5F
:1051E000F4E76278002AF3D0F03BC3EB03230F3AD5
:1051F000134498B20234F0E70B4B198B0B4B89B276
:105200001A680B4B02291B6807D0032908D0012913
:1052100008D1108F1844FFF7D1BF508F0121F9E753
:10522000908FFBE7D08EF9E7182E0020441E002057
:10523000481E00200A4BD98C0A4B89B21A680A4BC7
:1052400001291B6805D0022908D1B2F842000121CA
:1052500001E0B2F840001844FFF7B0BFD08FF6E786
:10526000182E0020441E0020481E0020054B064832
:105270005B8C064A9BB20121002B08BF1046FFF74A
:105280009DBF00BF182E0020BAB50008BCB50008AD
:10529000094B198A094B89B21A68094B01291B6805
:1052A00004D0022906D1908D012100E0508D1844D0
:1052B000FFF784BF108DF7E7182E0020441E002052
:1052C000481E0020074B084A9B8C12689BB233B1E2
:1052D000938E064A012110681844FFF76FBF138EA2
:1052E000F7E700BF182E0020441E0020481E0020B3
:1052F0000B4BD98A0B4B89B21A680B4B02291B68DE
:1053000007D0032908D0012908D1108E1844FFF7CF
:1053100055BF508E0121F9E7908EFBE7D08DF9E75C
:10532000182E0020441E0020481E0020002205499F
:105330000A8005490A800178012914BF114601300D
:10534000FFF73CBF462900204829002010B50B4B31
:105350000B4A1B680C4603EB4003B3F88C30106813
:1053600004EB44041844FFF7E1FF0022054BA400BE
:10537000023C1C80044B1A8010BD00BF441E00205C
:10538000481E0020462900204829002037B5294B17
:10539000294A1B68044603EB4003B3F8DE3010686B
:1053A0001844FFF7C3FF254AD38A9BB2022B23D0B0
:1053B000032B14BF4FF4FA704FF49670204B1978FA
:1053C000204BE1B9D18A89B2C9B119681E4DA142F9
:1053D0001E4902D01C602B680B602B680968928AFA
:1053E0005B1A92B2B3FBF0F302B30322B3FBF2F207
:1053F00002EB42029B1A0AE04FF4C870DEE78D21EF
:105400001960D38A9BB2B3FA83F35B095B00602215
:10541000544304EB43140E4B002123440093102308
:105420004E201A46FFF73AFE03B030BD022B28BFCC
:105430000223ECE7441E0020481E0020182E002006
:105440004C1E002054000020B0400020D429002031
:10545000C1BB00080020FFF799BF0120FFF796BFEE
:105460000220FFF793BF0320FFF790BF0420FFF750
:105470008DBF37B50C4611460022042C0092ADF8C2
:1054800004208DF8062032D90A22B0FBF2F502FB87
:10549000150002308DF80500B5FBF2F002FB105547
:1054A00002358DF8045080B20A25B0FBF5F205FBF9
:1054B000120502358DF8035090B20A25B0FBF5F2C3
:1054C00005FB120502358DF8025090B20A25B0FB9B
:1054D000F5F205FB120502358DF8015090B20BE094
:1054E0001578022D17D102F8010B013311E0DBD042
:1054F000032CE2D0012CE9D10A25B0FBF5F205FB23
:10550000120202328DF800202BB16A4600231220CD
:10551000013CA342E4DB6846FFF750FE03B030BD18
:1055200070B50A260C4B0221DC890123A4B2B4FB1E
:10553000F6F51A462846FFF79CFF01210748FFF7BA
:105540003DFE012306FB1540BDE870401A46194692
:1055500080B2FFF78EBF00BF182E0020BEB5000836
:10556000094A138E9BB233B10123108E03211A46D0
:1055700080B2FFF77EBF054B054A1B6810689B8C05
:1055800001211844FFF71ABE182E0020441E0020E7
:10559000481E0020034B0221588F012380B21A4677
:1055A000FFF767BF182E0020034B0221188F01233D
:1055B00080B21A46FFF75DBF182E00200122034B70
:1055C0001146588A002380B2FFF753BF182E0020DF
:1055D000034B0321D888012380B21A46FFF749BF45
:1055E000182E002008B5154B1A8992B252B9012124
:1055F000134B144A1B6810689B8C1844BDE8084084
:10560000FFF7DCBD1A89188992B2052A0CD801234C
:1056100080B200EB80004000022180B21A46FFF702
:1056200028FF01210848E9E701230538022180B25B
:105630001A46FFF71EFF01210448DFE7182E00205D
:10564000441E0020481E0020C0B5000820B60008F7
:1056500008B50C4A538B9BB253B901210A4B0B4A34
:105660001B6810689B8C1844BDE80840FFF7A6BD76
:105670000123508B022180B21A46FFF7FAFE012166
:105680000348F1E7182E0020441E0020481E002089
:1056900020B6000807B5164BB3F84A2092B25AB9A3
:1056A0000121144B144A1B6810689B8C184403B0EA
:1056B0005DF804EBFFF782BDB3F84A2092B2052AE9
:1056C0000AD10E4B18220093002110234620FFF729
:1056D000E5FC03B05DF804FBB3F84A0001230221A6
:1056E00080B21A46FFF7C5FE01210548DFE700BF7B
:1056F000182E0020441E0020481E002008B8000874
:10570000C0B5000808B50C4A938E9BB253B901216D
:105710000A4B0B4A1B6810689B8C1844BDE8084074
:10572000FFF74CBD0123908E032180B21A46FFF78C
:10573000A0FE01210348F1E7182E0020441E00209E
:10574000481E0020C2B5000870B5154D2B8D9BB2C8
:10575000DBB101230A24288D1A4680B21946B0FB1A
:10576000F4F0FFF786FE01210E48FFF727FD288D94
:1057700080B2B0FBF4F304FB1300BDE870400123DA
:1057800080B21A461946FFF774BE074B074A1B68DA
:1057900010689B8C0121BDE870401844FFF70EBDD6
:1057A000182E0020BEB50008441E0020481E002010
:1057B000034B588D012380B21A461946FFF759BE94
:1057C000182E0020034B988D012380B21A461946EB
:1057D000FFF74FBE182E00200221FFF7A1BCC0F139
:1057E0001100C0B2FFF7F8BF034B988B80B20038AE
:1057F00018BF0120FFF7F3BF182E0020034BD88EEF
:1058000080B2003818BF0120FFF7E9BF182E002032
:10581000034B988A80B2003818BF0120FFF7DFBF22
:10582000182E0020034BD88B80B2003818BF0120FF
:10583000FFF7D5BF182E0020034B188C80B200381C
:1058400018BF0120FFF7CBBF182E0020044BB3F880
:105850004C0080B2003818BF0120FFF7C0BF00BF66
:10586000182E0020F8B51D4B05460E201C78FFF7BA
:10587000B3FF1F23B5FBF3F0194BC0F10A0010F082
:10588000F80F1968C5B2C0F3C4060BD0F32C8CBF57
:1058900001230D23204600272344DBB2421CD2B251
:1058A000934218D1FF2205F00705AA406025F32C8A
:1058B0008CBF01230D2375432344DBB262F0FF024A
:1058C000601CC0B2834200D1F8BD2C440E5D16406E
:1058D0000E550446F4E70F541046DFE74629002032
:1058E00078280020BFF34F8F0549064BCA6802F4A1
:1058F000E0621343CB60BFF34F8F00BFFDE700BFF3
:1059000000ED00E00400FA054AF6AA22014B1B68EC
:105910001A607047782C00204FF0E0204FF0805440
:1059200008B506490B68012B05D9C0F8044DBFF333
:105930004F8FBFF36F8FFFF7E7FFF3E79C2D00203A
:105940000122084B1A7040F21B12074B1A80074BBA
:105950001B68DA6240F20D125A6340F682229A62A4
:10596000704700BF9C270020702E0020CC2C002008
:10597000037B826810B530F813400A44121B826022
:1059800020F81310013303F00303037310BD00006C
:1059900010B5044671B10C4B0C481B68D96B1A6CDE
:1059A00011445A6C9B6C1144194489B2C90089B2E4
:1059B000FFF7DEFF054B9B68C3F38F039B00B3FB30
:1059C000F4F080B210BD00BF242B0020C4290020B9
:1059D00008B5084B0146D88D80B2FFF7D9FF2D23BB
:1059E0004043B0FBF3F0044BC0EB00201B88B0FB3E
:1059F000F3F008BD182E0020702E002010B50446CC
:105A0000002C084606DC094BD88D80B2FFF7C0FF9A
:105A1000002010BDFFF7DCFFC4EB0424B4FBF0F062
:105A2000FF2828BFFF20C0B2F3E700BF182E0020D8
:105A300010B50121FFF7E2FF134B902804461A78B6
:105A40001BD90AB100221A7014211A780F4B0020BA
:105A500019800F4B1A700F4B1C70FFF7B9FFFF2313
:105A6000E82144430C4AB4FBF3F413684B43182178
:105A700001FB04331B0A136010BD6F28E4D8002A11
:105A8000E2D10122DFE700BF51000020401E0020CC
:105A90009B270020882D0020FC3B002008B568B122
:105AA00000210B460D4A013332F8020BDBB2102BFA
:105AB0000144F8D10A4889B2FFF75AFF084B9868A9
:105AC0006423C0F3CE00A0F59B500538584340F244
:105AD000E23390FBF3F080B208BD00BF7C000020F1
:105AE000B029002010B547F6FF70FFF7A3FA04466F
:105AF0000020FFF7D3FF0A23B0FBF3F0013C80B294
:105B0000204410BD08B5084B08481B68D96B1A6CB7
:105B100011445A6C9B6C1144194489B2490089B2F2
:105B2000FFF726FF084608BDF42A00209829002028
:105B300038B5044678B1FFF7E5FFFFF77BFA054675
:105B40002046FFF7ABFF0A23B0FBF3F39BB25819D3
:105B500020EAE07038BD024B9868C0F38F00ECE794
:105B60009829002010B5FFF7BDFF04460020FFF77D
:105B7000DFFF053CA4B284422CBF0020012010BDF1
:105B8000202210B5234B83F83D20234B18680028B2
:105B900035D0036C43B14FF0500383F31188BFF34A
:105BA0006F8FBFF34F8FFEE7036853B9836843B12C
:105BB0004FF0500383F31188BFF36F8FBFF34F8F04
:105BC000FEE7FEF793FDEFF311844FF0500383F3EC
:105BD0001188BFF36F8FBFF34F8F826BC36B9A42F5
:105BE0000BD290F845100132FF294BB2826307D1E6
:105BF000436A13B12430FEF73DFF84F3118810BDD2
:105C00007F2B01D1FEF740FD01335BB280F84530B8
:105C1000F3E700BF242C00204C290020436A1A68B7
:105C2000116821F4806111600021586B598541632E
:105C3000986B416393F83D0060284FF0200083F893
:105C40003D0083F83E1008BF1964136823F0010378
:105C50001360FFF795BF012070470000044B054A11
:105C60001B681068B3F8D2301844FFF75FBB00BF61
:105C7000441E0020481E002070B5154B154D0646E9
:105C80001C6828680430FEF7E4FD40B92A68124910
:105C9000D06A01220B68824023EA02030B602B6862
:105CA000A4195C6007D30D4B18682968BDE87040E3
:105CB0000431FEF7B7BD0A4B186829680431FEF7B6
:105CC000B1FD084B1A68944238BF1C6070BD00BF1C
:105CD000B0400020902D0020F83B0020982D00209F
:105CE000942D00208C40002008B550B94FF0E023DF
:105CF0004FF08052C3F8042DBFF34F8FBFF36F8F67
:105D000008BD074B1B680BB1FEF7BEFCFEF720FD7C
:105D1000FFF7B2FFFEF738FE0028E7D0F0E700BF3C
:105D2000F03B00203220FFF7DFBF000070B50D4EC2
:105D300035680544FFF710F9044654B9FFF70CF92C
:105D40000446FFF7EFFF33689D420AD3002CF5D0DD
:105D500007E0FFF701F90446FFF7E4FF33689D42CF
:105D6000EBD270BDB040002010B5114AB2F84A30F5
:105D70009BB2052B11D1FFF7EFF804463CB9FFF7B2
:105D8000EBF80446FFF7CEFF002CF8D010BDFFF76C
:105D9000E3F80446FFF7C6FFF0E74FF47A70BDE87A
:105DA0001040B2F84A309BB25843FFF7BFBF00BF64
:105DB000182E002010B50C46044B19681831FEF758
:105DC00031FD2046BDE81040FFF756BF902D002062
:105DD0002DE9F043954B85B01C683223019344B9FB
:105DE0004FF0500383F31188BFF36F8FBFF34F8FD2
:105DF000FEE7256C45B14FF0500383F31188BFF3E4
:105E00006F8FBFF34F8FFEE7FEF7F0FC40B94FF006
:105E1000500383F31188BFF36F8FBFF34F8FFEE7FB
:105E20002946834F834E8DE0019B23B9002D00F05E
:105E30002F81FEF783FC21B93B6802937E4B1B68E0
:105E40000393FEF745FCFEF783FCFEF727FC94F86E
:105E5000443001A9FF2B04BF002384F8443094F898
:105E6000453002A8FF2B04BF002384F84530FEF71D
:105E70002FFCFEF775FC002840F09C80FEF70EFC1E
:105E8000A36B002B56D1FEF723FC2368002B3BD1DC
:105E9000FEF704FCA568002D33D03268EB6AD26AA5
:105EA00093427FD2AA69DFF89481002AA1BF3268A9
:105EB000D26AC2F10602AA61142202FB03836A6954
:105EC0009A426BD105F104094846FEF7C2FC5C4BCF
:105ED00038B90120E96A1A6800FA01F122EA0102E0
:105EE0001A6032681968D26AEA62012505FA02F07E
:105EF000084318601420494600FB0280FEF786FC28
:105F00000120FEF7E5FB0546019904F12400FFF7A7
:105F100051FF2046FEF7E8FDFEF736FD88B94FF049
:105F2000E0234FF08052C3F8042DBFF34F8FBFF32F
:105F30006F8F06E02046FEF7CBFBFEF7D5FDFEF7A0
:105F400023FD0121FEF7AAFBA36B002B3FF46CAFEE
:105F5000013BA363236843B9364B1A681AB1196829
:105F60008A6D01328A651B68A360236973B104F1ED
:105F70001000FEF77FFD48B14FF0E0234FF0805254
:105F8000C3F8042DBFF34F8FBFF36F8FFEF7A0FB55
:105F9000012505F0010005B0BDE8F0833368DB6A38
:105FA000EB62ADE73368686DDB6A98422CBF002076
:105FB0000120A6E72046FEF797FDFEF7E5FCFEF779
:105FC0006DFBA36B13B1FEF783FBBAE7FEF780FB13
:105FD000002DDED0FEF762FB636A1BB1236B1B68EA
:105FE000C3F10603A468002C52D0A16D41B94FF053
:105FF000500383F31188BFF36F8FBFF34F8FFEE71A
:10600000626D934238BF1346E26A934240D0012941
:106010003ED1084909688C4214D14FF0500383F3F4
:106020001188BFF36F8FBFF34F8FFEE74C2900201D
:1060300090400020902D0020B04000209C2D00209A
:10604000F83B0020A169E3620029A4BFC3F1060365
:10605000A3611423104D03FB02526369934217D1CD
:10606000261D3046FEF7F5FB0C4AE76A28B90124E5
:106070001368BC4023EA0403136001231420116851
:10608000BB400B4300FB075031461360FEF7BEFBDD
:10609000FEF71EFB00257CE79C2D0020F83B00202E
:1060A00010B5134CFEF7FAFA2368DB6D7BB90122B9
:1060B000236883F86020FFF7DFFD4FF0E0234FF007
:1060C0008052C3F8042DBFF34F8FBFF36F8FFEF7DD
:1060D000FFFAFEF7E3FA2368D86D10B100222368B7
:1060E000DA650022236883F86020FEF7F1FA10BD1C
:1060F000902D002010B54CF250342049204B0868F8
:10610000DA68D20733D4DA68910644BF2022DA6015
:10611000DA68D20606D4DA69D40703D4D86810F056
:10612000040023D0164AD36813F0100305D0154994
:10613000CB6943F00203CB611023D268500706D528
:10614000104943F00403CA6942F00102CA610C4AD3
:10615000D169C90708D50B48C16941F00401C16183
:10616000D16921F00101D1610120D36010BD0A681D
:10617000121AA242C4D90320F8E700BFE83B00206E
:1061800000200240682D002013B590F83D300446F1
:1061900003F0FF0200687BB91D4B84F83C20984255
:1061A00028D103F50333DA6942F00202DA61DB69D0
:1061B00003F002030093009B0223211D84F83D306D
:1061C000FDF7ECFF0123002084F8463084F83E30D0
:1061D00084F83F3084F8403084F8413084F842300D
:1061E00084F8433084F8443084F8453084F83D30F6
:1061F00002B010BDB0F1804FDED1064BDA6942F03B
:106200000102DA61DB6903F001030193019BD3E72B
:106210000004004000100240144B70B51D68144E7D
:106220006A6912F0400201D000200EE06C6914F09F
:1062300010040BD06FF010016961202101201A6455
:1062400083F83C201A6383F83D1070BD3268521AFF
:106250009042E5D21A6C032042F020021A642022F8
:1062600083F83C4083F83D20EFE700BF242C00205A
:10627000E83B0020154B70B51D68154E6A6912F099
:10628000800201D000201FE06C6914F480640FD1FB
:106290003268521A9042F1D21A6C032042F0200266
:1062A0001A6420221C6383F83C4083F83D200BE0F5
:1062B0006FF48061696104211964202101201A634F
:1062C00083F83C2083F83D1070BD00BF242C0020D3
:1062D000E83B0020F0B5114DDFF844C02E68070CF4
:1062E000012F0CBF7469B46920EA0404A4B2B4FAA3
:1062F00084F46409A14201D000200EE0DCF80040E3
:10630000E41AA242ECD20023202203202B6385F85A
:106310003C3085F83D2085F83E30F0BD242C00202F
:10632000E83B002070B50546144A154E14686369B1
:10633000DB4313F0020014D0636913F4806311D0BF
:106340002368202143F4007323606FF4806363614A
:106350000423136400230120136382F83C3082F885
:106360003D1070BD3068401A8542E0D22021136391
:10637000032082F83D1082F83C30F2E7242C002004
:10638000E83B0020134B10B5DB68C3F30223C3F1D5
:1063900007041A1D042C28BF0424062A88BFDA1E0D
:1063A0004FF0FF3398BF0022A34021EA03030028E7
:1063B00003FA02F3ACBF00F16040074A4FEA03134F
:1063C000DBB2B5BF00F00F0000F56140135480F858
:1063D000003310BD00ED00E014ED00E0F0B56D4CB1
:1063E0006D4E94F83D3087B003F0FF05002B5ED171
:1063F000C02212230127CDE902230323674802A903
:10640000CDE9047384F83C50FEF74AF8F369644A16
:1064100043F40013F361F3694FF0800E03F40013AB
:106420000193019B5F4B4FF48070C3E90025182254
:106430005D49C3E903E5C3E90555C3E90F129D6052
:10644000DD61D1F88020DFF864C102EA0C0242EA83
:106450000E02C1F880209D631884554AA3635C62D4
:10646000544B1A601022C3E901254FF48052DA61BF
:106470001422C3E903E5C3E90555C3E90F12CA6E47
:1064800002EA0C0242F4845242F01002CA669D6392
:1064900018840F211F205C626363FFF773FF4FF0C6
:1064A0000043454D20202B60FFF76CFF6F602423D5
:1064B000216884F83D300B68404A23F001030B60EB
:1064C00073686068C3F30223D25C3D4B1B68D34002
:1064D0003C4A904294BF3C4A3C4A93428CBF0022C3
:1064E00001220AB107B0F0BD364D394AA842B3FBCC
:1064F000F2F288BF4FF496764A6082BF72434FF43F
:106500007A76B2FBF6F2A84202F101020A6203F1C6
:10651000FF3323D84000B3FBF0F340F6FC720133A5
:10652000134233D0C3F30B03CB61D4E907321343D7
:106530000B60D4E9032313438B60D4E90532134382
:10654000CB600B68202243F001030B60002323641F
:1065500084F83D20236384F83E30C3E7A26852B933
:1065600000EB4000B3FBF0F30133C3F30B037BB14B
:1065700043F40043D8E719224243B3FBF2F301335B
:10658000C3F30B0323B143F44043CDE70423CBE72C
:106590000123C9E7242C002000100240000C014018
:1065A00080000240982B0020000002400FC0FFFF37
:1065B0006C000240DC2B002000E100E0E6B60008A1
:1065C0004C000020A08601007F841E00FF083D00D3
:1065D00040420F00F0B5294D11202A6885B013689C
:1065E000402623F0010313600123CDE901030223B8
:1065F0008027234C6946204603930096FDF750FF01
:1066000026610097FDF74CFF65234FF48002276158
:10661000A168090627D5122201234027CDE90123CD
:10662000802602236946164803930097FDF738FF3A
:106630000096FDF735FF276126612A68136843F449
:106640000043136000BF2A68136823F400431360FB
:1066500000BF2A68136843F00103136005B0BDE86A
:10666000F040FFF7BBBE226100BF00BF00BF00BF0C
:10667000013B2661CCD105B0F0BD00BF242C002029
:10668000000C014090F83E30012B22D1022380F80B
:106690003E3003681A6A22F001021A621A6A42F056
:1066A00001021A620B4A93420AD0B3F1804F07D01D
:1066B000A2F59432934203D002F58062934204D152
:1066C0009A6802F00702062A03D01A6842F0010213
:1066D0001A607047002C014090F83C3010B5012B37
:1066E00021D0022380F83D30036809685A689C680D
:1066F00022F070020A435A600B4A93420AD0B3F167
:10670000804F07D0A2F59432934203D002F5806205
:10671000934202D124F080049C60012380F83D3034
:10672000002380F83C3010BD002C014070B5826A17
:10673000044686B0002A3BD1634B0168C26299428D
:1067400080F8242003F56C4340F0858099694FF46C
:10675000807541F4007199619B695C4903F4007391
:106760000293029B5A4B4FF4806CC3E900128021C4
:10677000C3E903152021C3E905C14FF480515548F1
:106780001A649A60D9618168D86321F47F5121F03D
:10679000300141F4AD5181609A631D8423625C62D3
:1067A0000F211220FFF7EEFD4FF480224A4B1A60B2
:1067B0002046FDF76BFDA36A13F010037FD100287C
:1067C0007DD1A26A616822F4885222F0020242F06E
:1067D0000202E069A568A262E2680143B5F5807F24
:1067E00041EA420154D06E1E704270410002666957
:1067F000012E07D1002A4DD1A269013A40EA423266
:1068000042F400602268B5F5807F566826F4694638
:1068100040EA060050609668304800EA060040EA08
:106820000100906001D0012D02D12369013B1B05BD
:10683000D06A20F470000343D3629268284B13405F
:10684000994230D10023E362A36A23F0030343F0AB
:106850000103A36231E09A69032542F480629A61E0
:106860009B69204803F480630193019B08230DEB8F
:106870000301CDE90235FDF713FE1023CDE9023502
:10688000FDF70EFE0423CDE90235FDF709FE87E78B
:106890002846ACE7A26A42F02002A262E26A42F015
:1068A0000102E262AEE7A36A23F0120343F0100391
:1068B000A362E36A43F00103E36206B070BDA36A1A
:1068C00043F01003C5E700BF002401400800024068
:1068D000542B00200000024000E100E0FDF7E1FF42
:1068E000FE0E1FFF00080140F0B54FF4804316462E
:1068F0000122002485B0CDE90001CDE90232B44285
:1069000001D305B0F0BD6846FEF730F9019FE8B14C
:106910006846FEF73CF905466846FEF738F9009BE5
:1069200002385A1C00921B78AA1C03EB0023DB439D
:106930003B4402341A449A4201D12C44DFE70199C6
:10694000481C019013F8010B0870F4E7009B013418
:106950005A1C00927A1C01921B783B70CFE7000012
:106960007FB5364B1A78FF2A0DD141F27851344A5F
:10697000B2F8422092B28A4203D04AF2D7118A4238
:1069800030D000221A701B78012B55D80C212D4ACB
:1069900001FB0322517A5368C9090FD0158900936E
:1069A000C5F30E051D44284B012201934FF480438B
:1069B000CDE90232009B9D4216D8234B234A24493D
:1069C0001360244AE833136023484FF4F962FFF759
:1069D0008BFF4FF4C3722149214804B0BDE87040D9
:1069E000FFF782BF0122CDE76846FEF7BFF8019EA0
:1069F000D0B16846FEF7CBF804466846FEF7C7F804
:106A0000009B02385A1C00921B78023403EB0023CF
:106A1000DB4333441C449C42CCD0019A511C01916D
:106A200013F8011B1170F6E7009B5A1C0092721CB0
:106A300001921B783370BDE704B070BD5000002098
:106A4000182E002050B70008722E0020441E00208F
:106A5000D31F0020481E002080C000084D1E0020CB
:106A6000FEBE00080C2210B5094C1F20237801330C
:106A700003F0010323705343064AD15AFEF72CF961
:106A8000FFF76EFF2078431E5842584110BD00BFEB
:106A90005000002050B70008054B1A69120605D5B2
:106AA000044A5A6002F188325A601B69704700BF7D
:106AB00000200240230167452DE9F047FEF724FF3F
:106AC00035232A4D2A4CEB600120FFF7E5FFFDF747
:106AD0009DFBFEF719FF237E012B17D001232376A0
:106AE000FFF708FB80B9E0612B6943F002032B61DB
:106AF000204B6B612B6943F040032B61FFF7FAFADF
:106B00002B6923F002032B6100232376FFF7C4FFD8
:106B10004FF00109184F174D144EDFF86080FEF753
:106B2000F3FE237E012B15D0B7F800A084F818904F
:106B3000FFF7E0FA60B9E061336943F001033361C4
:106B4000A5F800A0FFF7D6FA336923F001033361FB
:106B5000002323760235454507F10207DFD1034ABA
:106B6000136943F080031361BDE8F0870020024001
:106B7000682D002000FC0008182E002058FC00089A
:106B800010B590F83D30044603F0FF020BB980F8D1
:106B90003C200223206884F83D30211DFDF7FEFAD9
:106BA000012384F8463084F83E3084F83F3084F87E
:106BB000403084F8413084F8423084F8433084F81F
:106BC000443084F8453084F83D3010BD022380F80D
:106BD0003D300368DA6842F00102DA600B4A934202
:106BE0000AD0B3F1804F07D0A2F59432934203D07C
:106BF00002F58062934204D19A6802F00702062AE5
:106C000003D01A6842F001021A607047002C01405C
:106C100013B500211920FFF7B5FB4FF000721B4B95
:106C20001B4C1A601B4B20469A6942F400629A6121
:106C30009A6902F400620192019A5A685A685A6885
:106C40005A68154A12685B68144AC3F3C223D25CBF
:106C5000134B21611B68A160D340124AB3FBF2F3CE
:106C6000114A013B226040F2E7326360E260FFF7C5
:106C70008BFA48B994F83D30012B05D1204602B07B
:106C8000BDE81040FFF7A2BF02B010BD00E100E078
:106C9000842C00200010024000200240E6B60008CC
:106CA0004C00002040420F00002C014090F824309E
:106CB000F0B5012B62D001231F2480F824300F6926
:106CC0004D680368EA1B02EB82020F32944044F4E1
:106CD0004014E443BD420E689BBFD3F838C006FAA7
:106CE00002F29A6B07F1FF379DBF42EA07520CEAA6
:106CF0000404224322409A639A68D20707D49A6810
:106D0000CC6922F4E04222F0010222439A608C69AD
:106D1000012C0CD1CA69B2F5E04F0BBF5A68826AE8
:106D200042F4806242F020020CBF5A6082624A69DB
:106D3000012A04D11CBB5A6842F480525A60092EC1
:106D40004FF007048F6806EB46021DD9DE681E3A35
:106D5000944026EA040407FA02F22243DA60022D84
:106D6000C968154C18D0032D1BD0012D1ED15A69AE
:106D700022400A435A61002380F82430F0BD826A21
:106D800042F020028262DAE71E69944026EA040497
:106D900097403C431C61E2E79A6922400A439A61AA
:106DA000E9E7DA6922400A43DA61E4E71A6A224035
:106DB0000A431A62DFE700BF00F0FFFF10B590F84A
:106DC00024300446012B3DD0012380F82430FDF708
:106DD00027FA00283FD1A36A214A23F4405323F025
:106DE000010343F48053A3622368934205D1A2F5C3
:106DF0008062526812F4702F25D1A26A22F48012A8
:106E0000A262A26A12F4807208BFE262002284F8D1
:106E100024206FF004021A605A68520512D49A684E
:106E200002F4E042B2F5E04F11D10D4A934205D190
:106E3000A2F58062526812F4702F08D19A6842F469
:106E400002129A6010BDA26A42F48012D8E79A68D2
:106E500042F40042F5E7002384F82430F2E700BF53
:106E600000280140002337B5019390F824300446F0
:106E7000012B5FD0012380F82430FDF707FA054687
:106E8000002839D1A36A2C4823F4885323F0020345
:106E900043F00203A362294B1A68294B59685B68C7
:106EA000C1F3C221415CC3F38133013322FA01F102
:106EB0005B00B1FBF3F3B2FBF3F252000192019BD2
:106EC000F3B92046FDF7ACF923689A6842F008024E
:106ED0009A601C4A10689968090715D4996841F0AE
:106EE000040199601068996849071ED4A36A23F0C9
:106EF000030343F00103A362002384F8243011E06C
:106F0000019B013B0193DAE71168091A0A29E2D9CA
:106F1000A36A012523F0120343F01003A3620023A8
:106F200084F82430284603B030BD1168091A0A29B4
:106F3000D9D9EDE70225F5E7E6B600084C000020B8
:106F400000100240E83B00202DE9F0471F4BDA8D8E
:106F50001F4B92B29B68C3F38F039B00B3FBF2F30A
:106F60000A229BB2B3FBF2F402FB14339BB2042B54
:106F700088BF0134A4B2092C1FD94FF00A0901239C
:106F8000B4FBF9F8134E194600221FFA88F0B6F93F
:106F90000050FEF76EFA08230F4F09FB18403B80A4
:106FA00001230022194680B23580FEF762FA0023E1
:106FB0000C3535803B80BDE8F08701232046BDE8D5
:106FC000F0471A461946FEF754BA00BF182E0020A3
:106FD000C4290020462900204829002070B5114A04
:106FE000114B9468DB8DC4F38F049BB2A400B4FBF7
:106FF000F3F40A26A4B2B4FBF6F5012300222846D6
:107000000221FEF736FA00210848FEF7D7F80123DF
:1070100006FB1540BDE870400022194680B2FEF71D
:1070200028BA00BFC4290020182E0020C4B50008CB
:107030002DE9FF48AF4FB04CFDF730FB3B6893F8AC
:107040006030022B13D03B683220DA6DDA65012202
:107050003B6883F86020FEF70FFE4FF0E0234FF00F
:107060008052C3F8042DBFF34F8FBFF36F8FFDF72E
:107070002FFBFDF713FB3B68A04D93F86030022B0C
:1070800001BF3A68D36D03F07F43D36500223B68AC
:1070900083F86020FDF71CFB994B95F800A0DA8976
:1070A000B3F82E8012B200921FFA88F8BAF1000FDE
:1070B00012D1DFF850B2DFF85092DBF80830C3F39A
:1070C0008F039B00B3FBF8F39BB2502B36D90B23F5
:1070D00089F8003003232B70009B272BACDD8B4BF2
:1070E0001B68B3F57A7FA7D32B78012BA4D1854BEE
:1070F0004FF480699D68009BC5F38F05AD00B5FB1B
:10710000F8F52DB25D1B05EBD5767610B046DFF8AD
:1071100000A2B8F1000FC0F2AA80012DC6F1000351
:10712000C8BF0023F5184FF48066DFF8E481002D16
:1071300040F0C0806420FEF7D7FD7DE799F800603D
:107140000A2EC7D808220123CDE902230323059381
:107150006F4B02A91846FDF7A3F94FF4A062CDE9E1
:1071600003AA0292FDF79CF94FF4F04220460292E6
:10717000CDE903AAFDF794F94FF40022644B1A619C
:107180000A20FEF7B1FDBAF1820F1FFA8AF158D931
:10719000A3688C2983F40063C3F3C0230ED10321B9
:1071A0000193059100230221CDE903314FF40061E1
:1071B0002046029102A9FDF773F9019BBAF1C70FAE
:1071C00003D00AF1010A002BDAD000224FF0030AA3
:1071D000CDE903224FF40062474802A90193CDF89C
:1071E00014A00292FDF75CF9019B002B39D04FF4FB
:1071F00080624FF08073226108222361444B4FF07C
:10720000010C1A614FF4A063CDF814A0CDE9023C43
:10721000FDF746F94FF480624FF080732261082237
:107220004FF00A0A23613A4B1A61DBF80830C3F3C6
:107230008F039B00B3FBF8F39BB2502B03D90123C0
:1072400049E70023BAE764200AF1FF3AFEF74CFD54
:107250001AF0FF0AE9D1013685F800A089F800602C
:107260003AE7013689F8006085F800A034E74FF46A
:1072700080734FF4002BC4F810901E202361CAF8CD
:1072800010B0FEF731FD4FF08072C4F810900A2064
:107290002261CAF810B0FEF727FD4FF48073C4F8DE
:1072A00010901E202361CAF810B0FEF71DFD08F1F2
:1072B00001082EE74FF480794FF4002A26611E2042
:1072C000C4F81090C8F810A0FEF70EFD0823266140
:1072D0000A20C4F81090C8F81030FEF705FD2661AA
:1072E0001E20C4F81090C8F810A0FEF7FDFC013D68
:1072F0001DE700BF902D002000080140421E002025
:10730000182E0020C4290020431E0020B040002079
:10731000000C01402DE988480020FEF789FB00237E
:107320002024694A694D1360694B1A68694B1A60D9
:107330000520FEF7B5FE0120FEF7FAFBE88D0121DE
:1073400080B2FEF725FB013CF2D1634E4FF4FA60A8
:10735000FEF7A6FE002800F0AE800120FEF7E8FB55
:10736000594B83461C685D4FDFF874A1DFF87491B8
:10737000DFF87481002C00F09780B4F5E17F28BF1E
:107380004FF4E174FEF7AEFBA04202D2FEF7AAFB77
:107390000446A4EB0B040A2C1FFA8BFB05DD39888D
:1073A000ABEB010109B20A2906DDDAF80020A7F8E3
:1073B00000B0C9F800200BE0DAF80020D9F800305E
:1073C000D31A44F62062934202D9012388F8003090
:1073D0004FF47A7B4549DAF800300A6800209B1A9E
:1073E000BBFBF3FBDAF800300B60FEF7F1FAAB8E73
:1073F0009BB243B10A22AB8E9BB253439842C2BFA9
:10740000A88E80B250432823B3FBFBF33268C3F14C
:1074100064035343642293FBF2F35022544394FBDE
:10742000FBF42344834239DD306030682B8D9BB2FE
:107430000BB340F6C4116B8D2D4C9BB24B43DAF865
:1074400000202168521A934209D2FA21AA8DDAF853
:10745000003092B2236001FB0233264A13602B8D69
:107460009BB2984207DA234ADAF8003012689A424F
:1074700084BF288D80B247F6DF721F4B9B68C3F331
:107480008F03934288BF002098F80030002B18BF6C
:107490000020FEF7CDFAFEF737FA57E74042834265
:1074A000ACBF33603060C0E7DAF800203880C9F83C
:1074B00000202046BAE71423104A1380104B18709E
:1074C000104B187042E700BF9C2A0020182E0020A5
:1074D000902D00208C2D0020E0290020D8290020AC
:1074E000B0400020DC290020202C0020E4290020CE
:1074F000EC290020E829002098290020401E0020C7
:107500009B270020882D002038B5124D0446688C3A
:1075100080B2C0B10020FEF70BFB052300EBC000DA
:10752000B0FBF3F303F12000012303211A4680B2DC
:10753000FDF79FFF64B16B8C9BB23BB10020BDE8AF
:107540003840FEF749B9FEF7F3FAEDE70120F6E718
:1075500038BD00BF182E00202DE9F04F9A469C4CF4
:107560009C4B87B01E6894F83D308046202B89469E
:107570009346109F04D00225284607B0BDE8F08F3F
:107580003346192201219448FEF7A4FE0028F2D1C7
:1075900094F83C308B42EED0256884F83C102B6880
:1075A0003A46D80758BF2B684FF001105CBF0B4319
:1075B0002B602B68002123F400632B60222384F8C6
:1075C0003D30402384F83E30844B2164A4F82AA047
:1075D000E362638DC4F824B023852B6843F4806391
:1075E0002B602B6843F480732B603346FEF772FEEA
:1075F00000BB226808F0FE033146384613615FFA8B
:1076000088F5FEF78FFE08B1236C13E02368059020
:107610005A69314605929B6938460593059BFEF7EA
:1076200029FE80B1236C042B04D12268136843F433
:1076300000731360236C042B4FF0000384F83C307C
:1076400078D1012598E7236831463846C3F8109071
:10765000FEF710FE01460028E4D122684FF0011029
:10766000136843F48073136033463A46FEF732FEE4
:107670000028DFD1236845F001051D6131463846F9
:10768000FEF750FE05460028BED1228D23689AB130
:10769000012A27D11A6822F480621A6072B6236820
:1076A00003905A6903929A690392039A1A6842F402
:1076B00000721A6062B609E004905A6904929A69ED
:1076C0000492049A1A6842F400721A60DFF810817A
:1076D000238D1BBB202284F83C3084F83D2084F8A5
:1076E0003E3049E7022A1A680ED142F400621A605D
:1076F00072B6236802905A6902929A690292029ABB
:107700001A6822F48062D4E742F480621A60019021
:107710005A6901929B690193019BD7E7032B61D8BA
:10772000012B09D131463846FEF776FD10B3236CA4
:10773000202B86D103251FE7022B3A4633464FF014
:107740000001404624D1FEF7C5FD0028F2D172B6F3
:1077500023681A6842F400721A601A69636A591C35
:1077600061621A70238D013B2385638D013B9BB2BF
:10777000638562B623681A69636A591C61621A706C
:10778000238D013B2385638D013B9BB263859FE77E
:10779000FEF7A0FD0028CDD12268136823F4806392
:1077A000136072B623681A69636A581C60621A70A3
:1077B000238D3A46013B2385638D4046013B9BB2B6
:1077C00063853346FEF786FD0028C1D0B2E700BFCF
:1077D000242C0020E83B0020020010000000FFFFE6
:1077E0000400010031463846FEF716FD00289ED100
:1077F00023681A69636A591C61621A70238D013B00
:107800002385638D013B9BB2638523685A695207C8
:107810007FF55EAFAFE700BF15490B681A6A22F02B
:1078200001021A621A6A1A62124A93420DD141F297
:107830001112186A104208D140F24442186A1042EC
:1078400002BF5A6C22F400425A6441F21112186AC3
:10785000104208D140F24442186A104202BF1A682E
:1078600022F001021A60012381F83E30704700BF08
:10787000142D0020002C0140037F082B01D1FFF7BD
:10788000CBBF704710B5036804461A6991070ED53F
:10789000DA6892070BD56FF002021A6101220277B3
:1078A0009B699B0701D1FFF7E7FF0023237723683C
:1078B0001A69500710D5DA6851070DD56FF0040228
:1078C0001A61022222779B6913F4407F02D120467D
:1078D000FFF7D2FF0023237723681A6912070FD519
:1078E000DA6810070CD56FF008021A6104222277BB
:1078F000DB69990702D12046FFF7BEFF00232377FB
:1079000023681A69D20610D5DA68D0060DD56FF053
:1079100010021A6108222277DB6913F4407F02D13A
:107920002046FFF7A9FF0023237723681A69D107B0
:1079300037D5DA68D20734D56FF001021A612368AF
:10794000B3F1804F2ED11B4A1B4C13882168013B99
:107950009BB21380194B1B78DBB20B640B6C83B1A9
:1079600013889BB26BB11648FEF78CFE154B164A76
:107970001B781178994214D033B1BDE81040FDF75F
:10798000DFBFFFF749FFF1E7137040F20D120F4B15
:107990001A802368DA624FF483725A6341F2045208
:1079A0009A6210BD0A4A934201BF0A4A1368013322
:1079B0001360F6E7401E0020CC2C0020882D00200C
:1079C000142D00209B2700209C270020702E0020D3
:1079D000002C0140E83B002090F83C30F0B5012B32
:1079E00032D003680E681A6A22F001021A621A6A1B
:1079F0005D689C6922F0020224F0730434438E68AF
:107A00003243124EB3420BD1CE6822F00802324309
:107A100025F44075D1E905673E4322F00402354361
:107A20005D609C614C6809695C631A629A6942F006
:107A300008029A619A6922F004029A619A690A43DB
:107A40009A61002380F83C30F0BD00BF002C01405B
:107A5000024BC0220021186803F070BD7828002076
:107A6000F8B5036805460E46002B39D102600120A7
:107A7000334601211F784C1EA4B2002F32D104EBF3
:107A80004404A400A4B2602C37D92B68D21A1F4B2F
:107A90009B8C9BB2012B0CBF0A231423B2FBF3F285
:107AA00004F1600312B292FBF3F103FB11225F2A8F
:107AB00029DDA24225DC14B2B5F90430A3420ED070
:107AC000FFF7C6FF124BC4F160021A800022114B6F
:107AD000304601211A80FDF771FB0120AC80F8BD12
:107AE0000020C5E7F02F03D80133013189B2C1E787
:107AF0005F78002FC3D00233F7E7C4F1600304EBD3
:107B0000630424B2D8E76024D6E700BF182E002013
:107B10004629002048290020F8B545F2AA54234BF5
:107B20001A8892B2A2423AD018465822FF2103F096
:107B300005FD0480034601245A6D01321CBF4FF03D
:107B4000FF325A655A8818BF012492B2262A08D8F3
:107B50004FF6FF715A8892B2262A22DD272201248D
:107B60005A800022124903EB4206B5880F88ADB255
:107B7000AF424FEA420004D8B5884E88ADB2AE425B
:107B800003D2CC881844848001240132272A01F1D1
:107B90000801E8D10CB1FEF78FFF2046F8BD0024A4
:107BA000CAE703EB420081800132D5E7182E00209E
:107BB000C6BD00082DE9F3410646DDE908040F467D
:107BC000984640B94FF0500383F31188BFF36F8F8D
:107BD000BFF34F8FFEE70CB9FCF756FD642301930A
:107BE000019B642B08D04FF0500383F31188BFF33F
:107BF0006F8FBFF34F8FFEE795002A46A5212063C4
:107C0000019B03F09BFC226B043D2A4422F00702F7
:107C1000002F00F096807B1E04F134011F3713F80B
:107C2000010F01F8010B08B1BB42F8D1002384F821
:107C300053304346052B28BF0523E3626365C3F138
:107C400006030021A3614FF08073A1656161A16209
:107C500024616462E16584F8601042F8043C404BA2
:107C600026F0010642F8086C42F80C3C42F8201C51
:107C7000403A2260FCF712FD3A4A3B4D13683B4EF6
:107C8000013313602B68002B5ED12C601268012A2F
:107C90002ED132464FF0FF3C14201F4602F108015E
:107CA000C2E9011CC2E9031100FB03F10133062BF9
:107CB000775002F11402F1D12D4A02F10803C2E912
:107CC000013CC2E903332B4B176003F10801C3E900
:107CD000011CC3E9031128491F6001F108000F606E
:107CE000C1E9010CC1E9030024490A60244A136078
:107CF000244A254913680868013313600123E26AA6
:107D00009340034314200B6000FB0260211DFCF72D
:107D10007DFDFCF7DDFC1D4B1B6873B12B68DA6A37
:107D2000E36A9A4209D24FF0E0234FF08052C3F841
:107D3000042DBFF34F8FBFF36F8F204602B0BDE815
:107D4000F08184F8347074E7104B1A68E36A002AF3
:107D5000CED12A68D26A9A4298BF2C60C8E700BF89
:107D600065460008EC3B0020902D00209C2D002053
:107D7000003C0020143C002098400020942D00205E
:107D8000982D0020F43B0020F83B0020AC40002060
:107D900037B50446D0E90010A569B4F90830226966
:107DA00001956469842B0CBF002303330094FFF713
:107DB00001FF03B030BD00002DE9F843044640B98F
:107DC0004FF0500383F31188BFF36F8FBFF34F8FD2
:107DD000FEE7056C45B14FF0500383F31188BFF304
:107DE0006F8FBFF34F8FFEE7FCF700FDFCF756FCEB
:107DF000A26BE36B9A4273D2226CA76B002A5FD10D
:107E00002368B3B100250137A763636A002B65D0EF
:107E100004F12400FCF72EFE002861D04FF0E0238F
:107E20004FF08052C3F8042DBFF34F8FBFF36F8F15
:107E300056E0A5681DB900250023A360E3E72A4B9F
:107E40001B689D4208D04FF0500383F31188BFF3A5
:107E50006F8FBFF34F8FFEE7AB6D43B94FF0500309
:107E600083F31188BFF36F8FBFF34F8FFEE7D5F811
:107E70002C906E6D013BB145AB65DCD0002BDAD1A7
:107E800005F104084046FCF7E4FC184B30B9012129
:107E90001A6801FA09F122EA01021A60C6F1060223
:107EA000EE62AA6101251420196805FA06F20A4358
:107EB0001A600F4B414600FB0630FCF7A7FCBBE7FE
:107EC0002946606803F042FB6368226C1344A26891
:107ED0006360934296D32368636094E7002D9DD13D
:107EE000BDE8F843FCF7F4BB902D0020F83B0020E0
:107EF0009C2D0020014B1868FFF75EBF4C29002025
:107F00002DE9F34105460E4617469846FDF760FFFA
:107F1000044670B14FF4FA733A4600933146434633
:107F20002846FFF719FB40B1FEF754FB0024FFF78A
:107F3000E1FF204602B0BDE8F081FFF7DBFFF8E784
:107F40002DE9F04385B0814688468DF80720FDF77E
:107F50003FFF0646002851D06A4F6B4C3D6894F8AD
:107F60003D30202B45D12B46192201216748FEF7D1
:107F7000B1F900283DD194F83C308B4239D02368C8
:107F800084F83C101A684FF00110D2075EBF1A68DF
:107F90000A431A601A68002122F400621A60212341
:107FA00084F83D30402384F83E300DF107036362CE
:107FB000012321646385A3F10113E362638D2268C9
:107FC0002385136843F4807313602B464FF4FA72D1
:107FD000FEF780F948B9236829464FF4FA70C3F8D0
:107FE0001090FEF79FF968B1236C236C002384F88E
:107FF0003C30FEF7EFFA0026FFF77CFF304605B075
:10800000BDE8F083236803905A69294603929B696F
:108010004FF4FA700393039BFEF72CF940B1236CE5
:10802000042BE2D12268136843F400731360DCE789
:108030002368C3F81080238D9BB92268536913F01D
:1080400004033FD0136843F400731360202384F8C3
:108050003D30002384F83E3084F83C30FFF74AFF7F
:10806000CCE729464FF4FA70FEF704F940B1236CCF
:10807000042BBED12268136843F400731360B8E781
:10808000616AD4F800C04B1C63620B78CCF81030E6
:10809000638D228D013B501E9BB280B2208563858B
:1080A000DCF814305B07C6D50028C4D08B1C636293
:1080B0004B78023ACCF81030638D2285013B9BB29D
:1080C0006385B8E7516911F480610FD06FF4806166
:1080D0005161042121642363202384F83D3000236F
:1080E00084F83C30236C042B83D1C4E73B685B1BD2
:1080F000B3F5FA7FA2D9236C43F0200323642163F4
:10810000EAE700BFE83B0020242C0020020010001A
:1081100010B50C4CB4F8460080B2003818BF0120EE
:10812000FDF75DFBB4F8463080219BB2002B14BFF5
:10813000A722A622044B782083F84020BDE81040F7
:10814000FFF7FEBE182E0020000000202DE9F041B0
:10815000804617460C460026404662782178FFF795
:10816000EFFE054640B1A07808B1FCF74FF80136A4
:10817000B74204F10304EFDC2846BDE8F0810000BB
:10818000192310B50C4C0221B4F8480080B2B0FBA2
:10819000F3F0012301301A4680B2FDF76AF9B4F812
:1081A00048300649022281F82E307820BDE8104080
:1081B0002A31FFF7CBBF00BF182E0020000000209F
:1081C00030B585B00546FDF703FE044668B14FF4AF
:1081D0007A730F2100932846012303AAFFF7BCF905
:1081E000B0FA80F46409FFF785FE204605B030BD83
:1081F00073B506460D46FDF7EBFD00284DD0002374
:108200000193274B93F83D20202A13D146F2A81161
:10821000244A1268B2FBF1F219214A4301921A680A
:10822000019C611E019164B920221C6383F83C40CB
:1082300083F83D20FEF7CEF902B0BDE87040FFF7AD
:1082400059BE91698807EBD493F83C100129F1D00D
:1082500011680020C9075EBF116841F0010111607B
:10826000116821F400611160212183F83D10102173
:1082700083F83E100C4918645D85D962598D5E62A1
:10828000198578215964116841F48071116083F86F
:108290003C00536843F4E063536002B070BD00BF1C
:1082A000242C00204C0000200000FFFF08B5FCF744
:1082B0007DFC28B1BDE80840D1210248FFF798BFF6
:1082C00008BD00BF9E2700202DE9F74F07465A4DF5
:1082D000DFF8689101916B8C9BB2002B00F08180DC
:1082E000002F7CD1EA88AB8892B29BB2934228BF20
:1082F00013461F2B73D9092203EB8303A03BB3FB67
:10830000F2F3C9F80030688C80B2002873D00020E6
:10831000FDF70EFC052300EBC000B0FBF3F42034A6
:10832000A4B20026FFF794FB4549B5F82080454AE2
:10833000454BD1F800B045491FFA88F8D1F800A0A4
:1083400016801E80B8F1000F5BD0BBF820003146CC
:108350005044FCF733FF3B4ABBF82200168008224A
:10836000394B314650441A80FCF728FF0321012382
:1083700032462046FDF77DF8698C89B200293ED04F
:1083800031463348FCF71AFF00213248FCF716FF4C
:10839000FEF724FE00213048FCF710FFFFF786FFB0
:1083A000FDF7C0FC0198FCF765FCA8B16B8B9BB294
:1083B000002B3BD0294B1968002937D0284B1A686D
:1083C0006B8B521A4EF660219BB24B439A422DD9C9
:1083D00000230120C9F8003003B0BDE8F08F00236E
:1083E0008FE7002F8DD1EA88AB8892B29BB293427F
:1083F00028BF134685E7FDF79BFB84B291E7194838
:10840000C0E7BBF81E0001215044FCF7D7FE012352
:1084100003211A462046FDF72CF86B8C9BB21BB14A
:108420004046FDF7D9F9B9E70120FAE7FCF794FDDA
:1084300008287FF450AFCBE7182E00209C2A00209C
:10844000441E00204629002048290020481E002004
:10845000C6B5000894B60008C8B50008602D002015
:10846000B04000202FB6000838B505460C46FFF78F
:10847000EFFA2846FCF75AFFFFF718FF2046BDE841
:108480003840FDF753BC00002DE9F84F0024664B3F
:10849000664FA046D7F800901C60FCF75DFD051BF9
:1084A00018BF0125A246624BA3F800A0614BA3F8B8
:1084B00000A0FFF7CDFAFCF74FFD002800F0A080E8
:1084C000D7F8009015B10024234622E0042800F0DC
:1084D0008A8009D80228584B00F0818002D80128F0
:1084E00000F08C802B4614E0082803D01028F9D126
:1084F000BDE8F88F3A68A4EB08031344B3F5967F00
:10850000F0D94D4B1B8F5B422134D7F800801BB252
:10851000E4B2494EC4F59672632AF28ED8BFC824DD
:1085200092B20AB15B421BB2DBB1B18883EAE3725B
:10853000A2EBE372194409B213B291FBF3F1514378
:10854000738C09B29BB2002B5DD0322940F25233BA
:10855000B8BF32219942A8BF1946002089B2FCF762
:10856000BBFB3B68A3EB0903B3F5FA6FC0D8334BF1
:10857000012193F800B0F38E9BB2BBF1000F4BD1F9
:108580002F48304A002B08BF1046FCF717FE012188
:108590002D48FCF713FE0123B0881A46032180B250
:1085A000FCF767FF738C9BB2002B38D00020FDF7DF
:1085B00013F901212448FCF701FEF38E01219BB23F
:1085C000BBF1000F2DD11F481D4A002B08BF1046DC
:1085D000FCF7F4FDFFF76AFEFDF7A4FB63E75B8F92
:1085E0005B421BB295E73A68A4EB08031344B3F56A
:1085F000967F7FF677AF104B1B8F85E75B8FF0E799
:108600000446054660E70A29B8BF0A21B1F5E17FB3
:10861000A8BF4FF4E171A0E70A48094AB2E7012078
:10862000C5E70748074AD0E79C2A0020B040002051
:108630004629002048290020182E002084280020E8
:10864000CAB50008CCB5000894B600082DE9F74F6C
:10865000002840F0B98000231D46A74CDFF89CA2FB
:108660000093FCF779FC009B002B00F0D180E38C99
:108670009BB2002B00F0CC80042800F0F28000F2C6
:10868000B380002800F01081032840F0B680FFF787
:10869000DFF9218C9A4B89B293F800B0994F9A4E2A
:1086A000DFF86892002900F04D81BBF1000F0CBF8C
:1086B00032234FF0FF334FF0000801203B80A6F833
:1086C0000080FEF721FF638A9BB25BB323899BB2D4
:1086D00043B3C3450CBF20232F238D493B80A6F80D
:1086E0000080FCF7AFFA0A688A4B8B491B6809685F
:1086F0008A422CBFC3EB0203C3EB01031844874B30
:10870000984240F2D3804EF66023B0FBF3F0013084
:10871000022180B201234246FCF7ABFE414680486D
:10872000FCF74CFD5DB1BBF1000F0CBF26233723D6
:108730003B80082300217B483380FCF73FFDBBF1E1
:10874000000F14BF432300234FF0000BD9F80000A3
:108750000193B0F57A7F3B80A6F800B0C0F0B480FA
:1087600059467148FCF72AFD0A23D9F800005A46F9
:10877000B0FBF3F00321012380B2FCF77AFE002165
:108780006A48FCF71BFD019B3B8008233380FEF702
:1087900025FC00216648FCF711FDFFF787FD638C7F
:1087A000644E9BB2002D00F02381002B00F01D8150
:1087B000238E9BB21F2B40F2FD80092203EB830323
:1087C000A03BB3FBF2F3F6E0831E5842584101216F
:1087D000FFF77AFD01287FF43EAF4E4B1A684C4BF1
:1087E0001A6003B0BDE8F08F20282DD03FF64FAFC0
:1087F000082802D010287FF44AAF4F4BDAF8000067
:108800001B684FF4FA71DB891844FFF72DFE3EE731
:10881000042832D010D8002846D003283FF437AFC0
:10882000A688FFF731FEA388B6B29BB2B3423FF4ED
:108830002EAFFEF741F92AE71028D2D0202822D007
:1088400008287FF424AFCCE73B4BDAF800001B6824
:108850004FF47A719B891844FFF706FE00230093BA
:1088600015E7238E9BB2002B3FF411AFE38C009AE7
:108870009BB2012B08BF154609E7238E9BB2002B44
:1088800018BF012503E7E38C9BB2002B3FF4FFAE3A
:10889000294BDAF800001B684FF47A715B891844A1
:1088A000FFF7E2FD0123DAE70546F0E64FF47A73BD
:1088B000B0FBF3F00130022180B201234246FCF705
:1088C000D8FD41461D482BE74FF00A08B0FBF8F0F1
:1088D00001235A46022180B2FCF7CBFD59461848C5
:1088E000FCF76CFCD9F800005A46B0FBF8F308FB23
:1088F0001300012319463FE7182E0020481E0020D0
:10890000842800204629002048290020FC3B002024
:108910005C2D0020B0400020602D0020B8820100B6
:10892000CEB50008CAB5000894B60008BEB5000868
:10893000C8B500089C2A0020441E0020A4B60008E8
:10894000C4B5000839803180BBF1000F19D1FEF7A2
:10895000FBFA2F480121FCF731FC0120FEF7D4FD82
:1089600055B10220FCF738FF0021D9F80000FDF7CF
:1089700045F8FCF777FF10E701212548FCF71EFCBE
:10898000F2E7D9F80000FDF739F8FCF76BFF65B1A5
:108990000220FCF721FF0120FEF7B6FD01211C4853
:1089A000FCF70CFCFEF7D0FAF7E601211848FCF7BB
:1089B00005FCF0E7002300203360FCF75BF9E0B929
:1089C000144F00203368FDF7B3F83B78E3B100247F
:1089D000114B124A1B6810681B8A42F2107118442E
:1089E0003460FFF741FD3C70FBE6238E9BB2E2E76B
:1089F0000BB1A388DDE6A388F8E700210846FFF75E
:108A000063FC0028DCD0ECE6FDF78CF929E600BF1A
:108A100094B60008202C0020441E0020481E002090
:108A2000002373B500934FF6FF7304460C4EADF868
:108A30000430214668463268FFF712F80546FCF715
:108A40008BFA38B9002DF4D0FFF730FC2820FDF761
:108A50004BF9EEE7431E5842584102B070BD00BFCB
:108A6000B040002008B50B4BB3F84C309BB273B943
:108A7000094B0A4A1B6810685B8A1844FFF7D0FF4D
:108A800018B101212420FCF727F9002008BD00219E
:108A9000F8E700BF182E0020441E0020481E0020CA
:108AA00038B50D4B1D680D4BE88A1C682044FFF754
:108AB000B7FF80B15822FF21094802F03FFDFFF7C0
:108AC0002BF8FDF7F9FF688840F6B8312044FFF72E
:108AD000CBFCFCF707FF38BD441E0020481E0020D9
:108AE000182E00202DE9F047FEF7B2FF4FF00007E7
:108AF000374E384A384D9468EB8DC4F38F049BB2DF
:108B0000A400B4FBF3F44FF00A0AA4B20123B4FBAF
:108B1000FAF9DFF8C8801A46022148463780A8F8DB
:108B20000070FCF7A6FC01212D48FCF747FB012251
:108B30000AFB19401146002380B2FCF79AFC012180
:108B40002848FCF73BFBFCF707FA02282AD007D895
:108B5000012823D0FFF7AAFB2820FDF7C5F8C8E7B6
:108B60001028F7D8204C044114F00104F2D1FDF78D
:108B7000A3FFFEF76DFF0123E88D1A46032180B2A3
:108B80003480A8F80040FCF774FCFFF78FFB4FF42B
:108B90007A70FDF7CBF82046BDE8F0871520FCF78A
:108BA000B1F8D7E7EB8D9BB2B3F5B47F04D14FF4A6
:108BB0006173EB85EB8DCDE7EB8D9BB2B3F5B57FA4
:108BC00029BFEB8D4FF4B47303F1FF339BB2F0E791
:108BD00046290020C4290020182E00204829002002
:108BE000BEB50008D0B50008EFFEFEFF08B5094A83
:108BF0000346117881420BD010700748523B4370F6
:108C00001021FFF7F5FABDE808400A20FDF76CB81F
:108C100008BD00BF9D2700209E270020F8B5164FF5
:108C200080F001053B780446AB4223D0002D15BFF0
:108C3000A123A023C826C026104919220B770E7441
:108C40007820FFF783FA0A20FDF74EF8002D0CBFBD
:108C50007F235F230A486401C37144714672D121A6
:108C60003D70FFF7C5FA0A20FDF73EF8BDE8F84071
:108C7000FBF79CBFF8BD00BF842800200000002047
:108C80009E2700202DE98048142091B0FDF72CF894
:108C90000023BA4C3A202360FFF792FA38B10D2234
:108CA0003A20B749FFF752FA002840F033813220CA
:108CB000FFF786FAA8B100230F218DF8303032205B
:108CC00001230CAAFFF71CF958B19DF83030332B63
:108CD00007D10C223220AB49FFF738FA002840F0C8
:108CE0001C813020FFF76CFAA0B100210123302055
:108CF0000CAA8DF83010FFF703F958B19DF8303009
:108D0000F82B07D1082230209F49FFF71FFA0028CF
:108D100040F006813020FFF753FA002800F0DC8095
:108D2000002501230F2130200CAA8DF83050FFF7C9
:108D3000E7F8002800F0D0809DF83030112B40F08B
:108D4000CB800C223020914B91491D70FFF7FEF92A
:108D5000002840F0E8804C20FFF732FA38B10522B5
:108D60004C208C49FFF7F2F9002840F0DF80002109
:108D70000720FBF7B1FF4FF001083220C4F8008054
:108D8000FCF7B2FF0022844B1A60844B1B8B9BB212
:108D90001BB14FF4FA60FCF7A7FF102200210CA8CA
:108DA00002F0CCFB1022002108A802F0C7FB102221
:108DB000002400210DEB020002F0C0FB26462746EE
:108DC0000325A146C82240F6E44A744BB8F1020FCD
:108DD0005B8A9BB202FB13A3019340F0AA80062397
:108DE000012102AA3A20FFF78BF8012310213A2033
:108DF00002AABDF80840BDF80A60BDF80C70FFF784
:108E00007FF89DF908309DF80850002BE4BAF6BAB7
:108E1000FFBA80F25281C5F34105604B1B8A9BB2B9
:108E2000022B06D1032D04D0B5FA85F04009FFF7D7
:108E3000F5FE5B4910AB03EB490323F8104C23F814
:108E4000206C23F8307C0B7809F1010933B95FFA03
:108E500089F3082B40F0358101230B700022082094
:108E60001146134609F007090DF1300B0DF1200AE8
:108E70000DF1100C3BF902EB013873443AF902EBA7
:108E800010F0FF0071443CF902EB7244F2D1002B68
:108E9000B8BF0733C4EBE303002BB8BF5B42002924
:108EA000B8BF0731C6EBE1010029B8BF4942002A2B
:108EB000B8BF0732C7EBE202002AB8BF52420B44E8
:108EC0001344019A64209A42BFBF364B1A68324B52
:108ED0001A60FCF709FF75E73220FFF771F90028E7
:108EE0003FF439AF00230F218DF8303032200123B9
:108EF0000CAAFFF705F800283FF42DAF9DF830309D
:108F0000112B7FF428AF0122204B32201A70264902
:108F10000C221BE74FF002082FE74FF003082CE765
:108F20004FF0040829E74FF0060826E74FF0050840
:108F300023E7B8F1030F39D10623A82102AA322072
:108F4000FEF7DEFF0123B521322002AABDF9084059
:108F5000BDF90A60BDF90C70FEF7D2FF9DF808500C
:108F6000AD08082D00F0A980012D3FF456AF022D69
:108F700008BF002518BF03254FE700BF9C00002055
:108F800047B800086EB8000892B800084A290020C7
:108F9000AAB8000838B80008602D0020182E00205C
:108FA000F2290020B0400020A1BD0008B8F1040F54
:108FB0002AD14A4B022118689B880290ADF80C30E8
:108FC0003020062302AAFEF79BFF0446C8B19DF895
:108FD00009409DF80B609DF80D70A401B601BF011A
:108FE000012302AA0C213020FEF78AFF9DF80830E9
:108FF0001A099B0661D412F0030F0CBF012500254E
:109000000BE706460746EBE7B8F1050F24D1062328
:10901000022102AA4C20FEF773FF0023BDF908408D
:109020000C218DF808304C20012302AABDF90A60FA
:10903000BDF90C70FEF764FF9DF80830A410602B9A
:109040004FEAA6064FEAA70704D0702B14BF0325EA
:109050000025E2E60125E0E6B8F1060F7FF4DDAE7B
:1090600000230293ADF80C301D4B02AA1D78434635
:10907000002D15BFA821282132203020FEF740FF07
:109080000446B8B1BDF90840BDF90A60BDF90C70DD
:10909000002D14BF322030200123352102AAFEF713
:1090A0002FFF9DF80850AD08022D08D005F03B05B4
:1090B000012D5FE706460746EAE70325ADE60025F2
:1090C000ABE610AA02EB4302013322F8104C22F85F
:1090D000206C22F8307CDBB2BBE600BFB4B50008E0
:1090E0004A29002010B50620FBF70CFE054B04466C
:1090F0001B8A98B218B1012801D0204610BDFFF795
:109100008DFDFAE7182E00202DE9F04F0024314B99
:1091100085B01A68019002921A6802994FF4FA70A9
:10912000A2EB010B642202FB0BF1B1FBF0F1C9B21F
:109130002546C1F1960449434C4341F2883194FBE2
:10914000F1F46021E4B24C43B4FBF2F4E4B28C429B
:1091500028BF0C460A1B0199A1BB2646DDF80480F6
:10916000D7B21D4B0392D3F800A00AEB05010AEB1E
:10917000060002F0F9F91949039AD1F8009009EBB9
:10918000050109EB060002F0EFF9154B2246D9194B
:109190000AEB080002F0E8F9124B2246D91909EB54
:1091A000080002F0E1F9FFF781F80E20FCF79CFDC2
:1091B000FBF7D2FE18B9BBF5FA7F064BACD905B068
:1091C000BDE8F08F0026651B3746EDB25FFA82F8E6
:1091D000C7E700BFB0400020782800207C2800208E
:1091E00085280020E52800202DE9F04F00240125E6
:1091F000AF4B95B01D7009908DF82E408DF82D4025
:10920000FBF76DFE4FF6FF732746CDE90C54CDE911
:109210000344CDE90144DFF89C92DFF89CA205905D
:10922000ADF83830069514239DF82E6073430793EC
:10923000079A099B03EB02080893D8F8083013B18A
:109240009DF82D3013B115B0BDE8F08F0C9D8DF851
:109250002F30002D72D0994BDFF864B2994ACBF8C9
:10926000003060331360D8F80C308BB19847954AC2
:1092700070B9029B01360133DBB20293924B049D1D
:10928000CBF8003060338DF82E6013600495CAE788
:1092900001228E4B022D1A7005D18B4B894ACBF8D7
:1092A0000030603313600023894A1380894A138099
:1092B000FEF7CEFB98F8121019B198F81100FCF7E0
:1092C00045F8D8F808309847022D40F0B1800022C8
:1092D000ADF843204FF40652ADF83C2080228DF8C3
:1092E0003E208DF840204022DFF8ECB109219BF8A8
:1092F00007300FA88DF842208DF83F308DF84130AF
:10930000FEF776FF9BF80D50AB1C03F007038BF8BC
:109310000D3001338BF80F30ED00FEF7C7FFEDB2D3
:109320001420FCF7E1FC6B1C10355FFA83FBEDB2F7
:109330005D4566D20023654A0C931370DAF800206D
:10934000D9F800309B1A40F6B73293427CD9DDE958
:109350000723995C002977D0604BD9F800201B685F
:109360000DA803EB41035E49B3F842300968194484
:10937000FEF776FB069B03B920B1FEF797FF282086
:10938000FCF7B2FCFBF7E8FD049B0546834218BFDF
:1093900000270DF12F030F9309AB10930DF12E034E
:1093A00011930DF12D03129304280CAB139300F0CD
:1093B000BD8000F29B80012800F0A780022800F009
:1093C000AC80C7F59673632BDAF80020D9F800302B
:1093D00098BFC8279B1A434A934208D901238DF8A6
:1093E0002D3000230D934FF6FF73ADF838309DF804
:1093F0002F301BB10998FBF772FD059000230693EF
:1094000044E7FBF7A9FD002818BFAB46364B0BF02D
:109410003F0242F040025A7680217820FEF790FD0C
:109420000E20FCF761FC0BF101035FFA83FB7FE781
:10943000254B244ACBF80030603313606B1E584232
:109440005841FFF761FE75E70023214A1380214A46
:109450001380FEF7FDFA98F8121019B198F8110070
:10946000FBF774FFD8F8083098471CB1039BE3B1B1
:10947000002303931022059B0599B2FBF3F201230D
:109480009340029A013BB21A120192FBF1F29BB295
:10949000D2B293400A4A126882F85F30094AC3F395
:1094A0000723126882F85F3067E7039465E700BF1F
:1094B000C0290020B04000205C2D0020852800201D
:1094C000782800207C280020AF2700204C1E002098
:1094D00046290020482900209E270020441E002005
:1094E000481E0020C0D401000000002008283AD007
:1094F00010287FF466AF01238DF82D3000230D93E3
:109500004FF6FF73ADF838305BE70D9B002BF5D1BC
:109510000FA8FBF7FBFC044653E70D9B002BEDD196
:1095200001361C468DF82E600C904AE7D9F80030C1
:10953000019A3B4402F5967293427FF642AF0FA820
:10954000FBF7E4FC041E14BF4FF47A720022D9F832
:109550000030D318019300230D934FF6FF7321378A
:10956000ADF838302DE7D9F80030019A9B1A3B440A
:10957000B3F5967F7FF625AF022301360C938DF865
:109580002E60D9F80030E5E72DE9804889B0FDF775
:10959000E7F90023B34ADFF8D0B2DFF8D0A21370A6
:1095A000ABF80030B24AAAF80030B24B1360B24AAE
:1095B00003F160011160B14A113B02F1100152F850
:1095C000040B8A4243F8040BF9D100241278AC4D05
:1095D0001A70192229467820FEF7B8FD002818BF16
:1095E0000B240134092CF4DDA64C0120FFF7FEFA10
:1095F000A34DB4F84830022285F82E3005F12A0137
:109600007820FEF7A3FDB4F8463080219BB2002BF2
:1096100014BFA722A622782085F84020FEF790FCF0
:10962000FBF7DAFAFCF76EFA208A00F00100FFF788
:10963000F5FAB4F84C309BB2002B66D0FEF736FE3C
:109640003220FCF751FBFCF78DFA064600285CD16E
:10965000FCF76EFA05463046FCF720FA0A23B0FB09
:10966000F3F080B22D1A002DB8BF6D42092D4CDCED
:10967000DFF8148200252F462E46FCF743FA0744F4
:10968000FEF7E6F9814B00211B68AAF800600393FE
:109690007F4BABF80060D3F80090039B988A484456
:1096A000FBF78CFD082300214046ABF80030AAF8F8
:1096B0000060FBF783FD0023C5F38502D9B28A421F
:1096C0006FD8FEF7F3FD01356420FCF70DFB102D7C
:1096D000D3D10121C7F30F10FBF78EFC81B2002913
:1096E000C8D01720FBF7F8FAFEF7B2F9039B40F653
:1096F000B83118884844FEF7B7FEFEF7D7FD0021C1
:109700002420FBF7E9FAFDF7D7F9B4F84A309BB209
:109710000BB3B4F84A309BB2042B1CD8238B9BB2FA
:10972000CBB1238B9BB2022B15D8638C9BB2002B41
:1097300041D0E3889BB21F2B81BF092203EB830337
:10974000A03BB3FBF2F398BF00239BB24B2B28BF87
:109750004B23504A1360504BD3F800284F4B9A428A
:109760002BD14F4A4F4B11464F481D7802334D7451
:1097700013F8035C83428D7401F10201F5D14B496A
:109780001878023382F8710013F8030C8B4282F8C8
:10979000720002F10202F3D1FEF788FDFCF7E4FA51
:1097A0004CE000214046CDE90423FBF707FD059B73
:1097B000049A013382E7E388C7E73D4A1378AA2B6E
:1097C0003CD1B4F84A309BB2002B37D001264FF081
:1097D000600953780393FEF73BF9FBF7BDFB039B4E
:1097E0009B000493334BDFF8CC80F55CB044FF2D35
:1097F00066D1002108F1010300936022102308467E
:10980000FBF74CFC6025FEF751FD6D000135FEF7BE
:109810004DFDFBF7A1FB039B07462E4413B10498B3
:10982000FCF762FAB4F84A309BB22BB140F2FD3338
:109830009E42B3DC002DB1D0002FD3D0FEF708F943
:10984000FEF734FD1C4B1B784BB1104B104A1B68C4
:1098500010689B8842F210711844FEF705FE174D00
:1098600058E000BF84280020482900204629002015
:1098700078280020AF2700207C280020B0BB0008FB
:1098800000000020182E0020C4B50008441E00204F
:10989000481E00209C2A002000F0000855AA0DF068
:1098A0009E27002005F8000865F80008C5F80008A4
:1098B00000F8000801F80008142E00209C00002089
:1098C000FE2D22D0002DA2D0002708F101036D0843
:1098D0000593AF4297DA059B012213F81700013771
:1098E00018F817305F288DF81F30B0FBF9F394BFDC
:1098F0000021012109FB13000DF11F030093C90092
:109900000823C0B2FBF7CAFBE3E701257FE7052088
:10991000FCF7EAF92B68002BF9D0012B12D1E38F69
:109920009BB2012B0ED81D20FBF7ECF9FDF7C4F814
:10993000AE4BAF4A1B681068DB8842F210711844C6
:10994000FEF792FD238B9BB2002B00F09D80208BB5
:1099500001240138C0B2FEF779FEFBF73DF9002380
:109960000393FBF7F9FA0546002840F08F800027A3
:109970003C4600259F4BA04E1D60F08D294680B2CD
:10998000FCF706F82846FCF7D3F880460120FFF7DD
:109990002DF9B8F1310F12D8738A9BB27BB1974978
:1099A000974A0B6812689B1A4EF66022934206D9BA
:1099B0000B68944909685B1A934200F2A98101205F
:1099C000FFF714F9FEF744F88F4B4FF000091D78AC
:1099D000F18B002D0CBF32234FF0FF3389B2AAF870
:1099E0000030ABF80090002900F0D881FCF7BAF8FD
:1099F000002800F09981002D40F08C81834B2A22B1
:109A00000093294610233620FBF748FB4FF0FF3325
:109A10007F4AAAF80030F38D96689BB2C6F38F0692
:109A2000B600B6FBF3F64FF00A09B6B20123B6FB57
:109A3000F9F81A4602214046FBF71BFD0121754843
:109A4000FBF7BCFB012309FB18601A46194680B2DC
:109A5000FBF70FFD002D14BF5B233023AAF8003065
:109A60000823ABF8003000216B48FBF7A7FB002F61
:109A700000F02282694B6A4A00201360694A603311
:109A80001360FFF741FB6CE71C4666E70120FFF718
:109A9000ADF8002C40F03A81022D00F02A8104D864
:109AA000012D00F01C81274663E7042D00F0128190
:109AB000082DF8D15C4F5D4EDFF840814FF0000972
:109AC0000825FDF7C5FF49463846AAF80090ABF8CF
:109AD0000090FBF773FB494656F82400AAF8009063
