:020000040800F2
:1040000000500020514100089941000899410008E2
:1040100099410008994100089941000800000000FA
:10402000000000000000000000000000C16E000859
:104030009941000800000000F16E0008B976000800
:1040400099410008994100089941000899410008E8
:1040500099410008994100089941000899410008D8
:10406000994100089941000899410008E56D000850
:1040700099410008994100089941000899410008B8
:10408000596E0008656E00084573000899410008E4
:10409000994100089941000899410008C574000839
:1040A00099410008F16D0008994100089941000804
:1040B0001D6E0008FD6D0008396E0008A979000822
:1040C0003D7E000899410008994100089941000887
:1040D0009941000899410008994100089941000858
:1040E000994100089941000899410008000000002A
:1040F00000000000000000000000000000000000C0
:0C41000000000000000000005FF8E0F18B
:1041100010B5054C237833B9044B13B10448AFF301
:1041200000800123237010BD100200200000000059
:1041300058CA000808B5034B1BB103490348AFF345
:10414000008008BD000000001402002058CA0008CA
:10415000002103E00B4B5B58435004310A480B4BE2
:1041600042189A42F6D30A4A02E00023136004324E
:10417000084B9A42F9D302F07BFE08F009FC06F0E6
:1041800025F8FEE788EF0008000000200C02002060
:104190001002002004450020FEE70000034A013021
:1041A000116813685B1A8342FBD3704734400020C8
:1041B000436A9A6A12F0500F18D19A6A42F4007258
:1041C0009A621A68926802F46022B2F5602F10D1E8
:1041D000DA6872B99A6A22F480729A629A6AD20490
:1041E00007D49A6A42F001029A6270471B6A1B6BFD
:1041F000184770470422F0B4C66B016C3568036839
:1042000002FA01F72F421C6828D0670726D53C49DF
:104210008B4216D03B4A934215D01432934214D0AD
:104220001432934214D01432934214D01432934275
:104230000CBF4FF480034FF08063334A5360F0BCEF
:1042400070471346F9E74023F7E74FF48063F4E73C
:104250004FF48043F1E74FF48023EEE702228A40D7
:104260002A4238D0A70736D51A68910606D41A68AC
:1042700022F00A021A60012280F82120204A93428B
:104280001CD0143293421BD0143293421AD01432F1
:1042900093421AD0143293421AD0143293420CBF74
:1042A0004FF400134FF00073174A5360002380F857
:1042B0002030836A002BC2D0F0BC18470223F3E7FA
:1042C0002023F1E74FF40073EEE74FF40053EBE7E0
:1042D0004FF40033E8E708228A402A42AFD0220791
:1042E000ADD51A6822F00E021A60012303FA01F11B
:1042F000716083634FF480730384036BDAE700BF5C
:10430000080002401C0002400000024008B503689B
:104310001A6822F00E021A601A6822F001021A606E
:10432000164A93421CD0143293421BD0143293424B
:104330001AD0143293421AD0143293421AD0143243
:1043400093420CBF4FF480134FF080730C4A5360BC
:104350004FF480730384436B03B19847002008BD7A
:104360000123F3E71023F1E74FF48073EEE74FF4F6
:104370008053EBE74FF48033E8E700BF08000240CA
:1043800000000240FEE7000006480068006880F375
:10439000088862B661B6BFF34F8FBFF36F8F00DF3F
:1043A00000BF000008ED00E008B9064B1868026B7A
:1043B0000020135CA52B02D0C0F38F0070470130A2
:1043C000F7E700BF78310020064A13681968064BEA
:1043D00019B94FF0FF321A6070471268D26812683C
:1043E000F9E700BF7C310020D844002030B50C68CC
:1043F000631C0AD103695A684A6091608B605960F6
:10440000036808610133036030BD00F10802134600
:1044100052681568A542FAD9EDE7000000231A4654
:10442000074911F8010B03FB00220133DA2BF8D105
:10443000044B18681A60801A18BF0120704700BF2B
:1044400059290020442A00200A4B588A80B278B1AA
:10445000188980B260B11A89188992B2052A94BF6E
:1044600042F210734EF6602380B288BF053858437D
:10447000704700BF0032002038B5134A538A9BB200
:104480000BB9002038BD13899BB2002BF9D00F4A1D
:104490000F4B14681B6844EA030288B1002AF1D06C
:1044A0000C4D2968C91AFFF7CFFF8142E9D9286866
:1044B000041BFFF7C9FF844294BF00200120E1E7FD
:1044C000002ADED0ECE700BF003200209C2F002045
:1044D000CC2F0020FC44002070470000084B33F82C
:1044E000302003EBC00391425B8803D399420A4614
:1044F00028BF1A46034B03EB40039A80704700BF66
:10450000520000200032002070B5114B114C33F8DE
:10451000306003EBC00359889A8804EB40034500E0
:10452000988880B2884207D19E802C44A08880B2AF
:10453000431A5842584170BD98888E1A80B2B042D2
:10454000B7BF98889980121892B2B8BF9A80ECE7EA
:10455000520000200032002008B5144B198E5B8CED
:1045600089B29BB29BB179B140F25133143189B217
:10457000994288BF00211620FFF7B0FFB1F5527FA6
:1045800034BF0020012008BD4FF4F071F3E759B1AA
:104590000A3189B2B1F5E17F88BF00211620FFF70B
:1045A0009DFFB1F5E17FEBE7FA21F7E7003200204C
:1045B000034B588A80B2003818BF0120704700BFF3
:1045C0000032002008B5104BD9885B8C89B29BB2B1
:1045D00073B1143189B2B1F5117F88BF3C2101203C
:1045E000FFF77CFFB1F5117F14BF0020012008BD4B
:1045F0000A3189B2B1F5967F88BF0A210120FFF701
:104600006DFFB1F5967FEFE7003200200F4A02EB15
:1046100040039B88528C9BB292B27AB103EBC301E8
:104620000523A031B1FBF3F10A2389B2B1FBF3F109
:1046300001EB8101490089B2FFF750BF0922203BFD
:1046400003EB830393FBF2F1EEE700BF003200209F
:1046500010B50F20FFF758FF04461620FFF7D6FFCE
:104660000020FFF7D3FF0120FFF7D0FF204610BD49
:10467000034BD88A80B2003818BF0120704700BFB2
:1046800000320020034B188D80B2003818BF012083
:10469000704700BF003200207047F8B5002506467D
:1046A0002C461427EBB207FB03639A680AB920462D
:1046B000F8BDDB6813B90134E4B202E09847002882
:1046C000F9D10135EEE7000038B500230122104D85
:1046D00004462B7003681A70D0E901311420097860
:1046E0001B6800FB0133187C342809D8FFF70CFF46
:1046F0002B7813B1032223691A6001232B7038BD74
:10470000586808B18047F3E7E3681A70F0E700BF24
:10471000EC2B002010B5214A9368906883F00203C7
:10472000C0434000C3F3400300F0020018431FBF22
:104730001B4B1A681B4B1A601B4A1378834212D119
:1047400080B1174B194A1B6812689B1AB3F5C87FD2
:1047500020D30122164B90421A701DD002280CBFA4
:104760000820202010BD38B10343002013700C4BEB
:104770001A680E4B1A60F5E70D490C7844B9012B05
:1047800002D0022B18BF1023107008701846EEE7F5
:104790000346F9E70020E5E70420E3E7000C0140C9
:1047A000FC4400209C2F0020D52B0020D82B00207B
:1047B000D42B002048F2E80358436423C00B58432D
:1047C0005B23B0FBF3F0084B5A8E92B242B139B979
:1047D0005A8E92B282422FBF08465B8E9BB2C01A9D
:1047E000024B1860704700BF00320020D02F00201D
:1047F00038B50021FFF7DEFF0122154B53F83210C8
:10480000D400884210DA23444FF47A7453E90252F8
:10481000401B6043491B90FBF1F05B689B1A5843B7
:1048200090FBF4F0104438BD0132322AE6D14FF447
:104830007A734FF43C72A0F512400938584390FB4C
:10484000F2F00A22504390FBF3F000F5F570EAE72E
:1048500094EC000820220C4B1A6102221A610F22EC
:1048600000BF013AFCD14FF400321A610F2200BFA1
:10487000013AFCD14FF400121A610F2200BF013A35
:10488000FCD102221A617047000801404FF4003247
:10489000094B1A610F2200BF013AFCD120221A6194
:1048A0000F2200BF013AFCD102221A610F2300BF80
:1048B000013BFCD1704700BF000801400222094BB8
:1048C0001A610F2200BF013AFCD120221A610F2287
:1048D00000BF013AFCD14FF4001298681A61C0F38E
:1048E00040007047000801400A4B78B102221A616B
:1048F0000F2200BF013AFCD120221A610F2200BF13
:10490000013AFCD14FF400121A6170474FF40032A3
:10491000EDE700BF0008014010B50146082401F092
:104920008000013CFFF7E0FF490014F0FF04C9B22A
:10493000F5D10222034B1A61FFF7C0FFB0FA80F0F5
:10494000400910BD00080140F0B55442A0421E4687
:10495000059D134619DD602817DC002800EB0207CF
:10496000B6BF44420024E4B2602FC4BFC0F160026D
:10497000D2B291B9134F21183F6805EB040C0F44D4
:1049800021468A4202D80F2E09D8F0BD1CF801EB4F
:10499000013107F801EBC9B2F3E70829F3D1102E72
:1049A00018BF002307492344496820442B4401448D
:1049B000A242EAD913F8010B013401F8010BE4B269
:1049C000F6E700BF342A00200229F7B504461CD1BF
:1049D00010221D4B1D491A700C221D4B1A701C4BC6
:1049E0001C4E1D78184BB6F900701B783846DA0853
:1049F0006A4304FB0211009117492A4691F90010FD
:104A0000FFF7A2FFE819308009E0012809D1124B15
:104A1000B3F900201AB90F490A8008221A8003B09E
:104A2000F0BDFCD9002915BF102008200C22062259
:104A30000A4B0B4908BF1946034B023C1870044B44
:104A4000A4B21A70CBE700BF1C2C002048CE00088F
:104A50001D2C0020242B0020262B0020FD1F0020D1
:104A600089210020C0F111000221C0B2FFF7ACBFC4
:104A7000044BB3F8500080B2003818BF0120FFF794
:104A8000F1BF00BF00320020034B988B80B200388A
:104A900018BF0120FFF7E6BF00320020034BD88E7D
:104AA00080B2003818BF0120FFF7DCBF00320020C1
:104AB000034B988A80B2003818BF0120FFF7D2BF9D
:104AC00000320020034BD88B80B2003818BF012081
:104AD000FFF7C8BF00320020034B188C80B20038AB
:104AE00018BF0120FFF7BEBF00320020044BB3F80F
:104AF0004C0080B2003818BF0120FFF7B3BF00BFE1
:104B00000032002070B503780446012B0E4615468E
:104B100001D11E4601342378A3B19DB1F02B09D9F0
:104B200062787AB1F03BC3EB03230F3A134498B297
:104B3000023401E098B201343146013DFFF744FFF1
:104B4000EDB2E8E770BD00000E4B198B0E4B89B239
:104B50001A680E4B02291B6809D003290CD00129C1
:104B60000DD1B2F84000FF221844FFF7CBBFB2F8D6
:104B70004200FF220121F7E7B2F84400F9E7D08FA5
:104B8000F7E700BF00320020F41F0020F81F0020CC
:104B90000C4BD98C0C4B89B21A680C4B01291B6841
:104BA00006D002290AD1B2F84A00FF22012102E010
:104BB000B2F84800FF221844FFF7A4BFB2F846003D
:104BC000F3E700BF00320020F41F0020F81F002090
:104BD0000A4B198A0A4B89B21A680A4B01291B68C9
:104BE00005D0022908D1908EFF22012101E0508ECC
:104BF000FF221844FFF786BF108EF5E70032002031
:104C0000F41F0020F81F0020074B084A9B8C1268F5
:104C10009BB23BB1938F064A01211068FF221844D2
:104C2000FFF770BF138FF6E700320020F41F00205B
:104C3000F81F00200C4BD98A0C4B89B21A680C4B18
:104C400002291B6808D003290AD001290AD1108F34
:104C5000FF221844FFF756BF508FFF220121F8E7CB
:104C6000908FFAE7D08EF8E700320020F41F002082
:104C7000F81F0020044B054A1B6810685B8DFF225B
:104C800001211844FFF73EBFF41F0020F81F002049
:104C9000002110B4064A04781180064A012C1180C4
:104CA00004BF01302146FF2210BCFFF72BBF00BF1D
:104CB000242B0020262B002010B50A4B0A4A0C4654
:104CC0001B68583033F81030106804EB4404184463
:104CD000FFF7DEFF0022054BA400023C1C80044BC2
:104CE0001A8010BDF41F0020F81F0020242B002084
:104CF000262B002037B5294B294A1B68044603EBB5
:104D00004003B3F81E3110681844FFF7C1FF254A6D
:104D1000D38A9BB2022B23D0032B14BF4FF4FA701B
:104D20004FF49670204B1978204BE1B9D18A89B2A3
:104D3000C9B119681E4DA1421E4902D01C602B68E2
:104D40000B602B680968928A5B1A92B2B3FBF0F38E
:104D500002B30322B3FBF2F202EB42029B1A0AE017
:104D60004FF4C870DEE78D211960D38A9BB2B3FA85
:104D700083F35B095B006022544304EB43140E4B46
:104D800000212344009310234E201A46FFF7DCFD38
:104D900003B030BD022B28BF0223ECE7F41F002034
:104DA000F81F002000320020FC1F0020FC01002022
:104DB000FC440020002C002021D100080020FFF737
:104DC00099BF0120FFF796BF0220FFF793BF032092
:104DD000FFF790BF0420FFF78DBF37B50C46114693
:104DE0000022042C0092ADF804208DF8062032D960
:104DF0000A22B0FBF2F502FB150002308DF8050027
:104E0000B5FBF2F002FB105502358DF8045080B26C
:104E10000A22B0FBF2F502FB150202328DF80320E4
:104E2000A8B20A25B0FBF5F205FB120502358DF894
:104E3000025090B20A25B0FBF5F205FB12050235CF
:104E40008DF8015090B20BE01578022D17D102F8C1
:104E5000010B013311E0DBD0032CE2D0012CE9D1AE
:104E60000A25B0FBF5F205FB120202328DF8002094
:104E70002BB16A4600231220013CA342E4DBFF224F
:104E80006846FFF73FFE03B030BD000070B50A264C
:104E90000C4B0221DC890123A4B2B4FBF6F51A46BF
:104EA0002846FFF79AFFFF2201210748FFF72AFE55
:104EB000012306FB1540BDE870401A46194680B232
:104EC000FFF78BBF0032002076CA0008054BB3F80D
:104ED000440080B208B9FFF7CDBE012303211A4672
:104EE000FFF77BBF00320020064A138E9BB233B11E
:104EF0000123108E03211A4680B2FFF76EBFFFF721
:104F0000B9BE00BF00320020034B0221588F01239D
:104F100080B21A46FFF761BF00320020034B022126
:104F2000188F012380B21A46FFF757BF00320020C6
:104F30000122034B1146588A002380B2FFF74DBF70
:104F400000320020034B0321D888012380B21A4687
:104F5000FFF743BF0032002008B5174B1A8992B201
:104F60005AB9164A01211068FF22154B1B685B8D48
:104F70001844BDE80840FFF7C5BD1A89188992B2E8
:104F8000052A0DD8012380B200EB800040001A46AC
:104F9000022180B2FFF721FFFF2201210948E8E743
:104FA000012305381A46022180B2FFF716FFFF22BF
:104FB00001210548DDE700BF00320020F81F002076
:104FC000F41F002078CA0008DBCA000808B50D4AA3
:104FD000538B9BB25BB90C4A01211068FF220B4B2B
:104FE0001B685B8D1844BDE80840FFF78BBD0123AB
:104FF000508B02211A4680B2FFF7EFFEFF220121FB
:105000000348F0E700320020F81F0020F41F0020C2
:10501000DBCA000807B5174BB3F84A2092B262B951
:10502000154A01211068FF22144B1B685B8D184440
:1050300003B05DF804EBFFF765BDB3F84A2092B208
:10504000052A0AD10E4B1822009300211023462076
:10505000FFF77AFC03B05DF804FBB3F84A000123C4
:1050600002211A4680B2FFF7B8FEFF22012105484F
:10507000DEE700BF00320020F81F0020F41F0020F0
:1050800008CD000878CA000808B50D4A938E9BB277
:105090005BB90C4A01211068FF220B4B1B685B8D2A
:1050A0001844BDE80840FFF72DBD0123908E032171
:1050B0001A4680B2FFF791FEFF2201210348F0E774
:1050C00000320020F81F0020F41F00207ACA0008D8
:1050D00070B5164D2B8D9BB2E3B101230A24288DA8
:1050E0001A4680B21946B0FBF4F0FFF776FEFF22B5
:1050F00001210F48FFF706FD288D80B2B0FBF4F3C5
:1051000004FB1300BDE87040012380B21A46194623
:10511000FFF763BE074B084A1B6810685B8DFF22D0
:10512000BDE8704001211844FFF7ECBC00320020BC
:1051300076CA0008F41F0020F81F0020034B588D8A
:10514000012380B21A461946FFF747BE00320020FD
:10515000034B988D012380B21A461946FFF73DBED6
:1051600000320020F8B51E4B054602210E201C78A7
:10517000FFF72AFC1F23B5FBF3F01A4BC0F10A001E
:1051800010F0F80F1968C5B2C0F3C4060BD0F32CA9
:105190008CBF01230D23204600272344DBB2421C91
:1051A000D2B2934218D1FF2205F00705AA4060252C
:1051B000F32C8CBF01230D2375432344DBB262F033
:1051C000FF02601CC0B2984200D1F8BD2C440E5DB5
:1051D00016400E550446F4E70F541046DFE700BFB3
:1051E000242B0020342A002010B4064B064C5B8C84
:1051F000014606489BB2002B18BF2046FF2210BC78
:10520000FFF780BC00320020B2CA0008A2CB000821
:105210000128014610B40AD0022814D10B4B10BC4F
:10522000588C80B2B0FA80F04009FFF7CDBB074B35
:10523000074C5B8C07489BB2002B18BF2046FF220F
:1052400010BCFFF75FBC10BCFFF7CEBF00320020E0
:105250007CCA00087ECA00080120FFF7D9BF000001
:10526000014B1868704700BFFC44002000207047C5
:10527000704713B50122446801AB0078A04708B11C
:105280009DF8040002B010BDBFF34F8F0549064BD7
:10529000CA6802F4E0621343CB60BFF34F8F00BFD4
:1052A000FDE700BF00ED00E00400FA054AF6AA227F
:1052B000014B1B681A607047B82E00204FF0E020A9
:1052C0004FF0805408B506490B68012B05D9C0F88A
:1052D000044DBFF34F8FBFF36F8FFFF7E7FFF3E787
:1052E000843100200122084B1A7040F21B12074B38
:1052F0001A80074B1B68DA6240F20D125A6340F6BF
:1053000082229A62704700BF522900207432002026
:105310000C2F0020037B826810B530F813400A443C
:10532000121B826020F81310013303F00303037390
:1053300010BD000010B5044671B10C4B0C481B6841
:10534000D96B1A6C11445A6C9B6C1144194489B284
:10535000490089B2FFF7DEFF054B9B68C3F38F035B
:105360009B00B3FBF4F080B210BD00BF642D0020A1
:10537000F02B002008B5084B0146D88D80B2FFF70E
:10538000D9FF2D234043B0FBF3F0044BC0EB0020CA
:105390001B88B0FBF3F008BD0032002074320020FF
:1053A00010B50446002C084606DC094BD88D80B2A7
:1053B000FFF7C0FF002010BDFFF7DCFFC4EB0424A3
:1053C000B4FBF0F0FF2828BFFF20C0B2F3E700BF16
:1053D0000032002010B50121FFF7E2FF134B9028A7
:1053E00004461A781BD90AB100221A7014211A78BF
:1053F0000F4B002019800F4B1A700F4B1C70FFF7DA
:10540000B9FFFF23E82144430C4AB4FBF3F41368CB
:105410004B43182101FB04331B0A136010BD6F2896
:10542000E4D8002AE2D10122DFE700BFFA01002020
:10543000F01F0020512900206C310020484000203E
:1054400008B568B100210B46114A013332F8020B4E
:10545000DBB2102B0144F8D10E4889B2FFF75AFF96
:105460000C4B0D499A680023C2F3CE0231F81300A9
:10547000904207D2013331F8130000EB8000400066
:1054800080B208BD0233302BF0D14FF4E170F8E761
:105490002C020020DC2B0020F8CF000810B547F6C6
:1054A000FF70FFF7A5F904460020FFF7C9FF0A23A4
:1054B000B0FBF3F0013C80B2204410BD08B5084BAE
:1054C00008481B68D96B1A6C11445A6C9B6C1144C8
:1054D000194489B2490089B2FFF71CFF084608BD8C
:1054E000342D0020C42B002038B5044678B1FFF7D6
:1054F000E5FFFFF77DF905462046FFF7A1FF0A23E8
:10550000B0FBF3F39BB2581920EAE07038BD024BB0
:105510009868C0F38F00ECE7C42B002008B5094B56
:10552000588C80B250B10020FFF7DEFF052300EB5E
:10553000C000B0FBF3F0203080B208BDFFF7D4FF0D
:10554000FAE700BF0032002010B5FFF7A7FF0446BE
:105550000020FFF7C9FF053CA4B284422CBF002005
:10556000012010BD01207047044B054A1B681068DC
:10557000B3F812311844FFF78BBB00BFF41F0020B3
:10558000F81F002037B5064C8DF8071001220146A0
:10559000A56820780DF10703A84703B030BD00BF10
:1055A000242D0020064AD2E93A03834203D192F81F
:1055B000F0008000704798BF0433181A704700BF8E
:1055C000F82F0020F8B50B460D4C0646A163216C60
:1055D00015460B4206D1FFF7E5FF074620B141F023
:1055E000020121643046F8BD6B1C84F8346002D19E
:1055F0003E46E563F6E7236998470544F8E700BFB0
:10560000F82F0020F8B55488034604F01F050D2D2F
:105610001E4D04D114F4E04FC4F3023632D01646C6
:1056200085F8361085F835305488432124F46064B9
:10563000548095F82D3028785B0203F460631C4396
:1056400026F8024FC4F30234A400114B023464F074
:105650007F02AF681A710522B847334622464321BC
:10566000AF682878B84704224321AC68094B2878F2
:10567000A047BDE8F8404FF0FF3240F2036101203F
:10568000FFF7A0BF85F82D60F8BD00BFF82F002000
:10569000000200207CEE000810B50446FFF73EFF34
:1056A000012303211A46FFF798FB24B1BDE81040FF
:1056B0000220FFF7ADBD10BD0023012213B50A483B
:1056C0008DF807304468114600780DF10703A047B4
:1056D00038B19DF807000138C0B2FD288CBF00200A
:1056E000012002B010BD00BF242D002010B5064CD3
:1056F000236823B9FFF7E0FF08B101232360206886
:10570000431E5842584110BD5429002038B5FFF7B8
:10571000EDFF0246F0B1124B124DB3F8443095F84C
:1057200031109BB2C1B995F8300090B995F8341199
:10573000192913D00C2911D013F0FF0409D02B69BB
:1057400098476B6CC01A64236343984294BF00204F
:10575000012038BD0120FCE70020FAE71046F8E7F9
:1057600000320020F82F002008B5FFF7BFFF10B16E
:10577000FFF7CCFF08B9012008BD0320FCE70000BB
:1057800010B54CF250342049204B0868DA68D20733
:1057900033D4DA68910644BF2022DA60DA68D20690
:1057A00006D4DA69D40703D4D86810F0040023D0F3
:1057B000164AD36813F0100305D01549CB6943F09E
:1057C0000203CB611023D268500706D5104943F07D
:1057D0000403CA6942F00102CA610C4AD169C907CF
:1057E00008D50B48C16941F00401C161D16921F0BC
:1057F0000101D1610120D36010BD0A68121AA242D2
:10580000C4D90320F8E700BF344000200020024044
:10581000D82F0020144B70B51D68144E6A6912F021
:10582000400201D000200EE06C6914F010040BD08F
:105830006FF010016961202101201A6483F83C2077
:105840001A6383F83D1070BD3268521A9042E5D257
:105850001A6C032042F020021A64202283F83C4094
:1058600083F83D20EFE700BF642E00203440002085
:10587000154B70B51D68154E6A6912F0800201D093
:1058800000201FE06C6914F480640FD13268521A52
:105890009042F1D21A6C032042F020021A642022B6
:1058A0001C6383F83C4083F83D200BE06FF480617B
:1058B000696104211964202101201A6383F83C20C6
:1058C00083F83D1070BD00BF642E002034400020DE
:1058D000F0B5114DDFF844C02E68070C012F0CBF46
:1058E0007469B46920EA0404A4B2B4FA84F46409C3
:1058F000A14201D000200EE0DCF80040E41AA242F0
:10590000ECD20023202203202B6385F83C3085F85D
:105910003D2085F83E30F0BD642E0020344000204C
:1059200070B50546144A154E14686369DB4313F0DD
:10593000020014D0636913F4806311D0236820211E
:1059400043F4007323606FF4806363610423136482
:1059500000230120136382F83C3082F83D1070BDB3
:105960003068401A8542E0D220211363032082F878
:105970003D1082F83C30F2E7642E002034400020D5
:105980002DE9F0471F4BDA8D1F4B92B29B68C3F392
:105990008F039B00B3FBF2F30A229BB2B3FBF2F43A
:1059A00002FB14339BB2042B88BF0134A4B2092C30
:1059B0001FD94FF00A090123B4FBF9F8134E194619
:1059C00000221FFA88F0B6F90050FFF706FA082304
:1059D0000F4F09FB18403B8001230022194680B27B
:1059E0003580FFF7FAF900230C3535803B80BDE8A0
:1059F000F08701232046BDE8F0471A461946FFF715
:105A0000ECB900BF00320020F02B0020242B002036
:105A1000262B002070B5114A114B9468DB8DC4F31E
:105A20008F049BB2A400B4FBF3F40A26A4B2B4FB27
:105A3000F6F50123284600220221FFF7CEF9FF22C6
:105A400000210848FFF75EF8012306FB1540BDE87A
:105A500070400022194680B2FFF7BFB9F02B00203A
:105A60000032002080CA00082DE9F04F9A469C4C75
:105A70009C4B87B01E6894F83D308046202B8946A9
:105A80009346109F04D00225284607B0BDE8F08F4A
:105A90003346192201219448FFF71AFF0028F2D15A
:105AA00094F83C308B42EED0256884F83C102B688B
:105AB0003A46D80758BF2B684FF001105CBF0B4324
:105AC0002B602B68002123F400632B60222384F8D1
:105AD0003D30402384F83E30844B2164A4F82AA052
:105AE000E362638DC4F824B023852B6843F480639C
:105AF0002B602B6843F480732B603346FFF7E8FE7E
:105B000000BB226808F0FE033146384613615FFA95
:105B100088F5FFF705FF08B1236C13E023680590B3
:105B20005A69314605929B6938460593059BFFF7F4
:105B30009FFE80B1236C042B04D12268136843F4C8
:105B400000731360236C042B4FF0000384F83C3087
:105B500078D1012598E7236831463846C3F810907C
:105B6000FFF786FE01460028E4D122684FF00110BD
:105B7000136843F48073136033463A46FFF7A8FE78
:105B80000028DFD1236845F001051D613146384604
:105B9000FFF7C6FE05460028BED1228D23689AB1C4
:105BA000012A27D11A6822F480621A6072B623682B
:105BB00003905A6903929A690392039A1A6842F40D
:105BC00000721A6062B609E004905A6904929A69F8
:105BD0000492049A1A6842F400721A60DFF8108185
:105BE000238D1BBB202284F83C3084F83D2084F8B0
:105BF0003E3049E7022A1A680ED142F400621A6068
:105C000072B6236802905A6902929A690292029AC5
:105C10001A6822F48062D4E742F480621A6001902C
:105C20005A6901929B690193019BD7E7032B61D8C5
:105C3000012B09D131463846FFF7ECFD10B3236C38
:105C4000202B86D103251FE7022B3A4633464FF01F
:105C50000001404624D1FFF73BFE0028F2D172B686
:105C600023681A6842F400721A601A69636A591C40
:105C700061621A70238D013B2385638D013B9BB2CA
:105C8000638562B623681A69636A591C61621A7077
:105C9000238D013B2385638D013B9BB263859FE789
:105CA000FFF716FE0028CDD12268136823F4806325
:105CB000136072B623681A69636A581C60621A70AE
:105CC000238D3A46013B2385638D4046013B9BB2C1
:105CD00063853346FFF7FCFD0028C1D0B2E700BF63
:105CE000642E002034400020020010000000FFFF5E
:105CF0000400010031463846FFF78CFD00289ED194
:105D000023681A69636A591C61621A70238D013B0A
:105D10002385638D013B9BB2638523685A695207D3
:105D20007FF55EAFAFE700BF037F082B01D106F020
:105D300085B9704710B5036804461A6991070ED5F6
:105D4000DA6892070BD56FF002021A61012202771E
:105D50009B699B0701D1FFF7E7FF002323772368A7
:105D60001A69500710D5DA6851070DD56FF0040293
:105D70001A61022222779B6913F4407F02D12046E8
:105D8000FFF7D2FF0023237723681A6912070FD584
:105D9000DA6810070CD56FF008021A610422227726
:105DA000DB69990702D12046FFF7BEFF0023237766
:105DB00023681A69D20610D5DA68D0060DD56FF0BF
:105DC00010021A6108222277DB6913F4407F02D1A6
:105DD0002046FFF7A9FF0023237723681A69D1071C
:105DE00037D5DA68D20734D56FF001021A6123681B
:105DF000B3F1804F2ED11B4A1B4C13882168013B05
:105E00009BB21380194B1B78DBB20B640B6C83B114
:105E100013889BB26BB1164806F0E6F8154B164A8C
:105E20001B781178994214D033B1BDE81040FFF7C8
:105E300059BA06F003F9F1E7137040F20D120F4B57
:105E40001A802368DA624FF483725A6341F2045273
:105E50009A6210BD0A4A934201BF0A4A136801338D
:105E60001360F6E7F01F00200C2F00206C3100209B
:105E7000542F002051290020522900207432002084
:105E8000002C01403440002008B5FEF7C7FA28B1C5
:105E9000BDE80840D121024806F012BB08BD00BF92
:105EA00059290020024BC0220021186806F094BD39
:105EB000342A0020F8B5036805460E46002B3AD177
:105EC00002600120334601211F784C1EA4B2002F2E
:105ED00033D104EB4404A400A4B2602C38D92B685D
:105EE000D21A1F4B9B8C9BB2012B0CBF0A2314238D
:105EF000B2FBF3F204F1600312B292FBF3F103FB85
:105F000011225F2A2ADDA24226DC14B2B5F9043040
:105F1000A3420FD0FFF7C6FF124BC4F160021A80F4
:105F20000022114B30461A800121FF22FEF7EAFDC4
:105F30000120AC80F8BD0020C4E7F02F03D8013366
:105F4000013189B2C0E75F78002FC2D00233F7E792
:105F5000C4F1600304EB630424B2D7E76024D5E7FF
:105F600000320020242B0020262B00202DE9F74FA3
:105F700005462C220C464D48002106F02DFD4B4ACB
:105F80002B1D05F11C07164618685968083303C60F
:105F9000BB423246F7D11868FF22306000266B887A
:105FA00041F28831354642F6E068DFF800E1C3F39C
:105FB000023901965FFA86FCE14523D802201023BE
:105FC000FF2AA070E37067D0019B01321207002BFB
:105FD0005DD005202B1DB3FBF0F31420B1FBF0F0D6
:105FE00003F07F0342EA40221343694343F0807386
:105FF00063602F4BB1FBF3F12E4B1960012003B00E
:10600000BDE8F08F5EF8043B13F0404A16D132270A
:10601000C3F3892078430FD040450DD8C3F309035B
:10602000B0FBF3FBBBF12D0F06DC884204DD6246BA
:1060300081B29DB2CDF804A00136BBE7BAF1404F62
:10604000FAD113F0405FF7D11B48B0F8500080B28E
:106050000028F1D003F07F00C3F3474303EB830331
:106060002D2703EB83039B009BB24345A8BF434608
:1060700000EB800007FB00FA5345A8BF53468B4254
:10608000DADD99B20123624605460193D4E742EA7C
:10609000050343EA8523A8E7642323716FF06F03A8
:1060A00063710123A3711123E371A7E7A02F0020DF
:1060B000A0860100743100200032002070B5014636
:1060C000FFF770FA00B3114A89B1D2F8E83002F153
:1060D000680404EB43140B4604F12006254603CD67
:1060E000B542186059602C4603F10803F6D1D2F886
:1060F000E83092F8F010013303F00303C2F8E830FF
:1061000011B10BB982F8F03070BD00BFF82F00203C
:1061100010B5194C88B0216C01F07F412164FFF764
:1061200041FA28B36846FFF7C9FFBDF8023003F013
:106130001F02012A15D113F4E04F12D194F82D203B
:10614000C3F3422393420CD1226C013303F00703C3
:1061500042F0040294F8350084F82D30226408B02F
:1061600010BD236C43F00803236494F83600F6E76F
:1061700041F008012164F8E7F82F00202DE9F043F1
:10618000AE4E89B006F1480596F834410E2C00F069
:106190001C8275D8072C00F0028121D8032C00F056
:1061A00074830AD8012C00F0F482022C00F0F982EA
:1061B000002C00F0CD82032009E0052C00F0B9800E
:1061C000062C00F0C680042C0CBF0520032084425E
:1061D00086F83401D8D1002CD6D109B0BDE8F083BF
:1061E0000B2C00F062810DD8092C00F01C810A2CC8
:1061F00000F02A81082CDED10F210920904AFFF7F8
:1062000001FAE4E70C2C40F0D8810022336C3264B0
:106210005A0600F104819F0669D4180600F1C9816D
:10622000D90500F1BA80DA0400F1C5819F047ED45B
:1062300098076BD50127FFF7B5F9002866D02846E7
:10624000FFF73CFFB6F84A3003F01F020F2A40F078
:10625000598113F4E04FEED1F18D01F0C001802996
:10626000E9D1190440F19D81B6F84C10C1F3080141
:10627000192940F29681112A14BF15201620A6E78D
:10628000172C00F0DE8134D8132C00F0BB8111D81C
:10629000112C00F0A581122C00F0AB810F2C8AD1BB
:1062A00096F93230022B00F35182013386F83230F6
:1062B00010208CE7152C00F0B281162C00F0EB8139
:1062C000142C7FF478AF336C03F07F433364FFF713
:1062D00069F960B12846FFF7F1FEB6F84A3003F0DD
:1062E0001F02032A40F0948113F4E04F36D00F20B0
:1062F0006DE71B2C00F089820ED8192C00F01F824C
:106300001A2C00F05A82182C7FF455AF4FF0FF3250
:1063100043F6FF710C2019E01C2C00F08B821D2C21
:106320007FF449AFFFF73EF9002840F097821C2028
:106330004DE7002386F8303086F835313364336911
:10634000984742F21072706423210620FFF73AF951
:106350003DE70022336C3264990601D5052036E70B
:10636000FFF720F90028F9D02846FFF7A7FEB6F876
:106370004A2002F01F03012BF2D112F4E04FEFD0BC
:10638000F38D13F0C00F08D102F0C0027F2A8CBF3A
:1063900043F0800343F04003F385072017E7FF2312
:1063A00086F833300023B6F84A202649C2F3023279
:1063B00093420CD051F8040B013300F04047B7F181
:1063C000404FF5D110F0405FF2D186F83330F36CD6
:1063D0001B49C3F3C062C3F3C05386F8713186F81A
:1063E0002C20B369A1F1CC009847002800F0D78099
:1063F000F38DB6F816211A4303F0C003802BA6F8DC
:1064000016210CD1D6F81831002B4FEA137208DB95
:1064100096F833309A4204D3012386F835310820A8
:10642000D5E60023F9E7336C03F07F43336440F68D
:106430008C2240F603010A2088E700BFF82F0020D5
:106440000C31002044300020336C03F07F43336470
:10645000FFF7A8F80028EAD02846FFF72FFEB6F885
:106460004A3003F01F02032A13D1B6F81631C3F3E2
:106470000233022B0CBF0123002386F8723103D1B3
:1064800033699847C6F83C0141F2883203210B205A
:106490005CE70D2A6ED003F01703042BD8D196F8D1
:1064A0003030002B7FF432AF58E7336C03F07F437A
:1064B0003364FFF777F808B9122088E62846FFF71B
:1064C000FDFDB6F84A3003F01F03062B17D1002359
:1064D00086F8313096F8713163B196F870314BB16E
:1064E00096F8723133B9012386F83130336C43F4B6
:1064F00080533364012386F830300C2067E6012B8B
:10650000D7D14AE7052A04D113F4E04F3FF493AE04
:10651000A2E6092A04D113F4E04F7FF49DAE06E011
:10652000072AF8D00A2A04D113F4E04F24D1152009
:106530004DE60B2AEFD0022AF9D0042A06D0012A10
:1065400009D113F4E04F3FF487AE26E713F4E04F90
:106550003FF482AEEBE7082A05D113F4E04F7FF455
:106560007BAE0E2033E60D2A7FF476AE13F4E04FB7
:106570007FF472AE11202AE696F84A30032B02D13E
:1065800086F8727157E6042B03D1002386F8723126
:10659000B3E7052B7FF44FAE002386F87231062057
:1065A00015E6102A88D113F4E04F14BF12201820EA
:1065B0000DE60D200BE61B2009E6F38D43F00703E3
:1065C000A6F84A302A460F2134E0F18D284601F022
:1065D000C0017F2994BF0021012173699847F1E729
:1065E000F38D6A4643F00D030F210520ADF802300C
:1065F00005E6F38D2A4643F00D030F211320A6F87C
:106600004A30FCE540F68C2240F6030114209DE65A
:106610000D2A7FF46CAE13F4E04FABD067E6F38D38
:1066200003F0C002402A07D143F00403A6F84A3021
:106630002A4612210C20E2E5802AF9D143F010030A
:10664000F4E70022336C32649F0705D44FF0FF3229
:1066500043F6FF71172079E6FEF7A4FF0028F5D076
:106660002846FFF72BFDF38D03F0C003802BF3D1F9
:10667000B6F94A20B6F84A30002AEDDAB6F84C20CE
:10668000C2F30802192AE7D903F01F03112B0CBF2C
:10669000162015209BE5B6F84C707805D6D44FF03F
:1066A0001A09C7F3C32709FB07F9B6F84A20CFBB7D
:1066B000774B03F1F60203F1180E944618685968F7
:1066C0000833ACE8030073456246F6D11868CCF88D
:1066D00000009B88ACF80430B6F84A80C8F3023357
:1066E00009EB8309B6F84231A9F10209C3F30803A3
:1066F000994522DA1A220021664806F06DF9F38DD9
:1067000008F01F08013748EA0308FF0248F4104860
:1067100047F404472A460F211720A6F84A80A6F816
:106720004C706CE5C2F3023209F5A270920059492F
:10673000023A304406F068F9CEE71A2047E5002314
:106740004FF4FA6086F83030336A984719203EE5F6
:1067500033699847F36B984282BF336C43F400630C
:106760003364306C01050AD596F8343000F07F4070
:10677000113B032B306494BF0320122027E5C2078E
:106780003FF596ADB36B18403FF421AD96F8340059
:106790001DE50022336C32649B0509D5FEF702FF2C
:1067A00010B1FFF7B5FC12E5022178220846CDE5CD
:1067B000082396F83600336409E53369984736496B
:1067C000C6F83C01F36901F12C00984700283FF41A
:1067D000E6AED6F818311B0F06EB8303D3F8403131
:1067E00003F04042B2F1404F0DD113F0405F0CBFB7
:1067F00001230023F28D86F83531B6F816311343A4
:10680000A6F816310BE60023F4E733699847F38DB9
:10681000C6F83C0143F4805343F00A03A6F84A301B
:1068200096F870311B0443F08073F364CAE60020CD
:10683000FFF744FCFEF7B6FE0028F8D1012386F8E6
:106840003130F38D2A4643F4104343F01003A6F889
:106850004A30124B0C211D20F364D0E42846FFF788
:106860002DFCB6F84A3003F01F03102B7FF45AAD0D
:1068700096F84E30042B7FF455AD002386F8313066
:1068800033699847C6F83C0137E604209FE400BF0F
:1068900042300020463000200C31002002800300EE
:1068A000014B186805F06EBD282B00202DE9F0473C
:1068B0002F4E742230462F4906F096F8002854D007
:1068C000FEF7F4FC35232C4D2C4CEB6005F092FECA
:1068D0000120FDF763FCFEF7E9FC237E012B16D0B7
:1068E00001232376FEF74CFF78B9E0612B6943F072
:1068F00002032B616E612B6943F040032B61FEF7AD
:106900003FFF2B6923F002032B610023237605F060
:1069100071FE4FF00109174F154D174EDFF86080DB
:10692000FEF7C4FC237E012B15D0B7F800A084F835
:106930001890FEF725FF60B9E061336943F0010369
:106940003361A5F800A0FEF71BFF336923F00103B4
:106950003361002323760235454507F10207DFD175
:10696000054A136943F080031361BDE8F08700BF57
:1069700000FC00080032002000200240D82F002038
:1069800074FC0008F8B545F2AA54234B1A8892B259
:10699000A2423AD018467422FF2106F01DF8048066
:1069A000034601241A6F01321CBF4FF0FF321A67F1
:1069B0005A8818BF012492B2342A08D84FF6FF71C2
:1069C0005A8892B2342A22DD352201245A800022CC
:1069D000124903EB4206B5880F88ADB2AF424FEAC9
:1069E000420004D8B5884E88ADB2AE4203D2CC88FE
:1069F0001844848001240132352A01F10801E8D1CC
:106A00000CB1FFF753FF2046F8BD0024CAE703EBA3
:106A1000420081800132D5E7003200205200002080
:106A20001A4A036890420AD0B0F1804F07D0A2F50D
:106A30009432904203D002F58062904215D14A68A8
:106A400023F070031343114A90420AD0B0F1804FF3
:106A500007D0A2F59432904203D002F580629042B2
:106A600003D1CA6823F4407313434A6923F08003B7
:106A7000134303608B68C3620B688362034B9842C5
:106A800004BF0B690363012343617047002C01407D
:106A9000002337B5026801939368DB0702D5002015
:106AA00003B030BD9368124943F001039360114B6A
:106AB0001B68B3FBF1F30193019BABB90E4C256846
:106AC000936813F00103EAD12168491B0229F7D921
:106AD000826A80F8243042F010028262C26A42F078
:106AE0000102C2620120DBE7019B013BE3E700BF3B
:106AF00040420F004C00002034400020036810B5D5
:106B00009A68D10701D4002010BD9A680A4922F082
:106B100001029A600C689A68D207F4D50A68121BC1
:106B2000022AF8D9836A43F010038362C36A43F0F0
:106B30000103C3620120E7E734400020002337B59A
:106B4000019390F824300446012B5FD0012380F894
:106B50002430FFF7D3FF0546002839D1A36A2C481B
:106B600023F4885323F0020343F00203A362294B6A
:106B70001A68294B59685B68C1F3C221415CC3F3B1
:106B80008133013322FA01F15B00B1FBF3F3B2FB75
:106B9000F3F252000192019BF3B92046FFF778FF10
:106BA00023689A6842F008029A601C4A1068996843
:106BB000090715D4996841F0040199601068996833
:106BC00049071ED4A36A23F0030343F00103A36221
:106BD000002384F8243011E0019B013B0193DAE7A4
:106BE0001168091A0A29E2D9A36A012523F01203C0
:106BF00043F01003A362002384F82430284603B036
:106C000030BD1168091A0A29D9D9EDE70225F5E73F
:106C1000CDCB00084C000020001002403440002082
:106C20002DE9F74F00221646684F694BDFF8A4C1E3
:106C3000DFF8A4E14FF001080D6808FA06F808EA49
:106C4000050438EA050540F08A804D68032D00F000
:106C5000B38014D8012D00F0A480022D00F0A6808E
:106C6000A5B98A68002A00F0A980012A08BFC0F8E7
:106C700010804FF0080218BFC0F8148006E0122DF3
:106C800000F0978072D8112D00F08D80FF2C98BFF6
:106C900082464FF00F0988BF00F1040A4FEA8605CB
:106CA000DAF8008088BF203D09FA05FB28EA0B08C6
:106CB00002FA05F548EA0505CAF80050D1F804A023
:106CC0001AF0805F4BD0BD6926F0030845F001053E
:106CD000BD61BD6908F1804805F00105019508F521
:106CE000803806F0030B019D4FEA8B0BD8F8085053
:106CF00009FA0BF925EA0909384DA84260D005F5D3
:106D00008065A8425ED005F58065A8425CD005F597
:106D10008065A8420CBF0325042505FA0BF545EA5A
:106D20000905C8F808501D681AF4803F14BF2543B0
:106D3000A5431D605D681AF4003F14BF2543A543B9
:106D40005D609D681AF4801F14BF2543A5439D60B4
:106D5000DD681AF4001F14BF2543A543DD6001362A
:106D6000102E7FF467AF03B0BDE8F08FDFF87090AE
:106D70004D453FF476AF0FD8A9F580194D453FF446
:106D800070AF09F570294D453FF46BAFA9F5801937
:106D90004D453FF466AF79E765453FF462AF754511
:106DA000F7E7CA6872E7CA6804326FE7CA68083250
:106DB0006CE7CA680C3269E7002267E7042265E7DE
:106DC0000025AAE70125A8E70225A6E70010024052
:106DD00000040140000031100000321000080140A2
:106DE000000022100148FDF705BA00BF942D0020D5
:106DF0000148FEF79FBF00BFC42E0020044B054989
:106E00001868054A884214BF10461846FEF792BF1C
:106E1000542F0020000400400C2F0020044B054A92
:106E20001868B0F1804F14BF10461846FEF782BFB5
:106E3000542F00200C2F0020044B05491868054AE8
:106E4000884214BF10461846FEF774BF542F002026
:106E5000000800400C2F00200148FDF7CBB900BF0F
:106E60001C2E00200148FDF7C5B900BFD82D002019
:106E70000E4B1A6842F001021A6059680C4A0A4027
:106E80005A601A6822F0847222F480321A601A68FA
:106E900022F480221A605A6822F4FE025A604FF4EB
:106EA0001F029A60034B044A9A6070470010024028
:106EB0000000FFF800ED00E00040000800000000C6
:106EC000074B19680868B0E8F00F80F30988BFF332
:106ED0006F8F4FF0000080F311884EF00D0E704759
:106EE00078310020000000000000000000000000D9
:106EF000EFF30980BFF36F8F0D4B1A6820E9F00F95
:106F000010602DE908404FF0500080F3118800F028
:106F10007DF84FF0000080F31188BDE80840196843
:106F20000868B0E8F00F80F30988BFF36F8F7047EF
:106F3000783100204FF0500383F31188BFF36F8F37
:106F4000BFF34F8FFEE70000054A08B513680BB981
:106F5000FFF7F0FF013B13600BB983F3118808BD05
:106F60000802002008B5EFF305830F2B07D90E4A5E
:106F70009B5C0E4A12789A4201D9FFF7DBFF4FF073
:106F8000E0230B4AD3F80C3D126803F4E06393420C
:106F900008D94FF0500383F31188BFF36F8FBFF30D
:106FA0004F8FFEE708BD00BFF0E300E02C4000205B
:106FB0003040002008B54FF0500383F31188BFF331
:106FC0006F8FBFF34F8F074A13680133012B136094
:106FD00007D14FF0E023D3F8043DDBB20BB1FFF74C
:106FE000A9FF08BD080200204FF0500383F3118869
:106FF000BFF36F8FBFF34F8FFEE70000024A1368A5
:1070000001331360704700BF3C40002038B51F4B70
:107010001A681F4B12B101221A6038BD1D481A6050
:1070200003681B6B1A68B2F1A53F0BD15A68B2F125
:10703000A53F07D19A68B2F1A53F03D1DB68B3F150
:10704000A53F03D003680368FEF71EF9124B1A68C8
:10705000B2FA82F21423D2B2C2F11F0253430F4993
:10706000CD58CC180DB9FFF7BFFF656808336D68C0
:107070000B4465609D4204BF6B686360142303FB8F
:1070800002114B68DB680360C7E700BF3C4000208B
:107090000045002078310020444000208431002049
:1070A000F8B50F4D0F4EFFF785FF2C680768336862
:1070B00042689F4207D0A24205D8002301200B60FE
:1070C000FFF742FFF8BD0B68A71ABB42F5D91B1B9F
:1070D00013440B60336803602B6843600020EFE7C4
:1070E000FC440020DC440020054B1B6833B1054BF9
:1070F0001868B0FA80F040094000704701207047DE
:10710000F84400203C40002043689A684B608A6045
:107110009A685160996003680861013303607047A1
:107120002DE9F3410646DDE908040F46984640B9CB
:107130004FF0500383F31188BFF36F8FBFF34F8F6E
:10714000FEE70CB9FFF7F6FE64230193019B642B65
:1071500008D04FF0500383F31188BFF36F8FBFF354
:107160004F8FFEE795002A46A5212063019B05F07D
:1071700033FC226B043D2A4422F00702002F00F06A
:1071800096807B1E04F134011F3713F8010F01F8BC
:10719000010B08B1BB42F8D1002384F853304346B9
:1071A000052B28BF0523E3626365C3F106030021B5
:1071B000A3614FF08073A1656161A1622461646283
:1071C000E16584F8601042F8043C404B26F001066B
:1071D00042F8086C42F80C3C42F8201C403A22600D
:1071E000FFF7E8FE3A4A3B4D13683B4E013313600C
:1071F0002B68002B5ED12C601268012A2ED13246FA
:107200004FF0FF3C14201F4602F10801C2E9011CA7
:10721000C2E9031100FB03F10133062B775002F1A1
:107220001402F1D12D4A02F10803C2E9013CC2E97E
:1072300003332B4B176003F10801C3E9011CC3E9B9
:10724000031128491F6001F108000F60C1E9010C1A
:10725000C1E9030024490A60244A1360244A2549ED
:1072600013680868013313600123E26A9340034303
:1072700014200B6000FB0260211DFFF745FFFFF7A4
:1072800063FE1D4B1B6873B12B68DA6AE36A9A428E
:1072900009D24FF0E0234FF08052C3F8042DBFF322
:1072A0004F8FBFF36F8F204602B0BDE8F08184F8A6
:1072B000347074E7104B1A68E36A002ACED12A684A
:1072C000D26A9A4298BF2C60C8E700BF8543000885
:1072D0003840002078310020843100204C400020CC
:1072E00060400020E44400207C31002080310020F8
:1072F0004040002044400020F844002037B50446B8
:10730000D0E90010A569B4F90830226901956469D3
:10731000842B0CBF002303330094FFF701FF03B05D
:1073200030BD0369D0E901128A6051605968814219
:1073300008BF5A60002202611A68013A1A60186890
:10734000704700002DE9F041564C23685A689106B9
:1073500023D51A68920720D5A26AD7065EBFA26A13
:1073600042F40072A2629A6802F46022B2F5602FC1
:1073700010D1E26872B95A6822F020025A60A26AFB
:1073800022F48072A262A26AD6045EBFA26A42F0B0
:107390000102A2626FF012021A605A6815067AD5CD
:1073A0001A68500777D5A26AD1065EBFA26A42F476
:1073B0000052A2629A6802F4E042B2F5E04F0AD0AD
:1073C0005A68520516D49A6802F46022B2F5602F0A
:1073D00010D1E26872B95A6822F080025A60A36A3A
:1073E00023F48053A362A36ADB055EBFA36A43F064
:1073F0000103A3622C4B1D68002D48D0FFF7B2FD9E
:10740000EFF311874FF0500383F31188BFF36F8FB1
:10741000BFF34F8F022395F8602085F86030EB6D45
:10742000012A03F10103D6B2EB6502D087F311887C
:107430002DE0AB6A0BB1FFF77DFD1C4B1B6863BBF6
:1074400005F104084046FFF76CFF194A1420EB6A67
:1074500011689E400E4341461660164A00FB032009
:10746000FFF752FE144BEA6A1B68DB6A9A42DDD9C9
:107470000122124B1A6087F311884FF0E0234FF07E
:107480008052C3F8042DBFF34F8FBFF36F8F6FF09F
:107490000C0223681A60BDE8F081094805F1180163
:1074A000DEE700BF342D0020703100203C4000207A
:1074B0004440002084310020783100200045002025
:1074C000E4440020F8B52F4B5A69920555D54FF486
:1074D00000725A612C4B1C68002C4ED0FFF742FD05
:1074E000EFF311864FF0500383F31188BFF36F8FD2
:1074F000BFF34F8F022394F8602084F86030E36D6F
:10750000012A43F00103D5B2E36502D086F3118866
:1075100033E0A36A43B14FF0500383F31188BFF304
:107520006F8FBFF34F8FFEE7184B1B6833BB271DD0
:107530003846FFF7F6FE164A1420E36A11689D40AC
:107540000D4339461560134A00FB0320FFF7DCFDAD
:10755000114BE26A1B68DB6A9A42D7D901220F4BB2
:107560001A6086F311884FF0E0234FF08052C3F881
:10757000042DBFF34F8FBFF36F8FF8BD084804F1A0
:107580001801E3E700040140EC1F00203C4000200C
:107590004440002084310020783100200045002044
:1075A000E4440020394B2DE9F74F1B68002B67D1CD
:1075B000374B1D6801351D6085B9364B1A68126856
:1075C0000AB1FFF711FD344A19681068186011609C
:1075D000324A136801331360FCF7F6FE304E002484
:1075E0003368DFF8C080AB4212D91422D8F80030DB
:1075F000DB6A53432C4AD358022B2C4B28BF01245F
:107600001B68002B18BF0124204603B0BDE8F08F93
:10761000DFF880A0DFF89890DAF800301B681BB91B
:107620004FF0FF333360E0E7DAF80030DB68DF6803
:107630007A68954201D23260D7E707F1040B5846C9
:10764000FFF76FFEBA6A1AB107F11800FFF769FE7B
:107650000122FB6AD9F800009A4002431420C9F8BD
:107660000020114A594600FB03200193FFF74CFD0F
:10767000D8F80020019BD26A934228BF0124CBE7AF
:107680000C4A0024136801331360BDE73C4000201E
:10769000FC4400207C31002080310020DC440020AC
:1076A000D84400207831002084310020004500209B
:1076B00044400020E044002008B5FFF715FD0128F4
:1076C00013D04FF0500383F31188BFF36F8FBFF3D4
:1076D0004F8FFFF767FF28B14FF0E0234FF0805244
:1076E000C3F8042D002383F3118808BD32492DE926
:1076F000F0470B6843B94FF0500383F31188BFF391
:107700006F8FBFF34F8FFEE7FFF754FC0B68013B11
:107710000B600C6824B10020FFF716FCBDE8F08771
:10772000264B1B68002BF6D0254E264FDFF898908D
:1077300020E0F3684FF00108DC6804F1040A04F16A
:107740001800FFF7EEFD5046FFF7EBFD1420E56A49
:107750003A6808FA05F31343514600FB05903B6075
:10776000FFF7D2FC194B1B68DB6A9D4202D3184B12
:10777000C3F800803368002BDBD10CB1FCF724FE8A
:10778000144D2C6844B10127114EFFF70BFF00B1D7
:107790003760013CF9D12C600D4B1B68002BBAD02F
:1077A0004FF0E0234FF08052C3F8042DBFF34F8F0A
:1077B000BFF36F8F0120AFE73C400020384000202E
:1077C000E44400204440002084310020783100202F
:1077D00000450020E0440020C36870B5DC680CB9A7
:1077E000FFF7A8FB04F118063046FFF79AFD114B8E
:1077F000E56A1B68D3B904342046FFF792FD0123E4
:107800000D4A14201168AB400B43214613600B4B0B
:1078100000FB0530FFF778FC094B1B68DB6AAB42C5
:107820003BBF0120074B0020186070BD3146064861
:10783000F0E700BF3C40002044400020843100209D
:107840007831002000450020E44400202DE9F0417B
:1078500004464FF00108FFF7ADFB90F845501B4F71
:107860006DB200F12406002D17DCFF234FF0010854
:1078700084F84530FFF768FBFFF79CFB94F8445011
:10788000124F6DB204F11006002D12DCFF2384F8B4
:107890004430BDE8F041FFF757BB636A002BE4D0EA
:1078A0003046FFF799FF08B1C7F80080013D6DB27F
:1078B000D9E72369002BE9D03046FFF78DFF08B1E7
:1078C000C7F80080013D6DB2DEE700BF0045002033
:1078D000202210B5234B83F83D20234B1868002845
:1078E00035D0036C43B14FF0500383F31188BFF3DD
:1078F0006F8FBFF34F8FFEE7036853B9836843B1BF
:107900004FF0500383F31188BFF36F8FBFF34F8F96
:10791000FEE7FFF727FBEFF311844FF0500383F3EB
:107920001188BFF36F8FBFF34F8F826BC36B9A4287
:107930000BD290F845100132FF294BB2826307D178
:10794000436A13B12430FFF747FF84F3118810BD59
:107950007F2B01D1FFF7EEFA01335BB280F845309F
:10796000F3E700BF642E0020782B0020436A1A68DA
:10797000116821F4806111600021586B59854163C1
:10798000986B416393F83D0060284FF0200083F826
:107990003D0083F83E1008BF1964136823F001030B
:1079A0001360FFF795BF0000F0B4944B8AB01A68DB
:1079B00095695469506893F83E101029CEB202D0F0
:1079C000402E40F04C8114F0011F67D0860565D52C
:1079D00093F83E10402944D1196D19B9596C01F042
:1079E000FE0103E0596C41F00101C9B21161844903
:1079F000844A29402240002900F092818249214096
:107A0000002900F05881440540F15581002A40F0DA
:107A1000548193F83D201C8D93F83E10D2B2D86A61
:107A2000C9B2002C40F0FC80212A40F0FB800428E1
:107A30001A6800F06381082800F0608110F5803F2B
:107A400000F05C81516821F4E061516011221A63F9
:107A500083F83E40202283F83D200AB0F0BCFFF7B7
:107A600037BF1969B1F5804F05D193F83D10212931
:107A7000596CB8D1B3E7196D31B9596CC91101F01E
:107A8000060141F0F001B1E7196D0129AFD1596C40
:107A9000C91101F0060141F0F101A7E75B4921405E
:107AA0000029A4D08105A2D593F83E10DE6AD3F850
:107AB00030C093F83D70C9B2222F40F0A9801F6DED
:107AC00047B9402906D109975169099192690992EC
:107AD000099A8CE7598D89B251B908915169089179
:107AE000916908910899116841F40071116019E0D9
:107AF000598D89B2012944D116F5803F1CD11168F6
:107B000021F480611160516811F400610DD0116899
:107B100021F48061116000210791516907919269F8
:107B20000792079A00221A6561E70691516906914A
:107B3000916906910699D6E7042E16D0082E14D026
:107B4000BCF1120F11D0D96A0229116814BF21F4B7
:107B5000806141F480611160002205921A685169C8
:107B6000059192690592059ADCE7116821F480611C
:107B70001160002104915169049191690491049963
:107B8000B1E7598D89B2022924D1D96A0026022988
:107B9000116815D041F40061116003965169039199
:107BA000916903910399116821F4806111601A6849
:107BB00051680F05B6D5516841F480515160B1E765
:107BC00041F48061116002965169029192690292BA
:107BD000029AECE7116841F48061116051680E056A
:107BE00042BF516841F480515160002101915169B7
:107BF000019192690192019A94E700BF642E0020DE
:107C000004001000040001008000010002000100D7
:107C1000002100915169009192690092009AE6E674
:107C2000212A03D040291AD1222A18D15A8D92B282
:107C30002AB91A68536823F4806353600FE093F8FD
:107C40003E20402A2CD11A6D92B9DA6C1968012AAB
:107C50009A6C07D1D2B20A611A6D02321A650AB063
:107C6000F0BC7047C2F307220A611A6D0132F5E7D2
:107C70001A6D012A03D19A6C1968D2B2F4E71A6D11
:107C8000022AECD193F83D20222A05D11A68136804
:107C900043F480731360E2E793F83D20212ADED19C
:107CA0005A6A511C5962127819680A615A8D013A50
:107CB00092B25A85D3E7002AD1D08005CFD5D86AB1
:107CC00093F83D20212ACAD1598D1A6889B229B169
:107CD000596A481C586209781161E7E704280DD0F9
:107CE00008280BD010F5803F08D0506820F4E060E1
:107CF000506011221A6383F83E10ABE6516821F4FC
:107D0000E0615160116841F400711160002220218E
:107D10001A6383F83D1093F83E1083F83E209CE6EA
:107D200045492140002940D041053ED5002A3FD198
:107D300093F83D20222A92D1598D1A6889B20329DD
:107D400005D911695A6A501C58621170AEE70239A0
:107D50000129D96A0DD8022911681DBF21F480615B
:107D60001160116841F4806118BF41F40061116035
:107D70005FE70229116814BF21F4806141F480613A
:107D800011601A68516821F4E061516011695A6A02
:107D9000501C586211705A8D013A92B25A852022B5
:107DA00083F83D2000221A63B5E7002A3FF457AF5D
:107DB00082057FF554AFD96A588D1A6880B20328BE
:107DC0000CD1042904D0082902D011F5803F03D139
:107DD000116821F4806111601A68B2E7588D80B291
:107DE0000228AED104291DD008291BD011F5803FEF
:107DF00018D00229116814BF21F4806141F4806118
:107E0000116019684A6822F440724A601A68116960
:107E10005A6A501C586211705A8D013A92B25A85B2
:107E20001A68B3E7516821F440715160116841F458
:107E300000711160EAE700BF40000100F8B5744C22
:107E40007448236859695A6801420CD0D5050AD58F
:107E5000206C40F0010020646FF480705861186855
:107E600040F40040186011F4813F08D0D00506D5D9
:107E7000206C40F0020020646FF40070586111F42F
:107E8000823F23D0D70521D594F83E70658D94F8B4
:107E90003D00202F266BADB2C0B208D13DB900F035
:107EA000F705212D12D0282801D1212E0ED0206CCB
:107EB00040F00400206494F83E00102802BF1868C7
:107EC00040F4007018606FF48060586111F4843FD2
:107ED00008D0D60506D5226C42F0080222646FF461
:107EE00000625A61236C002B50D094F83D20236827
:107EF000293A012A27D800222263282284F83D202B
:107F00001A6822F400621A605A6812F400625ED0A5
:107F10005A6822F400625A60606B3F4B90F821204F
:107F2000012A34D0022A43631CD0042383632268CD
:107F3000136823F0010313602023606B84F83D3045
:107F4000436B984712E094F83D20602A05D05A68A8
:107F500015055CBF202284F83D200022226384F8AE
:107F60003E20CDE7FCF7D2F90028E0D194F83D306F
:107F7000282B0BD1236C5B0708D5284B2022E3620A
:107F80000023236384F83D2084F83E30F8BDA06BC5
:107F9000436390F82130022B14D0042383632368B9
:107FA0005A69500604D51A69636A591C61621A70CD
:107FB0002268136823F0010313602023A06B84F868
:107FC0003D30BDE7FCF7A2F90028CFD0E7E794F8F1
:107FD0003D10602913D1202184F83D1022645A6994
:107FE000510604D51A69636A591C61621A702268C5
:107FF000136823F001031360FFF76AFCB6E75A69C0
:108000005206F9D51A69636A591C61621A70F3E75E
:10801000642E0020000101006D7900080000FFFFC0
:1080200070B5154B154D06461C6828680430FFF7DF
:1080300078F940B92A681249D06A01220B68824057
:1080400023EA02030B602B68A4195C6007D30D4B75
:1080500018682968BDE870400431FCF7C7B90A4BBD
:10806000186829680431FCF7C1F9084B1A68944272
:1080700038BF1C6070BD00BFFC4400207831002078
:1080800044400020803100207C310020D844002072
:1080900008B550B94FF0E0234FF08052C3F8042DDB
:1080A000BFF34F8FBFF36F8F08BD074B1B680BB13A
:1080B000FEF740FFFEF7A2FFFFF7B2FFFFF716FB48
:1080C0000028E7D0F0E700BF3C40002008B5094A8F
:1080D0000346117881420BD010700748523B437021
:1080E000102104F0EDF9BDE808400A20FFF7D0BFE9
:1080F00008BD00BF58290020592900203220FFF771
:10810000C7BF00002DE9F74F06464D4DDFF834811B
:1081100001916B8C9BB2002B71D0002E6DD1EA883F
:10812000AB8892B29BB2934228BF13461F2B64D9EF
:10813000092203EB8303A03BB3FBF2F3C8F8003042
:10814000FDF7ECF900240746FDF7ACFE3E492A8C0A
:108150003E4BDFF8FCB0D1F800A03E4992B2D1F816
:1081600000901C80ABF80040002A52D0BAF82600DC
:10817000FF2221464844FCF7C5FC344BBAF82800DE
:108180001C800823FF2221464844ABF80030FCF74E
:10819000B9FC0123224603213846FCF71EFE204687
:1081A000FDF722F8FF2221462B48FCF7ABFCFDF738
:1081B00031FCFF2221462948FCF7A4FCFDF764FEB0
:1081C000FFF79CFF0198FCF757F998B16B8B9BB2B6
:1081D00083B3234B196869B3224B1A686B8B521A0D
:1081E0004EF660219BB24B439A4223D900230120D3
:1081F000C8F8003003B0BDE8F08F00239EE7002EE2
:108200009CD1EA88AB8892B29BB2934228BF1346B6
:1082100094E7BAF82400FF2248440121FCF772FCDD
:10822000012338461A460321FCF7D7FD0220FCF74C
:10823000EFFFC3E7FCF76EFA08287FF46AAFD5E7D3
:1082400000320020CC2C0020F41F0020242B002022
:10825000262B0020F81F00205FCB000882CA0008F0
:10826000CC2F0020FC4400202DE9F84F0024674B60
:10827000674FA046D7F800901C60FCF74BFA051B2F
:1082800018BF0125A246634BA3F800A0624BA3F8D8
:1082900000A0FDF707FEFCF73DFA002800F0A080E3
:1082A000D7F80090002D40F09F80042800F08B80CC
:1082B00009D80228594B00F0828002D8012800F02A
:1082C0008D802B4614E0082803D01028F9D1BDE892
:1082D000F88F3A68A4EB08031344B3F5967FF0D9FE
:1082E0004E4B1B8F5B422134D7F800801BB2E4B2A7
:1082F0004A4EC4F59672632AF28ED8BFC82492B251
:108300000AB15B421BB2DBB1B18883EAE372A2EB34
:10831000E372194409B213B291FBF3F15143738C28
:1083200009B29BB2002B61D0322940F25233B8BF60
:1083300032219942A8BF1946002089B2FCF7CEF835
:108340003B68A3EB0903B3F5FA6FC0D8344BFF22A7
:1083500093F800B0F38E01219BB2BBF1000F4ED118
:10836000DFF8C0C03048002B18BF6046FCF7CAFBDE
:10837000FF2201212D48FCF7C5FB0123B0881A46D6
:10838000032180B2FCF729FD0220FCF741FFFF2208
:1083900001212648FCF7B6FBF38EFF2201219BB298
:1083A000BBF1000F2FD1204E1E48002B18BF3046C6
:1083B000FCF7A8FBFDF768FDFFF7A0FE63E75B8F06
:1083C0005B421BB294E73A68A4EB08031344B3F58D
:1083D000967F7FF676AF114B1B8F84E75B8FF0E7BC
:1083E00004460546234683E70024FBE70A29B8BF75
:1083F0000A21B1F5E17FA8BF4FF4E1719CE7DFF8F6
:1084000028C00848AFE7074E0748CEE7CC2C00202D
:10841000FC440020242B0020262B002000320020CA
:10842000482A002084CA000886CA00085FCB0008DA
:1084300070B50D4E35680544FCF76CF9044654B927
:10844000FCF768F90446FFF759FE33689D420AD3EA
:10845000002CF5D007E0FCF75DF90446FFF74EFE6F
:1084600033689D42EBD270BDFC44002038B5054610
:108470000C46FDF717FD2846FCF70AFCFDF704FD46
:108480002046BDE83840FFF7D3BF00002DE9F04F8C
:1084900085B0002840F0C68000231D46CDE9023398
:1084A000A94CDFF8A8920193FCF734F9019B002B4B
:1084B00000F0DC80E38C9BB2002B00F0D780042816
:1084C00000F0FD8000F2BE80002800F01B81032830
:1084D00040F0C180FDF7E6FC218CDFF874B289B270
:1084E0009BF800A09B4F9C4E002900F06C81BAF1D4
:1084F000000F0CBF32234FF0FF334FF00008012074
:108500003B80A6F80080FDF7C7F8638A9BB263B38F
:1085100023899BB24BB3C2450CBF20232F23A6F85F
:1085200000803B80FBF790FF8C4A8D4B11688D4A91
:108530001B68126891422CBFC3EB0103C3EB02031B
:108540001844894B984240F2DF804EF66023B0FB1E
:10855000F3F001304246022180B20123FCF73DFCDA
:10856000FF2241468148FCF7CDFA002D00F0DB8068
:10857000BAF1000F14BF372326233B800823FF22C4
:1085800000217B483380FCF7BDFA9BF800304FF0A8
:108590000008002B14BF4FF0430B4FF0000BDFF827
:1085A000D4A1A7F800B0DAF80000A6F80080B0F572
:1085B0007A7FC0F0EF80FF2241466F48FCF7A2FAB5
:1085C0000A23DAF800004246B0FBF3F0032101234E
:1085D00080B2FCF702FCFF2200216848FCF792FA07
:1085E0000823A7F800B03380FDF714FAFF2200211A
:1085F0006348FCF787FAFDF747FC638C614E9BB23A
:10860000002D00F03B81002B00F03581238E9BB2C2
:108610001F2B40F21681092203EB8303A03BB3FB1F
:10862000F2F30FE1831E584258410121FFF76AFD22
:1086300001287FF431AF4A4B1A68484B1A6005B0E5
:10864000BDE8F08F20282DD03FF644AF082802D097
:1086500010287FF43FAF4C4BD9F800001B684FF453
:10866000FA71DB891844FFF701FF33E7042832D0A1
:1086700010D8002846D003283FF42CAFA688FFF777
:10868000F3FDA388B6B29BB2B3423FF423AFFEF72B
:108690000DF91FE71028D2D0202822D008287FF417
:1086A00019AFCCE7384BD9F800001B684FF47A714A
:1086B0009B891844FFF7DAFE002301930AE7238E13
:1086C0009BB2002B3FF406AFE38C019A9BB2012BC7
:1086D00008BF1546FEE6238E9BB2002B18BF01256E
:1086E000F8E6E38C9BB2002B3FF4F4AE264BD9F8AE
:1086F00000001B684FF47A715B891844FFF7B6FEDF
:108700000123DAE70546E5E64FF47A73B0FBF3F0B0
:1087100001304246022180B20123FCF75EFBFF22BA
:1087200041461A481FE7BAF1000F14BF2F23202338
:108730003B8008233380FDF717F8154B02222946AA
:1087400053F820001FE700BF00320020F81F002070
:10875000482A0020242B0020262B00209C2F0020BC
:10876000FC440020CC2F0020B882010088CA0008F9
:1087700084CA0008484000205FCB00088ACA00086D
:1087800082CA0008CC2C0020F41F00206FCB000808
:1087900058CC00084FF00A0AB0FBFAF00123424619
:1087A000022180B2FCF719FBFF2241464648FCF744
:1087B000A9F9464B42461868B0FBFAF30AFB1300CE
:1087C0000123194604E739803180BAF1000F1CD12A
:1087D000FDF7D6F83E48FF220121FCF793F901206E
:1087E000FCF75AFF5DB102210846FCF7EDF8374B64
:1087F00000211868FCF7D4FDFCF7B4FCFBE6FF226F
:1088000001213348FCF77EF9F1E7304B1868FCF79B
:10881000C7FDFCF7A7FC75B102210846FCF7D4F8A8
:108820000120FCF739FFFF2201212948FCF76AF9F2
:10883000FDF7A6F8DFE6FF2201212548FCF762F9E3
:10884000EEE7002300203360FBF716FED8B9DFF80F
:10885000848098F80070EFB100241F4B1F4A1B68FA
:1088600010681B8A42F2107118443460FFF7FEFD55
:1088700088F80040E3E6238E9BB2E3E70BB1A388C0
:10888000C5E6A388F8E700210846FFF73BFC00286F
:10889000DDD0D4E638463668FCF726FE0A36361AAE
:1088A000142E07D8029B6BB901270D4B1B6803F2EE
:1088B0004D130393039B0BB1094B1B68FFF71EFC81
:1088C0000297F1E5029FF5E780CA000848400020C2
:1088D0005FCB0008602E0020F41F0020F81F00204E
:1088E000FC44002010B5114AB2F84A309BB2052B67
:1088F00011D1FBF70FFF04463CB9FBF70BFF044611
:10890000FFF7FCFB002CF8D010BDFBF703FF04467B
:10891000FFF7F4FBF0E74FF47A70BDE81040B2F8CF
:108920004A309BB25843FFF783BD00BF003200209E
:10893000002373B500934FF6FF7304460C4EADF859
:108940000430214668463268FDF7B4FA0546FBF765
:10895000E1FE38B9002DF4D0FDF796FA2820FFF794
:1089600097FBEEE7431E5842584102B070BD00BF6E
:10897000FC44002008B50B4BB3F84C309BB273B9E4
:10898000094B0A4A1B6810689B8A1844FFF7D0FFFE
:1089900018B101212420FBF7A1FD002008BD002112
:1089A000F8E700BF00320020F41F0020F81F00206D
:1089B00038B50D4B1D680D4B288B1C682044FFF704
:1089C000B7FF80B17422FF21094804F005F8FDF7D4
:1089D000D9FFFDF76BFF688840F6B8312044FFF7F8
:1089E00045FDFCF751FC38BDF41F0020F81F0020A6
:1089F000003200202DE9F84FFDF754FA4FF0190925
:108A0000414F424A424D9468EB8DC4F38F049BB2B0
:108A1000A400B4FBF3F44FF00A0BA4B20123B4FB9F
:108A2000FBFA0026DFF8EC801A4602215046A7F830
:108A30000090A8F80060FCF7D0F9FF220121364829
:108A4000FCF760F801220BFB1A403346114680B256
:108A5000FCF7C3F9FF2201213048FCF753F8082343
:108A6000E88D32460321A8F8003080B201233E8011
:108A7000FCF7B3F9FBF74EFE022841D007D80128D6
:108A800026D0FDF701FA2820FFF702FBB9E71028EE
:108A9000F7D8234C044114F00104F2D1FDF706FF8E
:108AA000FDF700FA1F4B204A1B6810681B8840F630
:108AB000B83118443C80A8F80040FFF7D7FCFDF718
:108AC000E3F94FF4FA70FFF7B3FC2046BDE8F88FE6
:108AD000164AB2F8A830B2F8AA00B2F8AC10EA8D83
:108AE00092B2934202D1E885EB8DCAE7EA8D58181D
:108AF00092B28242C2BFEB8D5B1A9BB2EB85F3E769
:108B00001520FBF701FDBCE7242B0020F02B0020F3
:108B100000320020262B002076CA00088CCA0008EC
:108B2000EFFEFEFFF41F0020F81F0020520000207F
:108B3000012838BF0120FFF7ABBA000010B50C4682
:108B4000044B19681831FBF751FC2046BDE8104072
:108B5000FFF766BA783100202DE9FF4704460191FE
:108B600040B94FF0500383F31188BFF36F8FBFF309
:108B70004F8FFEE7056C45B14FF0500383F311882A
:108B8000BFF36F8FBFF34F8FFEE7FEF7ADFA50B91B
:108B9000019B63B14FF0500383F31188BFF36F8FD4
:108BA000BFF34F8FFEE72846964F974E90E005465D
:108BB000FAE7019B23B9002D00F02081FEF714FA9B
:108BC00020B93B680293914B1B680393FEF7BCF9F5
:108BD000FEF714FAFEF7EEF994F8443001A9FF2BE2
:108BE00004BF002384F8443094F8453002A8FF2BDA
:108BF00004BF002384F84530FEF7A6F9FEF750FACB
:108C0000002840F09C80FEF7D5F9A36B002B57D1CC
:108C1000FEF79AF92368002B3CD1FEF7CBF9A56843
:108C2000002D34D03368D5F82CA0DB6A9A457ED26B
:108C3000AB69DFF8DC81002BA8BF33686A69A2BF8B
:108C4000DB6AC3F10603AB61142303FB0A839A4278
:108C500069D105F104094846FEF763FB6D4B30B955
:108C600001211A6801FA0AF122EA01021A60326847
:108C70001968D26AEA62012505FA02F00843186011
:108C80001420494600FB0280FEF73EFA0120FEF761
:108C90005BF90546019904F12400FFF74FFF2046D8
:108CA000FEF7D4FDFEF722FD88B94FF0E0234FF028
:108CB0008052C3F8042DBFF34F8FBFF36F8F06E0D0
:108CC0002046FEF741F9FEF7C1FDFEF70FFD01203A
:108CD000FEF770F9A36B002B3FF46BAF013BA3636E
:108CE000236843B9484B1A681AB119688A6D013272
:108CF0008A651B68A360236973B104F11000FEF755
:108D00006BFD48B14FF0E0234FF08052C3F8042DC3
:108D1000BFF34F8FBFF36F8FFEF716F9012528467B
:108D200004B0BDE8F0873368DB6AEB62AEE7336816
:108D3000686DDB6A98422CBF00200120A7E720461F
:108D4000FEF784FDFEF7D2FCFEF734F9A36B13B1F6
:108D5000FEF7FAF8BBE7FEF7F7F8002DDFD0FEF7D5
:108D600029F9656A1DB1236B1D68C5F10605A46864
:108D7000002C43D0A26D42B94FF0500383F3118809
:108D8000BFF36F8FBFF34F8FFEE7636D9D4238BF18
:108D90001D46E36A9D4231D0012A2FD11A4A12683A
:108DA000944208D14FF0500383F31188BFF36F8FC3
:108DB000BFF34F8FFEE7A269154E002AA4BFC5F18D
:108DC0000602A261142202FB03636269E5629A4211
:108DD00014D104342046FEF7A4FA01230D4AAB4017
:108DE00018B9116821EA030111601420116800FB11
:108DF00005600B4321461360FEF786F9FEF7A4F8E1
:108E000000258CE7DC44002078310020FC44002061
:108E10008431002044400020F8B51E46174B074619
:108E20000D46186864211446FFF796FE012809D103
:108E30003846FBF70FFDFBF76FFD28B9FBF726FD62
:108E4000FDF72EFD00250CE02846FBF765FD0546E5
:108E50000028F3D0A4B2013E2CB9FBF717FDFDF7B3
:108E60001FFD2846F8BDFCF721FA16F8010FFBF7A5
:108E700053FD0028E2D0013CA4B2EDE7282B0020EE
:108E80002DE9F8431E46294B04460D461868642117
:108E90009046FFF761FE012809D12046FBF7DAFC76
:108EA000FBF73AFD28B9FBF7F1FCFDF7F9FC0025CB
:108EB0001EE02846FBF730FD0028F4D04FF40013E5
:108EC0001B4F3B610F2300BF013BFCD144F001006D
:108ED000FBF7C0FCFBF720FD05460028E3D01FFA96
:108EE00088F14FF0020831B9FBF7D0FCFDF7D8FC50
:108EF0002846BDE8F8834FF008090024FBF7DEFCA4
:108F00006400E4B209F1FF39044319F0FF09E4B247
:108F1000F4D101290CBF08464846C7F81080013932
:108F2000FBF7E2FC89B206F8014BDCE7282B0020B6
:108F300000080140184B10B51B6843B14FF05003B7
:108F400083F31188BFF36F8FBFF34F8FFEE7FEF7F8
:108F500055F8124B01681A6811F10E032CBF012459
:108F600000248A420FD27CB90360FEF7BFFB48B9E8
:108F70004FF0E0234FF08052C3F8042DBFF34F8F22
:108F8000BFF36F8F10BD0CB99A42EDD20360981AEF
:108F9000FFF746F8E9E700BF3C400020FC44002012
:108FA0002DE9F04F0026DFF8DCA089B0DAF80030B8
:108FB00002900393DAF800300793039ADAF800304E
:108FC0004FF4FA719B1A642201935343B3FBF1F3FC
:108FD0009BB2C3F196045B435C4341F2883394FB3C
:108FE000F3F46023A4B25C43B4FBF2F4A4B29C4259
:108FF00028BF1C460299E3B2C4F16002002938D1AF
:109000002746B146029D5FFA82F8DFF87CB01E4623
:10901000DBF80030059203EB0901D819049303F043
:1090200001FDDBF804B0059A0BEB09010BEB07001F
:1090300003F0F8FC154B224603EB0801049B58197A
:1090400003F0F0FC124B224603EB08010BEB05008A
:1090500003F0E8FCFCF718FF07A8FFF76BFFFBF72E
:1090600059FB18B9019BB3F5FA7FA6D909B0BDE841
:10907000F08F00279E1BC3F16005B8465FFA86F9A2
:10908000EDB2C2E7FC440020342A00205A2A002016
:10909000BA2A00202DE9F04F00240125B24B95B0EB
:1090A0001D7009908DF82A408DF82940FBF7F5FADC
:1090B0004FF6FF732646A246DFF8B082DFF8B0B263
:1090C00004900B950D94ADF83830059403940695F3
:1090D000029414239DF82A506B430793079A099B27
:1090E0009F180893BB6813B19DF8293013B115B0D0
:1090F000BDE8F08F8DF82B300B9B0193002B00F017
:109100008880DFF870929C4BC9F800306033C9F852
:109110000430FB688BB1984778B9029B0135013365
:10912000DBB20293954B039FC9F8003060338DF892
:109130002A50C9F804300397CBE70122904B1A70EC
:109140000023904A1380904A1380FCF7ABFEB97C51
:1091500011B1787CFBF7B0FDBB689847019B022BEF
:1091600040F0C6800022ADF843204FF40652ADF81F
:109170003C2080228DF83E208DF8402040224FF088
:109180001009824B0921DB790FA88DF83F308DF84B
:1091900041308DF8422003F093F9D8F800300C9359
:1091A00060237649744A11F801EB013B91F85FC0E6
:1091B00013F0FF034FEACC1040EA5E0012F801EB17
:1091C00001F8010C4FEACE1040EA5C0081F85F0024
:1091D00092F85F004FEAC01C4CEA5E0C4FEA500068
:1091E00002F801CC82F85F00DDD1FBF793FA00288A
:1091F00072D0C9226049614803F006FCFCF744FEC6
:109200005C4A5E4B13606033536000235C4A0B93EF
:109210001370DBF80020D8F800309B1A40F6B73204
:10922000934272D9DDE90723995C00296DD0584B30
:10923000D8F800201B680DA803EB41035549B3F88B
:109240004A3009681944FCF735FE069B03B920B182
:10925000FCF71AFE2820FEF71BFFFBF75BFA039BC7
:109260000746834218BF00260DF12B030F9309AB6D
:1092700010930DF12A0311930DF129031293042881
:109280000BAB139300F0AC8000F28A80012800F051
:109290009680022800F09B80C6F59673632BDBF85E
:1092A0000020D8F8003098BFC8269B1A3A4A93424B
:1092B00008D901238DF8293000230D934FF6FF7351
:1092C000ADF838309DF82B301BB10998FBF7E5F964
:1092D0000490002306932EE7FCF7D6FD09F1FF3931
:1092E0000CA8FFF727FE19F0FF097FF459AF87E7B5
:1092F000224BC9F800306033C9F80430019B013BB0
:1093000058425841FFF74CFE7FE700231D4A138067
:109310001D4A1380FCF7C6FDB97C11B1787CFBF7C0
:10932000CBFCBB68984724B1059B002B36D00023AB
:1093300005931022049B0499B2FBF3F2012393409E
:10934000029A013BAA1A120192FBF1F29BB2D2B22D
:109350009340084A1168526881F85F30C3F30723CD
:1093600082F85F3074E700BFEC2B0020FC44002043
:109370009C2F0020342A00205A2A00206A2900202D
:10938000FC1F0020242B0020262B00205929002020
:10939000F41F0020F81F0020C0D40100059457E7F7
:1093A000082839D010287FF477AF01238DF82930B1
:1093B00000230D934FF6FF73ADF838306CE70D9B2B
:1093C000002BF5D10FA8FBF77FF9044664E70D9B4E
:1093D000002BEDD101351C468DF82A500B905BE730
:1093E000D8F800300AF59672334493427FF654AFB2
:1093F0000FA8FBF769F9041E14BF4FF47A7200221C
:10940000D8F8003002EB030A00230D934FF6FF73E8
:109410002136ADF838303FE7D8F80030A3EB0A0327
:109420003344B3F5967F7FF637AF02230135D8F882
:1094300000A08DF82A500B93E6E700BF08B502485C
:10944000FFF728FE002008BD2CEE000808B50248F2
:10945000FFF720FE002008BDD0CD000808B5024867
:10946000FFF718FE002008BD58D0000808B50248D4
:10947000FFF710FE002008BDE8EA000808B5024822
:10948000FFF708FE002008BD68CC000810B5134C9B
:10949000FDF790FD2368DB6D7BB90122236883F81B
:1094A0006020FEF7BDFD4FF0E0234FF08052C3F87F
:1094B000042DBFF34F8FBFF36F8FFDF745FDFDF711
:1094C00079FD2368D86D10B100222368DA65002287
:1094D000236883F86020FDF737FD10BD7831002048
:1094E0002DE988480020FBF775FF00232024724AED
:1094F000724D1360724B1A68724B1A600520FFF7A9
:10950000C5FF0120FBF7F0FFE88D012180B2FBF7DA
:1095100011FF013CF2D1FCF7F9F8B0B36A4E4FF4F9
:10952000FA60FFF7B3FF002800F0BD800120FBF7D1
:10953000DBFF614B83461C68644FDFF894A1DFF8C2
:109540009491DFF89481002C00F0A680B4F5E17FBF
:1095500028BF4FF4E174FBF7A1FFA04202D2FBF752
:109560009DFF0446A4EB0B040A2C1FFA8BFB05DDC0
:109570003988ABEB010109B20A290DDDDAF80020C8
:10958000A7F800B0C9F8002012E04FF4FA60FBF72A
:109590008DFEFFF77BFFBEE7DAF80020D9F8003038
:1095A000D31A44F62062934202D9012388F800308E
:1095B0004FF47A7B4949DAF800300A6800209B1A98
:1095C000BBFBF3FBDAF800300B60FBF7D3FEAB8E8E
:1095D0009BB243B10A22AB8E9BB253439842C2BFA7
:1095E000A88E80B250433E4B1B6823B10A225343DE
:1095F0009842A8BF18462823B3FBFBF33268C3F197
:1096000064035343642293FBF2F35022544394FBCC
:10961000FBF42344834239DD306030682B8D9BB2EC
:109620000BB340F6C4116B8D2E4C9BB24B43DAF852
:1096300000202168521A934209D2FA21AA8DDAF841
:10964000003092B2236001FB0233274A13602B8D56
:109650009BB2984207DA244ADAF8003012689A423C
:1096600084BF288D80B247F6DF72204B9B68C3F31E
:109670008F03934288BF002098F80030002B18BF5A
:109680000020FBF7A7FEFBF711FE48E740428342AC
:10969000ACBF33603060C0E7DAF800203880C9F82A
:1096A00000202046BAE71423114A1380114B18708A
:1096B000114B187033E700BFCC2C00200032002083
:1096C00078310020703100200C2C0020042C002068
:1096D000FC440020082C0020602E0020102C0020CC
:1096E00074310020182C0020142C0020C42B0020E2
:1096F000F01F0020512900206C310020C3685A1E41
:10970000C26033B9036833F8022B03600F23826011
:10971000C36083685A008260C3F3C030704710B5DD
:10972000012104462046FFF7E9FF49000144204695
:10973000FFF7E4FF0028F5D1084610BD7FB5374B91
:109740001A78FF2A0DD141F27851354AB2F84220F9
:1097500092B28A4203D04AF2D7118A4231D0002213
:109760001A701B78012B56D80C212E4A01FB0322BC
:10977000517A5368C9090FD015890093C5F30E05B6
:109780001D44294B012201934FF48043CDE902325D
:10979000009B9D4217D8244B244A25491360254A33
:1097A00003F59473136024484FF4F96202F0E6FE67
:1097B0004FF4C6722149224804B0BDE8704002F05F
:1097C000DDBE0122CCE76846FFF798FF019ED0B1CD
:1097D0006846FFF7A4FF04466846FFF7A0FF009B1A
:1097E00002385A1C00921B78023403EB0023DB433F
:1097F00033441C449C42CBD0019A511C019113F874
:10980000011B1170F6E7009B5A1C0092721C01921A
:109810001B783370BCE704B070BD00BF500000205F
:109820000032002040CC000876320020F41F0020D7
:1098300089210020F81F0020B2D40008FD1F00205D
:1098400025D300080C2210B5094C1F2023780133C2
:1098500003F0010323705343064AD15AFAF73EFE40
:10986000FFF76CFF2078431E5842584110BD00BFDF
:109870005000002040CC0008014B186802F082BD67
:10988000782B002008B5044B32211868FFF764F9E3
:10989000431E5842584108BD782B002030B585B092
:1098A0000546FFF7EFFF044668B14FF47A730F21C6
:1098B00000932846012303AAFCF7D6F8B0FA80F4F7
:1098C0006409FFF7D9FF204605B030BD1FB590F8F9
:1098D0003D30044603F0FF0200687BB9254B84F855
:1098E0003C20984228D103F50333DA6942F00202A2
:1098F000DA61DB6903F002030293029B0223211D5C
:1099000084F83D30FDF78CF80123002084F84630C0
:1099100084F83E3084F83F3084F8403084F8413099
:1099200084F8423084F8433084F8443084F8453079
:1099300084F83D3004B010BDB0F1804F0AD10E4B19
:10994000DA6942F00102DA61DB6903F00103019395
:10995000019BD3E7094B9842D0D103F50233DA6972
:1099600042F00402DA61DB6903F004030393039B12
:10997000C4E700BF0004004000100240000800409F
:10998000134B10B5DB68C3F30223C3F107041A1DA0
:10999000042C28BF0424062A88BFDA1E4FF0FF33A8
:1099A00098BF0022A34021EA0303002803FA02F330
:1099B000ACBF00F16040074A4FEA0313DBB2B5BF0A
:1099C00000F00F0000F56140135480F8003310BD23
:1099D00000ED00E014ED00E02DE9FF48FBF786FE06
:1099E000002800F09B8001210C20FBF7CBFD002814
:1099F00000F09480AE4D0A20EB6898470624FBF7F0
:109A00005BFE002800F082800F210B20FBF7BAFDDF
:109A1000002800F0838000210A20FBF7B3FD002816
:109A20007CD000210E20FBF7ADFD002876D0002170
:109A30000F20FBF7A7FD002870D00C210620FBF7B4
:109A4000A1FD00286AD007210920FBF79BFD002813
:109A500064D000210820FBF795FD00285ED004218A
:109A60000720FBF78FFD002858D007210220FBF7C5
:109A700089FD002852D00A20EB68984740218C4885
:109A8000FBF7F7FB0B2104460220FBF77BFD0028C8
:109A900044D00A20EB68984740218548FBF7E9FB52
:109AA00004F0030400F00300844240F2F880252112
:109AB0000320FBF767FD88B307210220FBF762FD57
:109AC00060B344210620FBF75DFD38B30421072075
:109AD000FBF758FD10B302210C20FBF753FDE8B152
