:020000040800F2
:104000000050002051410008E5720008E7720008E6
:10401000E9720008EB720008ED7200080000000071
:1040200000000000000000000000000021720008F5
:10403000EF72000800000000A1720008699B0008F0
:1040400099410008994100089941000899410008E8
:1040500099410008994100089941000899410008D8
:10406000994100089941000899410008F17200083F
:1040700099410008994100089941000899410008B8
:10408000217300082D730008B178000899410008D9
:10409000994100089941000899410008617A000897
:1040A00099410008FD7200089941000899410008F3
:1040B0001573000809730008994100082D94000841
:1040C000F9980008994100089941000899410008B1
:1040D0009941000899410008994100089941000858
:1040E000994100089941000899410008000000002A
:1040F00000000000000000000000000000000000C0
:0C41000000000000000000005FF8E0F18B
:1041100010B5054C237833B9044B13B10448AFF301
:1041200000800123237010BD680000200000000003
:1041300044C6000808B5034B1BB103490348AFF35D
:10414000008008BD000000006C00002044C600088C
:10415000002103E00B4B5B58435004310A480B4BE2
:1041600042189A42F6D30A4A02E00023136004324E
:10417000084B9A42F9D303F051FA08F00FFA05F010
:1041800013FFFEE7B8E900080000002068000020E7
:1041900068000020F8330020FEE7000006480068B1
:1041A000006880F3088862B661B6BFF34F8FBFF333
:1041B0006F8F00DF00BF000008ED00E04FF05003FC
:1041C00083F31188BFF36F8FBFF34F8FFEE70000BB
:1041D000002307B501930A4B1B68013301D0FFF799
:1041E000EDFF4FF0500383F31188BFF36F8FBFF3E0
:1041F0004F8F019B002BFCD003B05DF804FB00BF88
:104200006000002008B5EFF305830F2B07D90E4A95
:104210009B5C0E4A12789A4201D9FFF7CFFF4FF00C
:10422000E0230B4AD3F80C3D126803F4E063934299
:1042300008D94FF0500383F31188BFF36F8FBFF39A
:104240004F8FFEE708BD00BFF0E300E0202F002005
:10425000242F0020036810B59A68D10701D40020EC
:1042600010BD9A680A4922F001029A600C689A68A7
:10427000D207F4D50A68121B022AF8D9836A43F0E0
:1042800010038362C36A43F00103C3620120E7E7BE
:10429000282F0020436A9A6A12F0500F18D19A6AA8
:1042A00042F400729A621A68926802F46022B2F5CF
:1042B000602F10D1DA6872B99A6A22F480729A6219
:1042C0009A6AD20407D49A6A42F001029A6270474D
:1042D0001B6A1B6B184770477047436A9A6A42F023
:1042E00040029A62DA6A42F00402DA627047000021
:1042F0002DE9F74F00221646644F654BDFF894C155
:10430000DFF894E14FF001080D6808FA06F808EAB2
:10431000050438EA05057AD14D68032D07D8013D1B
:10432000022D00F28D80DFE805F09BA0A600122D83
:1043300000F09E8072D8112D00F09480FF2C98BF61
:1043400082464FF00F0988BF00F1040A4FEA860544
:10435000DAF8008088BF203D09FA05FB28EA0B083F
:1043600002FA05F548EA0505CAF80050D1F804A09C
:104370001AF0805F4BD0BD6926F0030845F00105B7
:10438000BD61BD6908F1804805F00105019508F59A
:10439000803806F0030B019D4FEA8B0BD8F80850CC
:1043A00009FA0BF925EA09093C4DA84267D005F541
:1043B0008065A84265D005F58065A84263D005F503
:1043C0008065A8420CBF0325042505FA0BF545EAD4
:1043D0000905C8F808501D681AF4803F14BF25432A
:1043E000A5431D605D681AF4003F14BF2543A54333
:1043F0005D609D681AF4801F14BF2543A5439D602E
:10440000DD681AF4001F14BF2543A543DD600136A3
:10441000102E7FF477AF03B0BDE8F08FDFF8809007
:104420004D450DD018D8A9F580194D4508D009F58E
:1044300070294D4504D0A9F580194D457FF47EAF14
:104440008A68D2B1012A08BFC0F810804FF0080274
:1044500018BFC0F8148071E76545F1D07545EDE7E8
:10446000CA686BE7CA68043268E7CA68083265E759
:10447000CA680C3262E7002260E704225EE700258A
:10448000A3E70125A1E702259FE700BF0010024036
:10449000000401400000311000003210000801400B
:1044A0000000221008B590F82130022B03D004231D
:1044B0008363012008BD03681A6822F00E021A60A7
:1044C0001A6822F001021A60174A93421CD0143273
:1044D00093421BD0143293421AD0143293421AD012
:1044E000143293421AD0143293420CBF4FF480130B
:1044F0004FF080730D4A53604FF480730384436B15
:104500007BB198470020D5E70123F3E71023F1E7BB
:104510004FF48073EEE74FF48053EBE74FF48033B2
:10452000E8E71846C6E700BF080002400000024066
:1045300070B40425C66B026C34680368954025424C
:10454000196832D04D0730D51A6896065EBF1A68D2
:1045500022F004021A603D4A934219D01432934269
:1045600018D01432934217D01432934217D0143219
:10457000934217D0143293420CBF4FF480034FF094
:104580008063334A5360C36A002B5CD070BC184709
:104590000423F6E74023F4E74FF48063F1E74FF498
:1045A0008043EEE74FF48023EBE702259540254258
:1045B00035D08D0733D51A68940606D41A6822F0D0
:1045C0000A021A60012280F82120204A934219D061
:1045D0001432934218D01432934217D014329342BB
:1045E00017D01432934217D0143293420CBF4FF4B9
:1045F00000134FF00073164A5360002380F82030F8
:10460000836AC1E70223F6E72023F4E74FF400733F
:10461000F1E74FF40053EEE74FF40033EBE70825E2
:10462000954025420FD009070DD5196821F00E01DC
:104630001960012303FA02F2726083634FF48073FE
:104640000384036BA0E770BC704700BF0800024002
:1046500000000240034A0130116813685B1A83426C
:10466000FBD37047282F002030B50C68631C0AD19B
:1046700003695A684A6091608B60596003680861F9
:104680000133036030BD00F108021346526815681B
:10469000A542FAD9EDE7000008B9064B1868026B8D
:1046A0000020135CA52B02D0C0F38F0070470130AF
:1046B000F7E700BF1C180020064A13681968064B6C
:1046C00019B94FF0FF321A6070471268D268D26889
:1046D0005268F8E720180020CC330020C3685A1E27
:1046E000C26033B9036833F8022B03600F23826082
:1046F000C36083685A008260C3F3C030704710B54E
:10470000012104462046FFF7E9FF49000144204605
:10471000FFF7E4FF0028F5D1084610BDF0B54FF4CF
:10472000804386180122002485B0CDE90001CDE93F
:104730000232009BB34202D3204605B0F0BD68466A
:10474000FFF7CCFF019FE8B16846FFF7D8FF0546A9
:104750006846FFF7D4FF009B02385A1C00921B7872
:10476000AA1C03EB0023DB433B4402341A4493426C
:1047700001D12C44DDE70199481C019013F8010B8D
:104780000870F4E7009B01345A1C00927A1C0192D5
:104790001B783B70CDE700000A4B588A80B278B195
:1047A000188980B260B11A89188992B2052A94BF1B
:1047B00042F210734EF6602380B288BF053858432A
:1047C000704700BFA418002038B5134A538A9BB223
:1047D0000BB9002038BD13899BB2002BF9D00F4ACA
:1047E0000F4B14681B6843EA040288B1002AF1D019
:1047F0000C4D2968C91AFFF7CFFF8142E9D9286813
:10480000041BFFF7C9FF844294BF00200120E1E7A9
:10481000002ADED0ECE700BFA4180020AC16002070
:10482000B0160020F0330020034B588A80B20038C5
:1048300018BF0120704700BFA4180020034BD88A7E
:1048400080B2003818BF0120704700BFA4180020B4
:10485000034B188D80B2003818BF0120704700BF8D
:10486000A4180020F8B5002506462C461427EBB204
:1048700007FB03639A680AB92046F8BDDB6813B9E1
:104880000134E4B202E098470028F9D10135EEE79F
:104890000B4B70B533F8305003EBC0035C88094B09
:1048A000460003EB400081808288334492B2AA42E2
:1048B00038BF85809A8892B2A24288BF9C8070BD22
:1048C000EACF0008A418002008B5104BD9885B8CEB
:1048D00089B29BB273B1143189B2B1F5117F88BF2F
:1048E0003C210120FFF7D4FFB1F5117F14BF002058
:1048F000012008BD0A3189B2B1F5967F88BF0A212F
:104900000120FFF7C5FFB1F5967FEFE7A41800205F
:1049100008B5144B198E5B8C89B29BB29BB179B1EF
:1049200040F25133143189B2994288BF00211620D8
:10493000FFF7AEFFB1F5527F34BF0020012008BD64
:104940004FF4F071F3E759B10A3189B2B1F5E17F63
:1049500088BF00211620FFF79BFFB1F5E17FEBE751
:10496000FA21F7E7A418002070B5114B114C33F869
:10497000306003EBC00359889A8804EB400345007C
:10498000988880B2884207D19E802C44A08880B24B
:10499000431A5842584170BD98888E1A80B2B0426E
:1049A000B7BF98889980121892B2B8BF9A80ECE786
:1049B000EACF0008A418002070B50F20FFF7D4FF3D
:1049C00005462748018E8288C388408C89B280B210
:1049D00092B29BB280B3052001EBC10102EBC2068B
:1049E000A031A03603EBC304B1FBF0F1B6FBF0F647
:1049F000A034B4FBF0F489B2B6B20A23B1FBF3F1F0
:104A0000B6FBF3F6A4B2B4FBF3F401EB8101490069
:104A1000162089B2FFF73CFF06EB86014900002013
:104A200089B2FFF735FF04EB84014900012089B208
:104A3000FFF72EFF284670BD09202039203A01EBF0
:104A4000810102EB820291FBF0F192FBF0F6203B38
:104A500003EB830393FBF0F489B2B6B2CDE700BF5A
:104A6000A418002038B500230122104D04462B70F5
:104A700003681A70D0E90131142009781B6800FB23
:104A80000133187C232809D8FFF76EFF2B7813B168
:104A9000032223691A6001232B7038BD586808B1BE
:104AA0008047F3E7E3681A70F0E700BFFC120020CC
:104AB00020220C4B1A6102221A610F2200BF013A18
:104AC000FCD14FF400321A610F2200BF013AFCD131
:104AD0004FF400121A610F2200BF013AFCD10222EA
:104AE0001A617047000801404FF40032094B1A6107
:104AF0000F2200BF013AFCD120221A610F2200BF11
:104B0000013AFCD102221A610F2300BF013BFCD104
:104B1000704700BF000801400222094B1A610F22B2
:104B200000BF013AFCD120221A610F2200BF013AD6
:104B3000FCD14FF4001298681A61C0F3400070472E
:104B4000000801400A4B78B102221A610F2200BF0F
:104B5000013AFCD120221A610F2200BF013AFCD198
:104B60004FF400121A6170474FF40032EDE700BFB6
:104B70000008014010B50146082401F08000013C06
:104B8000FFF7E0FF490014F0FF04C9B2F5D102229B
:104B9000034B1A61FFF7C0FFB0FA80F0400910BD67
:104BA00000080140F0B55442A0421E46059D134640
:104BB00024DD602822DC002800EB0207B6BF444257
:104BC0000024E4B2602FC4BFC0F16002D2B2E9B9E0
:104BD000134F21183F6805EB040C0F4421468A420D
:104BE0000DD8102E0AD1102E18BF00230D492344D2
:104BF000096820442B440144A2420AD8F0BD1CF8A5
:104C000001EB013107F801EBC9B2E8E70829EAD066
:104C1000E7E713F8010B013401F8010BE4B2EBE70D
:104C2000681100206C11002002292DE9F34104468F
:104C30001CD11022254B264D1A700C22254B1A70C0
:104C4000244B254F1E78214BB7F900801B78234950
:104C5000DA08724304FB025500953246404691F94A
:104C600000104644FFF79EFF3E8009E001280AD16C
:104C70001A4BB3F900201AB917490A8008221A8082
:104C800002B0BDE8F081FBD900290BBF082010203D
:104C900006220C220D4B18700E4B1A700422104B7A
:104CA0001888A0420AD85D88A54207D9201AD3E9FE
:104CB000012584B2002918BF1546C1E7013A03F166
:104CC0000C03EDD114461546BAE700BF2C130020A3
:104CD00064CA00082D130020321200203412002074
:104CE000A800002038B504460D46237803B938BD26
:104CF000F02B05D898B201342946FFF795FFF4E769
:104D00006278002AF3D0F03BC3EB03230F3A13443D
:104D100098B20234F0E70000002205490A800549F4
:104D20000A800178012914BF11460130FFF7DABF6C
:104D3000321200203412002010B50A4B0A4A0C46E9
:104D40001B68443033F81030106804EB44041844F6
:104D5000FFF7E2FF0022054BA400023C1C80044B3D
:104D60001A8010BD7C10002080100020321200201C
:104D70003412002008B507210520FFF7DDFF064BA0
:104D800006485B8C064A9BB2002B08BF1046BDE864
:104D900008400121FFF7A6BFA4180020D2C60008D2
:104DA00025C7000808B507210F20FFF7C5FF084BEE
:104DB000084A9B8C12689BB243B1D38C064A0121EE
:104DC00010681844BDE80840FFF78CBF138DF5E765
:104DD000A41800207C10002080100020072108B5B6
:104DE0000846FFF7A9FF0B4B198A0B4B89B21A68CB
:104DF0000A4B01291B6804D0022908D1908C01219B
:104E000000E0508C1844BDE80840FFF76BBF108CE1
:104E1000F5E700BFA41800207C10002080100020BF
:104E2000072108B50920FFF787FF0D4B198B0D4BA4
:104E300089B21A680C4B02291B6809D003290AD0D1
:104E400001290AD1D08D1844BDE80840FFF74ABFB8
:104E5000108E0121F7E7508EFBE7908EF9E700BF37
:104E6000A41800207C10002080100020072108B525
:104E70001820FFF761FF0C4BD98C0C4B89B21A68D4
:104E80000B4B01291B6805D002290AD1B2F8420058
:104E9000012101E0B2F840001844BDE80840FFF7E6
:104EA00021BFD08FF4E700BFA41800207C100020A1
:104EB0008010002007210C20FFF73EBF05210B20AA
:104EC000FFF73ABF072108B51B20FFF735FF0D4B51
:104ED000D98A0D4B89B21A680C4B02291B6809D07C
:104EE00003290AD001290AD1108D1844BDE80840D1
:104EF000FFF7F8BE508D0121F7E7D08CFBE7908DCE
:104F0000F9E700BFA41800207C10002080100020CA
:104F100005210D20FFF710BF37B5294B294A1B6823
:104F2000044603EB4003B3F8CC3010681844FFF795
:104F3000F3FE254AD38A9BB2022B23D0032B14BF46
:104F40004FF4FA704FF49670204B1978204BE1B96A
:104F5000D18A89B2C9B119681E4DA1421E4902D039
:104F60001C602B680B602B680968928A5B1A92B2EE
:104F7000B3FBF0F302B30322B3FBF2F202EB420203
:104F80009B1A0AE04FF4C870DEE78D211960D38ABE
:104F90009BB2B3FA83F35B095B006022544304EBDA
:104FA00043140E4B00212344009310234E201A4635
:104FB000FFF7F8FD03B030BD022B28BF0223ECE75A
:104FC0007C10002080100020A418002084100020F5
:104FD00054000020F033002010130020B5CD00084D
:104FE0000020FFF799BF0120FFF796BF0220FFF7CF
:104FF00093BF0320FFF790BF0420FFF78DBF37B5A5
:105000000C4611460022042C0092ADF804208DF8C5
:10501000062032D90A22B0FBF2F502FB150002305D
:105020008DF80500B5FBF2F002FB105502358DF846
:10503000045080B20A25B0FBF5F205FB12050235DB
:105040008DF8035090B20A25B0FBF5F205FB12056E
:1050500002358DF8025090B20A25B0FBF5F205FB3F
:10506000120502358DF8015090B20BE01578022D33
:1050700017D102F8010B013311E0DBD0032CE2D091
:10508000012CE9D10A25B0FBF5F205FB1202023230
:105090008DF800202BB16A4600231220013CA34268
:1050A000E4DB6846FFF71EFE03B030BD70B50A268C
:1050B00004211020FFF740FE0C4B0221DC89012364
:1050C000A4B2B4FBF6F51A462846FFF798FF012173
:1050D0000748FFF707FE012306FB1540BDE87040B7
:1050E0001A46194680B2FFF78ABF00BFA4180020F5
:1050F000D4C600081120052110B5FFF71DFE0B4B8B
:10510000B3F8440080B250B9BDE81040084B094ADA
:105110001B6810681B8A01211844FFF7E3BD0123B7
:10512000BDE810401A460321FFF769BFA41800200C
:105130007C1000208010002008B505210320FFF717
:10514000FBFD0C4A538B9BB253B901210A4B0B4A0E
:105150001B6810681B8A1844BDE80840FFF7C2BDF1
:105160000123508B022180B21A46FFF748FF01212C
:105170000348F1E7A41800207C10002080100020D4
:10518000D6C600080721042010B5FFF7D5FDBDE8FD
:1051900010400122034B1146588A002380B2FFF7CA
:1051A0002EBF00BFA41800200521012010B5FFF775
:1051B000C3FDBDE81040044B0321D888012380B211
:1051C0001A46FFF71CBF00BFA418002008B5052130
:1051D0000220FFF7B1FD154B1A8992B252B9012195
:1051E000134B144A1B6810681B8A1844BDE808401A
:1051F000FFF778BD1A89188992B2052A0CD80123C5
:1052000080B200EB80004000022180B21A46FFF716
:10521000F6FE01210848E9E701230538022180B2A2
:105220001A46FFF7ECFE01210448DFE7A41800202E
:105230007C100020801000203EC70008D6C6000861
:1052400008B505211220FFF777FD0C4A938E9BB21B
:1052500053B901210A4B0B4A1B6810681B8A18447A
:10526000BDE80840FFF73EBD0123908E022180B2C9
:105270001A46FFF7C4FE01210348F1E7A4180020F5
:105280007C10002080100020D8C6000805210820CE
:1052900010B5FFF751FD0C4A138E9BB243B1BDE828
:1052A00010400123108E03211A4680B2FFF7A7BEDB
:1052B000064B074A1B6810681B8A0121BDE8104095
:1052C0001844FFF70FBD00BFA41800207C10002079
:1052D000801000200621142010B5FFF72DFDBDE839
:1052E0001040044B0221588F012380B21A46FFF769
:1052F00086BE00BFA41800200621152010B5FFF7B8
:105300001BFDBDE81040044B0221188F012380B221
:105310001A46FFF774BE00BFA418002070B5174DE1
:1053200005211620FFF708FD2B8D9BB2DBB1012371
:105330000A24288D1A4680B21946B0FBF4F0FFF714
:105340005EFE01210E48FFF7CDFC288D80B2B0FB38
:10535000F4F304FB1300BDE87040012380B21A4649
:105360001946FFF74CBE074B074A1B6810681B8A9B
:105370000121BDE870401844FFF7B4BCA418002018
:10538000D4C600087C1000208010002007211C20BB
:1053900010B5FFF7D1FCBDE81040044B588D012338
:1053A00080B21A461946FFF72ABE00BFA418002093
:1053B00007211D2010B5FFF7BFFCBDE81040044BCE
:1053C000988D012380B21A461946FFF718BE00BF18
:1053D000A418002007B505212120FFF7ADFC164BCE
:1053E000B3F84A2092B25AB90121144B144A1B68EF
:1053F00010681B8A184403B05DF804EBFFF772BC19
:10540000B3F84A2092B2052A0AD10E4B1822009313
:10541000002110234620FFF7C5FB03B05DF804FB15
:10542000B3F84A000123022180B21A46FFF7E7FDD4
:1054300001210548DFE700BFA41800207C100020F0
:105440008010002024C900083EC700080221FFF791
:10545000EBBBC0F11100C0B2FFF7F8BF08B50E20DA
:105460000721FFF769FC054B188CBDE8084080B2A6
:10547000003818BF0120FFF7ECBF00BFA4180020C0
:1054800008B506200721FFF757FC054BD88BBDE870
:10549000084080B2003818BF0120FFF7DABF00BF14
:1054A000A418002008B50A200721FFF745FC054B8A
:1054B000988BBDE8084080B2003818BF0120FFF784
:1054C000C8BF00BFA418002008B513200721FFF7AC
:1054D00033FC054BD88EBDE8084080B2003818BFB9
:1054E0000120FFF7B6BF00BFA418002008B51A209E
:1054F0000721FFF721FC054B988ABDE8084080B2E0
:10550000003818BF0120FFF7A4BF00BFA418002077
:10551000F8B51D4B05460E201C78FFF797FF1F239B
:10552000B5FBF3F0194BC0F10A0010F0F80F196841
:10553000C5B2C0F3C4060BD0F32C8CBF01230D23DE
:10554000204600272344DBB2421CD2B2934218D13A
:10555000FF2205F00705AA406025F32C8CBF01232C
:105560000D2375432344DBB262F0FF02601CC0B21E
:10557000834200D1F8BD2C440E5D16400E55044602
:10558000F4E70F541046DFE73212002068110020C4
:1055900070B5214A214D9368906883F00203C0439F
:1055A0004000C3F3400300F0020018431FBF1C4B30
:1055B0001A681C4B1A602B7883420FD168B1184BC4
:1055C000194A1B6812689B1AB3F5C87F20D90128B5
:1055D00020D002280CBF0820202070BD104C12499A
:1055E00020B1032B00D1184600230AE022680E6880
:1055F000921BB2F5C87F09D2012B02D0022B18BF33
:105600001023226828700A601846E6E70346F8E788
:105610000020E2E70420E0E7000C0140E412002053
:10562000F0330020AC160020E812002013B5012250
:10563000446801AB0078A04708B19DF8040002B0AF
:1056400010BD0000014B1868704700BFF033002008
:105650002DE9F74F0025438886462C4628462E46DE
:10566000FF2242F6E0694FF0320AC3F3023301939E
:10567000364B1D60019B5FFA85FC9C451ED3FF2ABB
:1056800062D0531C1B0703F0E043002858D01422BB
:10569000B6FBF2F605220434B4FBF2F443EA4623E7
:1056A00004F07F04234343F08073022201208A70B8
:1056B00010224B60CA7003B0BDE8F08F0EEB85037B
:1056C0005B6813F0404816D1C3F389270AFB07F73C
:1056D0004F450ED8C3F30903B7FBF3FBBBF1320F01
:1056E00007DCBE4201DBFF2A03D11C463E46624670
:1056F00040460135BEE7B8F1404FFAD113F0405FA4
:10570000F7D103F07F07C3F3474303EB83034FF065
:105710002D0803EB83039B009BB24B45A8BF4B4670
:1057200007EB870708FB07F84345A8BF4346B3428A
:1057300001DCFF2ADDD13C461E4662460120D8E747
:10574000234343EA8423AEE7014BAEE71818002059
:105750000A2800117047000048F2E8035843642308
:10576000C00B58435B23B0FBF3F0084B5A8E92B248
:1057700042B139B95A8E92B282422FBF08465B8E2F
:105780009BB2C01A024B1860704700BFA4180020DB
:10579000B416002038B50021FFF7DEFF83B283B3D3
:1057A0000122194931F822409500A34213D283B255
:1057B0004FF47A70294431F8045C31F8022C5B1BF9
:1057C0004343641B93FBF4F34988891A4B4393FBCF
:1057D000F0F3981838BD0132322AE3D14FF47A72CF
:1057E00080B2A0F51243093B02FB03F04FF43C7377
:1057F00090FBF3F00A23584390FBF2F000F5F570AC
:10580000E8E71846E6E700BF14E800084AF6AA22CF
:10581000014B1B681A607047C81500204FF0E0204C
:105820004FF0805408B506490B68012B05D9C0F824
:10583000044DBFF34F8FBFF36F8FFFF7E7FFF3E721
:10584000281800200122084B1A7040F21B12074B47
:105850001A80074B1B68DA6240F20D125A6340F659
:1058600082229A62704700BF86100020F418002040
:105870001C160020037B826810B530F81340121B01
:105880000A44826020F81310013303F0030303730A
:1058900010BD000010B5044671B10D4B0D481B68DA
:1058A000D96B1A6C11445A6C9B6C1144194489B21F
:1058B000C90089B2FFF7DEFF064B9B68002BB8BF1B
:1058C0000333C3F38F039B00B3FBF4F080B210BD2E
:1058D000741400200013002008B5084B0146D88D31
:1058E00080B2FFF7D7FF2D234043B0FBF3F0044B0A
:1058F000C0EB00201B88B0FBF3F008BDA41800200B
:10590000F418002010B50446002C084606DC094BAC
:10591000D88D80B2FFF7BEFF002010BDFFF7DCFF7F
:10592000C4EB0424B4FBF0F0FF2828BFFF20C0B272
:10593000F3E700BFA418002010B50121FFF7E2FF34
:10594000134B902804461A781BD90AB100221A700A
:1059500014211A780F4B002019800F4B1A700F4B2F
:105960001C70FFF7B9FFFF23E82144430C4AB4FB46
:10597000F3F413684B43182101FB04331B0A136033
:1059800010BD6F28E4D8002AE2D10122DFE700BF72
:1059900051000020781000208510002010180020F1
:1059A0003C2F002008B568B100210B46134A013393
:1059B00032F8020BDBB2102B0144F8D1104889B247
:1059C000FFF758FF0E4B0F499A680023002AB8BF13
:1059D0000332C2F3CE0231F81300904207D20133F2
:1059E00031F8130000EB8000400080B208BD0233A4
:1059F0005C2BF0D14FF4E170F8E700BF8400002089
:105A0000EC12002034CC000810B547F6C070FFF748
:105A1000C1FE04460020FFF7C5FF0A23B0FBF3F0E8
:105A2000013C80B2204410BD08B5084B08481B68F3
:105A3000D96B1A6C11445A6C9B6C1144194489B28D
:105A4000490089B2FFF716FF084608BD441400203C
:105A5000D412002038B5044678B1FFF7E5FFFFF710
:105A600099FE05462046FFF79DFF0A23B0FBF3F39E
:105A70009BB2581920EAE07038BD044B98680028A2
:105A8000B8BF0330C0F38F00E9E700BFD412002095
:105A900010B5FFF7B9FF04460020FFF7DBFF053C18
:105AA000A4B284422CBF0020012010BD0120704709
:105AB000044B054A1B681068B3F8C4301844FFF75C
:105AC0002BB900BF7C1000208010002038B505469F
:105AD0001C2425FA04F303F00F03981C0021043C56
:105AE000FFF7A2F8231DF4D138BD000037B5064CEE
:105AF0008DF8071001220146A56820780DF10703F3
:105B0000A84703B030BD00BF34140020F8B5538857
:105B100003F01F040D2C214C07D113F4E04FC3F305
:105B2000023502D184F82950F8BD164684F83110A8
:105B300084F830005588432125F46065558094F839
:105B4000293020785B0203F460631D4326F8025F6E
:105B5000C5F30235AD00124B023565F07F021A71B4
:105B6000A7680522B8472A4633464321A76820780C
:105B7000B84704220B4B4321A5682078A84740F280
:105B80000163E26B636313404FF0010001BF4FF00C
:105B9000FF3284F82F00A2631846C5E7D81600200C
:105BA000580000201CE90008064AD2E93903834264
:105BB00003D192F8EC008000704798BF0433181AA4
:105BC000704700BFD8160020F8B50B460D4C0646AE
:105BD0006163E16B15460B4206D1FFF7E5FF07460F
:105BE00020B141F00201E1633046F8BD6B1C84F83E
:105BF0002F6002D13E46A563F6E723699847054426
:105C0000F8E700BFD81600200023012213B50A4888
:105C10008DF807304468114600780DF10703A0475E
:105C200038B19DF807000138C0B2FD288CBF0020B4
:105C3000012002B010BD00BF3414002010B5064C86
:105C4000236823B9FFF7E0FF08B101232360206830
:105C5000431E5842584110BD8810002038B5FFF748
:105C6000EDFF0246D8B1104B104DB3F8443095F813
:105C70002C009BB290B995F83011182911D00C293D
:105C80000FD013F0FF0409D02B6998472B6CC01A72
:105C900064236343984294BF0020012038BD012053
:105CA000FCE71046FAE700BFA4180020D816002031
:105CB000154B70B51D68154E6A6912F0800201D04F
:105CC00000201FE06C6914F480640FD13268521A0E
:105CD0009042F1D21A6C032042F020021A64202272
:105CE0001C6383F83C4083F83D200BE06FF4806137
:105CF000696104211964202101201A6383F83C2082
:105D000083F83D1070BD00BF74150020282F0020BF
:105D1000144B70B51D68144E6A6912F0400201D030
:105D200000200EE06C6914F010040BD06FF010012D
:105D30006961202101201A6483F83C201A6383F8EA
:105D40003D1070BD3268521A9042E5D21A6C0320A1
:105D500042F020021A64202283F83C4083F83D2060
:105D6000EFE700BF74150020282F002070B505460E
:105D7000144A154E14686369DB4313F0020014D013
:105D8000636913F4806311D02368202143F4007306
:105D900023606FF480636361042313640023012094
:105DA000136382F83C3082F83D1070BD3068401AB1
:105DB0008542E0D220211363032082F83D1082F84F
:105DC0003C30F2E774150020282F0020F0B5114D6B
:105DD000DFF844C02E68070C012F0CBF7469B4694A
:105DE00020EA0404A4B2B4FA84F46409A14201D004
:105DF00000200EE0DCF80040E41AA242ECD20023BE
:105E0000202203202B6385F83C3085F83D2085F85F
:105E10003E30F0BD74150020282F0020134B10B524
:105E2000DB68C3F30223C3F107041A1D042C28BF47
:105E30000424062A88BFDA1E4FF0FF3398BF0022E1
:105E4000A34021EA0303002803FA02F3ACBF00F1E8
:105E50006040074A4FEA0313DBB2B5BF00F00F0002
:105E600000F56140135480F8003310BD00ED00E0F0
:105E700014ED00E010B54CF250342049204B086876
:105E8000DA68D20733D4DA68910644BF2022DA6098
:105E9000DA68D20606D4DA69D40703D4D86810F0D9
:105EA000040023D0164AD36813F0100305D0154917
:105EB000CB6943F00203CB611023D268500706D5AB
:105EC000104943F00403CA6942F00102CA610C4A56
:105ED000D169C90708D50B48C16941F00401C16106
:105EE000D16921F00101D1610120D36010BD0A68A0
:105EF000121AA242C4D90320F8E700BF282F0020BD
:105F000000200240B816002090F83E30012B22D12C
:105F1000022380F83E3003681A6A22F001021A62F6
:105F20001A6A42F001021A620B4A93420AD0B3F194
:105F3000804F07D0A2F59432934203D002F58062DD
:105F4000934204D19A6802F00702062A03D01A6825
:105F500042F001021A607047002C014015490B689D
:105F60001A6A22F001021A621A6A1A62124A9342EB
:105F70000DD141F21112186A104208D140F2444288
:105F8000186A104202BF5A6C22F400425A6441F26D
:105F90001112186A104208D140F24442186A1042A5
:105FA00002BF1A6822F001021A60012381F83E3014
:105FB000704700BF64160020002C0140037F082BAF
:105FC00001D1FFF7CBBF704710B5036804461A69CB
:105FD00091070ED5DA6892070BD56FF002021A61AD
:105FE000012202779B699B0701D1FFF7E7FF00239E
:105FF000237723681A69500710D5DA6851070DD541
:106000006FF004021A61022222779B6913F4407F29
:1060100002D12046FFF7D2FF0023237723681A69B5
:1060200012070FD5DA6810070CD56FF008021A6155
:1060300004222277DB69990702D12046FFF7BEFFD1
:106040000023237723681A69D20610D5DA68D006B0
:106050000DD56FF010021A6108222277DB6913F464
:10606000407F02D12046FFF7A9FF00232377236852
:106070001A69D10737D5DA68D20734D56FF0010233
:106080001A612368B3F1804F2ED11B4A1B4C138831
:106090002168013B9BB21380194B1B78DBB20B6468
:1060A0000B6C83B113889BB26BB11648FFF72CFFC2
:1060B000154B164A1B781178994214D033B1BDE8BC
:1060C0001040FFF7BFBBFFF749FFF1E7137040F245
:1060D0000D120F4B1A802368DA624FF483725A63F1
:1060E00041F204529A6210BD0A4A934201BF0A4A21
:1060F000136801331360F6E7781000201C160020A7
:106100001018002064160020851000208610002042
:10611000F4180020002C0140282F002090F83C307B
:1061200010B5012B21D0022380F83D3003680968A7
:106130005A689C6822F070020A435A600B4A9342E4
:106140000AD0B3F1804F07D0A2F59432934203D026
:1061500002F58062934202D124F080049C60012306
:1061600080F83D30002380F83C3010BD002C014009
:1061700070B5826A044686B0002A3BD1634B016841
:10618000C262994280F8242003F56C4340F0858078
:1061900099694FF4807541F4007199619B695C497C
:1061A00003F400730293029B5A4B4FF4806CC3E9D3
:1061B00000128021C3E903152021C3E905C14FF472
:1061C000805155481A649A60D9618168D86321F476
:1061D0007F5121F0300141F4AD5181609A631D84FB
:1061E00023625C620F211220FFF718FE4FF4802219
:1061F0004A4B1A602046FEF72DF8A36A13F01003ED
:106200007FD100287DD1A26A616822F4885222F0F1
:10621000020242F00202E069A568A262E26801435C
:10622000B5F5807F41EA420154D06E1E7042704144
:1062300000026669012E07D1002A4DD1A269013AF8
:1062400040EA423242F400602268B5F5807F566829
:1062500026F4694640EA060050609668304800EA35
:10626000060040EA0100906001D0012D02D12369AF
:10627000013B1B05D06A20F470000343D36292688F
:10628000284B1340994230D10023E362A36A23F0E4
:10629000030343F00103A36231E09A69032542F44A
:1062A00080629A619B69204803F480630193019B9B
:1062B00008230DEB0301CDE90235FEF719F8102391
:1062C000CDE90235FEF714F80423CDE90235FEF7D7
:1062D0000FF887E72846ACE7A26A42F02002A262E4
:1062E000E26A42F00102E262AEE7A36A23F012031F
:1062F00043F01003A362E36A43F00103E36206B0D4
:1063000070BDA36A43F01003C5E700BF002401403D
:1063100008000240A41400200000024000E100E058
:10632000FDF7E1FFFE0E1FFF00080140F0B56D4CC8
:106330006D4E94F83D3087B003F0FF05002B5ED121
:10634000C02212230127CDE902230323674802A9B3
:10635000CDE9047384F83C50FDF7CAFFF369644A41
:1063600043F40013F361F3694FF0800E03F400135C
:106370000193019B5F4B4FF48070C3E90025182205
:106380005D49C3E903E5C3E90555C3E90F129D6003
:10639000DD61D1F88020DFF864C102EA0C0242EA34
:1063A0000E02C1F880209D631884554AA3635C6285
:1063B000544B1A601022C3E901254FF48052DA6170
:1063C0001422C3E903E5C3E90555C3E90F12CA6EF8
:1063D00002EA0C0242F4845242F01002CA669D6343
:1063E00018840F211F205C626363FFF717FD4FF0D5
:1063F0000043454D20202B60FFF710FD6F602423E4
:10640000216884F83D300B68404A23F001030B609B
:1064100073686068C3F30223D25C3D4B1B68D340B2
:106420003C4A904294BF3C4A3C4A93428CBF002273
:1064300001220AB107B0F0BD364D394AA842B3FB7C
:10644000F2F288BF4FF496764A6082BF72434FF4EF
:106450007A76B2FBF6F2A84202F101020A6203F177
:10646000FF3323D84000B3FBF0F340F6FC72013356
:10647000134233D0C3F30B03CB61D4E90732134388
:106480000B60D4E9032313438B60D4E90532134333
:10649000CB600B68202243F001030B6000232364D0
:1064A00084F83D20236384F83E30C3E7A26852B9E4
:1064B00000EB4000B3FBF0F30133C3F30B037BB1FC
:1064C00043F40043D8E719224243B3FBF2F301330C
:1064D000C3F30B0323B143F44043CDE70423CBE7DD
:1064E0000123C9E77415002000100240000C014090
:1064F00080000240E8140020000002400FC0FFFFAF
:106500006C0002402C15002000E100E0E3C7000809
:106510004C000020A08601007F841E00FF083D0083
:1065200040420F0070B5124B0A26DA8D114B92B221
:106530009C680221002CB8BF0334C4F38F04A4006C
:10654000B4FBF2F4A4B2B4FBF6F501230022284612
:10655000FEF755FD00210848FEF7C4FB012306FBAA
:106560001540BDE870400022194680B2FEF747BDD5
:10657000A418002000130020D4C600082DE9F0471D
:10658000214BDA8D214B92B29B68002BB8BF0333AD
:10659000C3F38F039B00B3FBF2F30A22DBB2B3FB1E
:1065A000F2F402FB1433DBB2042BE4B284BF0134F7
:1065B000E4B2092C1FD94FF00A090123B4FBF9F802
:1065C000134E194600225FFA88F0B6F90050FEF724
:1065D00016FD08230F4F09FB18403B8001230022C2
:1065E0001946C0B23580FEF70AFD00230C35358010
:1065F0003B80BDE8F08701232046BDE8F0471A46FE
:106600001946FEF7FCBC00BFA418002000130020B0
:10661000321200203412002038B5124D0446688C26
:1066200080B2C0B10020FFF715FA052300EBC000CF
:10663000B0FBF3F303F12000012303211A4680B2DB
:10664000FEF7DDFC64B16B8C9BB23BB10020BDE872
:106650003840FEF7FBBEFFF7FDF9EDE70120F6E756
:1066600038BD00BFA41800202DE9F04F9A469C4C7D
:106670009C4B87B01E6894F83D308046202B89469D
:106680009346109F04D00225284607B0BDE8F08F3E
:106690003346192201219448FFF798FB0028F2D1D4
:1066A00094F83C308B42EED0256884F83C102B687F
:1066B0003A46D80758BF2B684FF001105CBF0B4318
:1066C0002B602B68002123F400632B60222384F8C5
:1066D0003D30402384F83E30844B2164A4F82AA046
:1066E000E362638DC4F824B023852B6843F4806390
:1066F0002B602B6843F480732B603346FFF766FBF7
:1067000000BB226808F0FE033146384613615FFA89
:1067100088F5FFF72BFB08B1236C13E02368059085
:106720005A69314605929B6938460593059BFFF7E8
:10673000BFFA80B1236C042B04D12268136843F4A0
:1067400000731360236C042B4FF0000384F83C307B
:1067500078D1012598E7236831463846C3F8109070
:10676000FFF7A6FA01460028E4D122684FF0011095
:10677000136843F48073136033463A46FFF726FBF1
:106780000028DFD1236845F001051D6131463846F8
:10679000FFF7ECFA05460028BED1228D23689AB196
:1067A000012A27D11A6822F480621A6072B623681F
:1067B00003905A6903929A690392039A1A6842F401
:1067C00000721A6062B609E004905A6904929A69EC
:1067D0000492049A1A6842F400721A60DFF8108179
:1067E000238D1BBB202284F83C3084F83D2084F8A4
:1067F0003E3049E7022A1A680ED142F400621A605C
:1068000072B6236802905A6902929A690292029AB9
:106810001A6822F48062D4E742F480621A60019020
:106820005A6901929B690193019BD7E7032B61D8B9
:10683000012B09D131463846FFF76AFA10B3236CB1
:10684000202B86D103251FE7022B3A4633464FF013
:106850000001404624D1FFF7B9FA0028F2D172B600
:1068600023681A6842F400721A601A69636A591C34
:1068700061621A70238D013B2385638D013B9BB2BE
:10688000638562B623681A69636A591C61621A706B
:10689000238D013B2385638D013B9BB263859FE77D
:1068A000FFF794FA0028CDD12268136823F480639F
:1068B000136072B623681A69636A581C60621A70A2
:1068C000238D3A46013B2385638D4046013B9BB2B5
:1068D00063853346FFF77AFA0028C1D0B2E700BFDC
:1068E00074150020282F0020020010000000FFFF78
:1068F0000400010031463846FFF70AFA00289ED10D
:1069000023681A69636A591C61621A70238D013BFE
:106910002385638D013B9BB2638523685A695207C7
:106920007FF55EAFAFE700BF90F83C30F0B5012BCC
:1069300032D003680E681A6A22F001021A621A6ADB
:106940005D689C6922F0020224F0730434438E686F
:106950003243124EB3420BD1CE6822F008023243CA
:1069600025F44075D1E905673E4322F00402354322
:106970005D609C614C6809695C631A629A6942F0C7
:1069800008029A619A6922F004029A619A690A439C
:106990009A61002380F83C30F0BD00BF002C01401C
:1069A00070B50146FFF700F900B3114A89B1D2F87A
:1069B000E43002F1640404EB43140B4604F12006B6
:1069C000254603CDB542186059602C4603F10803F3
:1069D000F6D1D2F8E43092F8EC10013303F003035F
:1069E000C2F8E43011B10BB982F8EC3070BD00BFD1
:1069F000D816002010B5194C88B0E16B01F07F412A
:106A0000E163FFF7D1F828B36846FFF7C9FFBDF887
:106A1000023003F01F02012A15D113F4E04F12D106
:106A200094F82920C3F3422393420CD1E26B013343
:106A300003F0070342F0040294F8300084F8293090
:106A4000E26308B010BDE36B43F00803E36394F81E
:106A50003100F6E741F00801E163F8E7D8160020BD
:106A600070B5A24C88B004F1440694F83051182D4A
:106A700000F28A81DFE815F0DF0101020A02190045
:106A800033001D002D00540091009C00A600DD0085
:106A9000F7006B0174017F0188018A0193019C0159
:106AA000A201BF01D001CF00D601042384F8303108
:106AB000DBE7002384F82C3084F83131E363236969
:106AC000984742F21072206423210620FFF77CF8D9
:106AD0006CE0E36B03F07F429906E26301D5052386
:106AE000E4E7FFF761F80028F9D03046FFF758FFD8
:106AF000B4F8462002F01F03012BF2D112F4E04F4C
:106B0000EFD0638D13F0C00F08D102F0C0027F2ACE
:106B10008CBF43F0800343F0400363850723C5E740
:106B2000FF2384F82E300023B4F846207049C2F3C6
:106B3000023293420CD051F8040B013300F040456F
:106B4000B5F1404FF5D110F0405FF2D184F82E300E
:106B5000A36C6849C3F3C06384F82830A1F1CC006A
:106B6000A3699847B8B1638DB4F812211A4303F0B2
:106B7000C003802BA4F812210BD1D4F8143194F85F
:106B80002E20C3F3027393422CBF0123002384F809
:106B9000313108238AE7062388E70F210920E36BB8
:106BA000544A03F07F43E363FEF7B0FF054639E044
:106BB000E36B03F07F43E36340F68C2240F603016E
:106BC0000A2083E7E36B03F07F43E363FEF7ECFF08
:106BD0000028F1D03046FFF7E3FEB4F8463003F06A
:106BE0001F01032906D113F4E04FEFD141F288329F
:106BF0000B206BE70D2904D113F4E04FE6D11125EA
:106C000010E003F01702042AE0D113F4E04FDDD1C5
:106C100094F82C302BB14FF0FF3240F6FF710C206E
:106C200054E7052584F83051002D7FF41EAF08B0DD
:106C300070BDE36B03F07F43E363FEF7B5FF08B974
:106C4000122333E73046FFF7ABFEB4F8463003F0CB
:106C50001F02062AF1D113F4E04FEED1012384F88C
:106C60002C300C2322E7E36B03F07F42E2635A06E9
:106C700063D4980663D4190663D4DA0501D50725D1
:106C8000D0E79807C7D5FEF78FFF0028C3D030465E
:106C9000FFF786FEB4F8463003F01F020F2A17D123
:106CA00013F4E04FB7D1618D01F0C0018029B2D15A
:106CB000190405D5B4F84810C1F308011A2942D8BF
:106CC000102A42D113F4E04F14BF12251725A9E76B
:106CD000052A03D113F4E04FE5D19CE7092A0BD133
:106CE00013F4E04FDFD115259CE700BFD816002034
:106CF00020170020E8170020072AF1D00A2AEFD039
:106D00000B2AEDD0022AEED0042A03D113F4E04F6F
:106D1000C9D0E8E7012A03D113F4E04FC3D0AEE7AE
:106D2000082A04D113F4E04FBDD10E257AE70D2ACD
:106D3000B9D113F4E04FB6D161E7082572E70F250A
:106D400070E70D256EE716256CE712256AE7638D5F
:106D500043F00703A4F8463032460F210C2023E706
:106D6000618D304601F0C0017F2994BF00210121CF
:106D700063699847F0E794F92D30022B59DC013311
:106D800084F82D30102391E603238FE6638D6A4645
:106D900043F00D030F210520ADF8023004E7638DA9
:106DA000324643F00D030F211320A4F84630FBE6D2
:106DB00040F68C2240F60301142087E6E36B03F0D3
:106DC0007F43E363FEF7F0FE60B13046FFF7E8FD76
:106DD000B4F8463003F01F02032A05D113F4E04F44
:106DE0003FF47DAE0F2361E60D2AFBD113F4E04F93
:106DF000F8D111235AE6638D03F0C002402A06D170
:106E000043F00403A4F8463032461221A6E7802A54
:106E1000FAD143F01003F5E7E3694FF4FA709847AD
:106E2000152343E600234FF4FA6084F82C30E3691D
:106E3000984718233AE623699847A36B984282BF84
:106E4000E36B43F40063E363E36B18050AD503F0D7
:106E50007F43E36394F82F30113B032B94BF03254A
:106E60001225DFE6D90706D4626B13423FF4DAAE8F
:106E700094F82F50D6E61025D4E6E26B02F07F435B
:106E80009205E36309D5FEF78FFE10B1FFF7B2FD5F
:106E90008CE602217822084618E643F0080394F8AD
:106EA0003150E363BEE600BFD121014805F0AAB925
:106EB0008C100020024BC0220021186805F092BB04
:106EC00068110020F8B5036805460E46002B39D13D
:106ED00002600120334601211F784C1EA4B2002F0E
:106EE00032D104EB4404A400A4B2602C37D92B683F
:106EF000D21A1F4B9B8C9BB2012B0CBF0A2314236D
:106F0000B2FBF3F204F1600312B292FBF3F103FB64
:106F100011225F2A29DDA24225DC14B2B5F9043022
:106F2000A3420ED0FFF7C6FF124BC4F160021A80D5
:106F30000022114B304601211A80FDF7D3FE0120BB
:106F4000AC80F8BD0020C5E7F02F03D80133013134
:106F500089B2C1E75F78002FC3D00233F7E7C4F1ED
:106F6000600304EB630424B2D8E76024D6E700BFD3
:106F7000A418002032120020341200202DE9F0471E
:106F8000314B1A78FF2A0DD141F278512F4AB2F8CD
:106F9000422092B28A4203D04AF2D7118A424BD0A1
:106FA00000221A701A78012A44D80C21284B294C47
:106FB00001FB02335A7A5868D2093FD01A89214618
:106FC000C2F30E02FDF7AAFB25182046224B234FE1
:106FD0001860234BE030186030220021214805F072
:106FE00001FB4FF00008BA464FF00C091D4E3B88DC
:106FF0007C8833802344738009FB08A39A885B79DB
:1070000004EB4404E400DB09B868A4B2C2F30E0246
:1070100006D02946FDF782FB034682B228461D446E
:10702000A242706084BF0019B0600C370C36B8F112
:10703000000F05D0BDE8F0870122B2E72546C5E77D
:107040004FF00108D3E700BF50000020A418002033
:107050005CC80008F61800207C10002044C8000816
:1070600080100020A80000200C2210B5094C1F2021
:107070002378013303F0010323705343064AD15AA6
:10708000FDF706FCFFF77AFF2078431E584258416F
:1070900010BD00BF500000205CC800082DE9F84377
:1070A000FEF7B4FB35232D4D2D4CEB6005F008F9B0
:1070B0000120FDF7CFFAFEF7A9FB237E012B07D0B5
:1070C00001232376FEF7D6FE074668B30023237616
:1070D00005F0F6F80025234F204EDFF88C80FEF7F0
:1070E00095FB237E012B15D0012337F815902376CD
:1070F000FEF7C0FE60B9E061336943F0010333611C
:1071000028F81590FEF7B6FE336923F001033361CA
:10711000002323760135282DE1D1104A136943F06D
:1071200080031361BDE8F8830F4E06F5806846457D
:10713000CCD2E7612B6943F002032B616E612B69AE
:1071400043F040032B61FEF795FE2B6923F0020309
:107150002B610028BAD106F58066E8E700200240DE
:10716000B8160020A418002000FC0008F8B545F26D
:10717000AA54234B1A8892B2A2423AD018465022FF
:10718000FF2105F02FFA048003460124DA6C013256
:107190001CBF4FF0FF32DA645A8818BF012492B244
:1071A000232A08D84FF6FF715A8892B2232A22DD8B
:1071B000242201245A800022124903EB4206B5889A
:1071C0000F88ADB2AF424FEA420004D8B5884E886E
:1071D000ADB2AE4203D2CC8818448480012401327F
:1071E000242A01F10801E8D10CB1FFF757FF20462E
:1071F000F8BD0024CAE703EB420081800132D5E7E5
:10720000A4180020EACF0008014B186804F05ABF08
:107210003812002000000000000000000000000004
:10722000074B19680868B0E8F00F80F30988BFF3CE
:107230006F8F4FF0000080F311884EF00D0E7047F5
:107240001C18002008B54FF0500383F31188BFF3DA
:107250006F8FBFF34F8F074A13680133012B136001
:1072600007D14FF0E023D3F8043DDBB20BB1FCF7BC
:10727000A5FF08BD60000020054A08B513680BB9DA
:10728000FCF79CFF013B13600BB983F3118808BD29
:10729000600000200000000000000000000000006E
:1072A000EFF30980BFF36F8F0D4B1A6820E9F00FE1
:1072B00010602DE908404FF0500080F3118801F074
:1072C0007BFF4FF0000080F31188BDE8084019688B
:1072D0000868B0E8F00F80F30988BFF36F8F70473C
:1072E0001C18002070477047704770477047704700
:1072F0000148FDF71DB900BFA41400200148FEF7A6
:1073000063BE00BFD41500200148FEF75DBE00BF7C
:10731000641600200148FEF757BE00BF1C1600206F
:107320000148FDF705B900BF2C1500200148FDF705
:10733000FFB800BFE81400201A4A036890420AD040
:10734000B0F1804F07D0A2F59432904203D002F5FD
:107350008062904215D14A6823F070031343114AAA
:1073600090420AD0B0F1804F07D0A2F594329042FB
:1073700003D002F58062904203D1CA6823F44073BF
:1073800013434A6923F08003134303608B68C3628D
:107390000B688362034B984204BF0B6903630123AC
:1073A00043617047002C014013B590F83D3004460E
:1073B00003F0FF0200687BB91D4B84F83C20984223
:1073C00028D103F50333DA6942F00202DA61DB699E
:1073D00003F002030093009B0223211D84F83D303B
:1073E000FFF7AAFF0123002084F8463084F83E30DE
:1073F00084F83F3084F8403084F8413084F84230DB
:1074000084F8433084F8443084F8453084F83D30C3
:1074100002B010BDB0F1804FDED1064BDA6942F008
:107420000102DA61DB6903F001030193019BD3E7F9
:10743000000400400010024013B500211920FEF79F
:10744000EDFC4FF00072194B194C1A60194B204695
:107450009A6942F400629A619A6902F400620192A8
:10746000019A5A685A685A685A68134A12685B68DF
:10747000124AC3F3C223D25C114B21611B68A16085
:10748000D340104AB3FBF2F30F4A013B226040F2B3
:10749000E7326360E260FFF787FF28B9204602B059
:1074A000BDE8104005F054B802B010BD00E100E0A6
:1074B000D41500200010024000200240E3C700085D
:1074C0004C00002040420F00002C0140002337B543
:1074D000026801939368DB0702D5002003B030BD3A
:1074E0009368124943F001039360114B1B68B3FB8F
:1074F000F1F30193019BABB90E4C2568936813F02F
:107500000103EAD12168491B0229F7D9826A80F870
:10751000243042F010028262C26A42F00102C2626A
:107520000120DBE7019B013BE3E700BF40420F0086
:107530004C000020282F0020002337B5019390F83D
:1075400024300446012B5FD0012380F82430FCF75F
:1075500081FE0546002839D1A36A2C4823F48853BC
:1075600023F0020343F00203A362294B1A68294B5C
:1075700059685B68C1F3C221415CC3F381330133B5
:1075800022FA01F15B00B1FBF3F3B2FBF3F252001C
:107590000192019BF3B92046FFF798FF23689A6890
:1075A00042F008029A601C4A10689968090715D4CD
:1075B000996841F0040199601068996849071ED4E0
:1075C000A36A23F0030343F00103A362002384F8BA
:1075D000243011E0019B013B0193DAE71168091A9D
:1075E0000A29E2D9A36A012523F0120343F010030C
:1075F000A362002384F82430284603B030BD11680C
:10760000091A0A29D9D9EDE70225F5E7E3C70008E9
:107610004C00002000100240282F00200E4B1A685A
:1076200042F001021A6059680C4A0A405A601A680E
:1076300022F0847222F480321A601A6822F48022C6
:107640001A605A6822F4FE025A604FF41F029A60D0
:10765000034B044A9A607047001002400000FFF894
:1076600000ED00E00040000843689A684B608A60C3
:107670009A6851609960036808610133036070473C
:107680002DE9F3410646DDE908040F46984640B966
:107690004FF0500383F31188BFF36F8FBFF34F8F09
:1076A000FEE744B94FF0500383F31188BFF36F8FA7
:1076B000BFF34F8FFEE764230193019B642B08D037
:1076C0004FF0500383F31188BFF36F8FBFF34F8FD9
:1076D000FEE795002A46A5212063019B04F082FF66
:1076E000226B043D2A4422F00702002F00F096800E
:1076F0007B1E04F134011F3713F8010F01F8010B51
:1077000008B1BB42F8D1002384F853304346052B1F
:1077100028BF0523E3626365C3F106030021A3616B
:107720004FF08073E165A1656161A16224616462CB
:1077300084F8601042F8043C3F4B26F0010642F802
:10774000086C42F80C3C42F8201C403A2260FFF7DB
:1077500079FD3A4A3A4D13683A4E013313602B686B
:10776000002B5ED12C601268012A2ED132464FF0D8
:10777000FF3C14201F4602F10801C2E9011CC2E9C6
:10778000031100FB03F10133062B775002F11402C1
:10779000F1D12D4A02F10803C2E9013CC2E90333E9
:1077A0002A4B176003F10801C3E9011CC3E9031167
:1077B00027491F6001F108000F60C1E9010CC1E910
:1077C000030024490A60244A1360244A24491368A8
:1077D0000868013313600123E26A934003431420D5
:1077E0000B6000FB0260211DFFF73EFFFFF744FD29
:1077F0001C4B1B6873B12B68DA6AE36A9A4209D2A0
:107800004FF0E0234FF08052C3F8042DBFF34F8FA9
:10781000BFF36F8F204602B0BDE8F08184F834706A
:1078200074E7104B1A68E36A002ACED12A68D26A3C
:107830009A4298BF2C60C8E7D14100082C2F002045
:107840001C18002028180020402F0020542F002052
:10785000D83300202018002024180020342F0020C6
:10786000382F0020EC33002037B50446D0E9001053
:10787000A569B4F90830226901956469842B0CBFAD
:10788000002303330094FFF7FBFE03B030BD036910
:10789000D0E901128A6051605968814208BF5A607C
:1078A000002202611A68013A1A60186870470000E5
:1078B0002DE9F041624C23685A68960623D51A6870
:1078C000950720D5A26AD0065EBFA26A42F4007274
:1078D000A2629A6802F46022B2F5602F10D1E268C9
:1078E00072B95A6822F020025A60A26A22F48072A9
:1078F000A262A26AD1045EBFA26A42F00102A26241
:107900006FF012021A6023685A68120640F18380F1
:107910001A6857077FD5A26AD6065EBFA26A42F4EC
:107920000052A2629A6802F4E042B2F5E04F0AD037
:107930005A68550516D49A6802F46022B2F5602F91
:1079400010D1E26872B95A6822F080025A60A36AC4
:1079500023F48053A362A36AD8055EBFA36A43F0F1
:107960000103A362374B1D68002D50D0FCF74AFC81
:10797000EFF311874FF0500383F31188BFF36F8F3C
:10798000BFF34F8F022395F8602085F86030EB6DD0
:10799000012A03F10103D6B2EB6502D087F3118807
:1079A00035E0AB6A43B14FF0500383F31188BFF366
:1079B0006F8FBFF34F8FFEE7234B1B68002B3AD12D
:1079C00005F104084046FFF762FF204A1420EB6AE5
:1079D00011689E400E43414616601D4A00FB03207D
:1079E000FFF742FE1B4BEA6A1B68DB6A9A42D5D955
:1079F0000122194B1A6087F311884FF0E0234FF0F2
:107A00008052C3F8042DBFF34F8FBFF36F8F6FF019
:107A10000C0223681A6023685A68510609D51A684F
:107A2000D20706D5A26A42F48032A2626FF0010248
:107A30001A60BDE8F081094805F11801D0E700BFE0
:107A40004414002014180020302F0020382F00206C
:107A5000281800201C180020F4330020D833002000
:107A6000F8B52F4B5A69920555D54FF400725A61FB
:107A70002C4B1C68002C4ED0FCF7C4FBEFF3118696
:107A80004FF0500383F31188BFF36F8FBFF34F8F15
:107A9000022394F8602084F86030E36D012A43F0FB
:107AA0000103D5B2E36502D086F3118833E0A36AFF
:107AB00043B14FF0500383F31188BFF36F8FBFF3CF
:107AC0004F8FFEE7184B1B6833BB271D3846FFF767
:107AD000DEFE164A1420E36A11689D400D433946C4
:107AE0001560134A00FB0320FFF7BEFD114BE26A4D
:107AF0001B68DB6A9A42D7D901220F4B1A6086F3C2
:107B000011884FF0E0234FF08052C3F8042DBFF3EB
:107B10004F8FBFF36F8FF8BD084804F11801E3E7FA
:107B20000004014074100020302F0020382F002066
:107B3000281800201C180020F4330020D83300201F
:107B40003D4B2DE9F74F1B68002B6ED13B4B1D6859
:107B500001351D60BDB93A4B1A68126842B14FF049
:107B6000500383F31188BFF36F8FBFF34F8FFEE78E
:107B7000344A1968106818601160334A1368013379
:107B80001360FCF799FD314E00243368DFF8C080A4
:107B90009D4212D21422D8F80030DB6A53432D4A9A
:107BA000D358022B2C4B28BF01241B68002B18BF75
:107BB0000124204603B0BDE8F08FDFF884A0DFF891
:107BC0009C90DAF800301B681BB94FF0FF3333602C
:107BD000E0E7DAF80030DB68DF687A68954201D2C6
:107BE0003260D7E707F1040B5846FFF750FEBA6A38
:107BF0001AB107F11800FFF74AFE0122FB6AD9F813
:107C000000009A4002431420C9F80020114A594646
:107C100000FB03200193FFF727FDD8F80020019B0C
:107C2000D26A934228BF0124CBE70D4A002413688F
:107C300001331360BDE700BF302F0020F033002078
:107C40002018002024180020D0330020CC3300203E
:107C50001C18002028180020F4330020382F0020A2
:107C6000D433002070B5154B154D06461C682868A6
:107C70000430FFF70CFE40B92A681249D06A01228D
:107C80000B68824023EA02030B602B68A4195C6036
:107C900007D30D4B18682968BDE870400431FCF724
:107CA000E3BC0A4B186829680431FCF7DDFC084B7B
:107CB0001A68944238BF1C6070BD00BFF0330020CA
:107CC0001C180020382F0020241800202018002025
:107CD000CC33002010B5134CFFF7B4FA2368DB6DEA
:107CE0007BB90122236883F86020FFF7BBFF4FF0C8
:107CF000E0234FF08052C3F8042DBFF34F8FBFF342
:107D00006F8FFFF7B9FAFFF79DFA2368D86D10B1AE
:107D100000222368DA650022236883F86020FFF7D9
:107D2000ABFA10BD1C1800202DE988480020FDF793
:107D300003FE002320246E4A6E4D13606E4B1A68BA
:107D40006E4B1A600520FFF7C5FF0120FDF782FE8C
:107D5000E88D012180B2FDF79DFD013CF2D1684E16
:107D60004FF4FA60FFF7B6FF002800F0B980012059
:107D7000FDF770FE5E4B83461C68624FDFF888A1FA
:107D8000DFF88891DFF88881002C00F0A280B4F53C
:107D9000E17F28BF4FF4E174FDF736FEA04202D226
:107DA000FDF732FE0446A4EB0B040A2C1FFA8BFBF2
:107DB00005DD3988ABEB010109B20A2906DDDAF8E5
:107DC0000020A7F800B0C9F800200BE0DAF8002086
:107DD000D9F80030D31A44F62062934202D9012325
:107DE00088F800304FF47A7B4A49DAF800300A68A4
:107DF00000209B1ABBFBF3FBDAF800300B60FDF7A9
:107E00006BFDAB8E9BB243B10A22AB8E9BB2534348
:107E10009842C2BFA88E80B250433F4B1B6823B12B
:107E20000A2253439842A8BF18462823B3FBFBF30A
:107E30003268C3F164035343642293FBF2F350228C
:107E4000544394FBFBF4234483423CDD30603068B0
:107E50002B8D9BB20BB340F6C4116B8D2F4C9BB294
:107E60004B43DAF800202168521A934209D2FA21D2
:107E7000AA8DDAF8003092B2236001FB0233284A5F
:107E800013602B8D9BB2984207DA254ADAF800304E
:107E900012689A4284BF288D80B247F6DF72214B68
:107EA0009B68002BB8BF0333C3F38F03934288BF93
:107EB000002098F80030002B18BF0020FDF73CFD93
:107EC000FDF7A4FC4CE740428342ACBF3360306016
:107ED000BDE7DAF800203880C9F800202046B7E76F
:107EE0001423114A1380114B1870114B187037E787
:107EF000DC130020A41800201C18002014180020F7
:107F00001C13002014130020F0330020181300204D
:107F100070150020201300201818002028130020BE
:107F200024130020D4120020781000208510002097
:107F300010180020024A136801331360704700BF15
:107F4000302F002032492DE9F0470B6843B94FF03C
:107F5000500383F31188BFF36F8FBFF34F8FFEE79A
:107F6000FFF770F90B68013B0B600C6824B100202F
:107F7000FFF782F9BDE8F087264B1B68002BF6D08F
:107F8000254E264FDFF8989020E0F3684FF0010867
:107F9000DC6804F1040A04F11800FFF778FC50468D
:107FA000FFF775FC1420E56A3A6808FA05F31343F5
:107FB000514600FB05903B60FFF756FB194B1B68D1
:107FC000DB6A9D4202D3184BC3F800803368002B54
:107FD000DBD10CB1FCF770FB144D2C6844B10127C8
:107FE000114EFFF7ADFD00B13760013CF9D12C60B7
:107FF0000D4B1B68002BBAD04FF0E0234FF080529E
:10800000C3F8042DBFF34F8FBFF36F8F0120AFE78D
:10801000302F00202C2F0020D8330020382F0020B4
:10802000281800201C180020F4330020D43300202E
:1080300008B550B94FF0E0234FF08052C3F8042D3B
:10804000BFF34F8FBFF36F8F08BD074B1B680BB19A
:10805000FCF7B4F8FFF76EFFFFF704FEFFF772FFBF
:108060000028E7D0F0E700BF302F00202DE9FF48BF
:10807000FDF7E4FD002800F09B8001210C20FDF7B6
:1080800035FD002800F09480A44D0A20EB68984745
:108090000624FDF7B9FD002800F082800F210B2097
:1080A000FDF724FD002800F0838000210A20FDF761
:1080B0001DFD00287CD000210E20FDF717FD0028B3
:1080C00076D000210F20FDF711FD002870D00C2183
:1080D0000620FDF70BFD00286AD007210920FDF7D7
:1080E00005FD002864D000210820FDF7FFFC0028D2
:1080F0005ED004210720FDF7F9FC002858D00721A5
:108100000220FDF7F3FC002852D00A20EB689847C4
:1081100040218248FDF78AFA0B2104460220FDF730
:10812000E5FC002844D00A20EB68984740217B48B2
:10813000FDF77CFA04F0030400F00300844240F2EF
:10814000E48025210320FDF7D1FC88B3072102201C
:10815000FDF7CCFC60B344210620FDF7C7FC38B323
:1081600004210720FDF7C2FC10B302210C20FDF70B
:10817000BDFCE8B103234FF4007C0593684B6948CC
:10818000CDE902C3012302A90493FCF7B1F80A2147
:108190001720FDF743FE4FF40002634B1A6007E01F
:1081A0000A20EB68013C984714F0FF047FF471AF9C
:1081B000FEF756FC5B4D5D4CAB689E0500F1C6803A
:1081C000AB68980529D407223C216668207802AB69
:1081D000B04710B39DF80B30D90709D5544F07F1BC
:1081E000020841212046FDF721FA830640F1E5808F
:1081F0009DF80A305A0700F13B81DE0642BFE26B70
:1082000042F48062E263180607D59DF80D309907A5
:1082100042BFE36B43F02003E363FEF721FC94F8D5
:1082200031317BB123699847D4F83431C01AB0F5A5
:108230007A7F07D9E36B43F04003E36323699847F0
:10824000C4F83401FDF70AFD0028B5D094F83031A8
:10825000182B03D094F82C30002BADD1354B364E73
:10826000DA89B3F82E80337812B201921FFA88F8B7
:10827000A3B9324BDFF8C8909B68002BB8BF03331B
:10828000C3F38F039B00B3FBF8F39BB2502B40F278
:10829000F4800B2389F8003003233370019B272BD4
:1082A0008ADD284B1B68B3F57A7F85D33378012BA1
:1082B00082D1224B4FF480699E68019B002EB8BF8B
:1082C0000336C6F38F06B600B6FBF8F636B29E1B31
:1082D00006EBD6777F10B846DFF86CA0B8F1000F38
:1082E000C0F26C81012EC7F10003C8BF00234FF418
:1082F0008078DE194FF48067DFF84C90002E40F054
:1083000080816420FFF794FE56E726210320FDF7C5
:10831000EDFB00283FF44CAF0B2118E7341400208C
:10832000000021100008014000E100E0D816002004
:10833000CA170020A41800207A1000200013002083
:108340007B100020F0330020000C0140BB4EFEF7F4
:1083500079FF336893F86030022B13D033686420C0
:10836000DA6DDA650122336883F86020FFF77AFC62
:108370004FF0E0234FF08052C3F8042DBFF34F8F2E
:10838000BFF36F8FFEF778FFFEF75CFF336893F85B
:108390006030022B03BF32680121D36D002104BF7E
:1083A00003F07F43D3650022336883F86020FEF733
:1083B00063FF00293FF404AF05E743212046FDF7A2
:1083C00035F93B4602224321666800F0E009207837
:1083D000B047B4F8F23013F4E04FC3F3023205D0E3
:1083E00043464321666820789200B0470422432127
:1083F0006668934B2078B047B9F1E00F7FF4F1AE97
:10840000B4F8F23003F01F020D2A07D113F4E04F45
:1084100004D1E36B43F00103E363E2E6D4F8E860E0
:10842000DFF820C204EB46166436BCE80F000FC626
:108430009CE80F0086E80F00D4E939239A4203F143
:10844000010306D194F8EC201AB103F00302C4F83A
:10845000E420D4F8E42003F003039342C4F8E830A6
:1084600004BF012384F8EC30E36B43F00203D3E74D
:10847000E26B42F40072E263BFE699F800700A2FE3
:108480003FF60AAF08220123CDE902230323DFF8D8
:10849000B8B102A958464FF0000A0593FBF728FF30
:1084A0004FF4A063CDE903AA0293FBF721FF4FF439
:1084B000F04328460293CDE903AAFBF719FF4FF4D6
:1084C0000023CBF810300A20FFF7B2FDBAF1820F7B
:1084D0001FFA8AF15BD9AA688C2982F4006BCBF36E
:1084E000C02B0CD10322002305920222CDE90332D6
:1084F0004FF40062284602A90292FBF7F9FEBAF196
:10850000C70F04D00AF1010ABBF1000FDBD0002332
:108510004FF0030ACDE903334FF40063284602A964
:10852000CDF814A00293FBF7E3FEBBF1000F3FD0A0
:108530004FF480624FF080732A612B610823DFF8CB
:1085400008B14FF0010CCBF810304FF4A063CDF818
:1085500014A0CDE9023CFBF7CBFE4FF080734FF443
:1085600080622A612B6108234FF00A0ACBF8103091
:10857000364B9B68002BB8BF0333C3F38F039B00BC
:10858000B3FBF8F39BB2502B04D9012385E64FF0DF
:10859000000BB4E764200AF1FF3AFFF749FD1AF037
:1085A000FF0AE5D1013786F800A089F8007075E66A
:1085B000013789F8007086F800A06FE64FF48073E9
:1085C0004FF4002BC5F810901E202B61CAF810B094
:1085D000FFF72EFD4FF08072C5F810900A202A6137
:1085E000CAF810B0FFF724FD4FF48073C5F810905F
:1085F0001E202B61CAF810B0FFF71AFD08F1010820
:108600006CE64FF4002A2F611E20C5F81080C9F8CF
:1086100010A0FFF70DFD08232F610A20C5F8108078
:10862000C9F81030FFF704FD2F611E20C5F8108037
:10863000C9F810A0FFF7FCFC013E5FE61C18002003
:108640002E130020C8170020000C0140001300204A
:108650003220FFF7EDBC00002DE9F84F0024724BEB
:10866000724E2746D6F800901C60FCF791FFB0EBE5
:10867000040818BF4FF00108A2466D4BA3F800A0F4
:108680006C4BA3F800A0FEF715FCFCF781FF002857
:1086900000F0B380D6F80090B8F1000F02D00024AB
:1086A000002332E001380F28FAD801A353F820F054
:1086B000F5870008D7870008A1860008E187000831
:1086C000A1860008A1860008A1860008F18600089E
:1086D000A1860008A1860008A1860008A1860008DE
:1086E000A1860008A1860008A1860008238800084A
:1086F0003268E31B1344B3F5967FD1D94E4B1B8FE1
:108700005B42213437681BB2E4B24B4DC4F596721C
:10871000632AEA8E98BFC82492B20AB15B421BB2A8
:10872000DBB1A98883EAE372A2EBE372194409B2D0
:1087300013B291FBF3F151436B8C09B29BB2002B46
:108740005ED03C2940F25233B8BF3C219942A8BFC9
:108750001946002089B2FCF79BF83368A3EB0903A4
:10876000B3F5FA6F5DD8354B012193F800B0EB8E6D
:108770009BB2BBF1000F4CD13148324A002B08BFED
:108780001046FCF7AFFA01212F48FCF7ABFA0123A2
:10879000A8881A46032180B2FCF731FC6B8C9BB28F
:1087A000002B39D00020FCF751FE01212648FCF7B0
:1087B00099FAEB8E01219BB2BBF1000F2ED121481B
:1087C0001F4A002B08BF1046FCF78CFAFEF76CFB23
:1087D000FFF73EFF51E7184B5B8F5B421BB294E7FC
:1087E0003268E31B1344B3F5967F7FF659AF124B03
:1087F0001B8F86E7104B5B8FF0E7044680464FE700
:108800000A29B8BF0A21B1F5E17FA8BF4FF4E17191
:108810009FE70C480A4AB1E70120C4E70848094A23
:10882000CFE7BDE8F88F00BFDC130020F033002055
:108830003212002034120020A418002070110020F1
:10884000DAC60008DCC6000883C700082DE9F74F28
:1088500007465A4DDFF8689101916B8C9BB2002B53
:1088600000F08180002F7CD1EA88AB8892B29BB265
:10887000934228BF13461F2B73D9092203EB8303AE
:10888000A03BB3FBF2F3C9F80030688C80B200283B
:1088900073D00020FDF7DEF8052300EBC000B0FB2D
:1088A000F3F42034A4B20026FEF704FB4549B5F8E2
:1088B0002080454A454BD1F800B045491FFA88F859
:1088C000D1F800A016801E80B8F1000F5BD0BBF875
:1088D0000C0031465044FCF705FA3B4ABBF80E0049
:1088E00016800822394B314650441A80FCF7FAF9B9
:1088F0000321012332462046FCF781FB698C89B2B3
:1089000000293ED031463348FCF7ECF900213248CB
:10891000FCF7E8F9FDF706FE00213048FCF7E2F924
:10892000FEF7C2FAFFF794FE0198FBF74DFFA8B1DE
:108930006B8B9BB2002B3BD0294B1968002937D099
:10894000284B1A686B8B521A4EF660219BB24B4330
:108950009A422DD900230120C9F8003003B0BDE8A8
:10896000F08F00238FE7002F8DD1EA88AB8892B279
:108970009BB2934228BF134685E7FDF76BF884B29C
:1089800091E71948C0E7BBF80A0001215044FCF701
:10899000A9F9012303211A462046FCF730FB6B8C12
:1089A0009BB21BB14046FCF751FDB9E70120FAE745
:1089B000FCF7EEFD08287FF450AFCBE7A4180020A9
:1089C000DC1300207C100020321200203412002022
:1089D00080100020D2C6000883C70008DEC6000849
:1089E000B0160020F033002025C7000870B50D4EEA
:1089F00035680544FCF7CCFD044654B9FCF7C8FDC6
:108A00000446FFF725FE33689D420AD3002CF5D0BB
:108A100007E0FCF7BDFD0446FFF71AFE33689D42F0
:108A2000EBD270BDF033002038B505460C46FEF79A
:108A300041FA2846FCF770F9FEF736FA2046BDE801
:108A40003840FFF7D3BF00002DE9F74F38BB0023B4
:108A50001D46AF4CDFF8BCA20093FCF799FD009BCC
:108A6000002B00F0D080E38C9BB2002B00F0CB8079
:108A7000102823D8102824D8DFE810F0F0001F01B8
:108A80001F01230013012300230023001F012300E3
:108A90002300230023002300230023001F01831E43
:108AA000584258410121FFF7D1FE0128CFD19A4BFE
:108AB0001A689A4B1A6003B0BDE8F08F202800F0C6
:108AC000E380FEF7F7F9218C954B89B293F800B05B
:108AD000944F954EDFF85492002900F03D81BBF190
:108AE000000F0CBF32234FF0FF334FF0000801207E
:108AF0003B80A6F80080FDF78FFD638A9BB24BB3E5
:108B000023899BB233B3C3450CBF20232F23A6F880
:108B100000803B80FBF740FE7F4A804B844912680F
:108B20001B680968801A99422CBF4018C018814BF5
:108B3000984240F2DF804EF66023B0FBF3F0013044
:108B4000022180B201234246FCF759FA41467A4895
:108B5000FCF7C8F85DB1BBF1000F0CBF262337232B
:108B60003B800823002175483380FCF7BBF84FF0A9
:108B70000A08D9F80000BBF1000F14BF43230023FB
:108B80004FF0000BB0FBF8F05A46022101933B80F6
:108B900080B20123A6F800B0FCF731FA59466848C4
:108BA000FCF7A0F8D9F800005A46B0FBF8F308FB30
:108BB0001300012380B21946FCF721FA5946614897
:108BC000FCF790F8019B3B8008233380FDF7AAFC5B
:108BD00059465D48FCF786F8FEF766F9638C5B4EF4
:108BE0009BB2002D00F00E81002B00F00881238E37
:108BF0009BB21F2B40F2E880092203EB8303A03BCA
:108C0000B3FBF2F3E1E010282AD810283FF659AF61
:108C100001A353F820F000BF5D8C0008DD8C000834
:108C2000DD8C0008C38A0008D18C0008C38A0008C4
:108C3000C38A0008C38A0008B78A0008C38A0008EC
:108C4000C38A0008C38A0008C38A0008C38A0008D0
:108C5000C38A0008C38A0008B78A0008002530E7E5
:108C600020287FF42EAFE38C9BB2002B3FF429AF7A
:108C7000374BDAF800001B684FF47A711B8B1844ED
:108C8000FFF7D2FE01230AE0314BDAF800001B683F
:108C90004FF47A715B8B1844FFF7C6FE00230093F4
:108CA0000FE7238E9BB2002B3FF40BAFE38C009AAF
:108CB0009BB2012B08BF154603E7254BDAF80000ED
:108CC0001B684FF4FA719B8B1844FFF7ADFEF8E672
:108CD000238E9BB2002B18BF0125F2E6A688FFF772
:108CE000BBFCA388B6B29BB2B3423FF4EAAEFEF738
:108CF000D5F9E6E64FF47A73B0FBF3F001300221C8
:108D000080B201234246FCF77AF9414611481FE739
:108D1000A418002080100020F0330020AC160020A2
:108D20007011002032120020341200203C2F00204D
:108D3000B0160020B8820100D6C60008DAC60008C6
:108D4000D4C60008D8C60008DEC60008DC13002020
:108D50007C1000203EC7000839803180BBF1000F35
:108D600019D1FDF70BFC2F480121FBF7BBFF0120B8
:108D7000FDF752FC55B10220FCF768FB0021D9F841
:108D80000000FCF7BFFDFCF7C3FB25E701212548E8
:108D9000FBF7A8FFF2E7D9F80000FCF7B3FDFCF7FA
:108DA000B7FB65B10220FCF751FB0120FDF734FC55
:108DB00001211C48FBF796FFFDF7E0FB0CE70121C2
:108DC0001848FBF78FFFF0E7002300203360FBF724
:108DD000FBFCE0B9144F00203368FCF73BFE3B7806
:108DE000E3B10024114B124A1B681068DB8B42F27E
:108DF000107118443460FFF717FE3C705BE6238E59
:108E00009BB2E2E70BB1A388F2E6A388F8E7002162
:108E10000846FFF71BFD0028DCD04CE6FFF718FCE6
:108E20001BE600BF83C70008701500207C100020DF
:108E30008010002010B5114AB2F84A309BB2052BC1
:108E400011D1FCF7A5FB04463CB9FCF7A1FB044695
:108E5000FFF7FEFB002CF8D010BDFCF799FB044691
:108E6000FFF7F6FBF0E74FF47A70BDE81040B2F878
:108E70004A309BB25843FFF7B9BD00BFA418002089
:108E8000002373B500934FF6FF7304460C4EADF804
:108E90000430214668463268FEF714F80546FCF7B0
:108EA00077FB38B9002DF4D0FDF7FEFF2820FFF73F
:108EB000BFF8EEE7431E5842584102B070BD00BFF4
:108EC000F033002038B50D4B1D680D4B68881C68C9
:108ED0002044FFF7D5FF70B1FF215022094803F06D
:108EE00081FBFEF743F9FEF7D9F8688A42F2107168
:108EF0002044FFF799FD002038BD00BF7C10002002
:108F000080100020A41800202DE9F047294B2A4AA0
:108F10001B6810681B881844FFF7B2FF002840D078
:108F2000264E274F0025A946FCF77EFD0024DFF8DA
:108F300094808144FDF7BEFF012138463480A8F8B3
:108F40000040FBF7CFFEC5F3850AE3B29A452BD864
:108F5000FDF7AAFF01356420FFF76AF8102DE3D171
:108F60000121C9F30F10FCF7F7FB84B2002CD9D014
:108F700021461720FBF78CFCFDF79CFF00232846B9
:108F80003380A8F80030FCF761FA012320461A4626
:108F90000421FCF734F8FDF787FF4FF49660FFF7E4
:108FA00047F80020BDE8F08701213846FBF79AFE1C
:108FB0000134CAE77C10002080100020321200200B
:108FC000D4C60008341200202DE9F047FDF772FFE7
:108FD0004FF00007394E3A4B3A4D9C68EA8D002C11
:108FE000B8BF0334C4F38F0492B2A400B4FBF2F40C
:108FF0004FF00A0AA4B20123B4FBFAF9DFF8C880E3
:109000001A46022148463780A8F80070FBF7F7FFA0
:1090100001212E48FBF766FE01220AFB194011468A
:10902000002380B2FBF7EBFF01212948FBF75AFE32
:10903000FCF7AEFA082809D818B30138072820D859
:10904000DFE800F01C251F061F1F1F06102818D17F
:10905000FEF724F801230024E88D1A46032180B28C
:109060003480A8F80040FBF7CAFFFDF71DFF4FF45E
:109070007A70FFF7BBFC2046BDE8F0871520FBF7B0
:1090800073FCFDF711FF2820FEF7D2FFA3E7EB8D5D
:109090009BB2B3F5B47F04D14FF46173EB85EB8DD4
:1090A000EFE7EB8D9BB2B3F5B57F29BFEB8D4FF4A6
:1090B000B47303F1FF339BB2F0E700BF321200201C
:1090C00000130020A418002034120020D4C6000889
:1090D000DEC600082DE9F04F00242F4B85B01A683A
:1090E000019002921A6802994FF4FA70A2EB010BF8
:1090F000642202FB0BF1B1FBF0F1C9B22546C1F1CC
:10910000960449434C4341F2883194FBF1F46021C9
:10911000E4B24C43B4FBF2F4E4B28C4228BF0C46F8
:109120000A1B019989BB2646DDF80480D7B21B4B88
:109130000392D3F800A00AEB05010AEB060003F046
:1091400067FA1749039AD1F8009009EB050109EB7A
:10915000060003F05DFA134B2246D9190AEB08000A
:1091600003F056FA104B2246D91909EB080003F018
:109170004FFAFDF799FE1420FEF75AFFBBF5FA7F70
:10918000054BAFD905B0BDE8F08F0026651B37460B
:10919000EDB25FFA82F8CAE7F033002068110020D0
:1091A0006C11002071110020D1110020012838BF5E
:1091B0000120FEF73DBF000030B5284B1A68284B50
:1091C00012B101221A6030BD26481A6003681B6B79
:1091D0001A68B2F1A53F0BD15A68B2F1A53F07D189
:1091E0009A68B2F1A53F03D1DB68B3F1A53F0ED079
:1091F00003680368BFF34F8F1B491C4BCA6802F416
:10920000E0621343CB60BFF34F8F00BFFDE7184B05
:109210001A68B2FA82F21423D2B2C2F11F02534387
:109220001449CD58CC1845B94FF0500383F3118839
:10923000BFF36F8FBFF34F8FFEE7656808336D682C
:109240000B4465609D4204BF6B686360142303FB9D
:1092500002114B68DB680360B5E700BF302F0020C8
:10926000F43300201C18002000ED00E00400FA0593
:10927000382F00202818002010B50C46044B196820
:109280001831FBF7F1F92046BDE81040FEF7EABCC3
:109290001C180020C36870B5DC6844B94FF0500357
:1092A00083F31188BFF36F8FBFF34F8FFEE704F195
:1092B00018063046FEF7EBFA104BE56A1B68D3B987
:1092C00004342046FEF7E3FA01230D4A1420116806
:1092D000AB400B43214613600A4B00FB0530FEF701
:1092E000C3F9094B1B68DB6AAB423BBF0120074B4C
:1092F0000020186070BD31460548F0E7302F00208F
:10930000382F0020281800201C180020F4330020DB
:10931000D83300202DE9F04104464FF00108FDF755
:1093200091FF90F845501B4F6DB200F12406002DBF
:1093300017DCFF234FF0010884F84530FDF79CFF50
:10934000FDF780FF94F84450124F6DB204F11006FF
:10935000002D12DCFF2384F84430BDE8F041FDF716
:109360008BBF636A002BE4D03046FFF793FF08B150
:10937000C7F80080013D6DB2D9E72369002BE9D021
:109380003046FFF787FF08B1C7F80080013D6DB296
:10939000DEE700BFF4330020202210B5214B83F814
:1093A0003D20214B1868002835D0036C43B14FF0A5
:1093B000500383F31188BFF36F8FBFF34F8FFEE726
:1093C000036853B9836843B14FF0500383F31188A6
:1093D000BFF36F8FBFF34F8FFEE7FAF713FFEFF383
:1093E00011844FF0500383F31188BFF36F8FBFF3E5
:1093F0004F8F826BC36B9A420BD290F845100132AB
:10940000FF294BB2826307D1436A13B12430FFF7BF
:1094100041FF84F3118810BD01335BB280F8453001
:10942000F7E700BF7415002088120020F0B4934BBA
:109430008CB01A6895695469516893F83E001028F9
:10944000C6B202D0402E40F0698114F0011F68D0EE
:109450008F0566D593F83E00402845D1186D002849
:109460003DD1586C00F0FE0010618548854A2840C7
:109470002240002800F0B38183482040002800F0FB
:1094800079814D0540F17681002A40F0758193F88D
:109490003D201C8D93F83E10D2B2D86AC9B2002C80
:1094A00040F01D81212A40F01C8104281A6800F038
:1094B0008481082800F0818110F5803F00F07D81D3
:1094C000516821F4E061516011221A6383F83E4033
:1094D000202283F83D200CB0F0BCFFF75DBF586C34
:1094E00040F00100C0B2BFE71869B0F5804F05D168
:1094F00093F83D002128586CF2D1B3E7186D30B9CC
:10950000586CC01100F0060040F0F000ACE7186D98
:109510000128AAD1586CC01100F0060040F0F100FB
:10952000A2E75A48204018B18E0501D5586CD9E7FA
:1095300057482040002898D0880596D593F83E00DB
:10954000DE6AD3F830C093F83D70C0B2222F40F0ED
:10955000BE801F6D47B9402806D10B9750690B900C
:1095600092690B920B9A80E7186D88B91F69B7F55D
:10957000404F0DD10A9050690A9090690A900A985C
:10958000106840F4807010601A6D01321A656CE743
:10959000588D80B250B9099050690990906909902E
:1095A0000998106840F40070106019E0588D80B27E
:1095B000012843D116F5803F1BD1106820F480604C
:1095C0001060506810F400600CD0106820F48060C7
:1095D0001060002008905069089092690892089ADB
:1095E0000022D3E707905069079090690790079889
:1095F000D7E7042E16D0082E14D0BCF1120F11D0CC
:10960000D86A0228106814BF20F4806040F480609B
:109610001060002206921A685069069092690692BC
:10962000069ADDE7106820F4806010600020059045
:1096300050690590906905900598B2E7588D80B201
:10964000022831D1D86A00260228106822D040F4BE
:10965000006010600496506904909069049004982A
:10966000106820F4806010601A6850680705B7D54C
:10967000506840F480505060B2E700BF741500207D
:109680000400100004000100800001000800010037
:109690000200010040F4806010600396506903905E
:1096A00092690392039ADFE7106840F480601060CB
:1096B0005068060542BF506840F48050506000205A
:1096C00002905069029092690292029A88E7002003
:1096D00001905069019092690192019AC5E6212A90
:1096E00003D040291AD1222A18D15A8D92B22AB910
:1096F0001A68536823F4806353600FE093F83E20A8
:10970000402A2CD11A6D92B9DA6C1968012A9A6C28
:1097100007D1D2B20A611A6D02321A650CB0F0BCE0
:109720007047C2F307220A611A6D0132F5E71A6D1C
:10973000012A03D19A6C1968D2B2F4E71A6D022A91
:10974000ECD193F83D20222A05D11A68136843F41E
:1097500080731360E2E793F83D20212ADED15A6A34
:10976000511C5962127819680A615A8D013A92B2F5
:109770005A85D3E7002AD1D08C05CFD5D86A93F883
:109780003D20212ACAD1598D1A6889B229B1596A56
:10979000481C586209781161E7E704280DD00828B1
:1097A0000BD010F5803F08D0506820F4E060506086
:1097B00011221A6383F83E108AE6516821F4E061B1
:1097C0005160116841F400711160002220211A6378
:1097D00083F83D1093F83E1083F83E207BE6454821
:1097E0002040002840D048053ED5002A3FD193F8BC
:1097F0003D20222A92D1598D1A6889B2032905D9B0
:1098000011695A6A501C58621170AEE70239012979
:10981000D96A0DD8022911681DBF21F48061116039
:10982000116841F4806118BF41F4006111605FE785
:109830000229116814BF21F4806141F48061116034
:109840001A68516821F4E061516011695A6A501C2C
:10985000586211705A8D013A92B25A85202283F8CB
:109860003D2000221A63B5E7002A3FF457AF8A056E
:109870007FF554AFD96A588D1A6880B203280CD18D
:10988000042904D0082902D011F5803F03D11168C2
:1098900021F4806111601A68B2E7588D80B2022805
:1098A000AED104291DD008291BD011F5803F18D056
:1098B0000229116814BF21F4806141F480611160B4
:1098C00019684A6822F440724A601A6811695A6A33
:1098D000501C586211705A8D013A92B25A851A681A
:1098E000B3E7516821F440715160116841F400718F
:1098F0001160EAE740000100F8B56E4C6E4823683D
:1099000059695A6801420CD0D5050AD5206C40F03F
:10991000010020646FF480705861186840F40040C2
:10992000186011F4813F08D0D00506D5206C40F0B6
:10993000020020646FF40070586111F4823F23D05C
:10994000D70521D594F83E70658D94F83D00202F01
:10995000266BADB2C0B208D13DB900F0F705212D9C
:1099600012D0282801D1212E0ED0206C40F0040006
:10997000206494F83E00102802BF186840F400707C
:1099800018606FF48060586111F4843F08D0D605E8
:1099900006D5226C42F0080222646FF400625A611C
:1099A000236C002B3BD094F83D202368293A012AF0
:1099B00036D800222263282284F83D201A6822F437
:1099C00000621A605A6812F4006251D05A6822F498
:1099D00000625A60606B90F82130012B374B2ED01B
:1099E0004363FAF75FFD50B12268136823F0010367
:1099F00013602023606B84F83D30436B984794F8E4
:109A00003D30282B0BD1236C5B0708D52C4B202233
:109A1000E3620023236384F83D2084F83E30F8BDE0
:109A200094F83D20602A05D05A6815055CBF2022B5
:109A300084F83D200022226384F83E20BEE7A06B1C
:109A40004363FAF72FFD0028D9D023685A695006DE
:109A500004D51A69636A591C61621A702268136816
:109A600023F0010313602023A06B84F83D30C4E78A
:109A700094F83D10602913D1202184F83D10226410
:109A80005A69510604D51A69636A591C61621A70D1
:109A90002268136823F001031360FFF77DFCAEE733
:109AA0005A695206F9D51A69636A591C61621A70BB
:109AB000F3E700BF7415002000010100C59A0008FB
:109AC0000000FFFF436A1A68116821F48061116089
:109AD0000021586B59854163986B416393F83D00B1
