:020000040800F2
:10800000005000205181000825AB000827AB000874
:1080100029AB00082BAB00082DAB000800000000C6
:1080200000000000000000000000000061AA00083D
:108030002FAB000800000000E1AA00087DCA00087C
:1080400099810008998100089981000899810008A8
:108050009981000899810008998100089981000898
:1080600099810008998100089981000831AB0008C6
:108070009981000899810008998100089981000878
:1080800015AC000821AC000891B5000899810008E2
:10809000998100089981000899810008A1B200081F
:1080A0009981000899810008998100089981000848
:1080B00099810008998100083DAB0008A1C0000823
:1080C000EDC800089981000899810008998100088D
:1080D0009981000899810008998100089981000818
:1080E000998100089981000899810008000000002A
:1080F0000000000000000000000000000000000080
:0C81000000000000000000005FF8E0F14B
:1081100010B5054C237833B9044B13B10448AFF3C1
:1081200000800123237010BD6800002000000000C3
:10813000F803010808B5034B1BB103490348AFF32B
:10814000008008BD000000006C000020F80301085A
:10815000002103E00B4B5B58435004310A480B4BA2
:1081600042189A42F6D30A4A02E00023136004320E
:10817000084B9A42F9D302F049FF08F0E9F806F0FB
:1081800045FFFEE72C2701080000002068000020C2
:108190006800002000350020FEE700000648006867
:1081A000006880F3088862B661B6BFF34F8FBFF3F3
:1081B0006F8F00DF00BF000008ED00E04FF05003BC
:1081C00083F31188BFF36F8FBFF34F8FFEE700007B
:1081D000002307B501930A4B1B68013301D0FFF759
:1081E000EDFF4FF0500383F31188BFF36F8FBFF3A0
:1081F0004F8F019B002BFCD003B05DF804FB00BF48
:108200006000002008B5EFF305830F2B07D90E4A55
:108210009B5C0E4A12789A4201D9FFF7CFFF4FF0CC
:10822000E0230B4AD3F80C3D126803F4E063934259
:1082300008D94FF0500383F31188BFF36F8FBFF35A
:108240004F8FFEE708BD00BFF0E300E026300020BE
:1082500028300020002337B5026801939368DB07BC
:1082600002D5002003B030BD9368124943F00103EA
:108270009360114B1B68B3FBF1F30193019BABB906
:108280000E4C2568936813F00103EAD12168491B5D
:108290000229F7D9826A80F8243042F01002826203
:1082A000C26A42F00102C2620120DBE7019B013B8E
:1082B000E3E700BF40420F004C0000202C300020BC
:1082C000036810B59A68D10701D4002010BD9A68E0
:1082D0000A4922F001029A600C689A68D207F4D524
:1082E0000A68121B022AF8D9836A43F010038362DA
:1082F000C36A43F00103C3620120E7E72C3000208A
:10830000002337B5019390F824300446012B5FD049
:10831000012380F82430FFF7D3FF0546002839D128
:10832000A36A2C4823F4885323F0020343F002038A
:10833000A362294B1A68294B59685B68C1F3C221B3
:10834000415CC3F38133013322FA01F15B00B1FBDD
:10835000F3F3B2FBF3F252000192019BF3B9204612
:10836000FFF778FF23689A6842F008029A601C4A77
:1083700010689968090715D4996841F0040199605B
:108380001068996849071ED4A36A23F0030343F0D9
:108390000103A362002384F8243011E0019B013B18
:1083A0000193DAE71168091A0A29E2D9A36A0125BB
:1083B00023F0120343F01003A362002384F8243057
:1083C000284603B030BD1168091A0A29D9D9EDE74A
:1083D0000225F5E7910501084C000020001002403D
:1083E0002C3000207047436A9A6A42F040029A6239
:1083F000DA6A42F00402DA627047000008B590F8C9
:108400002130022B03D004238363012008BD0368BD
:108410001A6822F00E021A601A6822F001021A602D
:10842000174A93421CD0143293421BD01432934209
:108430001AD0143293421AD0143293421AD0143202
:1084400093420CBF4FF480134FF080730D4A53607A
:108450004FF480730384436B7BB198470020D5E7CA
:108460000123F3E71023F1E74FF48073EEE74FF4B5
:108470008053EBE74FF48033E8E71846C6E700BFC8
:10848000080002400000024070B40425C66B026C74
:108490003468036895402542196832D04D0730D5BD
:1084A0001A6896065EBF1A6822F004021A603D4AF6
:1084B000934219D01432934218D01432934217D0F9
:1084C0001432934217D01432934217D0143293428D
:1084D0000CBF4FF480034FF08063334A5360C36A8C
:1084E000002B5CD070BC18470423F6E74023F4E768
:1084F0004FF48063F1E74FF48043EEE74FF48023BD
:10850000EBE702259540254235D08D0733D51A6813
:10851000940606D41A6822F00A021A60012280F832
:108520002120204A934219D01432934218D0143299
:10853000934217D01432934217D01432934217D07B
:10854000143293420CBF4FF400134FF00073164ADD
:108550005360002380F82030836AC1E70223F6E7E6
:108560002023F4E74FF40073F1E74FF40053EEE7F4
:108570004FF40033EBE70825954025420FD009075B
:108580000DD5196821F00E011960012303FA02F2DA
:10859000726083634FF480730384036BA0E770BC45
:1085A000704700BF0800024000000240034A01304B
:1085B000116813685B1A8342FBD370472C3000208C
:1085C0000023084910B501EB8001184651F82340FB
:1085D0000433A2B202EB1442402B1044F6D1C0F394
:1085E0008F0010BD8400002030B50C68631C0AD1D8
:1085F00003695A684A6091608B605960036808613A
:108600000133036030BD00F108021346526815685B
:10861000A542FAD9EDE7000008B9064B1868026BCD
:108620000020135CA52B02D0C0F38F0070470130EF
:10863000F7E700BFF8180020064A13681968064BD0
:1086400019B94FF0FF321A6070471268D268D268C9
:108650005268F8E7FC180020D4340020C3685A1E82
:10866000C26033B9036833F8022B03600F238260C2
:10867000C36083685A008260C3F3C030704710B58E
:10868000012104462046FFF7E9FF49000144204646
:10869000FFF7E4FF0028F5D1084610BDF0B54FF410
:1086A000804386180122002485B0CDE90001CDE980
:1086B0000232009BB34202D3204605B0F0BD6846AB
:1086C000FFF7CCFF019FE8B16846FFF7D8FF0546EA
:1086D0006846FFF7D4FF009B02385A1C00921B78B3
:1086E000AA1C03EB0023DB433B4402341A449342AD
:1086F00001D12C44DDE70199481C019013F8010BCE
:108700000870F4E7009B01345A1C00927A1C019215
:108710001B783B70CDE70000034B588A80B20038CD
:1087200018BF0120704700BFA8190020034BD88A4A
:1087300080B2003818BF0120704700BFA819002080
:10874000034B188D80B2003818BF0120704700BF5E
:10875000A8190020F8B5002506462C461427EBB2D0
:1087600007FB03639A680AB92046F8BDDB6813B9B2
:108770000134E4B202E098470028F9D10135EEE770
:108780000B4B70B533F8305003EBC0035C88094BDA
:10879000460003EB400081808288334492B2AA42B3
:1087A00038BF85809A8892B2A24288BF9C8070BDF3
:1087B0008E0E0108A819002008B5164B198E5B8C87
:1087C00089B29BB29BB179B1143189B2B1F5257FE1
:1087D00028BF00211620FFF7D3FF40F289208142F5
:1087E00094BF0020012008BD4FF49671F2E771B1EB
:1087F0000A3189B2B1F5AF7F88BF00211620FFF79B
:10880000BFFFB1F5AF7F34BF00200120EBE7962119
:10881000F4E700BFA819002070B5114B114C33F8D4
:10882000306003EBC00359889A8804EB400345008D
:10883000988880B2884207D19E802C44A08880B25C
:10884000431A5842584170BD98888E1A80B2B0427F
:10885000B7BF98889980121892B2B8BF9A80ECE797
:108860008E0E0108A819002070B50F20FFF7D4FF65
:1088700005462748018E8288C388408C89B280B221
:1088800092B29BB280B3052001EBC10102EBC2069C
:10889000A031A03603EBC304B1FBF0F1B6FBF0F658
:1088A000A034B4FBF0F489B2B6B20A23B1FBF3F101
:1088B000B6FBF3F6A4B2B4FBF3F401EB810149007B
:1088C000162089B2FFF75CFF06EB86014900002005
:1088D00089B2FFF755FF04EB84014900012089B2FA
:1088E000FFF74EFF284670BD09202039203A01EBE2
:1088F000810102EB820291FBF0F192FBF0F6203B4A
:1089000003EB830393FBF0F489B2B6B2CDE700BF6B
:10891000A819002038B500230122104D04462B7001
:1089200003681A70D0E90131142009781B6800FB34
:108930000133187C232809D8FFF76EFF2B7813B179
:10894000032223691A6001232B7038BD586808B1CF
:108950008047F3E7E3681A70F0E700BFE4130020F4
:1089600008220F4B1A614FF40042A3F580631A618D
:10897000142200BF013AFCD14FF000421A611422C8
:1089800000BF013AFCD14FF40021054A11611422C5
:1089900000BF013AFCD14FF400421A61704700BF9A
:1089A000000C01404FF000430A4A1361142300BF3A
:1089B000013BFCD10821084B1961142300BF013B86
:1089C000FCD14FF400431361142300BF013BFCD1E1
:1089D000704700BF00080140000C01400823F0B5BB
:1089E0004FF4004C4FF000471E464FF40025184A44
:1089F000184C01064FF014014CBFC2F810C01761AB
:108A000000BF0139FCD11421266100BF0139FCD11E
:108A1000013B400013F0FF032561C0B2E9D14FF4E0
:108A2000004313611361142300BF013BFCD10823F1
:108A300008490B61142300BF013BFCD14FF4002314
:108A400090680B6180F40040C0F3C030F0BD00BFFF
:108A500000080140000C0140F0B55442A0421E46FF
:108A6000059D134624DD602822DC002800EB020768
:108A7000B6BF44420024E4B2602FC4BFC0F160021C
:108A8000D2B2E9B9134F21183F6805EB040C0F442B
:108A900021468A420DD8102E0AD1102E18BF00236D
:108AA0000D492344096820442B440144A2420AD8BA
:108AB000F0BD1CF801EB013107F801EBC9B2E8E7A2
:108AC0000829EAD0E7E713F8010B013401F8010B9C
:108AD000E4B2EBE7441200204812002002292DE9FD
:108AE000F34104461CD11022254B264D1A700C224E
:108AF000254B1A70244B254F1E78214BB7F9008067
:108B00001B782349DA08724304FB0255009532466C
:108B1000404691F900104644FFF79EFF3E8009E071
:108B200001280AD11A4BB3F900201AB917490A8053
:108B300008221A8002B0BDE8F081FBD900290BBFE2
:108B40000820102006220C220D4B18700E4B1A70B4
:108B50000422104B1888A0420AD85D88A54207D984
:108B6000201AD3E9012584B2002918BF1546C1E7B0
:108B7000013A03F10C03EDD114461546BAE700BFE4
:108B8000081400208C070108091400200E1300208F
:108B9000101300208801002038B504460D462378C4
:108BA00003B938BDF02B05D898B201342946FFF738
:108BB00095FFF4E76278002AF3D0F03BC3EB032380
:108BC0000F3A134498B20234F0E70000002205493E
:108BD0000A8005490A800178012914BF1146013035
:108BE000FFF7DABF0E1300201013002010B50A4B58
:108BF0000A4A0C461B68443033F81030106804EB06
:108C000044041844FFF7E2FF0022054BA400023C95
:108C10001C80044B1A8010BD581100205C110020EC
:108C20000E1300201013002008B507210520FFF7C0
:108C3000DDFF064B06485B8C064A9BB2002B08BF43
:108C40001046BDE808400121FFF7A6BFA819002083
:108C500080040108D304010808B507210F20FFF79D
:108C6000C5FF084B084A9B8C12689BB243B1D38C5A
:108C7000064A012110681844BDE80840FFF78CBF80
:108C8000138DF5E7A8190020581100205C11002071
:108C9000072108B50920FFF7A9FF0D4B198B0D4BD4
:108CA00089B21A680C4B02291B6809D003290AD023
:108CB00001290AD1D08D1844BDE80840FFF76CBFE8
:108CC000108E0121F7E7508EFBE7908EF9E700BF89
:108CD000A8190020581100205C110020072108B5B8
:108CE0001820FFF783FF0C4BD98C0C4B89B21A6804
:108CF0000B4B01291B6805D002290AD1B2F84200AA
:108D0000012101E0B2F840001844BDE80840FFF737
:108D100043BFD08FF4E700BFA819002058110020EE
:108D20005C11002007210C20FFF760BF05210B20FC
:108D3000FFF75CBF072108B51B20FFF757FF0D4B5E
:108D4000D98A0D4B89B21A680C4B02291B6809D0CD
:108D500003290AD001290AD1108D1844BDE8084022
:108D6000FFF71ABF508D0121F7E7D08CFBE7908DFC
:108D7000F9E700BFA8190020581100205C1100205D
:108D800005210D20FFF732BF37B5294B294A1B6853
:108D9000044603EB4003B3F8CC3010681844FFF7E7
:108DA00015FF254AD38A9BB2022B23D0032B14BF75
:108DB0004FF4FA704FF49670204B1978204BE1B9BC
:108DC000D18A89B2C9B119681E4DA1421E4902D08B
:108DD0001C602B680B602B680968928A5B1A92B240
:108DE000B3FBF0F302B30322B3FBF2F202EB420255
:108DF0009B1A0AE04FF4C870DEE779211960D38A24
:108E00009BB2B3FA83F35B095B006022544304EB2B
:108E100043140E4B00212344009310234E201A4686
:108E2000FFF71AFE03B030BD022B28BF0223ECE788
:108E3000581100205C110020A819002060110020AA
:108E400054000020F8340020E81300207D0C0108B5
:108E50000120FFF799BF0220FFF796BF0320FFF71D
:108E600093BF0420FFF790BF37B50C461146002290
:108E7000042C0092ADF804208DF8062032D90A2285
:108E8000B0FBF2F502FB150002308DF80500B5FBD2
:108E9000F2F002FB105502358DF8045080B20A251D
:108EA000B0FBF5F205FB120502358DF8035090B2C8
:108EB0000A25B0FBF5F205FB120502358DF80250CC
:108EC00090B20A25B0FBF5F205FB120502358DF8CC
:108ED000015090B20BE01578022D17D102F8010B6A
:108EE000013311E0DBD0032CE2D0012CE9D10A25BB
:108EF000B0FBF5F205FB120202328DF800202BB117
:108F00006A4600231220013CA342E4DB6846FFF7D7
:108F100043FE03B030BD000008B505210320FFF774
:108F200065FE0C4A538B9BB253B901210A4B0B4A85
:108F30001B6810681B8A1844BDE80840FFF72CBE68
:108F40000123508B022180B21A46FFF78DFF0121C9
:108F50000348F1E7A8190020581100205C110020F7
:108F6000820401080721042010B5FFF73FFEBDE889
:108F700010400122034B1146588A002380B2FFF7AC
:108F800073BF00BFA819002008B505211220FFF704
:108F90002DFE0C4A938E9BB253B901210A4B0B4A0A
:108FA0001B6810681B8A1844BDE80840FFF7F4BD31
:108FB0000123908E022180B21A46FFF755FF01214E
:108FC0000348F1E7A8190020581100205C11002087
:108FD000840401080521082010B5FFF707FE0C4A9C
:108FE000138E9BB243B1BDE810400123108E0321C4
:108FF0001A4680B2FFF738BF064B074A1B68106855
:109000001B8A0121BDE810401844FFF7C5BD00BF11
:10901000A8190020581100205C11002006211420FE
:1090200010B5FFF7E3FDBDE81040044B0221588F57
:10903000012380B21A46FFF717BF00BFA81900200E
:109040000621152010B5FFF7D1FDBDE81040044BF7
:109050000221188F012380B21A46FFF705BF00BF17
:10906000A819002070B5174D05211620FFF7BEFD89
:109070002B8D9BB2DBB101230A24288D1A4680B2C6
:109080001946B0FBF4F0FFF7EFFE01210E48FFF7A1
:1090900083FD288D80B2B0FBF4F304FB1300BDE820
:1090A0007040012380B21A461946FFF7DDBE074B18
:1090B000074A1B6810681B8A0121BDE870401844EC
:1090C000FFF76ABDA8190020860401085811002086
:1090D0005C11002007211C2010B5FFF787FDBDE8BB
:1090E0001040044B588D012380B21A461946FFF7F1
:1090F000BBBE00BFA819002007211D2010B5FFF737
:1091000075FDBDE81040044B988D012380B21A46CE
:109110001946FFF7A9BE00BFA819002007B5052111
:109120002120FFF763FD164BB3F84A2092B25AB9DB
:109130000121144B144A1B6810681B8A184403B0A1
:109140005DF804EBFFF728BDB3F84A2092B2052A78
:109150000AD10E4B18220093002110234620FFF75E
:109160007BFC03B05DF804FBB3F84A000123022145
:1091700080B21A46FFF778FE01210548DFE700BFFD
:10918000A8190020581100205C110020D406010805
:10919000EC0401080221FFF7A1BCC0F11100C0B22C
:1091A000FFF7F8BF08B50E200721FFF71FFD054B9D
:1091B000188CBDE8084080B2003818BF0120FFF7C6
:1091C000ECBF00BFA819002008B506200721FFF753
:1091D0000DFD054BD88BBDE8084080B2003818BFA4
:1091E0000120FFF7DABF00BFA819002008B50A2048
:1091F0000721FFF7FBFC054B988BBDE8084080B2C8
:10920000003818BF0120FFF7C8BF00BFA819002011
:1092100008B513200721FFF7E9FC054BD88EBDE800
:10922000084080B2003818BF0120FFF7B6BF00BF6A
:10923000A819002008B51A200721FFF7D7FC054B15
:10924000988ABDE8084080B2003818BF0120FFF7B7
:10925000A4BF00BFA8190020F8B51D4B05460E207D
:109260001C78FFF797FF1F23B5FBF3F0194BC0F1F4
:109270000A0010F0F80F1968C5B2C0F3C4060BD08D
:10928000F32C8CBF01230D23204600272344DBB29F
:10929000421CD2B2934218D1FF2205F00705AA4022
:1092A0006025F32C8CBF01230D2375432344DBB2CF
:1092B00062F0FF02601CC0B2834200D1F8BD2C44B2
:1092C0000E5D16400E550446F4E70F541046DFE7D6
:1092D0000E1300204412002070B5224A224B234D69
:1092E0009B68906883F48063C0434000C3F380238D
:1092F00000F0020018431FBF1D4B1A681D4B1A6077
:109300002B7883420FD168B1194B1B4A1B68126836
:109310009B1AB3F5C87F20D9012820D002280CBFA2
:109320000820202070BD124C134920B1032B00D11E
:10933000184600230AE022680E68921BB2F5C87F27
:1093400009D2012B02D0022B18BF102322682870EB
:109350000A601846E6E70346F8E70020E2E7042043
:10936000E0E700BF000C014000080140B0130020FE
:10937000F834002088170020B413002013B5012210
:10938000446801AB0078A04708B19DF8040002B022
:1093900010BD0000014B1868704700BFF834002072
:1093A0002DE9F74F0025009143888446C3F302332B
:1093B0000193404B28461D60AE462C462E46FF23A7
:1093C00044F62069DFF8F0A0019A5FFA85F842457B
:1093D00024D810B1374AC2F800B0FF2B67D0013350
:1093E0001B0703F0E043BEF1000F5CD01422B6FB74
:1093F000F2F605220434B4FBF2F443EA462304F007
:109400007F04234343F080730222009901208A7075
:1094100010224B60CA7003B0BDE8F08F0CEB8502E0
:10942000526812F0404716D13221C2F389274F43C8
:109430004F450ED8BE4201DBFF2B0AD1C2F309040F
:1094400004FB07F33E46B3FBFAFB012043464FF013
:10945000000E0135B8E7B7F1404FFAD112F0405F86
:10946000F7D102F07F07C2F3474202EB82023C21B0
:1094700002EB8202920092B24A45A8BF4A4607EB2D
:10948000870779438A42A8BF0A46964201DBFF2B31
:10949000DFD1012002FB07F33C46B3FBFAFB164683
:1094A00043468646D5E7234343EA8423AAE7034B92
:1094B000AAE700BFF4180020A08601000A280011C6
:1094C0007047000048F2E80358436423C00B584338
:1094D000A823B0FBF3F0084B5A8E92B242B139B9CF
:1094E0005A8E92B282422FBF08465B8E9BB2C01A40
:1094F000024B1860704700BFA81900209017002089
:1095000008B50021FFF7DEFF6FF461720E4B1B8878
:109510009A18C72A15D80A22B3FBF2F3C0F54912EC
:1095200003F5967302F5D5529BB25343074A93FB5A
:10953000F2F3C01AF323584342F2107390FBF3F096
:1095400008BD4FF6FF70FBE7FA19002040420F00FC
:109550004AF6AA22014B1B681A607047A416002025
:109560004FF0E0204FF0805408B506490B68012BFE
:1095700005D9C0F8044DBFF34F8FBFF36F8FFFF7CE
:10958000E7FFF3E70419002038B50F4D2C6AA0B1AE
:109590000E4B1B788BB90220FFF712F895F8243098
:1095A00035F8132025F81300A41A0133044403F0FE
:1095B0000F032C6285F8243038BD201EB8BF0F3051
:1095C000C0F30F10F8E700BF7C190020F819002045
:1095D0002DE9F047DFF86C90044699F800600F46DB
:1095E000DFF864806EB1C24600250120FEF7E8FF77
:1095F0000135EDB2082D4AF8040BF6D1013E89F889
:10960000006057B10120FEF7DBFF104A137848F8DD
:109610002300013303F007031370002213460A49A5
:10962000013251F8040BD2B2082A0344F8D1012CBC
:1096300038BF0124DB089B00B3FBF4F080B2BDE827
:10964000F08700BF52000020BC130020B913002097
:1096500070B50F4B0021D88D0A2680B2FFF7B8FFF6
:10966000B0FBF6F5044601230022A8B20221FFF761
:10967000FBFB00210748FFF78FFA012306FB15408B
:10968000BDE870400022194680B2FFF7EDBB00BF75
:10969000A8190020860401082DE9F0471D4B002180
:1096A000D88D80B2FFF794FF0A23C0B2B0FBF3F469
:1096B00003FB1400C0B20428E4B284BF0134E4B256
:1096C000092C1FD94FF00A090123B4FBF9F8124EF7
:1096D000194600225FFA88F0B6F90050FFF7C4FB84
:1096E00008230E4F09FB18403B8001230022194636
:1096F000C0B23580FFF7B8FB00230C3535803B80C6
:10970000BDE8F08701232046BDE8F0471A46194618
:10971000FFF7AABBA81900200E1300201013002089
:1097200008B5084B0146D88D80B2FFF751FF3C23A6
:109730004043B0FBF3F0FF23C0EB0020B0FBF3F09D
:1097400008BD00BFA819002010B50446002C08462B
:1097500006DC094BD88D80B2FFF73AFF002010BD20
:10976000FFF7DEFFC4EB0424B4FBF0F0FF2828BFB2
:10977000FF20C0B2F3E700BFA819002010B50121F7
:10978000FFF7E2FF902804461DD9134B1A780AB15F
:1097900000221A70114B00201B689A6A142A8ABF93
:1097A00000225C635A63FFF7BBFFFF23E82160439D
:1097B0000B4AB0FBF3F013684B43182101FB003355
:1097C0001B0A136010BD6F28E4D8034B1A78002AD7
:1097D000E0D10122DDE700BF53000020F816002091
:1097E0004430002001207047044B054A1B68106874
:1097F000B3F8C4301844FFF7E9B900BF581100208E
:109800005C11002038B505461C2425FA04F303F04A
:109810000F03981C0021043CFFF760F9231DF4D1CD
:1098200038BD000037B5064C8DF8071001220146FF
:10983000A56820780DF10703A84703B030BD00BF2D
:1098400010150020F8B5538803F01F040D2C214C8F
:1098500007D113F4E04FC3F3023502D184F8295045
:10986000F8BD164684F8311084F83000558843213D
:1098700025F46065558094F8293020785B0203F464
:1098800060631D4326F8025FC5F30235AD00124B3D
:10989000023565F07F021A71A7680522B8472A468B
:1098A00033464321A7682078B84704220B4B432155
:1098B000A5682078A84740F20163E26B6363134018
:1098C0004FF0010001BF4FF0FF3284F82F00A26378
:1098D0001846C5E7B817002058000020A426010844
:1098E000064AD2E93903834203D192F8EC008000A2
:1098F000704798BF0433181A704700BFB81700208C
:10990000F8B50B460D4C06466163E16B15460B42FC
:1099100006D1FFF7E5FF074620B141F00201E16300
:109920003046F8BD6B1C84F82F6002D13E46A5631B
:10993000F6E7236998470544F8E700BFB817002009
:109940000023012213B50A488DF8073044681146F8
:1099500000780DF10703A04738B19DF807000138E2
:10996000C0B2FD288CBF0020012002B010BD00BF96
:109970001015002010B5064C236823B9FFF7E0FF4F
:1099800008B1012323602068431E5842584110BD8E
:109990006411002038B5FFF7EDFF0246D8B1104B37
:1099A000104DB3F8443095F82C009BB290B995F85F
:1099B0003011182911D00C290FD013F0FF0409D051
:1099C0002B6998472B6CC01A64236343984294BF59
:1099D0000020012038BD0120FCE71046FAE700BF57
:1099E000A8190020B817002038B50020FEF7E8FDC0
:1099F000C0B10122164B33F822109400884213D2D2
:109A000023444FF47A7433F8045C33F8022C401B7F
:109A10006043491B90FBF1F05B889B1A584390FB15
:109A2000F4F0104480B238BD01329F2AE3D14FF4E4
:109A30007A73A822A0F5E3403038584390FBF2F047
:109A40006FF00902504390FBF3F01430EAE700BFD7
:109A50005C09010810B5FFF797FDFFF751FD0446BB
:109A6000FFF7C2FF0A23B0FBF3F39BB2181920EAF9
:109A7000E07010BD10B547F6C070FFF741FD044619
:109A8000FFF7B2FF0A23B0FBF3F0013C80B22044A1
:109A900010BD0000174B70B51D68174E6A6912F0B3
:109AA000800201D0002024E06C6914F4806410D19D
:109AB0003268521A9042F1D220221C6383F83D2072
:109AC00083F83E401A6C83F83C4042F020021A644E
:109AD0000EE06FF48061696120211A6383F83D1004
:109AE00083F83E20196C83F83C2041F0040119648E
:109AF000012070BD501600202C300020164B70B590
:109B00001D68164E6A6912F0400201D0002011E073
:109B10006C6914F010040ED06FF0100169612021FF
:109B20001A6383F83D1083F83E20196C83F83C20BB
:109B30001964012070BD3268521A8242E2D9202293
:109B40001C6383F83D2083F83E401A6C83F83C4048
:109B500042F020021A64ECE7501600202C3000205E
:109B600070B50546174B184E1C686269D24312F057
:109B7000020018D0626912F4806215D02268202198
:109B800042F4007222606FF48062626100221A6304
:109B900083F83D1083F83E20196C41F00401012048
:109BA000196483F83C2070BD3068401A8542DCD2CD
:109BB00020211A6383F83D1083F83E20196C41F090
:109BC0002001ECE7501600202C300020F0B5134D9A
:109BD000DFF84CC02E68070C012F0CBF7469B46904
:109BE00020EA0404A4B2B4FA84F46409A14201D0C6
:109BF000002012E0DCF80040E41AA242ECD200237C
:109C0000202201202B6385F83D2085F83E302A6C08
:109C100085F83C3042F020022A64F0BD5016002046
:109C20002C30002010B54CF250342049204B0868ED
:109C3000DA68D20733D4DA68910644BF2022DA60AA
:109C4000DA68D20606D4DA69D40703D4D86810F0EB
:109C5000040023D0164AD36813F0100305D0154929
:109C6000CB6943F00203CB611023D268500706D5BD
:109C7000104943F00403CA6942F00102CA610C4A68
:109C8000D169C90708D50B48C16941F00401C16118
:109C9000D16921F00101D1610120D36010BD0A68B2
:109CA000121AA242C4D90320F8E700BF2C300020CA
:109CB000002002409817002090F83C30012B1FD064
:109CC000022380F83D30036859689A6821F07001DA
:109CD00059600C498B420AD0B3F1804F07D0A1F5EF
:109CE00094318B4203D001F580618B4202D122F086
:109CF00080029A60012380F83D30002380F83C30D8
:109D0000704700BF002C01402DE9F041534C2378EF
:109D1000834276D1022864D10A25514B00211B6869
:109D2000504AB3FBF5F3C025B3FBF5F605FB16333C
:109D3000403311705370917072B600224FF48076E8
:109D400001274FF0807E484DDFF818C107232E61B0
:109D500012F80C8007FA03F131EA080117D100BFAD
:109D600000BF00BF00BF00BF00BF00BF00BF00BFFB
:109D700000BF00BF00BF00BF00BF00BF00BF00BFEB
:109D800000BF00BF00BF00BF00BF00BF00BF00BFDB
:109D900000BF00BF00BF00BF00BFC5F810E000BF9C
:109DA00000BF00BF00BF00BF00BF00BF00BF00BFBB
:109DB00000BF00BF00BF00BF00BF00BF00BF00BFAB
:109DC00000BF00BF00BF00BF00BF00BF00BF00BF9B
:109DD00000BF00BF013BBAD20132032AB6D162B63E
:109DE0002070224B03281B6834D1214A2149126874
:109DF000096891422ED980229A6364229A62BDE852
:109E0000F081411E0022174B03290BD801A555F8FC
:109E100021F000BF2D9E0008199D0008339E000808
:109E2000499E00081A705A709A7085E7FF211970D0
:109E3000F9E7FF211A709A7059700D4B0D4A1B6893
:109E400003F24D13136077E78C221A70FF225A70C9
:109E50000022E9E700229A630122CFE751000020A7
:109E60002C3000204030002000080140F81600206F
:109E7000F8340020AC13002038B5124D0446688C2D
:109E800080B2C0B10020FFF7E5FD052300EBC00064
:109E9000B0FBF3F303F12000012303211A4680B243
:109EA000FEF7E2FF64B16B8C9BB23BB10020BDE8D2
:109EB0003840FFF76FB9FFF7CDFDEDE70120F6E77A
:109EC00038BD00BFA81900202DE9F04F9A460023A5
:109ED00087B000938D4C8E4B80461E6894F83D30C1
:109EE0008946202B9346109F04D00225284607B0B0
:109EF000BDE8F08F3346192201218648FFF766FE40
:109F00000028F2D194F83C308B42EED0256884F8DA
:109F10003C102B683A46DB0758BF2B684FF0011006
:109F20005CBF0B432B602B68002123F400632B6084
:109F3000222384F83D30402384F83E302164A4F885
:109F40002AA0638DC4F824B02385734BE3622B6889
:109F500043F480632B602B6843F480732B6033469B
:109F6000FFF734FE38B123681B68DD0522D54FF4B6
:109F7000007323641EE0226808F0FE033146384671
:109F800013615FFA88F5FFF7EBFD98B92368059038
:109F90005A69314605929B6938460593059BFFF740
:109FA00079FD48B1236C042B04D12268136843F473
:109FB00000731360012599E7236831463846C3F8DA
:109FC0001090FFF767FD01460028EBD122684FF0A3
:109FD0000110136843F48073136033463A46FFF769
:109FE000F5FD23680028BFD145F001051D6131460C
:109FF0003846FFF7B5FD05460028DBD1228D2368E2
:10A00000C2B904905A6904929A690492049A1A682F
:10A0100042F400721A60DFF80481DFF80491238DA6
:10A02000002B37D1202284F83C3084F83D2084F87E
:10A030003E305BE7012A11D11A6822F480621A606F
:10A0400072B6236803905A6903929A690392039A3D
:10A050001A6842F400721A6062B6DCE7022A1A68D3
:10A060000ED142F400621A6072B6236802905A69F7
:10A0700002929A690292029A1A6822F48062EAE7CE
:10A0800042F480621A6001905A6901929B690193BF
:10A09000019BC0E7032B00F28580012B14D13146D0
:10A0A0003846FFF72BFD002884D123681A69636ABC
:10A0B0001A70636A01336362238D013B2385638DCC
:10A0C000013B9BB26385AAE7022B3A4633464FF029
:10A0D0000001404626D1FFF779FD00287FF46AAFE2
:10A0E00072B623681A6842F400721A601A69636AC9
:10A0F0001A70636A01336362238D013B2385638D8C
:10A10000013B9BB2638562B6CFE700BF50160020CB
:10A110002C300020020010000000FFFF04000100AE
:10A120004C000020FFF752FD00287FF443AF226867
:10A13000136823F48063136072B646F2A811236893
:10A140001A69636A1A70626A531C6362238D013B49
:10A150002385638D013B9BB26385D9F80030B3FB47
:10A16000F1F323214B4300932368009901390091B7
:10A17000009969B92023216384F83D3084F83E10AA
:10A18000236C43F02003236462B684F83C1011E78B
:10A1900059694807E9D5196841F4007119601B69CC
:10A1A0005370A6E731463846FFF7A8FC00287FF435
:10A1B00001AF23681A69636A1A70626A531C63628A
:10A1C000238D013B2385638D013B9BB2638523680F
:10A1D000596949077FF523AF1B69537069E700BFD1
:10A1E00070B50146FFF77CFB00B3114A89B1D2F884
:10A1F000E43002F1640404EB43140B4604F120063E
:10A20000254603CDB542186059602C4603F108037A
:10A21000F6D1D2F8E43092F8EC10013303F00303E6
:10A22000C2F8E43011B10BB982F8EC3070BD00BF58
:10A23000B817002010B5194C88B0E16B01F07F41D0
:10A24000E163FFF74DFB28B36846FFF7C9FFBDF890
:10A25000023003F01F02012A15D113F4E04F12D18E
:10A2600094F82920C3F3422393420CD1E26B0133CB
:10A2700003F0070342F0040294F8300084F8293018
:10A28000E26308B010BDE36B43F00803E36394F8A6
:10A290003100F6E741F00801E163F8E7B817002064
:10A2A00070B5A24C88B004F1440694F83051182DD2
:10A2B00000F28A81DFE815F0DF0101020A021900CD
:10A2C00033001D002D00540091009C00A600DD000D
:10A2D000F7006B0174017F0188018A0193019C01E1
:10A2E000A201BF01D001CF00D601042384F8303190
:10A2F000DBE7002384F82C3084F83131E3632369F1
:10A30000984742F21072206423210620FFF7F8FAE2
:10A310006CE0E36B03F07F429906E26301D505230D
:10A32000E4E7FFF7DDFA0028F9D03046FFF758FFE1
:10A33000B4F8462002F01F03012BF2D112F4E04FD3
:10A34000EFD0638D13F0C00F08D102F0C0027F2A56
:10A350008CBF43F0800343F0400363850723C5E7C8
:10A36000FF2384F82E300023B4F846207049C2F34E
:10A37000023293420CD051F8040B013300F04045F7
:10A38000B5F1404FF5D110F0405FF2D184F82E3096
:10A39000A36C6849C3F3C06384F82830A1F1CC00F2
:10A3A000A3699847B8B1638DB4F812211A4303F03A
:10A3B000C003802BA4F812210BD1D4F8143194F8E7
:10A3C0002E20C3F3027393422CBF0123002384F891
:10A3D000313108238AE7062388E70F210920E36B40
:10A3E000544A03F07F43E363FFF72CFA054639E054
:10A3F000E36B03F07F43E36340F68C2240F60301F6
:10A400000A2083E7E36B03F07F43E363FFF768FA17
:10A410000028F1D03046FFF7E3FEB4F8463003F0F1
:10A420001F01032906D113F4E04FEFD141F2883226
:10A430000B206BE70D2904D113F4E04FE6D1112571
:10A4400010E003F01702042AE0D113F4E04FDDD14D
:10A4500094F82C302BB14FF0FF3240F6FF710C20F6
:10A4600054E7052584F83051002D7FF41EAF08B065
:10A4700070BDE36B03F07F43E363FFF731FA08B984
:10A48000122333E73046FFF7ABFEB4F8463003F053
:10A490001F02062AF1D113F4E04FEED1012384F814
:10A4A0002C300C2322E7E36B03F07F42E2635A0671
:10A4B00063D4980663D4190663D4DA0501D5072559
:10A4C000D0E79807C7D5FFF70BFA0028C3D030466E
:10A4D000FFF786FEB4F8463003F01F020F2A17D1AB
:10A4E00013F4E04FB7D1618D01F0C0018029B2D1E2
:10A4F000190405D5B4F84810C1F308011A2942D847
:10A50000102A42D113F4E04F14BF12251725A9E7F2
:10A51000052A03D113F4E04FE5D19CE7092A0BD1BA
:10A5200013F4E04FDFD115259CE700BFB8170020DA
:10A5300000180020C8180020072AF1D00A2AEFD0FE
:10A540000B2AEDD0022AEED0042A03D113F4E04FF7
:10A55000C9D0E8E7012A03D113F4E04FC3D0AEE736
:10A56000082A04D113F4E04FBDD10E257AE70D2A55
:10A57000B9D113F4E04FB6D161E7082572E70F2592
:10A5800070E70D256EE716256CE712256AE7638DE7
:10A5900043F00703A4F8463032460F210C2023E78E
:10A5A000618D304601F0C0017F2994BF0021012157
:10A5B00063699847F0E794F92D30022B59DC013399
:10A5C00084F82D30102391E603238FE6638D6A46CD
:10A5D00043F00D030F210520ADF8023004E7638D31
:10A5E000324643F00D030F211320A4F84630FBE65A
:10A5F00040F68C2240F60301142087E6E36B03F05B
:10A600007F43E363FFF76CF960B13046FFF7E8FD85
:10A61000B4F8463003F01F02032A05D113F4E04FCB
:10A620003FF47DAE0F2361E60D2AFBD113F4E04F1A
:10A63000F8D111235AE6638D03F0C002402A06D1F7
:10A6400043F00403A4F8463032461221A6E7802ADC
:10A65000FAD143F01003F5E7E3694FF4FA70984735
:10A66000152343E600234FF4FA6084F82C30E369A5
:10A67000984718233AE623699847A36B984282BF0C
:10A68000E36B43F40063E363E36B18050AD503F05F
:10A690007F43E36394F82F30113B032B94BF0325D2
:10A6A0001225DFE6D90706D4626B13423FF4DAAE17
:10A6B00094F82F50D6E61025D4E6E26B02F07F43E3
:10A6C0009205E36309D5FFF70BF910B1FFF7B2FD6F
:10A6D0008CE602217822084618E643F0080394F835
:10A6E0003150E363BEE600BF024BC0220021186870
:10A6F00005F052BE44120020F8B5036805460E4628
:10A70000002B39D102600120334601211F784C1EF5
:10A71000A4B2002F32D104EB4404A400A4B2602CF4
:10A7200037D92B68D21A1F4B9B8C9BB2012B0CBFC5
:10A730000A231423B2FBF3F204F1600312B292FB7A
:10A74000F3F103FB11225F2A29DDA24225DC14B2BA
:10A75000B5F90430A3420ED0FFF7C6FF124BC4F187
:10A7600060021A800022114B304601211A80FEF748
:10A7700013FA0120AC80F8BD0020C5E7F02F03D804
:10A780000133013189B2C1E75F78002FC3D00233B2
:10A79000F7E7C4F1600304EB630424B2D8E7602454
:10A7A000D6E700BFA81900200E13002010130020C8
:10A7B0002DE9F047314B1A78FF2A0DD141F278513B
:10A7C0002F4AB2F8422092B28A4203D04AF2D711FD
:10A7D0008A424BD000221A701A78012A44D80C21E0
:10A7E000284B294C01FB02335A7A5868D2093FD0D2
:10A7F0001A892146C2F30E02FDF750FF25182046A4
:10A80000224B234F1860234BE03018603022002188
:10A81000214805F0C1FD4FF00008BA464FF00C0981
:10A820001D4E3B887C8833802344738009FB08A33A
:10A830009A885B7904EB4404E400DB09B868A4B2AD
:10A84000C2F30E0206D02946FDF728FF034682B266
:10A8500028461D44A242706084BF0019B0600C37C6
:10A860000C36B8F1000F05D0BDE8F0870122B2E741
:10A870002546C5E74FF00108D3E700BF5000002090
:10A88000A81900200C060108FC190020581100200E
:10A89000F40501085C110020880100200C2210B58D
:10A8A000094C1F202378013303F001032370534325
:10A8B000064AD15AFDF764FFFFF77AFF2078431E5E
:10A8C0005842584110BD00BF500000200C0601083E
:10A8D0002DE9F843FEF73CFE35232D4D2D4CEB6062
:10A8E00005F06AFC0120FDF761FEFEF731FE237ED4
:10A8F000012B07D001232376FFF794F9074668B3AD
:10A900000023237605F058FC0025234F204EDFF866
:10A910008C80FEF71DFE237E012B15D0012337F816
:10A9200015902376FFF77EF960B9E061336943F053
:10A930000103336128F81590FFF774F9336923F0A8
:10A9400001033361002323760135282DE1D1104A1C
:10A95000136943F080031361BDE8F8830F4E06F5D9
:10A9600080684645CCD2E7612B6943F002032B6136
:10A970006E612B6943F040032B61FFF753F92B699C
:10A9800023F002032B610028BAD106F58066E8E7C0
:10A990000020024098170020A819002000FC0108A0
:10A9A000F8B545F2AA54234B1A8892B2A2423AD083
:10A9B00018465022FF2105F0EFFC048003460124D5
:10A9C000DA6C01321CBF4FF0FF32DA645A8818BFCC
:10A9D000012492B2232A08D84FF6FF715A8892B206
:10A9E000232A22DD242201245A800022124903EB6B
:10A9F0004206B5880F88ADB2AF424FEA420004D894
:10AA0000B5884E88ADB2AE4203D2CC88184484805B
:10AA100001240132242A01F10801E8D10CB1FFF729
:10AA200057FF2046F8BD0024CAE703EB42008180AF
:10AA30000132D5E7A81900208E0E0108014B1868D5
:10AA400005F01ABB14130020014B186805F014BB65
:10AA50006013002000000000000000000000000063
:10AA6000074B19680868B0E8F00F80F30988BFF356
:10AA70006F8F4FF0000080F311884EF00D0E70477D
:10AA8000F818002008B54FF0500383F31188BFF386
:10AA90006F8FBFF34F8F074A13680133012B136089
:10AAA00007D14FF0E023D3F8043DDBB20BB1FDF743
:10AAB00085FB08BD60000020054A08B513680BB986
:10AAC000FDF77CFB013B13600BB983F3118808BDD4
:10AAD00060000020000000000000000000000000F6
:10AAE000EFF30980BFF36F8F0D4B1A6820E9F00F69
:10AAF00010602DE908404FF0500080F3118801F0FC
:10AB00003FF84FF0000080F31188BDE80840196855
:10AB10000868B0E8F00F80F30988BFF36F8F7047C3
:10AB2000F8180020704770477047704770477047AB
:10AB30000148FDF7A9BC00BF80150020324A136808
:10AB4000196989070AD5D968880707D56FF0020106
:10AB50001961012111779969002111771969490754
:10AB60000AD5D968480707D56FF004011961022199
:10AB70001177996900211177196909070AD5D968F0
:10AB8000080707D56FF00801196104211177D96909
:10AB9000002111771969C9060AD5D968C80607D5F1
:10ABA0006FF01001196108211177D969002111771F
:10ABB0001A69D1070CD5DA68D20709D56FF00102FE
:10ABC0001A61124A934201BF11490A6801320A60B0
:10ABD0001A69100605D5DA68110644BF6FF08002C5
:10ABE0001A611A69520605D5DA68500644BF6FF03B
:10ABF00040021A611A69910605D5DA68920644BFC7
:10AC00006FF020021A6170474017002000080040D2
:10AC10002C3000200148FDF737BC00BF081600208B
:10AC20000148FDF731BC00BFC41500201A4A036873
:10AC300090420AD0B0F1804F07D0A2F594329042F2
:10AC400003D002F58062904215D14A6823F0700368
:10AC50001343114A90420AD0B0F1804F07D0A2F5B9
:10AC60009432904203D002F58062904203D1CA68C8
:10AC700023F4407313434A6923F0800313430360B2
:10AC80008B68C3620B688362034B984204BF0B69F5
:10AC90000363012343617047002C01402DE9F74F06
:10ACA00000221646644F654BDFF894C1DFF894E14B
:10ACB0000D6835FA06F402D103B0BDE8F08F4FF00D
:10ACC000010808FA06F805EA080438EA05057AD109
:10ACD0004D68032D07D8013D022D00F28780DFE883
:10ACE00005F0959AA000122D00F098806DD8112DD6
:10ACF00000F08E80FF2C98BF82464FF00F0988BF6E
:10AD000000F1040A4FEA8605DAF8008088BF203D8A
:10AD100009FA05FB28EA0B0802FA05F548EA0505D9
:10AD2000CAF80050D1F804A01AF0805F4BD0BD697A
:10AD300026F0030845F00105BD61BD6908F18048B2
:10AD400005F00105019508F5803806F0030B019D1B
:10AD50004FEA8B0BD8F8085009FA0BF925EA0909D4
:10AD6000394DA84261D005F58065A8425FD005F550
:10AD70008065A8425DD005F58065A8420CBF03251B
:10AD8000042505FA0BF545EA0905C8F808501D68C1
:10AD90001AF4803F14BF2543A5431D605D681AF473
:10ADA000003F14BF2543A5435D609D681AF4801FD2
:10ADB00014BF2543A5439D60DD681AF4001F14BF2E
:10ADC0002543A543DD60013672E7DFF880904D45ED
:10ADD0000CD017D8A9F580194D4507D009F5702971
:10ADE0004D4503D0A9F580194D4583D18A68D2B16C
:10ADF000012A08BFC0F810804FF0080218BFC0F841
:10AE0000148077E76545F1D07545EEE7CA6871E7CC
:10AE1000CA6804326EE7CA6808326BE7CA680C3247
:10AE200068E7002266E7042264E70025A9E7012518
:10AE3000A7E70225A5E700BF00100240000401407B
:10AE40000000311000003210000801400000221004
:10AE5000F0B5294D11202A6885B01368402623F0EB
:10AE6000010313600123CDE9010302238027234C52
:10AE70006946204603930096FFF710FF266100976E
:10AE8000FFF70CFF65234FF480022761A1680906D4
:10AE900027D5122201234027CDE901238026022352
:10AEA0006946164803930097FFF7F8FE0096FFF7F0
:10AEB000F5FE276126612A68136843F40043136096
:10AEC00000BF2A68136823F40043136000BF2A6898
:10AED000136843F00103136005B0BDE8F04004F0CF
:10AEE0006BBF226100BF00BF00BF00BF013B2661F6
:10AEF000CCD105B0F0BD00BF50160020000C0140C1
:10AF0000F0B52B4E2B4D32782B4B85B042B92B4CE4
:10AF100000283DD12288002A3AD02A68002A37D05A
:10AF20001A682968521A632A2DD9254F1B683C8854
:10AF300003202B6084B9FDF743FB022303930093A6
:10AF4000032301934FF4003338801E48029469466E
:10AF50000361FFF7A3FE16E0FDF732FBC4F50043E3
:10AF60001B18164A0BD042F21071241A4C43B4FB42
:10AF7000F3F4A4B21480A4F56174C82C05D900239D
:10AF800013803B802B6005B0F0BD00233370FAE7DF
:10AF90000121002231701B68CDE901122B60084BA2
:10AFA00008481A800223228003930093CFE700BF52
:10AFB000F8190020E0130020F8340020FA190020CE
:10AFC000DE1300200014014038B50E4B1B7803F04F
:10AFD000FF0423B10020FFF793FF204638BD022075
:10AFE000FDF7EEFA47F6D07398428CBF0124002497
:10AFF000054D04D82B7813B10120FFF781FF2C7089
:10B00000EBE700BFF8190020B81300200E4B1A68B8
:10B0100042F001021A6059680C4A0A405A601A68E4
:10B0200022F0847222F480321A601A6822F480229C
:10B030001A605A6822F4FE025A604FF41F029A60A6
:10B04000034B044A9A607047001002400000FFF86A
:10B0500000ED00E00080000843689A684B608A6059
:10B060009A68516099600368086101330360704712
:10B070002DE9F3410646DDE908040F46984640B93C
:10B080004FF0500383F31188BFF36F8FBFF34F8FDF
:10B09000FEE744B94FF0500383F31188BFF36F8F7D
:10B0A000BFF34F8FFEE764230193019B642B08D00D
:10B0B0004FF0500383F31188BFF36F8FBFF34F8FAF
:10B0C000FEE795002A46A5212063019B05F064F95F
:10B0D000226B043D2A4422F00702002F00F09680E4
:10B0E0007B1E04F134011F3713F8010F01F8010B27
:10B0F00008B1BB42F8D1002384F853304346052BF6
:10B1000028BF0523E3626365C3F106030021A36141
:10B110004FF08073E165A1656161A16224616462A1
:10B1200084F8601042F8043C3F4B26F0010642F8D8
:10B13000086C42F80C3C42F8201C403A2260FFF7B1
:10B14000A1FC3A4A3A4D13683A4E013313602B681A
:10B15000002B5ED12C601268012A2ED132464FF0AE
:10B16000FF3C14201F4602F10801C2E9011CC2E99C
:10B17000031100FB03F10133062B775002F1140297
:10B18000F1D12D4A02F10803C2E9013CC2E90333BF
:10B190002A4B176003F10801C3E9011CC3E903113D
:10B1A00027491F6001F108000F60C1E9010CC1E9E6
:10B1B000030024490A60244A1360244A244913687E
:10B1C0000868013313600123E26A934003431420AB
:10B1D0000B6000FB0260211DFFF73EFFFFF76CFCD8
:10B1E0001C4B1B6873B12B68DA6AE36A9A4209D276
:10B1F0004FF0E0234FF08052C3F8042DBFF34F8F80
:10B20000BFF36F8F204602B0BDE8F08184F8347040
:10B2100074E7104B1A68E36A002ACED12A68D26A12
:10B220009A4298BF2C60C8E7D181000830300020D6
:10B23000F818002004190020483000205C3000205D
:10B24000E0340020FC1800200019002038300020D5
:10B250003C300020F434002037B50446D0E900101B
:10B26000A569B4F90830226901956469842B0CBF83
:10B27000002303330094FFF7FBFE03B030BD0369E6
:10B28000D0E901128A6051605968814208BF5A6052
:10B29000002202611A68013A1A60186870470000BB
:10B2A000F8B52F4B5A69920654D520225A612D4B7E
:10B2B0001C68002C4ED0FCF7A5FFEFF311864FF071
:10B2C000500383F31188BFF36F8FBFF34F8F0223B7
:10B2D00094F8602084F86030E36D012A43F00103A4
:10B2E000D5B2E36502D086F3118833E0A36A43B197
:10B2F0004FF0500383F31188BFF36F8FBFF34F8F6D
:10B30000FEE7194B1B6833BB271D3846FFF7B7FF15
:10B31000164A1420E36A11689D400D4339461560B2
:10B32000134A00FB0320FFF797FE124BE26A1B68EB
:10B33000DB6A9A42D7D901220F4B1A6086F3118833
:10B340004FF0E0234FF08052C3F8042DBFF34F8F2E
:10B35000BFF36F8FF8BD094804F11801E3E700BFA0
:10B360000004014054110020343000203C30002003
:10B3700004190020F8180020FC340020E0340020DC
:10B380003D4B2DE9F74F1B68002B6ED13B4B1D68E1
:10B3900001351D60BDB93A4B1A68126842B14FF0D1
:10B3A000500383F31188BFF36F8FBFF34F8FFEE716
:10B3B000344A1968106818601160334A1368013301
:10B3C0001360FDF739F9314E00243368DFF8C0808F
:10B3D0009D4212D21422D8F80030DB6A53432D4A22
:10B3E000D358022B2C4B28BF01241B68002B18BFFD
:10B3F0000124204603B0BDE8F08FDFF884A0DFF819
:10B400009C90DAF800301B681BB94FF0FF333360B3
:10B41000E0E7DAF80030DB68DF687A68954201D24D
:10B420003260D7E707F1040B5846FFF728FFBA6AE6
:10B430001AB107F11800FFF722FF0122FB6AD9F8C1
:10B4400000009A4002431420C9F80020114A5946CE
:10B4500000FB03200193FFF7FFFDD8F80020019BBC
:10B46000D26A934228BF0124CBE70D4A0024136817
:10B4700001331360BDE700BF34300020F8340020F2
:10B48000FC18002000190020D8340020D4340020FB
:10B49000F818002004190020FC3400203C30002063
:10B4A000DC340020F8B5314B834259D1304A13784F
:10B4B0000133DBB21370DB0652D12E4B1C68002C1B
:10B4C0004ED0FCF79FFEEFF311864FF0500383F34D
:10B4D0001188BFF36F8FBFF34F8F022394F8602062
:10B4E00084F86030E36D012A03F10103D5B2E3650E
:10B4F00002D086F3118833E0A36A43B14FF05003C2
:10B5000083F31188BFF36F8FBFF34F8FFEE71A4BA2
:10B510001B6833BB271D3846FFF7B1FE174A1420BE
:10B52000E36A11689D400D4339461560144A00FBDB
:10B530000320FFF791FD134BE26A1B68DB6A9A4216
:10B54000D7D90122104B1A6086F311884FF0E023FF
:10B550004FF08052C3F8042DBFF34F8FBFF36F8FAE
:10B56000F8BD0A4804F11801E3E700BF20150020E8
:10B57000DC130020F0180020343000203C30002084
:10B5800004190020F8180020FC340020E0340020CA
:10B5900010B5364C23685A68910627D51A68920769
:10B5A00024D5A26AD0065EBFA26A42F40072A262EB
:10B5B0009A6802F46022B2F5602F10D1227B72B932
:10B5C0005A6822F020025A60A36A23F48073A362AF
:10B5D000A36AD9045EBFA36A43F00103A3622348B0
:10B5E000FFF760FF6FF0120223681A6023685A6841
:10B5F00012062CD51A68500729D5A26AD1065EBF5B
:10B60000A26A42F40052A2629A6802F4E042B2F5E1
:10B61000E04F0AD05A68520516D49A6802F46022A4
:10B62000B2F5602F10D1227B72B95A6822F08002E5
:10B630005A60A26A22F48052A262A26AD0055EBF5A
:10B64000A26A42F00102A2626FF00C021A605A680C
:10B65000510609D51A68D20706D5A26A42F480328B
:10B66000A2626FF001021A6010BD00BF2015002019
:10B67000436A9A6A12F0500F1AD19A6A42F4007221
:10B680009A621A68926802F46022B2F5602F0CD1B7
:10B690001A7B52B99A6A22F480729A629A6AD20428
:10B6A0005EBF9A6A42F001029A621846FFF7FABE3C
:10B6B0001B6A1B6B1847000070B5154B154D0646ED
:10B6C0001C6828680430FFF7DAFD40B92A6812497F
:10B6D000D06A01220B68824023EA02030B602B68C8
:10B6E000A4195C6007D30D4B18682968BDE8704049
:10B6F0000431FCF779BF0A4B186829680431FCF75C
:10B7000073FF084B1A68944238BF1C6070BD00BFBD
:10B71000F8340020F81800203C30002000190020E8
:10B72000FC180020D434002010B5134CFFF7AAF900
:10B730002368DB6D7BB90122236883F86020FFF763
:10B74000BBFF4FF0E0234FF08052C3F8042DBFF34E
:10B750004F8FBFF36F8FFFF7AFF9FFF793F92368B0
:10B76000D86D10B100222368DA650022236883F8BF
:10B770006020FFF7A1F910BDF81800202DE98848D6
:10B780000020FDF7FBFF00232024774A774D13604C
:10B79000774B1A68774B1A600520FFF7C5FF012029
:10B7A000FEF758F9E88D012180B2FDF711FF013C49
:10B7B000F2D1714C0020FFF7A3FB2378B3BB6F4F8E
:10B7C0004FF4FA60FFF7B0FF002800F0C8800120B6
:10B7D000FEF740F9644B83461C68694EDFF8A4A16C
:10B7E000DFF8A481DFF8A491002C00F0B180B4F55B
:10B7F000E17F28BF4FF4E174FEF73CF9A04202D28A
:10B80000FEF738F90446A4EB0B04032C1FFA8BFB5C
:10B8100005DD3188ABEB010109B203290BDDDAF854
:10B820000020A6F800B0C8F8002010E04FF4FA603D
:10B83000FFF77AFFBEE7DAF80020D8F80030D31A15
:10B840004AF6C872934202D9012389F800304FF4B6
:10B850007A7B4F49DAF800300A6800209B1ABBFB5C
:10B86000F3FBDAF800300B60FDF75AFFAB8E9BB2AA
:10B8700043B10A22AB8E9BB253439842C2BFA88EFB
:10B8800080B25043434B1B6823B10A225343984272
:10B89000A8BF18464123B3FBFBF33F49C3F1640340
:10B8A0000A685343642293FBF2F38222544394FBCD
:10B8B000FBF42344834245DD086008682B8D9BB26E
:10B8C0000BB340F6C4116B8D344C9BB24B43DAF88A
:10B8D00000202168521A934209D2FA21AA8DDAF87F
:10B8E000003092B2236001FB02332D4A13602B8D8E
:10B8F0009BB2984207DA2A4ADAF8003012689A4274
:10B9000084BF288D80B247F6DF72264B1B6A002B5E
:10B91000B8BF0F33C3F30F13934288BF002099F8C9
:10B920000030002B18BF00203B68C21A322AC8BF63
:10B9300003F1320020EAE0703860FDF71FFFFDF7E9
:10B9400007FE3DE740428342ACBF0B600860B4E7AE
:10B95000DAF800203080C8F800202046AEE7124B0D
:10B960001B689A6A58632BE7B8140020A8190020B6
:10B97000F8180020F0180020F8190020FC1300200F
:10B98000EC130020F8340020F01300204C160020A7
:10B99000F8130020F4180020F413002004140020F1
:10B9A000001400207C190020F8160020024A1368B9
:10B9B00001331360704700BF3430002032492DE955
:10B9C000F0470B6843B94FF0500383F31188BFF37E
:10B9D0006F8FBFF34F8FFEE7FFF754F80B68013B03
:10B9E0000B600C6824B10020FFF766F8BDE8F08713
:10B9F000264B1B68002BF6D0254E264FDFF898907B
:10BA000020E0F3684FF00108DC6804F1040A04F157
:10BA10001800FFF734FC5046FFF731FC1420E56AAC
:10BA20003A6808FA05F31343514600FB05903B6062
:10BA3000FFF712FB194B1B68DB6A9D4202D3184BC0
:10BA4000C3F800803368002BDBD10CB1FCF7F4FDA8
:10BA5000144D2C6844B10127114EFFF791FC00B141
:10BA60003760013CF9D12C600D4B1B68002BBAD01C
:10BA70004FF0E0234FF08052C3F8042DBFF34F8FF7
:10BA8000BFF36F8F0120AFE734300020303000204B
:10BA9000E03400203C30002004190020F818002079
:10BAA000FC340020DC34002008B550B94FF0E0230E
:10BAB0004FF08052C3F8042DBFF34F8FBFF36F8F49
:10BAC00008BD074B1B680BB1FCF778FBFFF76EFF57
:10BAD000FFF7F2FDFFF772FF0028E7D0F0E700BFA5
:10BAE000343000203220FFF7DFBF000070B50D4E6C
:10BAF00035680544FDF7F0FB044654B9FDF7ECFB4F
:10BB00000446FFF7EFFF33689D420AD3002CF5D0BF
:10BB100007E0FDF7E1FB0446FFF7E4FF33689D42D1
:10BB2000EBD270BDF834002010B5114AB2F84A309B
:10BB30009BB2052B11D1FDF7CFFB04463CB9FDF7B5
:10BB4000CBFB0446FFF7CEFF002CF8D010BDFDF76D
:10BB5000C3FB0446FFF7C6FFF0E74FF47A70BDE879
:10BB60001040B2F84A309BB25843FFF7BFBF00BF46
:10BB7000A8190020012838BF0120FFF795BF000059
:10BB800030B5284B1A68284B12B101221A6030BD1B
:10BB900026481A6003681B6B1A68B2F1A53F0BD1E7
:10BBA0005A68B2F1A53F07D19A68B2F1A53F03D117
:10BBB000DB68B3F1A53F0ED003680368BFF34F8F76
:10BBC0001B491C4BCA6802F4E0621343CB60BFF30D
:10BBD0004F8F00BFFDE7184B1A68B2FA82F21423A8
:10BBE000D2B2C2F11F0253431449CD58CC1845B903
:10BBF0004FF0500383F31188BFF36F8FBFF34F8F64
:10BC0000FEE7656808336D680B4465609D4204BFBC
:10BC10006B686360142303FB02114B68DB680360ED
:10BC2000B5E700BF34300020FC340020F8180020B5
:10BC300000ED00E00400FA053C300020041900206B
:10BC400010B50C46044B19681831FCF7CDFC2046A2
:10BC5000BDE81040FFF730BDF8180020C36870B58C
:10BC6000DC6844B94FF0500383F31188BFF36F8F42
:10BC7000BFF34F8FFEE704F118063046FFF7FFFAD7
:10BC8000104BE56A1B68D3B904342046FFF7F7FA76
:10BC900001230D4A14201168AB400B432146136069
:10BCA0000A4B00FB0530FFF7D7F9094B1B68DB6A2D
:10BCB000AB423BBF0120074B0020186070BD3146EE
:10BCC0000548F0E7343000203C3000200419002003
:10BCD000F8180020FC340020E03400202DE9F04169
:10BCE00004464FF00108FEF7CDFE90F845501B4F7B
:10BCF0006DB200F12406002D17DCFF234FF0010880
:10BD000084F84530FEF7D8FEFEF7BCFE94F84450A8
:10BD1000124F6DB204F11006002D12DCFF2384F8DF
:10BD20004430BDE8F041FEF7C7BE636A002BE4D0A3
:10BD30003046FFF793FF08B1C7F80080013D6DB2B0
:10BD4000D9E72369002BE9D03046FFF787FF08B118
:10BD5000C7F80080013D6DB2DEE700BFFC34002073
:10BD6000202210B5214B83F83D20214B1868002874
:10BD700035D0036C43B14FF0500383F31188BFF308
:10BD80006F8FBFF34F8FFEE7036853B9836843B1EA
:10BD90004FF0500383F31188BFF36F8FBFF34F8FC2
:10BDA000FEE7FCF72FFAEFF311844FF0500383F313
:10BDB0001188BFF36F8FBFF34F8F826BC36B9A42B3
:10BDC0000BD290F845100132FF294BB2826307D1A4
:10BDD000436A13B12430FFF741FF84F3118810BD8B
:10BDE00001335BB280F84530F7E700BF5016002002
:10BDF00060130020002333B40193436A46F2A81075
:10BE00002A4A93F83D101268C9B2B2FBF0F223201F
:10BE100042430192019A4ABB1A6C42F020021A6412
:10BE20005C6B0CB10022A262986B08B100228262A6
:10BE30001A68156825F48065156000255D8504B1D4
:10BE4000656300B14563106820F00100106093F84D
:10BE50003D00602812D1202283F83D20002283F883
:10BE60003E201A6402B030BCFFF77ABF019A013A53
:10BE700001921A6812689205CCD4D1E701F028012A
:10BE800028290CD1106840F001001060106840F4BF
:10BE90008060106000221A6383F83D10E2E72022E0
:10BEA00083F83D20002283F83E20DBE74C00002091
:10BEB000274B93F83D101A6DC9B282B9DA6C196834
:10BEC000012A9A6C05D1D2B20A611A6D02321A6542
:10BED0007047C2F307220A611A6D0132F7E71A6D43
:10BEE000012A03D19A6C1968D2B2F4E71A6D022ABA
:10BEF0002DD1222905D11A68136843F48073136089
:10BF000070475A8D92B262B121290AD15A6A1968D2
:10BF100012F8010B08615A625A8D013A92B25A85A1
:10BF200070475A8D92B292B9212910D11968486888
:10BF300020F4E0604860086840F400700860202148
:10BF40001A6383F83D1083F83E20FFF709BF70475E
:10BF50005016002010B54F4C94F83D3094F83E2018
:10BF6000DBB2102AD1B201D0402915D1222B13D136
:10BF700021680A6822F400620A602268526812F49A
:10BF8000006206D1602B1EBF202384F83D3084F868
:10BF90003E200023236307E003F02802282AECD187
:10BFA0000023236384F83D2023685A6812F400625A
:10BFB0004CD05A6822F400625A60606B90F82130CD
:10BFC000012B354B28D04363FCF718FA50B1226897
:10BFD000136823F0010313602023606B84F83D3065
:10BFE000436B9847236C19071FBF2268536823F4DB
:10BFF000E063536094F83D30226CDBB252070AD5FF
:10C00000282B08D1254B2022E3620023236384F8E8
:10C010003D2084F83E3010BDA06B4363FCF7EEF981
:10C020000028DFD023685A69510605D51A69636A6A
:10C030001A70636A013363622268136823F0010394
:10C0400013602023A06B84F83D30C9E794F83D10BD
:10C05000602914D1202184F83D1022645A695206C7
:10C0600005D51A69636A1A70636A013363622268CC
:10C07000136823F001031360FFF772FEB2E75A69F9
:10C080005006F9D51A69636A1A70636A01336362EC
:10C09000F2E700BF50160020F5BD00080000FFFFCA
:10C0A00070B5844C8EB023685A68E66A94F83E10E6
:10C0B00094F83D001029CDB2C0B202D0402D40F01E
:10C0C000E1829869596911F0010F07D1B6F52A0F7D
:10C0D00002D0B6F12A4F50D10EB070BD96054CD5A6
:10C0E000E26AB2F52A0F0CD10122E26294F83E20F6
:10C0F000402A11D1226D52B9626C02F0FE021A611F
:10C10000EAE7E26AB2F12A4FF0D10822EDE7626C69
:10C1100042F00102D2B2F2E72269B2F5804F19D1A2
:10C1200094F83D20212A626C16BF42F0010202F011
:10C13000FE02D2B21A61626B0AB1926A2AB9A26B8C
:10C14000002AC9D0926A002AC6D05A6842F4006216
:10C150005A60C1E7226D32B9626CD21102F0060258
:10C1600042F0F002CBE7226D012AB5D1626CD21108
:10C1700002F0060242F0F102C1E70E070ED5960565
:10C180000CD5626CD2B21A61626B12B9A16B002934
:10C19000A2D0926A002AD8D1A26BD3E78E0740F1D1
:10C1A000F680960540F1F38094F83E10E26A256B24
:10C1B00094F83D00C9B2222840F0E180206D40B9DA
:10C1C000402906D10B905A690B929B690B930B9BEC
:10C1D00082E7216D89B92069B0F5404F0DD10A91F0
:10C1E0005A690A929A690A920A9A1A6842F4807203
:10C1F0001A60236D013323656EE7618D89B251B9F1
:10C2000009915A6909929A690992099A1A6842F43D
:10C2100000721A6019E0618D89B201294ED112F5C0
:10C22000803F1BD11A6822F480621A605A6812F4A7
:10C2300000620CD01A6822F480621A600022089210
:10C240005A6908929B690893089B0023D3E70792D9
:10C250005A6907929A690792079AD7E7082A1DD068
:10C26000202A1BD0122D0ED1012A17D11A6822F4D0
:10C2700080621A600023069323685A6906929B69BC
:10C280000693069BE1E7102AF0D80B4921FA02F247
:10C29000D507EBD51A6842F48062EAE71A6822F4FF
:10C2A00080621A60002205925A6905929A69059285
:10C2B000059AABE75016002014000100618D89B289
:10C2C000022939D1102A03D89049D140C80719D47E
:10C2D000196841F4006119600021049159690491C1
:10C2E000996904910499196821F48061196023689F
:10C2F00059680905A9D5202A1BD8072A0ED8012A72
:10C30000A3D111E0196841F4806119600021039103
:10C31000596903919B690393039BE8E7A2F1080124
:10C320007B4ACA40D20790D55A6842F480525A607C
:10C330008BE712F5803FE3E7196841F480611960EB
:10C3400059680E0505D5202A16D8072A09D8012ACA
:10C350000DD0002202925A6902929B690293029BBD
:10C3600073E7A2F108016A4ACA40D507F1D55A68B5
:10C3700042F480525A60ECE712F5803FE8E7002271
:10C3800001925A6901929B690193019BA4E610F006
:10C39000040F586800F0918000053FF59DAE0E0631
:10C3A00001F0040050D551054ED500284FD194F826
:10C3B0003D20258D94F83E10D2B2E06AC9B25DBB33
:10C3C000212A2BD1082815D0202813D010F5803F22
:10C3D00010D05A6822F4E0625A60112323630023CC
:10C3E00084F83E30202384F83D300EB0BDE8704024
:10C3F000FFF7B6BC5A6822F4E0625A601A6842F449
:10C4000000721A6020220023236384F83D2094F8F0
:10C410003E2084F83E30E8E7212A05D040297FF409
:10C420005BAE222A7FF458AE628D92B21AB95A6876
:10C4300022F480628CE694F83E20402A15D10EB09A
:10C44000BDE87040FFF734BD00283FF445AE9205CB
:10C450007FF542AE102DF2D1E16A94F83D20212AF9
:10C460007FF43AAE628D92B24AB1626A12F8011B51
:10C4700019616262638D013B9BB263852CE60829DA
:10C480000DD020290BD011F5803F08D0596821F438
:10C49000E06159601123236384F83E20A2E75A68C3
:10C4A00022F4E0625A601A6842F400721A600023B3
:10C4B0002022236384F83D20ABE706053FF50CAE50
:10C4C0004D0601F0040074D5510572D5002873D1D2
:10C4D00094F83D20222A7FF4FFAD628D92B2032AA8
:10C4E00018D91A69636A1A70636A01336362638DCB
:10C4F000013B9BB26385638D9BB2032B7FF4ECAD54
:10C500002268536823F480635360E5E5140001005A
:10C5100001010001E16A02293FF4DEAD012A3FF684
:10C52000DBAD46F2A811664A0C901268B2FBF1F23C
:10C5300002EB82020C920C9A013A0C920C99B9B956
:10C54000226C42F0200222645A6822F4E0625A60AF
:10C550001A69636A1A70636A01336362638D013B0F
:10C560009BB26385202384F83D3084F83E103CE77D
:10C570001A6812F40072DED1196821F48061196022
:10C58000596821F4E06159601969636A1970636A36
:10C5900001336362638D013B9BB26385202384F882
:10C5A0003D3094F83E3084F83E20402B68D1226321
:10C5B0001BE700283FF490AD92057FF58DADE26A50
:10C5C000618D89B204290AD15A6822F480625A60C6
:10C5D0001A69636A1A70636A013363624AE7618D9C
:10C5E00089B203290CD15968042A21F48061596069
:10C5F000EED0022AECD01A6822F480621A60E7E7D3
:10C60000618D89B20229E3D1042A35D007D8012AE5
:10C6100007D0022A30D01A6842F4007204E0102ACF
:10C62000F9D11A6822F480621A6023681A69636A71
:10C630001A70626A531C6362638D013B9BB263850F
:10C6400023681B695370636A226801336362638DD8
:10C65000013B9BB26385536823F4407353602023EE
:10C6600084F83D3094F83E30402B4FF0000384F8BE
:10C670003E3005D12363B8E61A6842F48062D3E7FE
:10C680001223F7E7216CC9B159698E071AD59505B0
:10C6900018D5226C02B19A6994F83D20002102F06D
:10C6A0002802282A15BF6FF002025A685A6122F444
:10C6B000806208BF5A6084F83C100DE59969E3E791
:10C6C0004C000020CE0640F1A080950540F19D80F1
:10C6D00094F83D505A68EDB222F4E0625A600022AC
:10C6E0000D925A690D921A6842F001021A600D9A71
:10C6F0001A6822F480621A605A68120520D505F083
:10C70000F702222A49D1A16B0A68526892B2628567
:10C71000628D92B21AB1226C42F0040222645A680D
:10C7200022F400625A6091F82130012B08D0A06BEE
:10C730006C4B4363FBF762FE10B1A06B436B9847F1
:10C74000638D9BB213B323685A69560709D51A69DA
:10C75000636A1A70636A01336362638D013B9BB243
:10C76000638523685A69500609D51A69636A1A7085
:10C77000636A01336362638D013B9BB26385638DA2
:10C780009BB21BB1236C43F004032364236C0BB3F3
:10C790000EB0BDE87040FFF7DDBB616B0A68526800
:10C7A00092B26285628D92B21AB1226C42F004029A
:10C7B00022645A6822F400625A6091F82130012BF9
:10C7C000BED0606B474B4363FBF718FE0028B7D021
:10C7D000606BB3E72A2D02BF2363282384F83D3022
:10C7E00094F83D30282B09D13F4BE36200232022EF
:10C7F000236384F83D2084F83E306DE4236B222BC4
:10C80000F4D0222D7FF468ACF0E700F0F700212887
:10C8100001F0040532D1090624D5560522D525BBE1
:10C8200094F83D10628DC9B292B2002A3FF454AC24
:10C83000626A12F8015B1D616262628D013A92B216
:10C840006285628D92B2002A7FF446AC29297FF47A
:10C8500043AC5A6822F480625A602063282384F82B
:10C860003D3039E4002D3FF437AC95057FF534AC0D
:10C87000628D92B2002A3FF42FACF6E5480624D52B
:10C88000510522D525BB94F83D20618DD2B289B2E5
:10C8900000293FF421AC1969636A1970636A013396
:10C8A0006362638D013B9BB26385638D9BB2002BFA
:10C8B0007FF412AC2A2A7FF40FAC2268536823F469
:10C8C0008063536022232363C8E7002D3FF404AC48
:10C8D00092057FF501AC628D92B2002A3FF4FCAB69
:10C8E00076E600BFF5BD00080000FFFFF0B4474A40
:10C8F00013685C69586892F83E5014F48071EDB288
:10C900000AD010F4807107D06FF4807159611968F2
:10C9100041F4004119600121A70506D5C60542BFB3
:10C920006FF4007641F002015E61670533D5C605FC
:10C9300031D5578D92F83D60202DD2F830C0BFB26E
:10C94000F6B252D1002F50D106F0F707212F04D0B4
:10C95000282E4AD1BCF1210F47D192F83D50D66A1A
:10C96000EDB2082E01D0202E24D1282D22D1284D21
:10C970002026D5625D6825F4E0655D606FF4806512
:10C980005D611D6825F480651D600025156382F8D2
:10C990003D6082F83E50240534D5C00532D56FF491
:10C9A000006041F008015861136CF0BC0B43136444
:10C9B000FFF7D0BA212D14D1154ED662156320256C
:10C9C00082F83D50002582F83E505D6825F4E06510
:10C9D0005D606FF480655D611D6825F480651D6094
:10C9E000D9E76FF480655D61D5E76FF48066102D3F
:10C9F0005E6141F0040101D0402DCCD11D6845F4A9
:10CA00000075ECE70029CFD1F0BC7047501600202C
:10CA10000000FFFFF8B50F4D0F4EFEF733F82C68FE
:10CA20000768336842689F4201D0944210D20B6875
:10CA3000A71A9F420AD21B1B13440B603368036082
:10CA40002B6843600020FEF737F8F8BD00230B6029
:10CA50000120F8E7F8340020D8340020054B1B688B
:10CA600033B1054B1868B0FA80F0400940007047B8
:10CA700001207047F43400203430002008B5FFF75F
:10CA8000EDFF012813D04FF0500383F31188BFF35B
:10CA90006F8FBFF34F8FFEF773FC28B14FF0E02389
:10CAA0004FF08052C3F8042D002383F3118808BD92
:10CAB0002DE9FF470446019140B94FF0500383F33D
:10CAC0001188BFF36F8FBFF34F8FFEE7056C45B141
:10CAD0004FF0500383F31188BFF36F8FBFF34F8F75
:10CAE000FEE7FFF7BBFF50B9019B63B14FF0500366
:10CAF00083F31188BFF36F8FBFF34F8FFEE7284694
:10CB00009A4F9B4E97E00546FAE7019B5BB9002DD3
:10CB100000F027814FF0500383F31188BFF36F8F2C
:10CB2000BFF34F8FFEE720B93B680293914B1B6820
:10CB30000393FDF7C1FFFEF739FFFDF7A3FF94F85C
:10CB4000443001A9FF2B04BF002384F8443094F83B
:10CB5000453002A8FF2B04BF002384F84530FDF7C1
:10CB6000ABFFFFF757FF002840F09C80FDF78AFFDE
:10CB7000A36B002B57D1FDF79FFF2368002B3CD1FF
:10CB8000FDF780FFA568002D34D03368D5F82CA0C0
:10CB9000DB6A9A457ED2AB69DFF8DC81002BA8BF47
:10CBA00033686A69A2BFDB6AC3F10603AB61142371
:10CBB00003FB0A839A4269D105F104094846FEF74E
:10CBC0005EFB6E4B30B901211A6801FA0AF122EAC4
:10CBD00001021A6032681968D26AEA62012505FA10
:10CBE00002F0084318601420494600FB0280FEF75B
:10CBF00033FA0120FDF760FF0546019904F1240096
:10CC0000FFF71EF82046FFF769F8FEF7D7FE88B950
:10CC10004FF0E0234FF08052C3F8042DBFF34F8F45
:10CC2000BFF36F8F06E02046FDF746FFFFF756F88B
:10CC3000FEF7C4FE0120FDF725FFA36B002B3FF498
:10CC400064AF013BA363236843B9494B1A681AB127
:10CC500019688A6D01328A651B68A360236973B104
:10CC600004F11000FEF7FAFF48B14FF0E0234FF057
:10CC70008052C3F8042DBFF34F8FBFF36F8FFDF7C2
:10CC80001BFF0125284604B0BDE8F0873368DB6A46
:10CC9000EB62AEE73368686DDB6A98422CBF002018
:10CCA0000120A7E72046FFF719F8FEF787FEFDF7FA
:10CCB000E9FEA36B13B1FDF7FFFEBBE7FDF7FCFE3A
:10CCC000002DDFD0FDF7DEFE656A1DB1236B1D6808
:10CCD000C5F10605A468002C43D0A26D42B94FF0FF
:10CCE000500383F31188BFF36F8FBFF34F8FFEE7BD
:10CCF000636D9D4238BF1D46E36A9D4231D0012AD3
:10CD00002FD11B4A1268944208D14FF0500383F38D
:10CD10001188BFF36F8FBFF34F8FFEE7A269164EE6
:10CD2000002AA4BFC5F10602A261142202FB03631C
:10CD30006269E5629A4214D104342046FEF79FFAF4
:10CD400001220E4BAA4018B9196821EA02011960A4
:10CD50001420196800FB05600A4321461A60FEF79B
:10CD60007BF9FDF7A9FE00258CE700BFD834002031
:10CD7000F8180020F8340020041900203C3000206E
:10CD800008B5064B1A6802B900BE64211868FFF79F
:10CD90008FFE431E5842584108BD00BF14130020A7
:10CDA00038B505460C46FFF7EBFFB8B17820FBF726
:10CDB000D7FDFBF713FE28B9FBF7F4FDBDE83840BB
:10CDC000FDF73CBE013D15F8010FFBF707FE0028FB
:10CDD000F2D0013CA4B2002CF5D1EDE738BD000043
:10CDE000D1210148FFF7DCBF6811002038B50546A6
:10CDF0000C46FDF779FC2846FBF7E8FEFFF7F0FF4D
:10CE00002046BDE83840FEF771BE00002DE9F84F1E
:10CE10000024724B724E2746D6F800901C60FCF737
:10CE20005BFAB0EB040818BF4FF00108A2466D4B47
:10CE3000A3F800A06C4BA3F800A0FDF755FCFCF78D
:10CE40004BFA002800F0B380D6F80090B8F1000F3C
:10CE500002D00024002332E001380F28FAD801A3C1
:10CE600053F820F0A9CF00088BCF000855CE00085A
:10CE700095CF000855CE000855CE000855CE0008C5
:10CE8000A5CE000855CE000855CE000855CE0008A6
:10CE900055CE000855CE000855CE000855CE0008E6
:10CEA000D7CF00083268E31B1344B3F5967FD1D97E
:10CEB0004E4B1B8F5B42213437681BB2E4B24B4DA3
:10CEC000C4F59672632AEA8E98BFC82492B20AB15A
:10CED0005B421BB2DBB1A98883EAE372A2EBE37287
:10CEE000194409B213B291FBF3F151436B8C09B2AF
:10CEF0009BB2002B5ED03C29B8BF3C21B1F5257F09
:10CF0000A8BF4FF42571002089B2FBF739FC3368C4
:10CF1000A3EB0903B3F5FA6F5DD8354B012193F804
:10CF200000B0EB8E9BB2BBF1000F4CD03148324ABF
:10CF3000002B08BF1046FBF72FFE01212F48FBF7FF
:10CF40002BFE0123A8881A46032180B2FBF78CFF31
:10CF50006B8C9BB2002B39D00020FCF71BF9012110
:10CF60002648FBF719FEEB8E01219BB2BBF1000FA7
:10CF70002ED021481F4A002B08BF1046FBF70CFE9D
:10CF8000FFF72EFFFEF7AEFD51E7184B5B8F5B42BC
:10CF90001BB294E73268E31B1344B3F5967F7FF628
:10CFA00059AF124B1B8F86E7104B5B8FF0E704469F
:10CFB00080464FE70A29B8BF0A21B1F5AF7FA8BF65
:10CFC0004FF4AF719FE70C480A4AB1E70120C4E76C
:10CFD0000848094ACFE7BDE8F88F00BFB814002021
:10CFE000F83400200E13002010130020A819002090
:10CFF0004C120020880401088A0401083105010848
:10D000002DE9F74F002869D0B84DB9496B8C9BB218
:10D01000002B00F08B80022800F08680EA88AB8825
:10D0200092B29BB2934228BF13461F2B7CD9092290
:10D0300003EB8303A03BB3FBF2F30B60688C80B27D
:10D0400000287DD00020FCF705FD052300EBC00083
:10D05000B0FBF3F42034A4B20026FDF745FBA54B4A
:10D060002F8CDFF894B2DFF894A2D3F80090A44B91
:10D07000BFB2D3F80080ABF80060AAF80060002FC0
:10D0800064D0B9F80C0031464044FBF785FD082315
:10D09000B9F80E0031464044AAF80030ABF8006001
:10D0A000FBF77AFD0321012332462046FBF7DCFE25
:10D0B000698C89B2002947D031469248FBF76CFD54
:10D0C00000219148FBF768FDFCF7C2FA00218F4868
:10D0D000FBF762FDFFF784FEFEF704FD00263546F0
:10D0E000824CDFF81CA2FCF7F7F8002E00F0BE809F
:10D0F000E38C9BB2002B00F0B98010283BD810289D
:10D100003CD8DFE810F0DD00280128013B001D01BC
:10D110003B003B003B0028013B003B003B003B0049
:10D120003B003B003B002801002386E7022884D017
:10D13000EA88AB8892B29BB2934228BF13467CE741
:10D14000FCF788FC84B287E77148B7E7B9F80A00B2
:10D1500001214044FBF720FD012303211A4620460C
:10D16000FBF782FE6B8C9BB21BB13846FCF712F8C2
:10D17000B0E70120FAE7202800F0D680FDF7B4FAE6
:10D18000238C644A9BB292F800B0DFF86C815B4F4D
:10D19000DFF88491002B00F0FB80BBF1000F14BF7F
:10D1A00032234FF0FF3300210120A8F800303980EE
:10D1B000FCF762FE65B1BBF1000F14BF26233723D5
:10D1C000A8F800300823002154483B80FBF7E4FC1A
:10D1D0000A22D9F80000BBF1000F0CBF4323002343
:10D1E0004FF0000BB0FBF2F002215A460193A8F871
:10D1F000003080B20123A7F800B0FBF735FE594696
:10D200004748FBF7C9FC0A22D9F80000B0FBF2F34B
:10D2100002FB130001235A46194680B2FBF724FE95
:10D2200059464048FBF7B8FC019BA8F8003008239A
:10D230003B80FCF70DFA59463448FBF7ADFCFFF78D
:10D24000CFFD638C2A4F9BB2002D00F0F480002BA1
:10D2500000F0EE80238E9BB21F2B40F2D380092278
:10D2600003EB8303A03BB3FBF2F3CCE0102829D8F7
:10D27000102883D801A353F820F000BFC1D20008C2
:10D2800079D3000879D300087DD100086DD3000858
:10D290007DD100087DD100087DD100082BD4000885
:10D2A0007DD100087DD100087DD100087DD1000826
:10D2B0007DD100087DD100087DD100082BD4000865
:10D2C00000255BE720287FF459AFE38C9BB2002B4D
:10D2D0003FF454AF074BDAF800001B684FF47A7143
:10D2E0001B8B01261844FFF781FD47E7A819002092
:10D2F000B8140020581100200E1300201013002035
:10D300005C11002080040108310501088C0401082B
:10D31000D30401084C120020443000208804010886
:10D320008604010884040108634BDAF800001B68D6
:10D330004FF47A715B8B00261844FFF757FD1DE709
:10D34000238E9BB2002B3FF419AFE38C9BB2012BD1
:10D3500008BF354612E7584BDAF800001B684FF457
:10D36000FA719B8B1844FFF741FD07E7238E9BB2B0
:10D37000002B18BF012501E7A788FFF747FDA38809
:10D38000BFB29BB2BB423FF4F9AEFDF7A1FAF5E69E
:10D39000A8F800303B80BBF1000F19D0FCF77CF9F6
:10D3A00046480121FBF7F8FB0120FCF765FD55B16C
:10D3B0000220FBF7EFFE0021D9F80000FCF7C4F9CA
:10D3C000FBF74AFF3BE701213C48FBF7E5FBF2E7AF
:10D3D0005946D9F80000FCF7B7F9FBF73DFF65B1F6
:10D3E0000220FBF7D7FE0120FCF746FD0121334860
:10D3F000FBF7D2FBFCF750F921E701212F48FBF79F
:10D40000CBFBF0E700233B60638A9BB2C3B12C4B9C
:10D410001A6842F210739A4212D92A4B1B689B1A5F
:10D42000B3F57A7F0CD200233B6003B0BDE8F08FE8
:10D43000238E9BB2E7E70BB1A3880CE7A388F8E73C
:10D44000638B9BB263B11E4B196849B11D4B1A68BF
:10D45000638B521A4EF660219BB24B439A42E2D83C
:10D46000FBF73AFF0828DED00020D7F80080FCF751
:10D47000F1FA08F10A08A8EB0008B8F1140F01D975
:10D48000022000E00320DFF84080FCF73DFC98F824
:10D49000003073B10024084B0C4A1B681068DB8B0A
:10D4A00042F2107118443C60FFF7A0FC88F800407D
:10D4B000BBE7FEF717FB16E65811002031050108FF
:10D4C0008C170020F83400204C1600205C1100203E
:10D4D000002373B500934FF6FF7304460C4EADF86E
:10D4E0000430214668463268FDF706F90546FBF729
:10D4F000F3FE38B9002DF4D0FFF772FC2820FEF7B8
:10D50000D3FAEEE7431E5842584102B070BD00BF47
:10D51000F834002038B50D4B1D680D4B68881C6829
:10D520002044FFF7D5FF70B1FF215022094802F0D7
:10D5300033FFFDF735FAFDF7CBF9688A42F2107137
:10D540002044FFF753FC002038BD00BF58110020D5
:10D550005C110020A81900202DE9F0472A4B2B4A26
:10D560001B6810681B881844FFF7B2FF002841D0E1
:10D57000274E284F0025A9460120FCF705F8002476
:10D58000DFF894808144FDF7AFF8012138463480FC
:10D59000A8F80040FBF700FBC5F3850AE3B29A4503
:10D5A0002BD8FFF71DFC01356420FEF77DFA102D06
:10D5B000E2D10121C9F30F10FBF784FF84B2002CE4
:10D5C000D8D021461720FBF7DBF8FDF78DF80023B4
:10D5D00028463380A8F80030FBF7DCFD0123204605
:10D5E0001A460421FBF740FCFFF7FAFB4FF4966064
:10D5F000FEF75AFA0020BDE8F08701213846FBF714
:10D60000CBFA0134CAE700BF581100205C1100209A
:10D610000E13002086040108101300202DE9F047A6
:10D62000FDF762F8364E4FF00008364C364FE08D6D
:10D63000414680B24FF00A0AA6F80080A7F80080A1
:10D64000FBF7C6FF0123B0FBFAF905461A46022193
:10D650001FFA89F0FBF708FC01212C48FBF79CFA24
:10D6600001220AFB19501146434680B2FBF7FCFB2E
:10D6700001212748FBF790FAFBF72EFE082809D86E
:10D6800010B3013807281FD8DFE800F01B241E065E
:10D690001E1E1E06102817D1FDF71AF901230025BA
:10D6A000E08D1A46032180B235803D80FBF7DCFB1C
:10D6B000FFF796FB4FF47A70FEF718FA2846BDE89C
:10D6C000F0871520FBF7A8F8FFF78AFB2820FEF764
:10D6D000EBF9A8E7E38D9BB2B3F5B47F04D14FF427
:10D6E0006173E385E38DEFE7E38D9BB2B3F5B57F1F
:10D6F00029BFE38D4FF4B47303F1FF339BB2F0E71E
:10D700000E130020A8190020101300208604010821
:10D710008C0401082DE9F04F00242F4B85B01A68C6
:10D72000019002921A6802994FF4FA70A2EB010B71
:10D73000642202FB0BF1B1FBF0F1C9B22546C1F145
:10D74000960449434C4341F2883194FBF1F4602143
:10D75000E4B24C43B4FBF2F4E4B28C4228BF0C4672
:10D760000A1B019989BB2646DDF80480D7B21B4B02
:10D770000392D3F800A00AEB05010AEB060002F0C1
:10D7800021FE1749039AD1F8009009EB050109EB36
:10D79000060002F017FE134B2246D9190AEB0800C7
:10D7A00002F010FE104B2246D91909EB080002F0D6
:10D7B00009FEFFF715FB1420FEF776F9BBF5FA7F9B
:10D7C000054BAFD905B0BDE8F08F0026651B374685
:10D7D000EDB25FFA82F8CAE7F83400204412002064
:10D7E000481200204D120020AD12002070B50646F0
:10D7F0000D46FFF7C5FA0446E0B17820FBF7B0F814
:10D80000FBF7ECF8044618B9FBF7CCF800BE0FE0C4
:10D810003046FBF7E3F804460028F5D02846FBF72E
:10D8200097FEFBF7DBF804460028EDD0FBF7BAF8CB
:10D83000FDF704F9204670BD13B50021124B0846D0
:10D84000009318221023FBF707F952220F4B104CBC
:10D850001A800022B4F846000E4B80B2801A18BF1E
:10D8600001201A80FBF799FCB4F8463080209BB267
:10D87000002B14BFA721A621074B83F8401002B04C
:10D88000BDE81040FFF7B2BF5D0E01080E13002087
:10D89000A819002010130020000000202DE9F04FEF
:10D8A00000240125984B95B01D7009908DF82E40ED
:10D8B0008DF82D40FAF74EFF4FF6FF732646A1462E
:10D8C000CDE90C54DFF84482DFF844B20390ADF8A0
:10D8D0003830049402940595019414239DF82E5039
:10D8E0006B430693069A099B03EB020A0793DAF847
:10D8F000083013B19DF82D3013B115B0BDE8F08F8D
:10D900000C9F8DF82F30002F66D08249824A834BBE
:10D91000116060311960DAF80C1089B188477E4ACD
:10D920007E4B68B9019901350131C9B201917C4939
:10D93000029F116060318DF82E5019600297CCE77C
:10D940000121784B022F197004D1754B7349136074
:10D9500060330B600021744B1980744B1980FCF705
:10D96000C3FEDAF808309847022F4FF000016A4AE8
:10D9700040F08880ADF843104FF40651ADF83C10EC
:10D9800080218DF83E108DF840104021684B0FA883
:10D99000DA798DF8421009218DF83F208DF8412069
:10D9A000FFF7FEF9624B5F7BBA1C02F007025A7365
:10D9B0000132DA73FF00FFF713FAFFB21420FEF70B
:10D9C00073F87B1C1037DBB2FFB29F42594A49D231
:10D9D0000023544A0C931370DBF80020D8F8003071
:10D9E0009B1A40F6B732934257D9DDE90623995C7A
:10D9F000002952D0504BD8F800201B680DA803EB2B
:10DA000041034E49B3F8423009681944FCF774FEEB
:10DA1000059B03B920B1FFF7E3F92820FEF744F88E
:10DA2000FBF75AFC029B0746834218BF00260DF104
:10DA30002F030F9309AB10930DF12E0311930DF1EA
:10DA40002D03129308280CAB139351D800287DD0D6
:10DA5000431E0022072B79D8DFE803F0729B78A5DC
:10DA6000787878C003F03F0141F040015176802082
:10DA70000893FFF7BBFE1420FEF716F8089B01334E
:10DA8000DBB2A2E7264B1360244A603313607B1E8F
:10DA900058425841FFF73EFE9AE70027224B1F806D
:10DAA000224B1F80FCF720FEDAF80830984714B1AB
:10DAB000049BDBB104971022039B0399B2FBF3F2A2
:10DAC00001239340019A013BAA1A120192FBF1F241
:10DAD0009BB2D2B29340104A126882F85F300F4A6C
