:020000040800F2
:1040000000500020514100089941000899410008E2
:1040100099410008994100089941000800000000FA
:10402000000000000000000000000000C16F000858
:104030009941000800000000F16F0008B9770008FE
:1040400099410008994100089941000899410008E8
:1040500099410008994100089941000899410008D8
:10406000994100089941000899410008296F00080A
:1040700099410008994100089941000899410008B8
:10408000596F0008656F00084574000899410008E1
:10409000994100089941000899410008C575000838
:1040A00099410008356F00089941000899410008BE
:1040B0004D6F0008416F000899410008A97A000877
:1040C0003D7F000899410008994100089941000886
:1040D0009941000899410008994100089941000858
:1040E000994100089941000899410008000000002A
:1040F00000000000000000000000000000000000C0
:0C41000000000000000000005FF8E0F18B
:1041100010B5054C237833B9044B13B10448AFF301
:1041200000800123237010BD680000200000000003
:104130003CC8000808B5034B1BB103490348AFF363
:10414000008008BD000000006C0000203CC8000892
:10415000002103E00B4B5B58435004310A480B4BE2
:1041600042189A42F6D30A4A02E00023136004324E
:10417000084B9A42F9D302F0FBFE08F00BFB05F066
:104180005FFEFEE750EE0008000000206400002003
:1041900068000020D0420020FEE70000034A013002
:1041A000116813685B1A8342FBD37047003E0020FE
:1041B000436A9A6A12F0500F18D19A6A42F4007258
:1041C0009A621A68926802F46022B2F5602F10D1E8
:1041D000DA6872B99A6A22F480729A629A6AD20490
:1041E00007D49A6A42F001029A6270471B6A1B6BFD
:1041F000184770470422F0B4C66B016C3568036839
:1042000002FA01F72F421C6828D0670726D53C49DF
:104210008B4216D03B4A934215D01432934214D0AD
:104220001432934214D01432934214D01432934275
:104230000CBF4FF480034FF08063334A5360F0BCEF
:1042400070471346F9E74023F7E74FF48063F4E73C
:104250004FF48043F1E74FF48023EEE702228A40D7
:104260002A4238D0A70736D51A68910606D41A68AC
:1042700022F00A021A60012280F82120204A93428B
:104280001CD0143293421BD0143293421AD01432F1
:1042900093421AD0143293421AD0143293420CBF74
:1042A0004FF400134FF00073174A5360002380F857
:1042B0002030836A002BC2D0F0BC18470223F3E7FA
:1042C0002023F1E74FF40073EEE74FF40053EBE7E0
:1042D0004FF40033E8E708228A402A42AFD0220791
:1042E000ADD51A6822F00E021A60012303FA01F11B
:1042F000716083634FF480730384036BDAE700BF5C
:10430000080002401C0002400000024008B503689B
:104310001A6822F00E021A601A6822F001021A606E
:10432000164A93421CD0143293421BD0143293424B
:104330001AD0143293421AD0143293421AD0143243
:1043400093420CBF4FF480134FF080730C4A5360BC
:104350004FF480730384436B03B19847002008BD7A
:104360000123F3E71023F1E74FF48073EEE74FF4F6
:104370008053EBE74FF48033E8E700BF08000240CA
:1043800000000240FEE7000006480068006880F375
:10439000088862B661B6BFF34F8FBFF36F8F00DF3F
:1043A00000BF000008ED00E008B9064B1868026B7A
:1043B0000020135CA52B02D0C0F38F0070470130A2
:1043C000F7E700BFA82F0020064A13681968064BBC
:1043D00019B94FF0FF321A6070471268D26812683C
:1043E000F9E700BFAC2F0020A442002030B50C68D4
:1043F000631C0AD103695A684A6091608B605960F6
:10440000036808610133036030BD00F10802134600
:1044100052681568A542FAD9EDE7000000231A4654
:10442000074911F8010B03FB00220133D12BF8D10E
:10443000044B18681A60801A18BF0120704700BF2B
:10444000AD270020902800202923F0B51048114DF9
:10445000114A124E124C13499F5D05F8017B1F5DF6
:1044600000F8017B5F5C013B02F8017BF4D253232F
:104470000D4D0E480E4AF75C05F8017BE75C00F82D
:10448000017BCF5C013B292B02F8017BF3D1F0BD0E
:10449000AB2A0020572A0020042B0020B4EA000891
:1044A00008EB000884CE0008812A0020D52A0020CD
:1044B0002E2B00200A4B588A80B278B1188980B21E
:1044C00060B11A89188992B2052A94BF42F210731A
:1044D0004EF6602380B288BF05385843704700BF4E
:1044E0003030002038B5134A538A9BB20BB90020F4
:1044F00038BD13899BB2002BF9D00F4A0F4B1468BB
:104500001B6844EA030288B1002AF1D00C4D2968E7
:10451000C91AFFF7CFFF8142E9D92868041BFFF7CA
:10452000C9FF844294BF00200120E1E7002ADED0C9
:10453000ECE700BF30300020D02D0020002E0020FE
:10454000C842002070470000084B33F8302003EBCE
:10455000C00391425B8803D399420A4628BF1A469A
:10456000034B03EB40039A80704700BFEED0000876
:104570003030002070B5114B114C33F8306003EB34
:10458000C00359889A8804EB40034500988880B29C
:10459000884207D19E802C44A08880B2431A58429A
:1045A000584170BD98888E1A80B2B042B7BF9888C3
:1045B0009980121892B2B8BF9A80ECE7EED000084A
:1045C0003030002008B5144B198E5B8C89B29BB239
:1045D0009BB179B140F25133143189B2994288BF0D
:1045E00000211620FFF7B0FFB1F5527F34BF002045
:1045F000012008BD4FF4F071F3E759B10A3189B2D7
:10460000B1F5E17F88BF00211620FFF79DFFB1F5CE
:10461000E17FEBE7FA21F7E730300020034B588ABF
:1046200080B2003818BF0120704700BF3030002032
:1046300008B5104BD9885B8C89B29BB273B1143129
:1046400089B2B1F5117F88BF3C210120FFF77CFFC3
:10465000B1F5117F14BF0020012008BD0A3189B2D5
:10466000B1F5967F88BF0A210120FFF76DFFB1F5F4
:10467000967FEFE73030002070B50F20FFF77AFF0C
:1046800005462748018E8288C388408C89B280B253
:1046900092B29BB280B3052001EBC10102EBC206CE
:1046A000A031A03603EBC304B1FBF0F1B6FBF0F68A
:1046B000A034B4FBF0F489B2B6B20A23B1FBF3F133
:1046C000B6FBF3F6A4B2B4FBF3F401EB81014900AD
:1046D000162089B2FFF738FF06EB8601490000205B
:1046E00089B2FFF731FF04EB84014900012089B250
:1046F000FFF72AFF284670BD09202039203A01EB38
:10470000810102EB820291FBF0F192FBF0F6203B7B
:1047100003EB830393FBF0F489B2B6B2CDE700BF9D
:1047200030300020034BD88A80B2003818BF0120F7
:10473000704700BF30300020034B188D80B2003826
:1047400018BF0120704700BF303000207047F8B517
:10475000002506462C461427EBB207FB03639A6834
:104760000AB92046F8BDDB6813B90134E4B202E0AF
:1047700098470028F9D10135EEE7000038B500234D
:104780000122104D04462B7003681A70D0E90131E4
:10479000142009781B6800FB0133187C262809D8EF
:1047A000FFF7E8FE2B7813B1032223691A60012377
:1047B0002B7038BD586808B18047F3E7E3681A707A
:1047C000F0E700BF202A002010B5214A93689068C6
:1047D00083F00203C0434000C3F3400300F0020033
:1047E00018431FBF1B4B1A681B4B1A601B4A1378D8
:1047F000834212D180B1174B194A1B6812689B1A69
:10480000B3F5C87F20D30122164B90421A701DD0F9
:1048100002280CBF0820202010BD38B1034300201F
:1048200013700C4B1A680E4B1A60F5E70D490C78A3
:1048300044B9012B02D0022B18BF1023107008704E
:104840001846EEE70346F9E70020E5E70420E3E732
:10485000000C0140C8420020D02D0020092A002071
:104860000C2A0020082A002048F2E8035843642359
:10487000C00B58435B23B0FBF3F0084B5A8E92B247
:1048800042B139B95A8E92B282422FBF08465B8E2E
:104890009BB2C01A024B1860704700BF3030002036
:1048A000042E002038B50021FFF7DEFFB0B1012251
:1048B000154B53F83210D400884210DA23444FF4D9
:1048C0007A7453E90252401B6043491B90FBF1F09C
:1048D0005B689B1A584390FBF4F0104438BD0132DA
:1048E000322AE6D14FF47A734FF43C72A0F51240AD
:1048F0000938584390FBF2F00A22504390FBF3F042
:1049000000F5F570EAE700BF5CEB0008F0B5544233
:10491000A0421E46059D134624DD602822DC0028A7
:1049200000EB0207B6BF44420024E4B2602FC4BFCC
:10493000C0F16002D2B2E9B9134F21183F6805EB0C
:10494000040C0F4421468A420DD8102E0AD1102E95
:1049500018BF00230D492344096820442B44014417
:10496000A2420AD8F0BD1CF801EB013107F801EBB7
:10497000C9B2E8E70829EAD0E7E713F8010B0134E8
:1049800001F8010BE4B2EBE7882800208C28002016
:104990000229F7B504461CD110221D4B1D491A707F
:1049A0000C221D4B1A701C4B1C4E1D78184BB6F96F
:1049B00000701B783846DA086A4304FB0211009144
:1049C00017492A4691F90010FFF7A0FFE819308037
:1049D00009E0012809D1124BB3F900201AB90F4997
:1049E0000A8008221A8003B0F0BDFCD9002915BF47
:1049F000102008200C2206220A4B0B4908BF19463A
:104A0000034B023C1870044BA4B21A70CBE700BFF2
:104A1000502A002010CC0008512A002056290020DE
:104A200058290020551E0020DB1F002038B50378D0
:104A30000446012B0D4601D11D460134237803B9EC
:104A400038BDF02B05D898B201342946FFF7A0FFF6
:104A5000F4E76278002AF3D0F03BC3EB03230F3A6C
:104A6000134498B20234F0E70B4B198B0B4B89B20D
:104A70001A680B4B02291B6807D0032908D00129AB
:104A800008D1108F1844FFF7D1BF508F0121F9E7EB
:104A9000908FFBE7D08EF9E7303000204C1E0020CD
:104AA000501E00200A4BD98C0A4B89B21A680A4B57
:104AB00001291B6805D0022908D1B2F84200012162
:104AC00001E0B2F840001844FFF7B0BFD08FF6E71E
:104AD000303000204C1E0020501E0020054B0648A0
:104AE0005B8C064A9BB20121002B08BF1046FFF7E2
:104AF0009DBF00BF303000205AC800085CC80008C5
:104B0000094B198A094B89B21A68094B01291B689C
:104B100004D0022906D1908D012100E0508D184467
:104B2000FFF784BF108DF7E7303000204C1E0020C7
:104B3000501E0020074B084A9B8C12689BB233B171
:104B4000938E064A012110681844FFF76FBF138E39
:104B5000F7E700BF303000204C1E0020501E002020
:104B60000B4BD98A0B4B89B21A680B4B02291B6875
:104B700007D0032908D0012908D1108E1844FFF767
:104B800055BF508E0121F9E7908EFBE7D08DF9E7F4
:104B9000303000204C1E0020501E0020002205490D
:104BA0000A8005490A800178012914BF11460130A5
:104BB000FFF73CBF562900205829002010B50B4BA9
:104BC0000B4A1B680C4603EB4003B3F88C301068AB
:104BD00004EB44041844FFF7E1FF0022054BA40056
:104BE000023C1C80044B1A8010BD00BF4C1E0020EC
:104BF000501E0020562900205829002037B5294B87
:104C0000294A1B68044603EB4003B3F8DE30106802
:104C10001844FFF7C3FF254AD38A9BB2022B23D047
:104C2000032B14BF4FF4FA704FF49670204B197891
:104C3000204BE1B9D18A89B2C9B119681E4DA14290
:104C40001E4902D01C602B680B602B680968928A91
:104C50005B1A92B2B3FBF0F302B30322B3FBF2F29E
:104C600002EB42029B1A0AE04FF4C870DEE78D2186
:104C70001960D38A9BB2B3FA83F35B095B006022AD
:104C8000544304EB43140E4B0021234400931023A0
:104C90004E201A46FFF73AFE03B030BD022B28BF64
:104CA0000223ECE74C1E0020501E00203030002074
:104CB000541E002054000020C8420020342A002046
:104CC000E9CE00080020FFF799BF0120FFF796BF4B
:104CD0000220FFF793BF0320FFF790BF0420FFF7E8
:104CE0008DBF37B50C4611460022042C0092ADF85A
:104CF00004208DF8062032D90A22B0FBF2F502FB1F
:104D0000150002308DF80500B5FBF2F002FB1055DE
:104D100002358DF8045080B20A25B0FBF5F205FB90
:104D2000120502358DF8035090B20A25B0FBF5F25A
:104D300005FB120502358DF8025090B20A25B0FB32
:104D4000F5F205FB120502358DF8015090B20BE02B
:104D50001578022D17D102F8010B013311E0DBD0D9
:104D6000032CE2D0012CE9D10A25B0FBF5F205FBBA
:104D7000120202328DF800202BB16A460023122065
:104D8000013CA342E4DB6846FFF750FE03B030BDB0
:104D900070B50A260C4B0221DC890123A4B2B4FBB6
:104DA000F6F51A462846FFF79CFF01210748FFF752
:104DB0003DFE012306FB1540BDE870401A4619462A
:104DC00080B2FFF78EBF00BF303000205EC8000801
:104DD000094BB3F8440080B240B9084B084A1B683D
:104DE00010689B8C01211844FFF720BE012303218A
:104DF0001A46FFF776BF00BF303000204C1E00205F
:104E0000501E0020094A138E9BB233B10123108E2D
:104E100003211A4680B2FFF764BF054B054A1B68A1
:104E200010689B8C01211844FFF700BE3030002031
:104E30004C1E0020501E0020034B0221588F0123DE
:104E400080B21A46FFF74DBF30300020034B0221DD
:104E5000188F012380B21A46FFF743BF303000207D
:104E60000122034B1146588A002380B2FFF739BF55
:104E700030300020034B0321D888012380B21A462A
:104E8000FFF72FBF3030002008B5154B1A8992B2BA
:104E900052B90121134B144A1B6810689B8C1844AB
:104EA000BDE80840FFF7C2BD1A89188992B2052AE9
:104EB0000CD8012380B200EB80004000022180B2B8
:104EC0001A46FFF70EFF01210848E9E701230538DC
:104ED000022180B21A46FFF704FF01210448DFE7F0
:104EE000303000204C1E0020501E002060C80008FA
:104EF000D9C8000808B50C4A538B9BB253B901219D
:104F00000A4B0B4A1B6810689B8C1844BDE808408C
:104F1000FFF78CBD0123508B022180B21A46FFF7A8
:104F2000E0FE01210348F1E7303000204C1E002054
:104F3000501E0020D9C8000807B5164BB3F84A2008
:104F400092B25AB90121144B144A1B6810689B8C09
:104F5000184403B05DF804EBFFF768BDB3F84A20CE
:104F600092B2052A0AD10E4B182200930021102379
:104F70004620FFF7CBFC03B05DF804FBB3F84A0012
:104F80000123022180B21A46FFF7ABFE012105483A
:104F9000DFE700BF303000204C1E0020501E0020F4
:104FA000D0CA000860C8000808B50C4A938E9BB2AE
:104FB00053B901210A4B0B4A1B6810689B8C18449B
:104FC000BDE80840FFF732BD0123908E032180B277
:104FD0001A46FFF786FE01210348F1E73030002032
:104FE0004C1E0020501E002062C8000870B5154DF0
:104FF0002B8D9BB2DBB101230A24288D1A4680B287
:105000001946B0FBF4F0FFF76CFE01210E48FFF7E4
:105010000DFD288D80B2B0FBF4F304FB1300BDE856
:105020007040012380B21A461946FFF75ABE074B5B
:10503000074A1B6810689B8C0121BDE8704018442A
:10504000FFF7F4BC303000205EC800084C1E002082
:10505000501E0020034B588D012380B21A4619467A
:10506000FFF73FBE30300020034B988D012380B204
:105070001A461946FFF735BE303000200221FFF7EF
:1050800087BCC0F11100C0B2FFF7F8BF044BB3F802
:10509000500080B2003818BF0120FFF7F2BF00BFF8
:1050A00030300020034B988B80B2003818BF0120AD
:1050B000FFF7E7BF30300020034BD88E80B20038B6
:1050C00018BF0120FFF7DDBF30300020034B988A66
:1050D00080B2003818BF0120FFF7D3BF3030002066
:1050E000034BD88B80B2003818BF0120FFF7C9BF2F
:1050F00030300020034B188C80B2003818BF0120DC
:10510000FFF7BFBF30300020044BB3F84C0080B233
:10511000003818BF0120FFF7B4BF00BF30300020B7
:10512000F8B51D4B05460E201C78FFF7A7FF1F237F
:10513000B5FBF3F0194BC0F10A0010F0F80F196835
:10514000C5B2C0F3C4060BD0F32C8CBF01230D23D2
:10515000204600272344DBB2421CD2B2934218D12E
:10516000FF2205F00705AA406025F32C8CBF012320
:105170000D2375432344DBB262F0FF02601CC0B212
:10518000834200D1F8BD2C440E5D16400E550446F6
:10519000F4E70F541046DFE7562900208828002046
:1051A00020220C4B1A6102221A610F2200BF013A21
:1051B000FCD14FF400321A610F2200BF013AFCD13A
:1051C0004FF400121A610F2200BF013AFCD10222F3
:1051D0001A617047000801404FF40032094B1A6110
:1051E0000F2200BF013AFCD120221A610F2200BF1A
:1051F000013AFCD102221A610F2300BF013BFCD10E
:10520000704700BF000801400222094B1A610F22BB
:1052100000BF013AFCD120221A610F2200BF013ADF
:10522000FCD14FF4001298681A61C0F34000704737
:10523000000801400A4B78B102221A610F2200BF18
:10524000013AFCD120221A610F2200BF013AFCD1A1
:105250004FF400121A6170474FF40032EDE700BFBF
:105260000008014010B50146082401F08000013C0F
:10527000FFF7E0FF490014F0FF04C9B2F5D10222A4
:10528000034B1A61FFF7C0FFB0FA80F0400910BD70
:1052900000080140014B1868704700BFC842002059
:1052A00000207047704713B50122446801AB0078B5
:1052B000A04708B19DF8040002B010BDBFF34F8FA6
:1052C0000549064BCA6802F4E0621343CB60BFF3A2
:1052D0004F8F00BFFDE700BF00ED00E00400FA05BE
:1052E0004AF6AA22014B1B681A607047EC2C00207A
:1052F0004FF0E0204FF0805408B506490B68012BB1
:1053000005D9C0F8044DBFF34F8FBFF36F8FFFF780
:10531000E7FFF3E7B42F00200122084B1A7040F298
:105320001B12074B1A80074B1B68DA6240F20D1202
:105330005A6340F682229A62704700BFA427002079
:1053400088300020402D0020037B826810B530F8A3
:1053500013400A44121B826020F81310013303F03B
:105360000303037310BD000010B5044671B10C4B6C
:105370000C481B68D96B1A6C11445A6C9B6C114415
:10538000194489B2C90089B2FFF7DEFF054B9B685B
:10539000C3F38F039B00B3FBF4F080B210BD00BFDA
:1053A000982B0020242A002008B5084B0146D88DF0
:1053B00080B2FFF7D9FF2D234043B0FBF3F0044B3D
:1053C000C0EB00201B88B0FBF3F008BD303000209C
:1053D0008830002010B50446002C084606DC094B36
:1053E000D88D80B2FFF7C0FF002010BDFFF7DCFFB3
:1053F000C4EB0424B4FBF0F0FF2828BFFF20C0B2A8
:10540000F3E700BF3030002010B50121FFF7E2FFC5
:10541000134B902804461A781BD90AB100221A703F
:1054200014211A780F4B002019800F4B1A700F4B64
:105430001C70FFF7B9FFFF23E82144430C4AB4FB7B
:10544000F3F413684B43182101FB04331B0A136068
:1054500010BD6F28E4D8002AE2D10122DFE700BFA7
:1054600051000020481E0020A32700209C2F002070
:10547000143E002008B568B100210B46114A0133E3
:1054800032F8020BDBB2102B0144F8D10E4889B27E
:10549000FFF75AFF0C4B0D499A680023C2F3CE0266
:1054A00031F81300904207D2013331F8130000EBBA
:1054B0008000400080B208BD0233302BF0D14FF4A1
:1054C000E170F8E784000020102A0020C0CD000819
:1054D00010B547F6FF70FFF7E5F904460020FFF727
:1054E000C9FF0A23B0FBF3F0013C80B2204410BD99
:1054F00008B5084B08481B68D96B1A6C11445A6CE4
:105500009B6C1144194489B2490089B2FFF71CFF12
:10551000084608BD682B0020F829002038B504464D
:1055200078B1FFF7E5FFFFF7BDF905462046FFF725
:10553000A1FF0A23B0FBF3F39BB2581920EAE070F5
:1055400038BD024B9868C0F38F00ECE7F8290020C3
:1055500010B5FFF7BDFF04460020FFF7DFFF053C55
:10556000A4B284422CBF0020012010BD012070474E
:10557000044B054A1B681068B3F8D2301844FFF793
:105580000DBB00BF4C1E0020501E002037B5064C3E
:105590008DF8071001220146A56820780DF1070358
:1055A000A84703B030BD00BF582B0020064AD2E9FF
:1055B0003A03834203D192F8F0008000704798BF0D
:1055C0000433181A704700BF282E0020F8B50B4688
:1055D0000D4C0646A163216C15460B4206D1FFF720
:1055E000E5FF074620B141F0020121643046F8BDD5
:1055F0006B1C84F8346002D13E46E563F6E723690C
:1056000098470544F8E700BF282E0020F8B55488D5
:10561000034604F01F050D2D1E4D04D114F4E04F78
:10562000C4F3023632D0164685F8361085F8353088
:105630005488432124F46064548095F82D302878F0
:105640005B0203F460631C4326F8024FC4F3023488
:10565000A400114B023464F07F02AF681A71052276
:10566000B847334622464321AF682878B84704221A
:105670004321AC68094B2878A047BDE8F8404FF0BB
:10568000FF3240F203610120FFF7A0BF85F82D60D3
:10569000F8BD00BF282E00205800002044ED00086F
:1056A0000023012213B50A488DF8073044681146DB
:1056B00000780DF10703A04738B19DF807000138C5
:1056C000C0B2FD288CBF0020012002B010BD00BF79
:1056D000582B002010B5064C236823B9FFF7E0FFD4
:1056E00008B1012323602068431E5842584110BD71
:1056F000A827002038B5FFF7EDFF0246F0B1124BA6
:10570000124DB3F8443095F831109BB2C1B995F8F9
:10571000300090B995F83411192913D00C2911D003
:1057200013F0FF0409D02B6998476B6CC01A6423EF
:105730006343984294BF0020012038BD0120FCE75C
:105740000020FAE71046F8E730300020282E00202D
:1057500010B54CF250342049204B0868DA68D20763
:1057600033D4DA68910644BF2022DA60DA68D206C0
:1057700006D4DA69D40703D4D86810F0040023D023
:10578000164AD36813F0100305D01549CB6943F0CE
:105790000203CB611023D268500706D5104943F0AD
:1057A0000403CA6942F00102CA610C4AD169C907FF
:1057B00008D50B48C16941F00401C161D16921F0EC
:1057C0000101D1610120D36010BD0A68121AA24202
:1057D000C4D90320F8E700BF003E002000200240AB
:1057E000082E0020144B70B51D68144E6A6912F023
:1057F000400201D000200EE06C6914F010040BD0C0
:105800006FF010016961202101201A6483F83C20A7
:105810001A6383F83D1070BD3268521A9042E5D287
:105820001A6C032042F020021A64202283F83C40C4
:1058300083F83D20EFE700BF982C0020003E0020B9
:10584000154B70B51D68154E6A6912F0800201D0C3
:1058500000201FE06C6914F480640FD13268521A82
:105860009042F1D21A6C032042F020021A642022E6
:105870001C6383F83C4083F83D200BE06FF48061AB
:10588000696104211964202101201A6383F83C20F6
:1058900083F83D1070BD00BF982C0020003E002012
:1058A000F0B5114DDFF844C02E68070C012F0CBF76
:1058B0007469B46920EA0404A4B2B4FA84F46409F3
:1058C000A14201D000200EE0DCF80040E41AA24220
:1058D000ECD20023202203202B6385F83C3085F88E
:1058E0003D2085F83E30F0BD982C0020003E002081
:1058F00070B50546144A154E14686369DB4313F00E
:10590000020014D0636913F4806311D0236820214E
:1059100043F4007323606FF48063636104231364B2
:1059200000230120136382F83C3082F83D1070BDE3
:105930003068401A8542E0D220211363032082F8A8
:105940003D1082F83C30F2E7982C0020003E002009
:1059500090F83E30012B22D1022380F83E300368BC
:105960001A6A22F001021A621A6A42F001021A62ED
:105970000B4A93420AD0B3F1804F07D0A2F594327C
:10598000934203D002F58062934204D19A6802F0F8
:105990000702062A03D01A6842F001021A60704713
:1059A000002C01402DE9F0471F4BDA8D1F4B92B2BE
:1059B0009B68C3F38F039B00B3FBF2F30A229BB2F5
:1059C000B3FBF2F402FB14339BB2042B88BF013407
:1059D000A4B2092C1FD94FF00A090123B4FBF9F82E
:1059E000134E194600221FFA88F0B6F90050FFF74F
:1059F00078F908230F4F09FB18403B800123002250
:105A0000194680B23580FFF76CF900230C353580DC
:105A10003B80BDE8F08701232046BDE8F0471A46E9
:105A20001946FFF75EB900BF30300020242A00205D
:105A3000562900205829002070B5114A114B94684E
:105A4000DB8DC4F38F049BB2A400B4FBF3F40A26ED
:105A5000A4B2B4FBF6F50123002228460221FFF789
:105A600040F900210848FEF7E1FF012306FB15403D
:105A7000BDE870400022194680B2FFF732B900BF7E
:105A8000242A00203030002064C8000838B5124DA8
:105A90000446688C80B2C0B10020FFF73FFD0523AB
:105AA00000EBC000B0FBF3F303F12000012303215E
:105AB0001A4680B2FFF715F964B16B8C9BB23BB10B
:105AC0000020BDE83840FFF7D9BAFFF727FDEDE722
:105AD0000120F6E738BD00BF303000202DE9F04F3F
:105AE0009A469C4C9C4B87B01E6894F83D3080468B
:105AF000202B89469346109F04D00225284607B0E4
:105B0000BDE8F08F3346192201219448FFF7C8FE03
:105B10000028F2D194F83C308B42EED0256884F80E
:105B20003C102B683A46D80758BF2B684FF001103D
:105B30005CBF0B432B602B68002123F400632B60B8
:105B4000222384F83D30402384F83E30844B216486
:105B5000A4F82AA0E362638DC4F824B023852B68DF
:105B600043F480632B602B6843F480732B603346CF
:105B7000FFF796FE00BB226808F0FE033146384668
:105B800013615FFA88F5FFF7B3FE08B1236C13E0E9
:105B9000236805905A69314605929B6938460593FA
:105BA000059BFFF74DFE80B1236C042B04D12268C6
:105BB000136843F400731360236C042B4FF000034D
:105BC00084F83C3078D1012598E72368314638467F
:105BD000C3F81090FFF734FE01460028E4D1226894
:105BE0004FF00110136843F48073136033463A4654
:105BF000FFF756FE0028DFD1236845F001051D613F
:105C000031463846FFF774FE05460028BED1228D86
:105C100023689AB1012A27D11A6822F480621A6097
:105C200072B6236803905A6903929A690392039AA1
:105C30001A6842F400721A6062B609E004905A6968
:105C400004929A690492049A1A6842F400721A60E3
:105C5000DFF81081238D1BBB202284F83C3084F8B0
:105C60003D2084F83E3049E7022A1A680ED142F4FA
:105C700000621A6072B6236802905A6902929A69A9
:105C80000292029A1A6822F48062D4E742F4806297
:105C90001A6001905A6901929B690193019BD7E7B1
:105CA000032B61D8012B09D131463846FFF79AFD05
:105CB00010B3236C202B86D103251FE7022B3A4615
:105CC00033464FF00001404624D1FFF7E9FD00289C
:105CD000F2D172B623681A6842F400721A601A6927
:105CE000636A591C61621A70238D013B2385638DA1
:105CF000013B9BB2638562B623681A69636A591CCB
:105D000061621A70238D013B2385638D013B9BB239
:105D100063859FE7FFF7C4FD0028CDD12268136893
:105D200023F48063136072B623681A69636A581C8F
:105D300060621A70238D3A46013B2385638D40468D
:105D4000013B9BB263853346FFF7AAFD0028C1D013
:105D5000B2E700BF982C0020003E00200200100097
:105D60000000FFFF0400010031463846FFF73AFD0E
:105D700000289ED123681A69636A591C61621A70EF
:105D8000238D013B2385638D013B9BB26385236893
:105D90005A6952077FF55EAFAFE700BF15490B6840
:105DA0001A6A22F001021A621A6A1A62124A9342AD
:105DB0000DD141F21112186A104208D140F244424A
:105DC000186A104202BF5A6C22F400425A6441F22F
:105DD0001112186A104208D140F24442186A104267
:105DE00002BF1A6822F001021A60012381F83E30D6
:105DF000704700BF882D0020002C0140037F082B36
:105E000001D1FFF7CBBF704710B5036804461A698C
:105E100091070ED5DA6892070BD56FF002021A616E
:105E2000012202779B699B0701D1FFF7E7FF00235F
:105E3000237723681A69500710D5DA6851070DD502
:105E40006FF004021A61022222779B6913F4407FEB
:105E500002D12046FFF7D2FF0023237723681A6977
:105E600012070FD5DA6810070CD56FF008021A6117
:105E700004222277DB69990702D12046FFF7BEFF93
:105E80000023237723681A69D20610D5DA68D00672
:105E90000DD56FF010021A6108222277DB6913F426
:105EA000407F02D12046FFF7A9FF00232377236814
:105EB0001A69D10737D5DA68D20734D56FF00102F5
:105EC0001A612368B3F1804F2ED11B4A1B4C1388F3
:105ED0002168013B9BB21380194B1B78DBB20B642A
:105EE0000B6C83B113889BB26BB11648FFF730FD82
:105EF000154B164A1B781178994214D033B1BDE87E
:105F00001040FFF709BAFFF749FFF1E7137040F2BD
:105F10000D120F4B1A802368DA624FF483725A63B2
:105F200041F204529A6210BD0A4A934201BF0A4AE2
:105F3000136801331360F6E7481E0020402D00204F
:105F40009C2F0020882D0020A3270020A4270020BC
:105F500088300020002C0140003E002090F83C30AA
:105F6000F0B5012B32D003680E681A6A22F00102E4
:105F70001A621A6A5D689C6922F0020224F07304B6
:105F800034438E683243124EB3420BD1CE6822F0B6
:105F90000802324325F44075D1E905673E4322F0FB
:105FA000040235435D609C614C6809695C631A6258
:105FB0009A6942F008029A619A6922F004029A6191
:105FC0009A690A439A61002380F83C30F0BD00BF13
:105FD000002C014008B5FEF721FA28B1BDE80840C1
:105FE000D121024806F0B8B908BD00BFAD27002096
:105FF000024BC0220021186806F0F0BB8828002060
:10600000F8B5036805460E46002B39D10260012021
:10601000334601211F784C1EA4B2002F32D104EB6D
:106020004404A400A4B2602C37D92B68D21A1F4BA9
:106030009B8C9BB2012B0CBF0A231423B2FBF3F2FF
:1060400004F1600312B292FBF3F103FB11225F2A09
:1060500029DDA24225DC14B2B5F90430A3420ED0EA
:10606000FFF7C6FF124BC4F160021A800022114BE9
:10607000304601211A80FEF7D9FC0120AC80F8BD22
:106080000020C5E7F02F03D80133013189B2C1E701
:106090005F78002FC3D00233F7E7C4F1600304EB4D
:1060A000630424B2D8E76024D6E700BF3030002074
:1060B00056290020582900202DE9F74F05462C22AB
:1060C0000C464F48002106F089FB4D4A2B1D05F177
:1060D0001C07164618685968083303C6BB42324687
:1060E000F7D11868FF22306000266B8841F28831B2
:1060F000354642F6E0694FF0320EC3F30233DFF863
:10610000008101930096019B5FFA86FC634523D8CA
:1061100002201023FF2AA070E37066D0009B01329A
:106120001207002B5CD005202B1DB3FBF0F31420CD
:10613000B1FBF0F003F07F0342EA402213436943CE
:1061400043F0807363602F4BB1FBF3F12E4B19606A
:10615000012003B0BDE8F08F58F8043B13F0404A2B
:1061600016D17746C3F3892078430FD048450DD820
:10617000C3F30903B0FBF3FBBBF1320F06DC88422B
:1061800004DD624681B29DB2CDF800A00136BAE7C7
:10619000BAF1404FFAD113F0405FF7D11B48B0F885
:1061A000500080B20028F1D003F07F00C3F34743D2
:1061B00003EB830303EB83039B009BB24B45A8BF18
:1061C0004B4600EB80000EFB00FA5345A8BF534638
:1061D0008B42DBDD99B20123624605460093D5E789
:1061E00045EA020343EA8523A9E7642323716FF09C
:1061F0006F0363710123A3711123E371A8E700BF4B
:10620000D42D0020A0860100A42F002030300020D3
:1062100070B50146FFF7CAF900B3114A89B1D2F847
:10622000E83002F1680404EB43140B4604F1200645
:10623000254603CDB542186059602C4603F108038A
:10624000F6D1D2F8E83092F8F010013303F00303EE
:10625000C2F8E83011B10BB982F8F03070BD00BF60
:10626000282E002010B5194C88B0216C01F07F4118
:106270002164FFF79BF928B36846FFF7C9FFBDF813
:10628000023003F01F02012A15D113F4E04F12D19E
:1062900094F82D20C3F3422393420CD1226C013396
:1062A00003F0070342F0040294F8350084F82D301F
:1062B000226408B010BD236C43F00803236494F8F3
:1062C0003600F6E741F008012164F8E7282E0020A7
:1062D0002DE9F043AE4E89B006F1480596F83441F9
:1062E0000E2C00F01C8275D8072C00F0028121D8FA
:1062F000032C00F074830AD8012C00F0F482022CE5
:1063000000F0F982002C00F0CD82032009E0052C7A
:1063100000F0B980062C00F0C680042C0CBF0520CC
:106320000320844286F83401D8D1002CD6D109B09C
:10633000BDE8F0830B2C00F062810DD8092C00F031
:106340001C810A2C00F02A81082CDED10F210920A3
:10635000904AFFF75BF9E4E70C2C40F0D88100226B
:10636000336C32645A0600F104819F0669D4180622
:1063700000F1C981D90500F1BA80DA0400F1C581C4
:106380009F047ED498076BD50127FFF70FF90028EB
:1063900066D02846FFF73CFFB6F84A3003F01F02EC
:1063A0000F2A40F0598113F4E04FEED1F18D01F046
:1063B000C0018029E9D1190440F19D81B6F84C1043
:1063C000C1F30801192940F29681112A14BF152042
:1063D0001620A6E7172C00F0DE8134D8132C00F02D
:1063E000BB8111D8112C00F0A581122C00F0AB81DB
:1063F0000F2C8AD196F93230022B00F351820133EF
:1064000086F8323010208CE7152C00F0B281162C63
:1064100000F0EB81142C7FF478AF336C03F07F43F2
:106420003364FFF7C3F860B12846FFF7F1FEB6F812
:106430004A3003F01F02032A40F0948113F4E04F26
:1064400036D00F206DE71B2C00F089820ED8192C56
:1064500000F01F821A2C00F05A82182C7FF455AFDE
:106460004FF0FF3243F6FF710C2019E01C2C00F0B6
:106470008B821D2C7FF449AFFFF798F8002840F07D
:1064800097821C204DE7002386F8303086F835319E
:1064900033643369984742F21072706423210620F6
:1064A000FFF794F83DE70022336C3264990601D57A
:1064B000052036E7FFF77AF80028F9D02846FFF7DD
:1064C000A7FEB6F84A2002F01F03012BF2D112F406
:1064D000E04FEFD0F38D13F0C00F08D102F0C002EF
:1064E0007F2A8CBF43F0800343F04003F3850720ED
:1064F00017E7FF2386F833300023B6F84A202649F1
:10650000C2F3023293420CD051F8040B013300F075
:106510004047B7F1404FF5D110F0405FF2D186F817
:106520003330F36C1B49C3F3C062C3F3C05386F826
:10653000713186F82C20B369A1F1CC00984700286E
:1065400000F0D780F38DB6F816211A4303F0C0038C
:10655000802BA6F816210CD1D6F81831002B4FEA63
:10656000137208DB96F833309A4204D3012386F87D
:1065700035310820D5E60023F9E7336C03F07F437B
:10658000336440F68C2240F603010A2088E700BFFE
:10659000282E00203C2F0020742E0020336C03F0A6
:1065A0007F433364FFF702F80028EAD02846FFF75C
:1065B0002FFEB6F84A3003F01F02032A13D1B6F8B3
:1065C0001631C3F30233022B0CBF0123002386F8DC
:1065D000723103D133699847C6F83C0141F28832E1
:1065E00003210B205CE70D2A6ED003F01703042B68
:1065F000D8D196F83030002B7FF432AF58E7336CA7
:1066000003F07F433364FEF7D1FF08B9122088E618
:106610002846FFF7FDFDB6F84A3003F01F03062BAE
:1066200017D1002386F8313096F8713163B196F8AE
:1066300070314BB196F8723133B9012386F831309D
:10664000336C43F480533364012386F830300C20DC
:1066500067E6012BD7D14AE7052A04D113F4E04FAE
:106660003FF493AEA2E6092A04D113F4E04F7FF47D
:106670009DAE06E0072AF8D00A2A04D113F4E04FB1
:1066800024D115204DE60B2AEFD0022AF9D0042A96
:1066900006D0012A09D113F4E04F3FF487AE26E774
:1066A00013F4E04F3FF482AEEBE7082A05D113F470
:1066B000E04F7FF47BAE0E2033E60D2A7FF476AEFA
:1066C00013F4E04F7FF472AE11202AE696F84A30B8
:1066D000032B02D186F8727157E6042B03D10023F5
:1066E00086F87231B3E7052B7FF44FAE002386F8AE
:1066F0007231062015E6102A88D113F4E04F14BF3A
:10670000122018200DE60D200BE61B2009E6F38D64
:1067100043F00703A6F84A302A460F2134E0F18DF2
:10672000284601F0C0017F2994BF0021012173692F
:106730009847F1E7F38D6A4643F00D030F210520DA
:10674000ADF8023005E6F38D2A4643F00D030F2124
:106750001320A6F84A30FCE540F68C2240F60301EF
:1067600014209DE60D2A7FF46CAE13F4E04FABD0FD
:1067700067E6F38D03F0C002402A07D143F004031B
:10678000A6F84A302A4612210C20E2E5802AF9D1E7
:1067900043F01003F4E70022336C32649F0705D402
:1067A0004FF0FF3243F6FF71172079E6FEF7FEFE49
:1067B0000028F5D02846FFF72BFDF38D03F0C0032A
:1067C000802BF3D1B6F94A20B6F84A30002AEDDA28
:1067D000B6F84C20C2F30802192AE7D903F01F03C8
:1067E000112B0CBF162015209BE5B6F84C707805D0
:1067F000D6D44FF01A09C7F3C32709FB07F9B6F837
:106800004A20CFBB774B03F1F60203F1180E9446F2
:10681000186859680833ACE8030073456246F6D13E
:106820001868CCF800009B88ACF80430B6F84A80B1
:10683000C8F3023309EB8309B6F84231A9F1020922
:10684000C3F30803994522DA1A220021664805F0AD
:10685000C5FFF38D08F01F08013748EA0308FF025F
:1068600048F4104847F404472A460F211720A6F899
:106870004A80A6F84C706CE5C2F3023209F5A270AA
:1068800092005949023A304405F0B0FFCEE71A2091
:1068900047E500234FF4FA6086F83030336A9847B2
:1068A00019203EE533699847F36B984282BF336CF9
:1068B00043F400633364306C01050AD596F8343034
:1068C00000F07F40113B032B306494BF0320122063
:1068D00027E5C2073FF596ADB36B18403FF421ADF5
:1068E00096F834001DE50022336C32649B0509D50F
:1068F000FEF75CFE10B1FFF7B5FC12E5022178222D
:106900000846CDE5082396F83600336409E5336977
:1069100098473649C6F83C01F36901F12C009847C5
:1069200000283FF4E6AED6F818311B0F06EB8303C0
:10693000D3F8403103F04042B2F1404F0DD113F093
:10694000405F0CBF01230023F28D86F83531B6F885
:1069500016311343A6F816310BE60023F4E733692A
:106960009847F38DC6F83C0143F4805343F00A0383
:10697000A6F84A3096F870311B0443F08073F36434
:10698000CAE60020FFF744FCFEF710FE0028F8D10D
:10699000012386F83130F38D2A4643F4104343F047
:1069A0001003A6F84A30124B0C211D20F364D0E4EA
:1069B0002846FFF72DFCB6F84A3003F01F03102BD2
:1069C0007FF45AAD96F84E30042B7FF455AD00237A
:1069D00086F8313033699847C6F83C0137E6042021
:1069E0009FE400BF722E0020762E00203C2F002056
:1069F00002800300014B186805F010BC5C290020E0
:106A00002DE9F047FEF76CFC35232A4D2A4CEB604C
:106A100005F03CFD0120FDF7C1FBFEF761FC237E84
:106A2000012B17D001232376FEF792FE80B9E06197
:106A30002B6943F002032B61204B6B612B6943F000
:106A400040032B61FEF784FE2B6923F002032B61C8
:106A50000023237605F01AFD4FF00109184F174D5A
:106A6000144EDFF86080FEF73BFC237E012B15D02F
:106A7000B7F800A084F81890FEF76AFE60B9E061EC
:106A8000336943F001033361A5F800A0FEF760FE0F
:106A9000336923F001033361002323760235454532
:106AA00007F10207DFD1034A136943F08003136142
:106AB000BDE8F08700200240082E002000FC0008FE
:106AC0003030002058FC0008F8B545F2AA54234B9A
:106AD0001A8892B2A2423AD018465822FF2105F0F5
:106AE0007DFE0480034601245A6D01321CBF4FF025
:106AF000FF325A655A8818BF012492B2262A08D854
:106B00004FF6FF715A8892B2262A22DD27220124ED
:106B10005A800022124903EB4206B5880F88ADB2B5
:106B2000AF424FEA420004D8B5884E88ADB2AE42BB
:106B300003D2CC881844848001240132272A01F131
:106B40000801E8D10CB1FFF75BFF2046F8BD002437
:106B5000CAE703EB420081800132D5E730300020E4
:106B6000EED000081A4A036890420AD0B0F1804F74
:106B700007D0A2F59432904203D002F58062904291
:106B800015D14A6823F070031343114A90420AD08A
:106B9000B0F1804F07D0A2F59432904203D002F5B5
:106BA0008062904203D1CA6823F4407313434A6958
:106BB00023F08003134303608B68C3620B68836216
:106BC000034B984204BF0B69036301234361704781
:106BD000002C0140002337B5026801939368DB075E
:106BE00002D5002003B030BD9368124943F0010381
:106BF0009360114B1B68B3FBF1F30193019BABB99D
:106C00000E4C2568936813F00103EAD12168491BF3
:106C10000229F7D9826A80F8243042F01002826299
:106C2000C26A42F00102C2620120DBE7019B013B24
:106C3000E3E700BF40420F004C000020003E002070
:106C4000036810B59A68D10701D4002010BD9A6876
:106C50000A4922F001029A600C689A68D207F4D5BA
:106C60000A68121B022AF8D9836A43F01003836270
:106C7000C36A43F00103C3620120E7E7003E00203E
:106C8000002337B5019390F824300446012B5FD0E0
:106C9000012380F82430FFF7D3FF0546002839D1BF
:106CA000A36A2C4823F4885323F0020343F0020321
:106CB000A362294B1A68294B59685B68C1F3C2214A
:106CC000415CC3F38133013322FA01F15B00B1FB74
:106CD000F3F3B2FBF3F252000192019BF3B92046A9
:106CE000FFF778FF23689A6842F008029A601C4A0E
:106CF00010689968090715D4996841F004019960F2
:106D00001068996849071ED4A36A23F0030343F06F
:106D10000103A362002384F8243011E0019B013BAE
:106D20000193DAE71168091A0A29E2D9A36A012551
:106D300023F0120343F01003A362002384F82430ED
:106D4000284603B030BD1168091A0A29D9D9EDE7E0
:106D50000225F5E79FC900084C0000200010024002
:106D6000003E00202DE9F74F00221646684F694B80
:106D7000DFF8A4C1DFF8A4E14FF001080D6808FABC
:106D800006F808EA050438EA050540F08A804D68EF
:106D9000032D00F0B38014D8012D00F0A480022D43
:106DA00000F0A680A5B98A68002A00F0A980012A0F
:106DB00008BFC0F810804FF0080218BFC0F8148058
:106DC00006E0122D00F0978072D8112D00F08D8012
:106DD000FF2C98BF82464FF00F0988BF00F1040ACC
:106DE0004FEA8605DAF8008088BF203D09FA05FBE6
:106DF00028EA0B0802FA05F548EA0505CAF800502A
:106E0000D1F804A01AF0805F4BD0BD6926F00308CA
:106E100045F00105BD61BD6908F1804805F0010537
:106E2000019508F5803806F0030B019D4FEA8B0BA6
:106E3000D8F8085009FA0BF925EA0909384DA84293
:106E400060D005F58065A8425ED005F58065A84252
:106E50005CD005F58065A8420CBF0325042505FA22
:106E60000BF545EA0905C8F808501D681AF4803F7B
:106E700014BF2543A5431D605D681AF4003F14BF8D
:106E80002543A5435D609D681AF4801F14BF254308
:106E9000A5439D60DD681AF4001F14BF2543A54378
:106EA000DD600136102E7FF467AF03B0BDE8F08FD0
:106EB000DFF870904D453FF476AF0FD8A9F58019F3
:106EC0004D453FF470AF09F570294D453FF46BAF68
:106ED000A9F580194D453FF466AF79E765453FF464
:106EE00062AF7545F7E7CA6872E7CA6804326FE7B0
:106EF000CA6808326CE7CA680C3269E7002267E7A3
:106F0000042265E70025AAE70125A8E70225A6E7F0
:106F10000010024000040140000031100000321057
:106F200000080140000022100148FDF763B900BFCE
:106F3000C82B00200148FEF767BF00BFF82C0020D7
:106F40000148FEF761BF00BF882D00200148FEF711
:106F50005BBF00BF402D00200148FDF74BB900BFCB
:106F6000502C00200148FDF745B900BF0C2C002033
:106F70000E4B1A6842F001021A6059680C4A0A4026
:106F80005A601A6822F0847222F480321A601A68F9
:106F900022F480221A605A6822F4FE025A604FF4EA
:106FA0001F029A60034B044A9A6070470010024027
:106FB0000000FFF800ED00E00040000800000000C5
:106FC000074B19680868B0E8F00F80F30988BFF331
:106FD0006F8F4FF0000080F311884EF00D0E704758
:106FE000A82F0020000000000000000000000000AA
:106FF000EFF30980BFF36F8F0D4B1A6820E9F00F94
:1070000010602DE908404FF0500080F3118800F027
:107010007DF84FF0000080F31188BDE80840196842
:107020000868B0E8F00F80F30988BFF36F8F7047EE
:10703000A82F00204FF0500383F31188BFF36F8F08
:10704000BFF34F8FFEE70000054A08B513680BB980
:10705000FFF7F0FF013B13600BB983F3118808BD04
:107060006000002008B5EFF305830F2B07D90E4A07
:107070009B5C0E4A12789A4201D9FFF7DBFF4FF072
:10708000E0230B4AD3F80C3D126803F4E06393420B
:1070900008D94FF0500383F31188BFF36F8FBFF30C
:1070A0004F8FFEE708BD00BFF0E300E0FA3D00208F
:1070B000FC3D002008B54FF0500383F31188BFF367
:1070C0006F8FBFF34F8F074A13680133012B136093
:1070D00007D14FF0E023D3F8043DDBB20BB1FFF74B
:1070E000A9FF08BD600000204FF0500383F3118812
:1070F000BFF36F8FBFF34F8FFEE70000024A1368A4
:1071000001331360704700BF083E002038B51F4BA5
:107110001A681F4B12B101221A6038BD1D481A604F
:1071200003681B6B1A68B2F1A53F0BD15A68B2F124
:10713000A53F07D19A68B2F1A53F03D1DB68B3F14F
:10714000A53F03D003680368FEF7B8F8124B1A682E
:10715000B2FA82F21423D2B2C2F11F0253430F4992
:10716000CD58CC180DB9FFF7BFFF656808336D68BF
:107170000B4465609D4204BF6B686360142303FB8E
:1071800002114B68DB680360C7E700BF083E0020C0
:10719000CC420020A82F0020103E0020B42F002059
:1071A000F8B50F4D0F4EFFF785FF2C680768336861
:1071B00042689F4207D0A24205D8002301200B60FD
:1071C000FFF742FFF8BD0B68A71ABB42F5D91B1B9E
:1071D00013440B60336803602B6843600020EFE7C3
:1071E000C8420020A8420020054B1B6833B1054B64
:1071F0001868B0FA80F040094000704701207047DD
:10720000C4420020083E002043689A684B608A60B0
:107210009A685160996003680861013303607047A0
:107220002DE9F3410646DDE908040F46984640B9CA
:107230004FF0500383F31188BFF36F8FBFF34F8F6D
:10724000FEE70CB9FFF7F6FE64230193019B642B64
:1072500008D04FF0500383F31188BFF36F8FBFF353
:107260004F8FFEE795002A46A5212063019B05F07C
:10727000B5FA226B043D2A4422F00702002F00F0E9
:1072800096807B1E04F134011F3713F8010F01F8BB
:10729000010B08B1BB42F8D1002384F853304346B8
:1072A000052B28BF0523E3626365C3F106030021B4
:1072B000A3614FF08073A1656161A1622461646282
:1072C000E16584F8601042F8043C404B26F001066A
:1072D00042F8086C42F80C3C42F8201C403A22600C
:1072E000FFF7E8FE3A4A3B4D13683B4E013313600B
:1072F0002B68002B5ED12C601268012A2ED13246F9
:107300004FF0FF3C14201F4602F10801C2E9011CA6
:10731000C2E9031100FB03F10133062B775002F1A0
:107320001402F1D12D4A02F10803C2E9013CC2E97D
:1073300003332B4B176003F10801C3E9011CC3E9B8
:10734000031128491F6001F108000F60C1E9010C19
:10735000C1E9030024490A60244A1360244A2549EC
:1073600013680868013313600123E26A9340034302
:1073700014200B6000FB0260211DFFF745FFFFF7A3
:1073800063FE1D4B1B6873B12B68DA6AE36A9A428D
:1073900009D24FF0E0234FF08052C3F8042DBFF321
:1073A0004F8FBFF36F8F204602B0BDE8F08184F8A5
:1073B000347074E7104B1A68E36A002ACED12A6849
:1073C000D26A9A4298BF2C60C8E700BF8543000884
:1073D000043E0020A82F0020B42F0020183E0020DB
:1073E0002C3E0020B0420020AC2F0020B02F002007
:1073F0000C3E0020103E0020C442002037B5044659
:10740000D0E90010A569B4F90830226901956469D2
:10741000842B0CBF002303330094FFF701FF03B05C
:1074200030BD0369D0E901128A6051605968814218
:1074300008BF5A60002202611A68013A1A6018688F
:10744000704700002DE9F041564C23685A689106B8
:1074500023D51A68920720D5A26AD7065EBFA26A12
:1074600042F40072A2629A6802F46022B2F5602FC0
:1074700010D1E26872B95A6822F020025A60A26AFA
:1074800022F48072A262A26AD6045EBFA26A42F0AF
:107490000102A2626FF012021A605A6815067AD5CC
:1074A0001A68500777D5A26AD1065EBFA26A42F475
:1074B0000052A2629A6802F4E042B2F5E04F0AD0AC
:1074C0005A68520516D49A6802F46022B2F5602F09
:1074D00010D1E26872B95A6822F080025A60A36A39
:1074E00023F48053A362A36ADB055EBFA36A43F063
:1074F0000103A3622C4B1D68002D48D0FFF7B2FD9D
:10750000EFF311874FF0500383F31188BFF36F8FB0
:10751000BFF34F8F022395F8602085F86030EB6D44
:10752000012A03F10103D6B2EB6502D087F311887B
:107530002DE0AB6A0BB1FFF77DFD1C4B1B6863BBF5
:1075400005F104084046FFF76CFF194A1420EB6A66
:1075500011689E400E4341461660164A00FB032008
:10756000FFF752FE144BEA6A1B68DB6A9A42DDD9C8
:107570000122124B1A6087F311884FF0E0234FF07D
:107580008052C3F8042DBFF34F8FBFF36F8F6FF09E
:107590000C0223681A60BDE8F081094805F1180162
:1075A000DEE700BF682B0020A02F0020083E00204F
:1075B000103E0020B42F0020A82F0020CC42002035
:1075C000B0420020F8B52F4B5A69920555D54FF4BB
:1075D00000725A612C4B1C68002C4ED0FFF742FD04
:1075E000EFF311864FF0500383F31188BFF36F8FD1
:1075F000BFF34F8F022394F8602084F86030E36D6E
:10760000012A43F00103D5B2E36502D086F3118865
:1076100033E0A36A43B14FF0500383F31188BFF303
:107620006F8FBFF34F8FFEE7184B1B6833BB271DCF
:107630003846FFF7F6FE164A1420E36A11689D40AB
:107640000D4339461560134A00FB0320FFF7DCFDAC
:10765000114BE26A1B68DB6A9A42D7D901220F4BB1
:107660001A6086F311884FF0E0234FF08052C3F880
:10767000042DBFF34F8FBFF36F8FF8BD084804F19F
:107680001801E3E700040140441E0020083E0020EA
:10769000103E0020B42F0020A82F0020CC42002054
:1076A000B0420020394B2DE9F74F1B68002B67D102
:1076B000374B1D6801351D6085B9364B1A68126855
:1076C0000AB1FFF711FD344A19681068186011609B
:1076D000324A136801331360FCF776FE304E002403
:1076E0003368DFF8C080AB4212D91422D8F80030DA
:1076F000DB6A53432C4AD358022B2C4B28BF01245E
:107700001B68002B18BF0124204603B0BDE8F08F92
:10771000DFF880A0DFF89890DAF800301B681BB91A
:107720004FF0FF333360E0E7DAF80030DB68DF6802
:107730007A68954201D23260D7E707F1040B5846C8
:10774000FFF76FFEBA6A1AB107F11800FFF769FE7A
:107750000122FB6AD9F800009A4002431420C9F8BC
:107760000020114A594600FB03200193FFF74CFD0E
:10777000D8F80020019BD26A934228BF0124CBE7AE
:107780000C4A0024136801331360BDE7083E002053
:10779000C8420020AC2F0020B02F0020A8420020BB
:1077A000A4420020A82F0020B42F0020CC420020AB
:1077B000103E0020AC42002008B5FFF715FD01285F
:1077C00013D04FF0500383F31188BFF36F8FBFF3D3
:1077D0004F8FFFF767FF28B14FF0E0234FF0805243
:1077E000C3F8042D002383F3118808BD32492DE925
:1077F000F0470B6843B94FF0500383F31188BFF390
:107800006F8FBFF34F8FFEE7FFF754FC0B68013B10
:107810000B600C6824B10020FFF716FCBDE8F08770
:10782000264B1B68002BF6D0254E264FDFF898908C
:1078300020E0F3684FF00108DC6804F1040A04F169
:107840001800FFF7EEFD5046FFF7EBFD1420E56A48
:107850003A6808FA05F31343514600FB05903B6074
:10786000FFF7D2FC194B1B68DB6A9D4202D3184B11
:10787000C3F800803368002BDBD10CB1FCF7A4FD0A
:10788000144D2C6844B10127114EFFF70BFF00B1D6
:107890003760013CF9D12C600D4B1B68002BBAD02E
:1078A0004FF0E0234FF08052C3F8042DBFF34F8F09
:1078B000BFF36F8F0120AFE7083E0020043E002099
:1078C000B0420020103E0020B42F0020A82F00203E
:1078D000CC420020AC420020C36870B5DC680CB913
:1078E000FFF7A8FB04F118063046FFF79AFD114B8D
:1078F000E56A1B68D3B904342046FFF792FD0123E3
:107900000D4A14201168AB400B43214613600B4B0A
:1079100000FB0530FFF778FC094B1B68DB6AAB42C4
:107920003BBF0120074B0020186070BD3146064860
:10793000F0E700BF083E0020103E0020B42F0020DA
:10794000A82F0020CC420020B04200202DE9F041B9
:1079500004464FF00108FFF7ADFB90F845501B4F70
:107960006DB200F12406002D17DCFF234FF0010853
:1079700084F84530FFF768FBFFF79CFB94F8445010
:10798000124F6DB204F11006002D12DCFF2384F8B3
:107990004430BDE8F041FFF757BB636A002BE4D0E9
:1079A0003046FFF799FF08B1C7F80080013D6DB27E
:1079B000D9E72369002BE9D03046FFF78DFF08B1E6
:1079C000C7F80080013D6DB2DEE700BFCC42002069
:1079D000202210B5234B83F83D20234B1868002844
:1079E00035D0036C43B14FF0500383F31188BFF3DC
:1079F0006F8FBFF34F8FFEE7036853B9836843B1BE
:107A00004FF0500383F31188BFF36F8FBFF34F8F95
:107A1000FEE7FFF727FBEFF311844FF0500383F3EA
:107A20001188BFF36F8FBFF34F8F826BC36B9A4286
:107A30000BD290F845100132FF294BB2826307D177
:107A4000436A13B12430FFF747FF84F3118810BD58
:107A50007F2B01D1FFF7EEFA01335BB280F845309E
:107A6000F3E700BF982C0020AC290020436A1A6875
:107A7000116821F4806111600021586B59854163C0
:107A8000986B416393F83D0060284FF0200083F825
:107A90003D0083F83E1008BF1964136823F001030A
:107AA0001360FFF795BF0000F0B4944B8AB01A68DA
:107AB00095695469506893F83E101029CEB202D0EF
:107AC000402E40F04C8114F0011F67D0860565D52B
:107AD00093F83E10402944D1196D19B9596C01F041
:107AE000FE0103E0596C41F00101C9B21161844902
:107AF000844A29402240002900F092818249214095
:107B0000002900F05881440540F15581002A40F0D9
:107B1000548193F83D201C8D93F83E10D2B2D86A60
:107B2000C9B2002C40F0FC80212A40F0FB800428E0
:107B30001A6800F06381082800F0608110F5803F2A
:107B400000F05C81516821F4E061516011221A63F8
:107B500083F83E40202283F83D200AB0F0BCFFF7B6
:107B600037BF1969B1F5804F05D193F83D10212930
:107B7000596CB8D1B3E7196D31B9596CC91101F01D
:107B8000060141F0F001B1E7196D0129AFD1596C3F
:107B9000C91101F0060141F0F101A7E75B4921405D
:107BA0000029A4D08105A2D593F83E10DE6AD3F84F
:107BB00030C093F83D70C9B2222F40F0A9801F6DEC
:107BC00047B9402906D109975169099192690992EB
:107BD000099A8CE7598D89B251B908915169089178
:107BE000916908910899116841F40071116019E0D8
:107BF000598D89B2012944D116F5803F1CD11168F5
:107C000021F480611160516811F400610DD0116898
:107C100021F48061116000210791516907919269F7
:107C20000792079A00221A6561E706915169069149
:107C3000916906910699D6E7042E16D0082E14D025
:107C4000BCF1120F11D0D96A0229116814BF21F4B6
:107C5000806141F480611160002205921A685169C7
:107C6000059192690592059ADCE7116821F480611B
:107C70001160002104915169049191690491049962
:107C8000B1E7598D89B2022924D1D96A0026022987
:107C9000116815D041F40061116003965169039198
:107CA000916903910399116821F4806111601A6848
:107CB00051680F05B6D5516841F480515160B1E764
:107CC00041F48061116002965169029192690292B9
:107CD000029AECE7116841F48061116051680E0569
:107CE00042BF516841F480515160002101915169B6
:107CF000019192690192019A94E700BF982C0020AB
:107D000004001000040001008000010002000100D6
:107D1000002100915169009192690092009AE6E673
:107D2000212A03D040291AD1222A18D15A8D92B281
:107D30002AB91A68536823F4806353600FE093F8FC
:107D40003E20402A2CD11A6D92B9DA6C1968012AAA
:107D50009A6C07D1D2B20A611A6D02321A650AB062
:107D6000F0BC7047C2F307220A611A6D0132F5E7D1
:107D70001A6D012A03D19A6C1968D2B2F4E71A6D10
:107D8000022AECD193F83D20222A05D11A68136803
:107D900043F480731360E2E793F83D20212ADED19B
:107DA0005A6A511C5962127819680A615A8D013A4F
:107DB00092B25A85D3E7002AD1D08005CFD5D86AB0
:107DC00093F83D20212ACAD1598D1A6889B229B168
:107DD000596A481C586209781161E7E704280DD0F8
:107DE00008280BD010F5803F08D0506820F4E060E0
:107DF000506011221A6383F83E10ABE6516821F4FB
:107E0000E0615160116841F400711160002220218D
:107E10001A6383F83D1093F83E1083F83E209CE6E9
:107E200045492140002940D041053ED5002A3FD197
:107E300093F83D20222A92D1598D1A6889B20329DC
:107E400005D911695A6A501C58621170AEE702399F
:107E50000129D96A0DD8022911681DBF21F480615A
:107E60001160116841F4806118BF41F40061116034
:107E70005FE70229116814BF21F4806141F4806139
:107E800011601A68516821F4E061516011695A6A01
:107E9000501C586211705A8D013A92B25A852022B4
:107EA00083F83D2000221A63B5E7002A3FF457AF5C
:107EB00082057FF554AFD96A588D1A6880B20328BD
:107EC0000CD1042904D0082902D011F5803F03D138
:107ED000116821F4806111601A68B2E7588D80B290
:107EE0000228AED104291DD008291BD011F5803FEE
:107EF00018D00229116814BF21F4806141F4806117
:107F0000116019684A6822F440724A601A6811695F
:107F10005A6A501C586211705A8D013A92B25A85B1
:107F20001A68B3E7516821F440715160116841F457
:107F300000711160EAE700BF40000100F8B5744C21
:107F40007448236859695A6801420CD0D5050AD58E
:107F5000206C40F0010020646FF480705861186854
:107F600040F40040186011F4813F08D0D00506D5D8
:107F7000206C40F0020020646FF40070586111F42E
:107F8000823F23D0D70521D594F83E70658D94F8B3
:107F90003D00202F266BADB2C0B208D13DB900F034
:107FA000F705212D12D0282801D1212E0ED0206CCA
:107FB00040F00400206494F83E00102802BF1868C6
:107FC00040F4007018606FF48060586111F4843FD1
:107FD00008D0D60506D5226C42F0080222646FF460
:107FE00000625A61236C002B50D094F83D20236826
:107FF000293A012A27D800222263282284F83D202A
:108000001A6822F400621A605A6812F400625ED0A4
:108010005A6822F400625A60606B3F4B90F821204E
:10802000012A34D0022A43631CD0042383632268CC
:10803000136823F0010313602023606B84F83D3044
:10804000436B984712E094F83D20602A05D05A68A7
:1080500015055CBF202284F83D200022226384F8AD
:108060003E20CDE7FCF752F90028E0D194F83D30EE
:10807000282B0BD1236C5B0708D5284B2022E36209
:108080000023236384F83D2084F83E30F8BDA06BC4
:10809000436390F82130022B14D0042383632368B8
:1080A0005A69500604D51A69636A591C61621A70CC
:1080B0002268136823F0010313602023A06B84F867
:1080C0003D30BDE7FCF722F90028CFD0E7E794F870
:1080D0003D10602913D1202184F83D1022645A6993
:1080E000510604D51A69636A591C61621A702268C4
:1080F000136823F001031360FFF76AFCB6E75A69BF
:108100005206F9D51A69636A591C61621A70F3E75D
:10811000982C0020000101006D7A00080000FFFF8C
:1081200070B5154B154D06461C6828680430FFF7DE
:1081300078F940B92A681249D06A01220B68824056
:1081400023EA02030B602B68A4195C6007D30D4B74
:1081500018682968BDE870400431FCF747B90A4B3C
:10816000186829680431FCF741F9084B1A689442F1
:1081700038BF1C6070BD00BFC8420020A82F00207F
:10818000103E0020B02F0020AC2F0020A442002081
:1081900008B550B94FF0E0234FF08052C3F8042DDA
:1081A000BFF34F8FBFF36F8F08BD074B1B680BB139
:1081B000FEF740FFFEF7A2FFFFF7B2FFFFF716FB47
:1081C0000028E7D0F0E700BF083E002008B5094AC4
:1081D0000346117881420BD010700748523B437020
:1081E000102104F0B9F8BDE808400A20FFF7D0BF1D
:1081F00008BD00BFAC270020AD2700203220FFF7CC
:10820000C7BF00002DE9F74F07465A4DDFF86891C8
:1082100001916B8C9BB2002B00F08180002F7CD1F0
:10822000EA88AB8892B29BB2934228BF13461F2BB9
:1082300073D9092203EB8303A03BB3FBF2F3C9F824
:108240000030688C80B2002873D00020FDF766F9FA
:10825000052300EBC000B0FBF3F42034A4B20026E9
:10826000FDF7C6FE4549B5F82080454A454BD1F893
:1082700000B045491FFA88F8D1F800A016801E808A
:10828000B8F1000F5BD0BBF8200031465044FCF73A
:10829000CDFB3B4ABBF8220016800822394B314601
:1082A00050441A80FCF7C2FB0321012332462046CA
:1082B000FCF717FD698C89B200293ED0314633485E
:1082C000FCF7B4FB00213248FCF7B0FBFDF7B4FB30
:1082D00000213048FCF7AAFBFDF77CFEFFF78EFF7C
:1082E0000198FCF7FFF8A8B16B8B9BB2002B3BD039
:1082F000294B1968002937D0284B1A686B8B521A02
:108300004EF660219BB24B439A422DD900230120A7
:10831000C9F8003003B0BDE8F08F00238FE7002FCD
:108320008DD1EA88AB8892B29BB2934228BF1346A4
:1083300085E7FDF7F3F884B291E71948C0E7BBF889
:108340001E0001215044FCF771FB012303211A4652
:108350002046FCF7C6FC6B8C9BB21BB14046FCF779
:108360008DFEB9E70120FAE7FCF72EFA08287FF422
:1083700050AFCBE730300020002B00204C1E0020F7
:108380005629002058290020501E002066C80008E9
:108390004DC9000868C80008002E0020C84200200F
:1083A000B7C800082DE9F84F0024664B664FA04679
:1083B000D7F800901C60FCF707FA051B18BF0125D1
:1083C000A246624BA3F800A0614BA3F800A0FDF702
:1083D0000FFEFCF7F9F9002800F0A080D7F8009014
:1083E00015B10024234622E0042800F08A8009D831
:1083F0000228584B00F0818002D8012800F08C80C0
:108400002B4614E0082803D01028F9D1BDE8F88FD6
:108410003A68A4EB08031344B3F5967FF0D94D4BAB
:108420001B8F5B422134D7F800801BB2E4B2494E67
:10843000C4F59672632AF28ED8BFC82492B20AB1EC
:108440005B421BB2DBB1B18883EAE372A2EBE37259
:10845000194409B213B291FBF3F15143738C09B281
:108460009BB2002B5DD0322940F25233B8BF32218B
:108470009942A8BF1946002089B2FCF765F83B680D
:10848000A3EB0903B3F5FA6FC0D8334B012193F87E
:1084900000B0F38E9BB2BBF1000F4BD12F48304A96
:1084A000002B08BF1046FCF7C1FA01212D48FCF74C
:1084B000BDFA0123B0881A46032180B2FCF711FCF3
:1084C000738C9BB2002B38D00020FCF7D7FD012124
:1084D0002448FCF7ABFAF38E01219BB2BBF1000FED
:1084E0002DD11F481D4A002B08BF1046FCF79EFAED
:1084F000FDF770FDFFF782FE63E75B8F5B421BB207
:1085000095E73A68A4EB08031344B3F5967F7FF62A
:1085100077AF104B1B8F85E75B8FF0E7044605466E
:1085200060E70A29B8BF0A21B1F5E17FA8BF4FF47F
:10853000E171A0E70A48094AB2E70120C5E7074808
:10854000074AD0E7002B0020C8420020562900200F
:108550005829002030300020942800206AC80008E4
:108560006CC800084DC9000870B50D4E356805444B
:10857000FCF72AF9044654B9FCF726F90446FFF73C
:108580003DFE33689D420AD3002CF5D007E0FCF78E
:108590001BF90446FFF732FE33689D42EBD270BDF3
:1085A000C842002038B505460C46FDF721FD284697
:1085B000FCF7F4FAFDF70EFD2046BDE83840FFF762
:1085C000D3BF00002DE9F74F002840F0B980002309
:1085D0001D46A74CDFF89CA20093FCF7F5F8009B22
:1085E000002B00F0D180E38C9BB2002B00F0CC80FC
:1085F000042800F0F28000F2B380002800F010811F
:10860000032840F0B680FDF7F3FC218C9A4B89B229
:1086100093F800B0994F9A4EDFF86892002900F065
:108620004D81BBF1000F0CBF32234FF0FF334FF0F1
:10863000000801203B80A6F80080FDF727FA638A36
:108640009BB25BB323899BB243B3C3450CBF2023CA
:108650002F238D493B80A6F80080FBF72BFF0A688B
:108660008A4B8B491B6809688A422CBFC3EB020303
:10867000C3EB01031844874B984240F2D3804EF677
:108680006023B0FBF3F00130022180B201234246A7
:10869000FCF727FB41468048FCF7C8F95DB1BBF108
:1086A000000F0CBF262337233B80082300217B4883
:1086B0003380FCF7BBF9BBF1000F14BF4323002349
:1086C0004FF0000BD9F800000193B0F57A7F3B80A2
:1086D000A6F800B0C0F0B48059467148FCF7A6F97E
:1086E0000A23D9F800005A46B0FBF3F00321012316
:1086F00080B2FCF7F6FA00216A48FCF797F9019B73
:108700003B8008233380FDF797F900216648FCF78A
:108710008DF9FDF75FFC638C644E9BB2002D00F079
:108720002381002B00F01D81238E9BB21F2B40F272
:10873000FD80092203EB8303A03BB3FBF2F3F6E0D9
:10874000831E584258410121FFF75CFD01287FF448
:108750003EAF4E4B1A684C4B1A6003B0BDE8F08F29
:1087600020282DD03FF64FAF082802D010287FF4E4
:108770004AAF4F4BDAF800001B684FF4FA71DB89FF
:108780001844FFF70FFF3EE7042832D010D8002826
:1087900046D003283FF437AFA688FFF703FEA3882F
:1087A000B6B29BB2B3423FF42EAFFEF729F92AE7E7
:1087B0001028D2D0202822D008287FF424AFCCE77C
:1087C0003B4BDAF800001B684FF47A719B89184420
:1087D000FFF7E8FE0023009315E7238E9BB2002BE2
:1087E0003FF411AFE38C009A9BB2012B08BF1546F2
:1087F00009E7238E9BB2002B18BF012503E7E38C0A
:108800009BB2002B3FF4FFAE294BDAF800001B6847
:108810004FF47A715B891844FFF7C4FE0123DAE74D
:108820000546F0E64FF47A73B0FBF3F00130022115
:1088300080B201234246FCF754FA41461D482BE71B
:108840004FF00A08B0FBF8F001235A46022180B22B
:10885000FCF747FA59461848FCF7E8F8D9F8000041
:108860005A46B0FBF8F308FB1300012319463FE713
:1088700030300020501E002094280020562900206F
:1088800058290020143E0020D02D0020C84200208E
:10889000002E0020B88201006EC800086AC80008D7
:1088A0004DC900085EC8000868C80008002B0020F9
:1088B0004C1E00205DC9000864C800083980318062
:1088C000BBF1000F19D1FDF76DF82F480121FCF71E
:1088D000ADF80120FDF7DAF855B10220FCF7CEFB28
:1088E0000021D9F80000FCF775FDFCF719FC10E732
:1088F00001212548FCF79AF8F2E7D9F80000FCF7C7
:1089000069FDFCF70DFC65B10220FCF7B7FB012007
:10891000FDF7BCF801211C48FCF788F8FDF742F888
:10892000F7E601211848FCF781F8F0E70023002062
:108930003360FBF7D7FDE0B9144F00203368FCF734
:10894000EDFD3B78E3B10024114B124A1B6810681F
:108950001B8A42F2107118443460FFF723FE3C700A
:10896000FBE6238E9BB2E2E70BB1A388DDE6A3888A
:10897000F8E700210846FFF745FC0028DCD0ECE6CC
:10898000FFF73CFC29E600BF4DC90008942C0020ED
:108990004C1E0020501E002010B5114AB2F84A307B
:1089A0009BB2052B11D1FBF70FFF04463CB9FBF737
:1089B0000BFF0446FFF722FC002CF8D010BDFBF79C
:1089C00003FF0446FFF71AFCF0E74FF47A70BDE8A6
:1089D0001040B2F84A309BB25843FFF7C5BD00BF04
:1089E00030300020002373B500934FF6FF73044628
:1089F0000C4EADF80430214668463268FDF700FBA6
:108A00000546FBF7E1FE38B9002DF4D0FDF7E2FA98
:108A10002820FFF7BDFBEEE7431E5842584102B045
:108A200070BD00BFC842002008B50B4BB3F84C30F6
:108A30009BB273B9094B0A4A1B6810685B8A1844D9
:108A4000FFF7D0FF18B101212420FBF77DFD0020A6
:108A500008BD0021F8E700BF303000204C1E002088
:108A6000501E002038B50D4B1D680D4BE88A1C6860
:108A70002044FFF7B7FF80B15822FF21094803F0D7
:108A8000ADFEFEF721F8FDF7BBFF688840F6B83170
:108A90002044FFF787FDFCF711FC38BD4C1E002079
:108AA000501E0020303000202DE9F047FDF7A0FADD
:108AB0004FF00007374E384A384D9468EB8DC4F3B9
:108AC0008F049BB2A400B4FBF3F44FF00A0AA4B2E3
:108AD0000123B4FBFAF9DFF8C8801A4602214846A0
:108AE0003780A8F80070FCF7FCF801212D48FBF74F
:108AF0009DFF01220AFB19401146002380B2FCF7BA
:108B0000F0F801212848FBF791FFFBF75DFE0228F2
:108B10002AD007D8012823D0FDF75CFA2820FFF7D8
:108B200037FBC8E71028F7D8204C044114F00104A3
:108B3000F2D1FDF765FFFDF75BFA0123E88D1A46D8
:108B4000032180B23480A8F80040FCF7CAF8FDF792
:108B500041FA4FF47A70FFF707FD2046BDE8F08731
:108B60001520FBF707FDD7E7EB8D9BB2B3F5B47F7C
:108B700004D14FF46173EB85EB8DCDE7EB8D9BB2A8
:108B8000B3F5B57F29BFEB8D4FF4B47303F1FF3319
:108B90009BB2F0E756290020242A00203030002024
:108BA000582900205EC8000870C80008EFFEFEFFCC
:108BB0002DE9F04F0024314B85B01A6801900292E4
:108BC0001A6802994FF4FA70A2EB010B642202FBBF
:108BD0000BF1B1FBF0F1C9B22546C1F1960449434E
:108BE0004C4341F2883194FBF1F46021E4B24C43F0
:108BF000B4FBF2F4E4B28C4228BF0C460A1B019984
:108C0000A1BB2646DDF80480D7B21D4B0392D3F8F2
:108C100000A00AEB05010AEB060003F0F5FD194977
:108C2000039AD1F8009009EB050109EB060003F067
:108C3000EBFD154B2246D9190AEB080003F0E4FDC1
:108C4000124B2246D91909EB080003F0DDFDFDF7B0
:108C5000C1F90E20FFF79CFAFBF7B6FD18B9BBF57A
:108C6000FA7F064BACD905B0BDE8F08F0026651B36
:108C70003746EDB25FFA82F8C7E700BFC84200206E
:108C8000882800208C28002095280020F528002026
:108C9000012838BF0120FFF77BBA000010B50C4651
:108CA000044B19681831FBF7A1FB2046BDE81040C2
:108CB000FFF736BAA82F00202DE9FF47044601919F
:108CC00040B94FF0500383F31188BFF36F8FBFF3A8
:108CD0004F8FFEE7056C45B14FF0500383F31188C9
:108CE000BFF36F8FBFF34F8FFEE7FEF77DFA50B9EA
:108CF000019B63B14FF0500383F31188BFF36F8F73
:108D0000BFF34F8FFEE72846964F974E90E00546FB
:108D1000FAE7019B23B9002D00F02081FEF7E4F96A
:108D200020B93B680293914B1B680393FEF78CF9C3
:108D3000FEF7E4F9FEF7BEF994F8443001A9FF2BE1
:108D400004BF002384F8443094F8453002A8FF2B78
:108D500004BF002384F84530FEF776F9FEF720FAC9
:108D6000002840F09C80FEF7A5F9A36B002B57D19B
:108D7000FEF76AF92368002B3CD1FEF79BF9A56842
:108D8000002D34D03368D5F82CA0DB6A9A457ED20A
:108D9000AB69DFF8DC81002BA8BF33686A69A2BF2A
:108DA000DB6AC3F10603AB61142303FB0A839A4217
:108DB00069D105F104094846FEF733FB6D4B30B924
:108DC00001211A6801FA0AF122EA01021A603268E6
:108DD0001968D26AEA62012505FA02F008431860B0
:108DE0001420494600FB0280FEF70EFA0120FEF730
:108DF0002BF90546019904F12400FFF74FFF2046A7
:108E0000FEF7A4FDFEF7F2FC88B94FF0E0234FF027
:108E10008052C3F8042DBFF34F8FBFF36F8F06E06E
:108E20002046FEF711F9FEF791FDFEF7DFFC012069
:108E3000FEF740F9A36B002B3FF46BAF013BA3633C
:108E4000236843B9484B1A681AB119688A6D013210
:108E50008A651B68A360236973B104F11000FEF7F3
:108E60003BFD48B14FF0E0234FF08052C3F8042D92
:108E7000BFF34F8FBFF36F8FFEF7E6F8012528464B
:108E800004B0BDE8F0873368DB6AEB62AEE73368B5
:108E9000686DDB6A98422CBF00200120A7E72046BE
:108EA000FEF754FDFEF7A2FCFEF704F9A36B13B125
:108EB000FEF7CAF8BBE7FEF7C7F8002DDFD0FEF7D4
:108EC000F9F8656A1DB1236B1D68C5F10605A46834
:108ED000002C43D0A26D42B94FF0500383F31188A8
:108EE000BFF36F8FBFF34F8FFEE7636D9D4238BFB7
:108EF0001D46E36A9D4231D0012A2FD11A4A1268D9
:108F0000944208D14FF0500383F31188BFF36F8F61
:108F1000BFF34F8FFEE7A269154E002AA4BFC5F12B
:108F20000602A261142202FB03636269E5629A42AF
:108F300014D104342046FEF774FA01230D4AAB40E5
:108F400018B9116821EA030111601420116800FBAF
:108F500005600B4321461360FEF756F9FEF774F8DF
:108F600000258CE7A8420020A82F0020C84200203E
:108F7000B42F0020103E002008B5064B1A6802B935
:108F800000BE64211868FFF797FE431E58425841FF
:108F900008BD00BF5C2900202DE9F84305460F46B7
:108FA00090461E46FFF7E8FF044650B12846FCF7FE
:108FB000F7F8FCF757F938B9FCF70EF90024FDF77C
:108FC00019FD2046BDE8F8833846FCF74BF9002828
:108FD000F2D04FF400131A4F3B610F2300BF013B47
:108FE000FCD145F00100FCF7DBF8FCF73BF9044647
:108FF0000028E1D01FFA88F14FF0020821B9FCF7F0
:10900000EBF8FDF7F7FCDCE74FF008090025FCF76B
:10901000FBF86D00EDB209F1FF39054319F0FF09C6
:10902000EDB2F4D101290CBF08464846C7F81080BC
:109030000139FCF7FFF889B206F8015BDEE700BFF3
:10904000000801402DE9F04180460F4615461E46B6
:10905000FFF792FF044630B34046FCF7A1F8FCF757
:1090600001F9044628B9FCF7B7F800BEFDF7C2FCC9
:1090700019E03846FCF7F6F804460028F3D0ADB204
:10908000013E15B9FCF7A8F8F0E7FCF729F916F846
:10909000010FFCF7E7F8074640B9FCF79DF800BE62
:1090A000FDF7A8FC3C462046BDE8F081013DADB28D
:1090B000E7E7000010B5134CFDF7FCFF2368DB6DFC
:1090C0007BB90122236883F86020FFF729F84FF06D
:1090D000E0234FF08052C3F8042DBFF34F8FBFF34E
:1090E0006F8FFDF7B1FFFDF7E5FF2368D86D10B175
:1090F00000222368DA650022236883F86020FDF7E8
:10910000A3FF10BDA82F00202DE988480020FCF700
:109110007BF9002320246D4A6D4D13606D4B1A6856
:109120006D4B1A600520FFF7C5FF0120FCF7F6F92B
:10913000E88D012180B2FCF717F9013CF2D1674EAE
:109140004FF4FA60FFF7B6FF002800F0B680012068
:10915000FCF7E4F95D4B83461C68614FDFF884A19E
:10916000DFF88491DFF88481002C00F09F80B4F553
:10917000E17F28BF4FF4E174FCF7AAF9A04202D2C4
:10918000FCF7A6F90446A4EB0B040A2C1FFA8BFB90
:1091900005DD3988ABEB010109B20A2906DDDAF8F1
:1091A0000020A7F800B0C9F800200BE0DAF8002092
:1091B000D9F80030D31A44F62062934202D9012331
:1091C00088F800304FF47A7B4949DAF800300A68B1
:1091D00000209B1ABBFBF3FBDAF800300B60FCF7B6
:1091E000E3F8AB8E9BB243B10A22AB8E9BB25343E2
:1091F0009842C2BFA88E80B250433E4B1B6823B139
:109200000A2253439842A8BF18462823B3FBFBF316
:109210003268C3F164035343642293FBF2F3502298
:10922000544394FBFBF42344834239DD30603068BF
:109230002B8D9BB20BB340F6C4116B8D2E4C9BB2A1
:109240004B43DAF800202168521A934209D2FA21DE
:10925000AA8DDAF8003092B2236001FB0233274A6C
:1092600013602B8D9BB2984207DA244ADAF800305B
:1092700012689A4284BF288D80B247F6DF72204B75
:109280009B68C3F38F03934288BF002098F8003097
:10929000002B18BF0020FCF7B7F8FCF721F84FE7C8
:1092A00040428342ACBF33603060C0E7DAF8002050
:1092B0003880C9F800202046BAE71423114A1380E9
:1092C000114B1870114B18703AE700BF002B0020AB
:1092D00030300020A82F0020A02F0020402A00209E
:1092E000382A0020C84200203C2A0020942C00206C
:1092F000442A0020A42F00204C2A0020482A0020C5
:10930000F8290020481E0020A32700209C2F0020C1
:10931000C3685A1EC26033B9036833F8022B036076
:109320000F238260C36083685A008260C3F3C03039
:10933000704710B5012104462046FFF7E9FF4900B8
:1093400001442046FFF7E4FF0028F5D1084610BD90
:109350007FB5364B1A78FF2A0DD141F27851344A45
:10936000B2F8422092B28A4203D04AF2D7118A421E
:1093700030D000221A701B78012B55D80C212D4AB1
:1093800001FB0322517A5368C9090FD01589009354
:10939000C5F30E051D44284B012201934FF4804371
:1093A000CDE90232009B9D4216D8234B234A244923
:1093B0001360244AE833136023484FF4F96203F042
:1093C00029F84FF4C3722149214804B0BDE8704028
:1093D00003F020B80122CDE76846FFF799FF019E10
:1093E000D0B16846FFF7A5FF04466846FFF7A1FF26
:1093F000009B02385A1C00921B78023403EB0023B6
:10940000DB4333441C449C42CCD0019A511C019153
:1094100013F8011B1170F6E7009B5A1C0092721C96
:1094200001921B783370BDE704B070BD500000207E
:109430003030002008CA00088A3000204C1E00206E
:10944000DB1F0020501E0020A8D30008551E00205E
:1094500026D200080C2210B5094C1F2023780133B6
:1094600003F0010323705343064AD15AFBF76CF80B
:10947000FFF76EFF2078431E5842584110BD00BFD1
:109480005000002008CA00087FB544226D46174BE3
:10949000174E1A70174A184C5A60184ADE609A60C4
:1094A0000FCB85E80F0084E80F00032284F83421F5
:1094B000FF22134B84F833202361124B8C2263610B
:1094C000114BA361114BC4E907360023C4E90E33E5
:1094D000C4E91033C4E93A3384F8F030E38584F802
:1094E000702184F8723104B070BD00BF582B002089
:1094F000918C0008998F0008282E002045900008C4
:1095000095520008A5520008B9600008A152000851
:10951000014B186802F082BEAC29002008B5044B4C
:1095200032211868FFF7C8FB431E5842584108BD56
:10953000AC29002030B585B00546FFF7EFFF0446A3
:1095400068B14FF47A730F2100932846012303AAD0
:10955000FCF7C4FAB0FA80F46409FFF7D9FF20469B
:1095600005B030BD13B590F83D30044603F0FF025E
:1095700000687BB91D4B84F83C20984228D103F544
:109580000333DA6942F00202DA61DB6903F00203B5
:109590000093009B0223211D84F83D30FDF7E2FA81
:1095A0000123002084F8463084F83E3084F83F30B0
:1095B00084F8403084F8413084F8423084F84330F5
:1095C00084F8443084F8453084F83D3002B010BD52
:1095D000B0F1804FDED1064BDA6942F00102DA6168
:1095E000DB6903F001030193019BD3E70004004012
:1095F00000100240134B10B5DB68C3F30223C3F124
:1096000007041A1D042C28BF0424062A88BFDA1E6A
:109610004FF0FF3398BF0022A34021EA0303002844
:1096200003FA02F3ACBF00F16040074A4FEA0313AC
:10963000DBB2B5BF00F00F0000F56140135480F8B5
:10964000003310BD00ED00E014ED00E02DE9FF480F
:10965000FCF740F8002800F09B8001210C20FBF76C
:1096600095FF002800F09480AE4D0A20EB689847E3
:109670000624FCF715F8002800F082800F210B204B
:10968000FBF784FF002800F0838000210A20FBF70D
:109690007DFF00287CD000210E20FBF777FF0028FB
:1096A00076D000210F20FBF771FF002870D00C212D
:1096B0000620FBF76BFF00286AD007210920FBF783
:1096C00065FF002864D000210820FBF75FFF002819
:1096D0005ED004210720FBF759FF002858D007214E
:1096E0000220FBF753FF002852D00A20EB6898476E
:1096F00040218C48FBF7D7FD0B2104460220FBF7E5
:1097000045FF002844D00A20EB689847402185484F
:10971000FBF7C9FD04F0030400F00300844240F2AB
:10972000F88025210320FBF731FF88B307210220B1
:10973000FBF72CFF60B344210620FBF727FF38B36B
:1097400004210720FBF722FF10B302210C20FBF7B6
:109750001DFFE8B103234FF4007C0593724B73485F
:10976000CDE902C3012302A90493FDF7FBFA0A2104
:109770001720FFF73FFF4FF400026D4B1A6007E020
:109780000A20EB68013C984714F0FF047FF471AFA6
:10979000FCF79EFD654D674CAB689E0500F1DA80D5
:1097A000AB68980529D407223C216668207802AB73
:1097B000B04710B39DF80B30D90709D55E4F07F1BC
:1097C000020841212046FBF76EFD830640F1F98037
:1097D0009DF80A305A0700F14F81DE0642BF226C25
:1097E00042F480622264180607D59DF80D3099076F
:1097F00042BF236C43F02003236494F835317BB1DE
:1098000023699847D4F83831C01AB0F57A7F07D960
:10981000236C43F04003236423699847C4F838015C
:1098200094F8723153B123699847D4F83C31C01A87
:10983000C82882BF236C43F400532364FCF748FD1F
:10984000FBF758FF0028A7D094F83431192B07D024
:1098500094F83130002B9FD194F83030002B9BD1FD
:10986000364B374EDA8996F800A0B3F82E8012B244
:1098700000921FFA88F8BAF1000F13D1DFF8C4B0D4
:10988000DFF8C490DBF80830C3F38F039B00B3FB11
:10989000F8F39BB2502B40F2F4800B2389F8003090
:1098A00003233370009B272B7FF776AF274B1B6872
:1098B000B3F57A7FFFF470AF3378012B7FF46CAF90
:1098C000204B4FF480699E68009BC6F38F06B6005C
:1098D000B6FBF8F636B29E1B06EBD6777F10B8467D
:1098E000DFF86CA0B8F1000FC0F26581012EC7F15E
:1098F0000003C8BF00234FF48078DE194FF480675F
:10990000DFF84C90002E40F079816420FEF740FC97
:1099100042E726210320FBF739FE00283FF438AF49
:109920000B2104E7582B0020000021100008014003
:1099300000E100E0282E00201E2F00203030002003
:109940004A1E0020242A00204B1E0020C84200206E
:10995000000C0140B84EFDF7ADFB336893F8603062
:10996000022B13D033683220DA6DDA6501223368B6
:1099700083F86020FEF7D4FB4FF0E0234FF08052D5
:10998000C3F8042DBFF34F8FBFF36F8FFDF75CFB60
:10999000FDF790FB336893F86030022B03BF326809
:1099A0000121D36D002104BF03F07F43D365002262
:1099B000336883F86020FDF747FB00293FF4F0AEE1
:1099C000F1E643212046FBF76EFC3B460222432191
:1099D000666800F0E0092078B047B4F8F63013F478
:1099E000E04FC3F3023205D0434643216668207836
:1099F0009200B047042243216668904B2078B0471C
:109A0000B9F1E00F7FF4DDAEB4F8F63003F01F02D9
:109A10000D2A07D113F4E04F04D1236C43F0010366
:109A20002364CEE6D4F8EC60DFF814C204EB4616EB
:109A30006836BCE80F000FC69CE80F0086E80F00F0
:109A4000D4E93A239A4203F1010306D194F8F020B5
:109A50001AB103F00302C4F8E820D4F8E82003F0B8
:109A600003039342C4F8EC3004BF012384F8F030C0
:109A7000236C43F00203D3E7226C42F400722264A9
:109A8000ABE699F800700A2F3FF60AAF08220123CF
:109A9000CDE90223032305936A4B02A91846FDF77B
:109AA00061F94FF4A062CDE903AA0292FDF75AF9D9
:109AB0004FF4F04228460292CDE903AAFDF752F98D
:109AC0004FF400225F4B1A610A20FEF761FBBAF1E6
:109AD000820F1FFA8AF158D9AB688C2983F400638E
