:020000040800F2
:10500000005000209D510008E5510008E5510008BE
:10501000E5510008E5510008E551000800000000D6
:1050200000000000000000000000000031B0000897
:10503000E55100080000000061B000084DAC000818
:10504000E5510008E5510008E5510008E551000868
:10505000E5510008E5510008E5510008E551000858
:10506000E5510008E5510008E551000881AC000851
:10507000E5510008E5510008E5510008E551000838
:10508000E5510008E5510008A1AD0008E551000810
:10509000E5510008E5510008E551000845AF00085A
:1050A000E551000821AF0008E5510008E55100086E
:1050B00039AF0008E55100082DAF0008E5510008A0
:1050C000E5510008E5510008E5510008E5510008E8
:1050D000E5510008E5510008E5510008E5510008D8
:1050E000E5510008E5510008E55100080000000006
:1050F00000000000000000000000000000000000B0
:0C51000000000000000000005FF8E0F17B
:105110000348044B834202D0034B03B11847704746
:105120001C0200201C020020000000000548064B65
:105130001B1AD90F01EBA301491002D0034B03B195
:10514000184770471C0200201C02002000000000CD
:1051500010B5064C237843B9FFF7DAFF044B13B1BF
:105160000448AFF300800123237010BD200200200B
:10517000000000005CBE000808B5054B1BB10549E6
:105180000548AFF30080BDE80840FFF7CFBF00BF80
:1051900000000000240200205CBE0008002103E0A3
:1051A0000B4B5B58435004310A480B4B42189A4250
:1051B000F6D30A4A02E0002313600432084B9A42F5
:1051C000F9D305F01DFD06F0E5FD05F0BDFFFEE796
:1051D00008E70008000000201C0200202002002038
:1051E000A0460020FEE7FEE706480068006880F35E
:1051F000088862B661B6BFF34F8FBFF36F8F00DFD1
:1052000000BF000008ED00E04FF0500383F3118869
:10521000BFF36F8FBFF34F8FFEE7000008B54FF06D
:10522000500383F31188BFF36F8FBFF34F8F074A8B
:1052300013680133012B136007D14FF0E023D3F83B
:10524000043DDBB20BB1FFF7DFFF08BD1802002001
:10525000054A08B513680BB9FFF7D6FF013B136089
:105260000BB983F3118808BD1802002008B5EFF3CD
:1052700005830F2B07D90E4A9B5C0E4A12789A427F
:1052800001D9FFF7C1FF4FF0E0230B4AD3F80C3DE3
:10529000126803F4E063934208D94FF0500383F39C
:1052A0001188BFF36F8FBFF34F8FFEE708BD00BFBC
:1052B000F0E300E0A8440020A4440020002337B518
:1052C000026801939368DB0702D5002003B030BD6C
:1052D0009368124943F001039360114B1B68B3FBC1
:1052E000F1F30193019BABB90E4C2568936813F061
:1052F0000103EAD12168491B0229F7D9826A80F8A3
:10530000243042F010028262C26A42F00102C2629C
:105310000120DBE7019B013BE3E700BF40420F00B8
:1053200014020020A0440020036810B59A68D10739
:1053300001D4002010BD9A680A4922F001029A6047
:105340000C689A68D207F4D50A68121B022AF8D9A9
:10535000836A43F010038362C36A43F00103C362AC
:105360000120E7E7A0440020002337B5019390F81F
:1053700024300446012B5FD0012380F82430FFF74E
:10538000D3FF0546002839D1A36A2C4823F488535B
:1053900023F0020343F00203A362294B1A68294B4E
:1053A00059685B68C1F3C221415CC3F381330133A7
:1053B00022FA01F15B00B1FBF3F3B2FBF3F252000E
:1053C0000192019BF3B92046FFF778FF23689A68A2
:1053D00042F008029A601C4A10689968090715D4BF
:1053E000996841F0040199601068996849071ED4D2
:1053F000A36A23F0030343F00103A362002384F8AC
:10540000243011E0019B013B0193DAE71168091A8E
:105410000A29E2D9A36A012523F0120343F01003FD
:10542000A362002384F82430284603B030BD1168FD
:10543000091A0A29D9D9EDE70225F5E7F4E60008AB
:105440001402002000100240A0440020436A9A6A1F
:1054500012F0500F18D19A6A42F400729A621A68D8
:10546000926802F46022B2F5602F10D1DA6872B946
:105470009A6A22F480729A629A6AD20407D49A6A6B
:1054800042F001029A6270471B6A1B6B1847704713
:10549000134A036890420AD0B0F1804F07D0A2F5BA
:1054A0009432904203D002F58062904207D14A685C
:1054B00023F070031343CA6823F4407313434A690B
:1054C00023F08003134303608B68C3620B6883621D
:1054D000034B984204BF0B69036301234361704788
:1054E000002C01402DE9F74F00244FF00F0E264607
:1054F000DFF894C1654B00F10408012202FA06F7B7
:105500000A6807EA020537EA020240F082804A6828
:10551000032A00F0AE8010D8012A00F09F80022AF2
:1055200000F0A1808A68002A00F0A580012A4FF0CF
:1055300008040CBF0761476106E0122A00F096805C
:105540006ED8112A00F08C80FF2D94BF8146C14691
:105550004FEA8602D9F8007088BF203A0EFA02FAA4
:1055600027EA0A0704FA02F21743C9F80070D1F8D3
:10557000049019F0805F4CD0DCF8182026F0030767
:1055800042F00102CCF81820DCF8182007F180471F
:1055900002F00102019207F5803706F0030A019A32
:1055A0004FEA8A0ABA680EFA0AFB22EA0B0B384A5B
:1055B000904262D002F58062904260D002F5806233
:1055C00090425ED002F58062904214BF0422032212
:1055D00002FA0AF242EA0B02BA601A6819F4803F32
:1055E00014BF2A43AA431A605A6819F4003F14BF33
:1055F0002A43AA435A609A6819F4801F14BF2A43A9
:10560000AA439A60DA6819F4001F14BF2A43AA4318
:10561000DA600136102E7FF470AF03B0BDE8F08F72
:10562000DFF870904A453FF47DAF0FD8A9F5801997
:105630004A453FF477AF09F570294A453FF472AF08
:10564000A9F580194A453FF46DAF7DE7DFF8489032
:105650004A453FF467AF09F58039F3E7CC6873E753
:10566000CC68043470E7CC6808346DE7CC680C343F
:105670006AE7002468E7042466E70022A8E701221D
:10568000A6E70222A4E700BF001002400004014088
:10569000000801400000221000003110024A136887
:1056A00001331360704700BF2446002008B9064B41
:1056B0001868026B0020135CA52B02D0C0F38F008A
:1056C00070470130F7E700BF90450020064A136895
:1056D0001968064B19B94FF0FF321A60704712680B
:1056E000D2681268F9E700BF90440020844400208B
:1056F000054B1B6833B1054B1868B0FA80F04009C0
:10570000400070470120704780440020244600205C
:105710004FF0500383F31188BFF36F8FBFF34F8FA8
:10572000FEE743689A684B608A605160996003683D
:10573000086101330360704730B50C68631C0AD1FF
:1057400003695A684A6091608B6059600368086118
:105750000133036030BD00F108021346526815683A
:10576000A542FAD9EDE70369D0E901128A605160D8
:105770005968814208BF5A60002202611A68013AE2
:105780001A601868704700003D4B2DE9F74F1B6801
:10579000002B6DD13B4B1C6801341C6084B93A4B23
:1057A0001A6812680AB1FFF7B3FF384A196810681F
:1057B00018601160364A136801331360FFF786FFE3
:1057C000344D4FF0000B2B68334EA342334F12D9A8
:1057D00014213A68D26A4A43B258022A304A28BF92
:1057E0004FF0010B1268002A18BF4FF0010B58460A
:1057F00003B0BDE8F08FDFF890A0DFF8A890DAF8EA
:10580000002012681AB94FF0FF322A60E0E7DAF898
:105810000020D268D2F80C80D8F804108C4201D253
:105820002960D5E708F1040318460193FFF79BFFB1
:10583000D8F8281019B108F11800FFF794FF0123D8
:10584000D8F82C20D9F8000003FA02F10143142003
:10585000C9F8001000FB026001990192FFF761FF97
:105860003968019AC96A8A4228BF4FF0010BC6E71E
:105870000D4A4FF0000B136801331360B7E700BF08
:1058800024460020AC440020904400208C4400209A
:105890008844002084440020A84500209045002032
:1058A0008C450020204600209444002032492DE9F8
:1058B000F0470B6843B94FF0500383F31188BFF3EF
:1058C0006F8FBFF34F8FFEE7FFF7A8FC0B68013B1C
:1058D0000B600C6824B10020FFF7BAFCBDE8F0872C
:1058E000264B1B68002BF6D0254E264FDFF89890EC
:1058F00020E0F3684FF00108DC6804F1040A04F1C9
:105900001800FFF730FF5046FFF72DFF1420E56A1F
:105910003A6808FA05F31343514600FB05903B60D3
:10592000FFF7FFFE194B1B68DB6A9D4202D3184B41
:10593000C3F800803368002BDBD10CB1FFF7C6FE43
:10594000144D2C6844B10127114EFFF71DFF00B123
:105950003760013CF9D12C600D4B1B68002BBAD08D
:105960004FF0E0234FF08052C3F8042DBFF34F8F68
:10597000BFF36F8F0120AFE724460020984400203A
:105980009445002020460020A84500209045002096
:105990008C4500209444002038B5C368DC680CB9FD
:1059A000FFF732FC04F118052846FFF7DCFE114B27
:1059B0001B68E3B9251D2846FFF7D5FE01230E49D4
:1059C000E26A08689340034314200B6029460B4B9E
:1059D00000FB0230FFF7A5FE094BE26A1B68DB6A99
:1059E0009A4285BF0120074B0020186038BD294628
:1059F0000548EFE72446002020460020A845002067
:105A0000904500208C450020944500202DE9F04170
:105A100004464FF00108FFF701FC90F845501A4F7B
:105A20006DB200F12406002D01DD636ACBB9FF23BE
:105A30004FF0010884F84530FFF70AFCFFF7EEFB52
:105A400094F84450104F6DB204F11006002D01DDA2
:105A500023697BB9FF2384F84430BDE8F041FFF7A8
:105A6000F7BB3046FFF798FF08B1C7F80080013D4B
:105A70006DB2D8E73046FFF78FFF08B1C7F8008056
:105A8000013D6DB2E2E700BF8C450020C3685A1E9D
:105A9000C26033B9036833F8022B03600F238260BE
:105AA000C36083685A008260C3F3C030704710B58A
:105AB000012104462046FFF7E9FF49000144204642
:105AC000FFF7E4FF0028F5D1084610BD002340F29F
:105AD0001A201A4610B5074911F8014B03FB04229E
:105AE00001338342F8D1044B18681A60801A18BF3A
:105AF000012010BD64420020604200200020704759
:105B00000A4B588A80B278B1188980B260B11A897C
:105B1000188992B2052A94BF42F210734EF66023A0
:105B200080B288BF05385843704700BFE04100206D
:105B300038B5114A538A9BB20BB9002038BD13897E
:105B40009BB2002BF9D00D4A0D4B14681B6853EA29
:105B500004020FD00B4D2968C91AFFF7D1FF81420B
:105B6000EBD92868041BFFF7CBFF844294BF0020C9
:105B70000120E3E70120E1E7E04100205842002056
:105B80005C420020AC440020142370B5044600257C
:105B900003FB0106B44201D1284670BDA368002B67
:105BA000FAD0E3681BB90135ADB21434F2E7984777
:105BB0000028F8D1F9E77047084B33F8302003EBA1
:105BC000C00391425B8803D399420A4628BF1A4614
:105BD000034B03EB40039A80704700BF0600002090
:105BE000E041002010B50E4B33F8304003EBC0030A
:105BF00059889A880B4B03EB400083889BB28B42F9
:105C000001D1848010BD83888C1A9BB2A342B7BF98
:105C100083888180D21892B2B8BF8280F2E700BF39
:105C200006000020E0410020184B03EBC0039988D8
:105C300098B9174B5B8C9BB2002B40F2523308BFD4
:105C40004FF4E173124A5B1A02EB4002908880B273
:105C50009842D4BF0020012070471628E9D00128BF
:105C600009D10B4B5B8C9BB2002B0CBF4FF496738E
:105C70004FF41173E6E71F2801D05B88E2E7054B7C
:105C80001878431E58425841704700BF0600002054
:105C9000E04100200400002008B5114A138E518C09
:105CA0009BB289B291B173B1143399B240F25133BE
:105CB000994288BF00211620FFF77EFFBDE808400B
:105CC0001620FFF779BF4FF4F071F4E733B10A33D0
:105CD0009BB2B3F5E17F98BF1946EFE7FA21EDE7F4
:105CE000E0410020034B588A80B2003818BF0120E1
:105CF000704700BFE04100200A4BD9885B8C89B215
:105D00009BB243B1143189B2B1F5117F88BF3C21F8
:105D10000120FFF751BF0A3189B2B1F5967F88BFE4
:105D20000A21F5E7E04100200F4A02EB40039B887F
:105D3000528C9BB292B27AB103EBC3010523A0311E
:105D4000B1FBF3F10A2389B2B1FBF3F101EB81015D
:105D5000490089B2FFF730BF0922203B03EB8303E0
:105D600093FBF2F1EEE700BFE041002008B50F2001
:105D7000FFF738FF1620FFF7D7FF0020FFF7D4FF0B
:105D8000BDE808400120FFF7CFBF0000034BD88AD1
:105D900080B2003818BF0120704700BFE0410020EA
:105DA000034B188D80B2003818BF0120704700BF28
:105DB000E041002040220D4B1A6180221A610C2222
:105DC00000BF013AFCD14FF400021A610C2300BF5E
:105DD000013BFCD14FF48003044A13610C2300BF44
:105DE000013BFCD180231361704700BF000C0140D0
:105DF0004FF40003094A13610C2300BF013BFCD19F
:105E0000402313610C2300BF013BFCD18022034BD4
:105E10001A610C2300BF013BFCD17047000C01400C
:105E200080230A4A13610C2300BF013BFCD14023AD
:105E300013610C2300BF013BFCD14FF48002034BE4
:105E400098681A61C0F3C010704700BF000C014091
:105E50000A4B80B180221A610C2300BF013BFCD1A8
:105E60004023064A13610C2300BF013BFCD14FF4D1
:105E70008003136170474FF40002ECE7000C01400F
:105E800010B50146082401F08000013CFFF7E0FF57
:105E9000490014F0FF04C9B2F5D18022034B1A6106
:105EA000FFF7BEFFB0FA80F0400910BD000C0140C2
:105EB00048F2E80358436423C00B58434FF4067379
:105EC000B0FBF3F0074B5A8E92B242B139B95A8EF9
:105ED00092B282422FBF08465B8E9BB2C01A024B21
:105EE00018607047E0410020083700202DE9F74F87
:105EF0005442A04201933BDD802839DC0028B8BF22
:105F0000464200EB0204ACBF0026F6B2802C4FF0F4
:105F10000004CCBFC0F1800C94460C9DC8BF5FFA52
:105F20008CFC0029B8BF0731DFF84C80C910401B3A
:105F3000019BE500EDB2AB421AD004FB02F90C9BC9
:105F400009EB0607354601EB040E1F44A0EB090BD5
:105F500009E00BEB070958F82E3017F801AB0135B3
:105F600003F809A0EDB2AC45F3D80134E4B2DFE7A1
:105F700003B0BDE8F08F00BFD041002007B5054B4E
:105F80000021009320235E201A46FFF7AFFF03B0E5
:105F90005DF804FB50E200080229F7B51B4B0446EC
:105FA0001B4817D110221A700C221A4D02701B7850
:105FB0000278D908514304FB0155174F1749B7F927
:105FC00000600095304691F90010FFF78FFF3244D2
:105FD0003A8010E000290BBF0825102506260C2664
:105FE000012C1D70067008D10C4BB3F9001011B9CB
:105FF00009491D800A8003B0F0BDFCD9084D094A4B
:10600000023C002908BF1546A4B2D0E7063700209D
:1060100005370020B4DA00088C4100208A410020B6
:10602000D40300203C0200202DE9F041984603787B
:106030000546012B0F46164601D11F46013528782B
:10604000A8B1A6B1F0280AD96B7883B1A0F1F00409
:10605000C4EB04200F3B184480B2023500E0013548
:1060600042463946013EFFF797FFF6B2E7E7BDE843
:10607000F081000010B4124B198B89B2022911D0A3
:10608000032918D0012902D010BCFFF777BF0D4BB0
:10609000FF221B68188F0C4B1C680023204410BC87
:1060A000FFF7C2BF074B1B68588F074BFF221C68C6
:1060B00001210023F2E7034B1B68988FF5E700BF2F
:1060C000E04100201C4100201841002010B40F4B7B
:1060D000D98C89B2012904D002290DD010BCFFF758
:1060E0004DBF0B4BFF221B68D88F0A4B1C68002347
:1060F000204410BCFFF798BF054BFF221B6801210D
:10610000B3F84000034B1C680023F1E7E041002096
:106110001C410020184100200021044BFF22B3F84D
:106120007030034B08461B78FFF77EBFE04100202C
:106130008C41002010B40C4B0C4A198A0C4B89B2CC
:1061400001291B68106806D002290BD11C8E002380
:10615000FF22012102E0DC8DFF220023204410BC3D
:10616000FFF762BF9C8DF2E7E0410020184100205C
:106170001C41002010B4094B094A9B8C12689BB249
:106180004BB1D08E074BFF221C6801212044002315
:1061900010BCFFF749BF508EF4E700BFE04100207C
:1061A0001C4100201841002010B4124BD98A89B23A
:1061B00002290ED0032915D0012917D10E4BFF2239
:1061C0001B68588E0D4B1C680023204410BCFFF741
:1061D0002BBF094B1B68988E084BFF221C680121BE
:1061E0000023F2E7044B1B68D88EF5E710BCFFF7DD
:1061F000C5BE00BFE04100201C4100201841002026
:10620000002310B4074A01781380074A012913803C
:1062100018BF19464FF0FF0210BC08BF0130FFF74E
:1062200003BF00BF8C4100208A41002037B5284BB6
:10623000284A1B68044603EB4003B3F82E3110686C
:106240001844FFF7DDFF244AD38A9BB2022B20D0EB
:10625000032B0CBF4FF496704FF4FA70D18A1F4B8A
:1062600089B2C9B119681E4DA1421E4902D01C60F5
:106270002B680B602B680968928A5B1A92B2B3FB99
:10628000F0F30AB30322B3FBF2F202EB42029B1AD1
:106290000AE04FF4C870E1E779211960D38A9BB214
:1062A000B3FA83F35B095B00FC225443542202FBE4
:1062B00003440D4B15221C44002120236920009427
:1062C000FFF714FE03B030BD022B28BF0223EBE71B
:1062D0001C41002018410020E04100200000002067
:1062E000AC4400200C37002064DC00080120FFF7DC
:1062F0009DBF0220FFF79ABF0320FFF797BF04203E
:10630000FFF794BF37B50C4611460022042C0092CB
:10631000CDF803202BD90A22B0FBF2F502FB1500C1
:1063200002308DF80500B5FBF2F002FB1055023586
:106330008DF8045080B20A22B0FBF2F502FB150280
:1063400002328DF80320A8B20A22B0FBF2F502FB5C
:10635000150202328DF80220A8B20A25B0FBF5F230
:1063600005FB120502358DF8015090B204E0E2D031
:10637000032CE9D0022CF0D00A22B0FBF2F502FB8C
:10638000150002308DF800002BB16A460023122060
:10639000013CA34206DB0023FF226846FFF744FED0
:1063A00003B030BD1578022DF5D102F8010B013391
:1063B000EFE70000064A138E9BB233B10123108E23
:1063C00003211A4680B2FFF79DBFFFF7D7BD00BF7C
:1063D000E0410020034B0221588F012380B21A466E
:1063E000FFF790BFE0410020034B0221188F0123EB
:1063F00080B21A46FFF786BFE0410020064A538A62
:106400009BB233B1508A01220023114680B2FFF7BC
:1064100079BFFFF7B3BD00BFE0410020034B03216C
:10642000D888012380B21A46FFF76CBFE0410020F4
:1064300010B5154B1A8992B21AB9BDE81040FFF792
:106440009DBD1A89188992B2052A11D8012380B2FC
:1064500000EB800040001A46022180B2FFF752FF95
:106460000023FF2201210948BDE81040FFF7DCBDF1
:10647000012305381A46022180B2FFF743FF0023AB
:10648000FF2201210248EFE7E041002074BE00082E
:1064900076BE000810B50B4A538B9BB21BB9BDE802
:1064A0001040FFF76BBD0123508B02211A4680B2CA
:1064B000FFF728FFBDE810400023FF22012102481A
:1064C000FFF7B2BDE041002076BE000807B5164ACE
:1064D000B2F84A309BB2052B07D0062B10D08BB9EF
:1064E00003B05DF804EBFFF749BD104B0093202388
:1064F00000211A465E20FFF7F9FC03B05DF804FBAB
:106500000B4BF3E70123B2F84A0019461A4680B252
:10651000FFF7F8FE0023FF220121064803B05DF8D3
:1065200004EBFFF781BD00BFE0410020D0E100088F
:1065300050E1000874BE000810B50B4A938E9BB260
:106540001BB9BDE81040FFF719BD0123908E032150
:106550001A4680B2FFF7D6FEBDE810400023FF22A6
:1065600001210248FFF760BDE041002078BE00082D
:1065700070B5134D2B8D9BB2EBB10A240123288DEE
:106580001A4680B21946B0FBF4F0FFF7BBFE0023B9
:10659000FF2201210B48FFF747FD288D80B2B0FB99
:1065A000F4F304FB1300BDE87040012380B21A46E7
:1065B0001946FFF7A7BEBDE87040FFF7DFBC00BF7C
:1065C000E04100207ABE0008034B588D012380B2C1
:1065D0001A461946FFF796BEE0410020034B988DFE
:1065E000012380B21A461946FFF78CBEE041002015
:1065F00000220221FFF7D0BCC0F11100C0B2FFF7AA
:10660000F7BF0000034B988B80B2003818BF012001
:10661000FFF7F2BFE0410020034BD88E80B2003874
:1066200018BF0120FFF7E8BFE0410020034B988A24
:1066300080B2003818BF0120FFF7DEBFE041002024
:10664000034BD88B80B2003818BF0120FFF7D4BFAE
:10665000E0410020034B188C80B2003818BF0120A5
:10666000FFF7CABFE0410020044BB3F84C0080B2F2
:10667000003818BF0120FFF7BFBF00BFE041002076
:106680002DE9F04714460546002798468318802BCD
:10669000C8BFC0F180049DF82090DFF828A0C8BFD3
:1066A000E4B2CE10FBB233445AF8230022464946E6
:1066B0002844013705F092FBFB00DBB24345F1D1E2
:1066C000BDE8F087D04100201F232DE9F041B0FB49
:1066D000F3F41B4B0E201D78FFF78AFFC4F10A026A
:1066E00002F00701D3B2FF228A40D243C4F1EA0488
:1066F000144FD2B2E4B2092B34BF94464FF0FF0CD2
:10670000F32D8CBF01210D212E466FEA0C0C29447C
:10671000C9B2701CC0B2884208D1083BDBB2A342A8
:1067200002D00437002BE6D1BDE8F081D7F8008015
:1067300018F806E00EEA0C0E08F806E00646E8E750
:106740008C410020D041002030B4074B074D5C8CB9
:10675000002301460648A4B29C4208BF284630BC2C
:10676000FF22FFF761BC00BFE041002007BF000827
:106770007CBE00080128014630B40AD0022815D199
:1067800030BC0C4B588C80B2B0FA80F04009FFF757
:106790002FBF084B084D5C8C00230848A4B29C42D4
:1067A00008BF284630BCFF22FFF73EBC30BCFFF7D5
:1067B000CBBF00BFE041002080BE00087EBE0008C5
:1067C0000120FFF7D7BF000010B5214A93689068F9
:1067D000DB4380F0020003F0010300F002001843E5
:1067E0001FBF1C4B1A681C4B1A601C4A137883424B
:1067F00012D180B1174B1A4A1B6812689B1AB3F565
:10680000C87F21D30122174B90421A701ED0022854
:1068100014BF2020082010BD38B10343002013709E
:106820000C4B1A680E4B1A60F5E70E490C784CB900
:10683000012B02D0022B18BF10230020107008700B
:106840001846EDE70346F8E70020E4E70420E2E716
:10685000000C0140AC4400205842002004370020C6
:1068600000370020FC360020037B826810B530F82A
:1068700013400A44121B826020F81310013303F006
:106880000303037310BD000010B5044671B10C4B37
:106890000C481B68D96B1A6C11445A6C9B6C1144E0
:1068A000194489B2C90089B2FFF7DEFF054B9B6826
:1068B000C3F38F039B00B3FBF4F080B210BD00BFA5
:1068C000A04100209041002010B5094C0146E08D08
:1068D00080B2FFF7D9FFB4F8703014234043B0FB07
:1068E000F3F0044BC0EB00201B88B0FBF3F010BDAD
:1068F000E0410020BE01002010B50446002C0846EF
:1069000006DC094BD88D80B2FFF7BEFF002010BD1A
:10691000FFF7DAFFC4EB0424B4FBF0F0FF2828BF34
:10692000FF20C0B2F3E700BFE041002010B5012115
:10693000FFF7E2FF902804461AD9114B1A780AB1E2
:1069400000221A7014220F4B00201A800E4B1C706C
:10695000FFF7BAFFFF23E82144430C4AB4FBF3F4EA
:1069600013684B43182101FB04331B0A136010BD4D
:106970006F28E7D8024B1A78002AE3D10122E0E71A
:10698000C00100209E4400209C440020844100203F
:1069900008B5084B08481B68D96B1A6C11445A6C2F
:1069A0009B6C1144194489B2490089B2FFF75CFF1E
:1069B000084608BD2C46002064410020BFF34F8FDD
:1069C0000549064BCA6802F4E0621343CB60BFF38B
:1069D0004F8F00BFFDE700BF00ED00E00400FA05A7
:1069E0004AF6AA22014B1B681A6070471037002034
:1069F0004FF0E0204FF0805408B506490B68012B9A
:106A000005D9C0F8044DBFF34F8FBFF36F8FFFF769
:106A1000E7FFF3E7A845002008B568B100210B4661
:106A2000114A013332F8020BDBB2102B0144F8D1CA
:106A30000E4889B2FFF718FF0C4B0D499A680023E6
:106A4000C2F3CE0231F81300904207D2013331F87D
:106A5000130000EB8000400080B208BD02332E2BF3
:106A6000F0D14FF4E170F8E71C370020EC3600203D
:106A700058DA000838B50546A0B1FFF789FF0021B4
:106A8000FFF716FA04462846FFF7C6FF32235C4399
:106A900040F2E513B4FBF3F40A23B0FBF3F080B249
:106AA000204438BD024B9868C0F38F00E7E700BF71
:106AB00064410020002110B547F6FF70FFF7F8F998
:106AC00004460846FFF7A8FF32235C4340F2E51373
:106AD000B4FBF3F40A23B0FBF3F080B22044013896
:106AE00010BD0000037F082B01BF0022014B1B6873
:106AF000DA637047FC44002008B5036801461A6950
:106B000092070ED5DA6892070BD56FF002021A6170
:106B1000012202779B699B0701D1FFF7E3FF002366
:106B20000B770B681A69500710D5DA6852070DD534
:106B30006FF004021A6102220A779B6913F4407F06
:106B400002D10846FFF7CEFF00230B770B681A69C6
:106B500010070FD5DA6812070CD56FF008021A611A
:106B600004220A77DB699B0702D10846FFF7BAFFC8
:106B700000230B770B681A69D00610D5DA68D206A5
:106B80000DD56FF010021A6108220A77DB6913F441
:106B9000407F02D10846FFF7A5FF00230B770B6863
:106BA0001A69D00714D5DA68D20711D56FF001023F
:106BB0001A610B68B3F1804F0FD10C4A1388013B67
:106BC0009BB2138013880A4A9BB212680BB9D36335
:106BD00008BD084B1B789B08F9E7074A934201BFA1
:106BE000064A136801331360F2E700BF9E44002099
:106BF000FC4400209C440020002C0140A0440020C4
:106C000010B5FFF757FF04460020FFF733FF053CA0
:106C1000A4B284422CBF0020012010BD124AD388A8
:106C2000FF2B05D1114B196841F28733994218D9CE
:106C30004FF47A710E4B0120B3F87030938852886C
:106C4000B3FBF1F34B430A21B2FBF1F2B3FBF2F3D6
:106C500005339BB2132B81BF3222064B1B689A620D
:106C600070470020704700BF2C3E0020AC4400203D
:106C7000E0410020FC44002001207047044B054AFD
:106C80001B681068B3F820311844FFF7B9BA00BF89
:106C90001C4100201841002038B505461C24002264
:106CA00025FA04F303F00F03981C1146043CFFF788
:106CB00073F9231DF3D138BD38B5174B0446588CF2
:106CC00080B220B30020FFF7D5FE052300EBC00003
:106CD00090FBF3F303F12000104A137D156952F87D
:106CE000231042F82300013303F00303137501233B
:106CF0006D1A0544156103211A46C5F38F00FFF78D
:106D000001FB3CB1BDE838400220FFF733BDFFF77F
:106D1000B1FEE1E738BD00BFE041002010290020AE
:106D200013B590F83D30044603F0FF0200687BB9CC
:106D30001D4B84F83C20984228D103F50233DA69D0
:106D400042F00402DA61DB6903F004030093009B64
:106D50000223211D84F83D30FEF79AFB0123002019
:106D600084F8463084F83E3084F83F3084F8403070
:106D700084F8413084F8423084F8433084F8443059
:106D800084F8453084F83D3002B010BDB0F1804F3A
:106D9000DED1064BDA6942F00102DA61DB6903F009
:106DA00001030193019BD3E700080040001002405B
:106DB000134B10B5DB68C3F30223C3F107041A1D9C
:106DC000042C28BF0424062A88BFDA1E4FF0FF33A4
:106DD00098BF0022A34021EA0303002803FA02F32C
:106DE000ACBF00F16040074A4FEA0313DBB2B5BF06
:106DF00000F00F0000F56140135480F8003310BD1F
:106E000000ED00E014ED00E010B54CF250342049E4
:106E1000204B0868DA68D20733D4DA68910644BF99
:106E20002022DA60DA68D20606D4DA69D40703D4FD
:106E3000D86810F0040023D0164AD36813F010036A
:106E400005D01549CB6943F00203CB611023D2680A
:106E5000500706D5104943F00403CA6942F0010205
:106E6000CA610C4AD169C90708D50B48C16941F00C
:106E70000401C161D16921F00101D1610120D36018
:106E800010BD0A68121AA242C4D90320F8E700BF55
:106E9000A044002000200240F03B002070B5826A30
:106EA000044686B0002A39D1614B0168C26299421A
:106EB00080F8242003F56C4340F0838099694FF4F7
:106EC000807541F4007199619B695A4903F400731C
:106ED0000293029B584B4FF4806EC3E9001280214D
:106EE000C3E903152021C3E905E14FF4805153485C
:106EF0001A649A60D9618168D8636FF30D1141F407
:106F0000AD5181609A631D8423625C620F2112205F
:106F1000FFF74EFF4FF48022494B1A602046FEF7E0
:106F200003FAA36A13F010037DD100287BD1A26A73
:106F3000616822F4885222F0020242F00202E06903
:106F4000A568A262E2680143B5F5807F41EA42018B
:106F500052D06E1E7042704100026669012E07D148
:106F6000002A4BD1A269013A40EA423242F4006061
:106F70002268B5F5807F566826F4694640EA060027
:106F8000506096682F4800EA060040EA01009060D1
:106F900001D0012D02D12369013B1B05D06A20F4E9
:106FA00070000343D3629268274B134099422ED15D
:106FB0000023E362A36A23F0030343F00103A36207
:106FC0002FE09A694FF0010C42F480629A619B694C
:106FD0001E4803F480630193019B032302A9CDE9BA
:106FE00002C3FEF77FFA20230293FEF77BFA1023F9
:106FF0000293FEF777FA89E72846AEE7A26A42F0E5
:107000002002A262E26A42F00102E262B0E7A36AF1
:1070100023F0120343F01003A362E36A43F0010379
:10702000E36206B070BDA36A43F01003C7E700BF78
:1070300000240140080002405C460020000002409D
:1070400000E100E0FDF7E1FFFE0E1FFF0008014038
:107050001421D0E9003212881B6801FB02335A6800
:1070600002B11047187C362801D8FEF7BBBD704727
:10707000F0B54FF4804316460122002485B0CDE9D7
:107080000001CDE90232B44201D305B0F0BD68463B
:10709000FEF7FCFC019D10B36846FEF708FD0746AD
:1070A0006846FEF704FD009B02385A1C1B7800213D
:1070B00003EB0023DB4300922B44BA1C0234681E0E
:1070C00003EB020C634504D109B12A4401923C440C
:1070D000D9E713F8011B00F8011F0121F2E7009B1B
:1070E00001345A1C1B7800926A1C01922B70CAE76B
:1070F000F0B53A4B85B01A78FF2A0DD141F278519C
:10710000374AB2F8422092B28A4203D04AF2D711EB
:107110008A4231D000221A701B78012B5BD80C21D7
:10712000304A01FB0322567A5368F6090FD01589BD
:107130000093C5F30E051D442B4B012201934FF420
:107140008043CDE90232009B9D4217D8264B274A47
:1071500027491360274A03F59C73136026484FF4B0
:10716000F062FFF785FF4FF4CC722449244805B044
:10717000BDE8F040FFF77CBF0122CCE76846FEF790
:1071800085FC019FF8B16846FEF791FC841C6846B7
:10719000FEF78DFC009B02385A1C1B78009203EB13
:1071A0000023DB4300223B44791E1819834204D19B
:1071B000002AC8D03C440194C5E713F8012B01F81C
:1071C000012F3246F2E7009B5A1C1B7800927A1C72
:1071D00001923B70B7E705B0F0BD00BF040000208E
:1071E000E041002040DA0008282900201C4100204E
:1071F000D4030020184100203BD400083C020020AA
:10720000A3D2000808B5084A1F201378013303F001
:10721000010313700C225343044AD15AFEF7CCFCED
:10722000BDE80840FFF764BF0400002040DA000812
:1072300070B5154B154D06461C6828680430FEF7DE
:1072400092FA40B92A681249D06A01220B6882403A
:1072500023EA02030B602B68A4195C6007D30D4B73
:1072600018682968BDE870400431FEF765BA0A4B1A
:10727000186829680431FEF75FFA084B1A689442CF
:1072800038BF1C6070BD00BFAC440020904500209A
:10729000204600208C44002090440020844400209C
:1072A000174B10B51B6843B14FF0500383F311889F
:1072B000BFF36F8FBFF34F8FFEE7FEF7EFF9114B70
:1072C00002681B6851182CBF012400249A420FD970
:1072D0007CB90160FEF7EAFA48B94FF0E0234FF0BD
:1072E0008052C3F8042DBFF34F8FBFF36F8F10BDD3
:1072F0000CB98B42EDD20160C81AFFF799FFE9E79C
:1073000024460020AC44002008B50B4B1B680BB191
:10731000FDF77AFFFEF7C2F9FFF78AFFFEF7C6FA1C
:1073200048B94FF0E0234FF08052C3F8042DBFF36B
:107330004F8FBFF36F8F08BD2446002070B50E4EEF
:1073400035680544FFF740FA04465CB9FFF73CFA9C
:1073500004463220FFF7D8FF33689D420BD3002C40
:10736000F4D008E0FFF730FA04463220FFF7CCFFF4
:1073700033689D42E9D270BDAC44002010B5124A7A
:10738000B2F84A309BB2042B13D9FFF71DFA04461A
:1073900044B9FFF719FA04463220FFF7B5FF002C75
:1073A000F7D010BDFFF710FA04463220FFF7ACFF0C
:1073B000EEE74FF47A70BDE81040B2F84A309BB265
:1073C0005843FFF7BBBF00BFE041002010B5134C8E
:1073D000FDF724FF2368DB6D7BB90122236883F866
:1073E0006020FFF725FF4FF0E0234FF08052C3F8F5
:1073F000042DBFF34F8FBFF36F8FFDF729FFFDF70C
:107400000DFF2368D86D10B100222368DA650022D1
:10741000236883F86020FDF71BFF10BD9045002016
:10742000022321BB80F83E300122036802FA01F1F9
:107430001A6A22EA01021A621A6A11430D4A196293
:1074400093420AD0B3F1804F07D0A2F59432934211
:1074500003D002F58062934204D19A6802F00702D9
:10746000062A03D01A6842F001021A60704780F8B9
:107470004030D9E7002C014010B590F83D3004466B
:1074800003F0FF020BB980F83C200223206884F847
:107490003D30211DFDF7FCFF012384F8463084F8C0
:1074A0003E3084F83F3084F8403084F8413084F82E
:1074B000423084F8433084F8443084F8453084F80E
:1074C0003D3010BD022380F83D300368DA6842F099
:1074D0000102DA600B4A93420AD0B3F1804F07D021
:1074E000A2F59432934203D002F58062934204D114
:1074F0009A6802F00702062A03D01A6842F00102D5
:107500001A607047002C014013B500211920FFF7C5
:107510004FFC4FF000721B4B1B4C1A601B4B20465C
:107520009A6942F400629A619A6902F400620192D7
:10753000019A5A685A685A685A68154A12685B680C
:10754000144AC3F3C223D25C134B21611B68A160B0
:10755000D340124AB3FBF2F3114A013B226040F2DE
:10756000E7326360E260FFF7DBFB48B994F83D3037
:10757000012B05D1204602B0BDE81040FFF7A2BFA5
:1075800002B010BD00E100E04445002000100240C0
:1075900000200240F4E600081402002040420F00E0
:1075A000002C0140054B1A69120605D5044A5A60A1
:1075B00002F188325A601B69704700BF0020024008
:1075C0002301674590F82430F0B5012B62D00123E8
:1075D0001F2480F824300F694D680368EA1B02EB12
:1075E00082020F32944044F44014E443BD420E68DA
:1075F0009BBFD3F838C006FA02F29A6B07F1FF3747
:107600009DBF42EA07520CEA0404224322409A63D7
:107610009A68D20707D49A68CC6922F4E04222F033
:10762000010222439A608C69012C0CD1CA69B2F51F
:10763000E04F0BBF5A68826A42F4806242F0200237
:107640000CBF5A6082624A69012A04D11CBB5A6885
:1076500042F480525A60092E4FF007048F6806EBFF
:1076600046021DD9DE681E3A944026EA040407FA51
:1076700002F22243DA60022DC968154C18D0032D9E
:107680001BD0012D1ED15A6922400A435A610023A2
:1076900080F82430F0BD826A42F020028262DAE78C
:1076A0001E69944026EA040497403C431C61E2E7CB
:1076B0009A6922400A439A61E9E7DA6922400A435B
:1076C000DA61E4E71A6A22400A431A62DFE700BF80
:1076D00000F0FFFF10B590F824300446012B3DD098
:1076E000012380F82430FDF7E9FD00283FD1A36A8B
:1076F000214A23F4405323F0010343F48053A3624F
:107700002368934205D1A2F58062526812F4702F6B
:1077100025D1A26A22F48012A262A26A12F48072B7
:1077200008BFE262002284F824206FF004021A608D
:107730005A68520512D49A6802F4E042B2F5E04F5A
:1077400011D10D4A934205D1A2F58062526812F41C
:10775000702F08D19A6842F402129A6010BDA26A92
:1077600042F48012D8E79A6842F40042F5E7002319
:1077700084F82430F2E700BF0028014070B5124AB7
:10778000124B9468DB8DC4F38F049BB2A400B4FB4E
:10779000F3F40A26A4B2B4FBF6F50123284600222E
:1077A0000221FEF7AFFD0023FF2219460848FEF72D
:1077B0003BFC012306FB1540BDE870400022194642
:1077C00080B2FEF79FBD00BF90410020E041002045
:1077D00082BE00082DE9F0475D4B054693F8008016
:1077E0000024B8F1000F14BF32234FF0FF33594F7C
:1077F000594E01203B803480FFF75EFA002D3ED0C9
:10780000A04514BF22233223FF223B8001212346BF
:1078100052483480FEF708FCB8F1000F14BF002571
:1078200043250024DFF838913D80D9F800003480EA
:10783000B0F57A7F71D32346FF2221464948FEF7EF
:10784000F3FB0A23D9F800002246B0FBF3F0032132
:10785000012380B2FEF756FD0023FF22194642485D
:10786000FEF7E2FB08233D803380FFF787FFBDE88A
:10787000F0470023FF2219463C48FEF7D5BB3C4A9F
:10788000538A9BB263B313899BB24BB3B8F1000F19
:1078900014BF20232F2335803B80FEF731F9354B71
:1078A0001968354B1A68354B1B689A422CBFC1EBDF
:1078B0000201C1EB0301324B014499421DD94EF63E
:1078C0006023B1FBF3F1481C01232A46022180B258
:1078D000FEF718FD2B46FF2229462A48FEF7A4FB97
:1078E000B8F1000F14BF20232F233B8008233380DF
:1078F00000230222194624488CE74FF47A73B1FB27
:10790000F3F1481C01232A46022180B2FEF7FAFC5B
:107910002B46FF2229461D48E0E74FF00A08B0FB3E
:10792000F8F001232246022180B2FEF7EBFC234649
:10793000FF2221461648FEF777FBD9F800002246C1
:10794000B0FBF8F308FB13000123194681E700BFE1
:10795000884100208C4100208A41002084BE00081C
:10796000844100207EBF00088BBE00088DBE000849
:10797000E0410020AC440020584200205C4200203E
:10798000B882010086BE000888BE00088EBF0008CD
:1079900082BE00082DE9F041174B0A26DA8D174BFD
:1079A00092B29B68164FC3F38F039B00B3FBF2F3B5
:1079B0000A229BB2B3FBF2F402FB14339BB2042BFA
:1079C00088BF0134A4B20123B4FBF6F51A46194668
:1079D000A8B2B7F90080FEF795FC1022094B06FB10
:1079E00015401A800123A7F800801A46BDE8F0412F
:1079F000194680B2FEF786BCE0410020904100208D
:107A00008C4100208A41002070B50025214B04469E
:107A10001D80214B214E1D80214B1978E9B1FFF7C4
:107A2000B9FF20482B46FF220121FEF7FDFA012075
:107A3000FFF742F954B10220FEF7DAFD3068002169
:107A4000FEF75AFFBDE87040FEF73EBE2346FF2218
:107A500001211448FEF7E8FAF0E73068FEF74CFF22
:107A6000FEF732FE7CB10220FEF7C2FD0120FFF7D7
:107A700023F90023FF2201210A48FEF7D5FABDE8C9
:107A80007040FFF787BF2346FF2201210548FEF71C
:107A9000CBFAEBE78C4100208A4100208441002092
:107AA000884100207EBF000870B551B947F6EF72DB
:107AB000194B9B68C3F38F03934282BF0122174B7C
:107AC0001A70174C2378E3B9164A174D136883428E
:107AD000C8BF1060154BA9B9196029681B68CB1A7B
:107AE00044F620618B420CD9114B11681B688B4204
:107AF00007DD01225B1A022BD8BF084B2270D8BFCA
:107B00001A7070BD0A490E688642B8BF08601968CD
:107B10000029E2D12968DFE7644100207441002098
:107B20005441002010020020AC44002050410020AD
:107B30004C410020002080B5FEF7F8FE00232024F1
:107B4000DFF87C815F4DC8F800305F4B1A685F4BEF
:107B50001A600520FFF73AFC0120FEF78BFFE88D45
:107B6000012180B2FEF790FE013CF2D1FFF756F8FA
:107B7000002800F09380DFF85891564E4FF4FA60D9
:107B8000FFF724FC002800F095800120FEF772FF2B
:107B9000D8F800400746002C40F38780B4F5E17F19
:107BA000A8BF4FF4E174FEF785FFA04202DAFEF7AA
:107BB00081FF04464FF47A7A474A336811680020FF
:107BC0005B1ABAFBF3FA3368E41B1360FEF77CFE22
:107BD000AB8E01469BB243B10A22AB8E9BB253439C
:107BE0009842C2BFA98E89B251433C4B1B6823B156
:107BF0000A2253439942A8BF19468023B3FBFAF3E4
:107C00003748C3F1640302685343642293FBF2F3E1
:107C10001422544394FBFAF423448B4203DC49427C
:107C20009942B8BF1946016038460C46FFF73CFF41
:107C30002B8D9BB2F3B140F6C4116B8D29489BB2DA
:107C40004B4332680168521A934208D2FA21AA8D36
:107C5000336892B2036001FB0233234A13602B8D19
:107C60009BB29C4206DA204A336812689A4284BF6B
:107C7000298D8CB247F6DF721C4B9B68C3F38F03D0
:107C8000934288BF00241A4B1B78002B0CBF204660
:107C90000020FEF74BFEFEF7A3FE6FE74FF4FA60FD
:107CA000FEF79EFEFFF792FB60E70021FFF7FCFE68
:107CB0000024BDE71423A9F800300E4B18705DE7CF
:107CC00080410020E041002090450020284600200F
:107CD0009E440020AC440020604100205841002018
:107CE0005C4100207C41002078410020644100205C
:107CF000744100209C4400202DE9F74FA54B1C68DF
:107D000044B94FF0500383F31188BFF36F8FBFF373
:107D10004F8FFEE7256C45B14FF0500383F3118878
:107D2000BFF36F8FBFF34F8FFEE7FDF7E1FC40B964
:107D30004FF0500383F31188BFF36F8FBFF34F8F62
:107D4000FEE764212846DFF85092DFF850A2944FF6
:107D5000AEE021B9002D00F04F81FDF7D9FC20B92C
:107D6000D9F80030DAF800800093FDF771FAFDF7DA
:107D700095FCFDF753FA94F84430FF2B04BF002321
:107D800084F8443094F84530FF2B04BF002384F876
:107D90004530FDF75DFAFDF741FADAF8003000985A
:107DA000D9F80020904201D0434576D2A3EB0802D7
:107DB0008A4272D2C91A01EB08060021D9F80030B4
:107DC000DAF800800093FDF743FA002940F0A6801E
:107DD000FDF724FAA36B002B61D1A346FDF738FA17
:107DE0005BF8243B002B3FD1FDF718FAA568002D66
:107DF00037D03B68EA6ADB6A9A4280F087801421B8
:107E0000AB69002BA1BF3B68DB6AC3F10603AB6122
:107E1000644B01FB02326969914273D1291D084606
:107E20000191FDF7A0FCDFF880C101995D4B40B9DD
:107E30000120EA6ADCF800E090402EEA0000CCF86D
:107E400000003A68D06A0122E862DCF80050824003
:107E50002A43CCF80020142202FB0030FDF761FC1D
:107E60000121FDF7F5F90D46396858461831FDF73F
:107E700063FC3046FFF7DCF92046FDF7C7FDFDF750
:107E800015FD98B94FF0E0234FF08052C3F8042D50
:107E9000BFF34F8FBFF36F8F08E0012193E72046B8
:107EA000FDF7D6F9FDF7B2FDFDF700FD31460120E3
:107EB000FDF7B4F9A66B002E3FF44BAF2368013EEB
:107EC000A66343B9364B1A681AB119688A6D013234
:107ED0008A651B68A360236973B104F11000FDF784
:107EE0005BFD48B14FF0E0234FF08052C3F8042D02
:107EF000BFF34F8FBFF36F8FFDF7AAF9012003B0D7
:107F0000BDE8F08F3B68DB6AEB62A9E73B68696D0F
:107F1000DB6A99422CBF00210121A2E72046FDF730
:107F200075FDFDF7C3FCFDF779F9A36B13B1FDF700
:107F30008FF9BBE7FDF78CF9002D5FD0FDF76EF9E7
:107F4000636A1BB1236B1B68C3F10603A468002C92
:107F500052D0A16D41B94FF0500383F31188BFF3A4
:107F60006F8FBFF34F8FFEE7626D934238BF1346AA
:107F7000E26A934240D001293ED1094909688C4206
:107F800014D14FF0500383F31188BFF36F8FBFF309
:107F90004F8FFEE73C37002088440020AC4400208F
:107FA00090450020A845002020460020A169E362FA
:107FB0000029A4BFC3F10603A3611423104D03FBE2
:107FC00002526369934217D1261D3046FDF7CBFB61
:107FD0000C4AE46A28B901201368A04023EA000390
:107FE0001360012314201168A3400B4300FB0450CD
:107FF00031461360FDF795FBFDF72AF900207EE777
:10800000A845002020460020034B4FF400720021B9
:10801000186803F0E3BE00BFD041002038B5054624
:108020000C46FFF7F1FF2846FEF7EAF8074B084A2F
:108030001B6812689B1A41F28832934203D8201EB3
:1080400018BF012038BD0120FCE700BFAC44002070
:108050005842002070B504460D46FFF7D5FF224672
:108060000123117849BB013B03EB43039B009BB207
:10807000802B2DD91A4A928C92B2012A14BF142255
:108080000A22B5FBF2F103F1800209B291FBF2F092
:1080900002FB10117F2921DD99421DDC0BB2114A30
:1080A000C3F18003138000230F4A2046138001216F
:1080B000BDE87040FF22FDF7B7BFF02903D80132B9
:1080C00001339BB2CDE751780029CCD00232F7E7DB
:1080D000C3F1800203EB62031BB2E0E78023DEE71B
:1080E000E04100208C4100208A4100202DE9F3412D
:1080F0000646DDE908040F46984640B94FF05003A4
:1081000083F31188BFF36F8FBFF34F8FFEE70CB976
:10811000FDF77AF864230193019B642B08D04FF09C
:10812000500383F31188BFF36F8FBFF34F8FFEE7C8
:1081300095002A46A5212063019B03F04FFE226B88
:10814000043D2A4422F00702002F00F096807B1E97
:1081500004F133011F3713F8010F01F8010F08B1C3
:10816000BB42F8D1002384F853304346052B28BF87
:108170000523E3626365C3F106030021A3614FF0A9
:108180008073A1656161A16224616462E16584F824
:10819000601042F8043C404B26F0010642F8086C9F
:1081A00042F80C3C42F8201C403A2260FDF736F8B9
:1081B0003A4A3B4D13683B4E013313602B68002B4A
:1081C0005ED12C601268012A2ED132464FF0FF3C5E
:1081D00014201F4602F10801C2E9011CC2E9031183
:1081E00000FB03F10133062B775002F11402F1D1A9
:1081F0002D4A02F10803C2E9013CC2E903332B4BCB
:10820000176003F10801C3E9011CC3E90311284900
:108210001F6001F108000F60C1E9010CC1E9030012
:1082200024490A60244A1360244A254913680868CF
:10823000013313600123E26A9340034314200B606F
:1082400000FB0260211DFDF76CFAFDF701F81D4BE4
:108250001B6873B12B68DA6AE36A9A4209D24FF05D
:10826000E0234FF08052C3F8042DBFF34F8FBFF3CC
:108270006F8F204602B0BDE8F08184F8347074E757
:10828000104B1A68E36A002ACED12A68D26A9A4251
:1082900098BF2C60C8E700BFE75100089844002051
:1082A00090450020A8450020F8280020E428002060
:1082B00094450020904400208C4400200C2900208C
:1082C000204600208044002037B50446D0E9001045
:1082D000A569B4F90830226901956469842B0CBF43
:1082E000002303330094FFF701FF03B030BD00000B
:1082F0002DE9F843044640B94FF0500383F3118849
:10830000BFF36F8FBFF34F8FFEE7016C41B14FF0AA
:10831000500383F31188BFF36F8FBFF34F8FFEE7D6
:10832000FDF7E6F9FCF77AFFA26BE36B9A4272D293
:10833000226CA76B002A5FD12368B3B100250137F7
:10834000A763626A002A64D004F12400FDF724FBCD
:10835000002860D04FF0E0234FF08052C3F8042D86
:10836000BFF34F8FBFF36F8F55E0A5681DB9002590
:108370000022A260E3E72A4B1B689D4208D04FF021
:10838000500383F31188BFF36F8FBFF34F8FFEE766
:10839000AB6D43B94FF0500383F31188BFF36F8F78
:1083A000BFF34F8FFEE7D5F82C906E6D013BB145C2
:1083B000AB65DCD0002BDAD105F104084046FDF7AF
:1083C000D2F9184B30B901211A6801FA09F122EAF1
:1083D00001021A60C6F10602EE62AA6101251420AC
:1083E000196805FA06F20A431A600F4B414600FB72
:1083F0000630FDF796F9BBE7606803F0F7FC6368A9
:10840000226C1344A2686360934297D3236863602D
:1084100094E7002D9ED1BDE8F843FCF719BF00BFDB
:108420009045002020460020A8450020014B1868F8
:10843000FFF75EBF3C37002010B50446FFF75CFC39
:1084400048B15A20FDF7B6FCFDF71AFD30B9FDF72B
:10845000CFFCFFF7EBFF0024204610BD2046FDF7C0
:108460000FFD0028F3D04FF480020C24104B1A614A
:1084700000BF013CFCD15B20FDF79CFCFDF700FD3B
:108480000028E4D00821FDF7CBFC6400E4B20139F8
:10849000204311F0FF01C4B2F5D18022044B01202A
:1084A0001A61FDF7D5FCFDF7A3FCFFF7BFFFD3E78B
:1084B000000C014070B506460D461446FFF71CFC43
:1084C00048B1F0B2FDF776FCFDF7DAFC30B9FDF704
:1084D0008FFCFFF7ABFF0024204670BDE8B2FDF72C
:1084E000CFFC0028F3D0FEF77BFA2078FDF7C8FC1C
:1084F00004460028EBD0FDF77BFCFFF797FFEBE786
:1085000007B58DF807100DF1070201465A20FFF755
:10851000D1FF03B05DF804FB2DE9F74FA84BA94F3D
:10852000B3F87020B3F850303A469BB2012B4FF0AD
:1085300000030CBF4FF019084FF01408C0263D4649
:1085400002F8083BBB60C7F816307B62C7F83230D0
:10855000C2F80330C7F81930C7F82730C7F83530EC
:108560003046FFF769FF8246701CC0B2FFF764FF18
:108570000446B01CC0B2FFF75FFF8146F01CC0B2DA
:10858000FFF75AFFBAF1000F24D000F0C003C02B50
:1085900040F0A080C3010120DBB2C9F347094B447E
:1085A00003EB830303EB83039B0004EB84049AB285
:1085B0000AF07F0304EB840403EB8303A40003EBC2
:1085C0008303A1B25B003881F982BA847B862B7861
:1085D00001332B700436F6B2DC2E07F10207BFD14F
:1085E000794BFF24019300239A461E461F4695F8B7
:1085F0000090994500F38780FF2C68D0EB889C425F
:1086000065D0BAF1000F00F0B480A1455FD305EB4F
:1086100044039B8CBB425AD304F1080805EB480382
:10862000DB88BB4253D805EB44035B8EB3424ED389
:10863000231D35F81330012B49D14220FFF7FCFEF2
:10864000152807D114214220FFF75AFF01214120AC
:10865000FFF756FF4220FFF7EFFE1428814636D180
:1086600004EB04114620C9B2FFF74AFF322105EBA3
:108670004808B8F80680B6FBF1F1A7EB080898FBAC
:10868000F9F8DE205FFA88F9C9B2FFF739FFC8F3BD
:1086900007284946F420FFF733FF4146F520FFF74E
:1086A0002FFF4946F620FFF72BFF4146F720FFF743
:1086B00027FF01214320FFF723FF6E807E43434BBA
:1086C000AF80B6FBF3F6424B023EEC801E6003B077
:1086D000BDE8F08F4FEA8912C4F3870302F4707289
:1086E0001A44240202EB820204F4407404EB0A00F0
:1086F00002EB820200EB8003520092B25B00114653
:1087000000209BB25FE70199019AB1F82CE031F8A3
:1087100002CFD28B0191BCF1000F04D0BCF1010F4C
:1087200014D0013365E744F61F6B511E89B25945D9
:10873000F7D8B2FBFEF10A2041438845F1DB9742AE
:10874000EFD276461746DCB2E246EAE70A2144F663
:10875000206BBEFBF1F15A45A8BF5A4608FB01F158
:108760009142A8BF11468F42DBDA7646DCB28FB267
:10877000EAE7A145ABD9231D35F81330002BA6D16C
:108780004220FFF759FE1528A1D104EB0411462021
:10879000C9B2FFF7B5FE01214320FFF7B1FE05EB9B
:1087A000440305EB4402528E9B8C6A80AB8053439A
:1087B000064AEC80B3FBF2F3054A023B136086E7FE
:1087C000E04100202C3E0020323E002040420F00BD
:1087D0005841002008B5274B40221846002103F0DD
:1087E000FDFAFF220221C2804120FFF789FE6420AA
:1087F000FEF78AFD15214220FFF782FE012141206C
:10880000FFF77EFE6420FEF77FFD0125FFF784FE63
:10881000194CFCF703FD236893F86030022B12D04B
:1088200023683220DA6DDA65236883F86050FEF73A
:10883000FFFC4FF0E0234FF08052C3F8042DBFF34C
:108840004F8FBFF36F8FFCF703FDFCF7E7FC236846
:1088500093F86030022B01BF2268D36D03F07F4391
:10886000D3650022236883F86020FCF7F1FCFFF752
:1088700053FECEE72C3E00209045002007B50A4B62
:108880005A3893F84020C0B2824209D083F84000A1
:108890008DF80700802178200DF10702FFF70AFE0E
:1088A00003B05DF804FB00BFC101002010B5094C06
:1088B000B4F8460080B2003818BF0120FDF79CFED6
:1088C000B4F84600BDE8104080B2003818BF01205F
:1088D000FFF7D4BFE0410020F7B50D46044600265F
:1088E0000C4F6378782021780DF107028DF807305E
:1088F000FFF7E0FD60B1A3782BB1396801333A6826
:10890000521A9342FBD80136AE4204F10304E8DB6D
:1089100003B0F0BDA0440020064B93F82E20824205
:1089200006D083F82E00022103F12A00FFF7D4BFFE
:10893000704700BFC1010020192310B5094CB4F8DD
:10894000480080B2B0FBF3F00123013080B21A4638
:108950001946FDF7D7FCB4F84800BDE81040C0B296
:10896000FFF7DABFE041002038B50446FFF7C4F94D
:10897000B8B17820FDF71EFAFDF782FA28B9FDF7A5
:1089800037FABDE83840FFF751BD064D15F8010B29
:10899000FDF776FA0028F2D0013CA4B2002CF5D104
:1089A000EDE738BD6442002008B5FDF78FF828B127
:1089B000BDE8084040F21120FFF7D6BF08BD000017
:1089C00070B50446094D2E6829682046891BFFF7BB
:1089D00041FBFDF7F9FE28B9FFF7E6FF2820FEF777
:1089E00093FCF1E7431E5842584170BDAC4400204F
:1089F00008B50B4BB3F84C309BB273B9094B0A4A1C
:108A00001B6810689B8A1844FFF7DAFF38B1012110
:108A1000BDE808402420FDF7CFB80021F8E708BDE5
:108A2000E04100201C410020184100202DE9F74FB3
:108A3000DFF88081604FD8F81420604D12B1002318
:108A40003B6013E06B8C9BB2002B6ED0E988AB8847
:108A500089B29BB28B4228BF0B461F2BC1BF092294
:108A6000203B03EB8303B3FBF2F23A60688C80B2E5
:108A7000002862D00020FDF7FDFF052300EBC000B9
:108A800090FBF3F42034A4B22E8CDFF834A1B6B2FC
:108A9000DFF83091002E58D00026FFF7B5FA4A4B88
:108AA000FF221B6831460193484BAAF80060D3F8B7
:108AB00000B0019BA9F80060988C33465844FDF73C
:108AC000B3FA0823A9F80030019BFF22D88C314665
:108AD00033465844AAF80060FDF7A6FA012332464F
:108AE00003212046FDF70EFC6B8C9BB24BB3334643
:108AF000FF2231463648FDF797FA0023FF22194638
:108B00003448FDF791FAFEF739FE0023FF2219469B
:108B10003148FDF789FAFFF747FFFDF709F850BB29
:108B2000D8F8040003B0BDE8F08FEA88AB8892B2B1
:108B30009BB2934228BF134682E7FDF79BFF84B2A6
:108B4000A2E7FF2219462548D5E7FFF75DFA33462D
:108B5000FF2201212248AAF80060A9F80060FDF771
:108B600063FA012320461A460321FDF7CBFB0220BE
:108B7000FDF700FECFE76B8B9BB263B1194B196811
:108B800049B1194B1A686B8B521A4EF660219BB291
:108B90004B439A420AD8FDF717FE082806D0D8F8AA
:108BA0001430002B0CBF07200820BBE70023042053
:108BB0003B60B7E72441002080410020E0410020D5
:108BC0008C4100208A4100201C41002018410020D7
:108BD0007CBE00087EBF00088DBE000807BF0008ED
:108BE0008FBE00085C420020AC44002008B5084B52
:108BF0001A7882420BD01870064B523858701020E9
:108C0000FFF7B2FEBDE808400A20FEF77DBB08BDB5
:108C1000444100206442002070B5134E044633786E
:108C2000834220D000280BBFC025C825A123A02344
:108C30000E48192103770574FFF74EFE0A20FEF750
:108C400063FB00220A4B40F211205A717F225D72B1
:108C50003470DA71FFF788FE0A20FEF755FBBDE895
:108C60007040FCF733BF70BD88410020C101002077
:108C7000644200202DE9804814208FB0FEF744FBA9
:108C80000722484B32201A60FEF73EFB0023464F76
:108C9000464D3B602B8B9BB21BB14FF4FA60FEF745
:108CA00033FB0AAE10220021304603F097F8102261
:108CB000002106A803F092F81022002102A803F078
:108CC0008DF84FF00008DFF8E890C82240F6E44144
:108CD0006B8A0DF1180C9BB202FB13130193354BF9
:108CE00041F288329B6813F0080F08BF00222B8ADC
:108CF0000EAB03EB480323F8102C23F8202C23F8A9
:108D0000302C99F8003008F101083BB95FFA88F37C
:108D1000D9B208293CD1012389F800300024B24699
:108D200020462146234608F007080DF1080E3AF9BF
:108D300002BB01345B443CF902BBE4B259443EF946
:108D400002BB082C5844F2D1002BB8BF0733C2EB4A
:108D5000E303002BB8BF5B420029B8BF0731C2EB69
:108D6000E1010029B8BF49420028B8BF0730C2EB73
:108D7000E002002AB8BF52420B441344019A642017
:108D80009A42BEBF0C4B1B683B60FEF7BDFA9CE7E6
:108D900002A926F813202CF8132021F81320013300
:108DA000B6E700BF484100205C420020E0410020BF
:108DB0004541002000080140AC440020062008B5D1
:108DC000FCF710FF054B188A80B210B1012800D0C3
:108DD00008BDBDE80840FFF71FBF00BFE04100200D
:108DE0002DE9F04778223149314803F00DF8002889
:108DF0004CD0FDF7F5FD35222E4BDA60FEF7D2FBA5
:108E00002D4A116813685B1A012BFBD92B4CFDF717
:108E1000E7FD237E012B18D001232376FDF7F4FF15
:108E200088B9244DE0612B6943F002032B61204B8C
:108E30006B612B6943F040032B61FDF7E5FF2B6964
:108E400023F002032B6100232376FEF7ABFB4FF0E8
:108E50000109164F164D174EDFF86480FDF7C0FD6F
:108E6000237E012B08D0B7F800A084F81890FDF7F6
:108E7000CBFF68B1002323760235454507F1020791
:108E8000ECD10C4A136943F080031361BDE8F0870D
:108E9000E061336943F001033361A5F800A0FDF7F9
:108EA000B3FF336923F001033361E3E7E0410020BE
:108EB00000FC000800200240A0440020F03B0020FD
:108EC00078FC00082DE9F04F89B0FFF79DF8FDF719
:108ED0007BFC0446002800F098800120FFF786FE06
:108EE000B04B1F68072F00F0D38600F3F080032FEC
:108EF00001F0938200F3A780012F01F06680022F1A
:108F000000F02E81002F00F068824FF0000AA64B7F
:108F1000DFF89892C3F800A0B9F82E00514680B24D
:108F2000FDF7B2FC5046FDF7A5FDA14BB9F81E6058
:108F30001D78A04F554514BF32234FF0FF33DFF8A3
:108F40007882B6B283463B80A8F800A0002E00F0DD
:108F50007C83FDF755FE002800F04483002D00F0CF
:108F60003883964B38220093514620233620FCF755
:108F7000BDFF4FF0FF323A80914AB9F82E30966823
:108F80009BB2C6F38F06B600B6FBF3F64FF00A0AA3
:108F9000B6B20123B6FBFAF91A4602214846FDF79C
:108FA000B1F90023FF2201218648FDF73DF8012396
:108FB0000AFB19601A46194680B2FDF7A3F9002D85
:108FC00014BF30235B233B800823A8F80030002324
:108FD000FF2219467C48FDF727F87C4D002C00F055
:108FE000A183AB89002B00F0B9800123042CAB8155
:108FF00000F0718400F299839C4200F09D83022C62
:1090000040F0AC800927AB60C6E0FDF733FD3128A6
:109010003FF663AF654B5B8A9BB2002B3FF45DAFBD
:109020006B496C4A0B6812689B1A4EF66022934299
:109030007FF653AF0B68684909685B1A93427FF665
:109040004CAF20464AE7052F584E604D00F07C8318
:10905000062F7FF45AAFAB8913B9B6F854302B837F
:109060004FF47A7BB6F85630082C9BB2BBFBF3FB6F
:1090700000F03D84102C00F03A84708C80B20028FF
:1090800000F055840020FDF7F5FC052300EBC0003F
:1090900090FBF3F808F120081FFA88F82B6913B940
:1090A0004B4B1B682B616A8B2B8B002A40F045844D
:1090B0009845A5F81A80C0F04084484B484A1B6880
:1090C00010685B8D21461844FEF7A8FF46E00B2F81
:1090D00000F0E3853CDC092F3C4D01F027800A2F8E
:1090E00041F0AE810026DFF8CC80DFF8CC9033462B
:1090F000FF2231463B482F7BA8F80060A9F80060AA
:10910000FCF792FFA8F800604FF008083648334695
:10911000FF22314650F82700A9F80080FCF784FFB1
:10912000474500F01D8700F29686042F00F0EF8679
:1091300000F28A86022F00F0D986032F00F0E28623
:10914000012F00F0C786022C40F035870323CFE3C0
:109150000C2F00F093800D2F7FF4D7AE04271BE077
:109160001A4DAB89022B43D013D8CBB91F4E33789D
:109170005BB11A4B1A4A1B6810689B882146184439
:10918000FEF74CFF18B1002333700123AB81022797
:1091900002E0032B4CD00027384609B0BDE8F08F21
:1091A000AF81F4E70C02002080410020E041002064
:1091B000884100208C4100208A4100202C40002062
:1091C000904100207ABE00088DBE00082441002096
:1091D000AC4400205C420020584200201C4100208A
:1091E00018410020A9BE000828E600082A3E0020F9
:1091F000BC4B1B68002BCAD0012B17D1BA4BDB8F9D
:109200009BB2012B12D8B94BB94A1B681068DB8896
:1092100021461844FEF702FF0028B8D003231D2082
:10922000AB81FCF7DFFCFFF7DBFDB0E70323ADE725
:10923000FEF762FDA0B9AC4BB3F840309BB2012BF6
:109240001AD8AA4BAA4A1B6810681B8921461844E1
:10925000FEF7E4FE00289AD004231E20AB81E0E74D
:109260005A20FCF7A7FDFCF70BFE0646FCF7C0FDF5
:10927000FFF7DCF8002EDED0042387E79D499E4AE5
:109280008B89072B84BF00238B818D893DBB9B4F2E
:109290009B4E92F800802B46FF22294699483D803C
:1092A0003580FCF7C1FE0823FF222946964833800B
:1092B0002B463D80FCF7B8FE2B46FF2229469348FB
:1092C000FCF7B2FE01232A4602214046FDF71AF8B8
:1092D0002B46FF2229468D48FCF7A6FE07E06B1EB1
:1092E000DBB202EB4300808C40B901358D81FFF782
:1092F0005BFB022C41F0998003274DE74FF47A790C
:1093000002EB4301043332F813300026012BB0FB8B
:10931000F9F3DFF8E8B1DFF8E8A1B1F816804FF013
:10932000FF024F8E774831460293334618BF4FF005
:109330000008ABF80060AAF80060FCF775FE08238F
:1093400032460221AAF80030E8B20123ABF80060EF
:10935000FCF7D8FF3346FF2231466C48FCF764FE29
:10936000C8450CD3012332460221B8FBF9F0FCF7C3
:10937000C9FF3346FF2231466548FCF755FE0123FD
:10938000002202210298FCF7BDFF0023FF221946AC
:109390006048FCF749FE002364261946FF225B481B
:1093A000FCF742FEB7FBF6F5012300220221284616
:1093B000FCF7A8FF0023FF2219465748FCF734FEAC
:1093C000002306FB15701A46022180B2FCF79AFFB3
:1093D0000023FF22194651487EE7FEF715FE504B49
:1093E000D3F800284F4B9A4235D110234E4A03F14F
:1093F000006101F57041506891F8F547C45491F847
:10940000F407516819440233702B4870EFD11023D0
:1094100003F1006101F57041906891F85548C4541A
:1094200091F85408916819440233702B4870EFD1B9
:10943000FFF7BAFAFDF7A2FFFEF7E6FD2A4B1A8BFB
:1094400092B2022A40F0AD800023384A1360384AB5
:1094500013600727A0E6374A1378AA2BECD1DFF870
:109460008880B8F84A309BB2002BE5D092F8019082
:109470000126FEF7C9FDDFF8C0A0FDF7A5F90546F6
:109480000028D9D116F80A4006EB0A07FE2C00F096
:109490008680FF2C52D0002C5DD04FF0600B7B1CDF
:1094A00064080293A54252DA029B13F81530013585
:1094B000B3FBFBF0602B0BFB103006AB17F815204D
:1094C00000934FF0080300F110008DF8182038BF0A
:1094D00019464FF0010228BF1021C0B2FCF706FD6B
:1094E000E0E700BF48410020E04100201C4100208F
:1094F00018410020244100202C3E00208C410020F7
:109500008A41002096BE00089FBE00087EBF00086A
:1095100094BE00088DBE000882BE0008A5BE0008EB
:1095200000F0000855AA0DF0D0410020584200205C
:109530005C42002000F8000801F8000810236022B7
:109540000137082118460097FCF7D0FC1446FFF7B6
:109550002BFA64000134FFF727FA2644B9F1000F13
:1095600003D04FEA8900FDF7CFFEB8F84A309BB22E
:10957000002B82D040F2FD339E4202DC002C7FF4AF
:109580007CAFB8F84A309BB2062B7FF453AF4FF450
:10959000C870FDF7B9FE0126FEF736FD6DE7012420
:1095A000D9E71A8B92B2012A07D1A54BA54A1B68AD
:1095B0001360A54A13600527EEE51B8B9BB2032BB6
:1095C0007FF4CCAD00239F4A13609F4A13600827A5
:1095D000E2E59E4B38220093294620232846FCF7DB
:1095E00085FCC8E4B9F81C309BB26BB1BBF1370FF6
:1095F0000ADD4FF47A72924B1B68B3FBF2F102FB67
:109600001133B3F5967F02D30120FDF755FB002DF2
:1096100014BF062349230026B9F80400324603216B
:109620003B8080B20123A8F80060FCF76BFE304657
:10963000FDF78AF8B54214BF334643233B80082325
:10964000A8F80030FEF79AF8C1E4002D3DD0804B19
:1096500038223146442000932023FCF747FC7D4B01
:10966000314600930C202023FCF740FC3E80FEF79F
:1096700091F9FDF7C5FA064618B9BBF1370F7FF728
:10968000ACAC002D33D000253822202329464420BD
:109690000095FCF7F5FF3822A8F800503A80002E1C
:1096A00038D1B9F81C309BB25BB14FF47A72644B7D
:1096B0001B68B3FBF2F102FB1133B3F5967FFFF4A5
:1096C0008CAC0020FDF7F8FA87E4634B382229467A
:1096D000284600932023FCF709FC604B29460093A1
:1096E0003A202023FCF702FC74233B80BFE72023B1
:1096F0003822294628460095FCF7C2FF3D80A8F88D
:109700000050002ECDD0564B3822009329462023FE
:10971000284604E0534B2946009336202023FCF7CB
:10972000E5FB5AE40123AB8118E5082C7FF416AD64
:109730000423AB600A272FE5FDF762FA00287FF4C7
:109740000DAD0223AB6036E700216961738CEA89B5
:10975000454F9BB2002A43D0002B3DD0338E9BB2A5
:109760001F2BC1BF0922203B03EB8303B3FBF2F1A4
:1097700039600020D7F80080FDF77CF9A8EB0008DD
:1097800008F10A08B8F1140F39D82B8B33B92C4BD8
:109790001B6803F24D132B6101232B832B690BB143
:1097A000274B1B68338CE8899BB2003818BF012017
:1097B0003BB3FEF70FF8FCF7BBF900287FF449AE86
:1097C0002A4B93F80080B8F1000F1DD018700123C8
:1097D0003860AB600D27DFE4338E9BB23B60C8E797
:1097E0005BB1B3889BB21F2BC1BF0922203B03EBA7
:1097F0008303B3FBF2F23A60BBE7B388EDE70023E3
:10980000CBE7FEF701F9D6E7AB89012B5CD9202C19
:1098100032D1174A032B1168164A12680CD1888975
:1098200021461044FEF7FAFB00283FF4C4AE0123A2
:10983000C5F81C80AB81BEE648892146104432E061
:10984000AC440020584200205C42002061E3000844
:109850004C3F00206C3E002021E5000841E4000858
:1098600061E300082C40002080410020744100206A
:109870001C41002018410020EB692BB1A24A12685C
:10988000934209D8C5F81C8084B1042C11D09E4B9A
:109890001B6803F57A73EB6121469C4B9C4A1B685D
:1098A0001068DB891844FEF7B9FB84E60323AB811B
:1098B00081E6338E9BB2002BE9D0F38C9BB2012B57
:1098C000E5D10123EB8176E6042C15D008D88CB1C4
:1098D000032C3FF470AE02228E4B9A600B275BE4A0
:1098E000102C04D0202C0CD0082C7FF464AE012363
:1098F000AB6033E4EC605EE6338E9BB2002BE0D1CC
:1099000059E6F28C92B2002A3FF455AE7F4A1168B4
:109910007F4A12684BB9488921461044FEF77EFB06
:1099200000283FF448AE0223C1E7888985E7FDF7A8
:10993000A1F81FFA80F8FFF7B1BBDFF8CCA12969C5
:10994000DAF80020A2EB01094FF47A72B9FBF2F9C0
:109950006A8B1FFA89F99A4207D2984580F0D18024
:10996000A8EB03014A424A4104E0F9D998458CBF6B
:1099700000220122E98949451BD8D2B1DAF800104A
:10998000AA892961B6F85210013292B289B28A428C
:10999000AA816B8340F2CE804FF47A7BB6F86C30AC
:1099A0004FF000099BB2BBFBF3FBA5F80E90A5F8A6
:1099B0001890B6F85230AA899BB29A420BD900206F
:1099C000FDF758F8362806DC6B6923B9DAF8003061
:1099D00003F24D136B616A8B2C8BA24280F0E880FE
:1099E000DAF8003029685B1AB3FBFBF313449BB22F
:1099F0009C4228BF1C46308C80B2002800F03D817C
:109A0000EB89454A0293454B03211B784046002BC6
:109A1000039314BF3023002313804FF00002404B08
:109A2000B5F80CB01A8001230022FCF76BFC002370
:109A3000FF2219463B48FCF7F7FA012300220321D5
:109A40002046FCF75FFC738C9BB2002B00F0C180BA
:109A50000023FF2219463448FCF7E6FABBF1000F59
:109A600013D0B6F852309BB29B450ED8039B2A4ABE
:109A7000002B14BF2423372313800022284B584681
:109A80001A8001231946FCF73DFC039B224A002B58
:109A900014BF2A23002313801023214A1380BBF113
:109AA000000F40F09A80194B1B68188C184BFF224E
:109AB000D3F800C0002360441946FCF7B5FA002033
:109AC000FDF788FE728C194B92B24AB11F2CC1BFB0
:109AD0000922203C04EB8404B4FBF2F4D8BF002438
:109AE0006A691C6022B1DAF800108A427FF636AB50
:109AF0000F4A1178002900F0C3800021196011700D
:109B000068E6012236E700BFAC4400201C4100207B
:109B100018410020244100208C4100208841002071
:109B20008A410020A7BE00087CBE000880410020BA
:109B300074410020032A2FD017D8012A1FD0022AEF
:109B400024D04FF47A71B5F80EB02A8B01FB0BFBD1
:109B50009A428BBFD21A9B1A9BFBF2FB9BFBF3FB37
:109B60004FF000091FFA8BFB23E7042A1AD0052ABD
:109B7000E7D1B6F86A20EA81B6F8682004E0B6F8C2
:109B80005A20EA81B6F858202A83DAE7B6F85E2030
:109B9000EA81B6F85C20F7E7B6F86220EA81B6F809
:109BA0006020F1E7B6F86620EA81B6F86420EBE7BA
:109BB0007FF621AFDAF8003029685B1AB3FBFBF3BC
:109BC000D31A9BB29C423FF616AF9A4228BF1C465E
:109BD00011E7FF221946A9483EE7B6F852309BB27A
:109BE0009B4503D9A64B1B68588C5FE74FF03C0B95
:109BF0000123B9FBFBF8194600221FFA88F0FCF795
:109C000081FB0023FF2219469E48FCF70DFA002332
:109C10000BFB18901A46022180B2FCF773FB00235D
:109C2000FF2219469848FCF7FFF9029B0233994539
:109C300008D34FF47A72DAF80030B3FBF2F3DB07A3
:109C40003FF53DAF4FF03C09029B0022B3FBF9F812
:109C5000012340461946FCF755FB0023FF22194615
:109C60008848FCF7E1F9029B022109FB1830002328
:109C700080B21A46FCF746FB21E7FDF7C5FE21E757
:109C8000AB89002B3FF488AAB6F85230FFF784BAAC
:109C900009B0BDE8F04FFEF7C9BE00227B4B7C4DFA
:109CA0001A60AB892BB90CB90123AB810023EB817E
:109CB0000CE0042C00F09D8079D8012C754B00F04D
:109CC000A580022C00F09180002CEFD00023EA89BF
:109CD000704CC2F59672632ADCBFC822EA81E28E1C
:109CE00092B20AB15B421BB2E3B1A18883EAE3728C
:109CF000A2EBE372194409B213B291FBF3F15143A1
:109D0000638C09B29BB2002B00F082803C2940F2A8
:109D10005233B8BF3C219942A8BF1946002089B2EE
:109D2000FBF74AFF08235C4A13805C4A13805C4BB4
:109D3000E78E1E78BFB2002E73D00023DFF864C117
:109D40005948FF2201219F4208BF6046FCF76CF989
:109D50000023FF2201215548FCF766F90123A08862
:109D60001A46032180B2FCF7CDFA0220FCF702FD6F
:109D70000023FF2201214D48FCF756F9E48EA4B2DE
:109D8000002E58D00023484E4648FF2201219C4215
:109D900008BF3046FCF748F9454B464A1B68126835
:109DA0009B1A40F6B83293427FF698AD03E0082C38
:109DB00008D0102C8AD1FFF713F801236F68AB602D
:109DC000FFF7EAB93A49EA892B690868D31A0344CC
:109DD000B3F5967F7FF67AAF2E4B1B8F5B420968F7
:109DE00021321BB22961EA8171E75B8F5B421BB2B2
:109DF0006DE72F49EA892B690868D31A0344B3F544
:109E0000967F7FF663AF234B1B8FE8E75B8FEEE710
:109E10000A29B8BF0A21B1F5E17FA8BF4FF4E1716B
:109E20007CE7DFF884C01F483346FF220121002F62
:109E300008BF60468AE733461B481A4EFF220121BD
:109E4000002C08BF3046A5E7062F6BD0072F62D144
:109E5000FCF730FE62E00C2F00F0A6802ED80A2F0F
:109E600000F089800B2F40F08480134B012198680B
:109E7000C0F38F00FCF71CF877E000BF07BF0008B5
:109E80001C4100207ABE0008A7BE000880410020C7
:109E900024410020E04100208C4100208A41002024
:109EA0008841002094BE000884BE00087EBF0008E0
:109EB000AC44002058420020644100200E2F76D090
:109EC0000F2F76D00D2F7FF43EA9884B1868FBF733
:109ED000EDFB4AE0864BD3F8E867D3F8EC07FCF7D4
:109EE000DBFE3046FCF7D8FEFFF72DB9814BFF2291
:109EF0001E6800231946804850F82600FCF794F8A5
:109F0000FFF721B90023FF2219467C48F6E7FDF749
:109F100035FCFFF718B90020FCF7ACFD0123002247
:109F200006211BE00020FCF777FD0A26B0FBF6F0C7
:109F300001230022394680B2FCF7E4F90023FF2216
:109F400019466F48FCF770F80020FCF765FDB0FB80
:109F5000F6F303FB160001230022194680B21FE02E
:109F6000684B18686423B0FBF3F00123002208213A
:109F7000F4E7654BF5E7654E002206210220B6F8AE
:109F800070300123FCF7BEF90023FF2219465C481C
:109F9000FCF74AF80022B6F8703001231046194643
:109FA000FCF7B0F9FFF7CFB8584B588EDDE7584BA8
:109FB0008CE7584B8AE7012C7FF4BCABAB890133AB
:109FC00003F00F03AB81FFF7B5BBFCF727FE034699
:109FD00080B9514A19461080504A1080504A126880
:109FE000D08A504A1468FF222044FCF71DF801274C
:109FF000FFF7D2B8FCF704FE064600287FF4C7A896
:10A00000FCF738FD05463046FCF706FD0A23B0FB99
:10A01000F3F080B22D1A002DB8BF6D42092D3FF725
:10A02000B6A83F4BDFF800811E683E4B1D68B8F8AC
:10A030000C300F2B40D8334CD8F8142023689B1ACF
:10A04000642B0ED9FCF7A4FCD8F810300344C8F8F0
:10A050001030B8F80C300133A8F80C302368C8F879
:10A0600014300024F08AB8F80C70DFF8AC90DFF8F8
:10A07000AC8028442346FF222146A9F80040A8F8D6
:10A080000040FBF7D1FF0823FF22A8F8003021464B
:10A0900023461B48A9F80040FBF7C6FF184DC7F33D
:10A0A0008707E3B2BB42A2D20023FF22194628460B
:10A0B000FBF7BAFF0134F4E7D8F810003946C0F3D3
:10A0C0000F10FBF7F5FE81B21720FBF775FD308806
:10A0D00021462844FDF7A2FF002888D00021242033
:10A0E000FBF76AFDFEF77CFEFFF706B9144100207E
:10A0F00000F0FF1F4841002004E6000888BE000869
:10A1000082BE0008AC4400205C420020E0410020F8
:10A11000104100200C4100208C4100208A41002089
:10A120001C4100201841002024410020EB89AE8909
:10A13000002B00F0AC80A84A013B52F826809EB26A
:10A14000142340F6B730DFF89492A5497343D9F849
:10A1500000200968CDF81480521A8242ADF81260CE
:10A1600008EB030A40F2968018F80330002B00F049
:10A17000918001236B839B4B9AF800001B68D9F8F0
:10A18000002003EB40039848B3F852300068A2F671
:10A19000B832511A1844FDF75DFF2B8B23B980218B
:10A1A0004046FBF7F1FC28836B8B002B56D1711CCA
:10A1B000404689B2FBF7E8FC804618B100F1FF3851
:10A1C0001FFA88F820262B8B9AF81000B6FBF3F6BE
:10A1D000002E08BF01263628F6B27AD80293FBF784
:10A1E00023FD029B80F00100C0B2FA21D9F80020C3
:10A1F000B2FBF1FC01FB1C227C2A00D970B34FF0AA
:10A20000010B4FEA4818B8FBF3F80BFA06F6013ECB
:10A210005FFA88F806FA08F6F3B25A4600217F2062
:10A2200000930823FCF72CFAC6F3072300930823B6
:10A230005A4619467F20FCF723FAC6F307435A46CD
:10A2400010217F200093360E0823FCF719FA08230B
:10A250005A4618217F200096FCF712FA05AB0693A8
:10A26000042C0DF11203079349D034D8012C6DD082
:10A27000022C00F08E80002C39D02B69C3F5967328
:10A28000632B3EF689AFC8232B61FEF785BFDFF84D
:10A290005C8155E79AF812B0BBF1000F15D0514B15
:10A2A0001A689AF8113002EB4302B2F8BC304E4AF9
:10A2B00010681844FBF7A4FF0BEB4B034C4A9B00C0
:10A2C000023B138000224B4B1A80DAF80830984783
:10A2D00063E7012089E7082C4CD0102CCDD1EB8905
:10A2E00002243BB9FEF77CFDAC60FEF737BFC5E941
:10A2F0000444C2E70023AC60EB81FEF74DBF2B693D
:10A30000D9F800201A446B6903F596739A42B4D9C0
:10A3100006A8FCF79DFE1421BDF81220059B01FB49
:10A320000233187C36280AD90023D9F800201344B8
:10A330006B612B6921332B6100232B839DE7FBF796
:10A3400073FC0028F0D04FF4FA63EEE76B8B13B187
:10A3500000236B8391E72B83EB893BB9DAF8043058
:10A360000BB1984789E7EC81AC6086E706A8FCF75B
:10A370006FFE82E7D9F800102B696A69194402F56B
:10A38000967291427FF679AFD9F8002021336A6145
:10A390002B610324104EDFF854806B8B002BD7D138
:10A3A0002B83EB89AA89AC6033BB1423013292B2B0
:10A3B000AA8103FB028293682BB9FEF711FD0223E9
:10A3C0000427AB6059E7D368002B3FF456AF98479A
:10A3D0000028E2D051E700BF6CE60008AC44002042
:10A3E000584200201C410020184100207CE6000853
:10A3F0008C4100208A410020142101339BB2EB8163
:10A400004B4356F82220143B13449A681AB902238E
:10A41000EA81AB6031E7DB68D6E7104B1A78082A8F
:10A4200001D0022A04D100221A700C27FEF7B4BE14
:10A430000B4BB3F84C309BB2002B3EF4A8AED6E5E4
:10A4400001236B61FEF7F2FA064B074A1B6812689C
:10A4500013437FF4B0A8FFF7BAB800BF2041002033
:10A46000E0410020584200205C420020F8B545F24F
:10A47000AA54234B1A8892B2A2423AD018467822A4
:10A48000FF2101F0ABFC0480034601245A6F013226
:10A490001CBF4FF0FF325A675A8818BF012492B28E
:10A4A000362A08D84FF6FF715A8892B2362A22DD32
:10A4B000372201245A800022124903EB4206B58854
:10A4C0000F88ADB2AF424FEA420004D8B5884E883B
:10A4D000ADB2AE4203D2CC8818448480012401324C
:10A4E000372A01F10801E8D10CB1FEF779FC2046CA
:10A4F000F8BD0024CAE703EB420081800132D5E7B2
:10A50000E0410020060000202DE9F84FFDF77CFD1A
:10A510004FF01909424F434A434D9468EB8DC4F301
:10A520008F049BB2A400B4FBF3F44FF00A0BA4B267
:10A530000123B4FBFBFA0026DFF8F0801A46022163
:10A540005046A7F80090A8F80060FBF7DBFE334602
:10A55000FF2201213648FBF767FD01220BFB1A4061
:10A560001146334680B2FBF7CDFE3346FF22012170
:10A570003048FBF759FD0823E88D32460321A8F83F
:10A58000003080B201233E80FBF7BCFEFCF71CF9D3
:10A59000022841D007D8012827D0FEF705FA282045
:10A5A000FCF7B2FEB7E71028F7D8234C044114F0AB
:10A5B0000104F2D1FEF714FCFDF726FD1F4B204AE3
:10A5C0001B683C801B88A8F8004014681C44FCF7FA
:10A5D000FBF801462046FDF721FDFEF7E5F9BDE851
:10A5E000F84F4FF4FA70FCF7A9BE164AB2F8A8303B
:10A5F000B2F8AA00B2F8AC10EA8D92B2934201D13F
:10A60000E885CAE7EA8D581892B28242C2BFEB8D44
:10A610005B1A9BB2EB85C0E71520FBF7E3FABCE7BA
:10A620008C41002090410020E04100208A41002020
:10A630007ABE0008B9BE0008EFFEFEFF1C410020F4
:10A64000184100200600002070B5134B1E68134B04
:10A65000308B1D682844FEF7B3F9D8B17822FF216A
:10A660000F4801F0BBFBFFF701FFFEF7B9FBFDF759
:10A67000CBFC7488FCF7A8F82C4401462046FDF773
:10A68000CDFC08B1FCF79AF9FEF78EF96420FCF7CF
:10A690003BFEECE770BD00BF1C41002018410020CC
:10A6A000E04100202DE9F04F87B00290FCF78CF8D4
:10A6B0004FF0000AB0FA80F6524B76091A681B6810
:10A6C00003920593CDF800A0009B039A01330093F9
:10A6D0004C4B4FF4FA711B689B1A01936423019A47
:10A6E0005A43B2FBF1F292B2C2F196045243544380
:10A6F00041F2883294FBF2F4A4B2E401B4FBF3F427
:10A70000A4B2802C28BF8024029BE2B2002B6AD026
:10A710004FF0000BD846A2EB0A09C2F180075FFA9E
:10A7200089F9FFB2384D92462868C4F1800200EBE7
:10A730000901584401F078FB6868C4F1800200EB1D
:10A740000901584401F070FBA868C4F1800200EBD5
:10A750000901584401F068FBE868C4F1800200EB8D
:10A760000901584401F060FB284B286803EB0801FD
:10A770002246384401F058FB254B686803EB08017A
:10A780002246384401F050FBDFF88890A868224642
:10A7900009EB0801384401F047FBE86809F1800142
:10A7A00022464144384401F03FFB009BDB0701D4C3
:10A7B000FEF7FAF80E2105A8FCF772FDFCF704F885
:10A7C000002808BF46F00106FBF7FEFF98B196B1DE
:10A7D00040F209220D49104801F008FB07B0BDE81E
:10A7E000F04FFEF7E1B8C2F180089346D146029FD0
:10A7F0005FFA88F896E7019BB3F5FA7F7FF664AFBE
:10A80000ECE700BFAC440020D0410020213C0020F8
:10A81000A13C0020213D0020754200202DE99F48E9
:10A82000FCF766FC00239D4A9D4E13809D4A9E4C7A
:10A8300013809E4A06F5C079137006F180036360A9
:10A8400006F58073A3609A4B2660C4F80C90A6F1BD
:10A85000110203F1100153F8040B8B4242F8040B70
:10A86000F9D11B781370924B924A53F8040B8B4228
:10A8700042F8040BF9D10A251B788F4F1370192168
:10A880003846FEF729F898B3DFF830820120FEF74A
:10A89000ADF9B8F848008A4DC0B2FEF73DF8B8F8F7
:10A8A0004600884F80B2003818BF0120FDF7E6FF50
:10A8B00000238548DFF814C2DFF814E2DFF814A2A1
:10A8C00003F1290203F1380115F802B000F803B0D2
:10A8D0001CF802B007F803B01AF802B0013A0EF8FB
:10A8E00003B001339942EFD1E02904D00B46E7E7EA
:10A8F000013DC4D1C8E7FCF74BF80021202276487F
:10A9000001F06CFAB8F81000DFF8D0A100F00100F7
:10A91000FEF782F9724B704F9A68D2075EBF04212E
:10A92000704A11709B689B075EBF08226D4B1A70BE
:10A930006D4B1B680193FEF7C5FADAF80030054647
:10A94000984212D0684A1268C7E9002333B9B8F8B0
:10A9500018309BB2002B34D005237B6014220021D9
:10A96000624801F03BFACAF80050BB6803B3604B81
:10A9700003F180022360626003F5807203F5C07307
:10A98000E360A260FEF79EFA5A4BB8686360032842
:10A9900003F18003C4E90239266000F0B18012DCC3
:10A9A000012800F02081022800F01C810023BB60F8
:10A9B000FDF7FAFF282101A8FCF712F8FCF770FC5C
:10A9C000B9E70425CAE70428F0D1474B4FF0000B44
:10A9D0001B680393FBF7F8FEB0FA80F56D090020C1
:10A9E000454A464B92F801C192F881E14FEADC11E9
:10A9F00041EA4E0182F8811192F881104FEA4C0C25
:10AA00004CEAD11C82F801C112F801CF490041EA99
:10AA1000DC1182F8801093F881114FEA4C0C4CEA5B
:10AA2000D11C82F800C093F801C1490041EADC1151
:10AA300083F8811193F881104FEA4C0C4CEAD11C39
:10AA400083F801C1013013F801CF4900C0B241EAD7
:10AA5000DC1180284FEA4C0C83F8801083F800C08A
:10AA6000C0D1FBF7B1FE002808BF45F00105FBF798
:10AA7000ABFE10B1002D40F09B801BF0010F01D107
:10AA8000FDF792FF0BF1010B0E2103A85FFA8BFB80
:10AA9000FCF706FCBBF1200FA1D187E78A4100201B
:10AAA000754200208C410020D041002088410020C8
:10AAB00050E30008103C0020C1010020E0410020CC
:10AAC00021E500086C3E00204C3F002041E40008D6
:10AAD0002C40002061E30008244100200C020020EB
