:020000040800F2
:1044000000500020514500089945000899450008D2
:1044100099450008994500089945000800000000EA
:1044200000000000000000000000000041A20008A1
:10443000994500080000000071A20008A19800083A
:1044400099450008994500089945000899450008D4
:1044500099450008994500089945000899450008C4
:10446000994500089945000899450008D598000825
:1044700099450008994500089945000899450008A4
:10448000FDA0000809A10008E1980008994500086E
:1044900099450008994500089945000815A10008AC
:1044A00099450008619A0008994500089945000857
:1044B000799A0008994500086D9A0008859A0008C5
:1044C000199F00089945000899450008994500087A
:1044D0009945000899450008994500089945000844
:1044E000994500089945000899450008000000001A
:1044F00000000000000000000000000000000000BC
:0C45000000000000000000005FF8E0F187
:1045100010B5054C237833B9044B13B10448AFF3FD
:1045200000800123237010BD08020020000000005D
:104530007CB0000808B5034B1BB103490348AFF337
:10454000008008BD000000000C0200207CB00008C4
:10455000002103E00B4B5B58435004310A480B4BDE
:1045600042189A42F6D30A4A02E00023136004324A
:10457000084B9A42F9D305F03DFE06F01BFD05F00D
:10458000E3FEFEE7E4D0000800000020080200205F
:1045900008020020B4450020FEE700001A4A036824
:1045A00090420AD0B0F1804F07D0A2F594329042E9
:1045B00003D002F58062904215D14A6823F070035F
:1045C0001343114A90420AD0B0F1804F07D0A2F5B0
:1045D0009432904203D002F58062904203D1CA68BF
:1045E00023F4407313434A6923F0800313430360A9
:1045F0008B68C3620B688362034B984204BF0B69EC
:104600000363012343617047002C0140002337B549
:10461000026801939368DB0702D5002003B030BD28
:104620009368124943F001039360114B1B68B3FB7D
:10463000F1F30193019BABB90E4C2568936813F01D
:104640000103EAD12168491B0229F7D9826A80F85F
:10465000243042F010028262C26A42F00102C26259
:104660000120DBE7019B013BE3E700BF40420F0075
:104670004C000020E4400020036810B59A68D10780
:1046800001D4002010BD9A680A4922F001029A6004
:104690000C689A68D207F4D50A68121B022AF8D966
:1046A000836A43F010038362C36A43F00103C36269
:1046B0000120E7E7E4400020436A9A6A12F0500FB5
:1046C00018D19A6A42F400729A621A68926802F4E7
:1046D0006022B2F5602F10D1DA6872B99A6A22F4BA
:1046E00080729A629A6AD20407D49A6A42F00102EE
:1046F0009A6270471B6A1B6B184770470422F0B41C
:10470000C66B016C3568036802FA01F72F421C681A
:1047100028D0670726D53C498B4216D03B4A9342A6
:1047200015D01432934214D01432934214D0143260
:10473000934214D0143293420CBF4FF480034FF0D5
:104740008063334A5360F0BC70471346F9E7402357
:10475000F7E74FF48063F4E74FF48043F1E74FF459
:104760008023EEE702228A402A4238D0A70736D5B6
:104770001A68910606D41A6822F00A021A60012209
:1047800080F82120204A93421CD0143293421BD03F
:10479000143293421AD0143293421AD014329342F4
:1047A0001AD0143293420CBF4FF400134FF0007331
:1047B000174A5360002380F82030836A002BC2D050
:1047C000F0BC18470223F3E72023F1E74FF400730E
:1047D000EEE74FF40053EBE74FF40033E8E708222D
:1047E0008A402A42AFD02207ADD51A6822F00E02C5
:1047F0001A60012303FA01F1716083634FF480733F
:104800000384036BDAE700BF080002401C0002408B
:104810000000024008B503681A6822F00E021A6010
:104820001A6822F001021A60164A93421CD0143210
:1048300093421BD0143293421AD0143293421AD0AE
:10484000143293421AD0143293420CBF4FF48013A7
:104850004FF080730C4A53604FF480730384436BB2
:1048600003B19847002008BD0123F3E71023F1E7C7
:104870004FF48073EEE74FF48053EBE74FF480334F
:10488000E8E700BF08000240000002402DE9F74FB2
:1048900000221646684F694BDFF8A4C1DFF8A4E197
:1048A0004FF001080D6808FA06F808EA050438EA2E
:1048B000050540F08A804D68032D00F0B38014D8C0
:1048C000012D00F0A480022D00F0A680A5B98A6811
:1048D000002A00F0A980012A08BFC0F810804FF01C
:1048E000080218BFC0F8148006E0122D00F097806F
:1048F00072D8112D00F08D80FF2C98BF82464FF0AA
:104900000F0988BF00F1040A4FEA8605DAF8008033
:1049100088BF203D09FA05FB28EA0B0802FA05F5D5
:1049200048EA0505CAF80050D1F804A01AF0805FE3
:104930004BD0BD6926F0030845F00105BD61BD6996
:1049400008F1804805F00105019508F5803806F06A
:10495000030B019D4FEA8B0BD8F8085009FA0BF9AD
:1049600025EA0909384DA84260D005F58065A842BE
:104970005ED005F58065A8425CD005F58065A8424B
:104980000CBF0325042505FA0BF545EA0905C8F80F
:1049900008501D681AF4803F14BF2543A5431D60CD
:1049A0005D681AF4003F14BF2543A5435D609D6810
:1049B0001AF4801F14BF2543A5439D60DD681AF4D7
:1049C000001F14BF2543A543DD600136102E7FF480
:1049D00067AF03B0BDE8F08FDFF870904D453FF44E
:1049E00076AF0FD8A9F580194D453FF470AF09F5A2
:1049F00070294D453FF46BAFA9F580194D453FF443
:104A000066AF79E765453FF462AF7545F7E7CA6879
:104A100072E7CA6804326FE7CA6808326CE7CA688E
:104A20000C3269E7002267E7042265E70025AAE760
:104A30000125A8E70225A6E7001002400004014076
:104A40000000311000003210000801400000221068
:104A5000FEE7000006480068006880F3088862B638
:104A600061B6BFF34F8FBFF36F8F00DF00BF000051
:104A700008ED00E04FF0500383F31188BFF36F8F10
:104A8000BFF34F8FFEE7000008B54FF0500383F3EC
:104A90001188BFF36F8FBFF34F8F074A136801333D
:104AA000012B136007D14FF0E023D3F8043DDBB2B4
:104AB0000BB1FFF7DFFF08BD04020020054A08B56F
:104AC00013680BB9FFF7D6FF013B13600BB983F3F3
:104AD000118808BD0402002008B5EFF305830F2BF1
:104AE00007D90E4A9B5C0E4A12789A4201D9FFF709
:104AF000C1FF4FF0E0230B4AD3F80C3D126803F4DA
:104B0000E063934208D94FF0500383F31188BFF359
:104B10006F8FBFF34F8FFEE708BD00BFF0E300E0EB
:104B2000DE400020E04000204FF0500383F3118866
:104B3000BFF36F8FBFF34F8FFEE70000024A136889
:104B400001331360704700BFEC400020F8B50F4DF3
:104B50000F4EFFF799FF2C680768336842689F4241
:104B600007D0A24205D8002301200B60FFF7A6FF63
:104B7000F8BD0B68A71ABB42F5D91B1B13440B6089
:104B8000336803602B6843600020EFE7AC450020EA
:104B90008C45002008B9064B1868026B0020135C96
:104BA000A52B02D0C0F38F0070470130F7E700BF9C
:104BB0002C320020064A13681968064B19B94FF0C9
:104BC000FF321A6070471268D2681268F9E700BFB6
:104BD0003032002088450020054B1B6833B1054B5F
:104BE0001868B0FA80F04009400070470120704713
:104BF000A8450020EC40002043689A684B608A601A
:104C00009A685160996003680861013303607047D6
:104C100030B50C68631C0AD103695A684A60916018
:104C20008B605960036808610133036030BD00F197
:104C30000802134652681568A542FAD9EDE70369E0
:104C4000D0E901128A6051605968814208BF5A60F8
:104C5000002202611A68013A1A6018687047000061
:104C6000394B2DE9F74F1B68002B67D1374B1D6877
:104C700001351D6085B9364B1A6812680AB1FFF715
:104C800053FF344A1968106818601160324A13687B
:104C900001331360FFF78EFF304E00243368DFF8D6
:104CA000C080AB4212D91422D8F80030DB6A5343DB
:104CB0002C4AD358022B2C4B28BF01241B68002BF5
:104CC00018BF0124204603B0BDE8F08FDFF880A0B4
:104CD000DFF89890DAF800301B681BB94FF0FF330B
:104CE0003360E0E7DAF80030DB68DF687A68954225
:104CF00001D23260D7E707F1040B5846FFF79FFF58
:104D0000BA6A1AB107F11800FFF799FF0122FB6A8E
:104D1000D9F800009A4002431420C9F80020114A33
:104D2000594600FB03200193FFF766FFD8F80020E7
:104D3000019BD26A934228BF0124CBE70C4A00248E
:104D4000136801331360BDE7EC400020AC45002040
:104D500030320020343200208C450020884500206D
:104D60002C32002038320020B0450020F4400020D2
:104D70009045002032492DE9F0470B6843B94FF0C8
:104D8000500383F31188BFF36F8FBFF34F8FFEE79C
:104D9000FFF77AFE0B68013B0B600C6824B1002022
:104DA000FFF78CFEBDE8F087264B1B68002BF6D082
:104DB000254E264FDFF8989020E0F3684FF0010869
:104DC000DC6804F1040A04F11800FFF738FF5046CC
:104DD000FFF735FF1420E56A3A6808FA05F3134334
:104DE000514600FB05903B60FFF706FF194B1B681F
:104DF000DB6A9D4202D3184BC3F800803368002B56
:104E0000DBD10CB1FFF7D6FE144D2C6844B101275D
:104E1000114EFFF725FF00B13760013CF9D12C603E
:104E20000D4B1B68002BBAD04FF0E0234FF080529F
:104E3000C3F8042DBFF34F8FBFF36F8F0120AFE78F
:104E4000EC400020E840002094450020F440002081
:104E5000383200202C320020B04500209045002040
:104E6000C36870B5DC680CB9FFF704FE04F11806DE
:104E70003046FFF7E4FE114BE56A1B68D3B90434F2
:104E80002046FFF7DCFE01230D4A14201168AB40D9
:104E90000B43214613600B4B00FB0530FFF7ACFEC4
:104EA000094B1B68DB6AAB423BBF0120074B00206C
:104EB000186070BD31460648F0E700BFEC400020A6
:104EC000F4400020383200202C320020B045002071
:104ED000944500202DE9F04104464FF00108FFF70A
:104EE000D3FD90F845501B4F6DB200F12406002D04
:104EF00017DCFF234FF0010884F84530FFF7DEFD93
:104F0000FFF7C2FD94F84450124F6DB204F1100641
:104F1000002D12DCFF2384F84430BDE8F041FFF798
:104F2000CDBD636A002BE4D03046FFF799FF08B18E
:104F3000C7F80080013D6DB2D9E72369002BE9D0A5
:104F40003046FFF78DFF08B1C7F80080013D6DB214
:104F5000DEE700BFB0450020C3685A1EC26033B907
:104F6000036833F8022B03600F238260C3608368F9
:104F70005A008260C3F3C030704710B50121044667
:104F80002046FFF7E9FF490001442046FFF7E4FF10
:104F90000028F5D1084610BD002340F21A201A4619
:104FA00010B5074911F8014B03FB0422013383427A
:104FB000F8D1044B18681A60801A18BF012010BD80
:104FC0004A290020742B00200A4B588A80B278B1FD
:104FD000188980B260B11A89188992B2052A94BFE3
:104FE00042F210734EF6602380B288BF05385843F2
:104FF000704700BFB432002038B5134A538A9BB2C1
:105000000BB9002038BD13899BB2002BF9D00F4A91
:105010000F4B14681B6844EA030288B1002AF1D0E0
:105020000C4D2968C91AFFF7CFFF8142E9D92868DA
:10503000041BFFF7C9FF844294BF00200120E1E771
:10504000002ADED0ECE700BFB4320020F4310020AB
:10505000F8310020AC45002070470000084B33F8C1
:10506000302003EBC00391425B8803D399420A4688
:1050700028BF1A46034B03EB40039A80704700BFDA
:1050800052000020B432002070B5114B114C33F89F
:10509000306003EBC00359889A8804EB4003450055
:1050A000988880B2884207D19E802C44A08880B224
:1050B000431A5842584170BD98888E1A80B2B04247
:1050C000B7BF98889980121892B2B8BF9A80ECE75F
:1050D00052000020B432002008B5144B198E5B8CAE
:1050E00089B29BB29BB179B140F25133143189B28C
:1050F000994288BF00211620FFF7B0FFB1F5527F1B
:1051000034BF0020012008BD4FF4F071F3E759B11E
:105110000A3189B2B1F5E17F88BF00211620FFF77F
:105120009DFFB1F5E17FEBE7FA21F7E7B43200200C
:10513000034B588A80B2003818BF0120704700BF67
:10514000B432002008B5104BD9885B8C89B29BB271
:1051500073B1143189B2B1F5117F88BF3C210120B0
:10516000FFF77CFFB1F5117F14BF0020012008BDBF
:105170000A3189B2B1F5967F88BF0A210120FFF775
:105180006DFFB1F5967FEFE7B43200200F4A02EBD6
:1051900040039B88528C9BB292B27AB103EBC3015D
:1051A0000523A031B1FBF3F10A2389B2B1FBF3F17E
:1051B00001EB8101490089B2FFF750BF0922203B72
:1051C00003EB830393FBF2F1EEE700BFB432002060
:1051D00010B50F20FFF758FF04461620FFF7D6FF43
:1051E0000020FFF7D3FF0120FFF7D0FF204610BDBE
:1051F000034BD88A80B2003818BF0120704700BF27
:10520000B4320020F0B55442A0421E46059D13461C
:1052100019DD602817DC002800EB0207B6BF444206
:105220000024E4B2602FC4BFC0F16002D2B291B9D1
:10523000134F21183F6805EB040C0F4421468A42A6
:1052400002D80F2E09D8F0BD1CF801EB013107F888
:1052500001EBC9B2F3E70829F3D1102E18BF0023E0
:1052600007492344496820442B440144A242EAD917
:1052700013F8010B013401F8010BE4B2F6E700BFAB
:10528000642B0020034B188D80B2003818BF01201A
:10529000704700BFB43200207047F8B500250646BD
:1052A0002C461427EBB207FB03639A680AB9204621
:1052B000F8BDDB6813B90134E4B202E09847002876
:1052C000F9D10135EEE7000038B500230122104D79
:1052D00004462B7003681A70D0E901311420097854
:1052E0001B6800FB0133187C342809D8FFF7CCFE7B
:1052F0002B7813B1032223691A6001232B7038BD68
:10530000586808B18047F3E7E3681A70F0E700BF18
:10531000582E002010B5214A93689068DB4380F036
:10532000020003F0010300F0020018431FBF1C4BF2
:105330001A681C4B1A601C4A1378834212D180B140
:10534000174B1A4A1B6812689B1AB3F5C87F20D303
:105350000122174B90421A701DD002280CBF082062
:10536000202010BD38B10343002013700C4B1A6885
:105370000E4B1A60F5E70E490C7844B9012B02D0A8
:10538000022B18BF1023107008701846EEE7034672
:10539000F9E70020E5E70420E3E700BF000C014047
:1053A000AC450020F4310020412E0020442E002086
:1053B000402E002048F2E80358436423C00B5843B2
:1053C0004FF40673B0FBF3F0074B5A8E92B242B122
:1053D00039B95A8E92B282422FBF08465B8E9BB279
:1053E000C01A024B18607047B4320020FC31002014
:1053F00040220D4B1A6180221A610C2200BF013A33
:10540000FCD14FF400021A610C2300BF013BFCD118
:105410004FF48003044A13610C2300BF013BFCD10D
:1054200080231361704700BF000C01404FF400035C
:10543000094A13610C2300BF013BFCD140231361D7
:105440000C2300BF013BFCD18022034B1A610C23CB
:1054500000BF013BFCD17047000C014080230A4A89
:1054600013610C2300BF013BFCD1402313610C23CB
:1054700000BF013BFCD14FF48002034B98681A61D6
:10548000C0F3C010704700BF000C01400A4B80B150
:1054900080221A610C2300BF013BFCD14023064A45
:1054A00013610C2300BF013BFCD14FF48003136157
:1054B00070474FF40002ECE7000C014010B50146C4
:1054C000082401F08000013CFFF7E0FF490014F0E0
:1054D000FF04C9B2F5D18022034B1A61FFF7BEFF6A
:1054E000B0FA80F0400910BD000C0140064B00F1FD
:1054F00011021A6000F191025A6000F2111200F2DA
:1055000091109A60D8607047642B00200229F7B58B
:1055100004461CD110221D4B1D491A700C221D4B34
:105520001A701C4B1C4E1D78184BB6F900701B7876
:105530003846DA086A4304FB0211009117492A46EB
:1055400091F90010FFF75EFEE819308009E00128AC
:1055500009D1124BB3F900201AB90F490A80082269
:105560001A8003B0F0BDFCD9002915BF1020082017
:105570000C2206220A4B0B4908BF1946034B023C7A
:105580001870044BA4B21A70CBE700BF882E00201D
:10559000ACB30008892E0020942D0020962D002009
:1055A000F51F002081210020C0F111000221C0B2AE
:1055B000FFF7ACBF034B988B80B2003818BF0120B7
:1055C000FFF7F2BFB4320020034BD88E80B2003810
:1055D00018BF0120FFF7E8BFB4320020034B988AC0
:1055E00080B2003818BF0120FFF7DEBFB4320020C0
:1055F000034BD88B80B2003818BF0120FFF7D4BF0F
:10560000B4320020034B188C80B2003818BF012040
:10561000FFF7CABFB4320020044BB3F84C0080B28D
:10562000003818BF0120FFF7BFBF00BFB432002011
:1056300070B503780446012B0E46154601D11E466F
:1056400001342378A3B19DB1F02B09D962787AB1E6
:10565000F03BC3EB03230F3A134498B2023401E04A
:1056600098B201343146013DFFF750FFEDB2E8E753
:1056700070BD00000E4B198B0E4B89B21A680E4B91
:1056800002291B6809D003290CD001290DD1B2F8D9
:105690004000FF221844FFF7CBBFB2F84200FF22C0
:1056A0000121F7E7B2F84400F9E7D08FF7E700BF30
:1056B000B4320020EC1F0020F01F00200C4BD98CCE
:1056C0000C4B89B21A680C4B01291B6806D00229C1
:1056D0000AD1B2F84A00FF22012102E0B2F84800E4
:1056E000FF221844FFF7A4BFB2F84600F3E700BF5B
:1056F000B4320020EC1F0020F01F00200A4B198A52
:105700000A4B89B21A680A4B01291B6805D0022985
:1057100008D1908EFF22012101E0508EFF22184413
:10572000FFF786BF108EF5E7B4320020EC1F002093
:10573000F01F0020074B084A9B8C12689BB23BB1BC
:10574000938F064A01211068FF221844FFF770BFAB
:10575000138FF6E7B4320020EC1F0020F01F00206A
:105760000C4BD98A0C4B89B21A680C4B02291B6866
:1057700008D003290AD001290AD1108FFF2218442A
:10578000FFF756BF508FFF220121F8E7908FFAE70D
:10579000D08EF8E7B4320020EC1F0020F01F00206C
:1057A000002110B4064A04781180064A012C1180A9
:1057B00004BF01302146FF2210BCFFF739BF00BFF4
:1057C000942D0020962D002010B50A4B0A4A0C4655
:1057D0001B68583033F81030106804EB4404184448
:1057E000FFF7DEFF0022054BA400023C1C80044BA7
:1057F0001A8010BDEC1F0020F01F0020942D002007
:10580000962D002010B5124B124A1B68044603EB7C
:105810004003B3F81E3110681844FFF7C1FF0E4B68
:10582000DA8A0E4A11780E4A69B9D98A89B251B119
:105830001168A1420B4903D0146008680A4A10603D
:105840000A689B8A02E07921DB8A116010BD00BFE3
:10585000EC1F0020F01F0020B4320020F41F0020B5
:10586000FC010020AC4500206C2E00200120FFF739
:10587000C9BF0220FFF7C6BF0320FFF7C3BF042044
:10588000FFF7C0BF37B50C4611460022042C00922A
:10589000ADF804208DF8062032D90A22B0FBF2F5CB
:1058A00002FB150002308DF80500B5FBF2F002FB9B
:1058B000105502358DF8045080B20A22B0FBF2F583
:1058C00002FB150202328DF80320A8B20A25B0FBB4
:1058D000F5F205FB120502358DF8025090B20A254B
:1058E000B0FBF5F205FB120502358DF8015090B2C0
:1058F0000BE01578022D17D102F8010B013311E0EE
:10590000DBD0032CE2D0012CE9D10A25B0FBF5F263
:1059100005FB120202328DF800202BB16A460023EB
:105920001220013CA342E4DBFF226846FFF780FE21
:1059300003B030BD0A4A138E9BB233B10123108EDF
:1059400003211A4680B2FFF79DBF064B064A1B682B
:1059500010685B8DFF2201211844FFF769BE00BF6C
:10596000B4320020EC1F0020F01F0020034B022166
:10597000588F012380B21A46FFF784BFB43200204B
:10598000034B0221188F012380B21A46FFF77ABF1A
:10599000B43200200122034B1146588A002380B202
:1059A000FFF770BFB4320020034B0321D8880123D6
:1059B00080B21A46FFF766BFB432002008B5174B15
:1059C0001A8992B25AB9164A01211068FF22154B62
:1059D0001B685B8D1844BDE80840FFF729BE1A8993
:1059E000188992B2052A0DD8012380B200EB8000FD
:1059F00040001A46022180B2FFF744FFFF22012136
:105A00000948E8E7012305381A46022180B2FFF76A
:105A100039FFFF2201210548DDE700BFB432002035
:105A2000F01F0020EC1F002094B0000810B1000807
:105A300008B50D4A538B9BB25BB90C4A0121106823
:105A4000FF220B4B1B685B8D1844BDE80840FFF735
:105A5000EFBD0123508B02211A4680B2FFF712FFDF
:105A6000FF2201210348F0E7B4320020F01F00209C
:105A7000EC1F002010B1000808B5114BB3F84A2004
:105A800092B25AB90F4A01211068FF220E4B1B68CF
:105A90005B8D1844BDE80840FFF7CABDB3F84A2043
:105AA00092B2052A0BD0B3F84A00012302211A460C
:105AB00080B2FFF7E7FEFF2201210448EAE708BDB4
:105AC000B4320020F01F0020EC1F002094B000082A
:105AD00008B50D4A938E9BB25BB90C4A0121106840
:105AE000FF220B4B1B685B8D1844BDE80840FFF795
:105AF0009FBD0123908E03211A4680B2FFF7C2FE9C
:105B0000FF2201210348F0E7B4320020F01F0020FB
:105B1000EC1F002096B0000870B5164D2B8D9BB27F
:105B2000E3B101230A24288D1A4680B21946B0FB3E
:105B3000F4F0FFF7A7FEFF2201210F48FFF778FDE1
:105B4000288D80B2B0FBF4F304FB1300BDE8704075
:105B5000012380B21A461946FFF794BE074B084A44
:105B60001B6810685B8DFF22BDE87040012118445E
:105B7000FFF75EBDB432002098B00008EC1F002093
:105B8000F01F0020034B588D012380B21A4619469E
:105B9000FFF778BEB4320020034B988D012380B20A
:105BA0001A461946FFF76EBEB4320020F8B51E4BF8
:105BB000054602210E201C78FFF7A8FC1F23B5FB29
:105BC000F3F01A4BC0F10A0010F0F80F1968C5B2D3
:105BD000C0F3C4060BD0F32C8CBF01230D23204649
:105BE00000272344DBB2421CD2B2934218D1FF22D9
:105BF00005F00705AA406025F32C8CBF01230D2377
:105C000075432344DBB262F0FF02601CC0B29842CD
:105C100000D1F8BD2C440E5D16400E550446F4E745
:105C20000F541046DFE700BF942D0020642B0020A6
:105C300010B4064B064C5B8C014606489BB2002B09
:105C400018BF2046FF2210BCFFF7F2BCB432002080
:105C5000CAB000081FB100080128014610B40AD0DC
:105C6000022814D10B4B10BC588C80B2B0FA80F0D3
:105C70004009FFF74BBC074B074C5B8C07489BB2B6
:105C8000002B18BF2046FF2210BCFFF7D1BC10BC70
:105C9000FFF7CEBFB43200209AB000089CB00008D5
:105CA0000120FFF7D9BF0000BFF34F8F0549064B16
:105CB000CA6802F4E0621343CB60BFF34F8F00BFAA
:105CC000FDE700BF00ED00E00400FA054AF6AA2255
:105CD000014B1B681A607047103100204FF0E02024
:105CE0004FF0805408B506490B68012B05D9C0F860
:105CF000044DBFF34F8FBFF36F8FFFF7E7FFF3E75D
:105D000038320020037F082B01BF0022014B1B68A3
:105D1000DA637047AC31002008B5036801461A69A0
:105D200092070ED5DA6892070BD56FF002021A615E
:105D3000012202779B699B0701D1FFF7E3FF002354
:105D40000B770B681A69500710D5DA6852070DD522
:105D50006FF004021A6102220A779B6913F4407FF4
:105D600002D10846FFF7CEFF00230B770B681A69B4
:105D700010070FD5DA6812070CD56FF008021A6108
:105D800004220A77DB699B0702D10846FFF7BAFFB6
:105D900000230B770B681A69D00610D5DA68D20693
:105DA0000DD56FF010021A6108220A77DB6913F42F
:105DB000407F02D10846FFF7A5FF00230B770B6851
:105DC0001A69D00714D5DA68D20711D56FF001022D
:105DD0001A610B68B3F1804F0FD10C4A1388013B55
:105DE0009BB2138013880A4A9BB212680BB9D36323
:105DF00008BD084B1B78DBB2F9E7074A934201BFA5
:105E0000064A136801331360F2E700BFE81F002061
:105E1000AC31002020320020002C0140E440002062
:105E2000037B826810B530F813400A44121B82606D
:105E300020F81310013303F00303037310BD0000B7
:105E400010B5044671B10C4B0C481B68D96B1A6C29
:105E500011445A6C9B6C1144194489B2C90089B22F
:105E6000FFF7DEFF054B9B68C3F38F039B00B3FB7B
:105E7000F4F080B210BD00BFBC2F00205C2E0020CB
:105E800008B5084B0146D88D80B2FFF7D9FF14231F
:105E90004043B0FBF3F0044BC0EB00201B88B0FB89
:105EA000F3F008BDB43200200202002010B5044611
:105EB000002C084606DC094BD88D80B2FFF7C0FFE6
:105EC000002010BDFFF7DCFFC4EB0424B4FBF0F0AE
:105ED000FF2828BFFF20C0B2F3E700BFB432002084
:105EE00010B50121FFF7E2FF902804461AD9114BA3
:105EF0001A780AB100221A7014220F4B00201A805F
:105F00000E4B1C70FFF7BCFFFF23E82144430C4AF3
:105F1000B4FBF3F413684B43182101FB04331B0A51
:105F2000136010BD6F28E7D8024B1A78002AE3D11E
:105F30000122E0E7FA010020E81F002020320020C3
:105F4000F840002008B568B100210B46114A013322
:105F500032F8020BDBB2102B0144F8D10E4889B2A3
:105F6000FFF75EFF0C4B0D499A680023C2F3CE0287
:105F700031F81300904207D2013331F8130000EBDF
:105F80008000400080B208BD02332E2BF0D14FF4C8
:105F9000E170F8E724020020482E00205CB50008DC
:105FA000002110B547F6FF70FFF704FA04460846D3
:105FB000FFF7C8FF32235C4340F2E513B4FBF3F470
:105FC0000A23B0FBF3F080B22044013810BD00007A
:105FD00008B5084B08481B68D96B1A6C11445A6CF9
:105FE0009B6C1144194489B2490089B2FFF718FF2C
:105FF000084608BD8C2F0020302E002038B50546FD
:10600000A0B1FFF7E5FF0021FFF7D4F9322303FB2E
:1060100000F440F2E5132846B4FBF3F4FFF792FFD7
:106020000A23B0FBF3F080B2204438BD024B9868DD
:10603000C0F38F00E7E700BF302E002008B5094B02
:10604000588C80B250B10020FFF7D8FF052300EB39
:10605000C000B0FBF3F0203080B208BDFFF7CEFFE8
:10606000FAE700BFB432002010B5FFF799FF0446ED
:106070000020FFF7C3FF053CA4B284422CBF0020E0
:10608000012010BD202210B5234B83F83D20234B67
:106090001868002835D0036C43B14FF0500383F3E8
:1060A0001188BFF36F8FBFF34F8FFEE7036853B9BB
:1060B000836843B14FF0500383F31188BFF36F8FB0
:1060C000BFF34F8FFEE7FEF707FDEFF311844FF0AC
:1060D000500383F31188BFF36F8FBFF34F8F826B31
:1060E000C36B9A420BD290F845100132FF294BB294
:1060F000826307D1436A13B12430FEF7B1FE84F303
:10610000118810BD7F2B01D1FEF7B4FC01335BB2C7
:1061100080F84530F3E700BFBC300020E42D0020BC
:10612000436A1A68116821F4806111600021586B7C
:1061300059854163986B416393F83D0060284FF0A7
:10614000200083F83D0083F83E1008BF19641368EF
:1061500023F001031360FFF795BF01207047000093
:10616000044B054A1B681068B3F812311844FFF756
:1061700017BB00BFEC1F0020F01F002010B5044625
:10618000FFF75CFF012303211A46FFF77BFB24B1D5
:10619000BDE810400220FFF75FBD10BDF8B5064610
:1061A0000D4600246FF0030707FB04F31C3326FAA7
:1061B00003F303F00F030021981C0134FFF7A6F945
:1061C000AC42F1D3F8BD000070B5154B154D064635
:1061D0001C6828680430FEF732FD40B92A6812496D
:1061E000D06A01220B68824023EA02030B602B680D
:1061F000A4195C6007D30D4B18682968BDE870408E
:106200000431FEF705BD0A4B186829680431FEF712
:10621000FFFC084B1A68944238BF1C6070BD00BF79
:10622000AC4500202C320020F44000203432002005
:10623000303200208845002008B550B94FF0E023E7
:106240004FF08052C3F8042DBFF34F8FBFF36F8F11
:1062500008BD074B1B680BB1FEF70CFCFEF76EFC8C
:10626000FFF7B2FFFEF786FD0028E7D0F0E700BF9A
:10627000EC4000203220FFF7DFBF000070B50D4E6C
:1062800035680544FFF746F8044654B9FFF742F86D
:106290000446FFF7EFFF33689D420AD3002CF5D088
:1062A00007E0FFF737F80446FFF7E4FF33689D4245
:1062B000EBD270BDAC45002010B5114AB2F84A309F
:1062C0009BB2052B11D1FFF725F804463CB9FFF727
:1062D00021F80446FFF7CEFF002CF8D010BDFFF7E1
:1062E00019F80446FFF7C6FFF0E74FF47A70BDE8EF
:1062F0001040B2F84A309BB25843FFF7BFBF00BF0F
:10630000B432002010B50C46044B19681831FEF762
:106310007FFC2046BDE81040FFF756BF2C3200201E
:106320002DE9F043954B85B01C686423019344B973
:106330004FF0500383F31188BFF36F8FBFF34F8F7C
:10634000FEE7256C45B14FF0500383F31188BFF38E
:106350006F8FBFF34F8FFEE7FEF73EFC40B94FF063
:10636000500383F31188BFF36F8FBFF34F8FFEE7A6
:106370002946834F834E8DE0019B23B9002D00F009
:106380002F81FEF7D1FB21B93B6802937E4B1B683E
:106390000393FEF793FBFEF7D1FBFEF775FB94F832
:1063A000443001A9FF2B04BF002384F8443094F843
:1063B000453002A8FF2B04BF002384F84530FEF7C8
:1063C0007DFBFEF7C3FB002840F09C80FEF75CFBE2
:1063D000A36B002B56D1FEF771FB2368002B3BD13A
:1063E000FEF752FBA568002D33D03268EB6AD26A03
:1063F00093427FD2AA69DFF89481002AA1BF326854
:10640000D26AC2F10602AA61142202FB03836A69FE
:106410009A426BD105F104094846FEF710FC5C4B2B
:1064200038B90120E96A1A6800FA01F122EA01028A
:106430001A6032681968D26AEA62012505FA02F028
:10644000084318601420494600FB0280FEF7D4FB85
:106450000120FEF733FB0546019904F12400FFF704
:1064600051FF2046FEF736FDFEF784FC88B94FF059
:10647000E0234FF08052C3F8042DBFF34F8FBFF3DA
:106480006F8F06E02046FEF719FBFEF723FDFEF7AF
:1064900071FC0121FEF7F8FAA36B002B3FF46CAFFF
:1064A000013BA363236843B9364B1A681AB11968D4
:1064B0008A6D01328A651B68A360236973B104F198
:1064C0001000FEF7CDFC48B14FF0E0234FF08052B2
:1064D000C3F8042DBFF34F8FBFF36F8FFEF7EEFAB3
:1064E000012505F0010005B0BDE8F0833368DB6AE3
:1064F000EB62ADE73368686DDB6A98422CBF002021
:106500000120A6E72046FEF7E5FCFEF733FCFEF788
:10651000BBFAA36B13B1FEF7D1FABAE7FEF7CEFAD6
:10652000002DDED0FEF7B0FA636A1BB1236B1B6847
:10653000C3F10603A468002C52D0A16D41B94FF0FD
:10654000500383F31188BFF36F8FBFF34F8FFEE7C4
:10655000626D934238BF1346E26A934240D00129EC
:106560003ED1084909688C4214D14FF0500383F39F
:106570001188BFF36F8FBFF34F8FFEE7982D002078
:106580008C4500202C320020AC4500203832002001
:10659000F4400020A169E3620029A4BFC3F106030F
:1065A000A3611423104D03FB02526369934217D178
:1065B000261D3046FEF743FB0C4AE76A28B9012442
:1065C0001368BC4023EA04031360012314201168FC
:1065D000BB400B4300FB075031461360FEF70CFB3A
:1065E000FEF76CFA00257CE738320020F4400020EA
:1065F000184B10B51B6843B14FF0500383F311885B
:10660000BFF36F8FBFF34F8FFEE7FEF797FA124B82
:1066100001681A6811F10E032CBF012400248A427C
:106620000FD27CB90360FEF7A5FB48B94FF0E02319
:106630004FF08052C3F8042DBFF34F8FBFF36F8F1D
:1066400010BD0CB99A42EDD20360981AFFF7BCFD59
:10665000E9E700BFEC400020AC45002010B5134C2A
:10666000FEF712FA2368DB6D7BB90122236883F8F9
:106670006020FFF7A9FD4FF0E0234FF08052C3F8F0
:10668000042DBFF34F8FBFF36F8FFEF717FAFEF79E
:10669000FBF92368D86D10B100222368DA65002267
:1066A000236883F86020FEF709FA10BD2C32002021
:1066B00010B54CF250342049204B0868DA68D207F4
:1066C00033D4DA68910644BF2022DA60DA68D20651
:1066D00006D4DA69D40703D4D86810F0040023D0B4
:1066E000164AD36813F0100305D01549CB6943F05F
:1066F0000203CB611023D268500706D5104943F03E
:106700000403CA6942F00102CA610C4AD169C9078F
:1067100008D50B48C16941F00401C161D16921F07C
:106720000101D1610120D36010BD0A68121AA24292
:10673000C4D90320F8E700BFE44000200020024055
:106740000032002013B590F83D30044603F0FF02FC
:1067500000687BB91D4B84F83C20984228D103F592
:106760000233DA6942F00402DA61DB6903F0040300
:106770000093009B0223211D84F83D30FDF70EFF9E
:106780000123002084F8463084F83E3084F83F30FE
:1067900084F8403084F8413084F8423084F8433043
:1067A00084F8443084F8453084F83D3002B010BDA0
:1067B000B0F1804FDED1064BDA6942F00102DA61B6
:1067C000DB6903F001030193019BD3E7000800405C
:1067D00000100240134B10B5DB68C3F30223C3F172
:1067E00007041A1D042C28BF0424062A88BFDA1EB9
:1067F0004FF0FF3398BF0022A34021EA0303002893
:1068000003FA02F3ACBF00F16040074A4FEA0313FA
:10681000DBB2B5BF00F00F0000F56140135480F803
:10682000003310BD00ED00E014ED00E070B5826AA9
:10683000044686B0002A3BD1624B0168C26299428D
:1068400080F8242003F56C4340F0858099694FF46B
:10685000807541F4007199619B695B4903F4007391
:106860000293029B594B4FF4806CC3E900128021C4
:10687000C3E903152021C3E905C14FF480515448F1
:106880001A649A60D9618168D86321F47F5121F03C
:10689000300141F4AD5181609A631D8423625C62D2
:1068A0000F211220FFF796FF4FF48022494B1A6008
:1068B0002046FDF7E1FEA36A13F010037ED1002805
:1068C0007CD1A26A616822F4885222F0020242F06E
:1068D0000202E069A568A262E2680143B5F5807F23
:1068E00041EA420153D06E1E704270410002666957
:1068F000012E07D1002A4CD1A269013A40EA423266
:1069000042F400602268B5F5807F566826F4694637
:1069100040EA0600506096682F4800EA060040EA08
:106920000100906001D0012D02D12369013B1B05BC
:10693000D06A20F470000343D3629268274B13405F
:1069400099422FD10023E362A36A23F0030343F0AB
:106950000103A36230E09A69032542F480629A61E0
:106960009B691F4803F480630193019B012302A9E3
:10697000CDE90235FDF78AFF2023CDE90235FDF789
:1069800085FF1023CDE90235FDF780FF88E7284613
:10699000ADE7A26A42F02002A262E26A42F001027E
:1069A000E262AFE7A36A23F0120343F01003A3628D
:1069B000E36A43F00103E36206B070BDA36A43F0EB
:1069C0001003C6E70024014008000240EC2F00201D
:1069D0000000024000E100E0FDF7E1FFFE0E1FFFB6
:1069E00000080140F0B54FF4804316460122002410
:1069F00085B0CDE90001CDE90232B44201D305B042
:106A0000F0BD6846FEF7A8FA019FE8B16846FEF7B8
:106A1000B4FA05466846FEF7B0FA009B02385A1CE5
:106A200000921B78AA1C03EB0023DB433B44023497
:106A30001A449A4201D12C44DFE70199481C019085
:106A400013F8010B0870F4E7009B01345A1C009204
:106A50007A1C01921B783B70CFE700007FB5374B63
:106A60001A78FF2A0DD141F27851354AB2F8422006
:106A700092B28A4203D04AF2D7118A4231D0002220
:106A80001A701B78012B56D80C212E4A01FB0322C9
:106A9000517A5368C9090FD015890093C5F30E05C3
:106AA0001D44294B012201934FF48043CDE902326A
:106AB000009B9D4217D8244B244A25491360254A40
:106AC00003F59473136024484FF4F962FFF78AFFCB
:106AD0004FF4C6722149224804B0BDE87040FFF768
:106AE00081BF0122CCE76846FEF736FA019ED0B19D
:106AF0006846FEF742FA04466846FEF73EFA009BF7
:106B000002385A1C00921B78023403EB0023DB434B
:106B100033441C449C42CBD0019A511C019113F880
:106B2000011B1170F6E7009B5A1C0092721C019227
:106B30001B783370BCE704B070BD00BF500000206C
:106B4000B43200207CB2000828330020EC1F002063
:106B500081210020F01F00200EB80008F51F002042
:106B600081B600080C2210B5094C1F202378013390
:106B700003F0010323705343064AD15AFEF76EFA1D
:106B8000FFF76CFF2078431E5842584110BD00BFEC
:106B9000500000207CB20008054B1A69120605D58A
:106BA000044A5A6002F188325A601B69704700BF7C
:106BB0000020024023016745022321BB80F83E30BC
:106BC0000122036802FA01F11A6A22EA01021A623A
:106BD0001A6A11430F4A196293420AD0B3F1804FE7
:106BE00007D0A2F59432934203D002F5806293421B
:106BF00004D19A6802F00702062A03D01A6842F00C
:106C000001021A60704708290CBF80F8403080F8F4
:106C10004130D5E7002C014010B590F83D300446D6
:106C200003F0FF020BB980F83C200223206884F8AF
:106C30003D30211DFDF7B2FC012384F8463084F875
:106C40003E3084F83F3084F8403084F8413084F896
:106C5000423084F8433084F8443084F8453084F876
:106C60003D3010BD022380F83D300368DA6842F001
:106C70000102DA600B4A93420AD0B3F1804F07D089
:106C8000A2F59432934203D002F58062934204D17C
:106C90009A6802F00702062A03D01A6842F001023D
:106CA0001A607047002C014013B500211920FFF72E
:106CB00091FD4FF000721B4B1B4C1A601B4B204682
:106CC0009A6942F400629A619A6902F40062019240
:106CD000019A5A685A685A685A68154A12685B6875
:106CE000144AC3F3C223D25C134B21611B68A16019
:106CF000D340124AB3FBF2F3114A013B226040F247
:106D0000E7326360E260FFF71DFD48B994F83D305B
:106D1000012B05D1204602B0BDE81040FFF7A2BF0D
:106D200002B010BD00E100E01C3100200010024064
:106D300000200240E6B100084C00002040420F0055
:106D4000002C014090F82430F0B5012B62D00123D3
:106D50001F2480F824300F694D680368EA1B02EB9A
:106D600082020F32944044F44014E443BD420E6862
:106D70009BBFD3F838C006FA02F29A6B07F1FF37CF
:106D80009DBF42EA07520CEA0404224322409A6360
:106D90009A68D20707D49A68CC6922F4E04222F0BC
:106DA000010222439A608C69012C0CD1CA69B2F5A8
:106DB000E04F0BBF5A68826A42F4806242F02002C0
:106DC0000CBF5A6082624A69012A04D11CBB5A680E
:106DD00042F480525A60092E4FF007048F6806EB88
:106DE00046021DD9DE681E3A944026EA040407FADA
:106DF00002F22243DA60022DC968154C18D0032D27
:106E00001BD0012D1ED15A6922400A435A6100232A
:106E100080F82430F0BD826A42F020028262DAE714
:106E20001E69944026EA040497403C431C61E2E753
:106E30009A6922400A439A61E9E7DA6922400A43E3
:106E4000DA61E4E71A6A22400A431A62DFE700BF08
:106E500000F0FFFF10B590F824300446012B3DD020
:106E6000012380F82430FDF7D1FB00283FD1A36A2D
:106E7000214A23F4405323F0010343F48053A362D7
:106E80002368934205D1A2F58062526812F4702FF4
:106E900025D1A26A22F48012A262A26A12F4807240
:106EA00008BFE262002284F824206FF004021A6016
:106EB0005A68520512D49A6802F4E042B2F5E04FE3
:106EC00011D10D4A934205D1A2F58062526812F4A5
:106ED000702F08D19A6842F402129A6010BDA26A1B
:106EE00042F48012D8E79A6842F40042F5E70023A2
:106EF00084F82430F2E700BF00280140002337B5B2
:106F0000019390F824300446012B5FD0012380F8D0
:106F10002430FDF7B1FB0546002839D1A36A2C487F
:106F200023F4885323F0020343F00203A362294BA6
:106F30001A68294B59685B68C1F3C221415CC3F3ED
:106F40008133013322FA01F15B00B1FBF3F3B2FBB1
:106F5000F3F252000192019BF3B92046FDF756FB74
:106F600023689A6842F008029A601C4A106899687F
:106F7000090715D4996841F004019960106899686F
:106F800049071ED4A36A23F0030343F00103A3625D
:106F9000002384F8243011E0019B013B0193DAE7E0
:106FA0001168091A0A29E2D9A36A012523F01203FC
:106FB00043F01003A362002384F82430284603B072
:106FC00030BD1168091A0A29D9D9EDE70225F5E77C
:106FD000E6B100084C00002000100240E440002010
:106FE0002DE9F0471F4BDA8D1F4B92B29B68C3F31C
:106FF0008F039B00B3FBF2F30A229BB2B3FBF2F4C4
:1070000002FB14339BB2042B88BF0134A4B2092CB9
:107010001FD94FF00A090123B4FBF9F8134E1946A2
:1070200000221FFA88F0B6F90050FEF72BFC082367
:107030000F4F09FB18403B8001230022194680B204
:107040003580FEF71FFC00230C3535803B80BDE802
:10705000F08701232046BDE8F0471A461946FEF79F
:1070600011BC00BFB43200205C2E0020942D002003
:10707000962D002070B5114A114B9468DB8DC4F336
:107080008F049BB2A400B4FBF3F40A26A4B2B4FBB1
:10709000F6F50123284600220221FEF7F3FBFF222A
:1070A00000210848FEF7C4FA012306FB1540BDE89D
:1070B00070400022194680B2FEF7E4BB5C2E00202F
:1070C000B43200209EB0000810B5FDF7DDFCD0E919
:1070D0000F3463430268D1181B1B8160426000219A
:1070E000BDE810401A44FF23C2604FF0FF328163B5
:1070F00080F8443080F8453000F11803C0E90623D9
:107100004361036200F12C030161C0E90A32C0E966
:107110000C334162FDF7D2BC034B4FF400720021E7
:10712000186803F06BBF00BF642B0020F8B503683C
:1071300005460E46002B3AD102600120334601215C
:107140001F784C1EA4B2002F33D104EB4404A400DA
:10715000A4B2802C38D92B68D21A1F4B9B8C9BB2BF
:10716000012B0CBF0A231423B2FBF3F204F18003BA
:1071700012B292FBF3F103FB11227F2A2ADDA24215
:1071800026DC14B2B5F90430A3420FD0FFF7C4FFD8
:10719000124BC4F180021A800022114B30461A8033
:1071A0000121FF22FEF744FA0120AC80F8BD002047
:1071B000C4E7F02F03D80133013189B2C0E75F780B
:1071C000002FC2D00233F7E7C4F1800304EB63045D
:1071D00024B2D7E78024D5E7B4320020942D0020D4
:1071E000962D00202DE9F3410646DDE908040F46FF
:1071F000984640B94FF0500383F31188BFF36F8F67
:10720000BFF34F8FFEE70CB9FDF734FC6423019305
:10721000019B642B08D04FF0500383F31188BFF318
:107220006F8FBFF34F8FFEE795002A46A52120639D
:10723000019B03F0E3FE226B043D2A4422F0070287
:10724000002F00F096807B1E04F134011F3713F8E5
:10725000010F01F8010B08B1BB42F8D1002384F8FB
:1072600053304346052B28BF0523E3626365C3F112
:1072700006030021A3614FF08073A1656161A162E3
:1072800024616462E16584F8601042F8043C404B7C
:1072900026F0010642F8086C42F80C3C42F8201C2B
:1072A000403A2260FDF7F0FB3A4A3B4D13683B4EF3
:1072B000013313602B68002B5ED12C601268012A09
:1072C0002ED132464FF0FF3C14201F4602F1080138
:1072D000C2E9011CC2E9031100FB03F10133062BD3
:1072E000775002F11402F1D12D4A02F10803C2E9EC
:1072F000013CC2E903332B4B176003F10801C3E9DA
:10730000011CC3E9031128491F6001F108000F6047
:10731000C1E9010CC1E9030024490A60244A136051
:10732000244A254913680868013313600123E26A7F
:107330009340034314200B6000FB0260211DFDF706
:107340005BFCFDF7BBFB1D4B1B6873B12B68DA6A56
:10735000E36A9A4209D24FF0E0234FF08052C3F81B
:10736000042DBFF34F8FBFF36F8F204602B0BDE8EF
:10737000F08184F8347074E7104B1A68E36A002ACD
:10738000CED12A68D26A9A4298BF2C60C8E700BF63
:10739000514A0008E84000202C32002038320020FA
:1073A000FC40002010410020944500203032002095
:1073B00034320020F0400020F4400020A845002096
:1073C00037B50446D0E90010A569B4F90830226940
:1073D00001956469842B0CBF002303330094FFF7ED
:1073E00001FF03B030BD00002DE9F843044640B969
:1073F0004FF0500383F31188BFF36F8FBFF34F8FAC
:10740000FEE7056C45B14FF0500383F31188BFF3DD
:107410006F8FBFF34F8FFEE7FDF7DEFBFDF734FB09
:10742000A26BE36B9A4273D2226CA76B002A5FD1E6
:107430002368B3B100250137A763636A002B65D0C9
:1074400004F12400FDF70CFD002861D04FF0E0238B
:107450004FF08052C3F8042DBFF34F8FBFF36F8FEF
:1074600056E0A5681DB900250023A360E3E72A4B79
:107470001B689D4208D04FF0500383F31188BFF37F
:107480006F8FBFF34F8FFEE7AB6D43B94FF05003E3
:1074900083F31188BFF36F8FBFF34F8FFEE7D5F8EB
:1074A0002C906E6D013BB145AB65DCD0002BDAD181
:1074B00005F104084046FDF7C2FB184B30B9012125
:1074C0001A6801FA09F122EA01021A60C6F10602FD
:1074D000EE62AA6101251420196805FA06F20A4332
:1074E0001A600F4B414600FB0630FDF785FBBBE7FA
:1074F0002946606803F09AFD6368226C1344A26811
:107500006360934296D32368636094E7002D9DD116
:10751000BDE8F843FDF7D2BA2C320020F440002039
:1075200038320020014B1868FFF75EBF982D00200D
:10753000F8B507460E461546FEF7F2FE044650B172
:10754000F8B2FDF755FFFDF7B9FF30B9FDF76EFF53
:107550000024FFF7E7FF2046F8BDF0B2FDF7AEFFCD
:107560000028F3D0FEF7B2FB2878FDF7A7FF04460A
:107570000028EBD0FDF75AFFFFF7D4FFEBE7000040
:1075800007B5084B5A38C0B283F840008DF80700A1
:1075900080210DF107027820FFF7CAFF03B05DF8E4
:1075A00004FB00BF0000002010B5094CB4F84600F1
:1075B00080B2003818BF0120FDF7F6FFB4F846008E
:1075C000BDE8104080B2003818BF0120FFF7D8BFD7
:1075D000B4320020F7B50D46044600260C4F637800
:1075E000782021780DF107028DF80730FFF7A0FF12
:1075F00060B1A3782BB1396801333A68521A9342CB
:10760000FBD80136AE4204F10304E8DB03B0F0BD61
:10761000E4400020192310B50B4CB4F8480080B2A8
:10762000B0FBF3F00123013019461A4680B2FEF791
:1076300029F9B4F848300548022180F82E30BDE819
:1076400010402A30FFF7C6BFB432002000000020EF
:10765000F8B504460F46FEF763FE054650B110200C
:10766000FDF7C6FEFDF72AFF30B9FDF7DFFE002566
:10767000FFF758FF2846F8BDE0B2FDF71FFF0028CE
:10768000F3D04FF480020C24114B1A6100BF013C6F
:10769000FCD11120FDF7ACFEFDF710FF05460028D8
:1076A000E3D00826FDF7DAFE6400E4B2013E0443AD
:1076B00016F0FF06E4B2F5D18022054B01201A61D5
:1076C000FDF7E4FE3C70FDF7B1FEFFF72BFFD1E7BD
:1076D000000C01400F2813B526D007D8092825D063
:1076E0000C2825D0052825D000201BE0122823D007
:1076F0001428F9D1072000240DF107018DF8074067
:10770000FFF7A6FF70B19DF907209DF80730A24250
:10771000EADA03F00F03013BDBB20E2B0ED8084A66
:1077200032F8130002B010BD0520E4E70320E2E7C1
:107730000420E0E70220DEE70620DCE73220F1E764
:1077400014B2000813B500240DF1070120468DF88E
:107750000740FFF77DFF48B19DF807301B09013B4B
:10776000DBB2052B8EBF2046014AD05C02B010BDB3
:1077700032B2000883B54D4C4D4EFDF785F92368B4
:1077800093F86030022B13D023683220DA6DDA656B
:107790000122236883F86020FEF716FD4FF0E023F6
:1077A0004FF08052C3F8042DBFF34F8FBFF36F8F9C
:1077B000FDF784F9FDF768F94FF00008236893F8A6
:1077C0006030022B01BF2268D36D03F07F43D36585
:1077D000236883F86080FDF771F93368B3F5FA6FB9
:1077E000CBD3344D2B78FF2BC7D101200DF10701EE
:1077F0008DF80780FFF72CFF0028BED09DF807709A
:10780000C7F3C207012FB8D1FFF79CFF0028B4D0FF
:1078100005208DF80780FEF70FFD0C20FFF75AFFBB
:10782000272816D90C2364224343B3FBF2F3032722
:10783000023B214A08200DF107011360FFF708FF02
:1078400000289AD09DF80730B7EB131F10D12F7086
:1078500093E70920FFF73EFF1D2881BF642300EB5B
:10786000C000B0FBF3F3022794BF0A23023BE0E71A
:107870003B01082110200DF107028DF80730FFF7BA
:1078800057FE00283FF479AF0123092110200DF1A4
:1078900007028DF80730FFF74BFE00283FF46DAF6D
:1078A00032202F70FEF7C8FC67E700BF2C320020A3
:1078B000AC45002000020020283200202DE9874836
:1078C0000020FEF70DFB00232024884A884D13601A
:1078D000884B1A68884B1A600520FEF7BFFE01200E
:1078E000FEF78CFBE88D012180B2FEF7A9FA013C7E
:1078F000F2D141F28738814C814E2378FF2B09D198
:107900003368434506D84FF4FA60FEF7DFF9FEF717
:10791000A5FEF2E7FFF716FF044600200DF1070170
:107920008DF80700FFF794FE002851D09DF807302E
:1079300003F00F03013BDBB20E2B8EBF3223714AE3
:1079400032F81330DBB24FF47A725443B4FBF3F4E1
:107950000534A4B2132C84BF32226B4B6B4E84BF10
:107960001B689A624FF4FA60FEF778FE002800F078
:10797000B7800120FEF742FB5C4B83461C68DFF8B2
:1079800080A1634FDFF88C91DFF88C81002C00F030
:10799000A080B4F5E17F28BF4FF4E174FEF700FB4F
:1079A000A04202D2FEF7FCFA0446A4EB0B040A2C18
:1079B0001FFA8BFB05DD3988ABEB010109B20A29FF
:1079C00008DDDAF80020A7F800B0C9F800200DE0C3
:1079D0000A23B8E7DAF80020D9F80030D31A44F6C1
:1079E0002062934202D9012388F800304FF47A7B59
:1079F0004A49DAF800300A6800209B1ABBFBF3FB07
:107A0000DAF800300B60FEF73BFAAB8E9BB243B165
:107A10000A22AB8E9BB253439842C2BFA88E80B25B
:107A200050433F4B1B6823B10A2253439842A8BFDF
:107A300018468023B3FBFBF33268C3F1640353435E
:107A40006422240193FBF2F394FBFBF4234483426E
:107A500039DD306030682B8D9BB20BB340F6C4111A
:107A60006B8D304C9BB24B43DAF800202168521AE0
:107A7000934209D2FA21AA8DDAF8003092B223603B
:107A800001FB0233284A13602B8D9BB2984207DA20
:107A9000254ADAF8003012689A4284BF288D80B2F5
:107AA00047F6DF72214B9B68C3F38F03934288BF75
:107AB000002098F80030002B18BF0020FEF710FAC5
:107AC000FEF704F94EE740428342ACBF33603060BA
:107AD000C0E7DAF800203880C9F800202046BAE76D
:107AE0001423134A1380134B18703BE7342F0020E4
:107AF000B43200202C32002024320020000200206A
:107B0000AC45002014B20008AC310020782E0020D3
:107B1000702E0020742E0020B83000207C2E002013
:107B200028320020842E0020802E0020302E0020BD
:107B3000E81F00202032002038B505460C46FEF72D
:107B4000EFFBB8B17820FDF753FCFDF7B7FC28B97F
:107B5000FDF76CFCBDE83840FFF7E4BC013D15F8CB
:107B6000010FFDF7ABFC0028F2D0013CA4B2002CC1
:107B7000F5D1EDE738BD000008B5FDF70DFA30B1DD
:107B8000BDE8084040F211210148FFF7D5BF08BD0C
:107B90004A2900202DE9F74F06464D4DDFF8348184
:107BA00001916B8C9BB2002B71D0002E6DD1EA88B5
:107BB000AB8892B29BB2934228BF13461F2B64D965
:107BC000092203EB8303A03BB3FBF2F3C8F80030B8
:107BD000FEF734FA00240746FFF79EFA3E492A8C46
:107BE0003E4BDFF8FCB0D1F800A03E4992B2D1F88C
:107BF00000901C80ABF80040002A52D0BAF8260052
:107C0000FF2221464844FDF713FD344BBAF8280003
:107C10001C800823FF2221464844ABF80030FDF7C2
:107C200007FD0123224603213846FDF72BFE20469F
:107C3000FDF7FEFFFF2221462B48FDF7F9FCFFF779
:107C400019FAFF2221462948FDF7F2FCFFF794FFBD
:107C5000FEF710FB0198FDF7CFF998B16B8B9BB243
:107C600083B3234B196869B3224B1A686B8B521A82
:107C70004EF660219BB24B439A4223D90023012048
:107C8000C8F8003003B0BDE8F08F00239EE7002E57
:107C90009CD1EA88AB8892B29BB2934228BF13462C
:107CA00094E7BAF82400FF2248440121FDF7C0FC04
:107CB000012338461A460321FDF7E4FD0220FDF7B3
:107CC000CBFFC3E7FDF726FB08287FF46AAFD5E7B3
:107CD000B4320020342F0020EC1F0020942D00200F
:107CE000962D0020F01F002094B10008A0B00008DD
:107CF000F8310020AC45002038B505460C46FFF7AA
:107D00000BFA2846FDF74CFDFFF736FF2046BDE88D
:107D10003840FEF7B3BA00002DE9F84F0024674B56
:107D2000674FA046D7F800901C60FDF7F3FA051BDB
:107D300018BF0125A246634BA3F800A0624BA3F82D
:107D400000A0FFF7E9F9FDF7E5FA002800F0A080B0
:107D5000D7F80090002D40F09F80042800F08B8021
:107D600009D80228594B00F0828002D8012800F07F
:107D70008D802B4614E0082803D01028F9D1BDE8E7
:107D8000F88F3A68A4EB08031344B3F5967FF0D953
:107D90004E4B1B8F5B422134D7F800801BB2E4B2FC
:107DA0004A4EC4F59672632AF28ED8BFC82492B2A6
:107DB0000AB15B421BB2DBB1B18883EAE372A2EB8A
:107DC000E372194409B213B291FBF3F15143738C7E
:107DD00009B29BB2002B61D03C2940F25233B8BFAC
:107DE0003C219942A8BF1946002089B2FDF736F917
:107DF0003B68A3EB0903B3F5FA6FC0D8344BFF22FD
:107E000093F800B0F38E01219BB2BBF1000F4ED06E
:107E1000DFF8C0C03048002B18BF6046FDF708FCF3
:107E2000FF2201212D48FDF703FC0123B0881A46EB
:107E3000032180B2FDF726FD0220FDF70DFFFF2292
:107E400001212648FDF7F4FBF38EFF2201219BB2AE
:107E5000BBF1000F2FD0204E1E48002B18BF30461C
:107E6000FDF7E6FBFFF788FEFEF704FA63E75B8F9A
:107E70005B421BB294E73A68A4EB08031344B3F5E2
:107E8000967F7FF676AF114B1B8F84E75B8FF0E711
:107E900004460546234683E70024FBE70A29B8BFCA
:107EA0000A21B1F5E17FA8BF4FF4E1719CE7DFF84B
:107EB00028C00848AFE7074E0748CEE7342F002018
:107EC000AC450020942D0020962D0020B4320020D7
:107ED000782B0020D1B00008A2B0000894B10008AF
:107EE000002373B500934FF6FF7304460C4EADF8B4
:107EF0000430214668463268FFF718F90546FDF759
:107F000009FA38B9002DF4D0FFF736FE2820FEF725
:107F100093F9EEE7431E5842584102B070BD00BFCE
:107F2000AC45002008B50B4BB3F84C309BB273B98D
:107F3000094B0A4A1B6810689B8A1844FFF7D0FF58
:107F400018B101212420FDF789F8002008BD002187
:107F5000F8E700BFB4320020EC1F0020F01F002023
:107F600008B5094A0346117881420BD010700748C2
:107F7000523B43701021FFF7DFFDBDE808400A20A7
:107F8000FEF75AB908BD00BF492900204A29002040
:107F900070B5134E04463378834220D0002C0CBFBA
:107FA000C025C8250F48C4F1A10319210377057422
:107FB000FFF710FB0A20FEF73FF900230A4840F2C2
:107FC000112143717F234572C3713470FFF7B4FDF3
:107FD0000A20FEF731F9BDE87040FCF7DDBF70BD47
:107FE000782B0020000000204A2900202DE980483D
:107FF00014208DB0FEF720F90722474B32201A607B
:10800000FEF71AF90023454F454E3B60338B9BB278
:108010001BB14FF4FA60FEF70FF91022002108A8F7
:1080200002F0ECFF102200210DEB020002F0E6FF4F
:1080300010220021684602F0E1FF0025DFF8E4800D
:10804000C82240F6E44C738A9BB202FB13CC364B39
:1080500041F288329B6813F0080F08BF0022338A70
:108060000CAB03EB450323F8102C23F8202C23F84A
:10807000302C98F8003001352BB9EBB2082B3FD1EA
:10808000012388F800300024EE462046214623468E
:1080900005F007050DF1200A0DF110093AF902BBB0
:1080A00001345B4439F902BBE4B259443EF902BBE6
:1080B000082C5844F2D1002BB8BF0733C2EBE303BE
:1080C000002BB8BF5B420029B8BF0731C2EBE1010A
:1080D0000029B8BF49420028B8BF0730C2EBE00210
:1080E000002AB8BF52420B4413449C45B8BF0F4B03
:1080F0004FF06400BCBF1B683B60FEF79DF89FE734
:108100000CA901EB4301013321F8102C21F8202C9C
:1081100021F8302CDBB2B1E744020020F831002016
:10812000B43200208A2E002000080140AC45002017
:1081300010B50620FCF7A8FF054B04461B8A98B231
:1081400018B1012801D0204610BDFFF721FFFAE742
:10815000B43200202DE9F04774223149314802F051
:1081600055FF002859D0FDF7B1FD35222E4BDA60BE
:10817000FEF712FD2D4A116813685B1A012BFBD91B
:108180002B4CFDF7A3FD237E012B18D00123237672
:10819000FEF78EFA88B9244DE0612B6943F00203A3
:1081A0002B61204B6B612B6943F040032B61FEF781
:1081B0007FFA2B6923F002032B6100232376FEF75D
:1081C000EBFC4FF00109164F164D174EDFF8648097
:1081D000FDF77CFD237E012B15D0B7F800A084F8B5
:1081E0001890FEF765FA60B9E061336943F0010366
:1081F0003361A5F800A0FEF75BFA336923F00103B1
:108200003361002323760235454507F10207DFD1AC
:10821000054A136943F080031361BDE8F08700BF8E
:10822000B432002000FC000800200240E44000209E
:108230000032002074FC00082DE9F04F85B00028C2
:1082400040F0C2804FF0000B5D46CDE901BBB14C60
:10825000DFF8C492FDF75EF8019B002B00F0D88098
:10826000E38C9BB2002B00F0D380042800F0F9804F
:1082700000F2BA80002800F01781032840F0BD808A
:10828000FEF74AFF238CA54A9BB292F80080A44FC8
:10829000A44E002B00F06681B8F1000F14BF32230A
:1082A0004FF0FF334FF0000A01203B80A6F800A0FA
:1082B000FDF764FF638A9BB263B323899BB24BB320
:1082C000D04514BF20232F23A6F800A03B80FCF745
:1082D0007BFE954A954B1168954A1B68126891423E
:1082E0002CBFC3EB0103C3EB02031844914B98422C
:1082F00040F2DC804EF66023B0FBF3F001305246D2
:10830000022180B20123FDF7BDFAFF2251468A48BF
:10831000FDF78EF9002D00F0D880B8F1000F14BFE2
:10832000262337233B800823FF2200218348338004
:10833000FDF77EF9B8F1000F0CBF432300234FF087
:108340000008DFF8FCA10393DAF800003B80B0F5E9
:108350007A7FA6F80080C0F0C480FF2241467948A9
:10836000FDF766F90A23DAF800004246B0FBF3F0A5
:108370000321012380B2FDF785FAFF220021724814
:10838000FDF756F9039B3B8008233380FEF772FE0E
:10839000FF2200216D48FDF74BF9FFF7EDFB638CE1
:1083A0006B4E9BB2002D00F03981002B00F0338121
:1083B000238E9BB21F2B40F21481092203EB83030F
:1083C000A03BB3FBF2F30DE1831E5842584101215B
:1083D000FFF7E0FB01287FF435AF544B1A68524B8E
:1083E0001A6005B0BDE8F08F20282DD03FF648AFC9
:1083F000082802D010287FF443AF564BD9F800006C
:108400001B684FF4FA71DB891844FFF775FC37E7F6
:10841000042832D010D8002846D003283FF430AFCB
:10842000A688FFF779FCA388B6B29BB2B3423FF4AB
:1084300027AFFFF78FFE23E71028D2D0202822D0C5
:1084400008287FF41DAFCCE7424BD9F800001B6829
:108450004FF47A719B891844FFF74EFC0023019377
:108460000EE7238E9BB2002B3FF40AAFE38C019AF8
:108470009BB2012B08BF154602E7238E9BB2002B4F
:1084800018BF0125FCE6E38C9BB2002B3FF4F8AE4D
:10849000304BD9F800001B684FF47A715B8918449F
:1084A000FFF72AFC0123DAE70546E9E64FF47A7381
:1084B000B0FBF3F001305246022180B20123FDF7F8
:1084C000E1F9FF225146244822E7B8F1000F14BF1A
:1084D00020232F233B800823022229461F48338074
:1084E00026E74FF00A0AB0FBFAF0012342460221C8
:1084F00080B2FDF7C7F9FF2241461948FDF798F809
:108500000F4B42461868B0FBFAF30AFB1300012335
:1085100019462FE7B4320020F01F0020782B0020EE
:10852000942D0020962D0020F4310020AC45002031
:10853000F8310020B8820100A4B00008D1B00008D2
:10854000F840002094B10008A9B00008A0B00008CD
:10855000342F0020EC1F0020A4B10008A6B00008B2
:108560009EB000083B803380B8F1000F1CD0FEF7AE
:1085700037FD3D48FF220121FDF75AF80120FDF7A4
:10858000FDFD5DB102210846FCF7C0FF374B00211D
:108590001868FDF78BFCFDF709FBFEE6FF220121C1
:1085A0003148FDF745F8F1E7304B41461868FDF7D3
:1085B0007DFCFDF7FBFA75B102210846FCF7A6FF2A
:1085C0000120FDF7DBFDFF2201212748FDF730F8F0
:1085D000FEF706FDE1E6FF2201212348FDF728F81A
:1085E000EEE7002300203360FCF706FDD8B9DFF882
:1085F000808098F80070EFB100241E4B1E4A1B6863
:1086000010681B8A42F2107118443460FFF774FB43
:1086100088F80040E5E6238E9BB2E3E70BB1A38820
:10862000C7E6A388F8E700210846FFF7B3FA002859
:10863000DDD0D6E638463668FDF7E0FC0A36361A55
:10864000142E06D8029B6BB901270C4B1B6803F252
:108650004D1BBBF1000F01D0084B1B68FDF70AFE54
:108660000297F7E5029FF4E794B10008F840002074
:10867000B8300020EC1F0020F01F0020AC45002087
:10868000F8B545F2AA54234B1A8892B2A2423AD0C6
:1086900018467422FF2102F0B1FC04800346012435
:1086A0001A6F01321CBF4FF0FF321A675A8818BF89
:1086B000012492B2342A08D84FF6FF715A8892B238
:1086C000342A22DD352201245A800022124903EB8C
:1086D0004206B5880F88ADB2AF424FEA420004D8D7
:1086E000B5884E88ADB2AE4203D2CC88184484809F
:1086F00001240132352A01F10801E8D10CB1FFF75C
:1087000029FD2046F8BD0024CAE703EB4200818022
:108710000132D5E7B4320020520000202DE9F84F95
:10872000FEF7FAFC4FF01909414F424A424D946856
:10873000EB8DC4F38F049BB2A400B4FBF3F44FF0B1
:108740000A0BA4B20123B4FBFBFA0026DFF8EC808D
:108750001A4602215046A7F80090A8F80060FDF7DD
:1087600091F8FF2201213648FCF762FF01220BFB42
:108770001A403346114680B2FDF784F8FF220121EA
:108780003048FCF755FF0823E88D32460321A8F84E
:10879000003080B201233E80FDF774F8FCF7BAFD8B
:1087A000022841D007D8012826D0FFF7E5F9282074
:1087B000FDF742FDB9E71028F7D8234C044114F027
:1087C0000104F2D1FFF7C6FCFEF7A6FC1F4B204ABE
:1087D0001B6810681B8840F6B83118443C80A8F824
:1087E0000040FFF789FAFFF7C7F94FF4FA70FDF779
:1087F00045FD2046BDE8F88F164AB2F8A830B2F819
:10880000AA00B2F8AC10EA8D92B2934202D1E88588
:10881000EB8DCAE7EA8D581892B28242C2BFEB8D47
:108820005B1A9BB2EB85F3E71520FCF72DFCBCE748
:10883000942D00205C2E0020B4320020962D0020C4
:1088400098B00008ABB00008EFFEFEFFEC1F002060
:10885000F01F00205200002038B50D4B1D680D4B55
:10886000288B1C682044FFF73BFB80B17422FF215A
:10887000094802F0C3FBFFF703FFFFF76BFC6888B2
:1088800040F6B8312044FFF737FAFDF70DFA38BD4E
:10889000EC1F0020F01F0020B43200202DE9F04F23
:1088A0004FF0000A454B89B01A681B680390049288
:1088B0000793424B049A1B684FF4FA719B1A642287
:1088C00002935343B3FBF1F39BB2C3F196045B43B2
:1088D0005C4341F2883394FBF3F4A4B2E401B4FBAB
:1088E000F2F4A4B2802C28BF8024039BE1B2C4F12F
:1088F000800B002B57D12646D046039D5FFA8BF79D
:10890000DFF8BC905A46D9F800308A46981903EB34
:108910000801059302F098FBD9F804305A4603EB9E
:1089200008019819009302F08FFBD9F808305A46D5
:1089300003EB08019819019302F086FBD9F80C901B
:108940005A4609EB080109EB060002F07DFB1D4BBE
:108950002246D919059B1C4E581902F075FB1B4B7A
:108960002246D919009B581902F06EFB019B224642
:108970005819F11902F068FB06F1800122463944CA
:1089800009EB050002F060FBFFF7F6F807A8FDF71A
:108990002FFEFCF7BFFC18B9029BB3F5FA7F88D90C
:1089A00009B0BDE8F08F0026A1EB0A03C1F18005F4
:1089B00037465FFA83F8EDB2A2E700BFAC4500206E
:1089C000642B00208A2B0020792C00200A2C002008
:1089D0002DE9F04F00260124B34B91B01C70059097
:1089E0008DF81A608DF81960FCF757FC4FF6FF738D
:1089F00007940294B1463446DFF8B082DFF8B0B293
:108A00000996ADF8283014239DF81A506B43039350
:108A1000039A059B9F180493BB681BB19DF81930FE
:108A2000019313B111B0BDE8F08F019BDDF81CA0DC
:108A30008DF81B30BAF1000F00F09F809D48FCF7C5
:108A400055FDFB6873B1984760B937469A480135C0
:108A50008DF81A50FCF74AFD029B0193019B3E469C
:108A60000293D0E70122954B1A700023944A138099
:108A7000944A1380FEF750FBB97C11B1787CFCF767
:108A8000A3FEBB689847BAF1020F40F0DF800022D6
:108A9000CDF833204FF40652ADF82C2080228DF80B
:108AA0002E208DF8302040224FF0200A824B0B21DF
:108AB000DB790BA88DF82F308DF831308DF832200E
:108AC000FFF73AF8D8F80030089300217E4A7F4B30
:108AD00012F801EB013192F87FC0C9B24FEACC1015
:108AE00040EA5E0092F8FFE002F8010C4FEACE1077
:108AF00040EA5C0092F87FC182F87F004FEACC1018
:108B000040EA5E0013F801EB82F8FF004FEACE1056
:108B100040EA5C0093F87FC082F87F014FEACC10F6
:108B200040EA5E0093F8FFE003F8010C4FEACE1034
:108B300040EA5C0083F87F0093F87F0180294FEAC8
:108B4000C01C4CEA5E0C4FEA500083F8FFC083F86B
:108B50007F01BDD1FCF7DEFB00286BD040F209227B
:108B60005A49594802F062FAFFF706F85248FCF7F2
:108B7000BDFC0023514A07931370DBF80020D8F89E
:108B800000309B1A40F6B732934269D9DDE90323DE
:108B9000995C002964D04E4BD8F800201B6809A8C6
:108BA00003EB41034B49B3F84A3009681944FEF717
:108BB000BDFA029B03B920B1FEF7DEFF2820FDF7C6
:108BC0003BFBFCF7A7FB0DF11B030B9305AB0C93D1
:108BD0000DF11A030D930DF11903864218BF0024FD
:108BE0000E93042807AB07460F937FD047D8012880
:108BF00053D0022872D0C4F59673632BDBF80020A3
:108C0000D8F8003098BFC8249B1A334A934208D939
:108C100001238DF81930002309934FF6FF73ADF847
:108C200028309DF81B30002B3FF418AF0598FCF757
:108C300034FB13E7FEF7A0FF08A8FDF7D9FC0AF103
:108C4000FF3313F0FF0A7FF440AF8FE71A48FCF7B9
:108C50004DFC0AF1FF3358425841FFF71FFE88E7E9
:108C60000023174A1380174A1380FEF755FAB97C80
:108C700011B1787CFCF7A8FDBB6898479CE70828F1
:108C800050D01028B7D101238DF819300023099353
:108C90004FF6FF73ADF82830ADE7099B002BF5D1F7
:108CA0000BA8FCF711FBA6E7582E0020AC450020CE
:108CB000F4310020792B00204A290020F41F0020E5
:108CC000942D0020962D00205B2900208A2B002067
:108CD000EC1F0020F01F0020C0D40100099B002BD6
:108CE000D4D101358DF81A50079084E7D8F80030B8
:108CF00009F59672234493427FF67DAF0BA8FCF7EB
:108D0000E3FA00280CBF4FF000094FF47A79D8F845
:108D100000309944002309934FF6FF732134ADF8D6
:108D2000283068E7D8F80030A3EB09032344B3F5F3
:108D3000967F7FF660AF02230135D8F800908DF85A
:108D40001A500793E6E700BF2DE980488BB0FDF786
:108D500085FE0023854ADFF818B2DFF818A21370E9
:108D6000ABF80030AAF80030834B844903F180024D
:108D70004A6003F580728A6003F5C072CA60804A57
:108D80000B60113B02F1100152F8040B8A4243F8C8
:108D9000040BF9D112781A70794B7A4A53F8040B04
:108DA0008B4242F8040BF9D100241B78764D1370E6
:108DB00019212846FEF70EFC002818BF0B240134A9
:108DC000092CF5DD714C0120FFF7CAF8B4F84830E2
:108DD0006D48022180F82E302A30FEF7FBFBB4F8F4
:108DE00046006B4D80B2003818BF0120FEF7C8FB6B
:108DF00029236848684A694E694C6A499F5D05F8AD
:108E0000017B1F5D00F8017B5F5C013B02F8017B89
:108E1000F4D25323644D6548654AF75C05F8017B3D
:108E2000E75C00F8017BCF5C013B292B02F8017B5A
:108E3000F3D1FDF7CDF8554B188A00F00100FFF78C
:108E4000A7F85C4B9C6814F0020440F0BF805A4FB6
:108E50000025FEF761F9FF2229465848AAF800507C
:108E6000ABF80050FCF7E4FB0823072CAAF80050ED
:108E7000ABF8003001D0002C44D1FF220021504833
:108E8000FCF7D6FB00213846FF22FCF7D1FB00207F
:108E90000DF11F018DF81F008DF82000FEF7D8FBA3
:108EA00018BB4FF6FF700421FDF778F9FF2200216F
:108EB0003846FCF7BDFBFEF745FC012300220221EA
:108EC000FCF7E0FCFF2200213846FCF7B1FB002450
:108ED000FEF752FEFCF71EFA022877D0012804BFE5
:108EE0000134E4B2FDF7C6F9B2E7012008A9FEF7A4
:108EF000AFFB0028D5D09DF81F309DF8200040EA38
:108F00000320D0E72F4B4FF0640918689B88089026
:108F1000ADF8243004F128036B4413F8098C404663
:108F2000FEF7D8FB064601232A4640460221FCF7FD
:108F3000A9FC29463846FF22FCF77AFB0123B6FB41
:108F4000F9F819462A461FFA88F0FCF79BFC2946D7
:108F5000FF221D48FCF76CFB09FB186001232A4621
:108F6000022180B2FCF78EFCB2E700BF782B002014
:108F7000962D0020942D00205B290020642B0020DA
:108F800070B60008792B002000000020B4320020C9
:108F90008B2E0020DF2E0020382F002048CF000825
:108FA0009CCF00081CB60008B52E0020092F002019
:108FB000622F0020000C014094B10008ADB0000801
:108FC000B6B00008CCB000089EB00008A04BB3F8C3
:108FD0004C309BB2002B6AD0FEF7CEFD3220FDF75D
:108FE0002BF9FDF741F80546002860D1FDF706F89A
:108FF00004462846FCF7A6FF0A23B0FBF3F080B234
:10900000241A002CB8BF6442092C50DCDFF84482DB
:10901000002426462546FCF7DBFF0644FEF77CF8D5
:109020008D4BFF221B68002103938C4BAAF8005044
:10903000D3F80090039BABF80050D88A002748442F
:10904000FCF7F6FA0823FF2200214046ABF8003077
:10905000AAF80050FCF7ECFAC4F385030493049AD1
:10906000FBB29A4270D8FEF787FD01346420FDF709
:10907000E3F8102CCFD10121C6F30F10FCF79AF9B9
:1090800081B20029C4D01720FBF7E8FFFEF744F8AF
:10909000039B40F6B83118884844FEF72DFEFEF7D2
:1090A0006BFD00212420FBF7D9FFFFF753F8684A36
:1090B000B2F84A309BB20BB3B2F84A309BB2042BE1
:1090C0001CD8138B9BB2CBB1138B9BB2022B15D840
:1090D000538C9BB2002B3ED0D3889BB21F2B81BFF9
:1090E000092103EB8303A03BB3FBF1F398BF0023FB
:1090F0009BB24B2B28BF4B2359490B60594BD3F8DC
:109100000018594B994228D1584A594B1146594891
:109110001C7802334C7413F8034C83428C7401F1B5
:109120000201F5D154491878023382F8910013F8FE
:10913000030C8B4282F8920002F10202F3D1FEF797
:109140001BFDFDF7B9F84AE0FF2200214046FCF77D
:109150006FFA013783E7D388CAE748490B78AA2B0F
:109160003DD1B2F84A309BB2002B38D001254FF0E8
:1091700060094B78DFF808810393FDF7CDFFFCF71A
:10918000C9F8039B9B00049315F8084005EB0807FA
:10919000FF2C37D1002101371023602208460097A9
:1091A000FCF730F86024FEF7E7FC64000134FEF7BA
:1091B000E3FCFCF7AFF8039B0646254413B1049883
:1091C000FDF73AF8224BB3F84A309BB22BB140F28C
:1091D000FD339D42B5DC002CB3D0002ED4D0FDF77A
:1091E0009BFFFEF7C9FC274B1B784BB11A4B1B4A60
:1091F0001B6810689B8842F210711844FEF77CFDD2
:10920000214C48E0FE2C20D0002CD0D000267B1C26
:1092100064080593A642C6DA059B012213F81600DE
:10922000013617F816305F288DF82030B0FBF9F3BF
:1092300094BF0021012109FB130008AB0093C90072
:109240000823C0B2FBF7DEFFE4E70124AFE700BF6D
:10925000B43200209EB00008EC1F0020F01F002058
:10926000342F002000F0000855AA0DF04A290020F4
:1092700005F8000865F80008C5F8000800F80008BF
:1092800001F80008B0320020440200200520FCF75D
:10929000D3FFFCF71BFD2368002BF7D0012BB64D45
:1092A00012D1EB8F9BB2012B0ED81D20FBF7ECFEE9
:1092B000FEF750FFB14BB24A1B681068DB8842F2E0
:1092C00010711844FEF718FDFDF72AF8A0B9B5F89B
:1092D00040309BB2012B1BD81E20FBF7D5FEFEF7BA
:1092E00039FFA64BA64A1B6810681B8942F2107111
:1092F0001844FEF701FD0BE01020FCF779F8FCF7AD
:10930000DDF80446FCF792F8FEF70CF9002CDED0ED
:109310002C8BA4B22CB1288B01240138C0B2FEF7EB
:109320008BFF954FFBF7F6FF0546002840F0938032
:1093300000240025934B29461D60F88D80B2FCF770
:109340007FFD2846FCF75AFE80460120FEF708FE06
:10935000B8F1310F00F29F817B8A9BB2002B00F0A5
:109360009A818949894A0B6812689B1A4EF66022D5
:10937000934240F290810B68854909685B1A9342D9
:1093800040F289812846FEF7EBFDFDF7C5FE814BD3
:109390004FF000091D78FE8B002D14BF32234FF0D3
:1093A000FF33B6B2AAF80030ABF80090002E00F000
:1093B000B181FCF759FE002800F07981002D00F002
:1093C0006C81754B2A220093494610233620FBF707
:1093D00019FF4FF0FF33714AAAF80030664B9668C8
:1093E000DB8DC6F38F069BB2B600B6FBF3F64FF0EB
:1093F0000A09B6B20123B6FBF9F81A460221404623
:10940000FCF740FAFF2201216548FCF711F901231E
:1094100009FB18601A46194680B2FCF733FA002D92
:109420000CBF5B233023AAF800300823ABF80030D0
:10943000FF2200215B48FCF7FBF85B4D2B78002BEB
:1094400000F0E5815948FCF751F80020FFF726FAB3
:1094500000232B7066E70120FEF782FD002C7FF4CD
:1094600068AF022D00F00B810BD8012D7FF461AFA6
:10947000FCF7FAFD00287FF45BAFFEF7DDFE2C461B
:1094800057E7042D00F0F680082D7FF452AFDFF887
:109490002081DFF8209100250826FDF73DFEFF2200
:1094A00029464046AAF80050ABF80050FCF7C0F837
:1094B000FF22294659F82400AAF80050ABF80060B2
:1094C000FCF7B6F8B44200F0AC8026D8042C00F0CB
:1094D000858014D8022C73D0032C7BD0012C3ED075
:1094E000FEF74AFBFBF716FF02283FF421AF0128E5
:1094F00004BF013404F00F04FCF7BCFECBE7062CDC
:109500006FD0072C00F08A80052CE9D12846FCF7A3
:1095100075FD01232A4606217EE00C2C00F0A48074
:1095200010D80A2C00F086800B2C00F09580092CB6
:10953000D6D1164B18686423B0FBF3F001232A46FA
:10954000314669E00E2C00F091800F2C00F09080E5
:109550000D2CC5D1184B1868FBF71CFBEEE7174B19
:109560003146D3F8E857D3F8EC07FCF717FE31463D
:109570002846FCF713FEB3E7B4320020EC1F0020AE
:10958000F01F0020342F0020AC450020F8310020CF
:10959000F4310020782B0020382F00205C2E002092
:1095A00098B00008A0B00008B13200204A2900207D
:1095B000BCB0000838B20008AC0A002000F0FF1F61
:1095C000FF222946944B1868944B53F82000FCF76F
:1095D0002FF885E7FF2229469148F8E7FDF74AFD75
:1095E0007EE72846FCF7AEFC0A26B0FBF6F0012326
:1095F0002A46214680B2FCF745F9FF2229468948D0
:10960000FCF716F82846FCF79DFCB0FBF6F303FBCD
:10961000160001232A46194680B21AE0FCF7C0FC66
:1096200077E7814B2A46186864232146B0FBF3F0A4
:109630000123F1E701232A4606210220FCF722F943
:10964000FF2229467748FBF7F3FF01232A461946F4
:109650002846FCF717F943E7744B01219868C0F3DB
:109660008F00FBF7A7FE69E7788E67E7704B72E71C
:10967000704B70E7FEF750FBFEF76CFD59E60124D6
:109680006D48FFF7A5F9FEF765FD6C48FBF72EFF67
:109690006B4B1C704DE6012075E66A4B2A22009345
:1096A000294610232846FBF7ADFD2A2393E6BB8B02
:1096B0009BB26BB1B8F1370F0AD94FF47A725A4B9B
:1096C0001B68B3FBF2F102FB1133B3F5967F02D3B3
:1096D0000120FCF753FD002D14BF0623492300266B
:1096E000B88832460321AAF8003080B20123ABF8D3
:1096F0000060FCF7C7F83046FCF79AFAB5420CBF99
:1097000043233346AAF800300823ABF80030FDF7B6
:10971000B1FC8DE6002D48D04B4B2A223146362035
:1097200000931023FBF76EFD484B2A22009331462D
:1097300010230C20FBF766FDAAF80060FDF750FC33
:10974000FCF792FC064618B9B8F1370F7FF675AEF4
:10975000DFF8FC802922D8F80000002D39D0002144
:10976000373001F04BFCD8F80400002129223730B3
:1097700001F044FC38230021AAF80030ABF80010B7
:10978000002E3CD1BB8B9BB25BB14FF47A72264B5F
:109790001B68B3FBF2F102FB1133B3F5967FFFF4C4
:1097A0004CAE0020FCF7EAFC47E62A4B2A22294669
:1097B000284600931023FBF725FD2A22264B294635
:1097C000009310461023FBF71DFD5423AAF8003028
:1097D000B4E7294601F012FC1D4B2922294658689E
:1097E00001F00CFCAAF80050ABF80050002EC9D0D4
:1097F000144B2A22009329461023284604E0174BD5
:109800002A22009336201023FBF7FCFC15E6FEF716
:10981000B3F9FCF72FFD85E544020020F0B1000804
:10982000A6B000089EB00008AC450020302E0020F5
:10983000141300207C1B002060D00008792B00202E
:10984000B13200201CB600088B2E0020DF2E002035
:10985000642B002048CF00089CCF0008382F002040
:1098600008B50248FFF7B4F8002008BD34B300087B
:1098700008B50248FFF7ACF8002008BDB8B50008ED
:1098800008B50248FFF7A4F8002008BD44CE000840
:1098900008B50248FFF79CF8002008BD94B2000804
:1098A00008B5FBF799F9012813D04FF0500383F363
:1098B0001188BFF36F8FBFF34F8FFBF7D1F928B13A
:1098C0004FF0E0234FF08052C3F8042D002383F3C0
:1098D000118808BD0148FAF711BF00BFEC2F002026
:1098E0002DE9F041564C23685A68910623D51A6831
:1098F000920720D5A26AD7065EBFA26A42F4007220
:10990000A2629A6802F46022B2F5602F10D1E26878
:1099100072B95A6822F020025A60A26A22F4807258
:10992000A262A26AD6045EBFA26A42F00102A262EB
:109930006FF012021A605A6815067AD51A68500735
:1099400077D5A26AD1065EBFA26A42F40052A26233
:109950009A6802F4E042B2F5E04F0AD05A68520524
:1099600016D49A6802F46022B2F5602F10D1E26832
:1099700072B95A6822F080025A60A36A23F48053B5
:10998000A362A36ADB055EBFA36A43F00103A3627F
:109990002C4B1D68002D48D0FBF79EF8EFF3118784
:1099A0004FF0500383F31188BFF36F8FBFF34F8FD6
:1099B000022395F8602085F86030EB6D012A03F1F1
:1099C0000103D6B2EB6502D087F311882DE0AB6AB4
:1099D0000BB1FBF74FF81C4B1B6863BB05F1040888
:1099E0004046FBF72CF9194A1420EB6A11689E4097
:1099F0000E4341461660164A00FB0320FBF7FCF8B5
:109A0000144BEA6A1B68DB6A9A42DDD90122124BC9
:109A10001A6087F311884FF0E0234FF08052C3F8AB
:109A2000042DBFF34F8FBFF36F8F6FF00C022368CD
:109A30001A60BDE8F081094805F11801DEE700BFB2
:109A40008C2F002024320020EC400020F440002025
:109A5000383200202C320020B045002094450020F0
:109A60000148FCF759B900BF1C3100200148FCF740
:109A700053B900BFAC3100200148FCF74DB900BF1D
:109A800064310020F0B4944B8AB01A689569546927
:109A9000506893F83E101029CEB202D0402E40F00C
:109AA0004C8114F0011F67D0860565D593F83E10F0
:109AB000402944D1196D19B9596C01F0FE0103E038
:109AC000596C41F00101C9B211618449844A2940AD
:109AD0002240002900F0928182492140002900F0B3
:109AE0005881440540F15581002A40F0548193F893
:109AF0003D201C8D93F83E10D2B2D86AC9B2002C1A
:109B000040F0FC80212A40F0FB8004281A6800F015
:109B10006381082800F0608110F5803F00F05C81CF
:109B2000516821F4E061516011221A6383F83E40CC
:109B3000202283F83D200AB0F0BCFCF7A3BA1969D3
:109B4000B1F5804F05D193F83D102129596CB8D15A
:109B5000B3E7196D31B9596CC91101F0060141F033
:109B6000F001B1E7196D0129AFD1596CC91101F0AC
:109B7000060141F0F101A7E75B4921400029A4D08B
:109B80008105A2D593F83E10DE6AD3F830C093F871
:109B90003D70C9B2222F40F0A9801F6D47B94029FE
:109BA00006D109975169099192690992099A8CE73E
:109BB000598D89B251B908915169089191690891FB
:109BC0000899116841F40071116019E0598D89B24A
:109BD000012944D116F5803F1CD1116821F4806120
:109BE0001160516811F400610DD0116821F4806199
:109BF0001160002107915169079192690792079AB4
:109C000000221A6561E706915169069191690691F2
:109C10000699D6E7042E16D0082E14D0BCF1120FE8
:109C200011D0D96A0229116814BF21F4806141F46E
:109C300080611160002205921A685169059192694C
:109C40000592059ADCE7116821F48061116000211A
:109C5000049151690491916904910499B1E7598D76
:109C600089B2022924D1D96A00260229116815D0A7
:109C700041F4006111600396516903919169039168
:109C80000399116821F4806111601A6851680F0509
:109C9000B6D5516841F480515160B1E741F480611B
:109CA000116002965169029192690292029AECE760
:109CB000116841F48061116051680E0542BF51681E
:109CC00041F48051516000210191516901919269E3
:109CD0000192019A94E700BFBC30002004001000FC
:109CE0000400010080000100020001000021009139
:109CF0005169009192690092009AE6E6212A03D008
:109D000040291AD1222A18D15A8D92B22AB91A683A
:109D1000536823F4806353600FE093F83E20402A99
:109D20002CD11A6D92B9DA6C1968012A9A6C07D194
:109D3000D2B20A611A6D02321A650AB0F0BC7047DD
:109D4000C2F307220A611A6D0132F5E71A6D012A82
:109D500003D19A6C1968D2B2F4E71A6D022AECD1D9
:109D600093F83D20222A05D11A68136843F48073C2
:109D70001360E2E793F83D20212ADED15A6A511C94
:109D80005962127819680A615A8D013A92B25A855D
:109D9000D3E7002AD1D08005CFD5D86A93F83D20EB
:109DA000212ACAD1598D1A6889B229B1596A481C29
:109DB000586209781161E7E704280DD008280BD014
:109DC00010F5803F08D0506820F4E0605060112208
:109DD0001A6383F83E10ABE6516821F4E0615160EC
:109DE000116841F400711160002220211A6383F888
:109DF0003D1093F83E1083F83E209CE645492140F3
:109E0000002940D041053ED5002A3FD193F83D209E
:109E1000222A92D1598D1A6889B2032905D911696C
:109E20005A6A501C58621170AEE702390129D96A8A
:109E30000DD8022911681DBF21F4806111601168DD
:109E400041F4806118BF41F4006111605FE70229AD
:109E5000116814BF21F4806141F4806111601A68B7
:109E6000516821F4E061516011695A6A501C5862CE
:109E700011705A8D013A92B25A85202283F83D2002
:109E800000221A63B5E7002A3FF457AF82057FF539
:109E900054AFD96A588D1A6880B203280CD10429AE
:109EA00004D0082902D011F5803F03D1116821F4B4
:109EB000806111601A68B2E7588D80B20228AED175
:109EC00004291DD008291BD011F5803F18D0022984
:109ED000116814BF21F4806141F480611160196838
