:020000040800F2
:10440000005000209D450008E5450008E5450008EE
:10441000E5450008E5450008E54500080000000006
:10442000000000000000000000000000E1A2000801
:10443000E54500080000000011A30008019F0008E6
:10444000E5450008E5450008E5450008E5450008A4
:10445000E5450008E5450008E5450008E545000894
:10446000E5450008E5450008E5450008359F0008DA
:10447000E5450008E5450008E5450008E545000874
:10448000E5450008E545000855A00008E545000899
:10449000E5450008E5450008E5450008F9A10008E4
:1044A000E5450008D5A10008E5450008E5450008F8
:1044B000EDA10008E5450008E1A10008E545000878
:1044C000E5450008E5450008E5450008E545000824
:1044D000E5450008E5450008E5450008E545000814
:1044E000E5450008E5450008E54500080000000036
:1044F00000000000000000000000000000000000BC
:0C45000000000000000000005FF8E0F187
:104510000348044B834202D0034B03B11847704752
:104520002002002020020020000000000548064B69
:104530001B1AD90F01EBA301491002D0034B03B1A1
:1045400018477047200200202002002000000000D1
:1045500010B5064C237843B9FFF7DAFF044B13B1CB
:104560000448AFF300800123237010BD2002002017
:10457000000000000CB1000808B5054B1BB105494F
:104580000548AFF30080BDE80840FFF7CFBF00BF8C
:1045900000000000240200200CB10008002103E00C
:1045A0000B4B5B58435004310A480B4B42189A425C
:1045B000F6D30A4A02E0002313600432084B9A4201
:1045C000F9D305F077FC06F03DFD05F015FFFEE799
:1045D000E4D9000800000020200200202002002072
:1045E00060460020FEE7FEE706480068006880F3AA
:1045F000088862B661B6BFF34F8FBFF36F8F00DFDD
:1046000000BF000008ED00E04FF0500383F3118875
:10461000BFF36F8FBFF34F8FFEE7000008B54FF079
:10462000500383F31188BFF36F8FBFF34F8F074A97
:1046300013680133012B136007D14FF0E023D3F847
:10464000043DDBB20BB1FFF7DFFF08BD1C02002009
:10465000054A08B513680BB9FFF7D6FF013B136095
:104660000BB983F3118808BD1C02002008B5EFF3D5
:1046700005830F2B07D90E4A9B5C0E4A12789A428B
:1046800001D9FFF7C1FF4FF0E0230B4AD3F80C3DEF
:10469000126803F4E063934208D94FF0500383F3A8
:1046A0001188BFF36F8FBFF34F8FFEE708BD00BFC8
:1046B000F0E300E06844002064440020002337B5A4
:1046C000026801939368DB0702D5002003B030BD78
:1046D0009368124943F001039360114B1B68B3FBCD
:1046E000F1F30193019BABB90E4C2568936813F06D
:1046F0000103EAD12168491B0229F7D9826A80F8AF
:10470000243042F010028262C26A42F00102C262A8
:104710000120DBE7019B013BE3E700BF40420F00C4
:104720001802002060440020036810B59A68D10781
:1047300001D4002010BD9A680A4922F001029A6053
:104740000C689A68D207F4D50A68121B022AF8D9B5
:10475000836A43F010038362C36A43F00103C362B8
:104760000120E7E760440020002337B5019390F86B
:1047700024300446012B5FD0012380F82430FFF75A
:10478000D3FF0546002839D1A36A2C4823F4885367
:1047900023F0020343F00203A362294B1A68294B5A
:1047A00059685B68C1F3C221415CC3F381330133B3
:1047B00022FA01F15B00B1FBF3F3B2FBF3F252001A
:1047C0000192019BF3B92046FFF778FF23689A68AE
:1047D00042F008029A601C4A10689968090715D4CB
:1047E000996841F0040199601068996849071ED4DE
:1047F000A36A23F0030343F00103A362002384F8B8
:10480000243011E0019B013B0193DAE71168091A9A
:104810000A29E2D9A36A012523F0120343F0100309
:10482000A362002384F82430284603B030BD116809
:10483000091A0A29D9D9EDE70225F5E7D0D90008E8
:10484000180200200010024060440020436A9A6A67
:1048500012F0500F18D19A6A42F400729A621A68E4
:10486000926802F46022B2F5602F10D1DA6872B952
:104870009A6A22F480729A629A6AD20407D49A6A77
:1048800042F001029A6270471B6A1B6B184770471F
:10489000134A036890420AD0B0F1804F07D0A2F5C6
:1048A0009432904203D002F58062904207D14A6868
:1048B00023F070031343CA6823F4407313434A6917
:1048C00023F08003134303608B68C3620B68836229
:1048D000034B984204BF0B69036301234361704794
:1048E000002C01402DE9F74F00244FF00F0E264613
:1048F000DFF894C1654B00F10408012202FA06F7C3
:104900000A6807EA020537EA020240F082804A6834
:10491000032A00F0AE8010D8012A00F09F80022AFE
:1049200000F0A1808A68002A00F0A580012A4FF0DB
:1049300008040CBF0761476106E0122A00F0968068
:104940006ED8112A00F08C80FF2D94BF8146C1469D
:104950004FEA8602D9F8007088BF203A0EFA02FAB0
:1049600027EA0A0704FA02F21743C9F80070D1F8DF
:10497000049019F0805F4CD0DCF8182026F0030773
:1049800042F00102CCF81820DCF8182007F180472B
:1049900002F00102019207F5803706F0030A019A3E
:1049A0004FEA8A0ABA680EFA0AFB22EA0B0B384A67
:1049B000904262D002F58062904260D002F580623F
:1049C00090425ED002F58062904214BF042203221E
:1049D00002FA0AF242EA0B02BA601A6819F4803F3E
:1049E00014BF2A43AA431A605A6819F4003F14BF3F
:1049F0002A43AA435A609A6819F4801F14BF2A43B5
:104A0000AA439A60DA6819F4001F14BF2A43AA4324
:104A1000DA600136102E7FF470AF03B0BDE8F08F7E
:104A2000DFF870904A453FF47DAF0FD8A9F58019A3
:104A30004A453FF477AF09F570294A453FF472AF14
:104A4000A9F580194A453FF46DAF7DE7DFF848903E
:104A50004A453FF467AF09F58039F3E7CC6873E75F
:104A6000CC68043470E7CC6808346DE7CC680C344B
:104A70006AE7002468E7042466E70022A8E7012229
:104A8000A6E70222A4E700BF001002400004014094
:104A9000000801400000221000003110024A136893
:104AA00001331360704700BFE445002008B9064B8E
:104AB0001868026B0020135CA52B02D0C0F38F0096
:104AC00070470130F7E700BF50450020064A1368E1
:104AD0001968064B19B94FF0FF321A607047126817
:104AE000D2681268F9E700BF504400204444002017
:104AF000054B1B6833B1054B1868B0FA80F04009CC
:104B0000400070470120704740440020E4450020E9
:104B10004FF0500383F31188BFF36F8FBFF34F8FB4
:104B2000FEE743689A684B608A6051609960036849
:104B3000086101330360704730B50C68631C0AD10B
:104B400003695A684A6091608B6059600368086124
:104B50000133036030BD00F1080213465268156846
:104B6000A542FAD9EDE70369D0E901128A605160E4
:104B70005968814208BF5A60002202611A68013AEE
:104B80001A601868704700003D4B2DE9F74F1B680D
:104B9000002B6DD13B4B1C6801341C6084B93A4B2F
:104BA0001A6812680AB1FFF7B3FF384A196810682B
:104BB00018601160364A136801331360FFF786FFEF
:104BC000344D4FF0000B2B68334EA342334F12D9B4
:104BD00014213A68D26A4A43B258022A304A28BF9E
:104BE0004FF0010B1268002A18BF4FF0010B584616
:104BF00003B0BDE8F08FDFF890A0DFF8A890DAF8F6
:104C0000002012681AB94FF0FF322A60E0E7DAF8A4
:104C10000020D268D2F80C80D8F804108C4201D25F
:104C20002960D5E708F1040318460193FFF79BFFBD
:104C3000D8F8281019B108F11800FFF794FF0123E4
:104C4000D8F82C20D9F8000003FA02F1014314200F
:104C5000C9F8001000FB026001990192FFF761FFA3
:104C60003968019AC96A8A4228BF4FF0010BC6E72A
:104C70000D4A4FF0000B136801331360B7E700BF14
:104C8000E44500206C440020504400204C440020A7
:104C9000484400204444002068450020504500203E
:104CA0004C450020E04500205444002032492DE9C5
:104CB000F0470B6843B94FF0500383F31188BFF3FB
:104CC0006F8FBFF34F8FFEE7FFF7A8FC0B68013B28
:104CD0000B600C6824B10020FFF7BAFCBDE8F08738
:104CE000264B1B68002BF6D0254E264FDFF89890F8
:104CF00020E0F3684FF00108DC6804F1040A04F1D5
:104D00001800FFF730FF5046FFF72DFF1420E56A2B
:104D10003A6808FA05F31343514600FB05903B60DF
:104D2000FFF7FFFE194B1B68DB6A9D4202D3184B4D
:104D3000C3F800803368002BDBD10CB1FFF7C6FE4F
:104D4000144D2C6844B10127114EFFF71DFF00B12F
:104D50003760013CF9D12C600D4B1B68002BBAD099
:104D60004FF0E0234FF08052C3F8042DBFF34F8F74
:104D7000BFF36F8F0120AFE7E445002058440020C7
:104D800054450020E04500206845002050450020A3
:104D90004C4500205444002038B5C368DC680CB989
:104DA000FFF732FC04F118052846FFF7DCFE114B33
:104DB0001B68E3B9251D2846FFF7D5FE01230E49E0
:104DC000E26A08689340034314200B6029460B4BAA
:104DD00000FB0230FFF7A5FE094BE26A1B68DB6AA5
:104DE0009A4285BF0120074B0020186038BD294634
:104DF0000548EFE7E4450020E04500206845002035
:104E0000504500204C450020544500202DE9F0413C
:104E100004464FF00108FFF701FC90F845501A4F87
:104E20006DB200F12406002D01DD636ACBB9FF23CA
:104E30004FF0010884F84530FFF70AFCFFF7EEFB5E
:104E400094F84450104F6DB204F11006002D01DDAE
:104E500023697BB9FF2384F84430BDE8F041FFF7B4
:104E6000F7BB3046FFF798FF08B1C7F80080013D57
:104E70006DB2D8E73046FFF78FFF08B1C7F8008062
:104E8000013D6DB2E2E700BF4C450020C3685A1EE9
:104E9000C26033B9036833F8022B03600F238260CA
:104EA000C36083685A008260C3F3C030704710B596
:104EB000012104462046FFF7E9FF4900014420464E
:104EC000FFF7E4FF0028F5D1084610BD0020704729
:104ED0000A4B588A80B278B1188980B260B11A89B9
:104EE000188992B2052A94BF42F210734EF66023DD
:104EF00080B288BF05385843704700BFC0430020C8
:104F000038B5114A538A9BB20BB9002038BD1389BA
:104F10009BB2002BF9D00D4A0D4B14681B6853EA65
:104F200004020FD00B4D2968C91AFFF7D1FF814247
:104F3000EBD92868041BFFF7CBFF844294BF002005
:104F40000120E3E70120E1E7C043002038440020CE
:104F50003C4400206C440020142370B50446002516
:104F600003FB0106B44201D1284670BDA368002BA3
:104F7000FAD0E3681BB90135ADB21434F2E79847B3
:104F80000028F8D1F9E70000002340F21A201A4661
:104F900010B5074911F8014B03FB0422013383428A
:104FA000F8D1044B18681A60801A18BF012010BD90
:104FB000484100204441002070470000084B33F86E
:104FC000302003EBC00391425B8803D399420A4629
:104FD00028BF1A46034B03EB40039A80704700BF7B
:104FE00006000020C043002010B50E4B33F83040BF
:104FF00003EBC00359889A880B4B03EB400083886E
:105000009BB28B4201D1848010BD83888C1A9BB2E5
:10501000A342B7BF83888180D21892B2B8BF828082
:10502000F2E700BF06000020C0430020184B03EB4E
:10503000C003998898B9174B5B8C9BB2002B40F248
:10504000523308BF4FF4E173124A5B1A02EB40027D
:10505000908880B29842D4BF002001207047162863
:10506000E9D0012809D10B4B5B8C9BB2002B0CBF04
:105070004FF496734FF41173E6E71F2801D05B8855
:10508000E2E7054B1878431E58425841704700BF6D
:1050900006000020C04300200400002008B5114A8B
:1050A000138E518C9BB289B291B173B1143399B202
:1050B00040F25133994288BF00211620FFF77EFF4E
:1050C000BDE808401620FFF779BF4FF4F071F4E710
:1050D00033B10A339BB2B3F5E17F98BF1946EFE7CE
:1050E000FA21EDE7C0430020034B588A80B2003814
:1050F00018BF0120704700BFC04300200A4BD98869
:105100005B8C89B29BB243B1143189B2B1F5117F86
:1051100088BF3C210120FFF751BF0A3189B2B1F5A8
:10512000967F88BF0A21F5E7C04300200F4A02EBB3
:1051300040039B88528C9BB292B27AB103EBC301BD
:105140000523A031B1FBF3F10A2389B2B1FBF3F1DE
:1051500001EB8101490089B2FFF730BF0922203BF2
:1051600003EB830393FBF2F1EEE700BFC0430020A3
:1051700008B50F20FFF738FF1620FFF7D7FF0020F4
:10518000FFF7D4FFBDE808400120FFF7CFBF0000C4
:10519000034BD88A80B2003818BF0120704700BF87
:1051A000C0430020034B188D80B2003818BF012087
:1051B000704700BFC043002040220D4B1A6180227F
:1051C0001A610C2200BF013AFCD14FF400021A61AF
:1051D0000C2300BF013BFCD14FF48003044A136150
:1051E0000C2300BF013BFCD180231361704700BF3B
:1051F000000C01404FF40003094A13610C2300BF67
:10520000013BFCD1402313610C2300BF013BFCD1C7
:105210008022034B1A610C2300BF013BFCD1704775
:10522000000C014080230A4A13610C2300BF013B9C
:10523000FCD1402313610C2300BF013BFCD14FF490
:105240008002034B98681A61C0F3C010704700BF1A
:10525000000C01400A4B80B180221A610C2300BF70
:10526000013BFCD14023064A13610C2300BF013BE4
:10527000FCD14FF48003136170474FF40002ECE758
:10528000000C014010B50146082401F08000013CEB
:10529000FFF7E0FF490014F0FF04C9B2F5D1802206
:1052A000034B1A61FFF7BEFFB0FA80F0400910BD52
:1052B000000C014048F2E80358436423C00B5843F4
:1052C0004FF40673B0FBF3F0074B5A8E92B242B123
:1052D00039B95A8E92B282422FBF08465B8E9BB27A
:1052E000C01A024B18607047C043002008370020E6
:1052F0002DE9F74F5442A04201933BDD802839DC71
:105300000028B8BF464200EB0204ACBF0026F6B24C
:10531000802C4FF00004CCBFC0F1800C94460C9D53
:10532000C8BF5FFA8CFC0029B8BF0731DFF84C809A
:10533000C910401B019BE500EDB2AB421AD004FB43
:1053400002F90C9B09EB0607354601EB040E1F44DE
:10535000A0EB090B09E00BEB070958F82E3017F802
:1053600001AB013503F809A0EDB2AC45F3D8013427
:10537000E4B2DFE703B0BDE8F08F00BFB043002028
:1053800007B5054B0021009320235E201A46FFF746
:10539000AFFF03B05DF804FB2CD500080229F7B578
:1053A0001B4B04461B4817D110221A700C221A4DB1
:1053B00002701B780278D908514304FB0155174F3E
:1053C0001749B7F900600095304691F90010FFF7D2
:1053D0008FFF32443A8010E000290BBF08251025CA
:1053E00006260C26012C1D70067008D10C4BB3F953
:1053F000001011B909491D800A8003B0F0BDFCD925
:10540000084D094A023C002908BF1546A4B2D0E75E
:10541000063700200537002090CD00086C4300209F
:105420006A430020D40300203C0200202DE9F04113
:10543000984603780546012B0F46164601D11F46B4
:1054400001352878A8B1A6B1F0280AD96B7883B1C4
:10545000A0F1F004C4EB04200F3B184480B20235E5
:1054600000E0013542463946013EFFF797FFF6B2AC
:10547000E7E7BDE8F081000010B4124B198B89B248
:10548000022911D0032918D0012902D010BCFFF73E
:1054900077BF0D4BFF221B68188F0C4B1C68002335
:1054A000204410BCFFF7C2BF074B1B68588F074B47
:1054B000FF221C6801210023F2E7034B1B68988F31
:1054C000F5E700BFC0430020DC400020D8400020AA
:1054D00010B40F4BD98C89B2012904D002290DD008
:1054E00010BCFFF74DBF0B4BFF221B68D88F0A4B38
:1054F0001C680023204410BCFFF798BF054BFF2217
:105500001B680121B3F84000034B1C680023F1E73E
:10551000C0430020DC400020D84000200021044B84
:10552000FF22B3F87030034B08461B78FFF77EBFAD
:10553000C04300206C43002010B40C4B0C4A198A65
:105540000C4B89B201291B68106806D002290BD1C7
:105550001C8E0023FF22012102E0DC8DFF220023AC
:10556000204410BCFFF762BF9C8DF2E7C0430020CF
:10557000D8400020DC40002010B4094B094A9B8C25
:1055800012689BB24BB1D08E074BFF221C680121E1
:105590002044002310BCFFF749BF508EF4E700BF42
:1055A000C0430020DC400020D840002010B4124B43
:1055B000D98A89B202290ED0032915D0012917D121
:1055C0000E4BFF221B68588E0D4B1C680023204495
:1055D00010BCFFF72BBF094B1B68988E084BFF22AE
:1055E0001C6801210023F2E7044B1B68D88EF5E705
:1055F00010BCFFF7C5BE00BFC0430020DC40002048
:10560000D8400020002310B4074A01781380074ACD
:105610000129138018BF19464FF0FF0210BC08BFC4
:105620000130FFF703BF00BF6C4300206A43002036
:1056300037B5284B284A1B68044603EB4003B3F8F0
:105640002E3110681844FFF7DDFF244AD38A9BB23D
:10565000022B20D0032B0CBF4FF496704FF4FA703E
:10566000D18A1F4B89B2C9B119681E4DA1421E498A
:1056700002D01C602B680B602B680968928A5B1A49
:1056800092B2B3FBF0F30AB30322B3FBF2F202EBE4
:1056900042029B1A0AE04FF4C870E1E779211960D1
:1056A000D38A9BB2B3FA83F35B095B00FC225443B9
:1056B000542202FB03440D4B15221C4400212023DD
:1056C00069200094FFF714FE03B030BD022B28BF01
:1056D0000223EBE7DC400020D8400020C04300203C
:1056E000000000206C4400200C37002040CF000850
:1056F0000120FFF79DBF0220FFF79ABF0320FFF7AD
:1057000097BF0420FFF794BF37B50C46114600221F
:10571000042C0092CDF803202BD90A22B0FBF2F51D
:1057200002FB150002308DF80500B5FBF2F002FB1C
:10573000105502358DF8045080B20A22B0FBF2F504
:1057400002FB150202328DF80320A8B20A22B0FB38
:10575000F2F502FB150202328DF80220A8B20A25EA
:10576000B0FBF5F205FB120502358DF8015090B241
:1057700004E0E2D0032CE9D0022CF0D00A22B0FBE6
:10578000F2F502FB150002308DF800002BB16A46DD
:1057900000231220013CA34206DB0023FF226846BF
:1057A000FFF744FE03B030BD1578022DF5D102F8A5
:1057B000010B0133EFE70000064A138E9BB233B1B1
:1057C0000123108E03211A4680B2FFF79DBFFFF719
:1057D000D7BD00BFC0430020034B0221588F0123D7
:1057E00080B21A46FFF790BFC0430020034B02214E
:1057F000188F012380B21A46FFF786BFC0430020EE
:10580000064A538A9BB233B1508A012200231146C3
:1058100080B2FFF779BFFFF7B3BD00BFC0430020E0
:10582000034B0321D888012380B21A46FFF76CBFCF
:10583000C043002010B5154B1A8992B21AB9BDE8C1
:105840001040FFF79DBD1A89188992B2052A11D818
:10585000012380B200EB800040001A46022180B292
:10586000FFF752FF0023FF2201210948BDE8104045
:10587000FFF7DCBD012305381A46022180B2FFF78D
:1058800043FF0023FF2201210248EFE7C04300202D
:1058900024B1000826B1000810B50B4A538B9BB207
:1058A0001BB9BDE81040FFF76BBD0123508B0221EF
:1058B0001A4680B2FFF728FFBDE810400023FF2200
:1058C00001210248FFF7B2BDC043002026B1000805
:1058D00007B5164AB2F84A309BB2052B07D0062B03
:1058E00010D08BB903B05DF804EBFFF749BD104B46
:1058F0000093202300211A465E20FFF7F9FC03B035
:105900005DF804FB0B4BF3E70123B2F84A0019469C
:105910001A4680B2FFF7F8FE0023FF220121064855
:1059200003B05DF804EBFFF781BD00BFC04300206A
:10593000ACD400082CD4000824B1000810B50B4AE0
:10594000938E9BB21BB9BDE81040FFF719BD012330
:10595000908E03211A4680B2FFF7D6FEBDE81040B4
:105960000023FF2201210248FFF760BDC043002051
:1059700028B1000870B5134D2B8D9BB2EBB10A24F2
:105980000123288D1A4680B21946B0FBF4F0FFF7C8
:10599000BBFE0023FF2201210B48FFF747FD288DA6
:1059A00080B2B0FBF4F304FB1300BDE870400123A8
:1059B00080B21A461946FFF7A7BEBDE87040FFF750
:1059C000DFBC00BFC04300202AB10008034B588D44
:1059D000012380B21A461946FFF796BEC043002045
:1059E000034B988D012380B21A461946FFF78CBEEF
:1059F000C043002000220221FFF7D0BCC0F11100FB
:105A0000C0B2FFF7F7BF0000034B988B80B200389D
:105A100018BF0120FFF7F2BFC0430020034BD88E10
:105A200080B2003818BF0120FFF7E8BFC043002054
:105A3000034B988A80B2003818BF0120FFF7DEBF01
:105A4000C0430020034BD88B80B2003818BF012020
:105A5000FFF7D4BFC0430020034B188C80B200383E
:105A600018BF0120FFF7CABFC0430020044BB3F8A2
:105A70004C0080B2003818BF0120FFF7BFBF00BF45
:105A8000C04300202DE9F0471446054600279846FC
:105A90008318802BC8BFC0F180049DF82090DFF8E8
:105AA00028A0C8BFE4B2CE10FBB233445AF823009A
:105AB000224649462844013705F0E8FAFB00DBB2EC
:105AC0004345F1D1BDE8F087B04300201F232DE905
:105AD000F041B0FBF3F41B4B0E201D78FFF78AFF5B
:105AE000C4F10A0202F00701D3B2FF228A40D24376
:105AF000C4F1EA04144FD2B2E4B2092B34BF944685
:105B00004FF0FF0CF32D8CBF01210D212E466FEAC3
:105B10000C0C2944C9B2701CC0B2884208D1083BA1
:105B2000DBB2A34202D00437002BE6D1BDE8F081FE
:105B3000D7F8008018F806E00EEA0C0E08F806E028
:105B40000646E8E76C430020B043002030B4074B22
:105B5000074D5C8C002301460648A4B29C4208BF56
:105B6000284630BCFF22FFF761BC00BFC0430020C5
:105B7000BCB100082CB100080128014630B40AD09D
:105B8000022815D130BC0C4B588C80B2B0FA80F092
:105B90004009FFF72FBF084B084D5C8C00230848D5
:105BA000A4B29C4208BF284630BCFF22FFF73EBC8F
:105BB00030BCFFF7CBBF00BFC043002030B10008AE
:105BC0002EB100080120FFF7D7BF000010B5214A11
:105BD00093689068DB4380F0020003F0010300F05B
:105BE000020018431FBF1C4B1A681C4B1A601C4A4A
:105BF0001378834212D180B1174B1A4A1B6812687E
:105C00009B1AB3F5C87F21D30122174B90421A701B
:105C10001ED0022814BF2020082010BD38B1034335
:105C2000002013700C4B1A680E4B1A60F5E70E49F2
:105C30000C784CB9012B02D0022B18BF1023002086
:105C4000107008701846EDE70346F8E70020E4E717
:105C50000420E2E7000C01406C440020384400209E
:105C60000437002000370020FC360020037B8268C8
:105C700010B530F813400A44121B826020F813104C
:105C8000013303F00303037310BD000010B5044695
:105C900071B10C4B0C481B68D96B1A6C11445A6CCF
:105CA0009B6C1144194489B2C90089B2FFF7DEFF29
:105CB000054B9B68C3F38F039B00B3FBF4F080B2EA
:105CC00010BD00BF804300207043002008B5084B82
:105CD00008481B68D96B1A6C11445A6C9B6C1144B0
:105CE000194489B2490089B2FFF7C0FF084608BDD0
:105CF000EC45002024410020BFF34F8F0549064B9F
:105D0000CA6802F4E0621343CB60BFF34F8F00BF59
:105D1000FDE700BF00ED00E00400FA054AF6AA2204
:105D2000014B1B681A607047103700204FF0E020CD
:105D30004FF0805408B506490B68012B05D9C0F80F
:105D4000044DBFF34F8FBFF36F8FFFF7E7FFF3E70C
:105D50006845002008B568B100210B46114A01339F
:105D600032F8020BDBB2102B0144F8D10E4889B295
:105D7000FFF77CFF0C4B0D499A680023C2F3CE025B
:105D800031F81300904207D2013331F8130000EBD1
:105D90008000400080B208BD02332E2BF0D14FF4BA
:105DA000E170F8E71C370020EC36002010CD000829
:105DB00038B50546A0B1FFF789FF0021FFF77AFA51
:105DC00004462846FFF7C6FF32235C4340F2E51342
:105DD000B4FBF3F40A23B0FBF3F080B2204438BDE7
:105DE000024B9868C0F38F00E7E700BF2441002012
:105DF000002110B547F6FF70FFF75CFA044608462D
:105E0000FFF7A8FF32235C4340F2E513B4FBF3F441
:105E10000A23B0FBF3F080B22044013810BD00002B
:105E2000037F082B01BF0022014B1B68DA63704718
:105E3000BC44002008B5036801461A6992070ED5D4
:105E4000DA6892070BD56FF002021A61012202771D
:105E50009B699B0701D1FFF7E3FF00230B770B68DA
:105E60001A69500710D5DA6852070DD56FF0040291
:105E70001A6102220A779B6913F4407F02D1084617
:105E8000FFF7CEFF00230B770B681A6910070FD5B9
:105E9000DA6812070CD56FF008021A6104220A773B
:105EA000DB699B0702D10846FFF7BAFF00230B7797
:105EB0000B681A69D00610D5DA68D2060DD56FF0D6
:105EC00010021A6108220A77DB6913F4407F02D1BD
:105ED0000846FFF7A5FF00230B770B681A69D00768
:105EE00014D5DA68D20711D56FF001021A610B6878
:105EF000B3F1804F0FD10C4A1388013B9BB2138042
:105F000013880A4A9BB212680BB9D36308BD084BC9
:105F10001B789B08F9E7074A934201BF064A1368BA
:105F200001331360F2E700BF5E440020BC44002050
:105F30005C440020002C01406044002010B5FFF7B5
:105F400057FF04460020FFF733FF053CA4B284420C
:105F50002CBF0020012010BD024B1420B3F870307C
:105F6000704700BFC043002008B50B4B0146D88DD9
:105F700080B2FFF78BFE0246FFF7EEFF48B15243B7
:105F8000B2FBF0F0054BC0EB00201B88B0FBF3F038
:105F900008BD6420FCE700BFC0430020BE01002014
:105FA00010B50446002C084606DC094BD88D80B29B
:105FB000FFF76CFE002010BDFFF7D6FFC4EB0424F2
:105FC000B4FBF0F0FF2828BFFF20C0B2F3E700BF0A
:105FD000C043002010B50121FFF7E2FF90280446DE
:105FE0001AD9114B1A780AB100221A7014220F4BD9
:105FF00000201A800E4B1C70FFF7B6FFFF23E8212C
:1060000044430C4AB4FBF3F413684B43182101FBDF
:1060100004331B0A136010BD6F28E7D8024B1A78AF
:10602000002AE3D10122E0E7C00100205E44002005
:106030005C4400206443002001207047044B054A63
:106040001B681068B3F820311844FFF7DBBA00BFB3
:10605000DC400020D840002038B505461C24002232
:1060600025FA04F303F00F03981C1146043CFFF7D4
:1060700095F9231DF3D138BD38B5174B0446588C1C
:1060800080B220B30020FFF793FE052300EBC00091
:1060900090FBF3F303F12000104A137D156952F8C9
:1060A000231042F82300013303F003031375012387
:1060B0006D1A0544156103211A46C5F38F00FFF7D9
:1060C00023FB3CB1BDE838400220FFF755BDFFF788
:1060D0006FFEE1E738BD00BFC0430020102900205B
:1060E00013B590F83D30044603F0FF0200687BB919
:1060F0001D4B84F83C20984228D103F50233DA691D
:1061000042F00402DA61DB6903F004030093009BB0
:106110000223211D84F83D30FEF7BAFB0123002045
:1061200084F8463084F83E3084F83F3084F84030BC
:1061300084F8413084F8423084F8433084F84430A5
:1061400084F8453084F83D3002B010BDB0F1804F86
:10615000DED1064BDA6942F00102DA61DB6903F055
:1061600001030193019BD3E70008004000100240A7
:10617000134B10B5DB68C3F30223C3F107041A1DE8
:10618000042C28BF0424062A88BFDA1E4FF0FF33F0
:1061900098BF0022A34021EA0303002803FA02F378
:1061A000ACBF00F16040074A4FEA0313DBB2B5BF52
:1061B00000F00F0000F56140135480F8003310BD6B
:1061C00000ED00E014ED00E010B54CF25034204931
:1061D000204B0868DA68D20733D4DA68910644BFE6
:1061E0002022DA60DA68D20606D4DA69D40703D44A
:1061F000D86810F0040023D0164AD36813F01003B7
:1062000005D01549CB6943F00203CB611023D26856
:10621000500706D5104943F00403CA6942F0010251
:10622000CA610C4AD169C90708D50B48C16941F058
:106230000401C161D16921F00101D1610120D36064
:1062400010BD0A68121AA242C4D90320F8E700BFA1
:106250006044002000200240F03B002070B5826ABC
:10626000044686B0002A39D1614B0168C262994266
:1062700080F8242003F56C4340F0838099694FF443
:10628000807541F4007199619B695A4903F4007368
:106290000293029B584B4FF4806EC3E90012802199
:1062A000C3E903152021C3E905E14FF480515348A8
:1062B0001A649A60D9618168D8636FF30D1141F453
:1062C000AD5181609A631D8423625C620F211220AC
:1062D000FFF74EFF4FF48022494B1A602046FEF72D
:1062E00023FAA36A13F010037DD100287BD1A26AA0
:1062F000616822F4885222F0020242F00202E06950
:10630000A568A262E2680143B5F5807F41EA4201D7
:1063100052D06E1E7042704100026669012E07D194
:10632000002A4BD1A269013A40EA423242F40060AD
:106330002268B5F5807F566826F4694640EA060073
:10634000506096682F4800EA060040EA010090601D
:1063500001D0012D02D12369013B1B05D06A20F435
:1063600070000343D3629268274B134099422ED1A9
:106370000023E362A36A23F0030343F00103A36253
:106380002FE09A694FF0010C42F480629A619B6998
:106390001E4803F480630193019B032302A9CDE906
:1063A00002C3FEF79FFA20230293FEF79BFA102305
:1063B0000293FEF797FA89E72846AEE7A26A42F011
:1063C0002002A262E26A42F00102E262B0E7A36A3E
:1063D00023F0120343F01003A362E36A43F00103C6
:1063E000E36206B070BDA36A43F01003C7E700BFC5
:1063F00000240140080002401C460020000002402A
:1064000000E100E0FDF7E1FFFE0E1FFF0008014084
:106410001421D0E9003212881B6801FB02335A684C
:1064200002B11047187C362801D8FEF7DDBD704751
:10643000F0B54FF4804316460122002485B0CDE923
:106440000001CDE90232B44201D305B0F0BD684687
:10645000FEF71CFD019D10B36846FEF728FD0746B8
:106460006846FEF724FD009B02385A1C1B78002169
:1064700003EB0023DB4300922B44BA1C0234681E5A
:1064800003EB020C634504D109B12A4401923C4458
:10649000D9E713F8011B00F8011F0121F2E7009B67
:1064A00001345A1C1B7800926A1C01922B70CAE7B7
:1064B000F0B53A4B85B01A78FF2A0DD141F27851E8
:1064C000374AB2F8422092B28A4203D04AF2D71138
:1064D0008A4231D000221A701B78012B5BD80C2124
:1064E000304A01FB0322567A5368F6090FD015890A
:1064F0000093C5F30E051D442B4B012201934FF46D
:106500008043CDE90232009B9D4217D8264B274A93
:1065100027491360274A03F59C73136026484FF4FC
:10652000F062FFF785FF4FF4CC722449244805B090
:10653000BDE8F040FFF77CBF0122CCE76846FEF7DC
:10654000A5FC019FF8B16846FEF7B1FC841C6846C3
:10655000FEF7ADFC009B02385A1C1B78009203EB3F
:106560000023DB4300223B44791E1819834204D1E7
:10657000002AC8D03C440194C5E713F8012B01F868
:10658000012F3246F2E7009B5A1C1B7800927A1CBE
:1065900001923B70B7E705B0F0BD00BF04000020DA
:1065A000C0430020F8CC000828290020DC4000204F
:1065B000D4030020D8400020F0C600083C02002090
:1065C00058C5000808B5084A1F201378013303F0A6
:1065D000010313700C225343044AD15AFEF7EEFC18
:1065E000BDE80840FFF764BF04000020F8CC0008B5
:1065F00070B5154B154D06461C6828680430FEF72B
:10660000B2FA40B92A681249D06A01220B68824066
:1066100023EA02030B602B68A4195C6007D30D4BBF
:1066200018682968BDE870400431FEF785BA0A4B46
:10663000186829680431FEF77FFA084B1A689442FB
:1066400038BF1C6070BD00BF6C4400205045002066
:10665000E04500204C4400205044002044440020E9
:10666000174B10B51B6843B14FF0500383F31188EB
:10667000BFF36F8FBFF34F8FFEE7FEF70FFA114B9B
:1066800002681B6851182CBF012400249A420FD9BC
:106690007CB90160FEF70AFB48B94FF0E0234FF0E8
:1066A0008052C3F8042DBFF34F8FBFF36F8F10BD1F
:1066B0000CB98B42EDD20160C81AFFF799FFE9E7E8
:1066C000E44500206C44002008B50B4B1B680BB15F
:1066D000FDF79AFFFEF7E2F9FFF78AFFFEF7E6FA09
:1066E00048B94FF0E0234FF08052C3F8042DBFF3B8
:1066F0004F8FBFF36F8F08BDE445002070B50E4E7D
:1067000035680544FFF762FA04465CB9FFF75EFAA4
:1067100004463220FFF7D8FF33689D420BD3002C8C
:10672000F4D008E0FFF752FA04463220FFF7CCFF1E
:1067300033689D42E9D270BD6C44002010B5124A06
:10674000B2F84A309BB2042B13D9FFF73FFA044644
:1067500044B9FFF73BFA04463220FFF7B5FF002C9F
:10676000F7D010BDFFF732FA04463220FFF7ACFF36
:10677000EEE74FF47A70BDE81040B2F84A309BB2B1
:106780005843FFF7BBBF00BFC043002010B5134CF8
:10679000FDF744FF2368DB6D7BB90122236883F892
:1067A0006020FFF725FF4FF0E0234FF08052C3F841
:1067B000042DBFF34F8FBFF36F8FFDF749FFFDF738
:1067C0002DFF2368D86D10B100222368DA650022FE
:1067D000236883F86020FDF73BFF10BD5045002083
:1067E000022321BB80F83E300122036802FA01F146
:1067F0001A6A22EA01021A621A6A11430D4A1962E0
:1068000093420AD0B3F1804F07D0A2F5943293425D
:1068100003D002F58062934204D19A6802F0070225
:10682000062A03D01A6842F001021A60704780F805
:106830004030D9E7002C014010B590F83D300446B7
:1068400003F0FF020BB980F83C200223206884F893
:106850003D30211DFEF71CF8012384F8463084F8F2
:106860003E3084F83F3084F8403084F8413084F87A
:10687000423084F8433084F8443084F8453084F85A
:106880003D3010BD022380F83D300368DA6842F0E5
:106890000102DA600B4A93420AD0B3F1804F07D06D
:1068A000A2F59432934203D002F58062934204D160
:1068B0009A6802F00702062A03D01A6842F0010221
:1068C0001A607047002C014013B500211920FFF712
:1068D0004FFC4FF000721B4B1B4C1A601B4B2046A9
:1068E0009A6942F400629A619A6902F40062019224
:1068F000019A5A685A685A685A68154A12685B6859
:10690000144AC3F3C223D25C134B21611B68A160FC
:10691000D340124AB3FBF2F3114A013B226040F22A
:10692000E7326360E260FFF7DBFB48B994F83D3083
:10693000012B05D1204602B0BDE81040FFF7A2BFF1
:1069400002B010BD00E100E004450020001002404C
:1069500000200240D0D900081802002040420F0059
:10696000002C0140054B1A69120605D5044A5A60ED
:1069700002F188325A601B69704700BF0020024054
:106980002301674590F82430F0B5012B62D0012334
:106990001F2480F824300F694D680368EA1B02EB5E
:1069A00082020F32944044F44014E443BD420E6826
:1069B0009BBFD3F838C006FA02F29A6B07F1FF3793
:1069C0009DBF42EA07520CEA0404224322409A6324
:1069D0009A68D20707D49A68CC6922F4E04222F080
:1069E000010222439A608C69012C0CD1CA69B2F56C
:1069F000E04F0BBF5A68826A42F4806242F0200284
:106A00000CBF5A6082624A69012A04D11CBB5A68D1
:106A100042F480525A60092E4FF007048F6806EB4B
:106A200046021DD9DE681E3A944026EA040407FA9D
:106A300002F22243DA60022DC968154C18D0032DEA
:106A40001BD0012D1ED15A6922400A435A610023EE
:106A500080F82430F0BD826A42F020028262DAE7D8
:106A60001E69944026EA040497403C431C61E2E717
:106A70009A6922400A439A61E9E7DA6922400A43A7
:106A8000DA61E4E71A6A22400A431A62DFE700BFCC
:106A900000F0FFFF10B590F824300446012B3DD0E4
:106AA000012380F82430FDF709FE00283FD1A36AB6
:106AB000214A23F4405323F0010343F48053A3629B
:106AC0002368934205D1A2F58062526812F4702FB8
:106AD00025D1A26A22F48012A262A26A12F4807204
:106AE00008BFE262002284F824206FF004021A60DA
:106AF0005A68520512D49A6802F4E042B2F5E04FA7
:106B000011D10D4A934205D1A2F58062526812F468
:106B1000702F08D19A6842F402129A6010BDA26ADE
:106B200042F48012D8E79A6842F40042F5E7002365
:106B300084F82430F2E700BF0028014070B5124A03
:106B4000124B9468DB8DC4F38F049BB2A400B4FB9A
:106B5000F3F40A26A4B2B4FBF6F50123284600227A
:106B60000221FEF7D1FD0023FF2219460848FEF757
:106B70005DFC012306FB1540BDE87040002219466C
:106B800080B2FEF7C1BD00BF70430020C0430020AB
:106B900032B100082DE9F0475D4B054693F80080BF
:106BA0000024B8F1000F14BF32234FF0FF33594FC8
:106BB000594E01203B803480FFF75EFA002D3ED015
:106BC000A04514BF22233223FF223B80012123460C
:106BD00052483480FEF72AFCB8F1000F14BF00259C
:106BE00043250024DFF838913D80D9F80000348037
:106BF000B0F57A7F71D32346FF2221464948FEF73C
:106C000015FC0A23D9F800002246B0FBF3F003215B
:106C1000012380B2FEF778FD0023FF221946424887
:106C2000FEF704FC08233D803380FFF787FFBDE8B3
:106C3000F0470023FF2219463C48FEF7F7BB3C4AC9
:106C4000538A9BB263B313899BB24BB3B8F1000F65
:106C500014BF20232F2335803B80FEF739F9354BB5
:106C60001968354B1A68354B1B689A422CBFC1EB2B
:106C70000201C1EB0301324B014499421DD94EF68A
:106C80006023B1FBF3F1481C01232A46022180B2A4
:106C9000FEF73AFD2B46FF2229462A48FEF7C6FB9F
:106CA000B8F1000F14BF20232F233B80082333802B
:106CB00000230222194624488CE74FF47A73B1FB73
:106CC000F3F1481C01232A46022180B2FEF71CFD85
:106CD0002B46FF2229461D48E0E74FF00A08B0FB8B
:106CE000F8F001232246022180B2FEF70DFD234673
:106CF000FF2221461648FEF799FBD9F800002246EC
:106D0000B0FBF8F308FB13000123194681E700BF2D
:106D1000684300206C4300206A4300206CB10008E7
:106D20006443002033B2000839B100083BB10008C9
:106D3000C04300206C440020384400203C44002024
:106D4000B882010034B1000836B1000843B200082F
:106D500032B100082DE9F041174B0A26DA8D174BA6
:106D600092B29B68164FC3F38F039B00B3FBF2F301
:106D70000A229BB2B3FBF2F402FB14339BB2042B46
:106D800088BF0134A4B20123B4FBF6F51A461946B4
:106D9000A8B2B7F90080FEF7B7FC1022094B06FB3A
:106DA00015401A800123A7F800801A46BDE8F0417B
:106DB000194680B2FEF7A8BCC043002070430020F3
:106DC0006C4300206A43002070B50025214B044627
:106DD0001D80214B214E1D80214B1978E9B1FFF711
:106DE000B9FF20482B46FF220121FEF71FFB01209F
:106DF000FFF742F954B10220FEF7FCFD3068002194
:106E0000FFF7CEF8BDE87040FEF760BE2346FF22D4
:106E100001211448FEF70AFBF0E73068FFF7C0F8DD
:106E2000FEF754FE7CB10220FEF7E4FD0120FFF7DF
:106E300023F90023FF2201210A48FEF7F7FABDE8F3
:106E40007040FFF787BF2346FF2201210548FEF768
:106E5000EDFAEBE76C4300206A4300206443002016
:106E60006843002033B2000870B551B947F6EF729D
:106E7000194B9B68C3F38F03934282BF0122174BC8
:106E80001A70174C2378E3B9164A174D13688342DA
:106E9000C8BF1060154BA9B9196029681B68CB1AC7
:106EA00044F620618B420CD9114B11681B688B4250
:106EB00007DD01225B1A022BD8BF084B2270D8BF16
:106EC0001A7070BD0A490E688642B8BF086019681A
:106ED0000029E2D12968DFE7244100203441002065
:106EE00014410020140200206C44002010410020B6
:106EF0000C4100202DE9F74FA54B1C6844B94FF019
:106F0000500383F31188BFF36F8FBFF34F8FFEE7FA
:106F1000256C45B14FF0500383F31188BFF36F8F99
:106F2000BFF34F8FFEE7FDF7E3FD40B94FF050038D
:106F300083F31188BFF36F8FBFF34F8FFEE7642198
:106F40002846DFF85092DFF850A2944FAEE021B906
:106F5000002D00F04F81FDF7DBFD20B9D9F800309E
:106F6000DAF800800093FDF773FBFDF797FDFDF75E
:106F700055FB94F84430FF2B04BF002384F84430C1
:106F800094F84530FF2B04BF002384F84530FDF70B
:106F90005FFBFDF743FBDAF800300098D9F80020DA
:106FA000904201D0434576D2A3EB08028A4272D2C6
:106FB000C91A01EB08060021D9F80030DAF8008080
:106FC0000093FDF745FB002940F0A680FDF726FB66
:106FD000A36B002B61D1A346FDF73AFB5BF8243B82
:106FE000002B3FD1FDF71AFBA568002D37D03B6879
:106FF000EA6ADB6A9A4280F087801421AB69002B31
:10700000A1BF3B68DB6AC3F10603AB61644B01FBC4
:1070100002326969914273D1291D08460191FDF739
:10702000A2FDDFF880C101995D4B40B90120EA6AF9
:10703000DCF800E090402EEA0000CCF800003A684E
:10704000D06A0122E862DCF8005082402A43CCF882
:107050000020142202FB0030FDF763FD0121FDF743
:10706000F7FA0D46396858461831FDF765FD304688
:10707000FFF7BEFA2046FDF7C9FEFDF717FE98B9E7
:107080004FF0E0234FF08052C3F8042DBFF34F8F31
:10709000BFF36F8F08E0012193E72046FDF7D8FA90
:1070A000FDF7B4FEFDF702FE31460120FDF7B6FA0A
:1070B000A66B002E3FF44BAF2368013EA66343B995
:1070C000364B1A681AB119688A6D01328A651B68D5
:1070D000A360236973B104F11000FDF75DFE48B1B0
:1070E0004FF0E0234FF08052C3F8042DBFF34F8FD1
:1070F000BFF36F8FFDF7ACFA012003B0BDE8F08F4E
:107100003B68DB6AEB62A9E73B68696DDB6A994221
:107110002CBF00210121A2E72046FDF777FEFDF7F5
:10712000C5FDFDF77BFAA36B13B1FDF791FABBE741
:10713000FDF78EFA002D5FD0FDF770FA636A1BB180
:10714000236B1B68C3F10603A468002C52D0A16D09
:1071500041B94FF0500383F31188BFF36F8FBFF332
:107160004F8FFEE7626D934238BF1346E26A934247
:1071700040D001293ED1094909688C4214D14FF011
:10718000500383F31188BFF36F8FBFF34F8FFEE778
:107190003C370020484400206C440020504500202B
:1071A00068450020E0450020A169E3620029A4BFF2
:1071B000C3F10603A3611423104D03FB025263695C
:1071C000934217D1261D3046FDF7CDFC0C4AE46AE8
:1071D00028B901201368A04023EA000313600123AB
:1071E00014201168A3400B4300FB04503146136088
:1071F000FDF797FCFDF72CFA00207EE7684500209C
:10720000E0450020034B4FF400720021186803F0A2
:107210003DBF00BFB043002038B505460C46FFF720
:10722000F1FF2846FEF7EEF9074B084A1B68126883
:107230009B1A41F28832934203D8201E18BF0120C6
:1072400038BD0120FCE700BF6C440020384400201A
:1072500070B504460D46FFF7D5FF2246012311788D
:1072600049BB013B03EB43039B009BB2802B2DD911
:107270001A4A928C92B2012A14BF14220A22B5FB38
:10728000F2F103F1800209B291FBF2F002FB10115E
:107290007F2921DD99421DDC0BB2114AC3F1800325
:1072A000138000230F4A204613800121BDE870405F
:1072B000FF22FEF7BBB8F02903D8013201339BB29D
:1072C000CDE751780029CCD00232F7E7C3F1800234
:1072D00003EB62031BB2E0E78023DEE7C04300203C
:1072E0006C4300206A4300202DE9F3410646DDE9A6
:1072F00008040F46984640B94FF0500383F31188B5
:10730000BFF36F8FBFF34F8FFEE70CB9FDF77CF92A
:1073100064230193019B642B08D04FF0500383F347
:107320001188BFF36F8FBFF34F8FFEE795002A469A
:10733000A5212063019B03F0A9FE226B043D2A4492
:1073400022F00702002F00F096807B1E04F133012B
:107350001F3713F8010F01F8010F08B1BB42F8D134
:10736000002384F853304346052B28BF0523E362EE
:107370006365C3F106030021A3614FF08073A1652B
:107380006161A16224616462E16584F8601042F881
:10739000043C404B26F0010642F8086C42F80C3CD5
:1073A00042F8201C403A2260FDF738F93A4A3B4D3A
:1073B00013683B4E013313602B68002B5ED12C60A9
:1073C0001268012A2ED132464FF0FF3C14201F468E
:1073D00002F10801C2E9011CC2E9031100FB03F13B
:1073E0000133062B775002F11402F1D12D4A02F13C
:1073F0000803C2E9013CC2E903332B4B176003F1D8
:107400000801C3E9011CC3E9031128491F6001F108
:1074100008000F60C1E9010CC1E9030024490A60BA
:10742000244A1360244A254913680868013313600D
:107430000123E26A9340034314200B6000FB0260C7
:10744000211DFDF76EFBFDF703F91D4B1B6873B1A2
:107450002B68DA6AE36A9A4209D24FF0E0234FF0D0
:107460008052C3F8042DBFF34F8FBFF36F8F2046B8
:1074700002B0BDE8F08184F8347074E7104B1A68EC
:10748000E36A002ACED12A68D26A9A4298BF2C6059
:10749000C8E700BFE74500085844002050450020D9
:1074A00068450020F8280020E428002054450020EA
:1074B000504400204C4400200C290020E0450020CE
:1074C0004044002037B50446D0E90010A569B4F95E
:1074D0000830226901956469842B0CBF00230333B3
:1074E0000094FFF701FF03B030BD00002DE9F84321
:1074F000044640B94FF0500383F31188BFF36F8FF8
:10750000BFF34F8FFEE7016C41B14FF0500383F39F
:107510001188BFF36F8FBFF34F8FFEE7FDF7E8FAD7
:10752000FDF77CF8A26BE36B9A4272D2226CA76BD8
:10753000002A5FD12368B3B100250137A763626ACF
:10754000002A64D004F12400FDF726FC002860D056
:107550004FF0E0234FF08052C3F8042DBFF34F8F5C
:10756000BFF36F8F55E0A5681DB900250022A2600A
:10757000E3E72A4B1B689D4208D04FF0500383F38A
:107580001188BFF36F8FBFF34F8FFEE7AB6D43B929
:107590004FF0500383F31188BFF36F8FBFF34F8F0A
:1075A000FEE7D5F82C906E6D013BB145AB65DCD0A4
:1075B000002BDAD105F104084046FDF7D4FA184B48
:1075C00030B901211A6801FA09F122EA01021A60B0
:1075D000C6F10602EE62AA6101251420196805FAB7
:1075E00006F20A431A600F4B414600FB0630FDF7D6
:1075F00098FABBE7606803F051FD6368226C13449E
:10760000A2686360934297D32368636094E7002D78
:107610009ED1BDE8F843FDF71BB800BF50450020E0
:10762000E045002068450020014B1868FFF75EBF69
:107630003C37002070B506460D461446FFF75AFC4D
:1076400048B1F0B2FDF7B8FDFDF71CFE30B9FDF70B
:10765000D1FDFFF7E9FF0024204670BDE8B2FDF739
:1076600011FE0028F3D0FEF759FB2078FDF70AFE43
:1076700004460028EBD0FDF7BDFDFFF7D5FFEBE793
:1076800007B50A4B5A3893F84020C0B2824209D05D
:1076900083F840008DF80700802178200DF1070263
:1076A000FFF7C8FF03B05DF804FB00BFC201002074
:1076B00010B5094CB4F8460080B2003818BF01205C
:1076C000FEF79CF9B4F84600BDE8104080B20038DF
:1076D00018BF0120FFF7D4BFC0430020F7B50D4607
:1076E000044600260C4F6378782021780DF10702BC
:1076F0008DF80730FFF79EFF60B1A3782BB1396892
:1077000001333A68521A9342FBD80136AE4204F173
:107710000304E8DB03B0F0BD60440020064B93F89F
:107720002E20824206D083F82E00022103F12A0087
:10773000FFF7D4BF704700BFC2010020192310B566
:10774000094CB4F8480080B2B0FBF3F001230130DB
:1077500080B21A461946FDF7D7FFB4F84800BDE8D5
:107760001040C0B2FFF7DABFC043002038B504466E
:10777000FFF7C0FBB8B17820FDF71EFDFDF782FDD5
:1077800028B9FDF737FDBDE83840FFF74DBF064D7E
:1077900015F8010BFDF776FD0028F2D0013CA4B2EC
:1077A000002CF5D1EDE738BD4841002008B5FDF7C4
:1077B000EBFB28B1BDE8084040F21120FFF7D6BF2F
:1077C00008BD000070B50446094D2E6829682046A2
:1077D000891BFFF73DFDFEF7F9F928B9FFF7E6FF32
:1077E0002820FEF771FFF1E7431E5842584170BD53
:1077F0006C44002008B50B4BB3F84C309BB273B906
:10780000094B0A4A1B6810689B8A1844FFF7DAFF85
:1078100038B10121BDE808402420FDF7CFBB00218D
:10782000F8E708BDC0430020DC400020D84000201D
:107830002DE9F74FDFF88081604FD8F81420604DB4
:1078400012B100233B6013E06B8C9BB2002B6ED017
:10785000E988AB8889B29BB28B4228BF0B461F2BAD
:10786000C1BF0922203B03EB8303B3FBF2F23A6072
:10787000688C80B2002862D00020FEF799FA0523B8
:1078800000EBC00090FBF3F42034A4B22E8CDFF8A0
:1078900034A1B6B2DFF83091002E58D00026FFF7A1
:1078A000B1FC4A4BFF221B6831460193484BAAF8B2
:1078B0000060D3F800B0019BA9F80060988C3346B3
:1078C0005844FDF7B3FD0823A9F80030019BFF22BF
:1078D000D88C314633465844AAF80060FDF7A6FD1F
:1078E0000123324603212046FDF70EFF6B8C9BB22D
:1078F0004BB33346FF2231463648FDF797FD002350
:10790000FF2219463448FDF791FDFFF717F90023D0
:10791000FF2219463148FDF789FDFFF747FFFDF7C4
:10792000EFFA50BBD8F8040003B0BDE8F08FEA8846
:10793000AB8892B29BB2934228BF134682E7FEF710
:1079400037FA84B2A2E7FF2219462548D5E7FFF7A8
:1079500059FC3346FF2201212248AAF80060A9F809
:107960000060FDF763FD012320461A460321FDF761
:10797000CBFE0220FEF700F9CFE76B8B9BB263B121
:10798000194B196849B1194B1A686B8B521A4EF68C
:1079900060219BB24B439A420AD8FEF717F9082898
:1079A00006D0D8F81430002B0CBF07200820BBE706
:1079B000002304203B60B7E7E44000204041002062
:1079C000C04300206C4300206A430020DC400020BC
:1079D000D84000202CB1000833B200083BB10008A9
:1079E000BCB100083DB100083C4400206C440020BC
:1079F00008B5084B1A7882420BD01870064B5238E3
:107A000058701020FFF7B2FEBDE808400A20FEF7CC
:107A10005BBE08BD044100204841002070B5134EF4
:107A200004463378834220D000280BBFC025C825E8
:107A3000A123A0230E48192103770574FFF74EFEFA
:107A40000A20FEF741FE00220A4B40F211205A7133
:107A50007F225D723470DA71FFF788FE0A20FEF72C
:107A600033FEBDE87040FDF78FBA70BD684300205B
:107A7000C2010020484100202DE9804814208FB029
:107A8000FEF722FE0722484B32201A60FEF71CFE4A
:107A90000023464F464D3B602B8B9BB21BB14FF4EE
:107AA000FA60FEF711FE0AAE10220021304603F004
:107AB000EDFA1022002106A803F0E8FA10220021B6
:107AC00002A803F0E3FA4FF00008DFF8E890C822BC
:107AD00040F6E4416B8A0DF1180C9BB202FB1313C4
:107AE0000193354B41F288329B6813F0080F08BFB1
:107AF00000222B8A0EAB03EB480323F8102C23F84B
:107B0000202C23F8302C99F8003008F101083BB9FB
:107B10005FFA88F3D9B208293CD1012389F80030F3
:107B20000024B24620462146234608F007080DF1FE
:107B3000080E3AF902BB01345B443CF902BBE4B2E3
:107B400059443EF902BB082C5844F2D1002BB8BF6F
:107B50000733C2EBE303002BB8BF5B420029B8BF79
:107B60000731C2EBE1010029B8BF49420028B8BF84
:107B70000730C2EBE002002AB8BF52420B44134464
:107B8000019A64209A42BEBF0C4B1B683B60FEF713
:107B90009BFD9CE702A926F813202CF8132021F85E
:107BA00013200133B6E700BF084100203C44002009
:107BB000C043002005410020000801406C44002023
:107BC000062008B5FDF710FA054B188A80B210B1EF
:107BD000012800D008BDBDE80840FFF71FBF00BF67
:107BE000C0430020F8B504460F46FFF783F948B1BB
:107BF0001020FDF7E1FAFDF745FB30B9FDF7FAFA81
:107C0000FFF712FD00252846F8BDE0B2FDF73AFB6C
:107C10000028F3D04FF480020C24124B1A6100BFED
:107C2000013CFCD11120FDF7C7FAFDF72BFB0546FF
:107C30000028E3D00826FDF7F5FA6400E4B2013E1F
:107C4000044316F0FF06E4B2F5D18022054B012073
:107C50001A61FDF7FFFA3C70FDF7CCFAFFF7E4FC80
:107C6000D1E700BF000C01400F2807B529D009D883
:107C7000092828D00C2828D0052828D0002003B0B7
:107C80005DF804FB122824D01428F7D10720002324
:107C90000DF107018DF80730FFF7A4FF0028EDD0A4
:107CA0009DF907209DF80730002AE7DA03F00F035B
:107CB000013BDBB20E2B96BF074A322032F813008D
:107CC000DDE70520E3E70320E1E70420DFE702200A
:107CD000DDE70620DBE700BF72CD000813B5002406
:107CE0000DF1070120468DF80740FFF77BFF48B1F3
:107CF0009DF807301B09013BDBB2052B8EBF2046E8
:107D0000014AD05C02B010BD6CCD000883B5524C66
:107D1000524EFCF783FC236893F86030022B13D09B
:107D200023683220DA6DDA650122236883F8602047
:107D3000FEF75EFC4FF0E0234FF08052C3F8042DB5
:107D4000BFF34F8FBFF36F8FFCF782FCFCF766FC2D
:107D50000027236893F86030022B01BF2268D36D9F
:107D600003F07F43D365236883F86070FCF770FCF1
:107D70003368B3F5FA6FCCD3394D2B78FF2BC8D1CC
:107D800001200DF107018DF80770FFF72BFF002888
:107D9000BFD09DF8073003F03803082BB9D1FFF7A7
:107DA0009DFF0028B5D005208DF80770FEF78CFCEC
:107DB0000C20FFF759FF02462A4FFEF7CDF8272A7D
:107DC000B7F8503016D90C235A436423B2FBF3F2B0
:107DD0000327023A244B08200DF107011A60FFF730
:107DE00001FF002895D09DF80730B7EB131F16D17F
:107DF0002F708EE70920FFF737FF0246FEF7ACF839
:107E00001D2AB7F8503081BF642302EBC202B2FBD7
:107E1000F3F202279ABF0A220127023ADAE73B016E
:107E2000082110200DF107028DF80730FFF702FC42
:107E300000283FF46EAF0123092110200DF1070245
:107E40008DF80730FFF7F6FB00283FF462AF3220D1
:107E50002F70FEF739FC5CE7504500206C44002091
:107E6000C1010020C04300201841002013B51D4B64
:107E70001B78FF2B05D11C4B1A6841F287339A42BD
:107E80002DD9FFF72BFF044600200DF107018DF8D7
:107E90000700FFF7A7FE00B39DF8073003F00F03BC
:107EA000013BDBB20E2B8EBF3222104A32F8132078
:107EB000D2B2FEF751F84FF47A735C43B4FBF2F49C
:107EC0000534A4B2A042D8BF32224FF00100DEBF79
:107ED000074B1B689A6202B010BD0A22E9E7002036
:107EE000F9E700BFC10100206C44002072CD0008FA
:107EF000BC440020002080B5FEF76CF8002320244D
:107F0000DFF87C815F4DC8F800305F4B1A685F4B2B
:107F10001A600520FEF73AFC0120FDF749FFE88DC5
:107F2000012180B2FDF7B2FE013CF2D1FFF79EFFC6
:107F3000002800F09380DFF85891564E4FF4FA6015
:107F4000FEF724FC002800F095800120FDF730FFAB
:107F5000D8F800400746002C40F38780B4F5E17F55
:107F6000A8BF4FF4E174FDF743FFA04202DAFDF72A
:107F70003FFF04464FF47A7A474A3368116800207D
:107F80005B1ABAFBF3FA3368E41B1360FDF7ECFFEE
:107F9000AB8E01469BB243B10A22AB8E9BB25343D8
:107FA0009842C2BFA98E89B251433C4B1B6823B192
:107FB0000A2253439942A8BF19468023B3FBFAF320
:107FC0003748C3F1640302685343642293FBF2F31E
:107FD0001422544394FBFAF423448B4203DC4942B9
:107FE0009942B8BF1946016038460C46FEF73CFF7F
:107FF0002B8D9BB2F3B140F6C4116B8D29489BB217
:108000004B4332680168521A934208D2FA21AA8D72
:10801000336892B2036001FB0233234A13602B8D55
:108020009BB29C4206DA204A336812689A4284BFA7
:10803000298D8CB247F6DF721C4B9B68C3F38F030C
:10804000934288BF00241A4B1B78002B0CBF20469C
:108050000020FDF7BFFFFDF761FE6FE74FF4FA6008
:10806000FDF75CFEFEF792FB60E70021FEF7FCFEE9
:108070000024BDE71423A9F800300E4B18705DE70B
:1080800040410020C043002050450020E84500202A
:108090005E4400206C440020204100201841002054
:1080A0001C4100203C410020384100202441002098
:1080B000344100205C4400202DE9F047782231490A
:1080C000314802F0F9FF00284CD0FDF727FE352299
:1080D0002E4BDA60FEF746FC2D4A116813685B1AD6
:1080E000012BFBD92B4CFDF719FE237E012B18D059
:1080F00001232376FEF768F888B9244DE0612B69E7
:1081000043F002032B61204B6B612B6943F040036A
:108110002B61FEF759F82B6923F002032B61002332
:108120002376FEF71FFC4FF00109164F164D174E30
:10813000DFF86480FDF7F2FD237E012B08D0B7F84D
:1081400000A084F81890FEF73FF868B1002323766A
:108150000235454507F10207ECD10C4A136943F09B
:1081600080031361BDE8F087E061336943F00103E8
:108170003361A5F800A0FEF727F8336923F0010367
:108180003361E3E7C043002000FC00080020024008
:1081900060440020F03B002078FC00082DE9F04FFF
:1081A00089B0FFF72FF8FDF711FD0746002800F012
:1081B00098800120FFF71CFCB04B1E68072E00F0D2
:1081C000C58600F3F080032E01F0818200F3A780C2
:1081D000012E01F05D80022E00F02E81002E00F0B5
:1081E0005D824FF0000AA64BDFF89892C3F800A01A
:1081F000B9F82E00514680B2FDF748FD5046FDF714
:10820000D7FDA14BB9F81E501C78A04E544514BFA1
:1082100032234FF0FF33DFF87882ADB283463380EC
:10822000A8F800A0002D00F06E83FDF787FE00285F
:1082300000F03683002C00F02A83964B38220093FE
:10824000514620233620FDF753F84FF0FF3232809D
:10825000914AB9F82E3095689BB2C5F38F05AD00F1
:10826000B5FBF3F54FF00A0AADB20123B5FBFAF9FD
:108270001A4602214846FDF747FA0023FF22012152
:108280008648FDF7D3F801230AFB19501A46194610
:1082900080B2FDF739FA002C14BF30235B23338002
:1082A0000823A8F800300023FF2219467C48FDF778
:1082B000BDF87C4C002F00F09383A389002B00F0C5
:1082C000B9800123042FA38100F0638400F28B8323
:1082D0009F4200F08F83022F40F0AC800926A360FC
:1082E000C6E0FDF765FD31283FF663AF654B5B8A5D
:1082F0009BB2002B3FF45DAF6B496C4A0B68126870
:108300009B1A4EF6602293427FF653AF0B68684982
:1083100009685B1A93427FF64CAF38464AE7052E50
:10832000584D604C00F06E83062E7FF45AAFA3893F
:1083300013B9B5F8543023834FF47A7BB5F856302F
:10834000082F9BB2BBFBF3FB00F02F84102F00F033
:108350002C84688C80B2002800F047840020FDF750
:1083600027FD052300EBC00090FBF3F808F120087F
:108370001FFA88F8236913B94B4B1B682361628B82
:10838000238B002A40F037844345A4F81A8000F27A
:108390003284484B484A1B6810685B8D3946184444
:1083A000FEF73AFF46E00B2E00F0D5853CDC092EA7
:1083B0003C4C01F015800A2E41F09C810026DFF82C
:1083C000CC80DFF8CC903346FF2231463B48257BFA
:1083D000A8F80060A9F80060FDF728F8A8F8006088
:1083E0004FF0080836483346FF22314650F8250042
:1083F000A9F80080FDF71AF8454500F00F8700F254
:108400008886042D00F0E18600F27C86022D00F0C3
:10841000CB86032D00F0D486012D00F0B986022F03
:1084200040F02C870323C1E30C2E00F093800D2E27
:108430007FF4D7AE04261BE01A4CA389022B43D04D
:1084400013D8CBB91F4D2B785BB11A4B1A4A1B6856
:1084500010689B8839461844FEF7DEFE18B10023E9
:108460002B700123A381022602E0032B4CD00026AF
:10847000304609B0BDE8F08FA681F4E71002002075
:1084800040410020C0430020684300206C4300208E
:108490006A430020EB3F0020704300202AB100080F
:1084A0003BB10008E44000206C4400203C44002024
:1084B00038440020DC400020D840002057B100089C
:1084C00004D900082A3E0020B64B1B68002BCAD0F6
:1084D000012B17D1B44BDB8F9BB2012B12D8B34BBE
:1084E000B34A1B681068DB8839461844FEF794FECF
:1084F0000028B8D003231D20A381FCF775FDFFF7EA
:10850000DBFDB0E70323ADE7FEF7F4FCA0B9A64B13
:10851000B3F840309BB2012B1AD8A44BA44A1B6875
:1085200010681B8939461844FEF776FE00289AD059
:1085300004231E20A381E0E71020FCF73DFEFCF79A
:10854000A1FE0546FCF756FEFFF76EF8002DDED0C3
:10855000042387E7974C984EA389984D062B84BF38
:108560000023A381A389002B41D1184605A98DF8CA
:1085700014308DF81830FFF735FB58BB4FF6FF78F5
:108580000024FF22234621468D4834802C80FCF7AE
:108590004DFF0823FF2221468A482B802346348042
:1085A000FCF744FF2346FF2221468748FCF73EFFA5
:1085B0000123224602215FFA88F0FDF7A5F8234641
:1085C000FF2221468048FCF731FF022F41F08780CF
:1085D00003264DE7012006A9FFF704FB0028CDD0B4
:1085E0009DF814309DF8188048EA0328C8E7774AB8
:1085F0002033106892880690ADF81C206B4413F865
:10860000099C4846FFF730FBB4F80CA000248046D4
:108610002346FF2221466A4834802C80FCF706FF5F
:108620000823348064262B802246012302215FFA2E
:108630008AF0FDF769F82346FF2221466248FCF7DD
:10864000F5FE0123224602214846FDF75DF8234648
:10865000FF2221465E48FCF7E9FE2346FF22214621
:108660005948FCF7E3FEB8FBF6F501232246022148
:10867000A8B2FDF749F82346FF2221465548FCF7EA
:10868000D5FE06FB158023462246022180B2FDF767
:108690003BF82346FF2221464F4894E7FEF7B2FD00
:1086A0004E4BD3F800284E4B9A4235D110234D4AF9
:1086B00003F1006101F57041506891F8F547C45429
:1086C00091F8F407516819440233702B4870EFD1C8
:1086D000102303F1006101F57041906891F855484D
:1086E000C45491F85408916819440233702B4870AF
:1086F000EFD1FFF75BF8FEF721F8FEF783FD2A4B79
:108700001A8B92B2022A40F0AA800023364A1360E4
:10871000364A13600726ABE6354A1378AA2BECD10C
:10872000DFF88480B8F84A309BB2002BE5D092F88D
:1087300001900126FEF766FDDFF8B8A0FDF746FAC6
:1087400005460028D9D116F80A4006EB0A07FE2C88
:1087500000F08380FF2C4FD0002C5AD04FF0600BDC
:108760007B1C64080293A5424FDA029B13F8153074
:108770000135B3FBFBF0602B0BFB103006AB17F899
:10878000152000934FF0080300F110008DF8182019
:1087900038BF19464FF0010228BF1021C0B2FCF7C4
:1087A000A7FDE0E708410020C0430020DC40002096
:1087B000D8400020E44000206C4300206A430020A1
:1087C00044B100084DB1000833B2000867B1000899
:1087D0003BB1000832B1000853B1000800F00008B6
:1087E00055AA0DF0B0430020384400203C4400203E
:1087F00000F8000801F80008102360220137082162
:1088000018460097FCF774FD1446FEF7CFFF64008E
:108810000134FEF7CBFF2644B9F1000F03D04FEA35
:108820008900FDF751FFB8F84A309BB2002B85D084
:1088300040F2FD339E4202DC002C7FF47FAFB8F89B
:108840004A309BB2062B7FF456AF4FF4C870FDF749
:108850003BFF0126FEF7D6FC70E70124D9E71A8B0F
:1088600092B2012A07D1A54BA54A1B681360A54AFD
:1088700013600526FCE51B8B9BB2032B7FF4DAAD5E
:1088800000239F4A13609F4A13600826F0E59E4B21
:1088900038220093214620232046FCF729FDD6E408
:1088A000B9F81C309BB26BB1BBF1370F0ADD4FF446
:1088B0007A72924B1B68B3FBF2F102FB1133B3F5F2
:1088C000967F02D30120FDF7D7FB002C14BF0623AF
:1088D00049230025B9F804002A460321338080B2D9
:1088E0000123A8F80050FCF70FFF2846FDF72EF9EA
:1088F000AC4214BF2B46432333800823A8F8003032
:10890000FEF71CF9CFE4002C3DD0804B38222946DD
:10891000442000932023FCF7EBFC7D4B2946009379
:108920000C202023FCF7E4FC3580FEF713FAFDF75A
:1089300005FB054618B9BBF1370F7FF7BAAC002C21
:1089400033D0002438222023214644200094FDF710
:1089500099F83822A8F800403280002D38D1B9F8B3
:108960001C309BB25BB14FF47A72644B1B68B3FB53
:10897000F2F102FB1133B3F5967FFFF49AAC0020BD
:10898000FDF77AFB95E4634B38222146204600939D
:108990002023FCF7ADFC604B214600933A202023B6
:1089A000FCF7A6FC74233380BFE72023382221463E
:1089B00020460094FDF766F83480A8F80040002DAA
:1089C000CDD0564B3822009321462023204604E088
:1089D000534B2146009336202023FCF789FC68E4A2
:1089E0000123A38126E5082F7FF424AD0423A3608F
:1089F0000A263DE5FDF7A2FA00287FF41BAD02230D
:108A0000A36036E7002161616B8CE289454E9BB221
:108A1000002A43D0002B3DD02B8E9BB21F2BC1BF11
:108A20000922203B03EB8303B3FBF2F1316000200A
:108A3000D6F80080FDF7BCF9A8EB000808F10A0899
:108A4000B8F1140F39D8238B33B92C4B1B6803F2C0
:108A50004D1323610123238323690BB1274B1B682B
:108A60002B8CE0899BB2003818BF01203BB3FEF786
:108A700091F8FCF745FA00287FF44CAE2A4B93F8A6
:108A80000080B8F1000F1DD0187001233060A36082
:108A90000D26EDE42B8E9BB23360C8E75BB1AB884B
:108AA0009BB21F2BC1BF0922203B03EB8303B3FB07
:108AB000F2F23260BBE7AB88EDE70023CBE7FEF7CD
:108AC00083F9D6E7A389012B5CD9202F32D1174A2D
:108AD000032B1168164A12680CD188893946104454
:108AE000FEF79AFB00283FF4C4AE0123C4F81C80B3
:108AF000A381BEE648893946104432E06C44002028
:108B0000384400203C4400203DD600080B3F0020A4
:108B10002B3E0020FDD700081DD700083DD60008D9
:108B2000EB3F00204041002034410020DC40002089
:108B3000D8400020E3692BB1A24A1268934209D8B9
:108B4000C4F81C8087B1042F11D09E4B1B6803F51D
:108B50007A73E36139469C4B9C4A1B681068DB8939
:108B60001844FEF759FB84E60323A38181E62B8E8C
:108B70009BB2002BE9D0EB8C9BB2012BE5D10123FA
:108B8000E38176E6042F15D008D88FB1032F3FF488
:108B900070AE02228E4B9A600B2669E4102F04D02F
:108BA000202F0CD0082F7FF464AE0123A36041E492
:108BB000E7605EE62B8E9BB2002BE0D159E6EA8C93
:108BC00092B2002A3FF455AE7F4A11687F4A12687C
:108BD0004BB9488939461044FEF71EFB00283FF484
:108BE00048AE0223C1E7888985E7FDF7E1F81FFA5F
:108BF00080F8FFF7BFBBDFF8CCA12169DAF80020CD
:108C0000A2EB01094FF47A72B9FBF2F9628B1FFAF9
:108C100089F9934207D9434540F2D180A3EB08017B
:108C20004A424A4104E0F9D2434534BF00220122BE
:108C3000E18949451BD8D2B1DAF80010A289216137
:108C4000B5F85210013292B289B28A42A28163838E
:108C500040F2CE804FF47A7BB5F86C304FF00009CB
:108C60009BB2BBFBF3FBA4F80E90A4F81890B5F8E8
:108C70005230A2899BB29A420BD90020FDF798F896
:108C8000362806DC636923B9DAF8003003F24D13A5
:108C90006361628B278BBA4280F0E880DAF800309B
:108CA00021685B1AB3FBFBF313449BB29F4228BFBE
:108CB0001F46288C80B2002800F03D81E389454A98
:108CC0000293454B03211B784046002B039314BFAE
:108CD0003023002313804FF00002404BB4F80CB057
:108CE0001A8001230022FCF70FFD0023FF22194602
:108CF0003B48FCF79BFB0123002203213846FCF78D
:108D000003FD6B8C9BB2002B00F0C1800023FF227F
:108D100019463448FCF78AFBBBF1000F13D0B5F8B5
:108D200052309BB29B450ED8039B2A4A002B14BF9E
:108D30002423372313800022284B58461A8001230E
:108D40001946FCF7E1FC039B224A002B14BF2A239F
:108D5000002313801023214A1380BBF1000F40F041
:108D60009A80194B1B68188C184BFF22D3F800C04F
:108D7000002360441946FCF759FB0020FDF70AFF69
:108D80006A8C194B92B24AB11F2FC1BF0922203FF2
:108D900007EB8707B7FBF2F7D8BF002762691F60B0
:108DA00022B1DAF800108A427FF644AB0F4A1178FC
:108DB000002900F0C38000211960117068E60122CB
:108DC00036E700BF6C440020DC400020D840002083
:108DD000E44000206C430020684300206A430020E8
:108DE00055B100082CB1000840410020344100205A
:108DF000032A2FD017D8012A1FD0022A24D04FF4DB
:108E00007A71B4F80EB0228B01FB0BFB934235BF95
:108E1000D21A9B1A9BFBF2FB9BFBF3FB4FF0000962
:108E20001FFA8BFB23E7042A1AD0052AE7D1B5F8ED
:108E30006A20E281B5F8682004E0B5F85A20E281A2
:108E4000B5F858202283DAE7B5F85E20E281B5F85C
:108E50005C20F7E7B5F86220E281B5F86020F1E721
:108E6000B5F86620E281B5F86420EBE77FF621AF24
:108E7000DAF8003021685B1AB3FBFBF3D31A9BB21C
:108E80009F423FF616AF9A4228BF1F4611E7FF22C6
:108E90001946A9483EE7B5F852309BB29B4503D925
:108EA000A64B1B68588C5FE74FF03C0B0123B9FBC6
:108EB000FBF8194600221FFA88F0FCF725FC002376
:108EC000FF2219469E48FCF7B1FA00230BFB1890CD
:108ED0001A46022180B2FCF717FC0023FF22194634
:108EE0009848FCF7A3FA029B0233994508D34FF444
:108EF0007A72DAF80030B3FBF2F3DB073FF53DAFEF
:108F00004FF03C09029B0022B3FBF9F801234046D5
:108F10001946FCF7F9FB0023FF2219468848FCF7A5
:108F200085FA029B022109FB1830002380B21A4601
:108F3000FCF7EAFB21E7FDF747FF21E7A389002BB8
:108F40003FF496AAB5F85230FFF792BA09B0BDE8DF
:108F5000F04FFEF76DBC00227B4B7C4C1A60A3895E
:108F60002BB90FB90123A3810023E3810CE0042F67
:108F700000F09D8079D8012F754B00F0A580022F5D
:108F800000F09180002FEFD00023E289704DC2F5F0
:108F90009672632ADCBFC822E281EA8E92B20AB1DD
:108FA0005B421BB2E3B1A98883EAE372A2EBE372EE
:108FB000194409B213B291FBF3F151436B8C09B21E
:108FC0009BB2002B00F082803C2940F25233B8BFA4
:108FD0003C219942A8BF1946002089B2FBF7EEFF59
:108FE00008235C4A13805C4A13805C4BEF8E1E782A
:108FF000BFB2002E73D00023DFF864C15948FF22AE
:1090000001219F4208BF6046FCF710FA0023FF22AF
:1090100001215548FCF70AFA0123A8881A460321C2
:1090200080B2FCF771FB0220FCF7A6FD0023FF22B3
:1090300001214D48FCF7FAF9ED8EADB2002E58D063
:109040000023484E4648FF2201219D4208BF30467A
:10905000FCF7ECF9454B464A1B6812689B1A40F630
:10906000B83293427FF698AD03E0082F08D0102F56
:109070008AD1FFF721F801236668A360FFF7F8B9EA
:109080003A49E28923690868D31A0344B3F5967F05
:109090007FF67AAF2E4B1B8F5B42096821321BB2E1
:1090A0002161E28171E75B8F5B421BB26DE72F4963
:1090B000E28923690868D31A0344B3F5967F7FF6E3
:1090C00063AF234B1B8FE8E75B8FEEE70A29B8BF3E
:1090D0000A21B1F5E17FA8BF4FF4E1717CE7DFF829
:1090E00084C01F483346FF220121002F08BF60467D
:1090F0008AE733461B481A4EFF220121002D08BF84
:109100003046A5E7062D6BD0072D62D1FCF770FE27
:1091100062E00C2D00F0AB802ED80A2D00F0898083
:109120000B2D40F08480134B01219868C0F38F0011
:10913000FCF7C0F877E000BFBCB10008DC400020BD
:109140002AB1000855B1000840410020E440002049
:10915000C04300206C4300206A4300206843002085
:1091600042B100086CB1000833B200086C44002022
:1091700038440020244100200E2D7BD00F2D7BD0C1
:109180000D2D7FF44CA9864B1868FBF78FFC4AE045
:10919000844BD3F8E857D3F8EC07FCF75DFF28467B
:1091A000FCF75AFFFFF73BB97F4BFF221D680023F6
:1091B00019467E4850F82500FCF738F9FFF72FB91B
:1091C0000023FF2219467A48F6E7FDF7B7FCFFF7C0
:1091D00026B90020FCF7ECFD0123002206211BE04C
:1091E0000020FCF7B7FD0A26B0FBF6F001230022B1
:1091F000294680B2FCF788FA0023FF2219466D4801
:10920000FCF714F90020FCF7A5FDB0FBF6F303FB17
:10921000160001230022194680B224E0664B18682C
:109220006423B0FBF3F0012300220821F4E7634B31
:10923000F5E7FCF791FEB0FBF5F0012300220621D3
:10924000C0B2FCF761FA0023FF2219465948FCF727
:10925000EDF8FCF781FEB0FBF5F303FB15000123ED
:1092600000221946C0B2FCF74FFAFFF7D8B8544BAA
:10927000588ED8E7534B87E7534B85E7012F7FF490
:10928000B7ABA389013303F00F03A381FFF7B0BB92
:10929000FEF7ECFD034680B94C4A194610804C4A53
:1092A00010804C4A1268D08A4B4A1468FF2220442E
:1092B000FCF7BCF80126FFF7DBB8FCF73FFE0546DC
:1092C00000287FF4D0A8FCF773FD04462846FCF77D
:1092D00041FD0A23B0FBF3F080B2241A002CB8BF82
:1092E0006442092C3FF7BFA83A4B3C4CD3F80080AE
:1092F000394B1D68A3890F2B37D82F4E626933680D
:109300009B1A642B09D9FCF7E1FC23690344236110
:10931000A3890133A38133686361A6890024B8F867
:109320001600DFF8A8902A4F28442346FF22214642
:10933000A9F800403C80FCF779F80823FF223B8025
:10934000214623461B48A9F80040FCF76FF8194D49
:10935000C6F38706E3B2B342ACD20023FF2219461C
:109360002846FCF763F80134F4E720693146C0F37E
:109370000F10FBF79FFF81B21720FBF71FFEB8F815
:10938000000039462844FDF747FF002892D000210D
:109390002420FBF713FEFEF78FFEFFF719B900BF7D
:1093A000D440002000F0FF1F08410020E0D8000852
:1093B00036B1000832B100086C4400203C44002063
:1093C000C0430020D0400020CC4000206C4300204F
:1093D0006A430020DC400020D8400020E440002008
:1093E000E389A589002B00F0AC80A84A013B52F824
:1093F00025809DB2142340F6B730DFF89492A5493A
:109400006B43D9F800200968CDF81480521A8242C3
:10941000ADF8125008EB030A40F2968018F80330BA
:10942000002B00F09180012363839B4B9AF800008E
:109430001B68D9F8002003EB40039848B3F852307A
:109440000068A2F6B832511A1844FDF701FF238BC9
:1094500023B980214046FBF77FFD2083638B002BDF
:1094600056D1691C404689B2FBF776FD804618B19B
:1094700000F1FF381FFA88F82025238B9AF8100096
:10948000B5FBF3F5002D08BF01253628EDB27AD8DB
:109490000293FBF7CBFD029B80F00100C0B2FA21E2
:1094A000D9F80020B2FBF1FC01FB1C227C2A00D978
:1094B00070B34FF0010B4FEA4818B8FBF3F80BFA02
:1094C00005F5013D5FFA88F805FA08F5EBB25A4652
:1094D00000217F2000930823FCF7D4FAC5F307236B
:1094E000009308235A4619467F20FCF7CBFAC5F3B0
:1094F00007435A4610217F2000932D0E0823FCF7C6
:10950000C1FA08235A4618217F200095FCF7BAFAC1
:1095100005AB0693042F0DF11203079349D034D8FD
:10952000012F6DD0022F00F08E80002F39D02369DB
:10953000C3F59673632B3EF69BAFC8232361FEF7FA
:1095400097BFDFF85C8155E79AF812B0BBF1000FC6
:1095500015D0514B1A689AF8113002EB4302B2F859
:10956000BC304E4A10681844FCF74CF80BEB4B0328
:109570004C4A9B00023B138000224B4B1A80DAF8C6
:109580000830984763E7012089E7082F4CD0102F57
:10959000CDD1E38902253BB9FEF78EFDA560FEF72C
:1095A00049BFC4E90477C2E70023A560E381FEF761
:1095B0005FBF2369D9F800201A44636903F59673E5
:1095C0009A42B4D906A8FCF723FF1421BDF8122053
:1095D000059B01FB0233187C36280AD90023D9F8F1
:1095E0000020134463612369213323610023238313
:1095F0009DE7FBF71BFD0028F0D04FF4FA63EEE780
:10960000638B13B10023638391E72383E3893BB921
:10961000DAF804300BB1984789E7E781A76086E75D
:1096200006A8FCF7F5FE82E7D9F800102369626905
:10963000194402F5967291427FF679AFD9F800206D
:109640002133626123610325104FDFF85480638B5F
:10965000002BD7D12383E389A289A56033BB1423D0
:10966000013292B2A28103FB028293682BB9FEF70A
:1096700023FD02230426A36059E7D368002B3FF49F
:1096800056AF98470028E2D051E700BF48D90008FC
:109690006C44002038440020DC400020D8400020EA
:1096A00058D900086C4300206A430020142101337C
:1096B0009BB2E3814B4357F82220143B13449A6832
:1096C0001AB90223E281A36031E7DB68D6E7104BC9
:1096D0001A78082A01D0022A04D100221A700C2616
:1096E000FEF7C6BE0B4BB3F84C309BB2002B3EF4DA
:1096F000BAAEDFE501236361FEF79AF8064B074A2D
:109700001B68126813437FF4B4A8FFF7BEB800BF0C
:10971000E0400020C0430020384400203C440020AA
:10972000F8B545F2AA54234B1A8892B2A2423AD015
:1097300018467822FF2101F0A9FC04800346012489
:109740005A6F01321CBF4FF0FF325A675A8818BF58
:10975000012492B2362A08D84FF6FF715A8892B285
:10976000362A22DD372201245A800022124903EBD7
:109770004206B5880F88ADB2AF424FEA420004D826
:10978000B5884E88ADB2AE4203D2CC8818448480EE
:1097900001240132372A01F10801E8D10CB1FEF7AA
:1097A0008BFC2046F8BD0024CAE703EB4200818011
:1097B0000132D5E7C0430020060000202DE9F84F14
:1097C000FDF720FD4FF01909424F434A434D94687D
:1097D000EB8DC4F38F049BB2A400B4FBF3F44FF001
:1097E0000A0BA4B20123B4FBFBFA0026DFF8F080D9
:1097F0001A4602215046A7F80090A8F80060FBF72F
:1098000083FF3346FF2201213648FBF70FFE01227A
:109810000BFB1A401146334680B2FBF775FF334607
:10982000FF2201213048FBF701FE0823E88D324674
:109830000321A8F8003080B201233E80FBF764FFCB
:10984000FCF7C4F9022841D007D8012827D0FDF73A
:10985000ADFF2820FCF738FFB7E71028F7D8234CD6
:10986000044114F00104F2D1FEF726FCFDF7CAFC16
:109870001F4B204A1B683C801B88A8F800401468D6
:109880001C44FCF7A3F901462046FDF7C5FCFDF793
:109890008DFFBDE8F84F4FF4FA70FCF72FBF164A62
:1098A000B2F8A830B2F8AA00B2F8AC10EA8D92B2C1
:1098B000934201D1E885CAE7EA8D581892B28242F4
:1098C000C2BFEB8D5B1A9BB2EB85C0E71520FBF79F
:1098D0008BFBBCE76C43002070430020C04300209A
:1098E0006A4300202AB100086EB10008EFFEFEFFB7
:1098F000DC400020D84000200600002070B5134B4B
:109900001E68134B308B1D682844FDF75BFFD8B1F0
:109910007822FF210F4801F0B9FBFFF701FFFEF7A6
:10992000CBFBFDF76FFC7488FCF750F92C44014623
:109930002046FDF771FC08B1FCF7DEF9FDF736FFB4
:109940006420FCF7C1FEECE770BD00BFDC400020E6
:10995000D8400020C04300202DE9F04F87B002908E
:10996000FCF734F94FF0000AB0FA80F6524B760952
:109970001A681B6803920593CDF800A0009B039A18
:10998000013300934C4B4FF4FA711B689B1A0193FF
:109990006423019A5A43B2FBF1F292B2C2F19604E7
:1099A0005243544341F2883294FBF2F4A4B2E401EE
:1099B000B4FBF3F4A4B2802C28BF8024029BE2B253
:1099C000002B6AD04FF0000BD846A2EB0A09C2F177
:1099D00080075FFA89F9FFB2384D92462868C4F1D2
:1099E000800200EB0901584401F076FB6868C4F17D
:1099F000800200EB0901584401F06EFBA868C4F135
:109A0000800200EB0901584401F066FBE868C4F1EC
:109A1000800200EB0901584401F05EFB284B2868E6
:109A200003EB08012246384401F056FB254B6868D9
:109A300003EB08012246384401F04EFBDFF8889022
:109A4000A868224609EB0801384401F045FBE868A4
:109A500009F1800122464144384401F03DFB009B5E
:109A6000DB0701D4FDF7A2FE0E2105A8FCF7F8FDE7
:109A7000FCF7ACF8002808BF46F00106FCF7A6F892
:109A800098B196B140F209220D49104801F006FB49
:109A900007B0BDE8F04FFDF789BEC2F180089346DC
:109AA000D146029F5FFA88F896E7019BB3F5FA7FEB
:109AB0007FF664AFECE700BF6C440020B0430020A9
:109AC000213C0020A13C0020213D002059410020E4
:109AD0002DE99F48FCF7ECFC00239D4A9D4E138026
:109AE0009D4A9E4C13809E4A06F5C079137006F17C
:109AF0008003636006F58073A3609A4B2660C4F808
:109B00000C90A6F1110203F1100153F8040B8B42E3
:109B100042F8040BF9D11B781370924B924A53F818
:109B2000040B8B4242F8040BF9D10A251B788F4FA6
:109B3000137019213846FDF7D1FD98B3DFF8308254
:109B40000120FDF755FFB8F848008A4DC0B2FDF777
:109B5000E5FDB8F84600884F80B2003818BF0120F4
:109B6000FDF78EFD00238548DFF814C2DFF814E20C
:109B7000DFF814A203F1290203F1380115F802B04D
:109B800000F803B01CF802B007F803B01AF802B0EE
:109B9000013A0EF803B001339942EFD1E02904D025
:109BA0000B46E7E7013DC4D1C8E7FCF78FF8002179
:109BB0002022764801F06AFAB8F81000DFF8D0A148
:109BC00000F00100FDF72AFF724B704F9A68D20730
:109BD0005EBF0421704A11709B689B075EBF08221C
:109BE0006D4B1A706D4B1B680193FEF7D7FADAF8CC
:109BF00000300546984212D0684A1268C7E900232F
:109C000033B9B8F818309BB2002B34D005237B60F1
:109C100014220021624801F039FACAF80050BB68EA
:109C200003B3604B03F180022360626003F580722E
:109C300003F5C073E360A260FEF7B0FA5A4BB86850
:109C40006360032803F18003C4E90239266000F051
:109C5000B18012DC012800F02081022800F01C8174
:109C60000023BB60FDF7A2FD282101A8FCF756F8F0
:109C7000FCF7F6FCB9E70425CAE70428F0D1474B06
:109C80004FF0000B1B680393FBF7A0FFB0FA80F5C1
:109C90006D090020454A464B92F801C192F881E1D6
:109CA0004FEADC1141EA4E0182F8811192F88110ED
:109CB0004FEA4C0C4CEAD11C82F801C112F801CFDA
:109CC000490041EADC1182F8801093F881114FEAD3
:109CD0004C0C4CEAD11C82F800C093F801C1490039
:109CE00041EADC1183F8811193F881104FEA4C0CA2
:109CF0004CEAD11C83F801C1013013F801CF4900AF
:109D0000C0B241EADC1180284FEA4C0C83F8801085
:109D100083F800C0C0D1FBF759FF002808BF45F009
:109D20000105FBF753FF10B1002D40F09B801BF0A5
:109D3000010F01D1FDF73AFD0BF1010B0E2103A834
:109D40005FFA8BFBFCF78CFCBBF1200FA1D187E7FE
:109D50006A430020594100206C430020B04300209A
:109D6000684300202CD60008103C0020C2010020CF
:109D7000C0430020FDD700082B3E00200B3F0020F1
:109D80001DD70008EB3F00203DD60008E44000202E
:109D900010020020000C0140E04000206C44002034
:109DA000F0400020213C0020D941002058410020F3
:109DB000203C00203A4B4FF0000B1B680293FBF74E
:109DC00005FFB0FA80F56D090021364B364A93F84D
:109DD00081C093F801E04FEACC1040EA5E0093F8AE
:109DE00001E158704FEACE1040EA5C0093F881C15F
:109DF00083F881004FEACC1040EA5E0012F801EFD0
:109E000083F801014FEACE1040EA5C0092F880C06E
:109E100083F881014FEACC1040EA5E0092F800E13D
:109E200010704FEACE1040EA5C0082F8800092F891
:109E3000800101314FEAC01CC9B24CEA5E0C4008F7
:109E4000802903F1010382F800C182F88001BED1AC
:109E5000FBF7BCFE002808BF45F00105FBF7B6FE86
:109E600048B145B140F209221049114801F016F9F4
:109E7000FDF79CFCF4E61BF0010F01D1FDF796FC09
:109E80000BF1010B0E2102A85FFA8BFBFCF7E8FB3C
:109E9000BBF1200F98D1E3E60020FFF75DFDDFE680
:109EA0006C44002058410020203C0020213C002030
:109EB000594100200E4B1A6842F001021A6059689D
:109EC0000C4A0A405A601A6822F0847222F48032E6
:109ED0001A601A6822F480221A605A6822F4FE027C
