:020000040800F2
:1080000000500020518100089981000899810008E2
:1080100099810008998100089981000800000000FA
:1080200000000000000000000000000061AA00083D
:10803000998100080000000091AA00081DB6000800
:1080400099810008998100089981000899810008A8
:108050009981000899810008998100089981000898
:10806000998100089981000899810008C9A9000830
:108070009981000899810008998100089981000878
:108080003DAA000849AA0008A9B200089981000881
:1080900099810008998100089981000829B4000895
:1080A00099810008D5A900089981000899810008E4
:1080B00001AA0008E1A900081DAA00084DB800089F
:1080C000E1BC0008998100089981000899810008A5
:1080D0009981000899810008998100089981000818
:1080E000998100089981000899810008000000002A
:1080F0000000000000000000000000000000000080
:0C81000000000000000000005FF8E0F14B
:1081100010B5054C237833B9044B13B10448AFF3C1
:1081200000800123237010BD180200200000000011
:10813000DC0E010808B5034B1BB103490348AFF33C
:10814000008008BD000000001C020020DC0E0108B9
:10815000002103E00B4B5B58435004310A480B4BA2
:1081600042189A42F6D30A4A02E00023136004320E
:10817000084B9A42F9D302F001FC08F04BFE07F0DD
:10818000DDF8FEE78C30010800000020140200201A
:108190001802002090460020FEE7FEE7064800682F
:1081A000006880F3088862B661B6BFF34F8FBFF3F3
:1081B0006F8F00DF00BF000008ED00E00422F0B484
:1081C000C66B016C3568036802FA01F72F421C6820
:1081D00028D0670726D53C498B4216D03B4A9342AC
:1081E00015D01432934214D01432934214D0143266
:1081F000934214D0143293420CBF4FF480034FF0DB
:108200008063334A5360F0BC70471346F9E740235C
:10821000F7E74FF48063F4E74FF48043F1E74FF45E
:108220008023EEE702228A402A4238D0A70736D5BB
:108230001A68910606D41A6822F00A021A6001220E
:1082400080F82120204A93421CD0143293421BD044
:10825000143293421AD0143293421AD014329342F9
:108260001AD0143293420CBF4FF400134FF0007336
:10827000174A5360002380F82030836A002BC2D055
:10828000F0BC18470223F3E72023F1E74FF4007313
:10829000EEE74FF40053EBE74FF40033E8E7082232
:1082A0008A402A42AFD02207ADD51A6822F00E02CA
:1082B0001A60012303FA01F1716083634FF4807344
:1082C0000384036BDAE700BF080002401C00024091
:1082D0000000024008B503681A6822F00E021A6016
:1082E0001A6822F001021A60164A93421CD0143216
:1082F00093421BD0143293421AD0143293421AD0B4
:10830000143293421AD0143293420CBF4FF48013AC
:108310004FF080730C4A53604FF480730384436BB7
:1083200003B19847002008BD0123F3E71023F1E7CC
:108330004FF48073EEE74FF48053EBE74FF4803354
:10834000E8E700BF0800024000000240436A9A6A62
:1083500012F0500F18D19A6A42F400729A621A68A9
:10836000926802F46022B2F5602F10D1DA6872B917
:108370009A6A22F480729A629A6AD20407D49A6A3C
:1083800042F001029A6270471B6A1B6B18477047E4
:10839000034A0130116813685B1A8342FBD37047AC
:1083A000C041002008B9064B1868026B0020135C1E
:1083B000A52B02D0C0F38F0070470130F7E700BF54
:1083C00048340020064A13681968064B19B94FF063
:1083D000FF321A6070471268D2681268F9E700BF6E
:1083E0004C3400206446002030B50C68631C0AD170
:1083F00003695A684A6091608B605960036808613C
:108400000133036030BD00F108021346526815685D
:10841000A542FAD9EDE70000002340F21A201A46DF
:1084200010B5074911F8014B03FB042201338342C5
:10843000F8D1044B18681A60801A18BF012010BDCB
:1084400069290020942B00200A4B588A80B278B109
:10845000188980B260B11A89188992B2052A94BF2E
:1084600042F210734EF6602380B288BF053858433D
:10847000704700BFD034002038B5134A538A9BB2EE
:108480000BB9002038BD13899BB2002BF9D00F4ADD
:108490000F4B14681B6844EA030288B1002AF1D02C
:1084A0000C4D2968C91AFFF7CFFF8142E9D9286826
:1084B000041BFFF7C9FF844294BF00200120E1E7BD
:1084C000002ADED0ECE700BFD03400206832002064
:1084D000983200208846002070470000084B33F88F
:1084E000302003EBC00391425B8803D399420A46D4
:1084F00028BF1A46034B03EB40039A80704700BF26
:1085000052000020D034002070B5114B114C33F8CC
:10851000306003EBC00359889A8804EB40034500A0
:10852000988880B2884207D19E802C44A08880B26F
:10853000431A5842584170BD98888E1A80B2B04292
:10854000B7BF98889980121892B2B8BF9A80ECE7AA
:1085500052000020D0340020034B588980B20038EC
:1085600018BF0120704700BFD034002008B5144B5D
:10857000198E5B8C89B29BB29BB179B140F25133B9
:10858000143189B2994288BF00211620FFF7A6FF57
:10859000B1F5527F34BF0020012008BD4FF4F071C7
:1085A000F3E759B10A3189B2B1F5E17F88BF002103
:1085B0001620FFF793FFB1F5E17FEBE7FA21F7E72C
:1085C000D0340020034B588A80B2003818BF0120F5
:1085D000704700BFD034002008B5104BD9885B8CA1
:1085E00089B29BB273B1143189B2B1F5117F88BFE2
:1085F0003C210120FFF772FFB1F5117F14BF00206D
:10860000012008BD0A3189B2B1F5967F88BF0A21E1
:108610000120FFF763FFB1F5967FEFE7D03400202C
:108620000F4A02EB40039B88528C9BB292B27AB104
:1086300003EBC3010523A031B1FBF3F10A2389B297
:10864000B1FBF3F101EB8101490089B2FFF746BFAD
:108650000922203B03EB830393FBF2F1EEE700BF1B
:10866000D034002010B50F20FFF74EFF044616202F
:10867000FFF7D6FF0020FFF7D3FF0120FFF7D0FF61
:10868000204610BD034BD88A80B2003818BF0120A5
:10869000704700BFD0340020F0B55442A0421E46BF
:1086A000059D134619DD602817DC002800EB020742
:1086B000B6BF44420024E4B2602FC4BFC0F16002E0
:1086C000D2B291B9134F21183F6805EB040C0F4447
:1086D00021468A4202D80F2E09D8F0BD1CF801EBC2
:1086E000013107F801EBC9B2F3E70829F3D1102EE5
:1086F00018BF002307492344496820442B44014400
:10870000A242EAD913F8010B013401F8010BE4B2DB
:10871000F6E700BF842B0020034B188D80B2003891
:1087200018BF0120704700BFD03400207047F8B553
:10873000002506462C461427EBB207FB03639A6814
:108740000AB92046F8BDDB6813B90134E4B202E08F
:1087500098470028F9D10135EEE7000038B500232D
:108760000122104D04462B7003681A70D0E90131C4
:10877000142009781B6800FB0133187C342809D8C1
:10878000FFF7C2FE2B7813B1032223691A6001237D
:108790002B7038BD586808B18047F3E7E3681A705A
:1087A000F0E700BFC82E002013B50122446801ABDA
:1087B0000078A04708B19DF8040002B010BD000089
:1087C00040220D4B1A6120221A610F2200BF013A8C
:1087D000FCD14FF400121A610F2300BF013BFCD102
:1087E0004FF48003044A13610F2300BF013BFCD107
:1087F00020231361704700BF000C01404FF40013A9
:10880000094A13610F2300BF013BFCD140231361D0
:108810000F2300BF013BFCD12022034B1A610F2321
:1088200000BF013BFCD17047000C014020230A4AE5
:1088300013610F2300BF013BFCD1402313610F23C1
:1088400000BF013BFCD14FF48002034B98681A61D2
:10885000C0F34010704700BF000C01400A4B80B1CC
:1088600020221A610F2300BF013BFCD14023064A9E
:1088700013610F2300BF013BFCD14FF48003136150
:1088800070474FF40012ECE7000C014010B50146B0
:10889000082401F08000013CFFF7E0FF490014F0DC
:1088A000FF04C9B2F5D12022034B1A61FFF7BEFFC6
:1088B000B0FA80F0400910BD000C014048F2E80316
:1088C00058436423C00B584340F23D13B0FBF3F010
:1088D000074B5A8E92B242B139B95A8E92B2824245
:1088E0002FBF08465B8E9BB2C01A024B18607047C0
:1088F000D0340020A032002038B50021FFF7DEFF81
:108900000122154B53F83210D400884210DA234468
:108910004FF47A7453E90252401B6043491B90FBA9
:10892000F1F05B689B1A584390FBF4F0104438BD9B
:108930000132322AE6D14FF47A73EE22A0F540508C
:108940003138584390FBF2F00A22504390FBF3F089
:1089500000F5F570EBE700BF842D010801220D4BF7
:108960001A6102221A610F2200BF013AFCD14FF4B2
:1089700000321A610F2300BF013BFCD14FF480335A
:10898000044A13610F2300BF013BFCD10223136192
:10899000704700BF000C01404FF40033094A1361D7
:1089A0000F2300BF013BFCD1012313610F2300BF44
:1089B000013BFCD10222034B1A610F2300BF013B94
:1089C000FCD17047000C014002230A4A13610F23B7
:1089D00000BF013BFCD1012313610F2300BF013B0A
:1089E000FCD14FF48032034B98681A61C0F3400009
:1089F000704700BF000C01400A4B80B102221A618F
:108A00000F2300BF013BFCD10123064A13610F2352
:108A100000BF013BFCD14FF48033136170474FF42A
:108A20000032ECE7000C014010B50146082401F0CB
:108A30008000013CFFF7E0FF490014F0FF04C9B2D9
:108A4000F5D10222034B1A61FFF7BEFFB0FA80F0A6
:108A5000400910BD000C0140064B00F111021A60E4
:108A600000F191025A6000F2111200F291109A6026
:108A7000D8607047842B00200229F7B504461CD12A
:108A800010221D4B1D491A700C221D4B1A701C4BD5
:108A90001C4E1D78184BB6F900701B783846DA0862
:108AA0006A4304FB0211009117492A4691F900100C
:108AB000FFF7F2FDE819308009E0012809D1124BD7
:108AC000B3F900201AB90F490A8008221A8003B0AE
:108AD000F0BDFCD9002915BF102008200C22062269
:108AE0000A4B0B4908BF1946034B023C1870044B54
:108AF000A4B21A70CBE700BFE82E0020B012010824
:108B0000E92E0020B42D0020B62D002025200020C5
:108B1000B121002070B503780446012B0E4615469E
:108B200001D11E4601342378A3B19DB1F02B09D9A0
:108B300062787AB1F03BC3EB03230F3A134498B247
:108B4000023401E098B201343146013DFFF794FF51
:108B5000EDB2E8E770BD00000E4B198B0E4B89B2E9
:108B60001A680E4B02291B6809D003290CD0012971
:108B70000DD1B2F84000FF221844FFF7CBBFB2F886
:108B80004200FF220121F7E7B2F84400F9E7D08F55
:108B9000F7E700BFD0340020FC1F00200020002099
:108BA0000C4BD98C0C4B89B21A680C4B01291B68F1
:108BB00006D002290AD1B2F84A00FF22012102E0C0
:108BC000B2F84800FF221844FFF7A4BFB2F84600ED
:108BD000F3E700BFD0340020FC1F0020002000205D
:108BE0000A4B198A0A4B89B21A680A4B01291B6879
:108BF00005D0022908D1908EFF22012101E0508E7C
:108C0000FF221844FFF786BF108EF5E7D03400200E
:108C1000FC1F002000200020074B084A9B8C126894
:108C20009BB23BB1938F064A01211068FF22184482
:108C3000FFF770BF138FF6E7D0340020FC1F002031
:108C4000002000200C4BD98A0C4B89B21A680C4BBF
:108C500002291B6808D003290AD001290AD1108FE4
:108C6000FF221844FFF756BF508FFF220121F8E77B
:108C7000908FFAE7D08EF8E7D0340020FC1F002058
:108C800000200020044B054A1B6810685B8DFF2202
:108C900001211844FFF73EBFFC1F002000200020E8
:108CA000002110B4064A04781180064A012C118074
:108CB00004BF01302146FF2210BCFFF72BBF00BFCD
:108CC000B42D0020B62D002010B50A4B0A4A0C46E0
:108CD0001B68583033F81030106804EB4404184413
:108CE000FFF7DEFF0022054BA400023C1C80044B72
:108CF0001A8010BDFC1F002000200020B42D002091
:108D0000B62D002010B5124B124A1B68044603EB27
:108D10004003B3F81E3110681844FFF7C1FF0E4B33
:108D2000DA8A0E4A11780E4A69B9D98A89B251B1E4
:108D30001168A1420B4903D0146008680A4A106008
:108D40000A689B8A02E08D21DB8A116010BD00BF9A
:108D5000FC1F002000200020D03400202420002010
:108D6000FC01002088460020CC2E00200020FFF7C8
:108D7000C9BF0120FFF7C6BF0220FFF7C3BF032012
:108D8000FFF7C0BF0420FFF7BDBF37B50C46114643
:108D90000022042C0092ADF804208DF8062032D970
:108DA0000A22B0FBF2F502FB150002308DF8050037
:108DB000B5FBF2F002FB105502358DF8045080B27D
:108DC0000A22B0FBF2F502FB150202328DF80320F5
:108DD000A8B20A25B0FBF5F205FB120502358DF8A5
:108DE000025090B20A25B0FBF5F205FB12050235E0
:108DF0008DF8015090B20BE01578022D17D102F8D2
:108E0000010B013311E0DBD0032CE2D0012CE9D1BE
:108E10000A25B0FBF5F205FB120202328DF80020A4
:108E20002BB16A4600231220013CA342E4DBFF225F
:108E30006846FFF76FFE03B030BD000008B50B4A6F
:108E400053899BB273B101235089194602301A46E7
:108E500080B2FFF79AFFFF2201210548BDE80840D4
:108E6000FFF758BEFF2201210248F7E7D034002067
:108E7000FA0E0108FC0E0108012370B50A240E4DFC
:108E80001A46A889194680B2B0FBF4F0FFF77DFFBF
:108E9000FF2201210948FFF73DFEA88980B2B0FBFF
:108EA000F4F304FB1300BDE87040012380B21A46BE
:108EB0001946FFF76ABF00BFD0340020FF0E01083B
:108EC000054BB3F8440080B208B9FFF7DBBE0123BD
:108ED00003211A46FFF759BFD0340020064A138EEB
:108EE0009BB233B10123108E03211A4680B2FFF7E3
:108EF0004CBFFFF7C7BE00BFD0340020034B022198
:108F0000588F012380B21A46FFF73FBFD0340020AC
:108F1000034B0221188F012380B21A46FFF735BF99
:108F2000D03400200122034B1146588A002380B21E
:108F3000FFF72BBFD0340020034B0321D888012337
:108F400080B21A46FFF721BFD034002008B5174B76
:108F50001A8992B25AB9164A01211068FF22154B9C
:108F60001B685B8D1844BDE80840FFF7D3BD1A8924
:108F7000188992B2052A0DD8012380B200EB800037
:108F800040001A46022180B2FFF7FFFEFF220121B6
:108F90000948E8E7012305381A46022180B2FFF7A5
:108FA000F4FEFF2201210548DDE700BFD034002098
:108FB00000200020FC1F0020010F0108750F010890
:108FC00008B50D4A538B9BB25BB90C4A012110685E
:108FD000FF220B4B1B685B8D1844BDE80840FFF770
:108FE00099BD0123508B02211A4680B2FFF7CDFEB6
:108FF000FF2201210348F0E7D034002000200020A8
:10900000FC1F0020750F010808B5114BB3F84A206A
:1090100092B25AB90F4A01211068FF220E4B1B6809
:109020005B8D1844BDE80840FFF774BDB3F84A20D3
:1090300092B2052A0BD0B3F84A00012302211A4646
:1090400080B2FFF7A2FEFF2201210448EAE708BD33
:10905000D034002000200020FC1F0020010F010858
:1090600008B50D4A938E9BB25BB90C4A012110687A
:10907000FF220B4B1B685B8D1844BDE80840FFF7CF
:1090800049BD0123908E03211A4680B2FFF77DFE71
:10909000FF2201210348F0E7D03400200020002007
:1090A000FC1F0020030F010870B5164D2B8D9BB2DD
:1090B000E3B101230A24288D1A4680B21946B0FB79
:1090C000F4F0FFF762FEFF2201210F48FFF722FDB7
:1090D000288D80B2B0FBF4F304FB1300BDE87040B0
:1090E000012380B21A461946FFF74FBE074B084AC4
:1090F0001B6810685B8DFF22BDE870400121184499
:10910000FFF708BDD0340020FF0E0108FC1F00202F
:1091100000200020034B588D012380B21A461946C7
:10912000FFF733BED0340020034B988D012380B26B
:109130001A461946FFF729BED03400200221FFF756
:109140009BBCC0F11100C0B2FFF7F8BF044BB3F8ED
:10915000500080B2003818BF0120FFF7F2BF00BFF7
:10916000D0340020034B988B80B2003818BF012008
:10917000FFF7E7BFD0340020034BD88E80B2003811
:1091800018BF0120FFF7DDBFD0340020034B988AC1
:1091900080B2003818BF0120FFF7D3BFD0340020C1
:1091A000034BD88B80B2003818BF0120FFF7C9BF2E
:1091B000D0340020034B188C80B2003818BF012037
:1091C000FFF7BFBFD0340020044BB3F84C0080B28F
:1091D000003818BF0120FFF7B4BF00BFD034002013
:1091E000F8B51D4B05460E201C78FFF7A7FF1F237F
:1091F000B5FBF3F0194BC0F10A0010F0F80F196835
:10920000C5B2C0F3C4060BD0F32C8CBF01230D23D1
:10921000204600272344DBB2421CD2B2934218D12D
:10922000FF2205F00705AA406025F32C8CBF01231F
:109230000D2375432344DBB262F0FF02601CC0B211
:10924000834200D1F8BD2C440E5D16400E550446F5
:10925000F4E70F541046DFE7B42D0020842B0020E4
:1092600010B4064B064C5B8C014606489BB2002BA3
:1092700018BF2046FF2210BCFFF74CBCD0340020A2
:10928000050F0108360F01080128014610B40AD065
:10929000022814D10B4B10BC588C80B2B0FA80F06D
:1092A0004009FFF74BBF074B074C5B8C07489BB24D
:1092B000002B18BF2046FF2210BCFFF72BBC10BCB0
:1092C000FFF7CEBFD0340020070F0108FD0E0108C4
:1092D0000120FFF7D9BF0000014B1868704700BF9D
:1092E000884600207047000010B5224B98689B68A4
:1092F00080F4807083F48063C3F38023C0F3002084
:1093000050EA43001FBF1C4B1A681C4B1A601C4AD2
:109310001378834212D180B1174B1A4A1B68126826
:109320009B1AB3F5C87F20D30122174B90421A70C5
:109330001DD002280CBF0820202010BD38B10343E7
:10934000002013700C4B1A680E4B1A60F5E70E499B
:109350000C7844B9012B02D0022B18BF10231070D7
:1093600008701846EEE70346F9E70020E5E7042019
:10937000E3E700BF00080140884600206832002073
:10938000B12E0020B42E0020B02E0020037B826876
:1093900010B530F813400A44121B826020F81310F5
:1093A000013303F00303037310BD000008B5084B3D
:1093B00008481B68D96B1A6C11445A6C9B6C114499
:1093C000194489B2490089B2FFF7E0FF084608BD99
:1093D00000300020A02E0020024B9868C0F300103F
:1093E000704700BF000C0140BFF34F8F0549064B8B
:1093F000CA6802F4E0621343CB60BFF34F8F00BF33
:10940000FDE700BF00ED00E00400FA054AF6AA22DD
:10941000014B1B681A607047843100204FF0E02038
:109420004FF0805408B506490B68012B05D9C0F8E8
:10943000044DBFF34F8FBFF36F8FFFF7E7FFF3E7E5
:109440005434002008B568B100210B46114A01339D
:1094500032F8020BDBB2102B0144F8D10E4889B26E
:10946000FFF794FF0C4B0D499A680023C2F3CE021C
:1094700031F81300904207D2013331F8130000EBAA
:109480008000400080B208BD0233302BF0D14FF491
:10949000E170F8E734020020B82E002060140108C3
:1094A00038B5044678B1FFF781FFFFF725FA054686
:1094B0002046FFF7C7FF0A23B0FBF3F39BB258190E
:1094C00020EAE07038BD024B9868C0F38F00ECE7EB
:1094D000A02E002008B5094B588C80B218B9BDE801
:1094E0000840FFF7DDBF0020FFF7DAFF052300EBA0
:1094F000C00090FBF3F0203008BD00BFD034002046
:1095000010B547F6FF70FFF7F7F904460020FFF7A4
:1095100099FF0A23B0FBF3F39BB21819013810BD71
:1095200038B5044699B1124B12481D68E96B2B6C93
:10953000194489B2C90089B2FFF728FF696CAB6C86
:109540000D48194489B2C90089B2FFF71FFF094BC2
:10955000094A9B689268C3F38F03C2F38F02934258
:1095600038BF13469B00B3FBF4F080B238BD00BF98
:109570003030002004200020142000202DE9F04786
:10958000FFF72AFF2F4C0146002838D1E08D80B22A
:10959000FFF7C6FF0A23B0FBF3F403FB140080B20D
:1095A0000428A4B284BF0134A4B2092C1FD94FF0FF
:1095B0000A090123B4FBF9F8234E194600221FFAC9
:1095C00088F0B6F90050FFF7E0FB08231F4F09FBB6
:1095D00018403B8001230022194680B23580FFF7F6
:1095E000D4FB00230C3535803B80BDE8F087012398
:1095F0002046BDE8F0471A461946FFF7C6BB638907
:109600009BB2EBB16589E08D002180B2FFF788FF46
:10961000ADB20235EDB2B0FBF5F0A3899BB2984232
:1096200038BFA089A38938BF80B29BB2C01A09286D
:1096300028BF09200430C0B2BDE8F047FFF77EBD67
:109640000F20F9E7D0340020B42D0020B62D0020E3
:1096500070B50F4B0021D88D0A2680B2FFF760FF4E
:10966000B0FBF6F504460123A8B200220221FFF761
:109670008CFBFF2200210748FFF74CFA012306FB71
:109680001540BDE870400022194680B2FFF77DBB4F
:10969000D0340020090F010808B50A4B0146D88DC7
:1096A00080B2FFF73DFF084B1B784BB14043B0FB46
:1096B000F3F0064BC0EB00201B88B0FBF3F008BDB5
:1096C0006420FCE7D03400209C3200205635002076
:1096D00010B50446002C084606DC094BD88D80B234
:1096E000FFF71EFF002010BDFFF7D6FFC4EB0424D8
:1096F000B4FBF0F0FF2828BFFF20C0B2F3E700BFA3
:10970000D034002010B50121FFF7E2FF134B902861
:1097100004461A781BD90AB100221A7014211A784B
:109720000F4B002019800F4B1A700F4B1C70FFF766
:10973000B3FFFF23E82144430C4AB4FBF3F413685E
:109740004B43182101FB04331B0A136010BD6F2823
:10975000E4D8002AE2D10122DFE700BFFA010020AD
:10976000F81F0020612900203C340020D441002053
:109770000122084B1A7040F21B12074B1A80074B4C
:109780001B68DA6240F20D125A6340F682229A6236
:10979000704700BF6229002056350020D8310020D4
:1097A00010B5FFF7ADFE04460020FFF779FE053C3B
:1097B000A4B284422CBF0020012010BD084B1878B1
:1097C00060B1084B1B78022B07D9074B1B7823B9D4
:1097D000064B187880F0010070470020704700BFEA
:1097E0009C320020443500200C020020543500201B
:1097F00001207047044B054A1B681068B3F812310A
:109800001844FFF74DBA00BFFC1F002000200020C5
:109810002DE9F04F85B00390FF20087041F28830A9
:109820004FF0000C46F6605B4FF0010A108057487D
:1098300001930678564B0536F6B20293039B5FFA06
:109840008CF7BB4206D80878FF3818BF012005B056
:10985000BDE8F08F029B53F8040B10F040450293D3
:109860001BD13223C0F389245C4313D05C4511D84B
:10987000C0F30900B4FBF0FEB6450BDCB2F800E023
:10988000744507DD019B0F70148018800E9B1D70BE
:109890000F9B1D700CF1010CD0E7B5F1404FF9D1D1
:1098A00010F0405527D13B4BB3F85040A4B2002CE8
:1098B000F0D044F6206300F07F04C0F3474000EB93
:1098C000800000EB8000800080B29842A8BF18465C
:1098D00004EB840404FB06FE7045A8BF7046B2F892
:1098E00000E07045D6DD019B0F7010801C800E9B40
:1098F00083F800A0CCE7B5F1805FCBD1254BB3F85E
:109900005040A4B2002CC5D00A23C0F34844C0B2D2
:109910007043B0FBF3F004EB840404EB8404A40074
:10992000A4B278B301282DD04FF010094FF40048AD
:10993000002545EA080E0EFB0EF3984224D034BFF2
:1099400025EA08057546B9F101094FEA5808F0D132
:109950004FF47A735C4528BF5C465D43AC4228BF38
:109960002C461088844295D90F701480B4FBF6F40D
:109970004FF00000019B1C800F9B83F800A00E9B02
:10998000187087E70546E3E77546E1E79C3200205B
:109990006C320020D034002037B5064C8DF807100B
:1099A00001220146A56820780DF10703A84703B0FE
:1099B00030BD00BFF02F0020064AD2E93A038342AF
:1099C00003D192F8F0008000704798BF0433181A52
:1099D000704700BFC8320020F8B50B460D4C064654
:1099E000A163216C15460B4206D1FFF7E5FF074640
:1099F00020B141F0020121643046F8BD6B1C84F8AF
:109A0000346002D13E46E563F6E723699847054492
:109A1000F8E700BFC8320020F8B55488034604F0C8
:109A20001F050D2D1E4D04D114F4E04FC4F3023672
:109A300032D0164685F8361085F8353054884321E3
:109A400024F46064548095F82D3028785B0203F488
:109A500060631C4326F8024FC4F30234A400114B88
:109A6000023464F07F02AF681A710522B8473346AA
:109A700022464321AF682878B84704224321AC68C6
:109A8000094B2878A047BDE8F8404FF0FF3240F27C
:109A900003610120FFF7A0BF85F82D60F8BD00BF6E
:109AA000C832002000020020802F010810B50446B3
:109AB000FFF710FD012303211A4680B2FFF765F975
:109AC00024B1BDE810400220FFF7DEBB10BD00004E
:109AD0000023012213B50A488DF807304468114667
:109AE00000780DF10703A04738B19DF80700013851
:109AF000C0B2FD288CBF0020012002B010BD00BF05
:109B0000F02F002010B5064C236823B9FFF7E0FFC3
:109B100008B1012323602068431E5842584110BDFC
:109B20006429002038B5FFF7EDFF0246F0B1124B73
:109B3000124DB3F8443095F831109BB2C1B995F885
:109B4000300090B995F83411192913D00C2911D08F
:109B500013F0FF0409D02B6998476B6CC01A64237B
:109B60006343984294BF0020012038BD0120FCE7E8
:109B70000020FAE71046F8E7D0340020C832002071
:109B800008B5FFF729FC38B9FFF7BCFF10B1FFF7A4
:109B9000C9FF18B9012008BD0020FCE70320FAE73F
:109BA000037F082B01D106F0D1BC704710B50368C4
:109BB00004461A6991070ED5DA6892070BD56FF043
:109BC00002021A61012202779B699B0701D1FFF70C
:109BD000E7FF0023237723681A69500710D5DA6856
:109BE00051070DD56FF004021A61022222779B699A
:109BF00013F4407F02D12046FFF7D2FF00232377E2
:109C000023681A6912070FD5DA6810070CD56FF0B0
:109C100008021A6104222277DB69990702D12046E3
:109C2000FFF7BEFF0023237723681A69D20610D5F9
:109C3000DA68D0060DD56FF010021A61082222777B
:109C4000DB6913F4407F02D12046FFF7A9FF002310
:109C5000237723681A69D1073AD5DA68D20737D54E
:109C60006FF001021A6123681E4A934231D1FF212D
:109C70001D4A1E4C1388013B9BB213802368196454
:109C80001B490B78A3B113889BB28BB119480B7891
:109C90000268DBB2536306F02FFC174B174A1B78A0
:109CA0001178994214D033B1BDE81040FFF760BD80
:109CB00006F04CFCF1E7137040F20D12104B1A80C5
:109CC0002368DA624FF483725A6341F204529A6253
:109CD00010BD0C4A934201BF0B4A13680133136055
:109CE000F6E700BF00080040F81F0020D831002030
:109CF0003C3400202032002061290020622900200D
:109D000056350020002C0140C0410020034B4FF489
:109D100000720021186807F0A1B800BF842B002052
:109D2000F8B5036805460E46002B3AD102600120C3
:109D3000334601211F784C1EA4B2002F33D104EB0F
:109D40004404A400A4B2802C38D92B68D21A1F4B2B
:109D50009B8C9BB2012B0CBF0A231423B2FBF3F2A2
:109D600004F1800312B292FBF3F103FB11227F2A6C
:109D70002ADDA24226DC14B2B5F90430A3420FD08A
:109D8000FFF7C4FF124BC4F180021A800022114B6E
:109D900030461A800121FF22FEF7BCFE0120AC8074
:109DA000F8BD0020C4E7F02F03D80133013189B298
:109DB000C0E75F78002FC2D00233F7E7C4F1800319
:109DC00004EB630424B2D7E78024D5E7D034002025
:109DD000B42D0020B62D0020F0B52C2205460C46EF
:109DE0003D48002185B007F039F83B4A2B1D174646
:109DF0002C35164618685968083303C6AB423246FC
:109E0000F7D11868FF2330608DF80B300023ADF8D0
:109E10000E30ADF80C308DF80A308DF809300DF1A8
:109E2000090301930DF10A0300930DF10E0203AB38
:109E30000B200DF10B01FFF7EBFC09222023A27090
:109E4000E37000283BD09DF80B00BDF80E2057F8BA
:109E50002030BDF80C10A3609DF80930DBB105255A
:109E600019260B1DB3FBF5F3B2FBF6F61B4D03F001
:109E70007F0305EA46252B4301304A4343EA00733A
:109E800043F0A0736360164BB2FBF3F2154B1A60FC
:109E9000012005B0F0BD9DF80A3053B105250B1D1A
:109EA000B3FBF5F31426104DB2FBF6F603F07F0377
:109EB000DFE70E4BC1F3090503EA8123DBE73B68CB
:109EC000A360642323716FF06F0363710123A37197
:109ED0001123E371DCE700BF6C32002000F80F00B3
:109EE000A08601004434002000FE0F0000FC0F009B
:109EF000F0B505462C220C463548002185B006F009
:109F0000ADFF334A2B1D05F11C071646186859682A
:109F1000083303C6BB423246F7D11868FF233060CE
:109F200068888DF80B300023ADF80E30ADF80C309A
:109F30008DF80A308DF809300DF1090301930DF108
:109F40000A0300930DF10E0203AB0DF10B01C0F3F8
:109F50000230FFF75DFC02221023A270E37068B3A9
:109F60009DF80B009DF80A300130BDF80E20BDF8B9
:109F70000C100007DBB1052514260B1DB3FBF5F310
:109F8000B2FBF6F6134D03F07F0305EA46252B439B
:109F900003434A4343F0807343F4800363600E4BF2
:109FA000B2FBF3F20D4B1A60012005B0F0BD0C4B73
:109FB00003EA81230343C1F30900E9E76423237122
:109FC0006FF06F0363710123A3711123E371EBE75A
:109FD0006C32002000FE0F00A086010044340020F7
:109FE00000FC0F0070B50146FFF7E6FC00B3114A14
:109FF00089B1D2F8E83002F1680404EB43140B464F
:10A0000004F12006254603CDB542186059602C4660
:10A0100003F10803F6D1D2F8E83092F8F0100133DA
:10A0200003F00303C2F8E83011B10BB982F8F03045
:10A0300070BD00BFC832002010B5194C88B0216C2B
:10A0400001F07F412164FFF7B7FC28B36846FFF7B2
:10A05000C9FFBDF8023003F01F02012A15D113F425
:10A06000E04F12D194F82D20C3F3422393420CD138
:10A07000226C013303F0070342F0040294F8350028
:10A0800084F82D30226408B010BD236C43F008031F
:10A09000236494F83600F6E741F008012164F8E7FC
:10A0A000C83200202DE9F043AE4E89B006F14805D4
:10A0B00096F834410E2C00F01C8275D8072C00F065
:10A0C000028121D8032C00F074830AD8012C00F0FF
:10A0D000F482022C00F0F982002C00F0CD820320E3
:10A0E00009E0052C00F0B980062C00F0C680042C95
:10A0F0000CBF05200320844286F83401D8D1002CFF
:10A10000D6D109B0BDE8F0830B2C00F062810DD8E8
:10A11000092C00F01C810A2C00F02A81082CDED1C9
:10A120000F210920904AFFF777FCE4E70C2C40F060
:10A13000D8810022336C32645A0600F104819F06F4
:10A1400069D4180600F1C981D90500F1BA80DA0492
:10A1500000F1C5819F047ED498076BD50127FFF7D6
:10A160002BFC002866D02846FFF73CFFB6F84A30A3
:10A1700003F01F020F2A40F0598113F4E04FEED193
:10A18000F18D01F0C0018029E9D1190440F19D81D0
:10A19000B6F84C10C1F30801192940F29681112A32
:10A1A00014BF15201620A6E7172C00F0DE8134D846
:10A1B000132C00F0BB8111D8112C00F0A581122CBA
:10A1C00000F0AB810F2C8AD196F93230022B00F3CC
:10A1D0005182013386F8323010208CE7152C00F0C4
:10A1E000B281162C00F0EB81142C7FF478AF336C25
:10A1F00003F07F433364FFF7DFFB60B12846FFF7CE
:10A20000F1FEB6F84A3003F01F02032A40F09481B1
:10A2100013F4E04F36D00F206DE71B2C00F089823D
:10A220000ED8192C00F01F821A2C00F05A82182C1C
:10A230007FF455AF4FF0FF3243F6FF710C2019E069
:10A240001C2C00F08B821D2C7FF449AFFFF7B4FB70
:10A25000002840F097821C204DE7002386F830301C
:10A2600086F8353133643369984742F2107270646E
:10A2700023210620FFF7B0FB3DE70022336C326458
:10A28000990601D5052036E7FFF796FB0028F9D09F
:10A290002846FFF7A7FEB6F84A2002F01F03012B5D
:10A2A000F2D112F4E04FEFD0F38D13F0C00F08D1CC
:10A2B00002F0C0027F2A8CBF43F0800343F04003CA
:10A2C000F385072017E7FF2386F833300023B6F81D
:10A2D0004A202649C2F3023293420CD051F8040BB3
:10A2E000013300F04047B7F1404FF5D110F0405F27
:10A2F000F2D186F83330F36C1B49C3F3C062C3F369
:10A30000C05386F8713186F82C20B369A1F1CC00D6
:10A310009847002800F0D780F38DB6F816211A432D
:10A3200003F0C003802BA6F816210CD1D6F8183103
:10A33000002B4FEA137208DB96F833309A4204D3AD
:10A34000012386F835310820D5E60023F9E7336C80
:10A3500003F07F43336440F68C2240F603010A2069
:10A3600088E700BFC8320020DC330020143300200F
:10A37000336C03F07F433364FFF71EFB0028EAD001
:10A380002846FFF72FFEB6F84A3003F01F02032AD3
:10A3900013D1B6F81631C3F30233022B0CBF0123DD
:10A3A000002386F8723103D133699847C6F83C011F
:10A3B00041F2883203210B205CE70D2A6ED003F0B6
:10A3C0001703042BD8D196F83030002B7FF432AF2E
:10A3D00058E7336C03F07F433364FFF7EDFA08B9B5
:10A3E000122088E62846FFF7FDFDB6F84A3003F054
:10A3F0001F03062B17D1002386F8313096F87131F0
:10A4000063B196F870314BB196F8723133B90123CC
:10A4100086F83130336C43F480533364012386F87B
:10A4200030300C2067E6012BD7D14AE7052A04D14A
:10A4300013F4E04F3FF493AEA2E6092A04D113F4DB
:10A44000E04F7FF49DAE06E0072AF8D00A2A04D137
:10A4500013F4E04F24D115204DE60B2AEFD0022A49
:10A46000F9D0042A06D0012A09D113F4E04F3FF4B1
:10A4700087AE26E713F4E04F3FF482AEEBE7082AFD
:10A4800005D113F4E04F7FF47BAE0E2033E60D2AA6
:10A490007FF476AE13F4E04F7FF472AE11202AE61B
:10A4A00096F84A30032B02D186F8727157E6042BD6
:10A4B00003D1002386F87231B3E7052B7FF44FAE4A
:10A4C000002386F87231062015E6102A88D113F48D
:10A4D000E04F14BF122018200DE60D200BE61B20C4
:10A4E00009E6F38D43F00703A6F84A302A460F2108
:10A4F00034E0F18D284601F0C0017F2994BF00218E
:10A50000012173699847F1E7F38D6A4643F00D0323
:10A510000F210520ADF8023005E6F38D2A4643F001
:10A520000D030F211320A6F84A30FCE540F68C22DB
:10A5300040F6030114209DE60D2A7FF46CAE13F45F
:10A54000E04FABD067E6F38D03F0C002402A07D19D
:10A5500043F00403A6F84A302A4612210C20E2E513
:10A56000802AF9D143F01003F4E70022336C3264FF
:10A570009F0705D44FF0FF3243F6FF71172079E6AD
:10A58000FFF71AFA0028F5D02846FFF72BFDF38DC8
:10A5900003F0C003802BF3D1B6F94A20B6F84A3055
:10A5A000002AEDDAB6F84C20C2F30802192AE7D9DE
:10A5B00003F01F03112B0CBF162015209BE5B6F8E6
:10A5C0004C707805D6D44FF01A09C7F3C32709FB9E
:10A5D00007F9B6F84A20CFBB774B03F1F60203F137
:10A5E000180E9446186859680833ACE803007345A0
:10A5F0006246F6D11868CCF800009B88ACF80430AD
:10A60000B6F84A80C8F3023309EB8309B6F8423141
:10A61000A9F10209C3F30803994522DA1A2200219D
:10A62000664806F01BFCF38D08F01F08013748EA66
:10A630000308FF0248F4104847F404472A460F2154
:10A640001720A6F84A80A6F84C706CE5C2F30232D7
:10A6500009F5A27092005949023A304406F016FCFE
:10A66000CEE71A2047E500234FF4FA6086F8303031
:10A67000336A984719203EE533699847F36B98424F
:10A6800082BF336C43F400633364306C01050AD538
:10A6900096F8343000F07F40113B032B306494BFB8
:10A6A0000320122027E5C2073FF596ADB36B184093
:10A6B0003FF421AD96F834001DE50022336C32647E
:10A6C0009B0509D5FFF778F910B1FFF7B5FC12E546
:10A6D000022178220846CDE5082396F83600336437
:10A6E00009E5336998473649C6F83C01F36901F139
:10A6F0002C00984700283FF4E6AED6F818311B0F1F
:10A7000006EB8303D3F8403103F04042B2F1404FEF
:10A710000DD113F0405F0CBF01230023F28D86F8AA
:10A720003531B6F816311343A6F816310BE600237F
:10A73000F4E733699847F38DC6F83C0143F480533E
:10A7400043F00A03A6F84A3096F870311B0443F030
:10A750008073F364CAE60020FFF744FCFFF72CF98E
:10A760000028F8D1012386F83130F38D2A4643F4CE
:10A77000104343F01003A6F84A30124B0C211D2061
:10A78000F364D0E42846FFF72DFCB6F84A3003F016
:10A790001F03102B7FF45AAD96F84E30042B7FF434
:10A7A00055AD002386F8313033699847C6F83C012F
:10A7B00037E604209FE400BF123300201633002048
:10A7C000DC330020028003002DE9F0472F4E742275
:10A7D00030462F4906F04AFB002854D0FEF716FEFB
:10A7E00035232C4D2C4CEB6006F0DEF90120FDF7F3
:10A7F000CFFDFEF70BFE237E012B16D0012323761F
:10A8000005F030FE78B9E0612B6943F002032B615B
:10A810006E612B6943F040032B6105F023FE2B6929
:10A8200023F002032B610023237606F0BDF94FF0DD
:10A830000109174F154D174EDFF86080FEF7E6FD52
:10A84000237E012B15D0B7F800A084F8189005F0EE
:10A8500009FE60B9E061336943F001033361A5F893
:10A8600000A005F0FFFD336923F0010333610023ED
:10A8700023760235454507F10207DFD1054A136902
:10A8800043F080031361BDE8F08700BF00FC0108BE
:10A89000D034002000200240A832002074FC0108BF
:10A8A000F8B545F2AA54234B1A8892B2A2423AD084
:10A8B00018467422FF2106F0D1FA048003460124D1
:10A8C0001A6F01321CBF4FF0FF321A675A8818BF47
:10A8D000012492B2342A08D84FF6FF715A8892B2F6
:10A8E000342A22DD352201245A800022124903EB4A
:10A8F0004206B5880F88ADB2AF424FEA420004D895
:10A90000B5884E88ADB2AE4203D2CC88184484805C
:10A9100001240132352A01F10801E8D10CB1FFF719
:10A9200053FF2046F8BD0024CAE703EB42008180B4
:10A930000132D5E7D034002052000020014B1868C6
:10A9400005F0C2BF042E0020014B186805F0BCBF03
:10A95000B82D0020014B186805F0B6BF542E00201A
:10A9600010B505F073FF044628B10023836003602F
:10A97000C36005F0A9FF204610BD00000E4B1A6809
:10A9800042F001021A6059680C4A0A405A601A687B
:10A9900022F0847222F480321A601A6822F4802233
:10A9A0001A605A6822F4FE025A604FF41F029A603D
:10A9B000034B044A9A607047001002400000FFF801
:10A9C00000ED00E0008000080148FDF7F7BB00BF84
:10A9D000603000200148FFF7E9B800BF9031002047
:10A9E000044B05491868054A884214BF10461846AA
:10A9F000FFF7DCB82032002000040040D8310020EE
:10AA0000044B054A1868B0F1804F14BF1046184631
:10AA1000FFF7CCB820320020D8310020044B054984
:10AA20001868054A884214BF10461846FFF7BEB89A
:10AA30002032002000080040D83100200148FDF7F6
:10AA4000BDBB00BFE83000200148FDF7B7BB00BF29
:10AA5000A430002000000000000000000000000002
:10AA6000074B19680868B0E8F00F80F30988BFF356
:10AA70006F8F4FF0000080F311884EF00D0E70477D
:10AA8000483400200000000000000000000000002A
:10AA9000EFF30980BFF36F8F0D4B1A6820E9F00FB9
:10AAA00010602DE908404FF0500080F3118800F04D
:10AAB00093FA4FF0000080F31188BDE80840196850
:10AAC0000868B0E8F00F80F30988BFF36F8F704714
:10AAD000483400204FF0500383F31188BFF36F8F89
:10AAE000BFF34F8FFEE70000054A08B513680BB9A6
:10AAF000FFF7F0FF013B13600BB983F3118808BD2A
:10AB00001002002008B5EFF305830F2B07D90E4A7A
:10AB10009B5C0E4A12789A4201D9FFF7DBFF4FF097
:10AB2000E0230B4AD3F80C3D126803F4E063934230
:10AB300008D94FF0500383F31188BFF36F8FBFF331
:10AB40004F8FFEE708BD00BFF0E300E0B8410020F2
:10AB5000BC41002008B54FF0500383F31188BFF3C8
:10AB60006F8FBFF34F8F074A13680133012B1360B8
:10AB700007D14FF0E023D3F8043DDBB20BB1FFF770
:10AB8000A9FF08BD10020020002337B50268019319
:10AB90009368DB0702D5002003B030BD93681249EB
:10ABA00043F001039360114B1B68B3FBF1F3019376
:10ABB000019BABB90E4C2568936813F00103EAD1F1
:10ABC0002168491B0229F7D9826A80F8243042F0B3
:10ABD00010028262C26A42F00102C2620120DBE717
:10ABE000019B013BE3E700BF40420F004C00002007
:10ABF000C0410020036810B59A68D10701D4002035
:10AC000010BD9A680A4922F001029A600C689A689D
:10AC1000D207F4D50A68121B022AF8D9836A43F0D6
:10AC200010038362C36A43F00103C3620120E7E7B4
:10AC3000C0410020002337B5019390F8243004462A
:10AC4000012B5FD0012380F82430FFF7D3FF0546A6
:10AC5000002839D1A36A2C4823F4885323F0020337
:10AC600043F00203A362294B1A68294B59685B68B9
:10AC7000C1F3C221415CC3F38133013322FA01F1F4
:10AC80005B00B1FBF3F3B2FBF3F252000192019BC4
:10AC9000F3B92046FFF778FF23689A6842F008026C
:10ACA0009A601C4A10689968090715D4996841F0A0
:10ACB000040199601068996849071ED4A36A23F0BB
:10ACC000030343F00103A362002384F8243011E05E
:10ACD000019B013B0193DAE71168091A0A29E2D9BD
:10ACE000A36A012523F0120343F01003A36200239B
:10ACF00084F82430284603B030BD1168091A0A29A7
:10AD0000D9D9EDE70225F5E7671001084C000020CE
:10AD100000100240C04100201A4A036890420AD045
:10AD2000B0F1804F07D0A2F59432904203D002F5E3
:10AD30008062904215D14A6823F070031343114A90
:10AD400090420AD0B0F1804F07D0A2F594329042E1
:10AD500003D002F58062904203D1CA6823F44073A5
:10AD600013434A6923F08003134303608B68C36273
:10AD70000B688362034B984204BF0B690363012392
:10AD800043617047002C01402DE9F74F0022164621
:10AD9000684F694BDFF8A4C1DFF8A4E14FF0010868
:10ADA0000D6808FA06F808EA050438EA050540F0D7
:10ADB0008A804D68032D00F0B38014D8012D00F077
:10ADC000A480022D00F0A680A5B98A68002A00F0B0
:10ADD000A980012A08BFC0F810804FF0080218BFF0
:10ADE000C0F8148006E0122D00F0978072D8112D63
:10ADF00000F08D80FF2C98BF82464FF00F0988BF6E
:10AE000000F1040A4FEA8605DAF8008088BF203D89
:10AE100009FA05FB28EA0B0802FA05F548EA0505D8
:10AE2000CAF80050D1F804A01AF0805F4BD0BD6979
:10AE300026F0030845F00105BD61BD6908F18048B1
:10AE400005F00105019508F5803806F0030B019D1A
:10AE50004FEA8B0BD8F8085009FA0BF925EA0909D3
:10AE6000384DA84260D005F58065A8425ED005F552
:10AE70008065A8425CD005F58065A8420CBF03251B
:10AE8000042505FA0BF545EA0905C8F808501D68C0
:10AE90001AF4803F14BF2543A5431D605D681AF472
:10AEA000003F14BF2543A5435D609D681AF4801FD1
:10AEB00014BF2543A5439D60DD681AF4001F14BF2D
:10AEC0002543A543DD600136102E7FF467AF03B044
:10AED000BDE8F08FDFF870904D453FF476AF0FD8A6
:10AEE000A9F580194D453FF470AF09F570294D451E
:10AEF0003FF46BAFA9F580194D453FF466AF79E794
:10AF000065453FF462AF7545F7E7CA6872E7CA68FE
:10AF100004326FE7CA6808326CE7CA680C3269E726
:10AF2000002267E7042265E70025AAE70125A8E7D4
:10AF30000225A6E700100240000401400000311085
:10AF4000000032100008014000002210024A13687D
:10AF500001331360704700BFC8410020F8B50F4DA2
:10AF60000F4EFFF7F7FD2C680768336842689F4271
:10AF700007D0A24205D8002301200B60FFF7B4FDE3
:10AF8000F8BD0B68A71ABB42F5D91B1B13440B6015
:10AF9000336803602B6843600020EFE78846002099
:10AFA00068460020054B1B6833B1054B1868B0FAA2
:10AFB00080F040094000704701207047844600201F
:10AFC000C84100204FF0500383F31188BFF36F8F07
:10AFD000BFF34F8FFEE7000038B51F4B1A681F4BB9
:10AFE00012B101221A6038BD1D481A6003681B6B3C
:10AFF0001A68B2F1A53F0BD15A68B2F1A53F07D14B
:10B000009A68B2F1A53F03D1DB68B3F1A53F03D045
:10B0100003680368FEF7E8F9124B1A68B2FA82F285
:10B020001423D2B2C2F11F0253430F49CD58CC189A
:10B030000DB9FFF7C7FF656808336D680B4465609D
:10B040009D4204BF6B686360142303FB02114B68CD
:10B05000DB680360C7E700BFC84100208C460020C2
:10B0600048340020D04100205434002043689A68BE
:10B070004B608A609A685160996003680861013387
:10B08000036070472DE9F3410646DDE908040F46E9
:10B09000984640B94FF0500383F31188BFF36F8F88
:10B0A000BFF34F8FFEE70CB9FFF714FD6423019344
:10B0B000019B642B08D04FF0500383F31188BFF33A
:10B0C0006F8FBFF34F8FFEE795002A46A5212063BF
:10B0D000019B05F0C3FE226B043D2A4422F00702C7
:10B0E000002F00F096807B1E04F134011F3713F807
:10B0F000010F01F8010B08B1BB42F8D1002384F81D
:10B1000053304346052B28BF0523E3626365C3F133
:10B1100006030021A3614FF08073A1656161A16204
:10B1200024616462E16584F8601042F8043C404B9D
:10B1300026F0010642F8086C42F80C3C42F8201C4C
:10B14000403A2260FFF706FD3A4A3B4D13683B4EFA
:10B15000013313602B68002B5ED12C601268012A2A
:10B160002ED132464FF0FF3C14201F4602F1080159
:10B17000C2E9011CC2E9031100FB03F10133062BF4
:10B18000775002F11402F1D12D4A02F10803C2E90D
:10B19000013CC2E903332B4B176003F10801C3E9FB
:10B1A000011CC3E9031128491F6001F108000F6069
:10B1B000C1E9010CC1E9030024490A60244A136073
:10B1C000244A254913680868013313600123E26AA1
:10B1D0009340034314200B6000FB0260211DFFF726
:10B1E00045FFFFF781FC1D4B1B6873B12B68DA6AC2
:10B1F000E36A9A4209D24FF0E0234FF08052C3F83D
:10B20000042DBFF34F8FBFF36F8F204602B0BDE810
:10B21000F08184F8347074E7104B1A68E36A002AEE
:10B22000CED12A68D26A9A4298BF2C60C8E700BF84
:10B230009B810008C4410020483400205434002081
:10B24000D8410020EC410020704600204C34002002
:10B2500050340020CC410020D04100208446002002
:10B2600037B50446D0E90010A569B4F90830226961
:10B2700001956469842B0CBF002303330094FFF70E
:10B2800001FF03B030BD0369D0E901128A6051604B
:10B290005968814208BF5A60002202611A68013A67
:10B2A0001A601868704700002DE9F041564C236879
:10B2B0005A68910623D51A68920720D5A26AD70644
:10B2C0005EBFA26A42F40072A2629A6802F460222F
:10B2D000B2F5602F10D1E26872B95A6822F02002EC
:10B2E0005A60A26A22F48072A262A26AD6045EBF89
:10B2F000A26A42F00102A2626FF012021A605A685A
:10B3000015067AD51A68500777D5A26AD1065EBFAE
:10B31000A26A42F40052A2629A6802F4E042B2F5D4
:10B32000E04F0AD05A68520516D49A6802F4602297
:10B33000B2F5602F10D1E26872B95A6822F080022B
:10B340005A60A36A23F48053A362A36ADB055EBF3D
:10B35000A36A43F00103A3622C4B1D68002D48D063
:10B36000FFF7D0FBEFF311874FF0500383F3118801
:10B37000BFF36F8FBFF34F8F022395F8602085F8DE
:10B380006030EB6D012A03F10103D6B2EB6502D008
:10B3900087F311882DE0AB6A0BB1FFF79BFB1C4BC9
:10B3A0001B6863BB05F104084046FFF76CFF194AB0
:10B3B0001420EB6A11689E400E4341461660164AFF
:10B3C00000FB0320FFF752FE144BEA6A1B68DB6A9E
:10B3D0009A42DDD90122124B1A6087F311884FF08F
:10B3E000E0234FF08052C3F8042DBFF34F8FBFF31B
:10B3F0006F8F6FF00C0223681A60BDE8F081094876
:10B4000005F11801DEE700BF0030002040340020C5
:10B41000C8410020D041002054340020483400208E
:10B420008C46002070460020F8B52F4B5A69120652
:10B4300054D580225A612D4B1C68002C4ED0FFF74A
:10B4400061FBEFF311864FF0500383F31188BFF3D4
:10B450006F8FBFF34F8F022394F8602084F8603021
:10B46000E36D012A43F00103D5B2E36502D086F310
:10B47000118833E0A36A43B14FF0500383F311887E
:10B48000BFF36F8FBFF34F8FFEE7194B1B6833BBC2
:10B49000271D3846FFF7F7FE164A1420E36A1168A5
:10B4A0009D400D4339461560134A00FB0320FFF70A
:10B4B000DDFD124BE26A1B68DB6A9A42D7D9012292
:10B4C0000F4B1A6086F311884FF0E0234FF0805243
:10B4D000C3F8042DBFF34F8FBFF36F8FF8BD09483A
:10B4E00004F11801E3E700BF00040140F41F00204D
:10B4F000C8410020D04100205434002048340020AE
:10B500008C46002070460020394B2DE9F74F1B6810
:10B51000002B67D1374B1D6801351D6085B9364B4F
:10B520001A6812680AB1FFF74DFD344A19681068AD
:10B5300018601160324A136801331360FCF742FF50
:10B54000304E00243368DFF8C080AB4212D9142299
:10B55000D8F80030DB6A53432C4AD358022B2C4BCB
:10B5600028BF01241B68002B18BF0124204603B00C
:10B57000BDE8F08FDFF880A0DFF89890DAF80030AF
:10B580001B681BB94FF0FF333360E0E7DAF8003097
:10B59000DB68DF687A68954201D23260D7E707F14D
:10B5A000040B5846FFF76FFEBA6A1AB107F118008C
:10B5B000FFF769FE0122FB6AD9F800009A400243B6
:10B5C0001420C9F80020114A594600FB03200193BA
:10B5D000FFF74CFDD8F80020019BD26A934228BFA8
:10B5E0000124CBE70C4A0024136801331360BDE744
:10B5F000C8410020884600204C34002050340020F0
:10B60000684600206446002048340020543400205E
:10B610008C460020D04100206C46002008B5FFF782
:10B62000C1FC012813D04FF0500383F31188BFF3FE
:10B630006F8FBFF34F8FFFF767FF28B14FF0E02305
:10B640004FF08052C3F8042D002383F3118808BD06
:10B6500032492DE9F0470B6843B94FF0500383F3AB
:10B660001188BFF36F8FBFF34F8FFEE7FFF772FABA
:10B670000B68013B0B600C6824B10020FFF734FA23
:10B68000BDE8F087264B1B68002BF6D0254E264FD1
:10B69000DFF8989020E0F3684FF00108DC6804F1CF
:10B6A000040A04F11800FFF7EEFD5046FFF7EBFD2A
:10B6B0001420E56A3A6808FA05F31343514600FB83
:10B6C00005903B60FFF7D2FC194B1B68DB6A9D427B
:10B6D00002D3184BC3F800803368002BDBD10CB1C8
:10B6E000FCF770FE144D2C6844B10127114EFFF792
:10B6F0000BFF00B13760013CF9D12C600D4B1B688A
:10B70000002BBAD04FF0E0234FF08052C3F8042D45
:10B71000BFF34F8FBFF36F8F0120AFE7C841002009
:10B72000C441002070460020D04100205434002045
:10B73000483400208C4600206C460020C36870B559
:10B74000DC680CB9FFF7C6F904F118063046FFF7BC
:10B750009AFD114BE56A1B68D3B904342046FFF704
:10B7600092FD01230D4A14201168AB400B43214682
:10B7700013600B4B00FB0530FFF778FC094B1B688F
:10B78000DB6AAB423BBF0120074B0020186070BD55
:10B7900031460648F0E700BFC8410020D0410020F4
:10B7A00054340020483400208C460020704600208D
:10B7B000202210B5234B83F83D20234B1868002826
:10B7C00035D0036C43B14FF0500383F31188BFF3BE
:10B7D0006F8FBFF34F8FFEE7036853B9836843B1A0
:10B7E0004FF0500383F31188BFF36F8FBFF34F8F78
:10B7F000FEE7FFF787F9EFF311844FF0500383F36F
:10B800001188BFF36F8FBFF34F8F826BC36B9A4268
:10B810000BD290F845100132FF294BB2826307D159
:10B82000436A13B12430FFF789FF84F3118810BDF8
:10B830007F2B01D1FFF74EF901335BB280F8453021
:10B84000F3E700BF30310020542E0020F0B4944BB9
:10B850008AB01A6895695469506893F83E101029A7
:10B86000CEB202D0402E40F04C8114F0011F67D0C0
:10B87000860565D593F83E10402944D1196D19B954
:10B88000596C01F0FE0103E0596C41F00101C9B2AD
:10B8900011618449844A29402240002900F09281A4
:10B8A00082492140002900F05881440540F155812A
:10B8B000002A40F0548193F83D201C8D93F83E10EF
:10B8C000D2B2D86AC9B2002C40F0FC80212A40F0E4
:10B8D000FB8004281A6800F06381082800F060816A
:10B8E00010F5803F00F05C81516821F4E061516007
:10B8F00011221A6383F83E40202283F83D200AB0CB
:10B90000F0BCFFF755BF1969B1F5804F05D193F829
:10B910003D102129596CB8D1B3E7196D31B9596C73
:10B92000C91101F0060141F0F001B1E7196D0129DB
:10B93000AFD1596CC91101F0060141F0F101A7E73F
:10B940005B4921400029A4D08105A2D593F83E107F
:10B95000DE6AD3F830C093F83D70C9B2222F40F0B0
:10B96000A9801F6D47B9402906D1099751690991EE
:10B9700092690992099A8CE7598D89B251B9089157
:10B9800051690891916908910899116841F4007111
:10B99000116019E0598D89B2012944D116F5803F13
:10B9A0001CD1116821F480611160516811F40061AB
:10B9B0000DD0116821F48061116000210791516957
:10B9C000079192690792079A00221A6561E706912A
:10B9D00051690691916906910699D6E7042E16D011
:10B9E000082E14D0BCF1120F11D0D96A02291168A7
:10B9F00014BF21F4806141F480611160002205923E
:10BA00001A685169059192690592059ADCE71168F7
:10BA100021F48061116000210491516904919169C0
:10BA200004910499B1E7598D89B2022924D1D96AC8
:10BA300000260229116815D041F4006111600396B7
:10BA400051690391916903910399116821F480610F
:10BA500011601A6851680F05B6D5516841F48051DC
:10BA60005160B1E741F48061116002965169029121
:10BA700092690292029AECE7116841F480611160C8
:10BA800051680E0542BF516841F480515160002158
:10BA900001915169019192690192019A94E700BF65
:10BAA000303100200400100004000100800001007B
:10BAB00002000100002100915169009192690092F9
:10BAC000009AE6E6212A03D040291AD1222A18D169
:10BAD0005A8D92B22AB91A68536823F4806353606E
:10BAE0000FE093F83E20402A2CD11A6D92B9DA6CFF
:10BAF0001968012A9A6C07D1D2B20A611A6D023212
:10BB00001A650AB0F0BC7047C2F307220A611A6DC9
:10BB10000132F5E71A6D012A03D19A6C1968D2B285
:10BB2000F4E71A6D022AECD193F83D20222A05D1C0
:10BB30001A68136843F480731360E2E793F83D20BA
:10BB4000212ADED15A6A511C5962127819680A6199
:10BB50005A8D013A92B25A85D3E7002AD1D0800596
:10BB6000CFD5D86A93F83D20212ACAD1598D1A68B9
:10BB700089B229B1596A481C586209781161E7E70E
:10BB800004280DD008280BD010F5803F08D050684D
:10BB900020F4E060506011221A6383F83E10ABE697
:10BBA000516821F4E0615160116841F40071116045
:10BBB000002220211A6383F83D1093F83E1083F889
:10BBC0003E209CE645492140002940D041053ED514
:10BBD000002A3FD193F83D20222A92D1598D1A682C
:10BBE00089B2032905D911695A6A501C586211702B
:10BBF000AEE702390129D96A0DD8022911681DBFA3
:10BC000021F480611160116841F4806118BF41F432
:10BC1000006111605FE70229116814BF21F480619F
:10BC200041F4806111601A68516821F4E06151604B
:10BC300011695A6A501C586211705A8D013A92B2B9
:10BC40005A85202283F83D2000221A63B5E7002A96
:10BC50003FF457AF82057FF554AFD96A588D1A6803
:10BC600080B203280CD1042904D0082902D011F590
:10BC7000803F03D1116821F4806111601A68B2E736
:10BC8000588D80B20228AED104291DD008291BD0BE
:10BC900011F5803F18D00229116814BF21F480618A
:10BCA00041F48061116019684A6822F440724A6068
:10BCB0001A6811695A6A501C586211705A8D013AFB
:10BCC00092B25A851A68B3E7516821F44071516005
:10BCD000116841F400711160EAE700BF4000010003
:10BCE000F8B5744C7448236859695A6801420CD0FD
:10BCF000D5050AD5206C40F0010020646FF48070F7
:10BD00005861186840F40040186011F4813F08D071
:10BD1000D00506D5206C40F0020020646FF400705E
:10BD2000586111F4823F23D0D70521D594F83E7095
:10BD3000658D94F83D00202F266BADB2C0B208D1BE
:10BD40003DB900F0F705212D12D0282801D1212E70
:10BD50000ED0206C40F00400206494F83E001028BF
:10BD600002BF186840F4007018606FF4806058617A
:10BD700011F4843F08D0D60506D5226C42F00802A3
:10BD800022646FF400625A61236C002B50D094F847
:10BD90003D202368293A012A27D80022226328223D
:10BDA00084F83D201A6822F400621A605A6812F47E
:10BDB00000625ED05A6822F400625A60606B3F4BAA
:10BDC00090F82120012A34D0022A43631CD0042396
:10BDD00083632268136823F0010313602023606BE0
:10BDE00084F83D30436B984712E094F83D20602A78
:10BDF00005D05A6815055CBF202284F83D2000223A
:10BE0000226384F83E20CDE7FCF764FA0028E0D1F5
:10BE100094F83D30282B0BD1236C5B0708D5284BB9
:10BE20002022E3620023236384F83D2084F83E301F
:10BE3000F8BDA06B436390F82130022B14D004238B
:10BE4000836323685A69500604D51A69636A591CCA
:10BE500061621A702268136823F0010313602023C3
:10BE6000A06B84F83D30BDE7FCF734FA0028CFD052
:10BE7000E7E794F83D10602913D1202184F83D10A4
:10BE800022645A69510604D51A69636A591C6162B1
:10BE90001A702268136823F001031360FFF788FC0F
:10BEA000B6E75A695206F9D51A69636A591C616284
:10BEB0001A70F3E73031002000010100C5BE000810
:10BEC0000000FFFF436A1A68116821F48061116065
:10BED0000021586B59854163986B416393F83D008D
:10BEE00060284FF0200083F83D0083F83E1008BF23
:10BEF0001964136823F001031360FFF759BC0000B5
:10BF000070B5154B154D06461C6828680430FFF7C0
:10BF1000BAF940B92A681249D06A01220B688240F6
:10BF200023EA02030B602B68A4195C6007D30D4B56
:10BF300018682968BDE870400431FCF755BA0A4B0F
:10BF4000186829680431FCF74FFA084B1A689442C4
:10BF500038BF1C6070BD00BF8846002048340020F8
:10BF6000D0410020503400204C3400206446002092
:10BF700008B550B94FF0E0234FF08052C3F8042DBC
:10BF8000BFF34F8FBFF36F8F08BD074B1B680BB11B
:10BF9000FEF7A0FDFEF7DAFFFFF7B2FFFFF758FB51
:10BFA0000028E7D0F0E700BFC84100203220FFF7AB
:10BFB000DFBF10B5FDF798F904463CB9FDF794F9D9
:10BFC0000446FFF7F3FF002CF8D010BDFDF78CF905
:10BFD0000446FFF7EBFFF0E770B50D4E35680544FA
:10BFE000FDF782F9044654B9FDF77EF90446FFF7E0
:10BFF000DDFF33689D420AD3002CF5D007E0FDF742
:10C0000073F90446FFF7D2FF33689D42EBD270BD4F
:10C0100088460020074AB2F84A309BB2052B01D16E
:10C02000FFF7C7BF4FF47A70B2F84A309BB258435B
:10C03000FFF7D2BFD0340020012838BF0120FFF71E
:10C0400097BF000010B50C46044B19681831FCF777
:10C05000CBF92046BDE81040FFF752BF483400201E
:10C060002DE99F48FDF7AAFB002800F09580FDF719
:10C0700049FD002800F09C8001210C20FDF78CFC7C
:10C08000002800F095809A4D0A20EB689847062416
:10C09000FDF71EFD002800F083800F210B20FDF727
:10C0A0007BFC002800F0848000210A20FDF774FC4E
:10C0B00000287DD000210E20FDF76EFC002877D0EF
:10C0C00000210F20FDF768FC002871D00C2106200C
:10C0D000FDF762FC00286BD007210920FDF75CFC0E
:10C0E000002865D000210820FDF756FC00285FD00D
:10C0F00004210720FDF750FC002859D00721022019
:10C10000FDF74AFC002853D00A20EB6898474021ED
:10C110007748FCF749FB0B2104460220FDF73CFC65
:10C12000002845D00A20EB68984740217048FCF76A
:10C130003BFB04F0030400F00300844240F29980CA
:10C1400025210320FDF728FC90B307210220FDF7ED
:10C1500023FC68B344210620FDF71EFC40B30421F4
:10C160000720FDF719FC18B302210C20FDF714FC81
:10C17000F0B10123802003245E498DE81B0069464D
:10C180005D48FEF701FE0A21172004F03FF94FF445
:10C1900000025A4B1A600BE00320FFF7E9FE61E74B
:10C1A0000A20EB68013C984714F0FF047FF470AF5D
:10C1B000FDF778FFDFF84081514DD8F80830514C39
:10C1C00013F0800F5DD1D8F808301B062BD46B46D6
:10C1D00007223C2166682078B04720B39DF80330E1
:10C1E000DF070BD5474E06F1F60A06F1F8094121A3
:10C1F0003046FCF7D9FA800640F186809DF802307F
:10C200005E0700F1DC80D90642BF226C42F48062F6
:10C2100022641A0607D59DF805309B0742BF236CA0
:10C2200043F02003236494F835317BB123699847A8
:10C23000D4F83831C01AB0F57A7F07D9236C43F0AF
:10C240004003236423699847C4F8380194F8723195
:10C2500053B123699847D4F83C31C01AC82882BF2B
:10C26000236C43F400532364FDF71CFFFDF75AFCD5
:10C27000A3E726210320FDF78FFB002898D00B2190
:10C2800064E7FEF767FC2B6893F86030022B13D04D
:10C290002B683220DA6DDA6501222B6883F8602082
:10C2A000FFF72EFE4FF0E0234FF08052C3F8042D2D
:10C2B000BFF34F8FBFF36F8FFEF716FCFEF74AFCFC
:10C2C0002B6893F86030022B03BF2A680121D36DDD
:10C2D000002104BF03F07F43D36500222B6883F85D
:10C2E0006020FEF701FC00293FF46DAF6FE700BF4F
:10C2F000F02F002000002110000C014000E100E0C0
:10C3000048340020C832002043213046FCF74CFA64
:10C31000534602224321676800F0E00B2078B847BB
:10C32000B4F8F63013F4E04FC3F3023205D04B46B5
:10C330004321676820789200B84704224321676848
:10C34000214B2078B847BBF1E00F7FF450AFB4F831
:10C35000F63003F01F020D2A07D113F4E04F04D189
:10C36000236C43F00103236441E7D4F8EC70DFF859
:10C370005CC004EB47176837BCE80F000FC79CE8A8
:10C380000F0087E80F00D4E93A239A4203F1010332
:10C3900006D194F8F0201AB103F00302C4F8E820A3
:10C3A000D4F8E82003F003039342C4F8EC3004BF50
:10C3B000012384F8F030236C43F00203D3E7226CAE
:10C3C00042F4007222641EE7EA2E0020BC330020F3
:10C3D000184B10B51B6843B14FF0500383F311881D
:10C3E000BFF36F8FBFF34F8FFEE7FEF7AFFD124B2A
:10C3F00001681A6811F10E032CBF012400248A423F
:10C400000FD27CB90360FFF723F948B94FF0E0235E
:10C410004FF08052C3F8042DBFF34F8FBFF36F8FDF
:10C4200010BD0CB99A42EDD20360981AFFF768FD6F
:10C43000E9E700BFC84100208846002010B5134C32
:10C44000FEF788FB2368DB6D7BB90122236883F844
:10C450006020FFF755FD4FF0E0234FF08052C3F806
:10C46000042DBFF34F8FBFF36F8FFEF73DFBFEF739
:10C4700071FB2368D86D10B100222368DA650022B1
:10C48000236883F86020FEF72FFB10BD483400209E
:10C490002DE988480020FDF735F900232024A94A1A
:10C4A000A94D1360A94B1A68A94B1A600520FFF724
:10C4B000C5FF0120FCF7F4FFE88D012180B2FDF7F4
:10C4C0002FF8013CF2D1A34CA34EA44A2368116873
:10C4D00099421BD8A24F236897F8008003F5FA739E
:10C4E000B8F1020FDFF87CA213606BD8FCF75EFF97
:10C4F0000021FCF7E3F94AF82800B8F1000F5ED1FB
:10C50000022308F10108336187F80080FDF756F92E
:10C5100001284DD1944B9A68944BC2F38F029B68CB
:10C52000C3F38F039A422CBF4FF400421022904B6A
:10C530002BBF32611A614FF480124FF000432CBFC1
:10C540001A613361FDF7EEFA90B38A4E4FF4FA6048
:10C55000FFF774FF002800F0EC800120FCF7A0FF3B
:10C56000784B83461868844F0028DFF81092DFF874
:10C57000108240F3D780B0F5E17FA8BF4FF4E1709F
:10C580008246FCF7BDFF504502DAFCF7B9FF824650
:10C59000AAEB0B0ABAF10A0F04DD3968ABEB010113
:10C5A0000A2937DD2268C7F800B0C9F800203CE04E
:10C5B0004FF4FA60FCF72AFFFFF740FF85E74FF4DE
:10C5C00000339EE7DAF80030DAF80800DAF80410F1
:10C5D0001A1A02EBD27201EB62020344C3EB42036C
:10C5E0005B08B3F5966F674A06D9002313703B705A
:10C5F0000022654B1A7089E7C72B05D80121634BD0
:10C60000197000231370F3E7B3F5487FB4BF3E23DE
:10C610005023F7E72268D9F80030D31A44F6206295
:10C62000934202D9012388F80030594923680A68E7
:10C6300000209B1A4FF47A72B2FBF3F723680B6069
:10C64000504B1B78502B34BF4FF02D0B4FF0410B4C
:10C650000AFB0BFB34BF4FF00A0A4FF0410AFDF70B
:10C660001BF8AB8E9BB243B10A21AB8E9BB24B43FE
:10C670009842C2BFA88E80B24843464B1B6823B184
:10C680000A214B439842A8BF1846BAFBF7F331681A
:10C69000C3F164034B4364214FEA4B0B93FBF1F36B
:10C6A0009BFBF7FB5B44834236DD306030682B8DAB
:10C6B0009BB2F3B140F6C4116B8D22689BB24B4321
:10C6C00035490F68D21B934208D2AA8D236892B2D3
:10C6D0000B60FA2101FB0233304A13602B8D9BB2B1
:10C6E000984206DA2D4A236812689A4284BF288D40
:10C6F00080B247F6DF722A4B9B68C3F38F039342E5
:10C7000088BF002098F80030002B18BF0020FCF7ED
:10C71000F9FFFCF77BFE19E740428342ACBF336070
:10C720003060C3E722680020C7F800B0C9F80020D5
:10C73000BDE714231B4A13801B4B18701B4B18704A
:10C7400004E700BF982F0020D03400204834002098
:10C7500040340020884600200008014008020020E4
:10C7600044350020483500201420002004200020FB
:10C77000000C0140D82E0020D02E0020D42E002006
:10C780002C3100209C3200200C0200205435002067
:10C79000DC2E002044340020E42E0020E02E002077
:10C7A000A02E0020F81F0020612900203C3400202A
:10C7B0002DE9F04104464FF00108FEF7CBF990F85F
:10C7C00045501B4F6DB200F12406002D17DCFF23EE
:10C7D0004FF0010884F84530FEF786F9FEF7BAF904
:10C7E00094F84450124F6DB204F11006002D12DC83
:10C7F000FF2384F84430BDE8F041FEF775B9636A61
:10C80000002BE4D03046FEF799FF08B1C7F800804E
:10C81000013D6DB2D9E72369002BE9D03046FEF720
:10C820008DFF08B1C7F80080013D6DB2DEE700BFA3
:10C830008C4600202DE9FF470446019140B94FF096
:10C84000500383F31188BFF36F8FBFF34F8FFEE761
:10C85000056C45B14FF0500383F31188BFF36F8F20
:10C86000BFF34F8FFEE7FEF79DFB50B9019B63B10D
:10C870004FF0500383F31188BFF36F8FBFF34F8FD7
:10C88000FEE72846964F974E90E00546FAE7019B53
:10C8900023B9002D00F02081FEF794FB20B93B68FE
:10C8A0000293914B1B680393FEF71EF9FEF74EFBB4
:10C8B000FEF750F994F8443001A9FF2B04BF002380
:10C8C00084F8443094F8453002A8FF2B04BF0023BD
:10C8D00084F84530FEF708F9FEF740FB002840F0E9
:10C8E0009C80FEF737F9A36B002B57D1FEF7FCF8BD
:10C8F0002368002B3CD1FEF72DF9A568002D34D01C
:10C900003368D5F82CA0DB6A9A457ED2AB69DFF894
:10C91000DC81002BA8BF33686A69A2BFDB6AC3F160
:10C920000603AB61142303FB0A839A4269D105F124
:10C9300004094846FEF7A7FC6D4B30B901211A687F
:10C9400001FA0AF122EA01021A6032681968D26A11
:10C95000EA62012505FA02F00843186014204946EE
:10C9600000FB0280FEF782FB0120FEF7BDF80546C2
:10C97000019904F12400FFF765FB2046FFF718FF3B
:10C98000FEF766FE88B94FF0E0234FF08052C3F8FF
:10C99000042DBFF34F8FBFF36F8F06E02046FEF7E5
:10C9A000A3F8FFF705FFFEF753FE0120FEF7D2F8CC
:10C9B000A36B002B3FF46BAF013BA363236843B928
:10C9C000484B1A681AB119688A6D01328A651B686A
:10C9D000A360236973B104F11000FEF7AFFE48B104
:10C9E0004FF0E0234FF08052C3F8042DBFF34F8F78
:10C9F000BFF36F8FFEF778F80125284604B0BDE835
:10CA0000F0873368DB6AEB62AEE73368686DDB6A38
:10CA100098422CBF00200120A7E72046FFF7C8FE60
:10CA2000FEF716FEFEF796F8A36B13B1FEF75CF85F
:10CA3000BBE7FEF759F8002DDFD0FEF78BF8656AEB
:10CA40001DB1236B1D68C5F10605A468002C43D0F9
:10CA5000A26D42B94FF0500383F31188BFF36F8F7B
:10CA6000BFF34F8FFEE7636D9D4238BF1D46E36AFB
:10CA70009D4231D0012A2FD11A4A1268944208D11E
:10CA80004FF0500383F31188BFF36F8FBFF34F8FC5
:10CA9000FEE7A269154E002AA4BFC5F10602A261F5
:10CAA000142202FB03636269E5629A4214D10434E2
:10CAB0002046FEF7E8FB01230D4AAB4018B9116888
:10CAC00021EA030111601420116800FB05600B438B
:10CAD00021461360FEF7CAFAFEF706F800258CE738
:10CAE0006846002048340020884600205434002046
:10CAF000D041002008B5044B64211868FFF79AFE66
:10CB0000431E5842584108BDB82D00202DE9F04180
:10CB100080460E4617461D46FFF7ECFF044660B1FF
:10CB20005FFA88F84046FBF719FFFBF77DFF38B93D
:10CB3000FBF732FF0024FDF707FF2046BDE8F08138
:10CB4000F0B2FBF771FF0028F2D04FF48032194B9E
:10CB50001A610F2300BF013BFCD148F00100FBF735
:10CB6000FDFEFBF761FF04460028E1D0DFF84480BA
:10CB700008260021FBF728FF4900C9B2013E014306
:10CB800016F0FF06C9B2F5D10223012D08BF2846D1
:10CB900005F1FF3518BF3046C8F81030ADB2FBF7CD
:10CBA0002BFF07F8011B002DE2D1FBF7F5FEFDF787
:10CBB000CBFEC2E7000C0140F8B507460E4615460D
:10CBC000FFF798FF044650B1F8B2FBF7C7FEFBF73A
:10CBD0002BFF30B9FBF7E0FE0024FDF7B5FE204641
:10CBE000F8BDF0B2FBF720FF0028F3D0FCF70EFCF5
:10CBF0002878FBF719FF04460028EBD0FBF7CCFEA2
:10CC0000FDF7A2FEEBE7000007B5084B5A38C0B2AB
:10CC100083F840008DF8070080210DF1070278208D
:10CC2000FFF7CAFF03B05DF804FB00BF000000205F
:10CC300010B5094CB4F8460080B2003818BF012086
:10CC4000FCF77FFAB4F84600BDE8104080B2003827
:10CC500018BF0120FFF7D8BFD03400202DE9F341E1
:10CC600017460C46002680466378404621780DF131
:10CC700007028DF80730FFF79FFF054640B1A07807
:10CC800008B1FBF785FB0136B74204F10304EBDC86
:10CC9000284602B0BDE8F081192310B50C4CB4F859
:10CCA000480080B2B0FBF3F0012301301A46194668
:10CCB00080B2FCF76AF8B4F848300649022281F8DD
:10CCC0002E307820BDE810402A31FFF7C7BF00BFE3
:10CCD000D03400200000002038B505460C46FFF790
:10CCE00009FFB8B17820FBF739FEFBF79DFE28B9A4
:10CCF000FBF752FEBDE83840FDF726BE013D15F8B2
:10CD0000010FFBF791FE0028F2D0013CA4B2002CE9
:10CD1000F5D1EDE738BD000008B5FBF77DFB30B17C
:10CD2000BDE8084040F211210148FFF7D5BF08BD1A
:10CD3000692900202DE9F843FCF74EFB054618B998
:10CD400000252846BDE8F883274E0021F08D80B2EB
:10CD5000FCF7E6FB254B1B68B3F5FA6FF0D9728937
:10CD6000B38992B29BB2002A37D002325343DBB26E
:10CD70008342E5D900241E4BDFF878901C60FCF755
:10CD8000C5FF1D4A338CDFF8748017681C4A9BB2BC
:10CD90001668A9F80040A8F8004003B3B88BFF223A
:10CDA00021463044FBF7B6FE0823F88BFF222146CC
:10CDB0003044A8F80030A9F80040FBF7ABFEFCF7C0
:10CDC00047FCFF2221460F48FBF7A4FEFFF7A4FF14
:10CDD000FFF7ECF8FFF7EDF8B3E75A23C8E7788BD5
:10CDE000FF2201213044EFE7D034002088460020A4
:10CDF000982F0020B42D0020FC1F0020B62D00200D
:10CE0000002000200B0F010838B505460C46FCF742
:10CE10007DFF2846FBF744FFFFF77EFF2046BDE875
:10CE20003840FFF7D9B800002DE9F84F0024674BD0
:10CE3000674FA046D7F800901C60FCF755FA051B19
:10CE400018BF0125A246634BA3F800A0624BA3F8CC
:10CE500000A0FCF75BFFFCF747FA002800F0A08079
:10CE6000D7F80090002D40F09F80042800F08B80C0
:10CE700009D80228594B00F0828002D8012800F01E
:10CE80008D802B4614E0082803D01028F9D1BDE886
:10CE9000F88F3A68A4EB08031344B3F5967FF0D9F2
:10CEA0004E4B1B8F5B422134D7F800801BB2E4B29B
:10CEB0004A4EC4F59672632AF28ED8BFC82492B245
:10CEC0000AB15B421BB2DBB1B18883EAE372A2EB29
:10CED000E372194409B213B291FBF3F15143738C1D
:10CEE00009B29BB2002B61D0322940F25233B8BF55
:10CEF00032219942A8BF1946002089B2FBF7EEFA09
:10CF00003B68A3EB0903B3F5FA6FC0D8344BFF229B
:10CF100093F800B0F38E01219BB2BBF1000F4ED10C
:10CF2000DFF8C0C03048002B18BF6046FBF7F2FDA9
:10CF3000FF2201212D48FBF7EDFD0123B0881A46A1
:10CF4000032180B2FBF721FF0220FCF79DF9FF22AD
:10CF500001212648FBF7DEFDF38EFF2201219BB263
:10CF6000BBF1000F2FD1204E1E48002B18BF3046BA
:10CF7000FBF7D0FDFFF7D0FEFFF718F863E75B8FF4
:10CF80005B421BB294E73A68A4EB08031344B3F581
:10CF9000967F7FF676AF114B1B8F84E75B8FF0E7B0
:10CFA00004460546234683E70024FBE70A29B8BF69
:10CFB0000A21B1F5E17FA8BF4FF4E1719CE7DFF8EA
:10CFC00028C00848AFE7074E0748CEE7982F002053
:10CFD00088460020B42D0020B62D0020D03400203B
:10CFE000982B00200D0F01080F0F0108F90F010801
:10CFF0002DE9F74F0746504DDFF840810191FFF7CB
:10D0000099FE002871D16B8C9BB2002B71D087B92F
:10D01000EB88A8889BB280B2984228BF18461F2888
:10D02000C1BF0923203800EB8000B0FBF3F0D8BF6C
:10D030003846C8F80000FCF74DFA00240646FCF715
:10D0400065FE3F492A8C3F4BDFF8FCB0D1F800A0C9
:10D050003E4992B2D1F800901C80ABF80040B6B2C5
:10D06000002A51D0BAF82600FF2221464844FBF797
:10D0700051FD344BBAF828001C800823FF222146BA
:10D080004844ABF80030FBF745FD0123224603215D
:10D090003046FBF77AFE2046FCF7E2F8FF222146F5
:10D0A0002B48FBF737FDFCF7D3FAFF22214629482E
:10D0B000FBF730FDFFF730FEFEF778FF0198FBF736
:10D0C000DBF998B16B8B9BB27BB3234B196861B3CF
:10D0D000224B1A686B8B521A4EF660219BB24B435F
:10D0E0009A4222D90023C8F80030012003B0BDE8DD
:10D0F000F08F37B9EA88AB8892B29BB2934228BFCF
:10D100001346C8F8003096E7BAF82400FF224844D6
:10D110000121FBF7FFFC012330461A460321FBF7F0
:10D1200034FE0220FCF7B0F8C4E7FCF7DDF808286D
:10D130007FF465AFD6E700BFD0340020982F0020E1
:10D14000FC1F0020B42D0020B62D00200020002060
:10D15000F90F01080B0F01089832002088460020C3
:10D160002DE9F04F85B0002840F0C68000231D4611
:10D17000CDE90233A94CDFF8A8920193FCF7B4F88B
:10D18000019B002B00F0DA80E38C9BB2002B00F0B7
:10D19000D580042800F0FD8000F2BC80002800F05B
:10D1A0001B81032840F0BF80FCF7B0FD218CDFF825
:10D1B00074B289B29BF800A09B4F9C4E002900F0EE
:10D1C0006C81BAF1000F0CBF32234FF0FF334FF0E8
:10D1D000000801203B80A6F80080FCF767FC638A0A
:10D1E0009BB263B323899BB24BB3C2450CBF2023D0
:10D1F0002F23A6F800803B80FBF726F98C4A8D4B45
:10D2000011688D4A1B68126891422CBFC3EB010361
:10D21000C3EB02031844894B984240F2DF804EF67C
:10D220006023B0FBF3F001304246022180B20123BB
:10D23000FBF7ABFDFF2241468148FBF76BFC002D5D
:10D2400000F0DB80BAF1000F14BF372326233B80A8
:10D250000823FF2200217B483380FBF75BFC9BF80F
:10D2600000304FF00008002B14BF4FF0430B4FF07D
:10D27000000BDFF8D4A1A7F800B0DAF80000A6F898
:10D280000080B0F57A7FC0F0EF80FF2241466F4802
:10D29000FBF740FC0A23DAF800004246B0FBF3F04B
:10D2A0000321012380B2FBF770FDFF2200216848B3
:10D2B000FBF730FC0823A7F800B03380FCF7C8F96F
:10D2C000FF2200216348FBF725FCFFF725FD638C57
:10D2D000614E9BB2002D00F03E81002B00F03881A2
:10D2E000238E9BB21F2B40F314810922203B03EBBA
:10D2F0008303B3FBF2F30DE1831E58425841012131
:10D30000FFF776FE01287FF431AF4A4B1A68484B8D
:10D310001A602EE020282FD03FF646AF082802D012
:10D3200010287FF441AF4D4BD9F800001B684FF433
:10D33000FA71DB891844FFF767FD35E7042834D01C
:10D3400010D8002848D003283FF42EAFA688FFF756
:10D350006BFDA388B6B29BB2B3423FF425AFFDF795
:10D3600033FA21E7102804D0202824D008287FF49D
:10D370001BAF05B0BDE8F08F384BD9F800001B6833
:10D380004FF47A719B891844FFF73EFD0023019307
:10D390000AE7238E9BB2002B3FF406AFE38C019A81
:10D3A0009BB2012B08BF1546FEE6238E9BB2002BD5
:10D3B00018BF0125F8E6E38C9BB2002B3FF4F4AED6
:10D3C000264BD9F800001B684FF47A715B8918442A
:10D3D000FFF71AFD0123DAE70546E5E64FF47A7315
:10D3E000B0FBF3F001304246022180B20123FBF78B
:10D3F000CCFCFF2241461A481FE7BAF1000F14BFC8
:10D400002F2320233B8008233380FCF7B9FB154BE7
:10D410000222294653F820001FE700BFD034002025
:10D4200000200020982B0020B42D0020B62D0020D5
:10D43000683200208846002098320020B88201001F
:10D44000110F01080D0F0108D4410020F90F010848
:10D45000130F01080B0F0108982F0020FC1F00205C
:10D4600009100108F01001084FF00A0AB0FBFAF0A9
:10D4700001234246022180B2FBF787FCFF2241468E
:10D480004848FBF747FB484B42461868B0FBFAF3A5
:10D490000AFB13000123194604E739803180BAF1F1
:10D4A000000F1BD1FCF76AF84048FF220121FBF76F
:10D4B00031FB0120FCF7FAFA55B10220FBF73EFEE2
:10D4C000394B00211868FCF703F9FBF789FEFCE6ED
:10D4D000FF2201213548FBF71DFBF1E7324B1868AD
:10D4E000FCF7F6F8FBF77CFE6DB10220FBF726FE99
:10D4F0000120FCF7DBFAFF2201212C48FBF70AFB95
:10D50000FCF73CF8E1E6FF2201212848FBF702FB8B
:10D51000EEE700233360FFF70DFC074600287FF499
:10D52000F4AEFAF7A9FFD8B9DFF8848098F8007054
:10D53000EFB100241F4B204A1B6810681B8A42F27F
:10D54000107118443460FFF75FFC88F8004010E762
:10D55000238E9BB2DEE70BB1A388C2E6A388F8E76F
:10D5600039463846FFF744FD0028DDD001E738464C
:10D570003668FBF795FF361A0A36142E07D8029B39
:10D580006BB901270D4B1B6803F24D130393039BEB
:10D590000BB10A4B1B68FEF709FD0297EEE5029FEF
:10D5A000F5E700BF090F0108D4410020F90F010879
:10D5B0002C310020FC1F0020002000208846002085
:10D5C000002373B500934FF6FF7304460C4EADF87D
:10D5D0000430214668463268FCF7A2FB0546FBF79B
:10D5E00083FE38B9002DF4D0FFF796FB2820FEF714
:10D5F000BFFCEEE7431E5842584102B070BD00BF69
:10D600008846002008B50B4BB3F84C309BB273B979
:10D61000094B0A4A1B6810689B8A1844FFF7D0FF21
:10D6200018B101212420FAF759FF002008BD00217C
:10D63000F8E700BFD0340020FC1F002000200020AD
:10D6400038B50D4B1D680D4B288B1C682044FFF727
:10D65000B7FF80B17422FF21094803F0FFFBFDF7FB
:10D660001FF9FDF7B1F8688840F6B8312044FFF79C
:10D67000CBFBFBF7B9FE38BDFC1F002000200020CB
:10D68000D03400202DE9F84FFCF740FB4FF019078C
:10D690003F4D4FF000093F4C3F4EE08D494680B270
:10D6A0004FF00A0B2F80A6F80090FBF739FF0123FB
:10D6B000B0FBFBFA80461A4602211FFA8AF0FBF7FC
:10D6C00064FBFF2201213548FBF724FA01220BFB02
:10D6D0001A804B46114680B2FBF757FBFF2201210F
:10D6E0002F48FBF717FA0823E08D4A4603213380C1
:10D6F00080B20123A5F80090FBF747FBFBF7F4FD90
:10D70000022840D007D8012825D0FFF705FB2820A4
:10D71000FEF72EFCBDE71028F7D8224C044114F088
:10D720000104F2D1FDF750F8FCF7F0FA1E4B1F4A46
:10D730001B6810681B8840F6B83118442C80348070
:10D74000FFF762FBFFF7E8FA4FF4FA70FEF744FCCC
:10D750002046BDE8F88F164AB2F8A830B2F8AA0001
:10D76000B2F8AC10E28D92B2934202D1E085E38D23
:10D77000CBE7E28D581892B28242C2BFE38D5B1AAA
:10D780009BB2E385F3E71520FAF7BEFEBDE700BFC5
:10D79000B42D0020D0340020B62D0020FF0E01084B
:10D7A000150F0108EFFEFEFFFC1F002000200020E7
:10D7B000520000202DE9F04F4FF0000A454B89B090
:10D7C0001A681B68039004920793424B049A1B68E3
:10D7D0004FF4FA719B1A642202935343B3FBF1F3A3
:10D7E0009BB2C3F196045B435C4341F2883394FBE4
:10D7F000F3F4A4B2E401B4FBF2F4A4B2802C28BF89
:10D800008024039BE1B2C4F1800B002B57D1264644
:10D81000D046039D5FFA8BF7DFF8BC905A46D9F8E3
:10D8200000308A46981903EB0801059303F03CFB8E
:10D83000D9F804305A4603EB08019819009303F015
:10D8400033FBD9F808305A4603EB080198190193C5
:10D8500003F02AFBD9F80C905A4609EB080109EBB2
:10D86000060003F021FB1D4B2246D919059B1C4ED7
:10D87000581903F019FB1B4B2246D919009B581964
:10D8800003F012FB019B22465819F11903F00CFB1F
:10D8900006F180012246394409EB050003F004FB40
:10D8A000FFF73AFA07A8FEF793FDFBF71DFD18B93D
:10D8B000029BB3F5FA7F88D909B0BDE8F08F002646
:10D8C000A1EB0A03C1F1800537465FFA83F8EDB298
:10D8D000A2E700BF88460020842B0020AA2B00204E
:10D8E000992C00202A2C002008B5094A03461178FB
:10D8F00081420BD010700748523B43701021FFF754
:10D90000EBF9BDE808400A20FEF732BB08BD00BFB6
:10D9100068290020692900202DE9F04F0026012404
:10D92000B34B91B01C7005908DF81A608DF819609A
:10D93000FAF7FDFE4FF6FF7307940294B1463446A2
:10D94000DFF8B082DFF8B0B20996ADF828301423C2
:10D950009DF81A506B430393039A059B9F180493F9
:10D96000BB681BB19DF81930019313B111B0BDE82C
:10D97000F08F019BDDF81CA08DF81B30BAF1000F71
:10D9800000F09F809D48FBF767F8FB6873B19847EC
:10D9900060B937469A4801358DF81A50FBF75CF8A4
:10D9A000029B0193019B3E460293D0E70122954BD7
:10D9B0001A700023944A1380944A1380FCF7A6F946
:10D9C000B97C11B1787CFBF77FF9BB689847BAF155
:10D9D000020F40F0DF800022CDF833204FF40652D2
:10D9E000ADF82C2080228DF82E208DF8302040229A
:10D9F0004FF0200A824B0B21DB790BA88DF82F30DA
:10DA00008DF831308DF83220FFF766F9D8F8003004
:10DA1000089300217E4A7F4B12F801EB013192F806
:10DA20007FC0C9B24FEACC1040EA5E0092F8FFE036
:10DA300002F8010C4FEACE1040EA5C0092F87FC178
:10DA400082F87F004FEACC1040EA5E0013F801EB49
:10DA500082F8FF004FEACE1040EA5C0093F87FC0E6
:10DA600082F87F014FEACC1040EA5E0093F8FFE0B5
:10DA700003F8010C4FEACE1040EA5C0083F87F0007
:10DA800093F87F0180294FEAC01C4CEA5E0C4FEAF4
:10DA9000500083F8FFC083F87F01BDD1FBF724FC61
:10DAA00000286BD040F209225A49594803F0EEF998
:10DAB000FFF732F95248FAF7CFFF0023514A079394
:10DAC0001370DBF80020D8F800309B1A40F6B7320C
:10DAD000934269D9DDE90323995C002964D04E4B58
