:020000040800F2
:10800000005000209D810008E5810008E5810008FE
:10801000E5810008E5810008E58100080000000016
:1080200000000000000000000000000051B900083E
:10803000E58100080000000081B900081DC10008AA
:10804000E5810008E5810008E5810008E581000878
:10805000E5810008E5810008E5810008E581000868
:10806000E5810008E5810008E5810008C5B7000842
:10807000E5810008E5810008E5810008E581000848
:10808000E5810008E58100089DBD0008E581000844
:10809000E5810008E5810008E58100081DBF0008B2
:1080A000E5810008E5B80008E5810008E5810008E1
:1080B00011B90008F1B800082DB90008E5810008E1
:1080C000E5810008E5810008E5810008E5810008F8
:1080D000E5810008E5810008E5810008E5810008E8
:1080E000E5810008E5810008E58100080000000046
:1080F0000000000000000000000000000000000080
:0C81000000000000000000005FF8E0F14B
:108110000348044B834202D0034B03B11847704716
:108120002802002028020020000000000548064B1D
:108130001B1AD90F01EBA301491002D0034B03B165
:108140001847704728020020280200200000000085
:1081500010B5064C237843B9FFF7DAFF044B13B18F
:108160000448AFF300800123237010BD28020020D3
:1081700000000000CC08010808B5054B1BB10549FB
:108180000548AFF30080BDE80840FFF7CFBF00BF50
:10819000000000002C020020CC080108002103E0B0
:1081A0000B4B5B58435004310A480B4B42189A4220
:1081B000F6D30A4A02E0002313600432084B9A42C5
:1081C000F9D303F0D9FA08F01DFB05F06BFAFEE7CE
:1081D000803401080000002028020020280200202E
:1081E00084480020FEE7FEE706480068006880F348
:1081F000088862B661B6BFF34F8FBFF36F8F00DFA1
:1082000000BF000008ED00E04FF0500383F3118839
:10821000BFF36F8FBFF34F8FFEE7000008B54FF03D
:10822000500383F31188BFF36F8FBFF34F8F074A5B
:1082300013680133012B136007D14FF0E023D3F80B
:10824000043DDBB20BB1FFF7DFFF08BD24020020C5
:10825000054A08B513680BB9FFF7D6FF013B136059
:108260000BB983F3118808BD2402002008B5EFF391
:1082700005830F2B07D90E4A9B5C0E4A12789A424F
:1082800001D9FFF7C1FF4FF0E0230B4AD3F80C3DB3
:10829000126803F4E063934208D94FF0500383F36C
:1082A0001188BFF36F8FBFF34F8FFEE708BD00BF8C
:1082B000F0E300E08C46002088460020036810B5FB
:1082C0009A68D10701D4002010BD9A680A4922F0AB
:1082D00001029A600C689A68D207F4D50A68121BEA
:1082E000022AF8D9836A43F010038362C36A43F019
:1082F0000103C3620120E7E784460020436A9A6ACB
:1083000012F0500F18D19A6A42F400729A621A68F9
:10831000926802F46022B2F5602F10D1DA6872B967
:108320009A6A22F480729A629A6AD20407D49A6A8C
:1083300042F001029A6270471B6A1B6B1847704734
:10834000034A0130116813685B1A8342FBD37047FC
:10835000844600202DE9F74F00244FF00F0E2646EB
:10836000DFF894C1654B00F10408012202FA06F718
:108370000A6807EA020537EA020240F082804A688A
:10838000032A00F0AE8010D8012A00F09F80022A54
:1083900000F0A1808A68002A00F0A580012A4FF031
:1083A00008040CBF0761476106E0122A00F09680BE
:1083B0006ED8112A00F08C80FF2D94BF8146C146F3
:1083C0004FEA8602D9F8007088BF203A0EFA02FA06
:1083D00027EA0A0704FA02F21743C9F80070D1F835
:1083E000049019F0805F4CD0DCF8182026F00307C9
:1083F00042F00102CCF81820DCF8182007F1804781
:1084000002F00102019207F5803706F0030A019A93
:108410004FEA8A0ABA680EFA0AFB22EA0B0B384ABC
:10842000904262D002F58062904260D002F5806294
:1084300090425ED002F58062904214BF0422032273
:1084400002FA0AF242EA0B02BA601A6819F4803F93
:1084500014BF2A43AA431A605A6819F4003F14BF94
:108460002A43AA435A609A6819F4801F14BF2A430A
:10847000AA439A60DA6819F4001F14BF2A43AA437A
:10848000DA600136102E7FF470AF03B0BDE8F08FD4
:10849000DFF870904A453FF47DAF0FD8A9F58019F9
:1084A0004A453FF477AF09F570294A453FF472AF6A
:1084B000A9F580194A453FF46DAF7DE7DFF8489094
:1084C0004A453FF467AF09F58039F3E7CC6873E7B5
:1084D000CC68043470E7CC6808346DE7CC680C34A1
:1084E0006AE7002468E7042466E70022A8E701227F
:1084F000A6E70222A4E700BF0010024000040140EA
:10850000000801400000221000003110024A1368E8
:1085100001331360704700BF0848002008B9064BBC
:108520001868026B0020135CA52B02D0C0F38F00EB
:1085300070470130F7E700BF74470020064A136810
:108540001968064B19B94FF0FF321A60704712686C
:10855000D2681268F9E700BF704600206446002028
:10856000054B1B6833B1054B1868B0FA80F0400921
:1085700040007047012070476046002008480020F6
:108580004FF0500383F31188BFF36F8FBFF34F8F0A
:10859000FEE743689A684B608A605160996003689F
:1085A00008610133036070470A4B588A80B278B182
:1085B000188980B260B11A89188992B2052A94BFCD
:1085C00042F210734EF6602380B288BF05385843DC
:1085D000704700BFE045002038B5114A538A9BB26E
:1085E0000BB9002038BD13899BB2002BF9D00D4A7E
:1085F0000D4B14681B6853EA04020FD00B4D296819
:10860000C91AFFF7D1FF8142EBD92868041BFFF795
:10861000CBFF844294BF00200120E3E70120E1E783
:10862000E0450020584600205C460020904600208F
:10863000142370B50446002503FB0106B44201D1A2
:10864000284670BDA368002BFAD0E3681BB901353A
:10865000ADB21434F2E798470028F8D1F9E70000EA
:10866000002340F21A201A4610B5074911F8014BB1
:1086700003FB042201338342F8D1044B18681A60CB
:10868000801A18BF012010BD9C4300209843002091
:1086900070470000084B33F8302003EBC0039142D1
:1086A0005B8803D399420A4628BF1A46034B03EB63
:1086B00040039A80704700BF12000020E045002070
:1086C000184B03EBC003998898B9174B5B8C9BB28E
:1086D000002B40F2523308BF4FF4E173124A5B1A89
:1086E00002EB4002908880B29842D4BF0020012063
:1086F00070471628E9D0012809D10B4B5B8C9BB23F
:10870000002B0CBF4FF496734FF41173E6E71F284C
:1087100001D05B88E2E7054B1878431E5842584168
:10872000704700BF12000020E0450020100000202C
:10873000034B588980B2003818BF0120704700BF32
:10874000E045002008B5114A138E518C9BB289B2C6
:1087500091B173B1143399B240F25133994288BF49
:1087600000211620FFF796FFBDE808401620FFF70E
:1087700091BF4FF4F071F4E733B10A339BB2B3F514
:10878000E17F98BF1946EFE7FA21EDE7E0450020C9
:10879000034B588A80B2003818BF0120704700BFD1
:1087A000E04500200A4BD9885B8C89B29BB243B16B
:1087B000143189B2B1F5117F88BF3C210120FFF748
:1087C00069BF0A3189B2B1F5967F88BF0A21F5E702
:1087D000E0450020012070470F4A02EB40039B88D0
:1087E000528C9BB292B27AB103EBC3010523A03144
:1087F000B1FBF3F10A2389B2B1FBF3F101EB810183
:10880000490089B2FFF746BF0922203B03EB8303EF
:1088100093FBF2F1EEE700BFE0450020034BD88A5E
:1088200080B2003818BF0120704700BFE04500202B
:10883000034B188D80B2003818BF0120704700BF6D
:10884000E045002013B50122446801AB0078A04741
:1088500008B19DF8040002B010BD000040220D4B8D
:108860001A6120221A610F2200BF013AFCD14FF495
:1088700000121A610F2300BF013BFCD14FF48003AB
:10888000044A13610F2300BF013BFCD12023136175
:10889000704700BF000C01404FF40013094A1361F8
:1088A0000F2300BF013BFCD1402313610F2300BF06
:1088B000013BFCD12022034B1A610F2300BF013B77
:1088C000FCD17047000C014020230A4A13610F239A
:1088D00000BF013BFCD1402313610F2300BF013BCC
:1088E000FCD14FF48002034B98681A61C0F340102A
:1088F000704700BF000C01400A4B80B120221A6172
:108900000F2300BF013BFCD14023064A13610F2314
:1089100000BF013BFCD14FF48003136170474FF45B
:108920000012ECE7000C014010B50146082401F0EC
:108930008000013CFFF7E0FF490014F0FF04C9B2DA
:10894000F5D12022034B1A61FFF7BEFFB0FA80F089
:10895000400910BD000C014048F2E803584364236D
:10896000C00B584340F23D13B0FBF3F0074B5A8E57
:1089700092B242B139B95A8E92B282422FBF0846A2
:108980005B8E9BB2C01A024B18607047E045002016
:1089900034370020002170B5FFF7DEFF0123174AAE
:1089A00052F83310884215DA4FF47A75144A52F8A7
:1089B0003360141D801B6843891B90FBF1F00C325F
:1089C00054F8334052F833301B1B584390FBF5F0FA
:1089D000204470BD0133322BE2D14FF47A73EE2282
:1089E000A0F540503138584390FBF2F00A22504332
:1089F00090FBF3F000F5F570EBE700BF602701088E
:108A00005827010801220D4B1A6102221A610F2218
:108A100000BF013AFCD14FF400321A610F2300BFAE
:108A2000013BFCD14FF48033044A13610F2300BF94
:108A3000013BFCD102231361704700BF000C0140D1
:108A40004FF40033094A13610F2300BF013BFCD1EF
:108A5000012313610F2300BF013BFCD10222034B12
:108A60001A610F2300BF013BFCD17047000C01408D
:108A700002230A4A13610F2300BF013BFCD10123EB
:108A800013610F2300BF013BFCD14FF48032034B35
:108A900098681A61C0F34000704700BF000C0140A5
:108AA0000A4B80B102221A610F2300BF013BFCD1A7
:108AB0000123064A13610F2300BF013BFCD14FF491
:108AC0008033136170474FF40032ECE7000C014033
:108AD00010B50146082401F08000013CFFF7E0FFDB
:108AE000490014F0FF04C9B2F5D10222034B1A6108
:108AF000FFF7BEFFB0FA80F0400910BD000C014046
:108B00002DE9F74F5442A04201933BDD802839DC28
:108B10000028B8BF464200EB0204ACBF0026F6B204
:108B2000802C4FF00004CCBFC0F1800C94460C9D0B
:108B3000C8BF5FFA8CFC0029B8BF0731DFF84C8052
:108B4000C910401B019BE500EDB2AB421AD004FBFB
:108B500002F90C9B09EB0607354601EB040E1F4496
:108B6000A0EB090B09E00BEB070958F82E3017F8BA
:108B700001AB013503F809A0EDB2AC45F3D80134DF
:108B8000E4B2DFE703B0BDE8F08F00BFC0450020CE
:108B900007B5054B0021009320235E201A46FFF7FE
:108BA000AFFF03B05DF804FBE42E01080229F7B51E
:108BB0001B4B04461B4817D110221A700C221A4D69
:108BC00002701B780278D908514304FB0155174FF6
:108BD0001749B7F900600095304691F90010FFF78A
:108BE0008FFF32443A8010E000290BBF0825102582
:108BF00006260C26012C1D70067008D10C4BB3F90B
:108C0000001011B909491D800A8003B0F0BDFCD9DC
:108C1000084D094A023C002908BF1546A4B2D0E716
:108C20003137002030370020B0250108DA45002018
:108C3000D8450020DC030020440200202DE9F0414B
:108C4000984603780546012B0F46164601D11F466C
:108C500001352878A8B1A6B1F0280AD96B7883B17C
:108C6000A0F1F004C4EB04200F3B184480B202359D
:108C700000E0013542463946013EFFF797FFF6B264
:108C8000E7E7BDE8F081000010B40E4B0E48B3F8E2
:108C900050200E4B92B219680D4B012A1B780068C8
:108CA00004D0022A0AD0B1F8444001E0B1F84240B1
:108CB0002044FF22002110BCFFF7C0BFB1F846409E
:108CC000F6E700BFE0450020D0450020D445002055
:108CD000DA45002010B4124B198B89B2022911D049
:108CE000032918D0012902D010BCFFF751BF0D4B4A
:108CF000FF221B68188F0C4B1C680023204410BCFB
:108D0000FFF79CBF074B1B68588F074BFF221C685F
:108D100001210023F2E7034B1B68988FF5E700BFA2
:108D2000E0450020D4450020D045002010B40F4B72
:108D3000D98C89B2012904D002290DD010BCFFF7CB
:108D400027BF0B4BFF221B68D88F0A4B1C680023E0
:108D5000204410BCFFF772BF054BFF221B680121A6
:108D6000B3F84000034B1C680023F1E7E045002006
:108D7000D4450020D0450020134BB3F87030DBB24F
:108D8000022B16D008D8114A114973B90B68B3F8F1
:108D900048301068184402E0032B10D000200D4B1F
:108DA000FF2200211B78FFF749BF0B68B3F84A3058
:108DB000EFE7074B1B68B3F84C30044AE9E7044B74
:108DC0001B68B3F84E30F8E7E0450020D04500209E
:108DD000D4450020DA45002010B40C4B0C4A198A07
:108DE0000C4B89B201291B68106806D002290BD1EF
:108DF0001C8E0023FF22012102E0DC8DFF220023D4
:108E0000204410BCFFF71ABF9C8DF2E7E04500201C
:108E1000D0450020D445002010B4094B094A9B8C52
:108E200012689BB24BB1D08E074BFF221C68012108
:108E30002044002310BCFFF701BF508EF4E700BFB1
:108E4000E0450020D4450020D045002010B4124B4E
:108E5000D98A89B202290ED0032915D0012917D148
:108E60000E4BFF221B68588E0D4B1C6800232044BC
:108E700010BCFFF7E3BE094B1B68988E084BFF221E
:108E80001C6801210023F2E7044B1B68D88EF5E72C
:108E900010BCFFF77DBE00BFE0450020D445002098
:108EA000D0450020002310B4074A01781380074AF8
:108EB0000129138018BF19464FF0FF0210BC08BFEC
:108EC0000130FFF7BBBE00BFDA450020D8450020C7
:108ED00037B5284B284A1B68044603EB4003B3F818
:108EE0002E3110681844FFF7DDFF244AD38A9BB265
:108EF000022B20D0032B0CBF4FF496704FF4FA7066
:108F0000D18A1F4B89B2C9B119681E4DA1421E49B1
:108F100002D01C602B680B602B680968928A5B1A70
:108F200092B2B3FBF0F30AB30322B3FBF2F202EB0B
:108F300042029B1A0AE04FF4C870E1E78D211960E4
:108F4000D38A9BB2B3FA83F35B095B00FC225443E0
:108F5000542202FB03440D4B15221C440021202304
:108F600069200094FFF7CCFD03B030BD022B28BF71
:108F70000223EBE7D4450020D0450020E045002047
:108F80000C0000209046002038370020F828010807
:108F90000020FFF79DBF0120FFF79ABF0220FFF7D7
:108FA00097BF0320FFF794BF0420FFF791BF37B5A9
:108FB0000C4611460022042C0092CDF803202BD938
:108FC0000A22B0FBF2F502FB150002308DF8050015
:108FD000B5FBF2F002FB105502358DF8045080B25B
:108FE0000A22B0FBF2F502FB150202328DF80320D3
:108FF000A8B20A22B0FBF2F502FB150202328DF88C
:109000000220A8B20A25B0FBF5F205FB12050235D5
:109010008DF8015090B204E0E2D0032CE9D0022C8C
:10902000F0D00A22B0FBF2F502FB150002308DF8F9
:1090300000002BB16A4600231220013CA34206DB4C
:109040000023FF226846FFF7F9FD03B030BD157815
:10905000022DF5D102F8010B0133EFE710B50C4AF0
:1090600053899BB27BB101235089194602301A46BD
:1090700080B2FFF79CFF0023FF2201210548BDE8D5
:109080001040FFF7DBBDFF2201210348F7E700BFD7
:10909000E0450020E4080108E608010870B5012356
:1090A0000A240E4D1A46A889194680B2B0FBF4F086
:1090B000FFF77DFF0023FF2201210948FFF7BEFDD6
:1090C000A88980B2B0FBF4F304FB1300BDE8704044
:1090D000012380B21A461946FFF769BFE045002018
:1090E000E9080108054BB3F8440080B220B1012320
:1090F00002211A46FFF75BBFFFF74ABDE04500209B
:10910000064A138E9BB233B10123108E03211A46F7
:1091100080B2FFF74CBFFFF73BBD00BFE04500202A
:10912000034B0221588F012380B21A46FFF73FBF3D
:10913000E0450020034B0221188F012380B21A461C
:10914000FFF735BFE0450020064A538A9BB233B192
:10915000508A01220023114680B2FFF728BFFFF793
:1091600017BD00BFE0450020034B0321D888012331
:1091700080B21A46FFF71BBFE045002010B5154B23
:109180001A8992B21AB9BDE81040FFF701BD1A89D9
:10919000188992B2052A11D8012380B200EB800011
:1091A00040001A46022180B2FFF701FF0023FF2290
:1091B00001210948BDE81040FFF740BD01230538F3
:1091C0001A46022180B2FFF7F2FE0023FF2201219E
:1091D0000248EFE7E0450020EB080108ED08010830
:1091E00010B50B4A538B9BB21BB9BDE81040FFF77B
:1091F000CFBC0123508B02211A4680B2FFF7D7FE65
:10920000BDE810400023FF2201210248FFF716BDF0
:10921000E0450020ED08010807B5164AB2F84A30CB
:109220009BB2052B07D0062B10D08BB903B05DF88D
:1092300004EBFFF7ADBC104B0093202300211A462E
:109240005E20FFF75DFC03B05DF804FB0B4BF3E71A
:109250000123B2F84A0019461A4680B2FFF7A7FE6A
:109260000023FF220121064803B05DF804EBFFF75D
:10927000E5BC00BFE0450020642E0108E42D010894
:10928000EB08010810B50B4A938E9BB21BB9BDE8E1
:109290001040FFF77DBC0123908E03211A4680B257
:1092A000FFF785FEBDE810400023FF2201210248A0
:1092B000FFF7C4BCE0450020EF08010870B5134D6E
:1092C0002B8D9BB2EBB10A240123288D1A4680B264
:1092D0001946B0FBF4F0FFF76AFE0023FF220121DC
:1092E0000B48FFF7ABFC288D80B2B0FBF4F304FB16
:1092F0001300BDE87040012380B21A461946FFF7FB
:1093000056BEBDE87040FFF743BC00BFE0450020FB
:10931000E9080108034B588D012380B21A4619460B
:10932000FFF745BEE0450020034B988D012380B236
:109330001A461946FFF73BBEE045002000220221F5
:10934000FFF734BCC0F11100C0B2FFF7F7BF000057
:10935000034B988B80B2003818BF0120FFF7F2BF93
:10936000E0450020034BD88E80B2003818BF0120A2
:10937000FFF7E8BFE0450020034B988A80B2003831
:1093800018BF0120FFF7DEBFE0450020034BD88B5C
:1093900080B2003818BF0120FFF7D4BFE04500209D
:1093A000034B188C80B2003818BF0120FFF7CABFEA
:1093B000E0450020044BB3F84C0080B2003818BFE1
:1093C0000120FFF7BFBF00BFE0450020F0B5002738
:1093D0008418802CC8BFC0F180029DF814C0DFF84B
:1093E0002CE0C8BFD2B2C9100024FDB20D445EF813
:1093F00025602644013406F800C0E6B29642F6D352
:109400000137FC00E4B2A342EED1F0BDC04500201C
:109410001F232DE9F041B0FBF3F41B4B0E201D7808
:10942000FFF78CFFC4F10A0202F00701D3B2FF225A
:109430008A40D243C4F1EA04144FD2B2E4B2092BF9
:1094400034BF94464FF0FF0CF32D8CBF01210D214A
:109450002E466FEA0C0C2944C9B2701CC0B2884277
:1094600008D1083BDBB2A34202D00437002BE6D17F
:10947000BDE8F081D7F8008018F806E00EEA0C0E7F
:1094800008F806E00646E8E7DA450020C045002077
:1094900030B4074B074D5C8C002301460648A4B24C
:1094A0009C4208BF284630BCFF22FFF7C7BB00BF65
:1094B000E0450020310A0108F108010801280146B1
:1094C00030B40AD0022815D130BC0C4B588C80B275
:1094D000B0FA80F04009FFF731BF084B084D5C8CB3
:1094E00000230848A4B29C4208BF284630BCFF2293
:1094F000FFF7A4BB30BCFFF7CBBF00BFE0450020A7
:10950000E7080108F30801080120FFF7D7BF0000B2
:10951000014B1868704700BF904600207047037BDE
:10952000826810B530F813400A44121B826020F89C
:109530001310013303F00303037310BD08B5084B88
:1095400008481B68D96B1A6C11445A6C9B6C114407
:10955000194489B2490089B2FFF7E1FF084608BD06
:10956000104800207C430020024B9868C0F3001094
:10957000704700BF000C0140BFF34F8F0549064BF9
:10958000CA6802F4E0621343CB60BFF34F8F00BFA1
:10959000FDE700BF00ED00E00400FA054AF6AA224C
:1095A000014B1B681A6070473C3700204FF0E020E9
:1095B0004FF0805408B506490B68012B05D9C0F857
:1095C000044DBFF34F8FBFF36F8FFFF7E7FFF3E754
:1095D0008C47002008B568B100210B46114A0133C1
:1095E00032F8020BDBB2102B0144F8D10E4889B2DD
:1095F000FFF795FF0C4B0D499A680023C2F3CE028A
:1096000031F81300904207D2013331F8130000EB18
:109610008000400080B208BD0233302BF0D14FF4FF
:10962000E170F8E778370020103700205025010856
:1096300038B5044678B1FFF781FFFFF7ABF905466F
:109640002046FFF7C7FF0A23B0FBF3F39BB258197C
:1096500020EAE07038BD024B9868C0F38F00ECE759
:109660007C43002010B547F6FF70FFF793F90446DE
:109670000020FFF7AFFF0A23B0FBF3F39BB21819EA
:10968000013810BD38B5044699B1124B12481D6817
:10969000E96B2B6C194489B2C90089B2FFF73FFF0F
:1096A000696CAB6C0D48194489B2C90089B2FFF7E7
:1096B00036FF094B094A9B689268C3F38F03C2F3D4
:1096C0008F02934238BF13469B00B3FBF4F080B285
:1096D00038BD00BF4837002000370020F03600209A
:1096E00070B5104B0021D88D0A2680B2FFF7CAFF53
:1096F000B0FBF6F504460123A8B200220221FFF7D1
:1097000056FC0023FF2219460748FFF797FA01236A
:1097100006FB1540BDE870400022194680B2FFF7F5
:1097200046BC00BFE0450020F50801082DE9F041E6
:10973000FFF71AFF274C014648BBE08D0A2680B28E
:10974000FFF7A0FF0A23B0FBF3F403FB140080B281
:10975000A4B2042884BF0134A4B20123B4FBF6F5FB
:109760001D4F1A461946A8B2B7F90080FFF71FFC33
:1097700010221A4B06FB15401A800123A7F800801F
:109780001A46BDE8F041194680B2FFF710BC638964
:109790009BB2EBB16589E08D002180B2FFF772FFCB
:1097A000ADB20235EDB2B0FBF5F0A3899BB29842A1
:1097B00038BFA089A38938BF80B29BB2C01A0928DC
:1097C00028BF09200430C0B2BDE8F041FFF7B6BDA4
:1097D0000F20F9E7E0450020DA450020D8450020B9
:1097E0000122084B1A7040F21B12074B1A80074BDC
:1097F0001B68DA6240F20D125A6340F682229A62C6
:10980000704700BF7E4600207C460020984600201E
:1098100010B5FFF727FF04460020FFF709FF053CBE
:10982000A4B284422CBF0020012010BD084B187840
:1098300060B1084B1B78022B07D9074B1B7823B963
:10984000064B187880F0010070470020704700BF79
:109850006E430020EC36002005000020DC3600209E
:1098600070B5344B344A19681068884215D8334EA5
:109870001B68347803F5FA73022C314D13602DD830
:10988000FFF75CFE0021FFF767F82E4B45F8240038
:109890000CBB022201341A613470FFF7C7FF0128A4
:1098A00046D1294B9A68294BC2F38F029B68C3F3B8
:1098B0008F039A4234BF10214FF40041214A244BB8
:1098C0002BBF116119614FF480124FF000432CBF80
:1098D0001A61136170BD4FF40032DBE72B68A86892
:1098E00069681A1A02EBD27201EB62020344C3EBFD
:1098F00042035B08B3F5966F164A06D9002313702E
:1099000033700022144B1A70C7E7C72B05D801210A
:10991000124B197000231370F3E7B3F5027F05D3E0
:10992000B3F5487F2CBF50233E23F4E72823F2E70A
:109930000020CFE79046002008000020EC360020F1
:10994000E036002000080140F036002000370020FB
:10995000000C01406E43002005000020DC36002092
:10996000064BB3F87030013B03F0FF03022B02D823
:10997000034AD05C08B9034B18787047E0450020D3
:109980004C2501086E43002008B50B4B0146D88DCD
:1099900080B2FFF777FE0146FFF7E2FF48B1494387
:1099A000B1FBF0F0054BC0EB00201B88B0FBF3F0DF
:1099B00008BD6420FCE700BFE04500207C46002095
:1099C00010B50446002C084606DC094BD88D80B241
:1099D000FFF758FE002010BDFFF7D6FFC4EB0424AC
:1099E000B4FBF0F0FF2828BFFF20C0B2F3E700BFB0
:1099F000E045002010B50121FFF7E2FF134B90284E
:109A000004461A781BD90AB100221A7014211A7858
:109A10000F4B002019800F4B1A700F4B1C70FFF773
:109A2000B3FFFF23E82144430C4AB4FBF3F413686B
:109A30004B43182101FB04331B0A136010BD6F2830
:109A4000E4D8002AE2D10122DFE700BFCA010020EA
:109A5000824600207F46002080460020B845002036
:109A600001207047044B054A1B681068B3F8203189
:109A70001844FFF717BA00BFD4450020D045002096
:109A80002DE9F74F1F46FF230B7041F288331380F7
:109A900016460190FFF764FF4FF00008DFF86CB145
:109AA000BBF850309BB2012B594B04BF0530C0B2FC
:109AB0000093019B5FFA88FC9C4506D30878FF3829
:109AC00018BF012003B0BDE8F08F009B53F8044B92
:109AD000B4F1804F00931DD2322246F65F55C4F395
:109AE000892353435A1EAA4211D8C4F30904B3FB75
:109AF000F4F282420BDC3288934208DD81F800C028
:109B0000338000230C9A3C8013700D9A137008F177
:109B10000108CEE704F04043B3F1404FF7D1BBF862
:109B200050309BB2002BF2D0394B1B681B0202D580
:109B300014F0405321D104F07F02C4F3474404EBF6
:109B4000840404EB8404A30044F620649BB2A34283
:109B5000A8BF234602EB820202FB00F4A342A8BF87
:109B600023463488A342D2DD81F800C0338001232C
:109B70003A800C9A13700023C7E7B3F1805FC6D117
:109B80000A23C4F34845E4B24443B4FBF3F405EBC1
:109B9000850505EB8505AD00ADB2ACB3012C33D026
:109BA0004FF400424FF010094FF0804A96460023D0
:109BB000544534BF23EA0E031346B9F101094FEAB5
:109BC0005E0E01D11A4605E04EEA030202FB02FADC
:109BD0005445EDD14FF47A73534346F660529542A3
:109BE00028BF15469D4228BF1D4633889D428ED909
:109BF00081F800C001233580B5FBF0F50D9A3D805A
:109C0000137000230C9A81E72246E3E7E045002029
:109C1000E83E002037B5064C8DF8071001220146BA
:109C2000A56820780DF10703A84703B030BD00BF39
:109C3000B83C0020064AD2E93A03834203D192F8A5
:109C4000F0008000704798BF0433181A704700BFB7
:109C5000143F0020F8B50D4C0646276C15463942D6
:109C6000A16305D1FFF7E6FF20B147F002072764A3
:109C70003046F8BD6B1C84F8346002D10026E563E1
:109C8000F6E7236998470544F8E700BF143F002032
:109C9000F8B554881E4D24F47E646404640C0D2CC5
:109CA00032D0164685F8361085F8350054884321A1
:109CB00024F46064548095F82D3028785B0203F416
:109CC00060631C4326F8024FC4F30234A400114B16
:109CD000023464F07F02AF681A710522B847334638
:109CE00022464321AF682878B84704224321AC6854
:109CF000094B2878A047BDE8F8404FF0FF3240F20A
:109D000003610120FFF7A6BF002385F82D30F8BDC1
:109D1000143F0020000000203025010838B505461A
:109D20001C24002225FA04F303F00F03981C1146AB
:109D3000043CFEF73BFF231DF3D138BD0023012275
:109D400013B50A488DF807304468114600780DF1C4
:109D50000703A04738B19DF807000138C0B2FD28BD
:109D60008CBF0020012002B010BD00BFB83C002015
:109D700010B5064C236823B9FFF7E0FF08B10123B3
:109D800023602068431E5842584110BD2C370020E4
:109D900038B5FFF7EDFF0246F0B1124B124DB3F8A4
:109DA000443095F831109BB2C1B995F8300090B9A4
:109DB00095F83411192913D00C2911D013F0FF0490
:109DC00009D02B6998476B6CC01A6423634398428F
:109DD00094BF0020012038BD0120FCE70020FAE7F5
:109DE0001046F8E7E0450020143F002008B5FFF7D3
:109DF000BBFB50B9FFF7BCFF08B9012008BDFFF756
:109E0000C7FF0028F9D00320F8E70020F6E700009C
:109E100010B50F4B04465B8C98B2A8B10020FFF739
:109E200007FC052300EBC00090FBF3F303F12000D7
:109E3000012303211A4680B2FFF7B9F83CB1BDE80F
:109E400010400220FFF73ABBFFF7F2FBF0E710BD2E
:109E5000E04500202DE9F047DFF88091054699F8AC
:109E600000800024B8F1000F0CBF32234FF0FF3305
:109E70005B4F5C4E01203B803480FFF7C9FF002D13
:109E80003FD0A0450CBF22233223FF223B8001217B
:109E9000234655483480FEF7D1FE99F8003000245F
:109EA000002B0CBF00254325DFF840913D80D9F8F9
:109EB00000003480B0F57A7F75D32346FF22214617
:109EC0004B48FEF7BBFE0A23D9F800002246B0FB40
:109ED000F3F00321012380B2FFF769F80023FF228A
:109EE00019464448FEF7AAFE08233D803380FFF759
:109EF000F7FBBDE8F0470023FF2219463E48FEF776
:109F00009DBE3E4A538A9BB263B313899BB24BB347
:109F1000B8F1000F0CBF20232F2335803B80FEF7C4
:109F200043FB374B1968374B1A68374B1B689A420B
:109F30002CBFC1EB0201C1EB0301344B0144994238
:109F400021D94EF66023B1FBF3F1481C01232A46C8
:109F5000022180B2FFF72BF82B46FF2229462C481E
:109F6000FEF76CFEB8F1000F0CBF20232F233B80BF
:109F700008233380FFF73AFF0023264C02221946BC
:109F800054F8200087E74FF47A73B1FBF3F1481CD3
:109F900001232A46022180B2FFF709F82B46FF224F
:109FA00029461D48DCE74FF00A08B0FBF8F0012312
:109FB0002246022180B2FEF7FAFF2346FF22214605
:109FC0001648FEF73BFED9F800002246B0FBF8F336
:109FD00008FB1300012319467DE700BFBC450020A4
:109FE000DA450020D8450020F7080108B8450020D0
:109FF000EE090108FB080108FD080108E045002002
:10A0000090460020584600205C460020B88201009F
:10A01000F90801085C340108FE090108F508010887
:10A020000021224B70B51980214B04461980214B29
:10A03000214D1E78EEB9FFF779FB20483346FF2209
:10A040000121FEF7FBFD0120FFF7E2FE54B10220E3
:10A05000FFF774F928680021FFF7B2FCBDE87040F3
:10A06000FFF7D6B92346FF2201211448FEF7E6FD8B
:10A07000F0E72868FFF7A4FCFFF7CAF97CB10220DB
:10A08000FFF75CF90120FFF7C3FE0023FF22012147
:10A090000A48FEF7D3FDBDE87040FFF747BB2346F3
:10A0A000FF2201210548FEF7C9FDEBE7DA45002054
:10A0B000D8450020BC450020B8450020EE09010825
:10A0C000134B10B5DB68C3F30223C3F107041A1D59
:10A0D000042C28BF0424062A88BFDA1E4FF0FF3361
:10A0E00098BF0022A34021EA0303002803FA02F3E9
:10A0F000ACBF00F16040074A4FEA0313DBB2B5BFC3
:10A1000000F00F0000F56140135480F8003310BDDB
:10A1100000ED00E014ED00E010B54CF250342049A1
:10A12000204B0868DA68D20733D4DA68910644BF56
:10A130002022DA60DA68D20606D4DA69D40703D4BA
:10A14000D86810F0040023D0164AD36813F0100327
:10A1500005D01549CB6943F00203CB611023D268C7
:10A16000500706D5104943F00403CA6942F00102C2
:10A17000CA610C4AD169C90708D50B48C16941F0C9
:10A180000401C161D16921F00101D1610120D360D5
:10A1900010BD0A68121AA242C4D90320F8E700BF12
:10A1A0008446002000200240983C002090F83E3079
:10A1B000012B22D1022380F83E3003681A6A22F074
:10A1C00001021A621A6A42F001021A620B4A9342B1
:10A1D0000AD0B3F1804F07D0A2F59432934203D056
:10A1E00002F58062934204D19A6802F00702062ABF
:10A1F00003D01A6842F001021A607047002C014037
:10A2000070B5826A044686B0002A39D10168634B72
:10A21000C262994280F8242003F56C43996940F0AA
:10A22000838041F4007199619B695D4903F4007377
:10A230000293029B5B4B4FF48075C3E900128021AF
:10A240004FF4806EC3E903152021C3E905E14FF403
:10A25000805155481A649A60D9618168D8636FF358
:10A260000D1141F4AD5181609A631D8423625C62DB
:10A270000F211220FFF724FF4FF480224B4B1A606E
:10A280002046FEF71BF8A36A13F0100340F082800B
:10A2900000287FD1A26A616822F4885222F002026B
:10A2A00042F00202E069A568A262E2680143B5F5E6
:10A2B000807F41EA420156D06E1E7042704100021A
:10A2C0006669012E07D1002A4FD1A269013A40EAFE
:10A2D000423242F400602268B5F5807F566826F469
:10A2E000694640EA060050609668314800EA060078
:10A2F00040EA0100906001D0012D02D12369013BA9
:10A300001B05D06A20F470000343D3629268294B86
:10A310001340994232D10023E362A36A23F003037E
:10A3200043F00103A36233E041F4806199619B69CA
:10A330004FF0080C03F480630193019B03231E4834
:10A3400002A9CDE902C30492FEF704F81023029398
:10A35000FEF700F804230293FDF7FCFF402302936D
:10A36000FDF7F8FF84E72846AAE7A26A42F0200238
:10A37000A262E26A42F00102E262ACE7A36A23F061
:10A38000120343F01003A362E36A43F00103E362A4
:10A3900006B070BDA36A43F01003C3E70024014078
:10A3A00008000240404800200000024000E100E0B8
:10A3B000FDF7E1FFFE0E1FFF0008014090F83C3062
:10A3C00010B5012B21D0022380F83D3003680968C5
:10A3D0005A689C6822F070020A435A600B4A934202
:10A3E0000AD0B3F1804F07D0A2F59432934203D044
:10A3F00002F58062934202D124F080049C60012324
:10A4000080F83D30002380F83C3010BD002C014026
:10A4100070B551B947F6EF72194B9B68C3F38F03C0
:10A42000934282BF0122174B1A70174C2378E3B96D
:10A43000164A174D13688342C8BF1060154BA9B95F
:10A44000196029681B68CB1A44F620618B420CD92D
:10A45000114B11681B688B4207DD01225B1A022B2E
:10A46000D8BF084B2270D8BF1A7070BD0A490E6859
:10A470008642B8BF086019680029E2D12968DFE781
:10A480007C4300208C4300206C4300201C020020F1
:10A4900090460020684300206443002015490B6863
:10A4A0001A6A22F001021A621A6A1A62124A934266
:10A4B0000DD141F21112186A104208D140F2444203
:10A4C000186A104202BF5A6C22F400425A6441F2E8
:10A4D0001112186A104208D140F24442186A104220
:10A4E00002BF1A6822F001021A60012381F83E308F
:10A4F000704700BFE0460020002C0140037F082B7E
:10A5000001D1FFF7CBBF704710B5036804461A6945
:10A5100091070ED5DA6892070BD56FF002021A6127
:10A52000012202779B699B0701D1FFF7E7FF002318
:10A53000237723681A69500710D5DA6851070DD5BB
:10A540006FF004021A61022222779B6913F4407FA4
:10A5500002D12046FFF7D2FF0023237723681A6930
:10A5600012070FD5DA6810070CD56FF008021A61D0
:10A5700004222277DB69990702D12046FFF7BEFF4C
:10A580000023237723681A69D20610D5DA68D0062B
:10A590000DD56FF010021A6108222277DB6913F4DF
:10A5A000407F02D12046FFF7A9FF002323772368CD
:10A5B0001A69D1073AD5DA68D20737D56FF00102A8
:10A5C0001A6123681E4A934231D1FF211D4A1E4C55
:10A5D0001388013B9BB21380236819641B490B78D5
:10A5E000A3B113889BB28BB119480B780268DBB218
:10A5F0005363FFF7DBFD174B174A1B78117899421D
:10A6000014D033B1BDE81040FFF7EAB8FFF746FFBA
:10A61000F1E7137040F20D12104B1A802368DA62D2
:10A620004FF483725A6341F204529A6210BD0C4A8D
:10A63000934201BF0B4A136801331360F6E700BF72
:10A6400000080040824600209846002080460020F6
:10A65000E04600207F4600207E4600207C46002009
:10A66000002C01408446002090F83C30F0B5012BCE
:10A6700032D003680E681A6A22F001021A621A6A5E
:10A680005D689C6922F0020224F0730434438E68F2
:10A690003243124EB3420BD1CE6822F0080232434D
:10A6A00025F44075D1E905673E4322F004023543A5
:10A6B0005D609C614C6809695C631A629A6942F04A
:10A6C00008029A619A6922F004029A619A690A431F
:10A6D0009A61002380F83C30F0BD00BF002C01409F
:10A6E00010B5134CFDF79AFD2368DB6D7BB9012291
:10A6F000236883F8602005F0CFFE4FF0E0234FF091
:10A700008052C3F8042DBFF34F8FBFF36F8FFDF757
:10A710009FFDFDF783FD2368D86D10B100222368EB
:10A72000DA650022236883F86020FDF791FD10BDF3
:10A73000744700202DE988480020FFF75BF90023CB
:10A740002024DFF8B8816E4DC8F800306D4B1A68D0
:10A750006D4B1A600520FFF7C3FF0120FEF768FF6D
:10A76000E88D012180B2FEF78DFF013CF2D1FFF7A9
:10A7700077F888B140F6B737644C654EFFF708FBB1
:10A7800088B923787BB93368BB420CD86420FEF7C4
:10A7900005FFFFF7A5FFF1E74FF4FA60FEF7FEFEB5
:10A7A000FFF79EFFE3E7DFF86C91594E4FF4FA6034
:10A7B000FFF796FF002800F099800120FEF738FF90
:10A7C000D8F800400746002C40F38B80B4F5E17FB9
:10A7D000A8BF4FF4E174FEF745FFA04202DAFEF78E
:10A7E00041FF04464FF47A7B4B4A336811680020DE
:10A7F0005B1ABBFBF3FB3368E41B1360474B1B780E
:10A800004F2B8ABF41232D234FF0410A03FB04F451
:10A8100098BF4FF00A0AFFF7B7F8AB8E9BB243B16F
:10A820000A22AB8E9BB253439842C2BFA88E80B21D
:10A8300050433B4B1B6823B10A2253439842A8BFA5
:10A840001846BAFBFBF33749C3F164030A68640096
:10A850005343642294FBFBF493FBF2F323448342BF
:10A8600003DC40429842B8BF1846086004460146DF
:10A870003846FFF7CDFD2B8D9BB2F3B140F6C411E6
:10A880006B8D29489BB24B4332680168521A934240
:10A8900008D2FA21AA8D336892B2036001FB023319
:10A8A000224A13602B8D9BB29C4206DA1F4A336802
:10A8B00012689A4284BF288D84B247F6DF721C4B1F
:10A8C0009B68C3F38F03934288BF0024194B1B7806
:10A8D000002B0CBF20460020FFF78CF8FEF75EFE31
:10A8E00064E70021FFF794FD0024C4E71423A9F8CE
:10A8F0000030114B1870114B187057E7DC450020E1
:10A90000E0450020744700200C4800206D430020E3
:10A910009046002082460020784300206E430020AD
:10A920007043002074430020944300209043002093
:10A930007C4300208C4300207F460020804600207E
:10A94000034B4FF400720021186805F07FBF00BF71
:10A95000C045002038B505460C46FFF7F1FF2846F4
:10A96000FEF7A0FA074B084A1B6812689B1A41F2CF
:10A970008832934203D8201E18BF012038BD012021
:10A98000FCE700BF904600205846002070B5044602
:10A990000D46FFF7D5FF22460123117849BB013B45
:10A9A00003EB43039B009BB2802B2DD91A4A928C58
:10A9B00092B2012A14BF14220A22B5FBF2F103F16C
:10A9C000800209B291FBF2F002FB10117F2921DD18
:10A9D00099421DDC0BB2114AC3F18003138000239E
:10A9E0000F4A204613800121BDE87040FF22FEF788
:10A9F00025B9F02903D8013201339BB2CDE7517854
:10AA00000029CCD00232F7E7C3F1800203EB6203E6
:10AA10001BB2E0E78023DEE7E0450020DA450020B6
:10AA2000D84500202DE9F3410646DDE908040F462C
:10AA3000984640B94FF0500383F31188BFF36F8FEE
:10AA4000BFF34F8FFEE70CB9FDF7DEFB64230193E4
:10AA5000019B642B08D04FF0500383F31188BFF3A0
:10AA60006F8FBFF34F8FFEE795002A46A521206325
:10AA7000019B05F0EBFE226B043D2A4422F0070205
:10AA8000002F00F096807B1E04F133011F3713F86E
:10AA9000010F01F8010F08B1BB42F8D1002384F87F
:10AAA00053304346052B28BF0523E3626365C3F19A
:10AAB00006030021A3614FF08073A1656161A1626B
:10AAC00024616462E16584F8601042F8043C404B04
:10AAD00026F0010642F8086C42F80C3C42F8201CB3
:10AAE000403A2260FDF79AFB3A4A3B4D13683B4ED1
:10AAF000013313602B68002B5ED12C601268012A91
:10AB00002ED132464FF0FF3C14201F4602F10801BF
:10AB1000C2E9011CC2E9031100FB03F10133062B5A
:10AB2000775002F11402F1D12D4A02F10803C2E973
:10AB3000013CC2E903332B4B176003F10801C3E961
:10AB4000011CC3E9031128491F6001F108000F60CF
:10AB5000C1E9010CC1E9030024490A60244A1360D9
:10AB6000244A254913680868013313600123E26A07
:10AB70009340034314200B6000FB0260211DFDF78E
:10AB800008FDFDF765FB1D4B1B6873B12B68DA6A86
:10AB9000E36A9A4209D24FF0E0234FF08052C3F8A3
:10ABA000042DBFF34F8FBFF36F8F204602B0BDE877
:10ABB000F08184F8347074E7104B1A68E36A002A55
:10ABC000CED12A68D26A9A4298BF2C60C8E700BFEB
:10ABD000E781000878460020744700208C47002059
:10ABE00000290020EC280020784700207046002033
:10ABF0006C460020142900200448002060460020F4
:10AC000037B50446D0E90010A569B4F908302269C7
:10AC100001956469842B0CBF002303330094FFF774
:10AC200001FF03B030BD0000F0B52C2205460C46F4
:10AC30003D48002185B005F009FE3B4A2B1D174613
:10AC40002C35164618685968083303C6AB4232469D
:10AC5000F7D11868FF2330608DF80B300023ADF872
:10AC60000E30ADF80C308DF80A308DF809300DF14A
:10AC7000090301930DF10A0300930DF10E0203ABDA
:10AC80000B200DF10B01FEF7FBFE09222023A27021
:10AC9000E37000283BD09DF80B00BDF80E2057F85C
:10ACA0002030BDF80C10A3609DF80930DBB10525FC
:10ACB00019260B1DB3FBF5F3B2FBF6F61B4D03F0A3
:10ACC0007F0305EA46252B4301304A4343EA0073DC
:10ACD00043F0A0736360164BB2FBF3F2154B1A609E
:10ACE000012005B0F0BD9DF80A3053B105250B1DBC
:10ACF000B3FBF5F31426104DB2FBF6F603F07F0319
:10AD0000DFE70E4BC1F3090503EA8123DBE73B686C
:10AD1000A360642323716FF06F0363710123A37138
:10AD20001123E371DCE700BFE83E002000F80F00CC
:10AD3000A08601007043002000FE0F0000FC0F0001
:10AD4000F0B505462C220C463648002185B005F0AA
:10AD50007DFD344A2B1D05F11C07164618685968FD
:10AD6000083303C6BB423246F7D118682E4B306019
:10AD700001261E70FF2368888DF80B300023ADF884
:10AD80000E30ADF80C308DF80A308DF809300DF129
:10AD9000090301930DF10A0300930DF10E0203ABB9
:10ADA0000DF10B01C0F30230FEF76AFE0222102300
:10ADB000A270E37068B39DF80B009DF80A30304430
:10ADC000BDF80E20BDF80C100007DBB105251426D8
:10ADD0000B1DB3FBF5F3B2FBF6F6144D03F07F0346
:10ADE00005EA46252B4303434A4343F0807343F46B
:10ADF000800363600E4BB2FBF3F20E4B1A6001202E
:10AE000005B0F0BD0C4B03EA81230343C1F30900F5
:10AE1000E9E7642323716FF06F0363711123A67157
:10AE2000E371ECE7E83E00206D43002000FE0F00D8
:10AE3000A08601007043002000FC0F0070B50146A1
:10AE4000FEF7F8FE00B3114A89B1D2F8E83002F1FA
:10AE5000680404EB43140B4604F12006254603CD99
:10AE6000B542186059602C4603F10803F6D1D2F8B8
:10AE7000E83092F8F010013303F00303C2F8E83031
:10AE800011B10BB982F8F03070BD00BF143F002043
:10AE900010B5184C88B0216C01F07F412164FEF799
:10AEA000C9FE18B36846FFF7C9FF47F21F02BDF895
:10AEB00002301A40012A12D194F82D20C3F3422304
:10AEC00093420CD1226C013303F0070342F00402D9
:10AED00094F8350084F82D30226408B010BD236C3E
:10AEE00043F00803236494F83600F6E741F00801C4
:10AEF0002164F8E7143F00202DE9F041A74C88B009
:10AF000094F834510E2D00F0628200F28E80072DED
:10AF100000F0758114D8032D00F0678308D8012D47
:10AF200000F00E83022D40F0EA82FFF7B1FF8EE0C1
:10AF3000052D00F02381062D00F03A81052086E0E2
:10AF40000B2D00F0C3812ED8092D00F0A2810A2D0F
:10AF500040F09981236C924E03F07F432364FEF707
:10AF600069FE002800F099813046FFF767FFB4F8CA
:10AF70004A3003F01F02032A40F09581B4F81631DD
:10AF800003F4E043B3F5005F0CBF0123002384F812
:10AF9000723103D123699847C4F83C0141F28832E9
:10AFA00003210B20F7E00C2D40F008820022236CD7
:10AFB00022645A0600F163819F0600F13C821E065E
:10AFC00000F1F681D80500F11881D90400F1F28171
:10AFD0009A0400F1D1809B0740F1728147F21F076C
:10AFE0006F4EFEF727FE002800F06A813046FFF71B
:10AFF00025FFB4F84A2002F01F010F2902D112F4F4
:10B00000E04FEED102EA0703052BEAD0A3F10900D5
:10B01000022808D9072B06D0022940F0858112F4B6
:10B02000E04F00F0E482152011E0172D00F02A8295
:10B0300065D8132D00F0F28114D8112D00F0DC81B9
:10B04000122D00F0E2810F2D00F0CC81032085420B
:10B0500084F834017FF454AF002D7FF451AF08B071
:10B06000BDE8F081152D00F0F881162D40F0DC814F
:10B07000B4F84C60700500F10E824FF01A08C6F368
:10B08000C32608FB06F8B4F84A20002E40F02182BF
:10B09000444B03F1F60203F1180C1746186859687F
:10B0A000083303C763453A46F7D1186838609B8870
:10B0B000BB80B4F84A70C7F3023308EB8308B4F8D6
:10B0C0004231A8F10208C3F30803984580F20C82CC
:10B0D0001A220021344805F0B9FBE38D07F01F0761
:10B0E00001361F43F60247F4104746F404460F2189
:10B0F00017202B4AA4F84A70A4F84C60C6E01B2D18
:10B1000000F033822CD8192D00F0F0811A2D40F078
:10B11000D780236998472549C4F83C01E36901F1C8
:10B120002C009847002800F02981D4F818311B0F13
:10B1300004EB8303D3F8403103F04042B2F1404FB7
:10B1400040F0118213F0405F0CBF01230023E28D19
:10B1500084F83531B4F816311343A4F816318EE073
:10B160001C2D00F017821D2D7FF470AF0C4EFEF7E2
:10B1700061FD002840F022821C2068E7002384F84B
:10B18000303084F8353123642369984742F21072D5
:10B19000606423210620FEF75DFD58E7143F002080
:10B1A0005C3F00205E3F0020623F002028400020DE
:10B1B0000022236C226499063FF5C0AEAF4EFEF725
:10B1C00039FD00283FF4BAAE3046FFF737FEB4F839
:10B1D0004A2002F01F03012BF1D112F4E04FEED010
:10B1E000E38D13F0C00F08D102F0C0027F2A8CBF9C
:10B1F00043F0800343F04003E385072027E7FF2364
:10B2000084F833300023B4F84A209C49C2F3023258
:10B2100093420CD051F8040F013300F04046B6F1D0
:10B22000404FF5D110F0405FF2D184F83330E36C39
:10B230009349C3F3C062C3F3C05384F8713184F8F7
:10B240002C20A369A1F1CC009847002800F096803B
:10B25000E38DB4F816211A4303F0C003802BA4F841
:10B2600016210CD1D4F81831002B4FEA137208DBE9
:10B2700094F833309A4204D3012384F835310820FE
:10B28000E5E60023F9E70F2109207D4AFEF700FDDE
:10B29000DDE6236C03F07F43236440F68C2240F606
:10B2A00003010A2077E70D2A00F0D58003F0170389
:10B2B000042B7FF454AE94F83030002B3FF43EAEB4
:10B2C0004FF0FF3243F6FF710C2064E7236C6B4EA6
:10B2D00003F07F432364FEF7ADFC08B91220B6E605
:10B2E0003046FFF7ABFDB4F84A3003F01F03062BDE
:10B2F00017D1002384F8313094F8713163B194F898
:10B3000070314BB194F8723133B9012384F8313084
:10B31000236C43F480532364012384F830300C20E1
:10B3200095E6012BD7D168E704293FF478AE022BCC
:10B330003FF479AE012903D112F4E04F7FF45DAF01
:10B34000082B39D00D2B00F086800A2918D112F471
:10B35000E04F15D094F84A30032B03D1012384F831
:10B3600072313EE6042B03D1002384F87231D6E714
:10B37000052B7FF436AE002384F87231062066E692
:10B38000E08D00F0C00080287FF42BAE17040AD5B2
:10B39000B4F84C20C2F30802192A04D911290CBFB1
:10B3A0001620152053E6102B14BF122018204EE64D
:10B3B0000D204CE61B204AE60E2048E6E38D43F0C4
:10B3C0000703A4F84A300F212C4A0C205EE7E18DD8
:10B3D000636901F0C0017F2994BF00210121274842
:10B3E0009847F0E794F93230022B00F3868001335E
:10B3F00084F8323010202AE6E38D6A4643F00D03CC
:10B400000F210520ADF8023040E7E38D0F2143F016
:10B410000D031320194AA4F84A3037E740F68C226E
:10B4200040F603011420B6E6236C03F07F43236447
:10B43000FEF700FC08B90F2009E61048FFF7FEFCF4
:10B44000B4F84A3023F47E635B045B0C032B3FF4B7
:10B4500075AD0D2BEFD11120F9E5E38D03F0C0029E
:10B46000402A06D143F00403A4F84A301221034ACB
:10B47000ABE7802AFAD143F01003F5E75C3F0020E8
:10B48000284000200022236C22649E0703D55A4ED8
:10B49000FEF7D0FB28B94FF0FF3243F6FF711720BB
:10B4A00079E63046FFF7CAFCE38D03F0C003802B3A
:10B4B000EED1B4F94A20B4F84A30002AE8DAB4F8F8
:10B4C0004C20C2F30802192AE2D903F01F03112B02
:10B4D00065E7C2F3023208F5A27092004749023ACA
:10B4E000204405F0BBF9E4E51A20B0E500234FF451
:10B4F000FA6084F83030236A98471920A7E5236959
:10B500009847E36B984282BF236C43F40063236443
:10B51000206C01050AD594F8343000F07F40113BCF
:10B52000032B20648CBF1220032090E5C2073FF557
:10B5300061AFA36B18403FF48AAD94F8340086E500
:10B540000022236C22649B0508D5FEF773FB0028BC
:10B550007FF4EBAC0221782208461CE6082394F81D
:10B560003600236473E50023F1E523699847E38DF2
:10B57000C4F83C0143F4805343F00A03A4F84A3072
:10B5800094F870311B0443F08073E3641BE70020E0
:10B59000FFF754FCFEF74EFB0028F8D1012384F896
:10B5A0003130E38D0C2143F4104343F01003A4F831
:10B5B0004A30134B1D20104AE36467E63046FFF71C
:10B5C0003DFCB4F84A3003F01F03102B7FF4CFADDD
:10B5D00094F84E30042B7FF4CAAD002384F8313048
:10B5E00023699847C4F83C0199E604202FE5022B13
:10B5F0007FF4A6AE17E500BF5C3F0020623F00204D
:10B60000028003002DE9F0472F4E782230462F4963
:10B6100005F032F9002847D0FDF7C0FF35232C4D47
:10B620002C4CEB6004F0B8FF0120FCF789FEFDF71D
:10B63000B5FF237E012B16D001232376FEF76CFD88
:10B6400078B9E0612B6943F002032B616E612B69CD
:10B6500043F040032B61FEF75FFD2B6923F00203EB
:10B660002B610023237604F097FF4FF00109174F59
:10B67000154D174EDFF86080FDF790FF237E012BFC
:10B6800008D0B7F800A084F81890FEF745FD68B11F
:10B69000002323760235454507F10207ECD10C4A19
:10B6A000136943F080031361BDE8F087E0613369FB
:10B6B00043F001033361A5F800A0FEF72DFD3369C7
:10B6C00023F001033361E3E700FC0108E0450020BB
:10B6D00000200240983C002078FC0108F8B545F2B3
:10B6E000AA54234B1A8892B2A2423AD01846782222
:10B6F000FF2105F0ABF80480034601245A6F0132A4
:10B700001CBF4FF0FF325A675A8818BF012492B20B
:10B71000362A08D84FF6FF715A8892B2362A22DDAF
:10B72000372201245A800022124903EB4206B588D1
:10B730000F88ADB2AF424FEA420004D8B5884E88B8
:10B74000ADB2AE4203D2CC881844848001240132C9
:10B75000372A01F10801E8D10CB1FFF753FF204669
:10B76000F8BD0024CAE703EB420081800132D5E72F
:10B77000E0450020120000200E4B1A6842F0010242
:10B780001A6059680C4A0A405A601A6822F084729A
:10B7900022F480321A601A6822F480221A605A68F1
:10B7A00022F4FE025A604FF41F029A60034B044ACF
:10B7B0009A607047001002400000FFF800ED00E0C2
:10B7C0000080000804224349F0B4CE6B086C356851
:10B7D0000B6802FA00F72F421C6828D0670726D5AD
:10B7E0003D498B4216D03D4A934215D014329342C4
:10B7F00014D01432934214D01432934214D0143221
:10B80000934214BF4FF080634FF48003344A536077
:10B81000F0BC70471346F9E74023F7E74FF4806325
:10B82000F4E74FF48043F1E74FF48023EEE7022280
:10B8300082402A4239D0A70737D51A68900606D425
:10B840001A6822F00A021A60012281F82120224A95
:10B8500093421DD0143293421CD0143293421BD019
:10B86000143293421BD0143293421BD014329342B1
:10B8700014BF4FF000734FF40013194A53600023B4
:10B8800081F820308B6A002BC2D0F0BC11481847D9
:10B890000223F2E72023F0E74FF40073EDE74FF4C3
:10B8A0000053EAE74FF40033E7E7082282402A42D8
:10B8B000AED02207ACD51A6822F00E021A6001231E
:10B8C00003FA00F070608B634FF480730B840B6B92
:10B8D000D9E700BF40480020080002401C00024099
:10B8E000000002400148FEF70FBE00BF28470020BD
:10B8F000044B05491868054A88420CBF1846104693
:10B90000FEF702BEE04600200004004098460020FA
:10B91000044B054A1868B0F1804F0CBF184610461A
:10B92000FEF7F2BDE046002098460020044B054992
:10B930001868054A88420CBF18461046FEF7E4BD59
:10B94000E04600200008004098460020000000006B
:10B95000074B19680868B0E8F00F80F30988BFF357
:10B960006F8F4FF0000080F311884EF00D0E70477E
:10B9700074470020000000000000000000000000EC
:10B98000EFF30980BFF36F8F0D4B1A6820E9F00FBA
:10B9900010602DE908404FF0500080F3118800F04E
:10B9A0008BF94FF0000080F31188BDE8084019685A
:10B9B0000868B0E8F00F80F30988BFF36F8F704715
:10B9C00074470020002337B5026801939368DB07B2
:10B9D00002D5002003B030BD9368124943F0010343
:10B9E0009360114B1B68B3FBF1F30193019BABB95F
:10B9F0000E4C2568936813F00103EAD12168491BB6
:10BA00000229F7D9826A80F8243042F0100282625B
:10BA1000C26A42F00102C2620120DBE7019B013BE6
:10BA2000E3E700BF40420F002002002084460020D0
:10BA3000002337B5019390F824300446012B5FD0E2
:10BA4000012380F82430FCF739FC0546002839D161
:10BA5000A36A2C4823F4885323F0020343F0020323
:10BA6000A362294B1A68294B59685B68C1F3C2214C
:10BA7000415CC3F38133013322FA01F15B00B1FB76
:10BA8000F3F3B2FBF3F252000192019BF3B92046AB
:10BA9000FFF798FF23689A6842F008029A601C4AF0
:10BAA00010689968090715D4996841F004019960F4
:10BAB0001068996849071ED4A36A23F0030343F072
:10BAC0000103A362002384F8243011E0019B013BB1
:10BAD0000193DAE71168091A0A29E2D9A36A012554
:10BAE00023F0120343F01003A362002384F82430F0
:10BAF000284603B030BD1168091A0A29D9D9EDE7E3
:10BB00000225F5E76C3401082002002000100240F5
:10BB100084460020134A036890420AD0B0F1804F57
:10BB200007D0A2F59432904203D002F58062904291
:10BB300007D14A6823F070031343CA6823F44073A3
:10BB400013434A6923F08003134303608B68C36285
:10BB50000B688362034B984204BF0B6903630123A4
:10BB600043617047002C01401FB590F83D300446FA
:10BB700003F0FF0200687BB9254B84F83C20984213
:10BB800028D103F50333DA6942F00202DA61DB6996
:10BB900003F002030293029B0223211D84F83D302F
:10BBA000FFF7B8FF0123002084F8463084F83E30C8
:10BBB00084F83F3084F8403084F8413084F84230D3
:10BBC00084F8433084F8443084F8453084F83D30BC
:10BBD00004B010BDB0F1804F0AD10E4BDA6942F0CB
:10BBE0000102DA61DB6903F001030193019BD3E7F2
:10BBF000094B9842D0D103F50233DA6942F00402CE
:10BC0000DA61DB6903F004030393039BC4E700BF1D
:10BC100000040040001002400008004013B500215D
:10BC20001920FEF74DFA4FF000721B4B1B4C1A60A7
:10BC30001B4B20469A6942F400629A619A6902F4A9
:10BC400000620192019A5A685A685A685A68154AFD
:10BC500012685B68144AC3F3C223D25C134B2161A0
:10BC60001B68A160D340124AB3FBF2F3114A013BB7
:10BC7000226040F2E7326360E260FFF775FF48B987
:10BC800094F83D30012B05D1204602B0BDE81040AC
:10BC900004F060BC02B010BD00E100E028470020C5
:10BCA00000100240002002406C34010820020020F5
:10BCB00040420F00002C014038B51F4B1A681F4B43
:10BCC00012B101221A6038BD1D481A6003681B6B4F
:10BCD0001A68B2F1A53F0BD15A68B2F1A53F07D15E
:10BCE0009A68B2F1A53F03D1DB68B3F1A53F03D059
:10BCF00003680368FDF740FC124B1A68B2FA82F23F
:10BD00001423D2B2C2F11F0253430F49CD58CC18AD
:10BD10000DB9FCF779FA656808336D680B44656006
:10BD20009D4204BF6B686360142303FB02114B68E0
:10BD3000DB680360C7E700BF0848002070470020A9
:10BD400074470020044800208C47002030B50C6860
:10BD5000631C0AD103695A684A6091608B6059601C
:10BD6000036808610133036030BD00F10802134627
:10BD700052681568A542FAD9EDE70369D0E90112C6
:10BD80008A6051605968814208BF5A60002202618E
:10BD90001A68013A1A601868704700002DE9F041EE
:10BDA000564C23685A68910623D51A68920720D505
:10BDB000A26AD7065EBFA26A42F40072A2629A68C3
:10BDC00002F46022B2F5602F10D1E26872B95A68AD
:10BDD00022F020025A60A26A22F48072A262A26A51
:10BDE000D6045EBFA26A42F00102A2626FF01202A4
:10BDF0001A605A6815067AD51A68500777D5A26A6C
:10BE0000D1065EBFA26A42F40052A2629A6802F4AE
:10BE1000E042B2F5E04F0AD05A68520516D49A684B
:10BE200002F46022B2F5602F10D1E26872B95A684C
:10BE300022F080025A60A36A23F48053A362A36AAB
:10BE4000DB055EBFA36A43F00103A3622C4B1D68B0
:10BE5000002D48D0FCF70AFAEFF311874FF050039A
:10BE600083F31188BFF36F8FBFF34F8F022395F8D1
:10BE7000602085F86030EB6D012A03F10103D6B232
:10BE8000EB6502D087F311882DE0AB6A0BB1FCF7AC
:10BE9000BBF91C4B1B6863BB05F104084046FFF768
:10BEA0006CFF194A1420EB6A11689E400E4341460C
:10BEB0001660164A00FB0320FCF76BFB144BEA6A82
:10BEC0001B68DB6A9A42DDD90122124B1A6087F3A4
:10BED00011884FF0E0234FF08052C3F8042DBFF3D8
:10BEE0004F8FBFF36F8F6FF00C0223681A60BDE8AD
:10BEF000F081094805F11801DEE700BF1048002075
:10BF00000C48002008480020044800208C470020EE
:10BF1000744700207047002078470020F8B52E4B6A
:10BF20005A6912061ED580225A612C4B1C68CCB16E
:10BF3000FCF79CF9EFF311864FF0500383F311885F
:10BF4000BFF36F8FBFF34F8F022394F8602084F804
:10BF50006030E36D012A43F00103D5B2E36502D0FE
:10BF600086F31188F8BDA36A43B14FF0500383F301
:10BF70001188BFF36F8FBFF34F8FFEE7184B1B681D
:10BF800033BB271D3846FFF7F8FE164A1420E36A34
:10BF900011689D400D4339461560134A00FB03208C
:10BFA000FCF7F7FA114BE26A1B68DB6A9A42D7D9B1
:10BFB00001220F4B1A6086F311884FF0E0234FF0F7
:10BFC0008052C3F8042DBFF34F8FBFF36F8FC9E7C3
:10BFD000084804F11801E3E70004014094460020FA
:10BFE00008480020044800208C47002074470020A7
:10BFF00070470020784700203D4B2DE9F74F1B6824
:10C00000002B6DD13B4B1C6801341C6084B93A4B4A
:10C010001A6812680AB1FCF7B3FA384A196810684E
:10C0200018601160364A136801331360FCF786FA12
:10C03000344D4FF0000B2B68334EA342334F12D9CF
:10C0400014213A68D26A4A43B258022A304A28BFB9
:10C050004FF0010B1268002A18BF4FF0010B584631
:10C0600003B0BDE8F08FDFF890A0DFF8A890DAF811
:10C07000002012681AB94FF0FF322A60E0E7DAF8C0
:10C080000020D268D2F80C80D8F804108C4201D27B
:10C090002960D5E708F1040318460193FFF76DFE08
:10C0A000D8F8281019B108F11800FFF766FE01232F
:10C0B000D8F82C20D9F8000003FA02F1014314202B
:10C0C000C9F8001000FB026001990192FCF761FAC7
:10C0D0003968019AC96A8A4228BF4FF0010BC6E746
:10C0E0000D4A4FF0000B136801331360B7E700BF30
:10C0F0000848002090460020704600206C46002032
:10C1000068460020644600208C47002074470020C9
:10C1100070470020044800207446002008B5FCF752
:10C120001FFA012813D04FF0500383F31188BFF397
:10C130006F8FBFF34F8FFFF75FFF28B14FF0E02302
:10C140004FF08052C3F8042D002383F3118808BDFB
:10C1500032492DE9F0470B6843B94FF0500383F3A0
:10C160001188BFF36F8FBFF34F8FFEE7FCF756F8D0
:10C170000B68013B0B600C6824B10020FCF768F8E9
:10C18000BDE8F087264B1B68002BF6D0254E264FC6
:10C19000DFF8989020E0F3684FF00108DC6804F1C4
:10C1A000040A04F11800FFF7E8FD5046FFF7E5FD2B
:10C1B0001420E56A3A6808FA05F31343514600FB78
:10C1C00005903B60FCF7E5F9194B1B68DB6A9D4263
:10C1D00002D3184BC3F800803368002BDBD10CB1BD
:10C1E000FCF7ACF9144D2C6844B10127114EFFF750
:10C1F00003FF00B13760013CF9D12C600D4B1B6887
:10C20000002BBAD04FF0E0234FF08052C3F8042D3A
:10C21000BFF34F8FBFF36F8F0120AFE708480020B7
:10C220007846002078470020044800208C470020F2
:10C23000744700207047002074460020174B10B54B
:10C240001B6843B14FF0500383F31188BFF36F8F26
:10C25000BFF34F8FFEE7FCF759F9114B02681B68DB
:10C2600051182CBF012400249A420FD97CB90160D7
:10C27000FFF76EFF48B94FF0E0234FF08052C3F84C
:10C28000042DBFF34F8FBFF36F8F10BD0CB98B42DE
:10C29000EDD20160C81A04F0FFF8E9E70848002071
:10C2A0009046002008B50B4B1B680BB1FBF7ACFFA9
:10C2B000FCF72CF904F0F0F8FFF74AFF48B94FF00B
:10C2C000E0234FF08052C3F8042DBFF34F8FBFF32C
:10C2D0006F8F08BD084800202DE99F48FDF7A6FA9A
:10C2E000002800F09580FDF743FD002800F09C80B9
:10C2F00001210C20FDF78EFC002800F09580B14D47
:10C300000A20EB6898470624FDF718FD002800F086
:10C3100083800F210B20FDF77DFC002800F0848036
:10C3200000210A20FDF776FC00287DD000210E2098
:10C33000FDF770FC002877D000210F20FDF76AFC84
:10C34000002871D00C210620FDF764FC00286BD07A
:10C3500007210920FDF75EFC002865D00021082098
:10C36000FDF758FC00285FD004210720FDF752FCA0
:10C37000002859D007210220FDF74CFC002853D09B
:10C380000A20EB68984740218E48FCF75BFA0B21A6
:10C3900004460220FDF73EFC002845D00A20EB6849
:10C3A000984740218748FCF74DFA04F0030400F059
:10C3B0000300844240F2988025210320FDF72AFCE7
:10C3C00090B307210220FDF725FC68B34421062025
:10C3D000FDF720FC40B304210720FDF71BFC18B338
:10C3E00002210C20FDF716FCF0B10123802003246C
:10C3F00075498DE81B0069467448FBF7ABFF0A21BD
:10C400001720FDF75DFE4FF40002714B1A600BE040
:10C410000320FFF747FF61E70A20EB68013C9847DC
:10C4200014F0FF047FF470AFFEF766FDDFF89C9117
:10C43000684DD9F80830684C13F0800F5CD1D9F8FA
:10C4400008301B062AD46B4607223C2166682078F8
:10C45000B04718B39DF80330DF070AD55E4E06F1EA
:10C46000F60B06F1F80A41213046FCF7EBF980069D
:10C4700078D59DF802305E0700F1DB80D90642BF17
:10C48000226C42F4806222641A0607D59DF80530BA
:10C490009B0742BF236C43F02003236494F835319B
:10C4A0007BB123699847D4F83831C01AB0F57A7F48
:10C4B00007D9236C43F04003236423699847C4F8E9
:10C4C000380194F8723153B123699847D4F83C315C
:10C4D000C01AC82882BF236C43F400532364FEF7BC
:10C4E0000BFDFDF755FCA4E726210320FDF792FB89
:10C4F000002899D00B2165E7FBF790FE2B6893F895
:10C500006030022B13D02B683220DA6DDA650122FD
:10C510002B6883F8602003F0BFFF4FF0E0234FF05B
:10C520008052C3F8042DBFF34F8FBFF36F8FFBF71B
:10C530008FFEFBF773FE2B6893F86030022B03BF6E
:10C540002A680121D36D002104BF03F07F43D36526
:10C5500000222B6883F86020FBF77AFE00293FF465
:10C560006EAF70E743213046FCF76CF95B46022260
:10C570004321676800F0E0082078B847B4F8F63047
:10C5800013F4E04FC3F3023205D0534643216768EA
:10C5900020789200B8470422432167680F4B207827
:10C5A000B847B8F1E00F7FF45EAFB4F8F63023F48B
:10C5B0007E635B045B0C0D2B12D1236C43F00103F3
:10C5C000236450E7B83C002000002110000C01401B
:10C5D00000E100E074470020143F0020C83C002028
:10C5E000D4F8EC30154F07EB431C8C370FCFACE879
:10C5F0000F0097E80F008CE80F00D4E93A239A4225
:10C6000003F1010306D194F8F0201AB103F00302FC
:10C61000C4F8E820D4F8E82003F003039342C4F8F8
:10C62000EC3004BF012384F8F030236C43F00203A4
:10C63000C6E7226C42F4007222641FE77C3F0020B0
:10C64000012838BF0120FFF72DBE000038B5C368B0
:10C65000DC680CB9FBF7D8FD04F118052846FFF794
:10C660008CFB114B1B68E3B9251D2846FFF785FBA2
:10C6700001230E49E26A08689340034314200B60CB
:10C6800029460B4B00FB0230FBF783FF094BE26AA4
:10C690001B68DB6A9A4285BF0120074B00201860A7
:10C6A00038BD29460548EFE7084800200448002027
:10C6B0008C470020744700207047002078470020F6
:10C6C0002DE9F04104464FF00108FBF7A7FD90F873
:10C6D00045501A4F6DB200F12406002D01DD636A4A
:10C6E000CBB9FF234FF0010884F84530FBF7B0FDCC
:10C6F000FBF794FD94F84450104F6DB204F110060E
:10C70000002D01DD23697BB9FF2384F84430BDE8A7
:10C71000F041FBF79DBD3046FFF798FF08B1C7F821
:10C720000080013D6DB2D8E73046FFF78FFF08B1BA
:10C73000C7F80080013D6DB2E2E700BF70470020FE
:10C740002DE9F04F044685B040B94FF0500383F314
:10C750001188BFF36F8FBFF34F8FFEE7056C45B1B4
:10C760004FF0500383F31188BFF36F8FBFF34F8FE8
:10C77000FEE7FBF7F5FE40B94FF0500383F3118855
:10C78000BFF36F8FBFF34F8FFEE764212846DFF8BA
:10C79000A092DFF8A0A2A84FB1E021B9002D00F0CF
:10C7A0004381FBF7EDFE20B9D9F80030DAF80080BC
:10C7B0000193FBF74DFDFBF7A9FEFBF72FFD94F866
:10C7C0004430FF2B04BF002384F8443094F84530F4
:10C7D000FF2B04BF002384F84530FBF739FDFBF73E
:10C7E0001DFDDAF800300198D9F80020824201D00E
:10C7F000434579D2A3EB08028A4275D2C91A01EBEC
:10C8000008060021D9F80030DAF800800193FBF720
:10C810001FFD002940F0A980FBF700FDA36B002B52
:10C8200064D1A346FBF714FD5BF8243B002B42D1F7
:10C83000FBF7F4FCA568002D3AD03B68EA6ADB6A96
:10C840009A4280F08A801420AB696969002BA1BFED
:10C850003B68DB6AC3F10603AB61784B00FB023037
:10C86000814276D1291D084602910392FFF785FA8D
:10C87000DFF8CCC10299714B50B94FF0010E039A09
:10C88000DCF800000EFA02F220EA0202CCF80020E6
:10C890003A68D06A0122E862DCF8005082402A43FC
:10C8A000CCF80020142202FB0030FBF772FE0121BD
:10C8B000FBF7CEFC0D46396858461831FFF746FAAB
:10C8C000304603F0E9FD2046FFF7FAFEFFF740FC93
:10C8D00098B94FF0E0234FF08052C3F8042DBFF316
:10C8E0004F8FBFF36F8F08E0012190E72046FBF7E1
:10C8F000AFFCFFF7E5FEFFF72BFC31460120FBF70D
:10C900008DFCA66B002E3FF448AF2368013EA66362
:10C9100043B9494B1A681AB119688A6D01328A65A0
:10C920001B68A360236973B104F11000FFF78EFE4A
:10C9300048B14FF0E0234FF08052C3F8042DBFF30D
:10C940004F8FBFF36F8FFBF783FC012005B0BDE86D
:10C95000F08F3B68DB6AEB62A9E73B68696DDB6AD5
:10C9600099422CBF00210121A2E72046FFF7A8FE33
:10C97000FFF7EEFBFBF752FCA36B13B1FBF768FC70
:10C98000BBE7FBF765FC002D50D0FBF747FC656A61
:10C990001DB1236B1D68C5F10605A468002C43D0AA
:10C9A000A26D42B94FF0500383F31188BFF36F8F2C
:10C9B000BFF34F8FFEE7636D9D4238BF1D46E36AAC
:10C9C0009D4231D0012A2FD11B4A1268944208D1CE
:10C9D0004FF0500383F31188BFF36F8FBFF34F8F76
:10C9E000FEE7A269154E002AA4BFC5F10602A261A6
:10C9F000142202FB03636269E5629A4214D1043493
:10CA00002046FFF7BAF901230D4AAB4018B9116867
:10CA100021EA030111601420116800FB05600B433B
:10CA200021461360FBF7B5FDFBF712FC00208DE7F4
:10CA30006846002090460020744700208C47002064
:10CA40000448002008B5044B1868FFF779FE431E20
:10CA50005842584108BD00BFE43700202DE9F84393
:10CA6000044640B94FF0500383F31188BFF36F8F32
:10CA7000BFF34F8FFEE7016C41B14FF0500383F3DA
:10CA80001188BFF36F8FBFF34F8FFEE7FBF768FD91
:10CA9000FBF7C4FBA26BE36B9A4272D2226CA76BCA
:10CAA000002A5FD12368B3B100250137A763626A0A
:10CAB000002A64D004F12400FFF7C8FD002860D0EC
:10CAC0004FF0E0234FF08052C3F8042DBFF34F8F97
:10CAD000BFF36F8F55E0A5681DB900250022A26045
:10CAE000E3E72A4B1B689D4208D04FF0500383F3C5
:10CAF0001188BFF36F8FBFF34F8FFEE7AB6D43B964
:10CB00004FF0500383F31188BFF36F8FBFF34F8F44
:10CB1000FEE7D5F82C906E6D013BB145AB65DCD0DE
:10CB2000002BDAD105F104084046FFF726F9184B2F
:10CB300030B901211A6801FA09F122EA01021A60EA
:10CB4000C6F10602EE62AA6101251420196805FAF1
:10CB500006F20A431A600F4B414600FB0630FBF712
:10CB600018FDBBE7606803F079FE6368226C13442C
:10CB7000A2686360934297D32368636094E7002DB3
:10CB80009ED1BDE8F843FBF763BB00BF74470020AC
:10CB9000044800208C470020014B1868FFF75EBF57
:10CBA000983700202DE9F0411F46284B04461868AD
:10CBB0000E461546FFF7C4FD012809D12046FBF7B4
:10CBC0004DFEFBF7B1FE38B9FBF766FEFFF7E4FF59
:10CBD00000263046BDE8F0813046FBF7A5FE002870
:10CBE000F2D04FF480021A4B1A610F2300BF013BB1
:10CBF000FCD144F00100FBF731FEFBF795FE064641
:10CC00000028E1D02946DFF8488021B9FBF744FE2F
:10CC1000FFF7C2FFDDE708250024FBF755FE64009F
:10CC2000E4B2013D044315F0FF05E4B2F5D1202341
:10CC300001290CBF08462846C8F810300139FBF717
:10CC40005BFE89B207F8014BDFE700BF9837002091
:10CC5000000C0140F8B51E46164B074618680D46F5
:10CC60001446FFF76DFD012809D13846FBF7F6FDA4
:10CC7000FBF75AFE30B9FBF70FFEFFF78DFF0025DB
:10CC80002846F8BD2846FBF74FFE05460028F2D09F
:10CC9000013E24B9FBF700FEFFF77EFFF0E7FCF74B
:10CCA0007DFC16F8010FFBF73FFE0028E3D0013CA6
:10CCB000A4B2EEE798370020014B1868FFF7CEBE0C
:10CCC000E437002038B50546FFF7BCFE044648B1FE
:10CCD0002846FBF797FEFBF7FBFE0446FBF7B0FE8A
:10CCE000FFF7EAFF204638BD2DE9F04105460E4624
:10CCF00017461C46FFF7A6FE50B1EDB22846FBF7DB
:10CD000081FEFBF7E5FE38B9FBF79AFEFFF7D4FF8B
:10CD100000263046BDE8F081F0B2FBF7D9FE0028CE
:10CD2000F2D04FF48032194B1A610F2300BF013B40
:10CD3000FCD145F00100FBF765FEFBF7C9FE064696
:10CD40000028E1D0DFF8448008250021FBF790FEA1
:10CD50004900C9B2013D014315F0FF05C9B2F5D143
:10CD60000223012C08BF204604F1FF3418BF2846D7
:10CD7000C8F81030A4B2FBF793FE07F8011B002C93
:10CD8000E2D1FBF75DFEFFF797FFC2E7000C014021
:10CD9000002307B58DF807300DF107020123FFF7D7
:10CDA000A3FF9DF8070003B05DF804FB70B50646CD
:10CDB0000D461446FFF746FE48B1F0B2FBF722FEDF
:10CDC000FBF786FE30B9FBF73BFEFFF775FF00244B
:10CDD000204670BDE8B2FBF77BFE0028F3D0FCF7DD
:10CDE000DDFB2078FBF774FE04460028EBD0FBF750
:10CDF00027FEFFF761FFEBE707B50A4B5A3893F8B8
:10CE00004020C0B2824209D083F840008DF807006C
:10CE1000802178200DF10702FFF7C8FF03B05DF80D
:10CE200004FB00BFCB01002010B5094CB4F846004C
:10CE300080B2003818BF0120FCF784FAB4F846002D
:10CE4000BDE8104080B2003818BF0120FFF7D4BF02
:10CE5000E04500202DE9F341804616460C460027A8
:10CE60006378404621780DF107028DF80730FFF70F
:10CE70009DFF054640B1A07808B1FBF761FA013784
:10CE8000B74204F10304EBDB284602B0BDE8F081B1
:10CE9000064991F82E30834206D081F82E000222F6
:10CEA00078202A31FFF7D6BF704700BFCB010020A2
:10CEB000192310B5094CB4F8480080B2B0FBF3F068
:10CEC0000123013080B21A461946FCF770F8B4F815
:10CED0004800BDE81040C0B2FFF7DABFE0450020CF
:10CEE00038B50446FFF7AEFDB8B17820FBF78AFDF0
:10CEF000FBF7EEFD28B9FBF7A3FDBDE83840FFF7CF
:10CF0000DBBE064D15F8010BFBF7E2FD0028F2D061
:10CF1000013CA4B2002CF5D1EDE738BD9C430020C4
:10CF200008B5084B1A7882420BD01870064B52385D
:10CF300058701020FFF7D4FFBDE808400A20FFF723
:10CF4000B1B908BD584300209C43002038B5174DA7
:10CF500080F001042B78A34226D0002815BFA1221F
:10CF6000A022C023C823124978200A7719220B7403
:10CF7000FFF770FF0A20FFF795F900220D4B002CF8
:10CF80005A714FF07F02DA710CBFC022C82240F202
:10CF900011205A722C70FFF7A3FF0A20FFF782F9C5
:10CFA000BDE83840FBF75CBB38BD00BFBC45002086
:10CFB000CB0100209C4300202DE98048142093B031
:10CFC000FFF770F93A20FFF77DFE38B10D223A20C5
:10CFD000B949FFF73FFF002840F044813220FFF7B6
:10CFE00071FE002800F0E08000230F218DF838301A
:10CFF000322001230EAAFFF777FE002800F0D4802C
:10D000009DF83830332B02D0112B40F0CD800C220C
:10D010003220AA49FFF71EFF002800F0C580002338
:10D020000F218DF83830322001230EAAFFF75CFE65
:10D0300020B19DF83830112B00F017814FF0030814
:10D040009F4B3220C3F80080FFF72CF900229D4B44
:10D050001A609D4B1B8B9BB21BB14FF4FA60FFF71C
:10D0600021F90025102200210EA803F0EFFB102269
:10D0700000210AA803F0EAFB1022002106A803F011
:10D08000E5FB2F462E460324A946AA46C82240F6B1
:10D09000E4418D4BB8F1020F5B8A9BB202FB131384
:10D0A000039340F0EE8004AA062301213A20FFF703
:10D0B0001BFE10213A20BDF81050BDF81270BDF8CB
:10D0C0001460FFF765FE0206EDBAFFBAF6BA40F14A
:10D0D0008981C0F341047C4B1B8A9BB2022B06D191
:10D0E000032C04D0B4FA84F04009FFF72FFF7749EE
:10D0F00012AB03EB490323F8105C23F8207C23F8E0
:10D10000306C0B780EAA09F101095BB95FFA89F35B
:10D110000DF1280C0DF1180ED8B2082840F06681E8
:10D1200001230B7000200AAB029306AB94469B468A
:10D130000246014609F0070901903CF902EB019B08
:10D14000013073440193029BC0B233F902EB08280B
:10D1500071443BF902EB02937244EED1019B6420CF
:10D16000002BB8BF0733C5EBE303002BB8BF5B420E
:10D170000029B8BF0731C7EBE1010029B8BF494218
:10D18000002AB8BF0732C6EBE202002AB8BF5242FB
:10D190000B441344039A9A42BFBF4D4B1A68494B44
:10D1A0001A60FFF77FF871E73020FFF78BFD98B129
:10D1B0000021012330200EAA8DF83810FFF794FDCE
:10D1C00050B19DF83830F82B06D108223020414963
:10D1D000FFF740FE00284BD13020FFF773FD30B33E
:10D1E000002401230F2130200EAA8DF83840FFF7CC
:10D1F0007BFDE0B19DF83830112B18D10C22302086
:10D20000354B36491C70FFF725FEA0BB4C20FFF7BD
:10D2100059FD28B105224C203149FFF71BFE68BBA0
:10D2200000210720FBF736FA4FF0010808E732200B
:10D23000FFF748FD0028E9D000230F218DF8383092
:10D24000322001230EAAFFF74FFD0028DED09DF803
:10D250003830112BDAD101221F4B32201A702149AC
:10D260000C22D0E74FF00208EAE64FF00808E7E6A4
:10D270004FF00408E4E64FF00608E1E64FF0050839
:10D28000DEE6B8F1030F02D0B8F1080F2CD1062367
:10D29000A82104AA3220FFF727FDB5213220BDF9CD
:10D2A0001050BDF91270BDF91460FFF771FD8408CC
:10D2B000013CE4B20FE700BFA0330108C733010807
:10D2C0005C4300205C460020E045002060430020D5
:10D2D00090460020EB330108594300202734010811
:10D2E0004B34010803340108B8F1040F24D106239C
:10D2F0000221302004AACDF810A0ADF814A0FFF749
:10D30000F3FC0546A8B19DF811509DF813709DF8E7
:10D310001560AD01BF01B6010C213020FFF738FDCB
:10D320008306C0F307145DD404F0030484F0010401
:10D33000D1E607460646EFE7B8F1050F24D10623EC
:10D34000022104AA4C20FFF7CFFC01230C214C2022
:10D3500004AABDF91050BDF91270BDF914608DF822
:10D3600010A0FFF7C1FC9DF81030AD10602B4FEA04
:10D37000A7074FEAA60605D0702B08BF002418BFE8
:10D380000324A8E60124A6E6B8F1060F7FF4A3AEB5
:10D390001A4B04AA1C784346002C15BFA82128214B
:10D3A00032203020CDF810A0ADF814A0FFF79CFC7F
:10D3B0000546A0B1BDF91050BDF91270BDF9146059
:10D3C000002C0CBF302032203521FFF7E1FCC0F3E8
:10D3D0008704022C08D004F0FB04012CCFE7074699
:10D3E0000646EDE7032476E6002474E622F813509F
:10D3F0002CF813702EF8136001338DE6594300208A
:10D40000482373B50193019B0446482B08D04FF085
:10D41000500383F31188BFF36F8FBFF34F8FFEE785
:10D420000021019B01232060C0E90F31FAF7F6FECD
:10D43000D0E90F356B4302688163D6185B1B4260ED
:10D440001A44FF23C2604FF0FF3280F8443080F866
:10D45000453000F11803C0E906234361036200F17F
:10D460002C030161C0E90A32C0E90C3386604162D5
:10D47000FAF7EEFE81600160C160FFF7EFFA204627
:10D4800002B070BDC3685A1EC26033B9036833F876
:10D49000022B03600F238260C36083685A0082609E
:10D4A000C3F3C030704710B5012104462046FFF792
:10D4B000E9FF490001442046FFF7E4FF0028F5D1C9
:10D4C000084610BDF0B53A4B85B01A78FF2A0DD149
:10D4D00041F27851374AB2F8422092B28A4203D0E0
:10D4E0004AF2D7118A4231D000221A701B78012BE0
:10D4F0005BD80C21304A01FB0322567A5368F609A7
:10D500000FD015890093C5F30E051D442B4B012246
:10D5100001934FF48043CDE90232009B9D4217D81E
:10D52000264B274A27491360274A03F59C7313604B
:10D5300026484FF4F06202F06FFF4FF4CC7224499A
:10D54000244805B0BDE8F04002F066BF0122CCE7F8
:10D550006846FFF797FF019FF8B16846FFF7A3FF02
:10D56000841C6846FFF79FFF009B02385A1C1B78FB
:10D57000009203EB0023DB4300223B44791E181981
:10D58000834204D1002AC8D03C440194C5E713F873
:10D59000012B01F8012F3246F2E7009B5A1C1B7841
:10D5A00000927A1C01923B70B7E705B0F0BD00BF56
:10D5B00010000020E0450020342501081829002033
:10D5C000D4450020DC030020D0450020C71E010800
:10D5D000440200202F1D010808B5084A1F201378B7
:10D5E000013303F0010313700C225343044AD15A50
:10D5F000FBF750F8BDE80840FFF764BF10000020BB
:10D600003425010808B5FBF72BF828B1BDE8084020
:10D6100040F21120FFF764BC08BD000010B50E4BAE
:10D6200033F8304003EBC00359889A880B4B03EB67
:10D63000400083889BB28B4201D1848010BD8388D7
:10D640008C1A9BB2A342B7BF83888180D21892B252
:10D65000B8BF8280F2E700BF12000020E045002042
:10D6600008B50F20FFF7DAFF1620FBF7B5F800200A
:10D67000FBF7B2F8BDE808400120FBF7ADB80000A9
:10D68000062008B5FFF7CAFF054B188A80B210B113
:10D69000012800D008BDBDE80840FFF757BC00BF17
:10D6A000E04500202DE98048354A36491368364C5C
:10D6B00043F010031360CA68344B22F4E062120492
:10D6C000120C13439BB0CB60FEF7A8FAA3690021AC
:10D6D00043F00103A361A3696FF00B0003F00103A2
:10D6E0000793079BFCF7ECFC6FF00A00FCF7E8FCE3
:10D6F0006FF00900FCF7E4FC6FF00400FCF7E0FCBD
:10D700006FF00300FCF7DCFC0F216FF00100FCF769
:10D71000D7FC4FF0FF30FCF7D3FC636813F00C0F1D
:10D7200007D0636803F00C03082B35D16368DF036F
:10D7300032D42368236823F0F80343F08003236086
:10D74000636803F00C03082B32D00022104B1A66DA
:10D75000104A116823689D0100F1C58201216368A8
:10D7600023F4741343F460136360094B1966116862
:10D77000236898011CD413685B1A022BF8D917E0B0
:10D780000020024000ED00E0001002400003FA0516
:10D7900000004242844600200122C04B1A60C04A69
:10D7A000116823689E07C5D413685B1A022BF8D949
:10D7B000BC4A136813F0060F00F09B82636843F4C1
:10D7C000E0636360636843F460536360636823F0FD
:10D7D000F00363602368990100F198824FF47A7234
:10D7E0006368B14F23F4404343F4004363603B68F4
:10D7F000B3FBF2F3013BB3F1807F0AD24FF0E0229A
:10D80000F0215361A94B83F8231000239361072370
:10D8100013614FF0E02213694FF4000AA44E4FF059
:10D8200002094FF0030843F0040313610F214FF086
:10D83000FF30FCF745FC73689E4D23F0E06343F036
:10D8400080637360A36912A943F02003A361A369F5
:10D85000994803F020030B930B9BA369DFF85CB29C
:10D8600043F00403A361A36903F004030A930A9B32
:10D87000A36943F00803A361A36903F008030993B4
:10D88000099BC5F810A0CDE91288CDF85490FAF79D
:10D8900061FD7368284643F0E06343F4004373601E
:10D8A00048F2FF73CDE91238FAF754FD4FF6F773DB
:10D8B00058464FF0010800261293FAF74BFD4FF43B
:10D8C000A0632846CDE91236CDF85080FAF742FD24
:10D8D0008023CDF85490CDE91238FAF73BFDC5F816
:10D8E00010A01E20FAF72CFD80234FF0100A2B61A8
:10D8F00012A95846CDF848A01496FAF72BFD4FF41C
:10D900008012CBF810204FF4004228461292FAF70A
:10D9100021FD4FF000422A61CDF848904FF40039C4
:10D92000FAF718FD8023C5F810905846CDE9123655
:10D93000CDF85080FAF70EFD6369052143EA08032C
:10D94000636163690B2003EA08030893089BFCF7F3
:10D95000B7FB4FF400635A4D50462B60FCF7B0FB09
:10D960004FF4803311202B60FCF7AAFBC5F8009020
:10D97000544B554D2B604FF48073C5E902384FF47A
:10D9800060232846EB616E616E60C5F81080FCF77D
:10D9900037FC95F82430434510D02A6885F8248058
:10D9A000536B23F01F0343F004035363136923F401
:10D9B000E04343F4C043136185F824600326012348
:10D9C0004FF4A04CCDE912634FF0040800233E4809
:10D9D00012A9CDE9183C149617931593CDF85880E9
:10D9E00002F0EAFD0223384812A9139302F0E4FD85
:10D9F000354812A9139602F0DFFD334812A9CDF87D
:10DA00004C8002F0D9FD2A682F4E536843F0800302
:10DA100053603046FEF70CF880460028F9D12B4EB3
:10DA20002B4B4FF0010933604FF480734FF0020B22
:10DA3000C6E902394FF4602370617060306130468E
:10DA40004FF0030AF361FCF7DBFB4FF4A043CDE991
:10DA500012B94FF00409304612A9CDE91883CDF868
:10DA60005890CDF850A0CDF85C80CDF8548002F0ED
:10DA7000A3FD304612A9CDF84CB002F09DFD06235F
:10DA8000304612A9CDE9123A02F096FD304612A9AD
:10DA9000CDF84C9002F090FD1CE000BF0000424227
:10DAA00084460020002002402002002000ED00E01B
:10DAB000000001400008014000140140000C01403A
:10DAC00000E100E000240140104800204837002019
:10DAD000002801403046FDF7ABFF80460028F9D111
