:020000040800F2
:1040000000500020514100089941000899410008E2
:1040100099410008994100089941000800000000FA
:10402000000000000000000000000000E1A90008FE
:10403000994100080000000011AA0008D9A000085A
:1040400099410008994100089941000899410008E8
:1040500099410008994100089941000899410008D8
:104060009941000899410008994100080DA10008F4
:1040700099410008994100089941000899410008B8
:1040800079A9000885A9000819A10008994100082C
:1040900099410008994100089941000891A9000838
:1040A0009941000899A20008994100089941000827
:1040B000C5A20008A5A20008E1A2000801A300080B
:1040C00095A7000899410008994100089941000806
:1040D0009941000899410008994100089941000858
:1040E000994100089941000899410008000000002A
:1040F00000000000000000000000000000000000C0
:0C41000000000000000000005FF8E0F18B
:1041100010B5054C237833B9044B13B10448AFF301
:1041200000800123237010BD080200200000000061
:104130009CB6000808B5034B1BB103490348AFF315
:10414000008008BD000000000C0200209CB60008A2
:10415000002103E00B4B5B58435004310A480B4BE2
:1041600042189A42F6D30A4A02E00023136004324E
:10417000084B9A42F9D306F00DFC07F02BFA06F033
:10418000B3FCFEE714DB000800000020040200205E
:1041900008020020EC420020FEE700001A4A0368F3
:1041A00090420AD0B0F1804F07D0A2F594329042ED
:1041B00003D002F58062904215D14A6823F0700363
:1041C0001343114A90420AD0B0F1804F07D0A2F5B4
:1041D0009432904203D002F58062904203D1CA68C3
:1041E00023F4407313434A6923F0800313430360AD
:1041F0008B68C3620B688362034B984204BF0B69F0
:104200000363012343617047002C0140034A0130DE
:10421000116813685B1A8342FBD370471C3E002071
:10422000002337B5026801939368DB0702D50020AD
:1042300003B030BD9368124943F001039360114B02
:104240001B68B3FBF1F30193019BABB90E4C2568DE
:10425000936813F00103EAD12168491B0229F7D9B9
:10426000826A80F8243042F010028262C26A42F010
:104270000102C2620120DBE7019B013BE3E700BFD3
:1042800040420F004C0000201C3E0020036810B587
:104290009A68D10701D4002010BD9A680A4922F01B
:1042A00001029A600C689A68D207F4D50A68121B5A
:1042B000022AF8D9836A43F010038362C36A43F089
:1042C0000103C3620120E7E71C3E0020436A9A6AAB
:1042D00012F0500F18D19A6A42F400729A621A686A
:1042E000926802F46022B2F5602F10D1DA6872B9D8
:1042F0009A6A22F480729A629A6AD20407D49A6AFD
:1043000042F001029A6270471B6A1B6B18477047A4
:104310000422F0B4C66B016C3568036802FA01F739
:104320002F421C6828D0670726D53C498B4216D0FF
:104330003B4A934215D01432934214D01432934224
:1043400014D01432934214D0143293420CBF4FF461
:1043500080034FF08063334A5360F0BC70471346CC
:10436000F9E74023F7E74FF48063F4E74FF4804325
:10437000F1E74FF48023EEE702228A402A4238D048
:10438000A70736D51A68910606D41A6822F00A02E1
:104390001A60012280F82120204A93421CD0143256
:1043A00093421BD0143293421AD0143293421AD043
:1043B000143293421AD0143293420CBF4FF40013BC
:1043C0004FF00073174A5360002380F82030836A4F
:1043D000002BC2D0F0BC18470223F3E72023F1E7FB
:1043E0004FF40073EEE74FF40053EBE74FF4003364
:1043F000E8E708228A402A42AFD02207ADD51A68E2
:1044000022F00E021A60012303FA01F17160836346
:104410004FF480730384036BDAE700BF08000240A7
:104420001C0002400000024008B503681A6822F030
:104430000E021A601A6822F001021A60164A9342AC
:104440001CD0143293421BD0143293421AD014322F
:1044500093421AD0143293421AD0143293420CBFB2
:104460004FF480134FF080730C4A53604FF4807305
:104470000384436B03B19847002008BD0123F3E791
:104480001023F1E74FF48073EEE74FF48053EBE72E
:104490004FF48033E8E700BF08000240000002400C
:1044A0002DE9F74F00221646684F694BDFF8A4C18B
:1044B000DFF8A4E14FF001080D6808FA06F808EAF1
:1044C000050438EA050540F08A804D68032D00F0A8
:1044D000B38014D8012D00F0A480022D00F0A68036
:1044E000A5B98A68002A00F0A980012A08BFC0F88F
:1044F00010804FF0080218BFC0F8148006E0122D9B
:1045000000F0978072D8112D00F08D80FF2C98BF9D
:1045100082464FF00F0988BF00F1040A4FEA860572
:10452000DAF8008088BF203D09FA05FB28EA0B086D
:1045300002FA05F548EA0505CAF80050D1F804A0CA
:104540001AF0805F4BD0BD6926F0030845F00105E5
:10455000BD61BD6908F1804805F00105019508F5C8
:10456000803806F0030B019D4FEA8B0BD8F80850FA
:1045700009FA0BF925EA0909384DA84260D005F57A
:104580008065A8425ED005F58065A8425CD005F53F
:104590008065A8420CBF0325042505FA0BF545EA02
:1045A0000905C8F808501D681AF4803F14BF254358
:1045B000A5431D605D681AF4003F14BF2543A54361
:1045C0005D609D681AF4801F14BF2543A5439D605C
:1045D000DD681AF4001F14BF2543A543DD600136D2
:1045E000102E7FF467AF03B0BDE8F08FDFF8709056
:1045F0004D453FF476AF0FD8A9F580194D453FF4EE
:1046000070AF09F570294D453FF46BAFA9F58019DE
:104610004D453FF466AF79E765453FF462AF7545B8
:10462000F7E7CA6872E7CA6804326FE7CA680832F7
:104630006CE7CA680C3269E7002267E7042265E785
:104640000025AAE70125A8E70225A6E700100240F9
:104650000004014000003110000032100008014049
:1046600000002210FEE7000006480068006880F3A2
:10467000088862B661B6BFF34F8FBFF36F8F00DF5C
:1046800000BF000008ED00E04FF0500383F31188F5
:10469000BFF36F8FBFF34F8FFEE7000008B54FF0F9
:1046A000500383F31188BFF36F8FBFF34F8F074A17
:1046B00013680133012B136007D14FF0E023D3F8C7
:1046C000043DDBB20BB1FFF7DFFF08BD00020020A5
:1046D000054A08B513680BB9FFF7D6FF013B136015
:1046E0000BB983F3118808BD0002002008B5EFF371
:1046F00005830F2B07D90E4A9B5C0E4A12789A420B
:1047000001D9FFF7C1FF4FF0E0230B4AD3F80C3D6E
:10471000126803F4E063934208D94FF0500383F327
:104720001188BFF36F8FBFF34F8FFEE708BD00BF47
:10473000F0E300E0143E0020183E00204FF050034C
:1047400083F31188BFF36F8FBFF34F8FFEE7000035
:10475000024A136801331360704700BF243E0020F3
:10476000F8B50F4D0F4EFFF799FF2C6807683368B7
:1047700042689F4207D0A24205D8002301200B6067
:10478000FFF7A6FFF8BD0B68A71ABB42F5D91B1BA4
:1047900013440B60336803602B6843600020EFE72D
:1047A000E4420020C442002008B9064B1868026B9E
:1047B0000020135CA52B02D0C0F38F00704701309E
:1047C000F7E700BF602F0020064A13681968064B00
:1047D00019B94FF0FF321A6070471268D268126838
:1047E000F9E700BF642F0020C0420020054B1B6882
:1047F00033B1054B1868B0FA80F0400940007047AB
:1048000001207047E0420020243E002043689A685F
:104810004B608A609A68516099600368086101334F
:104820000360704730B50C68631C0AD103695A688D
:104830004A6091608B6059600368086101330360CE
:1048400030BD00F10802134652681568A542FAD936
:10485000EDE70369D0E901128A605160596881422D
:1048600008BF5A60002202611A68013A1A6018688B
:1048700070470000394B2DE9F74F1B68002B67D1BB
:10488000374B1D6801351D6085B9364B1A681268B3
:104890000AB1FFF753FF344A1968106818601160B5
:1048A000324A136801331360FFF78EFF304E002445
:1048B0003368DFF8C080AB4212D91422D8F8003038
:1048C000DB6A53432C4AD358022B2C4B28BF0124BC
:1048D0001B68002B18BF0124204603B0BDE8F08FF1
:1048E000DFF880A0DFF89890DAF800301B681BB979
:1048F0004FF0FF333360E0E7DAF80030DB68DF6861
:104900007A68954201D23260D7E707F1040B584626
:10491000FFF79FFFBA6A1AB107F11800FFF799FF76
:104920000122FB6AD9F800009A4002431420C9F81A
:104930000020114A594600FB03200193FFF766FF50
:10494000D8F80020019BD26A934228BF0124CBE70C
:104950000C4A0024136801331360BDE7243E002095
:10496000E4420020642F0020682F0020C442002071
:10497000C0420020602F00206C2F0020E842002061
:104980002C3E0020C842002032492DE9F0470B6838
:1049900043B94FF0500383F31188BFF36F8FBFF318
:1049A0004F8FFEE7FFF77AFE0B68013B0B600C6848
:1049B00024B10020FFF78CFEBDE8F087264B1B6872
:1049C000002BF6D0254E264FDFF8989020E0F368B4
:1049D0004FF00108DC6804F1040A04F11800FFF745
:1049E00038FF5046FFF735FF1420E56A3A6808FAA9
:1049F00005F31343514600FB05903B60FFF706FFAC
:104A0000194B1B68DB6A9D4202D3184BC3F8008028
:104A10003368002BDBD10CB1FFF7D6FE144D2C68A8
:104A200044B10127114EFFF725FF00B13760013C6B
:104A3000F9D12C600D4B1B68002BBAD04FF0E0234E
:104A40004FF08052C3F8042DBFF34F8FBFF36F8F29
:104A50000120AFE7243E0020203E0020CC42002071
:104A60002C3E00206C2F0020602F0020E842002008
:104A7000C8420020C36870B5DC680CB9FFF704FEBB
:104A800004F118063046FFF7E4FE114BE56A1B6897
:104A9000D3B904342046FFF7DCFE01230D4A14206D
:104AA0001168AB400B43214613600B4B00FB0530F4
:104AB000FFF7ACFE094B1B68DB6AAB423BBF012032
:104AC000074B0020186070BD31460648F0E700BF74
:104AD000243E00202C3E00206C2F0020602F002060
:104AE000E8420020CC4200202DE9F04104464FF07E
:104AF0000108FFF7D3FD90F845501B4F6DB200F150
:104B00002406002D17DCFF234FF0010884F8453000
:104B1000FFF7DEFDFFF7C2FD94F84450124F6DB26F
:104B200004F11006002D12DCFF2384F84430BDE8A8
:104B3000F041FFF7CDBD636A002BE4D03046FFF7AC
:104B400099FF08B1C7F80080013D6DB2D9E723692C
:104B5000002BE9D03046FFF78DFF08B1C7F8008081
:104B6000013D6DB2DEE700BFE8420020C3685A1E77
:104B7000C26033B9036833F8022B03600F238260ED
:104B8000C36083685A008260C3F3C030704710B5B9
:104B9000012104462046FFF7E9FF49000144204671
:104BA000FFF7E4FF0028F5D1084610BD00231A46A0
:104BB000074911F8010B03FB00220133DA2BF8D16E
:104BC000044B18681A60801A18BF0120704700BF94
:104BD00048290020342A00200A4B588A80B278B134
:104BE000188980B260B11A89188992B2052A94BFD7
:104BF00042F210734EF6602380B288BF05385843E6
:104C0000704700BFE82F002038B5134A538A9BB283
:104C10000BB9002038BD13899BB2002BF9D00F4A85
:104C20000F4B14681B6844EA030288B1002AF1D0D4
:104C30000C4D2968C91AFFF7CFFF8142E9D92868CE
:104C4000041BFFF7C9FF844294BF00200120E1E765
:104C5000002ADED0ECE700BFE82F00202C2F002038
:104C6000302F0020E442002070470000084B33F84A
:104C7000302003EBC00391425B8803D399420A467C
:104C800028BF1A46034B03EB40039A80704700BFCE
:104C900052000020E82F002070B5114B114C33F862
:104CA000306003EBC00359889A8804EB4003450049
:104CB000988880B2884207D19E802C44A08880B218
:104CC000431A5842584170BD98888E1A80B2B0423B
:104CD000B7BF98889980121892B2B8BF9A80ECE753
:104CE00052000020E82F002008B5144B198E5B8C71
:104CF00089B29BB29BB179B140F25133143189B280
:104D0000994288BF00211620FFF7B0FFB1F5527F0E
:104D100034BF0020012008BD4FF4F071F3E759B112
:104D20000A3189B2B1F5E17F88BF00211620FFF773
:104D30009DFFB1F5E17FEBE7FA21F7E7E82F0020CF
:104D4000034B588A80B2003818BF0120704700BF5B
:104D5000E82F002008B5104BD9885B8C89B29BB234
:104D600073B1143189B2B1F5117F88BF3C210120A4
:104D7000FFF77CFFB1F5117F14BF0020012008BDB3
:104D80000A3189B2B1F5967F88BF0A210120FFF769
:104D90006DFFB1F5967FEFE7E82F00200F4A02EB99
:104DA00040039B88528C9BB292B27AB103EBC30151
:104DB0000523A031B1FBF3F10A2389B2B1FBF3F172
:104DC00001EB8101490089B2FFF750BF0922203B66
:104DD00003EB830393FBF2F1EEE700BFE82F002023
:104DE00010B50F20FFF758FF04461620FFF7D6FF37
:104DF0000020FFF7D3FF0120FFF7D0FF204610BDB2
:104E0000034BD88A80B2003818BF0120704700BF1A
:104E1000E82F0020034B188D80B2003818BF012006
:104E2000704700BFE82F00207047F8B50025064600
:104E30002C461427EBB207FB03639A680AB9204695
:104E4000F8BDDB6813B90134E4B202E098470028EA
:104E5000F9D10135EEE7000038B500230122104DED
:104E600004462B7003681A70D0E9013114200978C8
:104E70001B6800FB0133187C342809D8FFF70CFFAE
:104E80002B7813B1032223691A6001232B7038BDDC
:104E9000586808B18047F3E7E3681A70F0E700BF8D
:104EA000902B002010B5214A9368906883F002038C
:104EB000C0434000C3F3400300F0020018431FBF8B
:104EC0001B4B1A681B4B1A601B4A1378834212D182
:104ED00080B1174B194A1B6812689B1AB3F5C87F3B
:104EE00020D30122164B90421A701DD002280CBF0D
:104EF0000820202010BD38B10343002013700C4B54
:104F00001A680E4B1A60F5E70D490C7844B9012B6D
:104F100002D0022B18BF1023107008701846EEE75D
:104F20000346F9E70020E5E70420E3E7000C014031
:104F3000E44200202C2F0020792B00207C2B002025
:104F4000782B002048F2E80358436423C00B5843F1
:104F50005B23B0FBF3F0084B5A8E92B242B139B9E1
:104F60005A8E92B282422FBF08465B8E9BB2C01A05
:104F7000024B1860704700BFE82F0020342F00203C
:104F800038B50021FFF7DEFF0122154B53F8321030
:104F9000D400884210DA23444FF47A7453E9025261
:104FA000401B6043491B90FBF1F05B689B1A584320
:104FB00090FBF4F0104438BD0132322AE6D14FF4B0
:104FC0007A734FF43C72A0F512400938584390FBB5
:104FD000F2F00A22504390FBF3F000F5F570EAE797
:104FE0004CD80008F0B55442A0421E46059D134619
:104FF00019DD602817DC002800EB0207B6BF444229
:105000000024E4B2602FC4BFC0F16002D2B291B9F3
:10501000134F21183F6805EB040C0F4421468A42C8
:1050200002D80F2E09D8F0BD1CF801EB013107F8AA
:1050300001EBC9B2F3E70829F3D1102E18BF002302
:1050400007492344496820442B440144A242EAD939
:1050500013F8010B013401F8010BE4B2F6E700BFCD
:10506000242A00200229F7B504461CD110221D4B2A
:105070001D491A700C221D4B1A701C4B1C4E1D78BA
:10508000184BB6F900701B783846DA086A4304FBFF
:105090000211009117492A4691F90010FFF7A2FF6B
:1050A000E819308009E0012809D1124BB3F900203A
:1050B0001AB90F490A8008221A8003B0F0BDFCD942
:1050C000002915BF102008200C2206220A4B0B498C
:1050D00008BF1946034B023C1870044BA4B21A7067
:1050E000CBE700BFC02B002060BA0008C12B002016
:1050F000142B0020162B0020F11F00207D21002002
:10510000C0F111000221C0B2FFF7ACBF034B988B76
:1051100080B2003818BF0120FFF7F2BFE82F00204F
:10512000034BD88E80B2003818BF0120FFF7E8BFCC
:10513000E82F0020034B988A80B2003818BF012066
:10514000FFF7DEBFE82F0020034BD88B80B200387A
:1051500018BF0120FFF7D4BFE82F0020034B188CA5
:1051600080B2003818BF0120FFF7CABFE82F002027
:10517000044BB3F84C0080B2003818BF0120FFF791
:10518000BFBF00BFE82F002070B503780446012B95
:105190000E46154601D11E4601342378A3B19DB1B8
:1051A000F02B09D962787AB1F03BC3EB03230F3AB5
:1051B000134498B2023401E098B201343146013D03
:1051C000FFF750FFEDB2E8E770BD00000E4B198B02
:1051D0000E4B89B21A680E4B02291B6809D00329AD
:1051E0000CD001290DD1B2F84000FF221844FFF77E
:1051F000CBBFB2F84200FF220121F7E7B2F844002A
:10520000F9E7D08FF7E700BFE82F0020E81F002064
:10521000EC1F00200C4BD98C0C4B89B21A680C4B3C
:1052200001291B6806D002290AD1B2F84A00FF22E0
:10523000012102E0B2F84800FF221844FFF7A4BFA2
:10524000B2F84600F3E700BFE82F0020E81F002077
:10525000EC1F00200A4B198A0A4B89B21A680A4BC4
:1052600001291B6805D0022908D1908EFF22012157
:1052700001E0508EFF221844FFF786BF108EF5E73D
:10528000E82F0020E81F0020EC1F0020074B084AF1
:105290009B8C12689BB23BB1938F064A0121106828
:1052A000FF221844FFF770BF138FF6E7E82F0020A6
:1052B000E81F0020EC1F00200C4BD98A0C4B89B250
:1052C0001A680C4B02291B6808D003290AD001294F
:1052D0000AD1108FFF221844FFF756BF508FFF22CC
:1052E0000121F8E7908FFAE7D08EF8E7E82F002049
:1052F000E81F0020EC1F0020002110B4064A0478AB
:105300001180064A012C118004BF01302146FF2282
:1053100010BCFFF739BF00BF142B0020162B002054
:1053200010B50A4B0A4A0C461B68583033F8103047
:10533000106804EB44041844FFF7DEFF0022054B1D
:10534000A400023C1C80044B1A8010BDE81F002002
:10535000EC1F0020142B0020162B002037B5294B02
:10536000294A1B68044603EB4003B3F81E3110685A
:105370001844FFF7C1FF254AD38A9BB2022B23D0E2
:10538000032B14BF4FF4FA704FF49670204B19782A
:10539000204BE1B9D18A89B2C9B119681E4DA14229
:1053A0001E4902D01C602B680B602B680968928A2A
:1053B0005B1A92B2B3FBF0F302B30322B3FBF2F237
:1053C00002EB42029B1A0AE04FF4C870DEE78D211F
:1053D0001960D38A9BB2B3FA83F35B095B00602246
:1053E000544304EB43140E4B002123440093102339
:1053F0004E201A46FFF7F6FD03B030BD022B28BF42
:105400000223ECE7E81F0020EC1F0020E82F00201B
:10541000F01F0020FC010020E4420020A42B00200B
:10542000D9BC00080020FFF799BF0120FFF796BF05
:105430000220FFF793BF0320FFF790BF0420FFF780
:105440008DBF37B50C4611460022042C0092ADF8F2
:1054500004208DF8062032D90A22B0FBF2F502FBB7
:10546000150002308DF80500B5FBF2F002FB105577
:1054700002358DF8045080B20A22B0FBF2F502FB2F
:10548000150202328DF80320A8B20A25B0FBF5F20E
:1054900005FB120502358DF8025090B20A25B0FBCB
:1054A000F5F205FB120502358DF8015090B20BE0C4
:1054B0001578022D17D102F8010B013311E0DBD072
:1054C000032CE2D0012CE9D10A25B0FBF5F205FB53
:1054D000120202328DF800202BB16A4600231220FE
:1054E000013CA342E4DBFF226846FFF74DFE03B018
:1054F00030BD000070B50A260C4B0221DC89012367
:10550000A4B2B4FBF6F51A462846FFF79AFFFF222D
:1055100001210748FFF738FE012306FB1540BDE8CF
:1055200070401A46194680B2FFF78BBFE82F002063
:10553000BAB600080A4A138E9BB233B10123108E0B
:1055400003211A4680B2FFF77CBF064B064A1B6850
:1055500010685B8DFF2201211844FFF715BE00BFC4
:10556000E82F0020E81F0020EC1F0020034B022141
:10557000588F012380B21A46FFF763BFE82F00203F
:10558000034B0221188F012380B21A46FFF759BF3F
:10559000E82F00200122034B1146588A002380B2D5
:1055A000FFF74FBFE82F0020034B0321D8880123CA
:1055B00080B21A46FFF745BFE82F002008B5174B09
:1055C0001A8992B25AB9164A01211068FF22154B66
:1055D0001B685B8D1844BDE80840FFF7D5BD1A89EC
:1055E000188992B2052A0DD8012380B200EB800001
:1055F00040001A46022180B2FFF723FFFF2201215B
:105600000948E8E7012305381A46022180B2FFF76E
:1056100018FFFF2201210548DDE700BFE82F002029
:10562000EC1F0020E81F0020BCB6000822B70008CD
:1056300008B50D4A538B9BB25BB90C4A0121106827
:10564000FF220B4B1B685B8D1844BDE80840FFF739
:105650009BBD0123508B02211A4680B2FFF7F1FE59
:10566000FF2201210348F0E7E82F0020EC1F002073
:10567000E81F002022B7000807B5174BB3F84A20EF
:1056800092B262B9154A01211068FF22144B1B68BF
:105690005B8D184403B05DF804EBFFF775BDB3F8FC
:1056A0004A2092B2052A0AD10E4B182200930021FB
:1056B00010234620FFF796FC03B05DF804FBB3F817
:1056C0004A00012302211A4680B2FFF7BAFEFF22E8
:1056D00001210548DEE700BFE82F0020EC1F002075
:1056E000E81F002020B90008BCB6000808B50D4A24
:1056F000938E9BB25BB90C4A01211068FF220B4BC1
:105700001B685B8D1844BDE80840FFF73DBD0123D1
:10571000908E03211A4680B2FFF793FEFF220121EB
:105720000348F0E7E82F0020EC1F0020E81F0020CE
:10573000BEB6000870B5164D2B8D9BB2E3B10123A8
:105740000A24288D1A4680B21946B0FBF4F0FFF700
:1057500078FEFF2201210F48FFF716FD288D80B249
:10576000B0FBF4F304FB1300BDE87040012380B2EA
:105770001A461946FFF765BE074B084A1B681068B2
:105780005B8DFF22BDE8704001211844FFF7FCBC8F
:10579000E82F0020BAB60008E81F0020EC1F002008
:1057A000034B588D012380B21A461946FFF749BEB4
:1057B000E82F0020034B988D012380B21A4619462A
:1057C000FFF73FBEE82F0020F8B51E4B054602212B
:1057D0000E201C78FFF746FC1F23B5FBF3F01A4B95
:1057E000C0F10A0010F0F80F1968C5B2C0F3C40682
:1057F0000BD0F32C8CBF01230D232046002723441C
:10580000DBB2421CD2B2934218D1FF2205F0070549
:10581000AA406025F32C8CBF01230D23754323443C
:10582000DBB262F0FF02601CC0B2984200D1F8BD4A
:105830002C440E5D16400E550446F4E70F541046F6
:10584000DFE700BF142B0020242A002010B4064BF1
:10585000064C5B8C014606489BB2002B18BF2046C5
:10586000FF2210BCFFF790BCE82F0020E3B6000831
:1058700031B700080128014610B40AD0022814D11B
:105880000B4B10BC588C80B2B0FA80F04009FFF787
:10589000E9BB074B074C5B8C07489BB2002B18BF3A
:1058A0002046FF2210BCFFF76FBC10BCFFF7CEBF35
:1058B000E82F0020C0B60008C2B600080120FFF79C
:1058C000D9BF0000BFF34F8F0549064BCA6802F4E9
:1058D000E0621343CB60BFF34F8F00BFFDE700BF13
:1058E00000ED00E00400FA054AF6AA22014B1B680D
:1058F0001A607047482E00204FF0E0204FF080548F
:1059000008B506490B68012B05D9C0F8044DBFF353
:105910004F8FBFF36F8FFFF7E7FFF3E76C2F002088
:105920000122084B1A7040F21B12074B1A80074BDA
:105930001B68DA6240F20D125A6340F682229A62C4
:10594000704700BF462900205C3000209C2E0020BC
:10595000037B826810B530F813400A44121B826042
:1059600020F81310013303F00303037310BD00008C
:1059700010B5044671B10C4B0C481B68D96B1A6CFE
:1059800011445A6C9B6C1144194489B2490089B284
:10599000FFF7DEFF054B9B68C3F38F039B00B3FB50
:1059A000F4F080B210BD00BFF42C0020942B002036
:1059B00008B5084B0146D88D80B2FFF7D9FF2D23DB
:1059C0004043B0FBF3F0044BC0EB00201B88B0FB5E
:1059D000F3F008BDE82F00205C30002010B504462D
:1059E000002C084606DC094BD88D80B2FFF7C0FFBB
:1059F000002010BDFFF7DCFFC4EB0424B4FBF0F083
:105A0000FF2828BFFF20C0B2F3E700BFE82F002027
:105A100010B50121FFF7E2FF134B902804461A78D6
:105A20001BD90AB100221A7014211A780F4B0020DA
:105A300019800F4B1A700F4B1C70FFF7B9FFFF2333
:105A4000E82144430C4AB4FBF3F413684B43182198
:105A500001FB04331B0A136010BD6F28E4D8002A31
:105A6000E2D10122DFE700BFFA010020E41F00209D
:105A700045290020582F0020303E002008B568B18D
:105A800000210B460D4A013332F8020BDBB2102B1A
:105A90000144F8D10A4889B2FFF75AFF084B9868C9
:105AA0006423C0F3CE00A0F59B500538584340F264
:105AB000E23390FBF3F080B208BD00BF2402002067
:105AC000802B002010B547F6FF70FFF759FA044607
:105AD0000020FFF7D3FF0A23B0FBF3F0013C80B2B4
:105AE000204410BD08B5084B08481B68D96B1A6CD8
:105AF00011445A6C9B6C1144194489B2490089B213
:105B0000FFF726FF084608BDC42C0020682B0020A4
:105B100038B5044678B1FFF7E5FFFFF731FA0546DF
:105B20002046FFF7ABFF0A23B0FBF3F39BB25819F3
:105B300020EAE07038BD024B9868C0F38F00ECE7B4
:105B4000682B002008B5094B588C80B250B100205A
:105B5000FFF7DEFF052300EBC000B0FBF3F02030C1
:105B600080B208BDFFF7D4FFFAE700BFE82F00209E
:105B700010B5FFF7A7FF04460020FFF7C9FF053C5B
:105B8000A4B284422CBF0020012010BD202210B5F9
:105B9000234B83F83D20234B1868002835D0036C35
:105BA00043B14FF0500383F31188BFF36F8FBFF3FE
:105BB0004F8FFEE7036853B9836843B14FF050033A
:105BC00083F31188BFF36F8FBFF34F8FFEE7FEF7AC
:105BD0008DFDEFF311844FF0500383F31188BFF371
:105BE0006F8FBFF34F8F826BC36B9A420BD290F8CB
:105BF00045100132FF294BB2826307D1436A13B1CA
:105C00002430FEF737FF84F3118810BD7F2B01D1BC
:105C1000FEF73AFD01335BB280F84530F3E700BF91
:105C2000F42D00201C2B0020436A1A68116821F40F
:105C3000806111600021586B59854163986B416305
:105C400093F83D0060284FF0200083F83D0083F872
:105C50003E1008BF1964136823F001031360FFF7B7
:105C600095BF012070470000044B054A1B6810686F
:105C7000B3F812311844FFF73FBB00BFE81F002004
:105C8000EC1F002010B50446FFF75CFF0123032141
:105C90001A46FFF7D6FB24B1BDE810400220FFF7FB
:105CA000E9BD10BD70B5154B154D06461C6828683A
:105CB0000430FEF7CEFD40B92A681249D06A0122AD
:105CC0000B68824023EA02030B602B68A4195C6016
:105CD00007D30D4B18682968BDE870400431FEF702
:105CE000A1BD0A4B186829680431FEF79BFD084BDB
:105CF0001A68944238BF1C6070BD00BFE4420020A7
:105D0000602F00202C3E0020682F0020642F0020F0
:105D1000C042002008B550B94FF0E0234FF0805248
:105D2000C3F8042DBFF34F8FBFF36F8F08BD074B30
:105D30001B680BB1FEF7A8FCFEF70AFDFFF7B2FFE8
:105D4000FEF722FE0028E7D0F0E700BF243E002047
:105D50003220FFF7DFBF000070B50D4E35680544F7
:105D6000FFF7A0F8044654B9FFF79CF80446FFF784
:105D7000EFFF33689D420AD3002CF5D007E0FFF710
:105D800091F80446FFF7E4FF33689D42EBD270BD03
:105D9000E442002010B5114AB2F84A309BB2052BFC
:105DA00011D1FFF77FF804463CB9FFF77BF80446B2
:105DB000FFF7CEFF002CF8D010BDFFF773F80446B4
:105DC000FFF7C6FFF0E74FF47A70BDE81040B2F875
:105DD0004A309BB25843FFF7BFBF00BFE82F0020F7
:105DE00010B50C46044B19681831FEF71BFD204610
:105DF000BDE81040FFF756BF602F00202DE9F043AB
:105E0000954B85B01C683223019344B94FF0500381
:105E100083F31188BFF36F8FBFF34F8FFEE7256CBD
:105E200045B14FF0500383F31188BFF36F8FBFF379
:105E30004F8FFEE7FEF7DAFC40B94FF0500383F3D3
:105E40001188BFF36F8FBFF34F8FFEE72946834F53
:105E5000834E8DE0019B23B9002D00F02F81FEF7CA
:105E60006DFC21B93B6802937E4B1B680393FEF7E0
:105E70002FFCFEF76DFCFEF711FC94F8443001A9ED
:105E8000FF2B04BF002384F8443094F8453002A867
:105E9000FF2B04BF002384F84530FEF719FCFEF702
:105EA0005FFC002840F09C80FEF7F8FBA36B002B02
:105EB00056D1FEF70DFC2368002B3BD1FEF7EEFB1D
:105EC000A568002D33D03268EB6AD26A93427FD244
:105ED000AA69DFF89481002AA1BF3268D26AC2F1B0
:105EE0000602AA61142202FB03836A699A426BD1FB
:105EF00005F104094846FEF7ACFC5C4B38B90120BB
:105F0000E96A1A6800FA01F122EA01021A603268AD
:105F10001968D26AEA62012505FA02F0084318609E
:105F20001420494600FB0280FEF770FC0120FEF7BA
:105F3000CFFB0546019904F12400FFF751FF2046ED
:105F4000FEF7D2FDFEF720FD88B94FF0E0234FF0B9
:105F50008052C3F8042DBFF34F8FBFF36F8F06E05D
:105F60002046FEF7B5FBFEF7BFFDFEF70DFD012154
:105F7000FEF794FBA36B002B3FF46CAF013BA363D4
:105F8000236843B9364B1A681AB119688A6D013211
:105F90008A651B68A360236973B104F11000FEF7E2
:105FA00069FD48B14FF0E0234FF08052C3F8042D53
:105FB000BFF34F8FBFF36F8FFEF78AFB012505F00C
:105FC000010005B0BDE8F0833368DB6AEB62ADE742
:105FD0003368686DDB6A98422CBF00200120A6E779
:105FE0002046FEF781FDFEF7CFFCFEF757FBA36BC3
:105FF00013B1FEF76DFBBAE7FEF76AFB002DDED0AA
:10600000FEF74CFB636A1BB1236B1B68C3F10603ED
:10601000A468002C52D0A16D41B94FF0500383F316
:106020001188BFF36F8FBFF34F8FFEE7626D93420E
:1060300038BF1346E26A934240D001293ED1084955
:1060400009688C4214D14FF0500383F31188BFF3D9
:106050006F8FBFF34F8FFEE71C2B0020C442002040
:10606000602F0020E44200206C2F00202C3E0020F6
:10607000A169E3620029A4BFC3F10603A36114234D
:10608000104D03FB02526369934217D1261D30461F
:10609000FEF7DFFB0C4AE76A28B901241368BC400D
:1060A00023EA04031360012314201168BB400B434F
:1060B00000FB075031461360FEF7A8FBFEF708FB14
:1060C00000257CE76C2F00202C3E0020184B10B5DB
:1060D0001B6843B14FF0500383F31188BFF36F8FF8
:1060E000BFF34F8FFEE7FEF733FB124B01681A68D0
:1060F00011F10E032CBF012400248A420FD27CB977
:106100000360FEF741FC48B94FF0E0234FF08052A6
:10611000C3F8042DBFF34F8FBFF36F8F10BD0CB9C1
:106120009A42EDD20360981AFFF7BCFDE9E700BF81
:10613000243E0020E442002010B5134CFEF7AEFAD6
:106140002368DB6D7BB90122236883F86020FFF7A9
:10615000A9FD4FF0E0234FF08052C3F8042DBFF3A8
:106160004F8FBFF36F8FFEF7B3FAFEF797FA2368EE
:10617000D86D10B100222368DA650022236883F805
:106180006020FEF7A5FA10BD602F002010B54CF27C
:1061900050342049204B0868DA68D20733D4DA68D3
:1061A000910644BF2022DA60DA68D20606D4DA69A2
:1061B000D40703D4D86810F0040023D0164AD3685B
:1061C00013F0100305D01549CB6943F00203CB61EE
:1061D0001023D268500706D5104943F00403CA695A
:1061E00042F00102CA610C4AD169C90708D50B48BF
:1061F000C16941F00401C161D16921F00101D1619E
:106200000120D36010BD0A68121AA242C4D903202B
:10621000F8E700BF1C3E002000200240382F00207D
:106220001FB590F83D30044603F0FF0200687BB9CB
:10623000254B84F83C20984228D103F50333DA69D2
:1062400042F00202DA61DB6903F002030293029B6F
:106250000223211D84F83D30FDF7A0FF012300201B
:1062600084F8463084F83E3084F83F3084F840307B
:1062700084F8413084F8423084F8433084F8443064
:1062800084F8453084F83D3004B010BDB0F1804F43
:106290000AD10E4BDA6942F00102DA61DB6903F0E0
:1062A00001030193019BD3E7094B9842D0D103F539
:1062B0000233DA6942F00402DA61DB6903F00403B5
:1062C0000393039BC4E700BF00040040001002409A
:1062D00000080040144B70B51D68144E6A6912F036
:1062E000400201D000200EE06C6914F010040BD0C5
:1062F0006FF010016961202101201A6483F83C20AD
:106300001A6383F83D1070BD3268521A9042E5D28C
:106310001A6C032042F020021A64202283F83C40C9
:1063200083F83D20EFE700BFF42D00201C3E002045
:10633000154B70B51D68154E6A6912F0800201D0C8
:1063400000201FE06C6914F480640FD13268521A87
:106350009042F1D21A6C032042F020021A642022EB
:106360001C6383F83C4083F83D200BE06FF48061B0
:10637000696104211964202101201A6383F83C20FB
:1063800083F83D1070BD00BFF42D00201C3E00209E
:10639000F0B5114DDFF844C02E68070C012F0CBF7B
:1063A0007469B46920EA0404A4B2B4FA84F46409F8
:1063B000A14201D000200EE0DCF80040E41AA24225
:1063C000ECD20023202203202B6385F83C3085F893
:1063D0003D2085F83E30F0BDF42D00201C3E00200D
:1063E00070B50546144A154E14686369DB4313F013
:1063F000020014D0636913F4806311D02368202154
:1064000043F4007323606FF48063636104231364B7
:1064100000230120136382F83C3082F83D1070BDE8
:106420003068401A8542E0D220211363032082F8AD
:106430003D1082F83C30F2E7F42D00201C3E002095
:10644000134B10B5DB68C3F30223C3F107041A1D15
:10645000042C28BF0424062A88BFDA1E4FF0FF331D
:1064600098BF0022A34021EA0303002803FA02F3A5
:10647000ACBF00F16040074A4FEA0313DBB2B5BF7F
:1064800000F00F0000F56140135480F8003310BD98
:1064900000ED00E014ED00E0F0B56D4C6D4E94F8A9
:1064A0003D3087B003F0FF05002B5ED1C0221223E0
:1064B0000127CDE902230323674802A9CDE904732C
:1064C00084F83C50FDF7ECFFF369644A43F4001391
:1064D000F361F3694FF0800E03F400130193019B05
:1064E0005F4B4FF48070C3E9002518225D49C3E972
:1064F00003E5C3E90555C3E90F129D60DD61D1F8DD
:106500008020DFF864C102EA0C0242EA0E02C1F800
:1065100080209D631884554AA3635C62544B1A60C3
:106520001022C3E901254FF48052DA611422C3E935
:1065300003E5C3E90555C3E90F12CA6E02EA0C026E
:1065400042F4845242F01002CA669D6318840F21FF
:106550001F205C626363FFF773FF4FF00043454DFC
:1065600020202B60FFF76CFF6F602423216884F8E4
:106570003D300B68404A23F001030B60736860688C
:10658000C3F30223D25C3D4B1B68D3403C4A90428C
:1065900094BF3C4A3C4A93428CBF002201220AB17C
:1065A00007B0F0BD364D394AA842B3FBF2F288BFBE
:1065B0004FF496764A6082BF72434FF47A76B2FB0C
:1065C000F6F2A84202F101020A6203F1FF3323D876
:1065D0004000B3FBF0F340F6FC720133134233D0BA
:1065E000C3F30B03CB61D4E9073213430B60D4E947
:1065F000032313438B60D4E905321343CB600B684C
:10660000202243F001030B600023236484F83D2023
:10661000236384F83E30C3E7A26852B900EB400020
:10662000B3FBF0F30133C3F30B037BB143F400433B
:10663000D8E719224243B3FBF2F30133C3F30B0350
:1066400023B143F44043CDE70423CBE70123C9E75B
:10665000F42D002000100240000C01408000024098
:10666000682D0020000002400FC0FFFF6C000240B8
:10667000AC2D002000E100E0F8B700084C0000203D
:10668000A08601007F841E00FF083D0040420F00ED
:10669000F0B5294D11202A6885B01368402623F0F3
:1066A000010313600123CDE9010302238027234C5A
:1066B0006946204603930096FDF7F2FE2661009797
:1066C000FDF7EEFE65234FF480022761A1680906FD
:1066D00027D5122201234027CDE90123802602235A
:1066E0006946164803930097FDF7DAFE0096FDF71A
:1066F000D7FE276126612A68136843F400431360BC
:1067000000BF2A68136823F40043136000BF2A689F
:10671000136843F00103136005B0BDE8F040FFF7D4
:10672000BBBE226100BF00BF00BF00BF013B2661AE
:10673000CCD105B0F0BD00BFF42D0020000C01400D
:1067400090F83E30012B22D1022380F83E300368BE
:106750001A6A22F001021A621A6A42F001021A62EF
:106760000B4A93420AD0B3F1804F07D0A2F594327E
:10677000934203D002F58062934204D19A6802F0FA
:106780000702062A03D01A6842F001021A60704715
:10679000002C014090F83C3010B5012B21D0022391
:1067A00080F83D30036809685A689C6822F07002DE
:1067B0000A435A600B4A93420AD0B3F1804F07D084
:1067C000A2F59432934203D002F58062934202D143
:1067D00024F080049C60012380F83D30002380F881
:1067E0003C3010BD002C014070B5826A044686B072
:1067F000002A3BD10168634BC262994280F8242091
:1068000003F56C43996940F0848041F4007199610B
:106810009B695D4903F400730293029B5B4B4FF449
:106820008075C3E9001280214FF4806CC3E9031521
:106830002021C3E905C14FF4805155481A649A607C
:10684000D9618168D86321F47F5121F0300141F48E
:10685000AD5181609A631D8423625C620F21122016
:10686000FFF7EEFD4FF480224A4B1A602046FDF7F9
:106870000DFDA36A13F010037FD100287DD1A26A19
:10688000616822F4885222F0020242F00202E069BA
:10689000A568A262E2680143B5F5807F41EA420142
:1068A00054D06E1E7042704100026669012E07D1FD
:1068B000002A4DD1A269013A40EA423242F4006016
:1068C0002268B5F5807F566826F4694640EA0600DE
:1068D00050609668304800EA060040EA0100906087
:1068E00001D0012D02D12369013B1B05D06A20F4A0
:1068F00070000343D3629268284B1340994230D111
:106900000023E362A36A23F0030343F00103A362BD
:1069100031E041F4806199619B69032503F4806350
:106920000193019B08231E480DEB0301CDE90235BD
:106930000492FDF7B5FD1023CDE90235FDF7B0FD5A
:106940000423CDE90235FDF7ABFD87E72846ACE728
:10695000A26A42F02002A262E26A42F00102E2620E
:10696000AEE7A36A23F0120343F01003A362E36AC5
:1069700043F00103E36206B070BDA36A43F0100365
:10698000C5E700BF0024014008000240242D00207C
:106990000000024000E100E0FDF7E1FFFE0E1FFFF6
:1069A00000080140F0B54FF4804316460122002450
:1069B00085B0CDE90001CDE90232B44201D305B082
:1069C000F0BD6846FEF7D2F8019FE8B16846FEF7D1
:1069D000DEF805466846FEF7DAF8009B02385A1CD6
:1069E00000921B78AA1C03EB0023DB433B440234D8
:1069F0001A449A4201D12C44DFE70199481C0190C6
:106A000013F8010B0870F4E7009B01345A1C009244
:106A10007A1C01921B783B70CFE700007FB5374BA3
:106A20001A78FF2A0DD141F27851354AB2F8422046
:106A300092B28A4203D04AF2D7118A4231D0002260
:106A40001A701B78012B56D80C212E4A01FB032209
:106A5000517A5368C9090FD015890093C5F30E0503
:106A60001D44294B012201934FF48043CDE90232AA
:106A7000009B9D4217D8244B244A25491360254A80
:106A800003F59473136024484FF4F962FFF78AFF0B
:106A90004FF4C6722149224804B0BDE87040FFF7A8
:106AA00081BF0122CCE76846FEF760F8019ED0B1B5
:106AB0006846FEF76CF804466846FEF768F8009BE7
:106AC00002385A1C00921B78023403EB0023DB438C
:106AD00033441C449C42CBD0019A511C019113F8C1
:106AE000011B1170F6E7009B5A1C0092721C019268
:106AF0001B783370BCE704B070BD00BF50000020AD
:106B0000E82F002068B800085E300020E81F002051
:106B10007D210020EC1F00206AC00008F11F00202A
:106B2000DDBE00080C2210B5094C1F20237801336C
:106B300003F0010323705343064AD15AFEF796F837
:106B4000FFF76CFF2078431E5842584110BD00BF2C
:106B50005000002068B80008054B1A69120605D5D8
:106B6000044A5A6002F188325A601B69704700BFBC
:106B7000002002402301674510B590F83D300446DF
:106B800003F0FF020BB980F83C200223206884F850
:106B90003D30211DFDF702FB012384F8463084F8C7
:106BA0003E3084F83F3084F8403084F8413084F837
:106BB000423084F8433084F8443084F8453084F817
:106BC0003D3010BD022380F83D300368DA6842F0A2
:106BD0000102DA600B4A93420AD0B3F1804F07D02A
:106BE000A2F59432934203D002F58062934204D11D
:106BF0009A6802F00702062A03D01A6842F00102DE
:106C00001A607047002C014013B500211920FFF7CE
:106C100017FC4FF000721B4B1B4C1A601B4B20469D
:106C20009A6942F400629A619A6902F400620192E0
:106C3000019A5A685A685A685A68154A12685B6815
:106C4000144AC3F3C223D25C134B21611B68A160B9
:106C5000D340124AB3FBF2F3114A013B226040F2E7
:106C6000E7326360E260FFF7DBFA48B994F83D3041
:106C7000012B05D1204602B0BDE81040FFF7A2BFAE
:106C800002B010BD00E100E0542E002000100240D0
:106C900000200240F8B700084C00002040420F00DE
:106CA000002C014090F82430F0B5012B62D0012374
:106CB0001F2480F824300F694D680368EA1B02EB3B
:106CC00082020F32944044F44014E443BD420E6803
:106CD0009BBFD3F838C006FA02F29A6B07F1FF3770
:106CE0009DBF42EA07520CEA0404224322409A6301
:106CF0009A68D20707D49A68CC6922F4E04222F05D
:106D0000010222439A608C69012C0CD1CA69B2F548
:106D1000E04F0BBF5A68826A42F4806242F0200260
:106D20000CBF5A6082624A69012A04D11CBB5A68AE
:106D300042F480525A60092E4FF007048F6806EB28
:106D400046021DD9DE681E3A944026EA040407FA7A
:106D500002F22243DA60022DC968154C18D0032DC7
:106D60001BD0012D1ED15A6922400A435A610023CB
:106D700080F82430F0BD826A42F020028262DAE7B5
:106D80001E69944026EA040497403C431C61E2E7F4
:106D90009A6922400A439A61E9E7DA6922400A4384
:106DA000DA61E4E71A6A22400A431A62DFE700BFA9
:106DB00000F0FFFF10B590F824300446012B3DD0C1
:106DC000012380F82430FDF72BFA00283FD1A36A75
:106DD000214A23F4405323F0010343F48053A36278
:106DE0002368934205D1A2F58062526812F4702F95
:106DF00025D1A26A22F48012A262A26A12F48072E1
:106E000008BFE262002284F824206FF004021A60B6
:106E10005A68520512D49A6802F4E042B2F5E04F83
:106E200011D10D4A934205D1A2F58062526812F445
:106E3000702F08D19A6842F402129A6010BDA26ABB
:106E400042F48012D8E79A6842F40042F5E7002342
:106E500084F82430F2E700BF00280140002337B552
:106E6000019390F824300446012B5FD0012380F871
:106E70002430FDF70BFA0546002839D1A36A2C48C7
:106E800023F4885323F0020343F00203A362294B47
:106E90001A68294B59685B68C1F3C221415CC3F38E
:106EA0008133013322FA01F15B00B1FBF3F3B2FB52
:106EB000F3F252000192019BF3B92046FDF7B0F9BD
:106EC00023689A6842F008029A601C4A1068996820
:106ED000090715D4996841F0040199601068996810
:106EE00049071ED4A36A23F0030343F00103A362FE
:106EF000002384F8243011E0019B013B0193DAE781
:106F00001168091A0A29E2D9A36A012523F012039C
:106F100043F01003A362002384F82430284603B012
:106F200030BD1168091A0A29D9D9EDE70225F5E71C
:106F3000F8B700084C000020001002401C3E002062
:106F40002DE9F0471F4BDA8D1F4B92B29B68C3F3BC
:106F50008F039B00B3FBF2F30A229BB2B3FBF2F464
:106F600002FB14339BB2042B88BF0134A4B2092C5A
:106F70001FD94FF00A090123B4FBF9F8134E194643
:106F800000221FFA88F0B6F90050FEF75AFA0823DB
:106F90000F4F09FB18403B8001230022194680B2A5
:106FA0003580FEF74EFA00230C3535803B80BDE876
:106FB000F08701232046BDE8F0471A461946FEF740
:106FC00040BA00BFE82F0020942B0020142B002093
:106FD000162B002070B5114A114B9468DB8DC4F359
:106FE0008F049BB2A400B4FBF3F40A26A4B2B4FB52
:106FF000F6F50123284600220221FEF722FAFF229D
:1070000000210848FEF7C0F8012306FB1540BDE843
:1070100070400022194680B2FEF713BA942B00206C
:10702000E82F0020C4B600082DE9FF48AF4FB04C50
:10703000FDF734FB3B6893F86030022B13D03B68BC
:107040003220DA6DDA6501223B6883F86020FEF7B2
:1070500029FE4FF0E0234FF08052C3F8042DBFF318
:107060004F8FBFF36F8FFDF733FBFDF717FB3B68C7
:10707000A04D93F86030022B01BF3A68D36D03F046
:107080007F43D36500223B6883F86020FDF720FB37
:10709000994B95F800A0DA89B3F82E8012B20092CD
:1070A0001FFA88F8BAF1000F12D1DFF850B2DFF8FA
:1070B0005092DBF80830C3F38F039B00B3FBF8F367
:1070C0009BB2502B36D90B2389F8003003232B7049
:1070D000009B272BACDD8B4B1B68B3F57A7FA7D3C6
:1070E0002B78012BA4D1854B4FF480699D68009BC0
:1070F000C5F38F05AD00B5FBF8F52DB25D1B05EBB3
:10710000D5767610B046DFF800A2B8F1000FC0F2D5
:10711000AA80012DC6F10003C8BF0023F5184FF463
:107120008066DFF8E481002D40F0C0806420FEF727
:10713000F1FD7DE799F800600A2EC7D808220123E7
:10714000CDE90223032305936F4B02A91846FDF7EF
:10715000A7F94FF4A062CDE903AA0292FDF7A0F9C6
:107160004FF4F04220460292CDE903AAFDF798F9C8
:107170004FF40022644B1A610A20FEF7CBFDBAF1EE
:10718000820F1FFA8AF158D9A3688C2983F400630F
:10719000C3F3C0230ED103210193059100230221E3
:1071A000CDE903314FF400612046029102A9FDF7B9
:1071B00077F9019BBAF1C70F03D00AF1010A002B3E
:1071C000DAD000224FF0030ACDE903224FF4006227
:1071D000474802A90193CDF814A00292FDF760F987
:1071E000019B002B39D04FF480624FF080732261F5
:1071F00008222361444B4FF0010C1A614FF4A06345
:10720000CDF814A0CDE9023CFDF74AF94FF48062B5
:107210004FF08073226108224FF00A0A23613A4B33
:107220001A61DBF80830C3F38F039B00B3FBF8F35C
:107230009BB2502B03D9012349E70023BAE764200E
:107240000AF1FF3AFEF766FD1AF0FF0AE9D10136AE
:1072500085F800A089F800603AE7013689F80060F7
:1072600085F800A034E74FF480734FF4002BC4F886
:1072700010901E202361CAF810B0FEF74BFD4FF0AE
:107280008072C4F810900A202261CAF810B0FEF78C
:1072900041FD4FF48073C4F810901E202361CAF89A
:1072A00010B0FEF737FD08F101082EE74FF48079A2
:1072B0004FF4002A26611E20C4F81090C8F810A0D0
:1072C000FEF728FD082326610A20C4F81090C8F8AC
:1072D0001030FEF71FFD26611E20C4F81090C8F87C
:1072E00010A0FEF717FD013D1DE700BF602F002035
:1072F00000080140E61F0020E82F0020942B00200A
:10730000E71F0020E4420020000C01402DE98848DE
:107310000020FEF77DFB00232024694A694D13609D
:10732000694B1A68694B1A600520FEF705FF0120BA
:10733000FEF7EEFBE88D012180B2FEF719FB013C60
:10734000F2D1634E4FF4FA60FEF7F6FE002800F02B
:10735000AE800120FEF7DCFB594B83461C685D4F75
:10736000DFF874A1DFF87491DFF87481002C00F06D
:107370009780B4F5E17F28BF4FF4E174FEF7A2FBDC
:10738000A04202D2FEF79EFB0446A4EB0B040A2C9B
:107390001FFA8BFB05DD3988ABEB010109B20A2925
:1073A00006DDDAF80020A7F800B0C9F800200BE0ED
:1073B000DAF80020D9F80030D31A44F6206293425C
:1073C00002D9012388F800304FF47A7B4549DAF876
:1073D00000300A6800209B1ABBFBF3FBDAF8003090
:1073E0000B60FEF7E5FAAB8E9BB243B10A22AB8E7F
:1073F0009BB253439842C2BFA88E80B25043282309
:10740000B3FBFBF33268C3F164035343642293FB81
:10741000F2F35022544394FBFBF42344834239DDBE
:10742000306030682B8D9BB20BB340F6C4116B8D6E
:107430002D4C9BB24B43DAF800202168521A93423C
:1074400009D2FA21AA8DDAF8003092B2236001FB4A
:107450000233264A13602B8D9BB2984207DA234AE7
:10746000DAF8003012689A4284BF288D80B247F65D
:10747000DF721F4B9B68C3F38F03934288BF0020CA
:1074800098F80030002B18BF0020FEF7C1FAFEF775
:107490002BFA57E740428342ACBF33603060C0E70D
:1074A000DAF800203880C9F800202046BAE7142313
:1074B000104A1380104B1870104B187042E700BF31
:1074C0006C2C0020E82F0020602F00205C2F002073
:1074D000B02B0020A82B0020E4420020AC2B002081
:1074E000F02D0020B42B0020BC2B0020B82B002056
:1074F000682B0020E41F002045290020582F002081
:107500002DE9F04F9A469C4C9C4B87B01E6894F82E
:107510003D308046202B89469346109F04D002259B
:10752000284607B0BDE8F08F334619220121944860
:10753000FEF72EFF0028F2D194F83C308B42EED0BB
:10754000256884F83C102B683A46D80758BF2B684A
:107550004FF001105CBF0B432B602B68002123F41C
:1075600000632B60222384F83D30402384F83E30B2
:10757000844B2164A4F82AA0E362638DC4F824B08C
:1075800023852B6843F480632B602B6843F480735E
:107590002B603346FEF7FCFE00BB226808F0FE03BA
:1075A0003146384613615FFA88F5FEF719FF08B1D6
:1075B000236C13E0236805905A69314605929B6954
:1075C00038460593059BFEF7B3FE80B1236C042B70
:1075D00004D12268136843F400731360236C042BF6
:1075E0004FF0000384F83C3078D1012598E72368F8
:1075F00031463846C3F81090FEF79AFE014600283F
:10760000E4D122684FF00110136843F480731360D3
:1076100033463A46FEF7BCFE0028DFD1236845F02A
:1076200001051D6131463846FEF7DAFE05460028A1
:10763000BED1228D23689AB1012A27D11A6822F47B
:1076400080621A6072B6236803905A6903929A693D
:107650000392039A1A6842F400721A6062B609E053
:1076600004905A6904929A690492049A1A6842F43E
:1076700000721A60DFF81081238D1BBB202284F872
:107680003C3084F83D2084F83E3049E7022A1A68ED
:107690000ED142F400621A6072B6236802905A69F1
:1076A00002929A690292029A1A6822F48062D4E7DE
:1076B00042F480621A6001905A6901929B690193B9
:1076C000019BD7E7032B61D8012B09D131463846FE
:1076D000FEF700FE10B3236C202B86D103251FE795
:1076E000022B3A4633464FF00001404624D1FEF7C4
:1076F0004FFE0028F2D172B623681A6842F4007275
:107700001A601A69636A591C61621A70238D013B01
:107710002385638D013B9BB2638562B623681A693A
:10772000636A591C61621A70238D013B2385638D46
:10773000013B9BB263859FE7FEF72AFE0028CDD16F
:107740002268136823F48063136072B623681A6991
:10775000636A581C60621A70238D3A46013B238588
:10776000638D4046013B9BB263853346FEF710FEB6
:107770000028C1D0B2E700BFF42D00201C3E00203D
:10778000020010000000FFFF0400010031463846EF
:10779000FEF7A0FD00289ED123681A69636A591C70
:1077A00061621A70238D013B2385638D013B9BB27F
:1077B000638523685A6952077FF55EAFAFE700BF64
:1077C00015490B681A6A22F001021A621A6A1A62D3
:1077D000124A93420DD141F21112186A104208D197
:1077E00040F24442186A104202BF5A6C22F400422E
:1077F0005A6441F21112186A104208D140F2444210
:10780000186A104202BF1A6822F001021A600123AE
:1078100081F83E30704700BFE42E0020002C01406C
:10782000037F082B01D1FFF7CBBF704710B503686A
:1078300004461A6991070ED5DA6892070BD56FF0E6
:1078400002021A61012202779B699B0701D1FFF7AF
:10785000E7FF0023237723681A69500710D5DA68F9
:1078600051070DD56FF004021A61022222779B693D
:1078700013F4407F02D12046FFF7D2FF0023237785
:1078800023681A6912070FD5DA6810070CD56FF054
:1078900008021A6104222277DB69990702D1204687
:1078A000FFF7BEFF0023237723681A69D20610D59D
:1078B000DA68D0060DD56FF010021A61082222771F
:1078C000DB6913F4407F02D12046FFF7A9FF0023B4
:1078D000237723681A69D10737D5DA68D20734D5F8
:1078E0006FF001021A612368B3F1804F2ED11B4A59
:1078F0001B4C13882168013B9BB21380194B1B78EA
:10790000DBB20B640B6C83B113889BB26BB116486E
:10791000FEF716FF154B164A1B781178994214D0C2
:1079200033B1BDE81040FDF7FBBFFFF749FFF1E7BA
:10793000137040F20D120F4B1A802368DA624FF475
:1079400083725A6341F204529A6210BD0A4A93420A
:1079500001BF0A4A136801331360F6E7E41F0020F1
:107960009C2E0020582F0020E42E002045290020C6
:10797000462900205C300020002C01401C3E0020E5
:1079800090F83C30F0B5012B32D003680E681A6ACB
:1079900022F001021A621A6A5D689C6922F00202F2
:1079A00024F0730434438E683243124EB3420BD139
:1079B000CE6822F00802324325F44075D1E905670C
:1079C0003E4322F0040235435D609C614C680969C6
:1079D0005C631A629A6942F008029A619A6922F01D
:1079E00004029A619A690A439A61002380F83C3044
:1079F000F0BD00BF002C0140024BC02200211868DE
:107A000003F00CBE242A0020F8B5036805460E4694
:107A1000002B3AD102600120334601211F784C1E11
:107A2000A4B2002F33D104EB4404A400A4B2602C10
:107A300038D92B68D21A1F4B9B8C9BB2012B0CBFE1
:107A40000A231423B2FBF3F204F1600312B292FB97
:107A5000F3F103FB11225F2A2ADDA24226DC14B2D5
:107A6000B5F90430A3420FD0FFF7C6FF124BC4F1A3
:107A700060021A800022114B30461A800121FF2239
:107A8000FDF782FB0120AC80F8BD0020C4E7F02F99
:107A900003D80133013189B2C0E75F78002FC2D02B
:107AA0000233F7E7C4F1600304EB630424B2D7E7C1
:107AB0006024D5E7E82F0020142B0020162B00208F
:107AC0002DE9F3410646DDE908040F46984640B922
:107AD0004FF0500383F31188BFF36F8FBFF34F8FC5
:107AE000FEE70CB9FCF7D0FD64230193019B642BE6
:107AF00008D04FF0500383F31188BFF36F8FBFF3AB
:107B00004F8FFEE795002A46A5212063019B03F0D5
:107B100085FD226B043D2A4422F00702002F00F06D
:107B200096807B1E04F134011F3713F8010F01F812
:107B3000010B08B1BB42F8D1002384F8533043460F
:107B4000052B28BF0523E3626365C3F1060300210B
:107B5000A3614FF08073A1656161A16224616462D9
:107B6000E16584F8601042F8043C404B26F00106C1
:107B700042F8086C42F80C3C42F8201C403A226063
:107B8000FCF78CFD3A4A3B4D13683B4E01331360C2
:107B90002B68002B5ED12C601268012A2ED1324650
:107BA0004FF0FF3C14201F4602F10801C2E9011CFE
:107BB000C2E9031100FB03F10133062B775002F1F8
:107BC0001402F1D12D4A02F10803C2E9013CC2E9D5
:107BD00003332B4B176003F10801C3E9011CC3E910
:107BE000031128491F6001F108000F60C1E9010C71
:107BF000C1E9030024490A60244A1360244A254944
:107C000013680868013313600123E26A9340034359
:107C100014200B6000FB0260211DFCF7F7FDFCF750
:107C200057FD1D4B1B6873B12B68DA6AE36A9A42F1
:107C300009D24FF0E0234FF08052C3F8042DBFF378
:107C40004F8FBFF36F8F204602B0BDE8F08184F8FC
:107C5000347074E7104B1A68E36A002ACED12A68A0
:107C6000D26A9A4298BF2C60C8E700BF65460008F8
:107C7000203E0020602F00206C2F0020343E00208A
:107C8000483E0020CC420020642F0020682F0020B6
:107C9000283E00202C3E0020E042002037B504465C
:107CA000D0E90010A569B4F908302269019564692A
:107CB000842B0CBF002303330094FFF701FF03B0B4
:107CC00030BD00002DE9F843044640B94FF05003A1
:107CD00083F31188BFF36F8FBFF34F8FFEE7056CFF
:107CE00045B14FF0500383F31188BFF36F8FBFF39B
:107CF0004F8FFEE7FCF77AFDFCF7D0FCA26BE36B3D
:107D00009A4273D2226CA76B002A5FD12368B3B169
:107D100000250137A763636A002B65D004F12400B6
:107D2000FCF7A8FE002861D04FF0E0234FF080520E
:107D3000C3F8042DBFF34F8FBFF36F8F56E0A568D4
:107D40001DB900250023A360E3E72A4B1B689D4271
:107D500008D04FF0500383F31188BFF36F8FBFF348
:107D60004F8FFEE7AB6D43B94FF0500383F311889B
:107D7000BFF36F8FBFF34F8FFEE7D5F82C906E6D7A
:107D8000013BB145AB65DCD0002BDAD105F104082D
:107D90004046FCF75EFD184B30B901211A6801FA24
:107DA00009F122EA01021A60C6F10602EE62AA6136
:107DB00001251420196805FA06F20A431A600F4BD0
:107DC000414600FB0630FCF721FDBBE72946606811
:107DD00003F03CFC6368226C1344A2686360934226
:107DE00096D32368636094E7002D9DD1BDE8F843E6
:107DF000FCF76EBC602F00202C3E00206C2F002072
:107E0000014B1868FFF75EBF1C2B00202DE9F341E2
:107E100005460E4617469846FDF7F0FF044670B13A
:107E20004FF4FA733A460093314643462846FFF72B
:107E300067FB40B1FEF72CFC0024FFF7E1FF204672
:107E400002B0BDE8F081FFF7DBFFF8E730B585B0A1
:107E50000546FDF7D3FF044668B14FF47A730F214E
:107E600000932846012303AAFFF74AFBB0FA80F4E7
:107E70006409FFF7C5FF204605B030BD2DE9F34783
:107E8000804689469246FDF7B9FF0646002851D044
:107E90006A4F6B4C3D6894F83D30202B45D12B4602
:107EA000192201216748FEF773FA00283DD194F8A2
:107EB0003C308B4239D0236884F83C101A684FF06C
:107EC0000110D2075EBF1A680A431A601A680021BF
:107ED00022F400621A60212384F83D30402384F8A4
:107EE0003E30012321646385A3F10113E362638DB6
:107EF0002268C4F824A02385136843F480731360B8
:107F00002B464FF4FA72FEF743FA50B9226808F094
:107F1000FE0329464FF4FA701361FEF761FA68B167
:107F2000236C236C002384F83C30FEF7B1FB002661
:107F3000FFF766FF304602B0BDE8F0872368019086
:107F40005A69294601929B694FF4FA700193019B8B
:107F5000FEF7EEF940B1236C042BE2D122681368DE
:107F600043F400731360DCE72368C3F81090238D9B
:107F70009BB92268536913F004033FD0136843F49C
:107F800000731360202384F83D30002384F83E30D2
:107F900084F83C30FFF734FFCCE729464FF4FA7001
:107FA000FEF7C6F940B1236C042BBED122681368DA
:107FB00043F400731360B8E7616AD4F800C04B1C47
:107FC00063620B78CCF81030638D228D013B501E1C
:107FD0009BB280B220856385DCF814305B07C6D580
:107FE0000028C4D08B1C63624B78023ACCF8103066
:107FF000638D2285013B9BB26385B8E7516911F41B
:1080000080610FD06FF4806151610421216423638A
:10801000202384F83D30002384F83C30236C042B6B
:1080200083D1C4E73B685B1BB3F5FA7FA2D9236C0D
:1080300043F0200323642163EAE700BF1C3E0020D5
:10804000F42D00200200100007B5084B5A38C0B2CA
:1080500083F840008DF8070080210DF10702782099
:10806000FFF70CFF03B05DF804FB00BF0000002029
:1080700010B5094CB4F8460080B2003818BF012092
:10808000FDF73EF8B4F84600BDE8104080B2003875
:1080900018BF0120FFF7D8BFE82F00202DE9F341DA
:1080A00017460C46002680466378404621780DF13D
:1080B00007028DF80730FFF7E1FE054640B1A078D2
:1080C00008B1FCF7A3F80136B74204F10304EBDC76
:1080D000284602B0BDE8F081192310B50C4CB4F865
:1080E000480080B2B0FBF3F0012301301A46194674
:1080F00080B2FDF7A6F9B4F848300649022281F8AB
:108100002E307820BDE810402A31FFF7C7BF00BFEE
:10811000E82F00200000002073B506460D46FDF74D
:108120006DFE00284DD000230193274B93F83D208E
:10813000202A13D146F2A811244A1268B2FBF1F2A8
:1081400019214A4301921A68019C611E019164B988
:1081500020221C6383F83C4083F83D20FEF798FA08
:1081600002B0BDE87040FFF74BBE91698807EBD4C1
:1081700093F83C100129F1D011680020C9075EBFB7
:10818000116841F001011160116821F40061116072
:10819000212183F83D10102183F83E100C4918640A
:1081A0005D85D962598D5E6219857821596411689F
:1081B00041F48071116083F83C00536843F4E0633C
:1081C000536002B070BD00BFF42D00204C000020B1
:1081D0000000FFFF08B5FCF7E9FC28B1BDE8084046
:1081E000D1210248FFF798BF08BD00BF48290020F1
:1081F0002DE9F74F06464D4DDFF8348101916B8C28
:108200009BB2002B71D0002E6DD1EA88AB8892B260
:108210009BB2934228BF13461F2B64D9092203EB5C
:108220008303A03BB3FBF2F3C8F80030FDF78AFCF0
:1082300000240746FFF7E0FB3E492A8C3E4BDFF85F
:10824000FCB0D1F800A03E4992B2D1F800901C8059
:10825000ABF80040002A52D0BAF82600FF2221468F
:108260004844FCF791FF344BBAF828001C800823DF
:10827000FF2221464844ABF80030FCF785FF01237C
:10828000224603213846FDF7DCF82046FDF7DEFAEA
:10829000FF2221462B48FCF777FFFEF79BFEFF22CB
:1082A00021462948FCF770FFFFF794FFFDF750FDCA
:1082B0000198FCF7A9FC98B16B8B9BB283B3234B5D
:1082C000196869B3224B1A686B8B521A4EF66021FB
:1082D0009BB24B439A4223D900230120C8F80030B7
:1082E00003B0BDE8F08F00239EE7002E9CD1EA8802
:1082F000AB8892B29BB2934228BF134694E7BAF878
:108300002400FF2248440121FCF73EFF01233846A8
:108310001A460321FDF795F80220FDF7ABFAC3E7F3
:10832000FCF7C0FD08287FF46AAFD5E7E82F0020EE
:108330006C2C0020E81F0020142B0020162B00209E
:10834000EC1F0020A6B70008C6B60008302F00209A
:10835000E442002038B505460C46FFF74DFB2846A1
:10836000FCF7CAFFFFF736FF2046BDE83840FDF7AF
:10837000F3BC00002DE9F84F0024674B674FA0467F
:10838000D7F800901C60FCF78DFD051B18BF012578
:10839000A246634BA3F800A0624BA3F800A0FFF72E
:1083A0002BFBFCF77FFD002800F0A080D7F80090A1
:1083B000002D40F09F80042800F08B8009D802280F
:1083C000594B00F0828002D8012800F08D802B46A6
:1083D00014E0082803D01028F9D1BDE8F88F3A68D6
:1083E000A4EB08031344B3F5967FF0D94E4B1B8FD3
:1083F0005B422134D7F800801BB2E4B24A4EC4F588
:108400009672632AF28ED8BFC82492B20AB15B4238
:108410001BB2DBB1B18883EAE372A2EBE3721944C9
:1084200009B213B291FBF3F15143738C09B29BB2C1
:10843000002B61D0322940F25233B8BF3221994229
:10844000A8BF1946002089B2FCF710FC3B68A3EBDB
:108450000903B3F5FA6FC0D8344BFF2293F800B08C
:10846000F38E01219BB2BBF1000F4ED1DFF8C0C0EB
:108470003048002B18BF6046FCF786FEFF22012122
:108480002D48FCF781FE0123B0881A46032180B2F3
:10849000FCF7D7FF0220FDF7EDF9FF220121264866
:1084A000FCF772FEF38EFF2201219BB2BBF1000F9D
:1084B0002FD1204E1E48002B18BF3046FCF764FE1B
:1084C000FFF788FEFDF744FC63E75B8F5B421BB25E
:1084D00094E73A68A4EB08031344B3F5967F7FF65C
:1084E00076AF114B1B8F84E75B8FF0E704460546A0
:1084F000234683E70024FBE70A29B8BF0A21B1F528
:10850000E17FA8BF4FF4E1719CE7DFF828C008487D
:10851000AFE7074E0748CEE76C2C0020E44200206E
:10852000142B0020162B0020E82F0020382A0020D2
:10853000C8B60008CAB60008A6B70008002373B57D
:1085400000934FF6FF7304460C4EADF804302146FD
:1085500068463268FFF758FA0546FCF7A3FC38B9BD
:10856000002DF4D0FFF736FE2820FDF7D3FBEEE711
:10857000431E5842584102B070BD00BFE442002083
:1085800008B50B4BB3F84C309BB273B9094B0A4A90
:108590001B6810689B8A1844FFF7D0FF18B10121AF
:1085A0002420FCF763FB002008BD0021F8E700BF92
:1085B000E82F0020E81F0020EC1F002008B5094A22
:1085C0000346117881420BD010700748523B43702C
:1085D0001021FFF7A1FDBDE808400A20FDF79ABB76
:1085E00008BD00BF4729002048290020F8B5164FD4
:1085F00080F001053B780446AB4223D0002D0CBF30
:10860000C026C8261149A5F160030B7719220E7404
:108610007820FFF743FD0A20FDF77CFB002D0CBFFF
:108620007F235F230A486401C37144714672D121DC
:108630003D70FFF771FD0A20FDF76CFBBDE8F840C7
:10864000FCF7B4BAF8BD00BF382A002000000020B3
:10865000482900202DE98048142091B0FDF75AFBED
:108660000023AE4C3A202360FFF7F0FB38B10D2217
:108670003A20AB49FFF712FD002840F03F8132203D
:10868000FFF7E4FB002800F0DB8000230F218DF8CA
:108690003030322001230CAAFFF7B8FB002800F08D
:1086A000CF809DF83030332B02D0112B40F0C880A2
:1086B0000C2232209B49FFF7F1FC002800F0C0801B
:1086C00000230F218DF83030322001230CAAFFF750
:1086D0009DFB20B19DF83030112B00F012814FF03E
:1086E00003083220C4F80080FDF714FB00228E4BF3
:1086F0001A608E4B1B8B9BB21BB14FF4FA60FDF7D7
:1087000009FB102200210CA802F088FF1022002192
:1087100008A802F083FF1022002400210DEB0200C4
:1087200002F07CFF264627460325A146C82240F6D4
:10873000E44A7E4BB8F1020F5B8A9BB202FB13A3A3
:10874000019340F003810623012102AA3A20FFF79A
:108750005DFB012310213A2002AABDF80840BDF8B4
:108760000A60BDF80C70FFF751FB9DF908309DF8C9
:108770000850002BE4BAF6BAFFBA80F29581C5F32F
:1087800041056A4B1B8A9BB2022B06D1032D04D0F4
:10879000B5FA85F04009FFF729FF654910AB03EBF7
:1087A000490323F8104C23F8206C23F8307C0B7815
:1087B00009F1010933B95FFA89F3082B40F0788198
:1087C00001230B70002208201146134609F0070907
:1087D0000DF1300B0DF1200A0DF1100C3BF902EBFD
:1087E000013873443AF902EB10F0FF0071443CF990
:1087F00002EB7244F2D1002BB8BF0733C4EBE303A2
:10880000002BB8BF5B420029B8BF0731C6EBE101BE
:108810000029B8BF4942002AB8BF0732C7EBE202BD
:10882000002AB8BF52420B441344019A64209A4272
:10883000BFBF404B1A683C4B1A60FDF76BFA75E7F7
:108840003020FFF703FB98B10021012330200CAA50
:108850008DF83010FFF7DAFA50B19DF83030F82B70
:1088600006D1082230203449FFF718FC00284BD1EC
:108870003020FFF7EBFA30B3002501230F21302021
:108880000CAA8DF83050FFF7C1FAE0B19DF83030F6
:10889000112B18D10C223020284B29491D70FFF7CD
:1088A000FDFBA0BB4C20FFF7D1FA28B105224C20DC
:1088B0002449FFF7F3FB68BB00210720FCF7D6F93A
:1088C0004FF001080DE73220FFF7C0FA0028E9D089
:1088D00000230F218DF83030322001230CAAFFF73E
:1088E00095FA0028DED09DF83030112BDAD1012224
:1088F000124B32201A7014490C22D0E74FF00208B4
:10890000EFE64FF00808ECE64FF00408E9E64FF018
:108910000608E6E64FF00508E3E600BF4402002043
:108920005FB9000886B90008302F0020E82F00202A
:10893000C22B0020E4420020AAB90008182B002016
:10894000C2B9000850B90008B9BE0008B8F1030F59
:1089500002D0B8F1080F20D10623A82102AA3220A4
:10896000FFF754FA0123B521322002AABDF90840CD
:10897000BDF90A60BDF90C70FFF748FA9DF8085080
:10898000AD08082D00F09080012D3FF4FAAE022DC5
:1089900008BF002518BF0325F3E6B8F1040F2AD15C
:1089A000494B022118689B880290ADF80C303020AA
:1089B000062302AAFFF72AFA0446C8B19DF8094027
:1089C0009DF80B609DF80D70A401B601BF01012355
:1089D00002AA0C213020FFF719FA9DF808301A0975
:1089E0009B0661D412F0030F0CBF01250025C8E6D9
:1089F00006460746EBE7B8F1050F24D1062302210E
:108A000002AA4C20FFF702FA0023BDF908400C210E
:108A10008DF808304C20012302AABDF90A60BDF987
:108A20000C70FFF7F3F99DF80830A410602B4FEAA3
:108A3000A6064FEAA70704D0702B14BF0325002514
:108A40009FE601259DE6B8F1060F7FF49AAE00235C
:108A50000293ADF80C301D4B02AA1D784346002D41
:108A60000BBF2821A82130203220FFF7CFF9044680
:108A7000B8B1BDF90840BDF90A60BDF90C70002D10
:108A800014BF322030200123352102AAFFF7BEF99E
:108A90009DF80850AD08022D08D005F03B05012DCA
:108AA00078E706460746EAE703256AE6002568E612
:108AB00010AA02EB4302013322F8104C22F8206C7A
:108AC00022F8307CDBB278E6B4B60008182B002020
:108AD00010B50620FCF7E0F8054B04461B8A98B257
:108AE00018B1012801D0204610BDFFF77FFDFAE73D
:108AF000E82F00202DE9F0472F4E742230462F49F1
:108B000002F094FD002854D0FCF7EEFE35232C4DE6
:108B10002C4CEB600120FEF71FF8FBF777FBFCF70E
:108B2000E3FE237E012B16D001232376FDF72EFBD7
:108B300078B9E0612B6943F002032B616E612B6908
:108B400043F040032B61FDF721FB2B6923F0020367
:108B50002B6100232376FDF7FFFF4FF00109174F2C
:108B6000154D174EDFF86080FCF7BEFE237E012B0B
:108B700015D0B7F800A084F81890FDF707FB60B98E
:108B8000E061336943F001033361A5F800A0FDF70C
:108B9000FDFA336923F001033361002323760235A4
:108BA000454507F10207DFD1054A136943F0800309
:108BB0001361BDE8F08700BF00FC0008E82F00202B
:108BC00000200240382F002074FC00082DE9F04FEF
:108BD00085B0002840F0C2804FF0000B5D46CDE923
:108BE00001BBB14CDFF8C492FCF75CF9019B002B90
:108BF00000F0D880E38C9BB2002B00F0D3800428D7
:108C000000F0F98000F2BA80002800F017810328F4
:108C100040F0BD80FEF7F0FE218CA54B89B293F8A1
:108C20000080A44FA44E002900F06681B8F1000F27
:108C30000CBF32234FF0FF334FF0000A01203B807E
:108C4000A6F800A0FDF71EF8638A9BB263B32389E0
:108C50009BB24BB3D0450CBF20232F23A6F800A016
:108C60003B80FBF7B9FF954A954B1168954A1B6805
:108C7000126891422CBFC3EB0103C3EB02031844FB
:108C8000914B984240F2DC804EF66023B0FBF3F04B
:108C900001305246022180B20123FCF7D2FBFF22B1
:108CA00051468A48FCF770FA002D00F0D880B8F1E0
:108CB000000F0CBF262337233B800823FF2200210F
:108CC00083483380FCF760FAB8F1000F14BF4323E8
:108CD00000234FF00008DFF8FCA10393DAF800004E
:108CE0003B80B0F57A7FA6F80080C0F0C480FF22F8
:108CF00041467948FCF748FA0A23DAF80000424670
:108D0000B0FBF3F00321012380B2FCF79AFBFF22B2
:108D100000217248FCF738FA039B3B80082333801C
:108D2000FEF758F9FF2200216D48FCF72DFAFFF7F6
:108D300051FA638C6B4E9BB2002D00F03881002BF2
:108D400000F03281238E9BB21F2B40F21381092247
:108D500003EB8303A03BB3FBF2F30CE1831E584209
:108D600058410121FFF744FA01287FF435AF544BF5
:108D70001A68524B1A6005B0BDE8F08F20282DD03C
:108D80003FF648AF082802D010287FF443AF564B77
:108D9000D9F800001B684FF4FA71DB891844FFF71B
:108DA000D9FA37E7042832D010D8002846D0032853
:108DB0003FF430AFA688FFF7DDFAA388B6B29BB2C6
:108DC000B3423FF427AFFFF795FE23E71028D2D038
:108DD000202822D008287FF41DAFCCE7424BD9F8D9
:108DE00000001B684FF47A719B891844FFF7B2FAB0
:108DF000002301930EE7238E9BB2002B3FF40AAFB2
:108E0000E38C019A9BB2012B08BF154602E7238E23
:108E10009BB2002B18BF0125FCE6E38C9BB2002B14
:108E20003FF4F8AE304BD9F800001B684FF47A716C
:108E30005B891844FFF78EFA0123DAE70546E9E675
:108E40004FF47A73B0FBF3F001305246022180B246
:108E50000123FCF7F6FAFF225146244822E7B8F135
:108E6000000F0CBF20232F233B800823022229461A
:108E70001F48338026E74FF00A0AB0FBFAF00123BF
:108E80004246022180B2FCF7DCFAFF224146194833
:108E9000FCF77AF90F4B42461868B0FBFAF30AFB6D
:108EA0001300012319462FE7E82F0020EC1F0020B4
:108EB000382A0020142B0020162B00202C2F0020F5
:108EC000E4420020302F0020B8820100CCB6000818
:108ED000C8B60008303E0020A6B70008D1B600088A
:108EE000C6B600086C2C0020E81F0020B6B70008AA
:108EF000CEB60008C4B6000839803180B8F1000F42
:108F00001CD1FEF71DF83D48FF220121FCF73CF97A
:108F10000120FCF7B7FE5DB102210846FCF7A2F87C
:108F2000374B00211868FCF759FDFCF74DFCFEE6B5
:108F3000FF2201213148FCF727F9F1E7304B18688F
:108F4000FCF74CFDFCF740FC75B102210846FCF72C
:108F500089F80120FCF796FEFF2201212748FCF743
:108F600013F9FDF7EDFFE2E6FF2201212348FCF7AC
:108F70000BF9EEE7002300203360FBF745FED8B97C
:108F8000DFF8808098F80070EFB100241E4B1F4A74
:108F90001B6810681B8A42F2107118443460FFF796
:108FA000D9F988F80040E6E6238E9BB2E3E70BB1DF
:108FB000A388C8E6A388F8E700210846FFF718F958
:108FC0000028DDD0D7E638463668FCF7A1FD0A3622
:108FD000361A142E06D8029B6BB901270C4B1B685E
:108FE00003F24D1BBBF1000F01D0094B1B68FCF7CE
:108FF000AFFE0297F8E5029FF4E700BFA6B70008AE
:10900000303E0020F02D0020E81F0020EC1F002043
:10901000E4420020F8B545F2AA54234B1A8892B2D4
:10902000A2423AD018467422FF2102F0F7FA0480D7
:10903000034601241A6F01321CBF4FF0FF321A673A
:109040005A8818BF012492B2342A08D84FF6FF710B
:109050005A8892B2342A22DD352201245A80002215
:10906000124903EB4206B5880F88ADB2AF424FEA12
:10907000420004D8B5884E88ADB2AE4203D2CC8847
:109080001844848001240132352A01F10801E8D115
:109090000CB1FFF72FFD2046F8BD0024CAE703EB13
:1090A000420081800132D5E7E82F002052000020E5
:1090B0002DE9F84FFEF7A0FC4FF01909414F424A45
:1090C000424D9468EB8DC4F38F049BB2A400B4FBB3
:1090D000F3F44FF00A0BA4B20123B4FBFBFA002611
:1090E000DFF8EC801A4602215046A7F80090A8F855
:1090F0000060FCF7A6F9FF2201213648FCF744F88E
:1091000001220BFB1A403346114680B2FCF799F955
:10911000FF2201213048FCF737F80823E88D32465A
:109120000321A8F8003080B201233E80FCF789F9C2
:10913000FBF7B8FE022841D007D8012826D0FFF758
:1091400049F82820FCF7E6FDB9E71028F7D8234CAA
:10915000044114F00104F2D1FFF7CCFCFEF74CFC03
:109160001F4B204A1B6810681B8840F6B831184412
:109170003C80A8F80040FFF7EDF8FFF72BF84FF41C
:10918000FA70FCF7E9FD2046BDE8F88F164AB2F800
:10919000A830B2F8AA00B2F8AC10EA8D92B29342AD
:1091A00002D1E885EB8DCAE7EA8D581892B2824267
:1091B000C2BFEB8D5B1A9BB2EB85F3E71520FBF783
:1091C0006BFDBCE7142B0020942B0020E82F00201F
:1091D000162B0020BAB60008D3B60008EFFEFEFF3B
:1091E000E81F0020EC1F00205200002038B50D4B76
:1091F0001D680D4B288B1C682044FFF79FF980B138
:109200007422FF21094802F009FAFFF703FFFFF774
:1092100071FC688840F6B8312044FFF79BF8FCF7F2
:1092200051FB38BDE81F0020EC1F0020E82F002074
:109230002DE9F04F0026DFF8DCA089B0DAF8003025
:1092400002900393DAF800300793039ADAF80030BB
:109250004FF4FA719B1A642201935343B3FBF1F369
:109260009BB2C3F196045B435C4341F2883394FBA9
:10927000F3F46023A4B25C43B4FBF2F4A4B29C42C6
:1092800028BF1C460299E3B2C4F16002002938D11C
:109290002746B146029D5FFA82F8DFF87CB01E4691
:1092A000DBF80030059203EB0901D819049302F0B2
:1092B000DBF9DBF804B0059A0BEB09010BEB0700B7
:1092C00002F0D2F9154B224603EB0801049B581912
:1092D00002F0CAF9124B224603EB08010BEB050022
:1092E00002F0C2F9FEF776FF07A8FCF7EFFEFBF7E6
:1092F000D9FD18B9019BB3F5FA7FA6D909B0BDE82D
:10930000F08F00279E1BC3F16005B8465FFA86F90F
:10931000EDB2C2E7E4420020242A00204A2A0020BD
:10932000AA2A00202DE9F04F00240125B24B95B068
:109330001D7009908DF82A408DF82940FBF775FDC6
:109340004FF6FF732646A246DFF8B082DFF8B0B2D0
:1093500004900B950D94ADF8383005940394069560
:10936000029414239DF82A506B430793079A099B94
:109370009F180893BB6813B19DF8293013B115B03D
:10938000BDE8F08F8DF82B300B9B0193002B00F084
:109390008880DFF870929C4BC9F800306033C9F8C0
:1093A0000430FB688BB1984778B9029B01350133D3
:1093B000DBB20293954B039FC9F8003060338DF800
:1093C0002A50C9F804300397CBE70122904B1A705A
:1093D0000023904A1380904A1380FEF70DFBB97C5E
:1093E00011B1787CFBF79CFFBB689847019B022B6F
:1093F00040F0C6800022ADF843204FF40652ADF88D
:109400003C2080228DF83E208DF8402040224FF0F5
:109410001009824B0921DB790FA88DF83F308DF8B8
:1094200041308DF84220FEF777FED8F800300C93DB
:1094300060237649744A11F801EB013B91F85FC053
:1094400013F0FF034FEACC1040EA5E0012F801EB84
:1094500001F8010C4FEACE1040EA5C0081F85F0091
:1094600092F85F004FEAC01C4CEA5E0C4FEA5000D5
:1094700002F801CC82F85F00DDD1FBF713FD002874
:1094800072D0C9226049614802F0E0F8FEF7A2FEFE
:109490005C4A5E4B13606033536000235C4A0B935D
:1094A0001370DBF80020D8F800309B1A40F6B73272
:1094B000934272D9DDE90723995C00296DD0584B9E
:1094C000D8F800201B680DA803EB41035549B3F8F9
:1094D0004A3009681944FEF797FA069B03B920B190
:1094E000FEF778FE2820FCF715FCFBF7DBFC039B5E
:1094F0000746834218BF00260DF12B030F9309ABDB
:1095000010930DF12A0311930DF1290312930428EE
:109510000BAB139300F0AC8000F28A80012800F0BE
:109520009680022800F09B80C6F59673632BDBF8CB
:109530000020D8F8003098BFC8269B1A3A4A9342B8
:1095400008D901238DF8293000230D934FF6FF73BE
:10955000ADF838309DF82B301BB10998FBF765FC4E
:109560000490002306932EE7FEF734FE09F1FF393D
:109570000CA8FCF7ABFD19F0FF097FF459AF87E7A2
:10958000224BC9F800306033C9F80430019B013B1D
:1095900058425841FFF74CFE7FE700231D4A1380D5
:1095A0001D4A1380FEF728FAB97C11B1787CFBF7CD
:1095B000B7FEBB68984724B1059B002B36D000232B
:1095C00005931022049B0499B2FBF3F2012393400C
:1095D000029A013BAA1A120192FBF1F29BB2D2B29B
:1095E0009340084A1168526881F85F30C3F307233B
:1095F00082F85F3074E700BF902B0020E442002027
:109600002C2F0020242A00204A2A0020592900203B
:10961000F01F0020142B0020162B002048290020CA
:10962000E81F0020EC1F0020C0D40100059457E77C
:10963000082839D010287FF477AF01238DF829301E
:1096400000230D934FF6FF73ADF838306CE70D9B98
:10965000002BF5D10FA8FBF7FFFB044664E70D9B39
:10966000002BEDD101351C468DF82A500B905BE79D
:10967000D8F800300AF59672334493427FF654AF1F
:109680000FA8FBF7E9FB041E14BF4FF47A72002207
:10969000D8F8003002EB030A00230D934FF6FF7356
:1096A0002136ADF838303FE7D8F80030A3EB0A0395
:1096B0003344B3F5967F7FF637AF02230135D8F8F0
:1096C00000A08DF82A500B93E6E700BF2DE98048F3
:1096D00089B0FDF7A3F900239F4ADFF880B2DFF8D5
:1096E00080921370ABF80030A9F800309D4BDFF882
:1096F00078A203F16002CAF804209C4ACAF800303C
:1097000002F11001113B52F8040B8A4243F8040B9A
:10971000F9D112781A70954B954A53F8040B8B4285
:1097200042F8040BF9D100241B78924D13701922D2
:1097300029467820FEF7B2FC002818BF0B2401341C
:10974000092CF4DD8C4C0120FEF738FFB4F84830CA
:109750008849022281F82E3078202A31FEF79EFCBB
:10976000B4F84600854D80B2003818BF0120FEF7DE
:109770006BFC29238248834A834E844C84499F5D35
:1097800005F8017B1F5D00F8017B5F5C013B02F87F
:10979000017BF4D253237F4D7F48804AF75C05F864
:1097A000017BE75C00F8017BCF5C013B292B02F8D1
:1097B000017BF3D1704CFCF795F9208A00F0010091
:1097C000FEF714FFB4F84C309BB2002B6DD0FEF7BF
:1097D00001FD3220FCF79EFAFCF7CAF90546002885
:1097E00063D1FCF795F904462846FCF747F90A23AC
:1097F000B0FBF3F080B2241A002CB8BF6442092CED
:1098000053DCDFF89C81002426462546FCF76AF9E4
:109810000644FEF7F1F8634BFF221B680021039317
:10982000614BA9F800501B68ABF800500493039BF0
:109830000027D88A049B1844FBF7A6FC0823FF22C4
:1098400000214046ABF80030A9F80050FBF79CFC23
:10985000C4F385030593059AFBB29A4272D8FEF7CA
:10986000B9FC01346420FCF755FA102CCED101214B
:10987000C6F30F10FBF766FB81B20029C3D0172097
:10988000FBF7F4F9FEF7B8F8039B40F6B8311888F7
:10989000049B03441846FEF75DFDFEF79BFC002188
:1098A0002420FBF7E3F9FFF725F9334AB2F84A30F1
:1098B0009BB20BB3B2F84A309BB2042B1CD8138B6B
:1098C0009BB2CBB1138B9BB2022B15D8538C9BB29E
:1098D000002B3ED0D3889BB21F2B81BF092103EB05
:1098E0008303A03BB3FBF1F398BF00239BB24B2B48
:1098F00028BF4B232D490B602D4BD3F800182D4B5F
:10990000994261D12C4A2D4B11462D481C780233C7
:109910004C7413F8034C83428C7401F10201F5D1AD
:1099200028491878023382F8710013F8030C8B422F
:1099300082F8720002F10202F3D1FEF74BFCFCF751
:1099400029FA83E0FF2200214046FBF71DFC013786
:1099500081E7D388CAE700BF382A0020162B0020F1
:10996000142B002059290020242A0020C8BC0008FC
:10997000392A002000000020E82F0020C32B0020FF
:10998000172C0020702C0020A4D70008F8D700085E
:1099900074BC0008ED2B0020412C00209A2C0020E4
:1099A000C4B60008E81F0020EC1F00206C2C00202B
:1099B00000F0000855AA0DF04829002005F800081D
:1099C00065F80008C5F80008A9490B78AA2B3DD115
:1099D000B2F84A309BB2002B38D001254FF0600816
:1099E0004B780393FEF708F8FBF75CFA039B9B00A8
:1099F0000493A04B9F4FEC5CEF19FF2C39D1002151
:109A000001371023602208460097FBF7EBFA602429
:109A1000FEF7E0FB64000134FEF7DCFBFBF742FAE3
:109A2000039B0646254413B10498FCF773F9924B47
:109A3000B3F84A309BB23BB140F2FD339D423FF751
:109A40007EAF002C3FF47BAF002ED2D0FDF7D4FFC9
:109A5000FEF7C0FB894B1B784BB1894B894A1B68C9
:109A600010689B8842F210711844FEF773FC864C14
:109A70002AE0FE2C21D0002CCED000267B1C6408CE
:109A80000593A642C4DA059B012213F8160001369D
:109A900017F816305F288DF81F30B0FBF8F394BF2D
:109AA0000021012108FB13000DF11F030093C900E1
:109AB0000823C0B2FBF796FAE3E70124ACE70520E0
:109AC000FCF728F9FBF710FF2368002BF7D0012BD8
:109AD000694D12D1EB8F9BB2012B0ED81D20FBF7E5
