:020000040800F2
:10800000005000205181000801A7000803A70008C4
:1080100005A7000807A7000809A70008000000003E
:1080200000000000000000000000000031A900086E
:108030000BA7000800000000B1A90008FDB400086B
:1080400099810008998100089981000899810008A8
:108050009981000899810008998100089981000898
:108060009981000899810008998100080DA70008EE
:108070009981000899810008998100089981000878
:1080800019A9000825A9000889B7000899810008E6
:10809000998100089981000899810008F9B20008C7
:1080A0009981000899810008998100089981000848
:1080B000998100089981000819A7000895F4000823
:1080C000F1A70008998100089981000899810008AA
:1080D0009981000899810008998100089981000818
:1080E000998100089981000899810008000000002A
:1080F0000000000000000000000000000000000080
:0C81000000000000000000005FF8E0F14B
:1081100010B5054C237833B9044B13B10448AFF3C1
:1081200000800123237010BD100200200000000019
:10813000400F010808B5034B1BB103490348AFF3D7
:10814000008008BD0000000014020020400F01085C
:10815000002103E00B4B5B58435004310A480B4BA2
:1081600042189A42F6D30A4A02E00023136004320E
:10817000084B9A42F9D302F09DFA08F07DFE06F012
:108180006DFAFEE7683701080000002010020020A9
:108190001002002014460020FEE700000648006898
:1081A000006880F3088862B661B6BFF34F8FBFF3F3
:1081B0006F8F00DF00BF000008ED00E04FF05003BC
:1081C00083F31188BFF36F8FBFF34F8FFEE700007B
:1081D000002307B501930A4B1B68013301D0FFF759
:1081E000EDFF4FF0500383F31188BFF36F8FBFF3A0
:1081F0004F8F019B002BFCD003B05DF804FB00BF48
:108200000C02002008B5EFF305830F2B07D90E4AA7
:108210009B5C0E4A12789A4201D9FFF7CFFF4FF0CC
:10822000E0230B4AD3F80C3D126803F4E063934259
:1082300008D94FF0500383F31188BFF36F8FBFF35A
:108240004F8FFEE708BD00BFF0E300E0384100209B
:108250003C41002070B40425C66B026C346803688E
:1082600095402542196832D04D0730D51A689606D8
:108270005EBF1A6822F004021A603D4A934219D088
:108280001432934218D01432934217D014329342CE
:1082900017D01432934217D0143293420CBF4FF4CC
:1082A00080034FF08063334A5360C36A002B5CD075
:1082B00070BC18470423F6E74023F4E74FF48063CB
:1082C000F1E74FF48043EEE74FF48023EBE702251C
:1082D0009540254235D08D0733D51A68940606D4CB
:1082E0001A6822F00A021A60012280F82120204A2E
:1082F000934219D01432934218D01432934217D0BB
:108300001432934217D01432934217D0143293424E
:108310000CBF4FF400134FF00073164A5360002354
:1083200080F82030836AC1E70223F6E72023F4E7D0
:108330004FF40073F1E74FF40053EEE74FF40033CE
:10834000EBE70825954025420FD009070DD51968A0
:1083500021F00E011960012303FA02F272608363B7
:108360004FF480730384036BA0E770BC704700BFB9
:108370000800024000000240002337B50268019364
:108380009368DB0702D5002003B030BD9368124923
:1083900043F001039360114B1B68B3FBF1F30193AE
:1083A000019BABB90E4C2568936813F00103EAD129
:1083B0002168491B0229F7D9826A80F8243042F0EB
:1083C00010028262C26A42F00102C2620120DBE74F
:1083D000019B013BE3E700BF40420F004C0000203F
:1083E000404100207047436A9A6A42F040029A6214
:1083F000DA6A42F00402DA6270470000034A013090
:10840000116813685B1A8342FBD370474041002018
:108410000023084910B501EB8001184651F82340AC
:108420000433A2B202EB1442402B1044F6D1C0F345
:108430008F0010BD2C02002008B9064B1868026B93
:108440000020135CA52B02D0C0F38F0070470130D1
:10845000F7E700BF4C320020064A13681968064B44
:1084600019B94FF0FF321A6070471268D26812686B
:10847000F9E700BF50320020E845002030B50C6815
:10848000631C0AD103695A684A6091608B60596025
:10849000036808610133036030BD00F10802134630
:1084A00052681568A542FAD9EDE7000000231A4684
:1084B000074911F8010B03FB00220133DA2BF8D135
:1084C000044B18681A60801A18BF0120704700BF5B
:1084D000352A0020202B002070470000084B33F87D
:1084E000302003EBC00391425B8803D399420A46D4
:1084F00028BF1A46034B03EB40039A80704700BF26
:1085000052000020FC32002070B5114B114C33F8A2
:10851000306003EBC00359889A8804EB40034500A0
:10852000988880B2884207D19E802C44A08880B26F
:10853000431A5842584170BD98888E1A80B2B04292
:10854000B7BF98889980121892B2B8BF9A80ECE7AA
:1085500052000020FC32002008B5164B198E5B8CAF
:1085600089B29BB29BB179B1143189B2B1F5257F43
:1085700028BF00211620FFF7B1FF40F28920814279
:1085800094BF0020012008BD4FF49671F2E771B14D
:108590000A3189B2B1F5AF7F88BF00211620FFF7FD
:1085A0009DFFB1F5AF7F34BF00200120EBE796219E
:1085B000F4E700BFFC32002008B5104A02EB40038C
:1085C0009988538C89B29BB26BB10A3189B2B1F5EB
:1085D000257F88BF3221FFF781FFB1F5257F14BFCA
:1085E0000020012008BD053189B2B1F5AF7F88BFF9
:1085F0000A21FFF773FFB1F5AF7FF0E7FC320020EF
:108600002820FFF7D9BF2A20FFF7D6BF2C20FFF77D
:10861000D3BF2E20FFF7D0BF3020FFF7CDBF3220D1
:10862000FFF7CABF034BB3F8520080B2003818BF3F
:1086300001207047FC320020044BB3F8520080B296
:10864000012894BF00200120704700BFFC320020A9
:10865000044BB3F8520080B2022894BF00200120DE
:10866000704700BFFC320020044BB3F8520080B2C8
:10867000032894BF00200120704700BFFC32002077
:10868000044BB3F8520080B2042894BF00200120AC
:10869000704700BFFC320020034B588A80B200387C
:1086A00018BF0120704700BFFC3200200F4A02EBC8
:1086B00040039B88528C9BB292B27AB103EBC30108
:1086C0000523A031B1FBF3F10A2389B2B1FBF3F129
:1086D00001EB8101490089B2FFF700BF0922203B6D
:1086E00003EB830393FBF2F1EEE700BFFC320020C3
:1086F00010B50F20FFF708FF04461620FFF7D6FF3E
:108700000020FFF7D3FF2820FFF7D0FF2A20FFF734
:10871000CDFF2C20FFF7CAFF2E20FFF7C7FF302028
:10872000FFF7C4FF3220FFF7C1FF204610BD000055
:10873000034BD88A80B2003818BF0120704700BFB1
:10874000FC320020034B188D80B2003818BF012086
:10875000704700BFFC3200207047F8B50025064680
:108760002C461427EBB207FB03639A680AB920462C
:10877000F8BDDB6813B90134E4B202E09847002881
:10878000F9D10135EEE7000038B500230122104D84
:1087900004462B7003681A70D0E90131142009785F
:1087A0001B6800FB0133187C342809D8FFF7ACFEA6
:1087B0002B7813B1032223691A6001232B7038BD73
:1087C000586808B18047F3E7E3681A70F0E700BF24
:1087D000D42C002013B50122446801AB0078A047D7
:1087E00008B19DF8040002B010BD000008220F4B34
:1087F0001A614FF40042A3F580631A61142200BF8E
:10880000013AFCD14FF000421A61142200BF013A34
:10881000FCD14FF40021054A1161142200BF013A36
:10882000FCD14FF400421A61704700BF000C0140B8
:108830004FF000430A4A1361142300BF013BFCD1EF
:108840000821084B1961142300BF013BFCD14FF4F0
:1088500000431361142300BF013BFCD1704700BFEC
:1088600000080140000C01400823F0B54FF4004C13
:108870004FF000471E464FF40025184A184C0106D9
:108880004FF014014CBFC2F810C0176100BF01398E
:10889000FCD11421266100BF0139FCD1013B40000D
:1088A00013F0FF032561C0B2E9D14FF40043136117
:1088B0001361142300BF013BFCD1082308490B615D
:1088C000142300BF013BFCD14FF4002390680B61DF
:1088D00080F40040C0F3C030F0BD00BF000801408C
:1088E000000C014048F2E80358436423C00B58438E
:1088F000A823B0FBF3F0084B5A8E92B242B139B9BB
:108900005A8E92B282422FBF08465B8E9BB2C01A2B
:10891000024B1860704700BFFC320020AC300020D2
:1089200008B50021FFF7DEFF6FF461720E4B1B8864
:108930009A18C72A15D80A22B3FBF2F3C0F54912D8
:1089400003F5967302F5D5529BB25343074A93FB46
:10895000F2F3C01AF323584342F2107390FBF3F082
:1089600008BD4FF6FF70FBE77233002040420F0056
:10897000F0B55442A0421E46059D134619DD6028FD
:1089800017DC002800EB0207B6BF44420024E4B223
:10899000602FC4BFC0F16002D2B291B9134F211849
:1089A0003F6805EB040C0F4421468A4202D80F2E83
:1089B00009D8F0BD1CF801EB013107F801EBC9B291
:1089C000F3E70829F3D1102E18BF002307492344E9
:1089D000496820442B440144A242EAD913F8010B10
:1089E000013401F8010BE4B2F6E700BF102B0020C0
:1089F0000229F7B504461CD110221D4B1D491A70DF
:108A00000C221D4B1A701C4B1C4E1D78184BB6F9CE
:108A100000701B783846DA086A4304FB02110091A3
:108A200017492A4691F90010FFF7A2FFE819308094
:108A300009E0012809D1124BB3F900201AB90F49F6
:108A40000A8008221A8003B0F0BDFCD9002915BFA6
:108A5000102008200C2206220A4B0B4908BF194699
:108A6000034B023C1870044BA4B21A70CBE700BF52
:108A7000F82C0020DC130108F92C0020002C002029
:108A8000022C0020D920002065220020C0F1110016
:108A90000221C0B2FFF7ACBF034B988B80B2003805
:108AA00018BF0120FFF7F2BFFC320020034BD88E25
:108AB00080B2003818BF0120FFF7E8BFFC32002069
:108AC000034B988A80B2003818BF0120FFF7DEBF41
:108AD000FC320020034BD88B80B2003818BF012035
:108AE000FFF7D4BFFC320020034B188C80B2003853
:108AF00018BF0120FFF7CABFFC320020044BB3F8B7
:108B00004C0080B2003818BF0120FFF7BFBF00BF84
:108B1000FC32002070B503780446012B0E46154642
:108B200001D11E4601342378A3B19DB1F02B09D9A0
:108B300062787AB1F03BC3EB03230F3A134498B247
:108B4000023401E098B201343146013DFFF750FF95
:108B5000EDB2E8E770BD00000E4B198B0E4B89B2E9
:108B60001A680E4B02291B6809D003290CD0012971
:108B70000DD1B2F84000FF221844FFF7CBBFB2F886
:108B80004200FF220121F7E7B2F84400F9E7D08F55
:108B9000F7E700BFFC320020D0200020D4200020C6
:108BA0000C4BD98C0C4B89B21A680C4B01291B68F1
:108BB00006D002290AD1B2F84A00FF22012102E0C0
:108BC000B2F84800FF221844FFF7A4BFB2F84600ED
:108BD000F3E700BFFC320020D0200020D42000208A
:108BE000074B084A9B8C12689BB23BB1938F064A95
:108BF00001211068FF221844FFF78CBF138FF6E79E
:108C0000FC320020D0200020D42000200C4BD98A38
:108C10000C4B89B21A680C4B02291B6808D0032937
:108C20000AD001290AD1108FFF221844FFF772BF22
:108C3000508FFF220121F8E7908FFAE7D08EF8E7F6
:108C4000FC320020D0200020D4200020002110B4CD
:108C5000064A04781180064A012C118004BF0130B5
:108C60002146FF2210BCFFF755BF00BF002C00209B
:108C7000022C002010B50A4B0A4A0C461B685830DB
:108C800033F81030106804EB44041844FFF7DEFF9B
:108C90000022054BA400023C1C80044B1A8010BD2E
:108CA000D0200020D4200020002C0020022C002006
:108CB00037B5294B294A1B68044603EB4003B3F838
:108CC0001E3110681844FFF7C1FF254AD38A9BB2B2
:108CD000022B23D0032B14BF4FF4FA704FF496707D
:108CE000204B1978204BE1B9D18A89B2C9B11968F2
:108CF0001E4DA1421E4902D01C602B680B602B68E0
:108D00000968928A5B1A92B2B3FBF0F302B30322B2
:108D1000B3FBF2F202EB42029B1A0AE04FF4C87076
:108D2000DEE779211960D38A9BB2B3FA83F35B093A
:108D30005B006022544304EB43140E4B0021234498
:108D4000009310234E201A46FFF712FE03B030BDE9
:108D5000022B28BF0223ECE7D0200020D4200020E3
:108D6000FC320020D8200020000200200C46002009
:108D7000D82C00202D1B01080120FFF799BF0220ED
:108D8000FFF796BF0320FFF793BF0420FFF790BFC4
:108D90000128014610B40E4B09D0022812D1588C7C
:108DA00010BC80B2B0FA80F04009FFF721BEFF226C
:108DB0005B8C084C08489BB2002B18BF204610BCA7
:108DC000FFF7A8BE5B8CFF22044C05489BB2F3E77B
:108DD000FC320020ED0F0108F80F0108580F0108C0
:108DE000780F01080120FFF7D3BF37B50C461146B5
:108DF0000022042C0092ADF804208DF8062032D910
:108E00000A22B0FBF2F502FB150002308DF80500D6
:108E1000B5FBF2F002FB105502358DF8045080B21C
:108E20000A22B0FBF2F502FB150202328DF8032094
:108E3000A8B20A25B0FBF5F205FB120502358DF844
:108E4000025090B20A25B0FBF5F205FB120502357F
:108E50008DF8015090B20BE01578022D17D102F871
:108E6000010B013311E0DBD0032CE2D0012CE9D15E
:108E70000A25B0FBF5F205FB120202328DF8002044
:108E80002BB16A4600231220013CA342E4DBFF22FF
:108E90006846FFF73FFE03B030BD00000A4A138E5C
:108EA0009BB233B10123108E03211A4680B2FFF723
:108EB0009CBF064B064A1B6810685B8DFF22012190
:108EC0001844FFF727BE00BFFC320020D02000204E
:108ED000D4200020034B0221588F012380B21A4670
:108EE000FFF783BFFC320020034B0221188F0123C0
:108EF00080B21A46FFF779BFFC320020044BB3F86A
:108F00005200012380B21A461946FFF76EBF00BF18
:108F1000FC320020044B0321B3F85400012380B23B
:108F20001A46FFF762BF00BFFC320020044B03214A
:108F3000B3F85800012380B21A46FFF756BF00BFAE
:108F4000FC320020044B0321B3F85C00012380B203
:108F50001A46FFF74ABF00BFFC320020044B032132
:108F6000B3F86000012380B21A46FFF73EBF00BF8E
:108F7000FC320020044B0321B3F86400012380B2CB
:108F80001A46FFF732BF00BFFC320020044B03211A
:108F9000B3F86800012380B21A46FFF726BF00BF6E
:108FA000FC320020044B0221B3F85600012380B2AA
:108FB0001A46FFF71ABF00BFFC320020044B022103
:108FC000B3F86C00012380B21A46FFF70EBF00BF52
:108FD000FC320020044B0321B3F85A00012380B275
:108FE0001A46FFF702BF00BFFC320020044B0321EA
:108FF000B3F85E00012380B21A46FFF7F6BE00BF49
:10900000FC320020044B0321B3F86200012380B23C
:109010001A46FFF7EABE00BFFC320020044B0321D2
:10902000B3F86600012380B21A46FFF7DEBE00BF28
:10903000FC320020044B0321B3F86A00012380B204
:109040001A46FFF7D2BE00BFFC3200200122034BBC
:109050001146588A002380B2FFF7C7BEFC320020B9
:1090600008B50D4A538B9BB25BB90C4A01211068BD
:10907000FF220B4B1B685B8D1844BDE80840FFF7CF
:1090800049BD0123508B02211A4680B2FFF7ADFE85
:10909000FF2201210348F0E7FC320020D420002009
:1090A000D0200020BB0F010807B5174BB3F84A20AA
:1090B00092B262B9154A01211068FF22144B1B6855
:1090C0005B8D184403B05DF804EBFFF723BDB3F8E4
:1090D0004A2092B2052A0AD10E4B18220093002191
:1090E00010234620FFF744FC03B05DF804FBB3F8FF
:1090F0004A00012302211A4680B2FFF776FEFF22C2
:1091000001210548DEE700BFFC320020D42000200A
:10911000D0200020E81101084F10010808B50D4AC1
:10912000938E9BB25BB90C4A01211068FF220B4B56
:109130001B685B8D1844BDE80840FFF7EBBC0123BA
:10914000908E03211A4680B2FFF74FFEFF220121C5
:109150000348F0E7FC320020D4200020D02000207B
:109160005A0F010870B5164D2B8D9BB2E3B1012348
:109170000A24288D1A4680B21946B0FBF4F0FFF796
:1091800034FEFF2201210F48FFF7C4FC288D80B276
:10919000B0FBF4F304FB1300BDE87040012380B280
:1091A0001A461946FFF721BE074B084A1B6810688C
:1091B0005B8DFF22BDE8704001211844FFF7AABC77
:1091C000FC3200205C0F0108D0200020D4200020B9
:1091D000034B588D012380B21A461946FFF705BE8E
:1091E000FC320020034B988D012380B21A461946A9
:1091F000FFF7FBBDFC320020F8B51E4B05460221EF
:109200000E201C78FFF7F4FB1F23B5FBF3F01A4B7D
:10921000C0F10A0010F0F80F1968C5B2C0F3C40617
:109220000BD0F32C8CBF01230D23204600272344B1
:10923000DBB2421CD2B2934218D1FF2205F00705DF
:10924000AA406025F32C8CBF01230D2375432344D2
:10925000DBB262F0FF02601CC0B2984200D1F8BDE0
:109260002C440E5D16400E550446F4E70F5410468C
:10927000DFE700BF002C0020102B0020014B1868F6
:10928000704700BF0C460020002070477047000068
:1092900010B5224A224B9B68906883F48063C043D8
:1092A0004000C3F3802300F0020018431FBF1D4B92
:1092B0001A681D4B1A601D4A1378834212D180B17F
:1092C000184B1B4A1B6812689B1AB3F5C87F20D342
:1092D0000122184B90421A701DD002280CBF0820A2
:1092E000202010BD38B10343002013700D4B1A68C5
:1092F0000F4B1A60F5E70F490C7844B9012B02D0E7
:10930000022B18BF1023107008701846EEE70346B2
:10931000F9E70020E5E70420E3E700BF000C014087
:10932000000801400C46002078300020A12C0020CD
:10933000A42C0020A02C0020BFF34F8F0549064B22
:10934000CA6802F4E0621343CB60BFF34F8F00BFE3
:10935000FDE700BF00ED00E00400FA054AF6AA228E
:10936000014B1B681A607047942F00204FF0E020DB
:109370004FF0805408B506490B68012B05D9C0F899
:10938000044DBFF34F8FBFF36F8FFFF7E7FFF3E796
:109390005832002038B50D4C256AA0B10C4B1B7813
:1093A0008BB90220FFF734F894F8243034F81320F6
:1093B00024F81300AD1A0133054403F00F032562AE
:1093C00084F8243038BDC5F30F10FBE7D0320020FD
:1093D000703300202DE9F047DFF86C90044699F8CF
:1093E00000600F46DFF864806EB1C24600250120A0
:1093F000FFF70EF80135EDB2082D4AF8040BF6D14F
:10940000013E89F8006057B10120FFF701F8104ACA
:10941000137848F82300013303F007031370002288
:1094200013460A49013251F8040BD2B2082A034408
:10943000F8D1012C38BF0124DB089B00B3FBF4F00A
:1094400080B2BDE8F08700BFFB010020AC2C0020FB
:10945000A92C00202DE9F0471D4B0021D88D80B2AA
:10946000FFF7B8FF0A23B0FBF3F403FB140080B24C
:109470000428A4B284BF0134A4B2092C1FD94FF030
:109480000A090123B4FBF9F8124E194600221FFA0B
:1094900088F0B6F90050FFF7A8FC08230E4F09FB2F
:1094A00018403B8001230022194680B23580FFF727
:1094B0009CFC00230C3535803B80BDE8F087012300
:1094C0002046BDE8F0471A461946FFF78EBC00BF9C
:1094D000FC320020002C0020022C002070B50F4B25
:1094E0000021D88D0A2680B2FFF774FFB0FBF6F595
:1094F00004460123A8B200220221FFF776FCFF22D6
:1095000000210748FFF706FB012306FB1540BDE8D5
:1095100070400022194680B2FFF767BCFC32002081
:109520005E0F01082DE9F843254B00241B78DFF876
:109530009490002B0CBF43270027D9F80000224E3F
:10954000224DB0F57A7F37802C8020D3FF22214630
:109550001F48FFF7DFFA0A23D9F800002246B0FBC4
:10956000F3F00321012380B2FFF73FFCFF2200212B
:109570001848FFF7CFFA082337802B80FFF7AEFF9C
:10958000BDE8F843FF2200211348FFF7C3BA4FF0AC
:109590000A08B0FBF8F001232246022180B2FFF74F
:1095A00024FCFF2221460D48FFF7B4FAD9F8000049
:1095B0002246B0FBF8F308FB130001231946D2E75B
:1095C000242B002058410020002C0020022C0020D9
:1095D0003F100108600F0108620F01085E0F0108CB
:1095E00008B5084B0146D88D80B2FFF7F3FE3C2347
:1095F0004043B0FBF3F0FF23C0EB0020B0FBF3F0DF
:1096000008BD00BFFC32002010B50446002C0846FF
:1096100006DC094BD88D80B2FFF7DCFE002010BDC0
:10962000FFF7DEFFC4EB0424B4FBF0F0FF2828BFF3
:10963000FF20C0B2F3E700BFFC32002010B50121CB
:10964000FFF7E2FF902804461DD9134B1A780AB1A0
:1096500000221A70114B00201B689A6A142A8ABFD4
:1096600000225C635A63FFF7BBFFFF23E8216043DE
:109670000B4AB0FBF3F013684B43182101FB003396
:109680001B0A136010BD6F28E4D8034B1A78002A18
:10969000E0D10122DDE700BFFC010020E82F00201F
:1096A000584100202DE9F0413F4D2B78834268D18D
:1096B000022864D10A223D4B1B68B3FBF2F3C0229F
:1096C000B3FBF2F102FB113300224033DBB2384925
:1096D0004B7000230A708B7072B64FF480774FF096
:1096E000010C4FF0807E334E0722376111F8038062
:1096F0000CFA02F434EA080417D100BF00BF00BF1F
:1097000000BF00BF00BF00BF00BF00BF00BF00BF61
:1097100000BF00BF00BF00BF00BF00BF00BF00BF51
:1097200000BF00BF00BF00BF00BF00BF00BF00BF41
:1097300000BF00BF00BFC6F810E000BF00BF00BF01
:1097400000BF00BF00BF00BF00BF00BF00BF00BF21
:1097500000BF00BF00BF00BF00BF00BF00BF00BF11
:1097600000BF00BF00BF00BF00BF00BF00BF00BF01
:10977000013ABAD20133032BB6D162B62870BDE8E4
:10978000F081032808D0042809D0012809D0022834
:1097900090D0002213469AE70022FF2397E78C22FD
:1097A000FBE7FF22002392E7FA010020404100205E
:1097B000544100200008014001207047044B054A35
:1097C0001B681068B3F812311844FFF73FBA00BFA6
:1097D000D0200020D420002037B5064C8DF807108B
:1097E00001220146A56820780DF10703A84703B0C0
:1097F00030BD00BF002E0020064AD2E93A03834262
:1098000003D192F8F0008000704798BF0433181A13
:10981000704700BFD0300020F8B50B460D4C06460F
:10982000A163216C15460B4206D1FFF7E5FF074601
:1098300020B141F0020121643046F8BD6B1C84F870
:10984000346002D13E46E563F6E723699847054454
:10985000F8E700BFD0300020F8B55488034604F084
:109860001F050D2D1E4D04D114F4E04FC4F3023634
:1098700032D0164685F8361085F8353054884321A5
:1098800024F46064548095F82D3028785B0203F44A
:1098900060631C4326F8024FC4F30234A400114B4A
:1098A000023464F07F02AF681A710522B84733466C
:1098B00022464321AF682878B84704224321AC6888
:1098C000094B2878A047BDE8F8404FF0FF3240F23E
:1098D00003610120FFF7A0BF85F82D60F8BD00BF30
:1098E000D03000200402002070360108002301223D
:1098F00013B50A488DF807304468114600780DF119
:109900000703A04738B19DF807000138C0B2FD2811
:109910008CBF0020012002B010BD00BF002E00202F
:1099200010B5064C236823B9FFF7E0FF08B1012307
:1099300023602068431E5842584110BD302A002041
:1099400038B5FFF7EDFF0246F0B1124B124DB3F8F8
:10995000443095F831109BB2C1B995F8300090B9F8
:1099600095F83411192913D00C2911D013F0FF04E4
:1099700009D02B6998476B6CC01A642363439842E3
:1099800094BF0020012038BD0120FCE70020FAE749
:109990001046F8E7FC320020D030002008B5FFF771
:1099A000BFFF10B1FFF7CCFF08B9012008BD0320AD
:1099B000FCE7000038B50020FEF72AFD40F23F1416
:1099C00001220E4B53F83210D500884211DA4FF4C1
:1099D0007A742B4453E90252401B6043491B90FBAD
:1099E000F1F05B689B1A584390FBF4F0104480B28E
:1099F00038BD0132A242E5D10020F8E78C150108FC
:109A000010B5FFF7C7FCFEF78BFF0446FFF7D2FF48
:109A10000A23B0FBF3F39BB2181920EAE07010BDE3
:109A200008B5094B588C80B218B9BDE80840FFF75B
:109A3000E7BF0020FFF7E4FF052300EBC00090FB29
:109A4000F3F0203008BD00BFFC32002010B5044602
:109A5000FFF7E6FF012303211A4680B2FFF7C5F99D
:109A600024B1BDE810400220FFF792B910BD0000FC
:109A700038B50023204A04461380204A204D138025
:109A8000204B1978E1B1FFF7E5FC1F48FF220121C7
:109A9000FFF740F80120FFF7D9FF5CB1022108462B
:109AA000FEF7A6FF28680021FFF7AEFDBDE83840AD
:109AB000FFF7A2BBFF2201211348FFF72BF8F1E7C4
:109AC0002868FFF7A1FDFFF797FB7CB1022108464C
:109AD000FEF78EFF0120FFF7B9FFFF2201210A48A0
:109AE000FFF718F8BDE83840FFF7B4BCFF220121AA
:109AF0000548FFF70FF8EDE7002C0020022C0020AE
:109B000058410020242B00203F10010810B547F6D3
:109B1000FF70FEF705FF0446FFF74CFF0A23B0FB7A
:109B2000F3F39BB21819013810BD0000024BC0229C
:109B30000021186807F0C4B9102B0020F8B503689D
:109B400005460E46002B3AD1026001203346012122
:109B50001F784C1EA4B2002F33D104EB4404A400A0
:109B6000A4B2602C38D92B68D21A1F4B9B8C9BB2A5
:109B7000012B0CBF0A231423B2FBF3F204F16003A0
:109B800012B292FBF3F103FB11225F2A2ADDA242FB
:109B900026DC14B2B5F90430A3420FD0FFF7C6FF9C
:109BA000124BC4F160021A800022114B30461A8019
:109BB0000121FF22FEF7AEFF0120AC80F8BD00209E
:109BC000C4E7F02F03D80133013189B2C0E75F78D1
:109BD000002FC2D00233F7E7C4F1600304EB630443
:109BE00024B2D7E76024D5E7FC320020002C002007
:109BF000022C00202DE9F74F05462C220C464D483B
:109C0000002107F05DF94B4A2B1D05F11C07164694
:109C100018685968083303C6BB423246F7D1186842
:109C2000FF22306000266B8841F28831354644F6C9
:109C30002068DFF800E1C3F3023901965FFA86FC81
:109C4000E14523D802201023FF2AA070E37066D0DC
:109C5000019B01321207002B5CD005202B1DB3FBAA
:109C6000F0F31420B1FBF0F003F07F0342EA40224E
:109C70001343694343F0807363602F4BB1FBF3F1EF
:109C80002E4B1960012003B0BDE8F08F5EF8043B55
:109C900013F0404A16D13227C3F3892078430FD0FE
:109CA00040450DD8C3F30903B0FBF3FBBBF1FF0F35
:109CB00006DC884204DD624681B29DB2CDF804A084
:109CC0000136BBE7BAF1404FFAD113F0405FF7D14C
:109CD0001B48B0F8500080B20028F1D003F07F009C
:109CE000C3F3474303EB830303EB83039B009BB264
:109CF0004345A8BF434600EB8000C0EB002A534514
:109D0000A8BF53468B42DBDD99B20123624605466C
:109D10000193D5E745EA020343EA8523A9E76423D3
:109D200023716FF06F0363710123A3711123E3713A
:109D3000A8E700BF7C300020A08601004832002048
:109D4000FC32002070B50146FFF756FD00B3114A02
:109D500089B1D2F8E83002F1680404EB43140B46F1
:109D600004F12006254603CDB542186059602C4603
:109D700003F10803F6D1D2F8E83092F8F01001337D
:109D800003F00303C2F8E83011B10BB982F8F030E8
:109D900070BD00BFD030002010B5194C88B0216CC8
:109DA00001F07F412164FFF727FD28B36846FFF7E4
:109DB000C9FFBDF8023003F01F02012A15D113F4C8
:109DC000E04F12D194F82D20C3F3422393420CD1DB
:109DD000226C013303F0070342F0040294F83500CB
:109DE00084F82D30226408B010BD236C43F00803C2
:109DF000236494F83600F6E741F008012164F8E79F
:109E0000D03000202DE9F043AE4E89B006F1480570
:109E100096F834410E2C00F01C8275D8072C00F007
:109E2000028121D8032C00F074830AD8012C00F0A1
:109E3000F482022C00F0F982002C00F0CD82032085
:109E400009E0052C00F0B980062C00F0C680042C37
:109E50000CBF05200320844286F83401D8D1002CA1
:109E6000D6D109B0BDE8F0830B2C00F062810DD88B
:109E7000092C00F01C810A2C00F02A81082CDED16C
:109E80000F210920904AFFF7E7FCE4E70C2C40F093
:109E9000D8810022336C32645A0600F104819F0697
:109EA00069D4180600F1C981D90500F1BA80DA0435
:109EB00000F1C5819F047ED498076BD50127FFF779
:109EC0009BFC002866D02846FFF73CFFB6F84A30D6
:109ED00003F01F020F2A40F0598113F4E04FEED136
:109EE000F18D01F0C0018029E9D1190440F19D8173
:109EF000B6F84C10C1F30801192940F29681112AD5
:109F000014BF15201620A6E7172C00F0DE8134D8E8
:109F1000132C00F0BB8111D8112C00F0A581122C5C
:109F200000F0AB810F2C8AD196F93230022B00F36E
:109F30005182013386F8323010208CE7152C00F066
:109F4000B281162C00F0EB81142C7FF478AF336CC7
:109F500003F07F433364FFF74FFC60B12846FFF7FF
:109F6000F1FEB6F84A3003F01F02032A40F0948154
:109F700013F4E04F36D00F206DE71B2C00F08982E0
:109F80000ED8192C00F01F821A2C00F05A82182CBF
:109F90007FF455AF4FF0FF3243F6FF710C2019E00C
:109FA0001C2C00F08B821D2C7FF449AFFFF724FCA2
:109FB000002840F097821C204DE7002386F83030BF
:109FC00086F8353133643369984742F21072706411
:109FD00023210620FFF720FC3DE70022336C32648A
:109FE000990601D5052036E7FFF706FC0028F9D0D1
:109FF0002846FFF7A7FEB6F84A2002F01F03012B00
:10A00000F2D112F4E04FEFD0F38D13F0C00F08D16E
:10A0100002F0C0027F2A8CBF43F0800343F040036C
:10A02000F385072017E7FF2386F833300023B6F8BF
:10A030004A202649C2F3023293420CD051F8040B55
:10A04000013300F04047B7F1404FF5D110F0405FC9
:10A05000F2D186F83330F36C1B49C3F3C062C3F30B
:10A06000C05386F8713186F82C20B369A1F1CC0079
:10A070009847002800F0D780F38DB6F816211A43D0
:10A0800003F0C003802BA6F816210CD1D6F81831A6
:10A09000002B4FEA137208DB96F833309A4204D350
:10A0A000012386F835310820D5E60023F9E7336C23
:10A0B00003F07F43336440F68C2240F603010A200C
:10A0C00088E700BFD0300020E43100201C310020A0
:10A0D000336C03F07F433364FFF78EFB0028EAD034
:10A0E0002846FFF72FFEB6F84A3003F01F02032A76
:10A0F00013D1B6F81631C3F30233022B0CBF012380
:10A10000002386F8723103D133699847C6F83C01C1
:10A1100041F2883203210B205CE70D2A6ED003F058
:10A120001703042BD8D196F83030002B7FF432AFD0
:10A1300058E7336C03F07F433364FFF75DFB08B9E6
:10A14000122088E62846FFF7FDFDB6F84A3003F0F6
:10A150001F03062B17D1002386F8313096F8713192
:10A1600063B196F870314BB196F8723133B901236F
:10A1700086F83130336C43F480533364012386F81E
:10A1800030300C2067E6012BD7D14AE7052A04D1ED
:10A1900013F4E04F3FF493AEA2E6092A04D113F47E
:10A1A000E04F7FF49DAE06E0072AF8D00A2A04D1DA
:10A1B00013F4E04F24D115204DE60B2AEFD0022AEC
:10A1C000F9D0042A06D0012A09D113F4E04F3FF454
:10A1D00087AE26E713F4E04F3FF482AEEBE7082AA0
:10A1E00005D113F4E04F7FF47BAE0E2033E60D2A49
:10A1F0007FF476AE13F4E04F7FF472AE11202AE6BE
:10A2000096F84A30032B02D186F8727157E6042B78
:10A2100003D1002386F87231B3E7052B7FF44FAEEC
:10A22000002386F87231062015E6102A88D113F42F
:10A23000E04F14BF122018200DE60D200BE61B2066
:10A2400009E6F38D43F00703A6F84A302A460F21AA
:10A2500034E0F18D284601F0C0017F2994BF002130
:10A26000012173699847F1E7F38D6A4643F00D03C6
:10A270000F210520ADF8023005E6F38D2A4643F0A4
:10A280000D030F211320A6F84A30FCE540F68C227E
:10A2900040F6030114209DE60D2A7FF46CAE13F402
:10A2A000E04FABD067E6F38D03F0C002402A07D140
:10A2B00043F00403A6F84A302A4612210C20E2E5B6
:10A2C000802AF9D143F01003F4E70022336C3264A2
:10A2D0009F0705D44FF0FF3243F6FF71172079E650
:10A2E000FFF78AFA0028F5D02846FFF72BFDF38DFB
:10A2F00003F0C003802BF3D1B6F94A20B6F84A30F8
:10A30000002AEDDAB6F84C20C2F30802192AE7D980
:10A3100003F01F03112B0CBF162015209BE5B6F888
:10A320004C707805D6D44FF01A09C7F3C32709FB40
:10A3300007F9B6F84A20CFBB774B03F1F60203F1D9
:10A34000180E9446186859680833ACE80300734542
:10A350006246F6D11868CCF800009B88ACF804304F
:10A36000B6F84A80C8F3023309EB8309B6F84231E4
:10A37000A9F10209C3F30803994522DA1A22002140
:10A38000664806F09DFDF38D08F01F08013748EA86
:10A390000308FF0248F4104847F404472A460F21F7
:10A3A0001720A6F84A80A6F84C706CE5C2F302327A
:10A3B00009F5A27092005949023A304406F098FD1E
:10A3C000CEE71A2047E500234FF4FA6086F83030D4
:10A3D000336A984719203EE533699847F36B9842F2
:10A3E00082BF336C43F400633364306C01050AD5DB
:10A3F00096F8343000F07F40113B032B306494BF5B
:10A400000320122027E5C2073FF596ADB36B184035
:10A410003FF421AD96F834001DE50022336C326420
:10A420009B0509D5FFF7E8F910B1FFF7B5FC12E578
:10A43000022178220846CDE5082396F836003364D9
:10A4400009E5336998473649C6F83C01F36901F1DB
:10A450002C00984700283FF4E6AED6F818311B0FC1
:10A4600006EB8303D3F8403103F04042B2F1404F92
:10A470000DD113F0405F0CBF01230023F28D86F84D
:10A480003531B6F816311343A6F816310BE6002322
:10A49000F4E733699847F38DC6F83C0143F48053E1
:10A4A00043F00A03A6F84A3096F870311B0443F0D3
:10A4B0008073F364CAE60020FFF744FCFFF79CF9C1
:10A4C0000028F8D1012386F83130F38D2A4643F471
:10A4D000104343F01003A6F84A30124B0C211D2004
:10A4E000F364D0E42846FFF72DFCB6F84A3003F0B9
:10A4F0001F03102B7FF45AAD96F84E30042B7FF4D7
:10A5000055AD002386F8313033699847C6F83C01D1
:10A5100037E604209FE400BF1A3100201E310020DE
:10A52000E4310020028003002DE9F0472F4E742211
:10A5300030462F4906F0CCFC002854D0FEF70EFF21
:10A5400035232C4D2C4CEB6006F03CFC0120FDF734
:10A5500055FFFEF703FF237E012B16D00123237640
:10A5600005F0DCFF78B9E0612B6943F002032B6151
:10A570006E612B6943F040032B6105F0CFFF2B691F
:10A5800023F002032B610023237606F01BFC4FF01F
:10A590000109174F154D174EDFF86080FEF7DEFEFC
:10A5A000237E012B15D0B7F800A084F8189005F091
:10A5B000B5FF60B9E061336943F001033361A5F889
:10A5C00000A005F0ABFF336923F0010333610023E2
:10A5D00023760235454507F10207DFD1054A1369A5
:10A5E00043F080031361BDE8F08700BF00FC010861
:10A5F000FC32002000200240B030002074FC010832
:10A60000F8B545F2AA54234B1A8892B2A2423AD026
:10A6100018467422FF2106F053FC048003460124EF
:10A620001A6F01321CBF4FF0FF321A675A8818BFE9
:10A63000012492B2342A08D84FF6FF715A8892B298
:10A64000342A22DD352201245A800022124903EBEC
:10A650004206B5880F88ADB2AF424FEA420004D837
:10A66000B5884E88ADB2AE4203D2CC8818448480FF
:10A6700001240132352A01F10801E8D10CB1FFF7BC
:10A6800053FF2046F8BD0024CAE703EB4200818057
:10A690000132D5E7FC32002052000020014B18683F
:10A6A00006F0FAB9042C0020014B186806F0F4B942
:10A6B000542C00200E4B1A6842F001021A605968AF
:10A6C0000C4A0A405A601A6822F0847222F48032DE
:10A6D0001A601A6822F480221A605A6822F4FE0274
:10A6E0005A604FF41F029A60034B044A9A60704705
:10A6F000001002400000FFF800ED00E000800008BC
:10A700007047704770477047704770470148FDF7C2
:10A71000A1BD00BF702E0020324A13681969890755
:10A720000AD5D968880707D56FF0020119610121A0
:10A730001177996900211177196949070AD5D968F4
:10A74000480707D56FF00401196102211177996953
:10A7500000211177196909070AD5D968080707D5B3
:10A760006FF00801196104211177D969002111776F
:10A770001969C9060AD5D968C80607D56FF010014E
:10A78000196108211177D969002111771A69D10758
:10A790000CD5DA68D20709D56FF001021A61124AA6
:10A7A000934201BF11490A6801320A601A69100612
:10A7B00005D5DA68110644BF6FF080021A611A6984
:10A7C000520605D5DA68500644BF6FF040021A61A0
:10A7D0001A69910605D5DA68920644BF6FF0200227
:10A7E0001A617047303000200008004040410020CE
:10A7F000F0B4474A13685C69586892F83E5014F404
:10A800008071EDB20AD010F4807107D06FF48071BE
:10A810005961196841F4004119600121A70506D565
:10A82000C60542BF6FF4007641F002015E61670524
:10A8300033D5C60531D5578D92F83D60202DD2F81D
:10A8400030C0BFB2F6B252D1002F50D106F0F70798
:10A85000212F04D0282E4AD1BCF1210F47D192F8E4
:10A860003D50D66AEDB2082E01D0202E24D1282DDD
:10A8700022D1284D2026D5625D6825F4E0655D6013
:10A880006FF480655D611D6825F480651D6000259D
:10A89000156382F83D6082F83E50240534D5C0052A
:10A8A00032D56FF4006041F008015861136CF0BCC0
:10A8B0000B43136405F08CBD212D14D1154ED662C7
:10A8C0001563202582F83D50002582F83E505D68D2
:10A8D00025F4E0655D606FF480655D611D6825F4B9
:10A8E00080651D60D9E76FF480655D61D5E76FF421
:10A8F0008066102D5E6141F0040101D0402DCCD165
:10A900001D6845F40075ECE70029CFD1F0BC704715
:10A91000402F00200000FFFF0148FDF79BBC00BF57
:10A92000F82E00200148FDF795BC00BFB42E002092
:10A93000074B19680868B0E8F00F80F30988BFF387
:10A940006F8F4FF0000080F311884EF00D0E7047AE
:10A950004C32002008B54FF0500383F31188BFF349
:10A960006F8FBFF34F8F074A13680133012B1360BA
:10A9700007D14FF0E023D3F8043DDBB20BB1FDF774
:10A980001DFC08BD0C020020054A08B513680BB970
:10A99000FDF714FC013B13600BB983F3118808BD6C
:10A9A0000C02002000000000000000000000000079
:10A9B000EFF30980BFF36F8F0D4B1A6820E9F00F9A
:10A9C00010602DE908404FF0500080F3118800F02E
:10A9D000EBFA4FF0000080F31188BDE808401968D9
:10A9E0000868B0E8F00F80F30988BFF36F8F7047F5
:10A9F0004C32002008B590F82130022B03D00423FC
:10AA00008363012008BD03681A6822F00E021A60F1
:10AA10001A6822F001021A60174A93421CD01432BD
:10AA200093421BD0143293421AD0143293421AD05C
:10AA3000143293421AD0143293420CBF4FF4801355
:10AA40004FF080730D4A53604FF480730384436B5F
:10AA50007BB198470020D5E70123F3E71023F1E706
:10AA60004FF48073EEE74FF48053EBE74FF48033FD
:10AA7000E8E71846C6E700BF0800024000000240B1
:10AA8000036810B59A68D10701D4002010BD9A68F8
:10AA90000A4922F001029A600C689A68D207F4D53C
:10AAA0000A68121B022AF8D9836A43F010038362F2
:10AAB000C36A43F00103C3620120E7E7404100207D
:10AAC000002337B5019390F824300446012B5FD062
:10AAD000012380F82430FFF7D3FF0546002839D141
:10AAE000A36A2C4823F4885323F0020343F00203A3
:10AAF000A362294B1A68294B59685B68C1F3C221CC
:10AB0000415CC3F38133013322FA01F15B00B1FBF5
:10AB1000F3F3B2FBF3F252000192019BF3B920462A
:10AB2000FDF72AFC23689A6842F008029A601C4AE2
:10AB300010689968090715D4996841F00401996073
:10AB40001068996849071ED4A36A23F0030343F0F1
:10AB50000103A362002384F8243011E0019B013B30
:10AB60000193DAE71168091A0A29E2D9A36A0125D3
:10AB700023F0120343F01003A362002384F824306F
:10AB8000284603B030BD1168091A0A29D9D9EDE762
:10AB90000225F5E7AD1001084C000020001002402E
:10ABA000404100201A4A036890420AD0B0F1804F19
:10ABB00007D0A2F59432904203D002F58062904211
:10ABC00015D14A6823F070031343114A90420AD00A
:10ABD000B0F1804F07D0A2F59432904203D002F535
:10ABE0008062904203D1CA6823F4407313434A69D8
:10ABF00023F08003134303608B68C3620B68836296
:10AC0000034B984204BF0B69036301234361704700
:10AC1000002C01402DE9F74F00221646694F6A4B80
:10AC2000DFF8A8C1DFF8A8E10D6835FA06F402D113
:10AC300003B0BDE8F08F4FF0010808FA06F805EA06
:10AC4000080438EA050540F08A804D68032D00F0BD
:10AC5000AE8014D8012D00F09F80022D00F0A1805D
:10AC6000A5B98A68002A00F0A480012A08BFC0F8AC
:10AC700010804FF0080218BFC0F8148006E0122DB3
:10AC800000F092806DD8112D00F08880FF2C98BFC5
:10AC900082464FF00F0988BF00F1040A4FEA86058B
:10ACA000DAF8008088BF203D09FA05FB28EA0B0886
:10ACB00002FA05F548EA0505CAF80050D1F804A0E3
:10ACC0001AF0805F4BD0BD6926F0030845F00105FE
:10ACD000BD61BD6908F1804805F00105019508F5E1
:10ACE000803806F0030B019D4FEA8B0BD8F8085013
:10ACF00009FA0BF925EA0909364DA8425BD005F59A
:10AD00008065A84259D005F58065A84257D005F561
:10AD10008065A8420CBF0325042505FA0BF545EA1A
:10AD20000905C8F808501D681AF4803F14BF254370
:10AD3000A5431D605D681AF4003F14BF2543A54379
:10AD40005D609D681AF4801F14BF2543A5439D6074
:10AD5000DD681AF4001F14BF2543A543DD600136EA
:10AD600062E7DFF874904D453FF47BAF0FD8A9F54B
:10AD700080194D453FF475AF09F570294D453FF4F5
:10AD800070AFA9F580194D453FF46BAF7EE765457F
:10AD90003FF467AF7545F7E7CA6877E7CA680432DA
:10ADA00074E7CA68083271E7CA680C326EE700229D
:10ADB0006CE704226AE70025AFE70125ADE702252D
:10ADC000ABE700BF0010024000040140000031105A
:10ADD000000032100008014000002210F0B5294D9B
:10ADE00011202A6885B01368402623F00103136000
:10ADF0000123CDE9010302238027234C6946204625
:10AE000003930096FFF706FF26610097FFF702FF06
:10AE100065234FF480022761A168090627D5122215
:10AE200001234027CDE901238026022369461648E5
:10AE300003930097FFF7EEFE0096FFF7EBFE276106
:10AE400026612A68136843F40043136000BF2A6830
:10AE5000136823F40043136000BF2A68136843F0AB
:10AE60000103136005B0BDE8F04005F0B5BC2261F8
:10AE700000BF00BF00BF00BF013B2661CCD105B0C1
:10AE8000F0BD00BF402F0020000C0140F0B52B4E5C
:10AE90002B4D32782B4B85B042B92B4C00283DD13D
:10AEA0002288002A3AD02A68002A37D01A682968EE
:10AEB000521A632A2DD9254F1B683C8803202B602A
:10AEC00084B9FDF7A5FA02230393009303230193AA
:10AED0004FF4003338801E48029469460361FFF73F
:10AEE00099FE16E0FDF794FAC4F500431B18164AC4
:10AEF0000BD042F21071241A4C43B4FBF3F4A4B209
:10AF00001480A4F56174C82C05D9002313803B80FC
:10AF10002B6005B0F0BD00233370FAE70121002259
:10AF200031701B68CDE901122B60084B08481A806C
:10AF30000223228003930093CFE700BF70330020E9
:10AF4000D02C00200C46002072330020CE2C002094
:10AF50000014014038B50E4B1B7803F0FF0423B1F9
:10AF60000020FFF793FF204638BD0220FDF750FA7E
:10AF700047F6D07398428CBF01240024054D04D8B5
:10AF80002B7813B10120FFF781FF2C70EBE700BF96
:10AF900070330020A82C0020024A1368013313608C
:10AFA000704700BF4841002038B5224B1A68224B39
:10AFB00012B101221A6038BD20481A6003681B6B69
:10AFC0001A68B2F1A53F0BD15A68B2F1A53F07D17B
:10AFD0009A68B2F1A53F03D1DB68B3F1A53F03D076
:10AFE00003680368FEF7A8F9154B1A68B2FA82F2F3
:10AFF0001423D2B2C2F11F0253431249CD58CC18C8
:10B0000045B94FF0500383F31188BFF36F8FBFF33F
:10B010004F8FFEE7656808336D680B4465609D429D
:10B0200004BF6B686360142303FB02114B68DB6889
:10B030000360C0E748410020104600204C32002049
:10B040005041002058320020F8B50F4D0F4EFFF749
:10B0500081FC2C680768336842689F4207D094429D
:10B0600005D3002301200B60FFF78EFCF8BD0B68B1
:10B07000A71A9F42F5D21B1B13440B603368036071
:10B080002B6843600020EFE70C460020EC450020D1
:10B09000054B1B6833B1054B1868B0FA80F04009C6
:10B0A00040007047012070470846002048410020BA
:10B0B00043689A684B608A609A6851609960036837
:10B0C00008610133036070472DE9F3410646DDE96D
:10B0D00008040F46984640B94FF0500383F3118897
:10B0E000BFF36F8FBFF34F8FFEE744B94FF05003AC
:10B0F00083F31188BFF36F8FBFF34F8FFEE7642395
:10B100000193019B642B08D04FF0500383F3118807
:10B11000BFF36F8FBFF34F8FFEE795002A46A5213F
:10B120002063019B05F0CCFE226B043D2A4422F0F3
:10B130000702002F00F096807B1E04F134011F37B8
:10B1400013F8010F01F8010B08B1BB42F8D100233D
:10B1500084F853304346052B28BF0523E36263651B
:10B16000C3F106030021A3614FF08073A165616103
:10B17000A16224616462E16584F8601042F8043CD5
:10B180003F4B26F0010642F8086C42F80C3C42F8AE
:10B19000201C403A2260FFF7DDFB3A4A3A4D136823
:10B1A0003A4E013313602B68002B5ED12C6012687D
:10B1B000012A2ED132464FF0FF3C14201F4602F1E7
:10B1C0000801C2E9011CC2E9031100FB03F10133CC
:10B1D000062B775002F11402F1D12D4A02F1080337
:10B1E000C2E9013CC2E903332A4B176003F10801AD
:10B1F000C3E9011CC3E9031127491F6001F10800DD
:10B200000F60C1E9010CC1E9030024490A60244A26
:10B210001360244A2449136808680133136001232A
:10B22000E26A9340034314200B6000FB0260211D7F
:10B23000FFF73EFFFFF7A8FB1C4B1B6873B12B68A1
:10B24000DA6AE36A9A4209D24FF0E0234FF0805263
:10B25000C3F8042DBFF34F8FBFF36F8F204602B0AA
:10B26000BDE8F08184F8347074E7104B1A68E36A23
:10B27000002ACED12A68D26A9A4298BF2C60C8E7C9
:10B28000D1810008444100204C3200205832002077
:10B290005C41002070410020F44500205032002025
:10B2A000543200204C41002050410020084600202C
:10B2B00037B50446D0E90010A569B4F90830226911
:10B2C00001956469842B0CBF002303330094FFF7BE
:10B2D000FBFE03B030BD0369D0E901128A60516002
:10B2E0005968814208BF5A60002202611A68013A17
:10B2F0001A60186870470000F8B52F4B5A6992061B
:10B3000054D520225A612D4B1C68002C4ED0FCF7DE
:10B3100079FFEFF311864FF0500383F31188BFF3E9
:10B320006F8FBFF34F8F022394F8602084F8603052
:10B33000E36D012A43F00103D5B2E36502D086F341
:10B34000118833E0A36A43B14FF0500383F31188AF
:10B35000BFF36F8FBFF34F8FFEE7194B1B6833BBF3
:10B36000271D3846FFF7B7FF164A1420E36A116815
:10B370009D400D4339461560134A00FB0320FFF73B
:10B3800097FE124BE26A1B68DB6A9A42D7D9012208
:10B390000F4B1A6086F311884FF0E0234FF0805274
:10B3A000C3F8042DBFF34F8FBFF36F8FF8BD09486B
:10B3B00004F11801E3E700BF00040140CC200020A5
:10B3C0004841002050410020583200204C320020DB
:10B3D00010460020F44500203D4B2DE9F74F1B6837
:10B3E000002B6ED13B4B1D6801351D60BDB93A4B3A
:10B3F0001A68126842B14FF0500383F31188BFF30B
:10B400006F8FBFF34F8FFEE7344A196810681860DA
:10B410001160334A136801331360FDF71DF8314E94
:10B4200000243368DFF8C0809D4212D21422D8F87D
:10B430000030DB6A53432D4AD358022B2C4B28BFD4
:10B4400001241B68002B18BF0124204603B0BDE86F
:10B45000F08FDFF884A0DFF89C90DAF800301B68EA
:10B460001BB94FF0FF333360E0E7DAF80030DB68F8
:10B47000DF687A68954201D23260D7E707F1040BA2
:10B480005846FFF728FFBA6A1AB107F11800FFF70C
:10B4900022FF0122FB6AD9F800009A4002431420DF
:10B4A000C9F80020114A594600FB03200193FFF719
:10B4B000FFFDD8F80020019BD26A934228BF0124E7
:10B4C000CBE70D4A0024136801331360BDE700BFCA
:10B4D000484100200C460020503200205432002009
:10B4E000EC450020E84500204C3200205832002076
:10B4F0001046002050410020F045002008B5FFF71D
:10B50000C7FD012813D04FF0500383F31188BFF318
:10B510006F8FBFF34F8FFFF75FFF28B14FF0E0232E
:10B520004FF08052C3F8042D002383F3118808BD27
:10B5300032492DE9F0470B6843B94FF0500383F3CC
:10B540001188BFF36F8FBFF34F8FFEE7FFF702FA4B
:10B550000B68013B0B600C6824B10020FFF714FA64
:10B56000BDE8F087264B1B68002BF6D0254E264FF2
:10B57000DFF8989020E0F3684FF00108DC6804F1F0
:10B58000040A04F11800FFF7A6FE5046FFF7A3FED9
:10B590001420E56A3A6808FA05F31343514600FBA4
:10B5A00005903B60FFF784FD194B1B68DB6A9D42E9
:10B5B00002D3184BC3F800803368002BDBD10CB1E9
:10B5C000FCF74AFF144D2C6844B10127114EFFF7D8
:10B5D00003FF00B13760013CF9D12C600D4B1B68B3
:10B5E000002BBAD04FF0E0234FF08052C3F8042D67
:10B5F000BFF34F8FBFF36F8F0120AFE748410020AB
:10B6000044410020F44500205041002058320020E1
:10B610004C32002010460020F0450020C36870B571
:10B62000DC6844B94FF0500383F31188BFF36F8F88
:10B63000BFF34F8FFEE704F118063046FFF74BFECD
:10B64000104BE56A1B68D3B904342046FFF743FE6C
:10B6500001230D4A14201168AB400B4321461360AF
:10B660000A4B00FB0530FFF723FD094B1B68DB6A23
:10B67000AB423BBF0120074B0020186070BD314634
:10B680000548F0E748410020504100205832002092
:10B690004C32002010460020F4450020F8B5314B14
:10B6A000834259D1304A13780133DBB21370DB0681
:10B6B00052D12E4B1C68002C4ED0FCF7A3FDEFF3AB
:10B6C00011864FF0500383F31188BFF36F8FBFF3E0
:10B6D0004F8F022394F8602084F86030E36D012AD4
:10B6E00003F10103D5B2E36502D086F3118833E09C
:10B6F000A36A43B14FF0500383F31188BFF36F8FF8
:10B70000BFF34F8FFEE71A4B1B6833BB271D38462C
:10B71000FFF7E1FD174A1420E36A11689D400D43CD
:10B7200039461560144A00FB0320FFF7C1FC134B98
:10B73000E26A1B68DB6A9A42D7D90122104B1A6071
:10B7400086F311884FF0E0234FF08052C3F8042DA8
:10B75000BFF34F8FBFF36F8FF8BD0A4804F1180194
:10B76000E3E700BF102E0020CC2C00204432002044
:10B770004841002050410020583200204C32002027
:10B7800010460020F445002010B5364C23685A6856
:10B79000910627D51A68920724D5A26AD0065EBF03
:10B7A000A26A42F40072A2629A6802F46022B2F5C0
:10B7B000602F10D1227B72B95A6822F020025A60A1
:10B7C000A36A23F48073A362A36AD9045EBFA36A49
:10B7D00043F00103A3622348FFF760FF6FF01202FA
:10B7E00023681A6023685A6812062CD51A68500715
:10B7F00029D5A26AD1065EBFA26A42F40052A262B3
:10B800009A6802F4E042B2F5E04F0AD05A68520555
:10B8100016D49A6802F46022B2F5602F10D1227B10
:10B8200072B95A6822F080025A60A26A22F48052E9
:10B83000A262A26AD0055EBFA26A42F00102A262C1
:10B840006FF00C021A605A68510609D51A68D207BF
:10B8500006D5A26A42F48032A2626FF001021A6039
:10B8600010BD00BF102E0020436A9A6A12F0500FDC
:10B870001AD19A6A42F400729A621A68926802F4C3
:10B880006022B2F5602F0CD11A7B52B99A6A22F469
:10B8900080729A629A6AD2045EBF9A6A42F001028A
:10B8A0009A621846FFF7FABE1B6A1B6B1847000026
:10B8B00070B5154B154D06461C6828680430FFF717
:10B8C0000AFD40B92A681249D06A01220B688240F9
:10B8D00023EA02030B602B68A4195C6007D30D4BAD
:10B8E00018682968BDE870400431FCF7C7BD0A4BF1
:10B8F000186829680431FCF7C1FD084B1A689442A6
:10B9000038BF1C6070BD00BF0C4600204C320020C8
:10B91000504100205432002050320020E8450020E1
:10B9200008B550B94FF0E0234FF08052C3F8042D12
:10B93000BFF34F8FBFF36F8F08BD074B1B680BB171
:10B94000FCF73CFCFFF728FBFFF7B2FFFFF7F0FD29
:10B950000028E7D0F0E700BF484100203220FFF781
:10B96000DFBF000070B50D4E35680544FDF790FC53
:10B97000044654B9FDF78CFC0446FFF7EFFF33682B
:10B980009D420AD3002CF5D007E0FDF781FC044668
:10B99000FFF7E4FF33689D42EBD270BD0C460020F8
:10B9A00010B5114AB2F84A309BB2052B11D1FDF700
:10B9B0006FFC04463CB9FDF76BFC0446FFF7CEFF75
:10B9C000002CF8D010BDFDF763FC0446FFF7C6FF5E
:10B9D000F0E74FF47A70BDE81040B2F84A309BB2FD
:10B9E0005843FFF7BFBF00BFFC320020012838BF1B
:10B9F0000120FFF795BF000010B50C46044B1968F5
:10BA00001831FCF73BFD2046BDE81040FFF750BF62
:10BA10004C3200202DE99F48FDF782FF002800F0FE
:10BA2000968001210C20FDF7D7FE002800F08F80C2
:10BA3000AE4D0A20EB6898470624FDF757FF002813
:10BA40007DD00F210B20FDF7C7FE00287FD00021FD
:10BA50000A20FDF7C1FE002879D000210E20FDF755
:10BA6000BBFE002873D000210F20FDF7B5FE002893
:10BA70006DD00C210620FDF7AFFE002867D007210E
:10BA80000920FDF7A9FE002861D000210820FDF75C
:10BA9000A3FE00285BD004210720FDF79DFE0028AF
:10BAA00055D007210220FDF797FE00284FD00A202D
:10BAB000EB68984740218D48FCF78CFE0B2104462B
:10BAC0000220FDF789FE002841D00A20EB68984744
:10BAD00040218648FCF77EFE04F0030400F00300DA
:10BAE000844240F2948025210320FDF775FE70B357
:10BAF00007210220FDF770FE48B344210620FDF720
:10BB00006BFE20B304210720FDF766FEF8B1022189
:10BB10000C20FDF761FED0B10123202003247449DD
:10BB20008DE81B0069467348FFF774F80A21172057
:10BB300004F0D0FB4FF400026F4B1A6007E00A20BC
:10BB4000EB68013C984714F0FF047FF476AFFEF7F2
:10BB500059F9DFF8A081694DD8F80830684C13F026
:10BB6000200F5CD1D8F808309B062AD46B460722F8
:10BB70003C2166682078B04718B39DF80330DF0792
:10BB80000AD55F4E06F1F60A06F1F8094121304662
:10BB9000FCF720FE800678D59DF802305E0700F1A4
:10BBA000DD80D90642BF226C42F4806222641A060C
:10BBB00007D59DF805309B0742BF236C43F0200357
:10BBC000236494F835317BB123699847D4F8383130
:10BBD000C01AB0F57A7F07D9236C43F04003236481
:10BBE00023699847C4F8380194F8723153B1236936
:10BBF0009847D4F83C31C01AC82882BF236C43F45C
:10BC000000532364FEF7FEF8FDF79AFEA4E7262111
:10BC10000320FDF7E1FD002899D00B2169E7FEF72D
:10BC200099FE2B6893F86030022B13D02B683220DA
:10BC3000DA6DDA6501222B6883F86020FFF738FEA1
:10BC40004FF0E0234FF08052C3F8042DBFF34F8F25
:10BC5000BFF36F8FFEF798FEFEF77CFE2B6893F81C
:10BC60006030022B03BF2A680121D36D002104BF7D
:10BC700003F07F43D36500222B6883F86020FEF732
:10BC800083FE00293FF46EAF70E743213046FCF796
:10BC9000A1FD534602224321676800F0E00B2078A3
:10BCA000B847B4F8F63013F4E04FC3F3023205D0CE
:10BCB0004B464321676820789200B847042243210D
:10BCC0006768104B2078B847BBF1E00F7FF45EAF98
:10BCD000B4F8F63003F01F020D2A15D113F4E04F2B
:10BCE00012D1236C43F0010323644FE7002E0020A0
:10BCF00000002110000C014000E100E04C32002067
:10BD0000D0300020FA2C0020D4F8EC70DFF858C0B6
:10BD100004EB47176837BCE80F000FC79CE80F001B
:10BD200087E80F00D4E93A239A4203F1010306D1D0
:10BD300094F8F0201AB103F00302C4F8E820D4F814
:10BD4000E82003F003039342C4F8EC3004BF01235E
:10BD500084F8F030236C43F00203C5E7226C42F410
:10BD6000007222641DE700BFC4310020184B10B5DB
:10BD70001B6843B14FF0500383F31188BFF36F8FFB
:10BD8000BFF34F8FFEE7FFF707F9124B01681A6800
:10BD900011F10E032CBF012400248A420FD27CB97A
:10BDA0000360FFF7C5FB48B94FF0E0234FF0805226
:10BDB000C3F8042DBFF34F8FBFF36F8F10BD0CB9C5
:10BDC0009A42EDD20360981AFFF772FDE9E700BFCF
:10BDD000484100200C46002010B5134CFEF7BAFD78
:10BDE0002368DB6D7BB90122236883F86020FFF7AD
:10BDF0005FFD4FF0E0234FF08052C3F8042DBFF3F6
:10BE00004F8FBFF36F8FFEF7BFFDFEF7A3FD2368D3
:10BE1000D86D10B100222368DA650022236883F808
:10BE20006020FEF7B1FD10BD4C3200202DE988489E
:10BE30000020FDF703FC00232024754A754D136094
:10BE4000754B1A68754B1A600520FFF7C5FF012076
:10BE5000FDF7D6FDE88D012180B2FDF7BBFA013C6C
:10BE6000F2D16F4C0020FFF711F823789BBB6D4F88
:10BE70004FF4FA60FFF7B0FF002800F0C480012003
:10BE8000FDF7BEFD624B83461C68674E002CDFF851
:10BE90009CA1DFF89C81DFF89C9140F3AD80B4F564
:10BEA000E17FA8BF4FF4E174FDF730FEA04202DA53
:10BEB000FDF72CFE0446A4EB0B04032C04DD3168D3
:10BEC000ABEB010103290DDDDAF80020C6F800B064
:10BED000C8F8002012E04FF4FA60FDF73FFAFFF7D0
:10BEE0007BFFBFE7DAF80020D8F80030D31A4AF613
:10BEF000C872934202D9012389F800304FF47A7B4B
:10BF00004D49DAF800300A6800209B1ABBFBF3FBAE
:10BF1000DAF800300B60FDF763FBAB8E9BB243B1E8
:10BF20000A22AB8E9BB253439842C2BFA88E80B206
:10BF30005043424B1B6823B10A2253439842A8BF87
:10BF400018464123B3FBFBF33D49C3F164030A6880
:10BF50005343642293FBF2F38222544394FBFBF499
:10BF60002344834242DD086008682B8D9BB20BB3EB
:10BF700040F6C4116B8D334C9BB24B43DAF8002072
:10BF80002168521A934209D2FA21AA8DDAF80030B8
:10BF900092B2236001FB02332B4A13602B8D9BB2BC
:10BFA000984207DA284ADAF8003012689A4284BFC9
:10BFB000288D80B247F6DF72244B1B6AC3F30F1340
:10BFC000934288BF002099F80030002B18BF002052
:10BFD0003B68C21A322AC8BF03F1320020EAE0707F
:10BFE0003860FDF72BFBFDF7B9F941E7404283428A
:10BFF000ACBF0B600860B7E7DAF800203060C8F823
:10C0000000200020B1E7124B1B689A6A58632FE7A3
:10C01000A82D0020FC3200204C32002044320020A9
:10C0200070330020EC2C0020DC2C00200C4600207B
:10C03000E02C00203C2F0020E82C0020483200207B
:10C04000E42C0020F42C0020F02C0020D032002022
:10C05000E82F00202DE9F04104464FF00108FEF7DB
:10C0600079FC90F845501B4F6DB200F12406002D6D
:10C0700017DCFF234FF0010884F84530FEF784FCFD
:10C08000FEF768FC94F84450124F6DB204F11006AC
:10C09000002D12DCFF2384F84430BDE8F041FEF7A8
:10C0A00073BC636A002BE4D03046FFF7B7FA08B1DF
:10C0B000C7F80080013D6DB2D9E72369002BE9D0B4
:10C0C0003046FFF7ABFA08B1C7F80080013D6DB20A
:10C0D000DEE700BF104600202DE9FF47044601912E
:10C0E00040B94FF0500383F31188BFF36F8FBFF354
:10C0F0004F8FFEE7056C45B14FF0500383F3118875
:10C10000BFF36F8FBFF34F8FFEE7FEF7C1FF50B94C
:10C11000019B63B14FF0500383F31188BFF36F8F1E
:10C12000BFF34F8FFEE728469A4F9B4E97E0054698
:10C13000FAE7019B5BB9002D00F027814FF0500317
:10C1400083F31188BFF36F8FBFF34F8FFEE720B9E2
:10C150003B680293914B1B680393FEF715FCFEF7B7
:10C160001BFFFEF7F7FB94F8443001A9FF2B04BF37
:10C17000002384F8443094F8453002A8FF2B04BF14
:10C18000002384F84530FEF7FFFBFEF75DFF002833
:10C1900040F09C80FEF7DEFBA36B002B57D1FEF72F
:10C1A000F3FB2368002B3CD1FEF7D4FBA568002DE0
:10C1B00034D03368D5F82CA0DB6A9A457ED2AB69BF
:10C1C000DFF8DC81002BA8BF33686A69A2BFDB6A95
:10C1D000C3F10603AB61142303FB0A839A4269D1BE
:10C1E00005F104094846FFF776F86E4B30B9012196
:10C1F0001A6801FA0AF122EA01021A603268196823
:10C20000D26AEA62012505FA02F008431860142098
:10C21000494600FB0280FEF74BFF0120FEF7B4FB0E
:10C220000546019904F12400FFF7E6FB2046FFF7DD
:10C2300011FFFFF77DF988B94FF0E0234FF08052EE
:10C24000C3F8042DBFF34F8FBFF36F8F06E0204676
:10C25000FEF79AFBFFF7FEFEFFF76AF90120FEF7F3
:10C2600079FBA36B002B3FF464AF013BA36323680E
:10C2700043B9494B1A681AB119688A6D01328A6547
:10C280001B68A360236973B104F11000FFF7C6F9BE
:10C2900048B14FF0E0234FF08052C3F8042DBFF3B4
:10C2A0004F8FBFF36F8FFEF76FFB0125284604B059
:10C2B000BDE8F0873368DB6AEB62AEE73368686D30
:10C2C000DB6A98422CBF00200120A7E72046FFF739
:10C2D000C1FEFFF72DF9FEF73DFBA36B13B1FEF78F
:10C2E00053FBBBE7FEF750FB002DDFD0FEF732FB20
:10C2F000656A1DB1236B1D68C5F10605A468002C95
:10C3000043D0A26D42B94FF0500383F31188BFF3BD
:10C310006F8FBFF34F8FFEE7636D9D4238BF1D46A1
:10C32000E36A9D4231D0012A2FD11B4A1268944200
:10C3300008D14FF0500383F31188BFF36F8FBFF321
:10C340004F8FFEE7A269164E002AA4BFC5F1060270
:10C35000A261142202FB03636269E5629A4214D16E
:10C3600004342046FEF7B7FF01220E4BAA4018B94D
:10C37000196821EA020119601420196800FB0560A0
:10C380000A4321461A60FEF793FEFEF7FDFA0025E8
:10C390008CE700BFEC4500204C3200200C4600200A
:10C3A000583200205041002008B5044B3221186853
:10C3B000FFF792FE431E5842584108BD542C0020FE
:10C3C0002DE9F34105460E4617469846FFF7ECFF68
:10C3D000044670B14FF4FA733A460093314643462F
:10C3E000284603F0A3FD40B1FEF7F8FC0024FEF759
:10C3F0005BF9204602B0BDE8F081FEF755F9F8E799
:10C4000010B414461A46234610BCFFF7D9BF0000EB
:10C410002DE9F74F8046894693469A46FFF7C4FFB9
:10C42000064600284BD06E4F6E4C3D6894F83D3068
:10C43000202B3FD12B46192201216B4803F04AFDE6
:10C44000002837D194F83C30012B33D0012384F8F5
:10C450003C30236800211A68D00758BF1A684FF093
:10C4600001105CBF42F001021A601A6822F40062F7
:10C470001A60212384F83D30402384F83E30216443
:10C48000A4F82AA0638D22682385584BC4F824B0F1
:10C49000E362136843F4807313602B464FF4FA721F
:10C4A00003F018FD78B123681B68D90502D54FF455
:10C4B00000732364FEF792FC0026FEF7F5F8304681
:10C4C00003B0BDE8F08F226808F0FE0329464FF460
:10C4D000FA70136103F0C8FC0028EBD123680190C7
:10C4E0005A69294601929B694FF4FA700193019BA6
:10C4F00003F086FC40B1236C042BDBD12268136867
:10C5000043F400731360D5E72368C3F81090238DBC
:10C510009BB92268536913F0040338D0136843F4BD
:10C5200000731360202384F83D30002384F83E30EC
:10C5300084F83C30FEF7B8F8C1E729464FF4FA70AA
:10C5400003F05EFC0028D6D1636AD4F800C01A4616
:10C5500012F8011BCCF81010218D6262628D481E0A
:10C56000013A92B280B220856285DCF8142052072D
:10C57000CDD50028CBD05A780233CCF81020636296
:10C58000638D0239013B9BB221856385BFE7516909
:10C5900011F4806114D06FF4806151612021236314
:10C5A00084F83D1084F83E30236C43F00403236488
:10C5B000002384F83C30236C042B7FF47BAF9EE790
:10C5C0003B685B1BB3F5FA7FA4D92023216384F871
:10C5D0003D3084F83E10236C43F02003E7E700BFB2
:10C5E00040410020402F0020020010000000FFFF0B
:10C5F0002DE9F34117460C460026804663784046F5
:10C600008DF80730217801230DF10702FFF700FFB5
:10C61000054640B1A07808B1FBF7F0FE0136B742FD
:10C6200004F10304EADC284602B0BDE8F08110B44E
:10C6300014461A46234610BCFFF7EABE30B585B053
:10C640000546FFF7B1FE044668B14FF47A730F2137
:10C6500000932846012303AA03F068FCB0FA80F493
:10C660006409FEF721F8204605B030BD70B5144BC3
:10C6700006460D46186864211446FFF72DFD012873
:10C6800009D1F0B2FCF7B2F8FCF7EEF828B9FCF7E4
:10C69000CFF8FEF703F8002410E0E8B2FCF7E4F866
:10C6A0000028F4D0FCF75AFE2078FCF7DDF80446A9
:10C6B0000028ECD0FCF7BCF8FDF7F0FF204670BD79
:10C6C000042C002007B5084B5A38C0B283F840004C
:10C6D0008DF8070080210DF107027820FFF7C6FFD3
:10C6E00003B05DF804FB00BF0000002010B5094C4A
:10C6F000B4F8460080B2003818BF0120FCF7C6F934
:10C70000B4F84600BDE8104080B2003818BF0120E0
:10C71000FFF7D8BFFC320020F7B50E4604460027CD
:10C720006378782021780DF107028DF80730FFF744
:10C730009DFF054640B1A07808B1FBF75FFE0137C9
:10C74000B74204F10304EBDB284603B0F0BD000060
:10C75000192310B50B4CB4F8480080B2B0FBF3F0CD
:10C760000123013019461A4680B2FCF73EFBB4F8AB
:10C7700048300548022180F82E30BDE810402A30AC
:10C78000FFF7CABFFC3200200000002038B5114B73
:10C7900005460C4618686421FFF79EFC012817D156
:10C7A0007820FCF723F8FCF75FF828B9FCF740F88D
:10C7B000BDE83840FDF772BF013D15F8010FFCF7E9
:10C7C00053F80028F2D0013CA4B2002CF5D1EDE7DB
:10C7D00038BD00BF042C002008B5FBF767FE28B168
:10C7E000BDE80840D1210248FFF7D0BF08BD00BF17
:10C7F000352A002038B505460C46FDF797F928463E
:10C80000FCF724FAFFF7E8FF2046BDE83840FFF7C1
:10C81000A9B8000070B5224B5A8A92B28AB142F28E
:10C8200010722049086890420BD91F4A1268121AE8
:10C83000C72A06D800231D4A0B6013600124204636
:10C8400070BD5A8B92B262B1164A116849B1164A4C
:10C8500012685B8B521A4EF660219BB24B439A4290
:10C8600016D8FCF715FD082812D0114D2C78002C95
:10C87000E5D000260D4B0F4A1E600F4B10681B6859
:10C8800042F210711B8A1844FFF7B4FF2E70D6E7EE
:10C890000022064B1A60044B1A68024B1A60CDE75F
:10C8A000FC320020A83000200C460020A82D0020DB
:10C8B0003C2F0020D4200020D02000202DE9F04F74
:10C8C0000027B8463E4685B0AA4CDFF8ACA20197D7
:10C8D000FCF7DEFCB8F1000F62D0E38C9BB2002BBA
:10C8E0005ED0042800F0A48048D8002800F087819A
:10C8F00003284AD1FDF71AF9238C9BB2002B00F0D4
:10C9000091819E4B00211D78DFF874B2002D14BF79
:10C9100032234FF0FF33DFF86C920120ABF8003088
:10C92000A9F80010FDF792F8002E00F06A81002DA2
:10C930000CBF37232623ABF800300823FF22002149
:10C940009148A9F80030FCF7E5F8FCF7EBFDFFF79C
:10C9500043FF638C8D4D9BB2002E00F07781002B3E
:10C9600000F07181238E9BB21F2B40F35F8109225F
:10C97000203B03EB8303B3FBF2F358E120284AD0BA
:10C98000B8D8082801D01028B4D1814BDAF80000BB
:10C990001B684FF4FA71DB891844FFF72BFFA9E7F6
:10C9A000042850D02CD8002800F029810328A1D0D9
:10C9B0000025A946AB46A3889BB20393754B1B6821
:10C9C0000093724B1D606E4BA3F800B06D4BA3F843
:10C9D00000B0FDF7ABF8FCF75BFC002800F0E2804C
:10C9E0006C4A04281368009300F0B98031D80228FB
:10C9F00000F0B18002D8012800F0D280002343E08B
:10CA0000102805D0202800F0E88008287FF472AFB5
:10CA100005B0BDE8F08F5E4BDAF800001B684FF4FC
:10CA20007A719B894FF000081844FFF7E3FE61E735
:10CA3000238E9BB2002B3FF45DAFE38C9BB2012BA6
:10CA400008BF464656E7238E9BB2002B18BF01262F
:10CA500050E708280AD01028D0D1A388039A9BB2A7
:10CA600093423FF447AFFDF75FFD43E71168A5EB45
:10CA700009030B44B3F5967FC0D9238F5B42213560
:10CA8000D2F800901BB2EDB2C5F59672632AE28E21
:10CA900098BFC82592B20AB15B421BB2DBB1A18834
:10CAA00083EAE372A2EBE372194409B213B291FB79
:10CAB000F3F15143638C09B29BB2002B74D032293D
:10CAC000B8BF3221B1F5257FA8BF4FF425710020F2
:10CAD00089B2FBF703FD2F4B009A1B689B1AB3F535
:10CAE000FA6FBAD8254B1B780293002B65D0FF2232
:10CAF0000121E38EDFF890C027489BB2002B18BFBE
:10CB00006046FCF707F8FF2201212448FCF702F8F1
:10CB10000123A0881A46032180B2FCF766F902209F
:10CB2000FCF736F9FF2201211C48FBF7F3FF029BBB
:10CB3000002B4AD0FF220121E38EDFF85CC01248AF
:10CB40009BB2002B18BF6046FBF7E4FFFFF744FEE3
:10CB5000FEF704FF37E7638F5B421BB294E711686F
:10CB6000A5EB09030B44B3F5967F7FF647AF238F00
:10CB700085E700BFFC320020D4200020242B0020B9
:10CB8000002C0020022C0020640F0108A82D00209A
:10CB9000D02000200C460020660F01083F1001083D
:10CBA000638FDAE7054629E70A29B8BF0A21B1F5FC
:10CBB000AF7FA8BF4FF4AF7189E7E38EFF22012159
:10CBC000DFF8ECC03B489BB298E7E38EFF220121DF
:10CBD000DFF8E0C036489BB2B3E7E38C9BB2002B92
:10CBE0003FF488AE344BDAF800001B684FF47A71DA
:10CBF0005B894FF001081844FFF7FCFD7AE6064612
:10CC000078E6002D0CBF2F232023ABF8003008233B
:10CC1000A9F80030FCF7C2FE284B0222314653F837
:10CC2000200090E63046FCF723FF90E600232B60BF
:10CC3000FFF7F0FD814670B10022214B1B689A631B
:10CC400001229A62E4E6238E9BB2F0E70BB1A3883F
:10CC500089E6A388F8E72D68FCF7D2FE2D1A0A357D
:10CC6000142D20D8019B4BB98022154B1B689A6369
:10CC700064229A62134B1F6807F24D170320FCF7DA
:10CC800011FD4FF001094FB10E4B1B689F4205D8B3
:10CC900000220B4B1B689A6301229A62FEF75EFE2C
:10CCA000CDF8049014E60220FCF7FCFCEBE700BF93
:10CCB000660F0108640F0108D02000203811010818
:10CCC000E82F00200C460020002373B500934FF698
:10CCD000FF7304460C4EADF80430214668463268B6
:10CCE000FCF72CFF0546FCF7D3FA38B9002DF4D039
:10CCF000FFF772FD2820FEF713FEEEE7431E5842B1
:10CD0000584102B070BD00BF0C46002008B50B4B67
:10CD1000B3F84C309BB273B9094B0A4A1B681068D0
:10CD20009B8A1844FFF7D0FF18B101212420FBF79C
:10CD3000D5FB002008BD0021F8E700BFFC32002031
:10CD4000D0200020D420002038B50D4B1D680D4B9D
:10CD5000288B1C682044FFF7B7FF80B17422FF21A5
:10CD6000094804F0ADF8FDF74BFCFDF7DDFB6888E2
:10CD700040F6B8312044FFF73DFDFCF7DDFA38BD41
:10CD8000D0200020D4200020FC3200202DE9F84FD4
:10CD9000FCF7CCFE4FF019073F4D4FF000093F4C18
:10CDA0003F4EE08D494680B24FF00A0B2F80A6F827
:10CDB0000090FCF70FFB0123B0FBFBFA80461A46FC
:10CDC00002211FFA8AF0FCF710F8FF2201213548F2
:10CDD000FBF7A0FE01220BFB1A804B46114680B2E6
:10CDE000FCF703F8FF2201212F48FBF793FE0823ED
:10CDF000E08D4A460321338080B20123A5F80090DC
:10CE0000FBF7F3FFFCF744FA022840D007D80128CB
:10CE100025D0FFF7E1FC2820FEF782FDBDE71028B2
:10CE2000F7D8224C044114F00104F2D1FDF77CFB49
:10CE3000FCF77CFE1E4B1F4A1B6810681B8840F6DF
:10CE4000B83118442C803480FFF7D4FCFFF7C4FCC1
:10CE50004FF4FA70FEF786FD2046BDE8F88F164ABB
:10CE6000B2F8A830B2F8AA00B2F8AC10E28D92B2D3
:10CE7000934202D1E085E38DCBE7E28D581892B260
:10CE80008242C2BFE38D5B1A9BB2E385F3E71520B4
:10CE9000FBF73AFBBDE700BF002C0020FC3200206E
:10CEA000022C00205C0F0108680F0108EFFEFEFF56
:10CEB000D0200020D4200020520000202DE9F04F87
:10CEC0000026DFF8DCA089B0DAF800300290039386
:10CED000DAF800300793039ADAF800304FF4FA7169
:10CEE0009B1A642201935343B3FBF1F39BB2C3F14A
:10CEF00096045B435C4341F2883394FBF3F4602374
:10CF0000A4B25C43B4FBF2F4A4B29C4228BF1C461A
:10CF10000299E3B2C4F16002002938D12746B14634
:10CF2000029D5FFA82F8DFF87CB01E46DBF8003025
:10CF3000059203EB0901D819049303F0E7FFDBF82E
:10CF400004B0059A0BEB09010BEB070003F0DEFFC1
:10CF5000154B224603EB0801049B581903F0D6FF3A
:10CF6000124B224603EB08010BEB050003F0CEFF4A
:10CF7000FFF732FC07A8FEF7F9FEFCF789F918B9AC
:10CF8000019BB3F5FA7FA6D909B0BDE8F08F002761
:10CF90009E1BC3F16005B8465FFA86F9EDB2C2E7A1
:10CFA0000C460020102B0020362B0020962B002052
:10CFB00008B5094A0346117881420BD01070074822
:10CFC000523B43701021FFF7E1FBBDE808400A2007
:10CFD000FEF7A6BC08BD00BF342A0020352A002079
:10CFE0002DE9F04F00240125B24B95B01D7009903A
:10CFF0008DF82E408DF82D40FBF7AFFB4FF6FF73F9
:10D000002646A246CDE90C54DFF8AC82DFF8ACB27C
:10D010000490ADF8383005940394069502941423D7
:10D020009DF82E506B430793079A099B9F1808930E
:10D03000BB6813B19DF82D3013B115B0BDE8F08F6A
:10D040008DF82F300C9B0193002B00F08880DFF8C7
:10D0500070929C4BC9F800306033C9F80430FB680B
:10D060008BB1984778B9029B01350133DBB202934B
:10D07000954B039FC9F8003060338DF82E50C9F8E6
:10D0800004300397CBE70122904B1A700023904A9B
:10D090001380904A1380FCF749FDB97C11B1787C6C
:10D0A000FBF7E8FDBB689847019B022B40F0C68068
:10D0B0000022ADF843204FF40652ADF83C20802208
:10D0C0008DF83E208DF8402040224FF01009824B11
:10D0D0000921DB790FA88DF83F308DF841308DF8AC
:10D0E0004220FFF753FBD8F800300F930023764916
:10D0F000744A11F801EB013391F85FC0DBB24FEADB
:10D10000CC1040EA5E0012F801EB01F8010C4FEA86
:10D11000CE1040EA5C0081F85F0092F85F00602B5F
:10D120004FEAC01C4CEA5E0C4FEA500002F801CCFA
:10D1300082F85F00DDD1FCF7ABF8002872D0C9227D
:10D140006049614803F0D4FEFFF746FB5C4A5E4B42
:10D1500013606033536000235C4A0C931370DBF858
:10D160000020D8F800309B1A40F6B732934272D9AB
:10D17000DDE90723995C00296DD0584BD8F80020D1
:10D180001B680DA803EB41035549B3F84A30096801
:10D190001944FCF7D3FC069B03B920B1FFF71CFB35
:10D1A0002820FEF7BDFBFCF773F8039B074683427C
:10D1B00018BF00260DF12F030F9309AB10930DF14B
:10D1C0002E0311930DF12D03129304280CAB13932E
:10D1D00000F0AC8000F28A80012800F096800228DE
:10D1E00000F09B80C6F59673632BDBF80020D8F81F
:10D1F000003098BFC8269B1A3A4A934208D90123A7
:10D200008DF82D3000230D934FF6FF73ADF83830B5
:10D210009DF82F301BB10998FBF79FFA049000236B
:10D2200006932EE7FFF7D8FA09F1FF390FA8FEF7AA
:10D230009DFD19F0FF097FF459AF87E7224BC9F82C
:10D2400000306033C9F80430019B013B584258411B
:10D25000FFF734FE7FE700231D4A13801D4A138029
:10D26000FCF764FCB97C11B1787CFBF703FDBB686B
:10D27000984724B1059B002B36D00023059310223C
:10D28000049B0499B2FBF3F201239340029A013B01
:10D29000AA1A120192FBF1F29BB2D2B29340084A51
:10D2A0001168526881F85F30C3F3072382F85F305A
:10D2B00074E700BFD42C00200C46002078300020FA
:10D2C000102B0020362B0020462A0020D8200020DA
:10D2D000002C0020022C0020352A0020D020002025
:10D2E000D4200020C0D40100059457E7082839D085
:10D2F00010287FF477AF01238DF82D3000230D9394
:10D300004FF6FF73ADF838306CE70D9B002BF5D16D
:10D310000FA8FBF739FA044664E70D9B002BEDD10B
:10D3200001351C468DF82E500C905BE7D8F8003084
:10D330000AF59672334493427FF654AF0FA8FBF779
:10D3400023FA041E14BF4FF47A720022D8F800307A
:10D3500002EB030A00230D934FF6FF732136ADF85D
:10D3600038303FE7D8F80030A3EB0A033344B3F575
:10D37000967F7FF637AF02230135D8F800A08DF8ED
:10D380002E500C93E6E700BF08B50248FFF728FED1
:10D39000002008BD4C12010808B50248FFF720FE26
:10D3A000002008BD8C1A010808B50248FFF718FED6
:10D3B000002008BDD834010808B50248FFF710FE68
:10D3C000002008BD4811010870B5154E0446337899
:10D3D000834224D0002C0CBFC025C8251148A4F1DD
:10D3E0006003192103770574FFF796F90A20FEF709
:10D3F00097FA0D4884F001035B01002C43710CBFC8
:10D400007F235F234572C371D1213470FFF7BEF9CA
:10D410000A20FEF785FABDE87040FBF747B870BDFB
:10D42000242B002000000020352A002000242DE9B4
:10D430008048142093B0B54DFEF772FA30202C606E
:10D44000FFF7FCF8002800F0EE8001230F213020C8
:10D450000EAA8DF83840FEF7B3FF002800F0E380F5
:10D460009DF83830112B40F0DE800C223020A84B84
:10D47000A8491C70FFF7BCF8002840F0F2804C204F
:10D48000FFF7DCF838B105224C20A349FFF7B0F8CC
:10D49000002840F0E98000210720FBF71FF84FF03B
:10D4A00001093220C5F80090FEF73AFA00229B4BA2
:10D4B0001A609B4B1B8B9BB21BB14FF4FA60FEF7BB
:10D4C0002FFA0024102200210EA803F0F9FC1022EC
:10D4D00000210AA803F0F4FC1022002106A803F0A2
:10D4E000EFFC264625464FF0030BA0462746C822F0
:10D4F00040F6E4418A4BB9F1050F5B8A9BB202FB0F
:10D500001313039340F0B6800623022104AA4C2093
:10D51000FEF756FF0023BDF910400C218DF81030A6
:10D520004C20012304AABDF91260BDF91450FEF786
:10D5300047FF9DF81030A410602B4FEAA6064FEA73
:10D54000A50500F09480702B14BF4FF0030B4FF033
:10D55000000B734B1B8A9BB2022B07D1BBF1030F4D
:10D5600004D0BBFA8BF04009FFF72EFF6D4912ABD8
:10D5700003EB470323F8104C23F8206C23F8305CAE
:10D580000B7801372BB9FBB2082B40F0B080012398
:10D590000B7000220EAB9C460AAB029306AB9A4678
:10D5A0000820114607F0070701923CF902EB019BA6
:10D5B000013873440193029B10F0FF0033F902EB32
:10D5C00071443AF902EB02937244EED1019B002BB5
:10D5D000B8BF0733C4EBE303002BB8BF5B4200299D
:10D5E000B8BF0731C6EBE1010029B8BF4942002AA4
:10D5F000B8BF0732C5EBE202002AB8BF52420B4463
:10D600001344039A9A427EDA08F101081FFA88F857
:10D61000B8F1020F03D9444B1A68404B1A606420DA
:10D62000FEF77EF963E73220FFF708F800283FF4A1
:10D6300026AF00230F218DF83830322001230EAAA7
:10D64000FEF7BEFE00283FF41AAF9DF83830112BCC
:10D650007FF415AF01222E4B32201A7033490C2271
:10D6600008E74FF006091CE74FF0050919E74FF0EE
:10D67000010B6EE7B9F1060F7FF46BAF0023049343
:10D68000ADF81430224B04AA93F800B04B46BBF11E
:10D69000000F0BBF2821A82130203220FEF790FE7A
:10D6A0000446F0B1BDF91040BDF91260BDF9145047
:10D6B000BBF1000F14BF322030200123352104AA12
:10D6C000FEF77EFE9DF810B04FEA9B0BBBF1020FF8
:10D6D0000AD00BF03B0BBBF1010F18BF4FF0030B4F
:10D6E00037E706460546E3E74FF0000B31E712AA9D
:10D6F00002EB4302013322F8104C22F8206C22F88E
:10D70000305CDBB240E74FF0000888E72C030020D4
:10D71000502C0020181201083C120108A8300020EB
:10D72000FC320020FE2C00200C4600200D1D0108BC
:10D73000C3685A1EC26033B9036833F8022B036012
:10D740000F238260C36083685A008260C3F3C030D5
:10D75000704710B5012104462046FFF7E9FF490054
:10D7600001442046FFF7E4FF0028F5D1084610BD2C
:10D770007FB5374B1A78FF2A0DD141F27851354ADF
:10D78000B2F8422092B28A4203D04AF2D7118A42BA
:10D7900031D000221A701B78012B56D80C212E4A4A
:10D7A00001FB0322517A5368C9090FD015890093F0
:10D7B000C5F30E051D44294B012201934FF480430C
:10D7C000CDE90232009B9D4217D8244B244A2549BB
:10D7D0001360254A03F59473136024484FF4F962EB
:10D7E00003F0F8F94FF4C6722149224804B0BDE8AD
:10D7F000704003F0EFB90122CCE76846FFF798FFCD
:10D80000019ED0B16846FFF7A4FF04466846FFF7C3
:10D81000A0FF009B02385A1C00921B78023403EBD5
:10D820000023DB4333441C449C42CBD0019A511C5F
:10D83000019113F8011B1170F6E7009B5A1C00922E
:10D84000721C01921B783370BCE704B070BD00BF3E
:10D8500050000020FC320020201101087433002009
:10D86000D020002065220020D4200020BE1E010808
:10D87000D9200020311D01082DE980488DB0FFF727
:10D8800077FF00239E4ADFF87C8213809E4AA8F827
:10D89000003013709D4B9E4A03F16001136051608C
:10D8A0009C4A113B02F1100152F8040B8A4243F8E2
:10D8B000040BF9D112781A70964B974A53F8040B5F
:10D8C0008B4242F8040BF9D100241B78934D13705E
:10D8D00019212846FEF720FF002818BF0B24013429
:10D8E000092CF5DD8E4C0120FFF762FBB4F84830BF
:10D8F0008A48022180F82E302A30FEF70DFFB4F856
:10D900004600884E80B2003818BF0120FEF7DAFECC
:10D9100029238548854A864F864D874913F807C0D5
:10D9200006F801CB13F805C000F801CB13F801C0CD
:10D93000013B02F801CBF1D25323804E8048814A4B
:10D9400017F803C006F801CB15F803C000F801CBA7
:10D9500011F803C0013B292B02F801CBF0D10120C3
:10D96000FBF718FD208A00F00100FFF72DFDB4F849
:10D970004C309BB2002B6BD0FEF72EFF3220FDF710
:10D98000CFFFFDF7E7FA002862D1FCF739F805462A
:10D99000FCF710F80A23B0FBF3F080B22D1A002D2B
:10D9A000B8BF6D42092D53DCDFF89CA100252F463E
:10D9B0002E460120FBF7EEFC0744FCF7B7F8634B5B
:10D9C000DFF83C911B68FF220393614B0021D3F8E1
:10D9D00000B0039BA9F80060D88AA8F800605844FA
:10D9E000FBF798F80823A9F800604FF00009FF2220
:10D9F00000215046A8F80030FBF78CF8C5F38503EA
:10DA00005FFA89F293426FD8FEF7E6FE0135642093
:10DA1000FDF786FF102DCCD10121C7F30F10FAF7C7
:10DA200061FF81B20029C1D01720FAF757FDFCF73A
:10DA30007DF8039B40F6B83118885844FEF7DAFEAB
:10DA4000FEF7CAFE00212420FAF748FDFCF76CFD22
:10DA5000B4F84A309BB20BB3B4F84A309BB2042BF3
:10DA60001CD8238B9BB2CBB1238B9BB2022B15D836
:10DA7000638C9BB2002B41D0E3889BB21F2BC1BFAC
:10DA80000922203B03EB8303B3FBF2F3D8BF00234F
:10DA90009BB24B2B28BF4B232E4A13602E4BD3F83F
:10DAA00000282E4B9A4263D12D4A2E4B11462E4808
:10DAB0001D7802334D7413F8035C83428D7401F1B9
:10DAC0000201F5D129491878023382F8710013F860
:10DAD000030C8B4282F8720002F10202F3D1FEF7CE
